:020000040800F2
:10000000F0FF0120B1240608DDBA050811EC010853
:1000100029250608292506082925060800000000CC
:10002000000000000000000000000000E1BA050828
:10003000E5BA050800000000E9BA0508ADD00108DE
:100040002925060829250608292506082925060840
:10005000292506082925060835BF01083DBF0108E6
:1000600045BF01084DBF010855BF0108B9E50008AB
:10007000CDE50008E1E50008F5E5000809E600081F
:100080001DE6000831E600082925060800000000EA
:100090000000000000000000000000005DBF01083B
:1000A000C1E7010859E70108D1E7010849E701085C
:1000B00081E7010891E70108A1E701082925060861
:1000C00029250608292506082925060829250608C0
:1000D0002925060825D0010831D0010800000000BC
:1000E00065BF01082925060849CA05080000000067
:1000F00000000000000000000000000045E60008CD
:1001000000000000C10B0108B1E70108292506081D
:1001100000000000000000000000000000000000DF
:1001200059E600086DE6000881E6000895E600083B
:10013000A9E6000800000000000000000000000028
:10014000000000000000000000000000EDBA0508FB
:10015000BDE60008D1E60008E5E600083DD001084C
:1001600029250608292506080000000000000000D7
:10017000000000000000000000000000000000007F
:100180000000000029250608000000000000000013
:080190002925060829250608AF
:080198004420060001000000F4
:1001A0000B3001001A000000383500208053002079
:1001B00000000000484607087C5300201F50010043
:1001C0002400000010350020A05300200000000093
:1001D000644607089C5300202B0201000C0000001D
:1001E000281F0020C8530020000000008846070890
:1001F000C45300200A900100240000000C300020AD
:10020000E45300200000000041230408E0530020D4
:100210001402010005000000A44B00200C54002033
:100220000000000094460708085400200610010052
:100230002400000078360020185400200000000040
:10024000A51A0108145400201500100070000000C9
:100250005C6E00209076002000000000000000008E
:100260008C7600202A00080060000000FC6D002051
:100270000477002000000000857D0308007700203F
:1002800021020100F00000000C6D002068770020C2
:1002900000000000F1AF0408647700202C00040087
:1002A00010000000FC6C00205C78002000000000C2
:1002B000198003085878002025201E002C0100001A
:1002C000506B00207078002000000000000000004B
:1002D0006C7800202B00120024000000E06A00204F
:1002E000A079002000000000298003089C790020EC
:1002F00038200100030000007C6A0020C87900203B
:10030000000000009C460708C4790020031101008A
:100310000A00000048690020D07900200000000099
:1003200045030508CC79002029201400780000003E
:10033000E0660020E07900200000000000000000DE
:10034000DC7900201E000100090000007C6600200E
:100350005C7A002000000000A0460708587A0020C0
:100360000D1001004C0000002C6600206C7A00206B
:100370000000000085110208687A00200C40060089
:10038000E4000000305F0020BC7A00200000000084
:1003900061D10208B87A0020012001000C000000A1
:1003A00014600020A47B002000000000AA4607087B
:1003B000A07B0020270001000400000088600020CE
:1003C000B47B002000000000B6460708B07B002088
:1003D0000E400300B6010000645D0020BC7B0020DD
:1003E00000000000CD7C0308B87B00202202010041
:1003F0001C01000054690020787D002000000000EE
:100400004D3F0108747D0020160215003F000000DA
:10041000D87E0020987E002000000000F51B010817
:10042000947E00201F020800100000002C7F002096
:100430001C7F002000000000D11B0108187F002055
:100440001B02010010000000507F0020407F0020B0
:1004500000000000891B01083C7F002028020400E6
:1004600004000000687F0020647F0020000000007E
:100470007D1B0108607F00202702040004000000AB
:10048000747F0020707F002000000000711B0108B5
:100490006C7F0020010201000B000000887F00201B
:1004A0007C7F0020000000007D1A0108787F00207A
:1004B000000201000B000000706A0020987F0020FD
:1004C00000000000751A0108947F00201A02010044
:1004D0003C000000E47F0020A87F00200000000016
:1004E000C12A0108A47F0020040008008000000049
:1004F0007C6C002024800020000000000000000030
:100500002080002019020100100000006C6700200C
:10051000A880002000000000B11B0108A48000207A
:10052000081203000F000000FC700020BC800020B7
:1005300000000000191A0108B88000200A0201001A
:10054000140000004C710020D0800020000000004A
:10055000B1D10208CC8000201C0202001C00000067
:100560008C660020E880002000000000A521010822
:10057000E4800020232001001000000078600020AB
:1005800008810020000000002D23040804810020C1
:10059000031201003D000000CC6E00201C810020F1
:1005A00000000000BA460708188100200C02010074
:1005B0000400000010710020608100200000000095
:1005C000951A01085C81002013100100040000004E
:1005D000886600206881002000000000F8460708B7
:1005E00064810020020201000300000080760020E8
:1005F0007081002000000000000000006C810020DD
:10060000F59101006C000000DC680020788100207A
:1006100000000000EDB5040874810020F6210100FF
:100620000C00000084670020E8810020000000002A
:10063000FC460708E48100201212010004000000BB
:1006400020AC0020F88100200000000008470708C7
:10065000F4810020110201000800000024AC0020F9
:1006600000820020000000000C470708FC810020E9
:1006700034000100100000002CAC00200C8200208F
:1006800000000000697D030808820020F8310100A5
:10069000060000001C6600202082002000000000F0
:1006A000144707081C820020020001000C00000013
:1006B000787100202C820020000000000000000063
:1006C00028820020FE01010014000000586700206D
:1006D0003C82002000000000011A0108388200203E
:1006E000F7010100060000007C6700205482002012
:1006F000000000001A47070850820020FC0101009A
:10070000090000003CAC00206082002000000000D6
:100710009D1B01085C820020FB010100010000001C
:1007200048AC00207082002000000000A91B0108D6
:100730006C8200201A0001000E000000EC70002006
:100740007882002000000000204707087482002003
:100750001400010005000000246600208C820020A7
:10076000000000002E47070888820020FD010100DC
:1007700024000000AA7000209882002000000000E1
:100780009B940108948200201D02020006000000D4
:10079000A4700020C08200200000000000000000C3
:1007A000BC8200201830010038000000A86600203C
:1007B000CC820020000000002D2B0108C882002000
:1007C000F9010100040000004CAC00200883002067
:1007D000000000005594010804830020123001003D
:1007E000100000001C5F00201083002000000000AB
:1007F000344707080C830020FA01010003000000C1
:100800000C710020A4930020000000008D1A010844
:10081000A0930020FF2101000500000020550020CA
:10082000AC93002000000000C11B0108A893002029
:10083000053001000800000018550020B893002082
:100840000000000044470708B49300201302010091
:1008500004000000106F0020C4930020000000007E
:100860004C470708C09300200E0201000200000060
:1008700068D90020D0DB00200000000050470708A6
:10088000CCDB00202F10010022000000D8DB00206C
:10089000A0D900200000000052470708D4DB002048
:1008A0001B2001000C0000002CE500204CE900207A
:1008B0000000000005A7040848E9002016200100F8
:1008C000060000003CE500205CE90020000000007C
:1008D0007447070858E900201010010002000000CA
:1008E0005CE3002068E90020000000007A47070868
:1008F00064E900201900010005000000F4E8002070
:1009000070E90020000000007C4707086CE9002027
:10091000290201004000000010EB00204CED0020F7
:10092000000000008247070848ED0020FD07010095
:100930007C0000008CEC002090ED00200000000006
:10094000E5AD04088CED0020010101000400000069
:1009500088EC002010EE00200000000000000000E5
:100960000CEE0020000101000400000084EC0020D7
:1009700018EE002000000000C247070814EE002017
:10098000020101000300000080EC002020EE0020A6
:100990000000000051D102081CEE0020205201008E
:1009A0000800000040EC002028EE002000000000BD
:1009B000517D030824EE00202A02010008000000F7
:1009C00038EC002034EE002000000000C647070885
:1009D00030EE0020371001002A00000008EC002053
:1009E00040EE002000000000CE4707083CEE00204B
:1009F0000300010001000000140301202005012074
:100A000000000000000000001C050120050201009C
:100A100004000000BCEF00202805012000000000B9
:100A2000F8470708240501202C02010004000000FB
:100A30009CEF00205005012000000000FC47070843
:100A40004C0501202322010010000000D8070120DE
:100A5000480C01200000000000480708440C012059
:100A6000100201000100000074970120709701201E
:100A700000000000104807086C97012009020100DF
:100A800001000000F49601207C9701200000000086
:080A90001248070878970120C5
:100A9800010000000500000048070020D85300208E
:100AA8000400000000000000A993000800000000F6
:100AB800000000000000000001000000000000002D
:100AC80044070020000000000400000000000000AF
:100AD80085C40008000000000000000000000000BD
:100AE800010000000000000086000000F001002066
:100AF800000000000400000000000000B1D0000861
:100B080000000000000000000000000001000000DC
:100B180000000000D80000000000000005000000F0
:100B2800060000000200000000000000300700205E
:100B3800785300200200000001000000D989000855
:100B48002C07002000000000010000000100000048
:100B5800B98900082C0200200000000000000000F5
:100B6800000000000000000000000000000000007D
:100B7800000000000100000000000000000000006C
:100B8800000000000000000001000000000000005C
:100B9800000000000000000000000000010000004C
:100BA8000000000003000000000000000500000035
:100BB800A400000000000000000000004C07002016
:100BC800DC53002004000000000000003D930008F2
:100BD800000000000000000000000000010000000C
:100BE8000000000097000000EC0200200000000058
:100BF80003000000000000009993000800000000B6
:100C080000000000000000000100000000000000DB
:100C18001B00000018030020000000000300000073
:100C280000000000000000000000000000000000BC
:100C38000800000001000000CD930008000000003B
:100C4800000000000000000001000000000000009B
:100C580040070020D45300200400000000000000DA
:100C6800D9D00008000000000000000000000000CB
:100C780001000000000000003C0700200000000008
:100C8800040000000000000085C400080000000007
:100C9800000000000000000001000000000000004B
:100CA80038070020000000000200000000000000DB
:100CB8000000000000000000000000000800000024
:100CC80001000000DD9300080000000000000000A3
:100CD80000000000010000000000000034070020B0
:100CE80000000000040000000000000085C40008A7
:100CF80000000000000000000000000001000000EB
:100D08000000000000010000204E0000000000006C
:100D1800000000000000185006000000D007000086
:100D280002040C000101186007000000A00F000079
:100D380003040E0002031870070000000A1A0000DE
:100D480004040C000305188007000000204E000072
:100D580005020C00000097FF8106C409C4090300BE
:100D68008813010194FFE40CB80BC409060088132A
:100D7800020390FFEF16AC0DC4090A00881303059F
:100D88008DFF2E2AA00FC4090000881360FECD0035
:100D9800010101007EFF0000FFFFFFFF00000401CA
:100DA8000000020001000002100000000700FF0020
:100DB80000600240106002400000000000000000D7
:100DC80000000000000B0000000000000000000010
:100DD800000000000060024028600240010000009E
:100DE8000000000000000000060C000000000000E9
:100DF8000000000000000000006002404060024067
:100E0800020000000000000000000000100D0000BB
:100E18000000000000000000000000000060024028
:100E280058600240030000000000000000000000BD
:100E3800160E000000000000000000000000000086
:100E480000600240706002400400000000000000E2
:100E580000000000200F000000000000000000005B
:100E680000000000006002408860024005000000A9
:100E78000000000000000000261000000000000034
:100E8800000000000000000000600240A060024076
:100E98000600000000000000000000003011000003
:100EA8000000000000000000000000000060024098
:100EB800B8600240070000000000000000000000C9
:100EC800362F0000000000000000000000000000B5
:100ED80000640240106402400000000000000000AE
:100EE80000000000003800000000000000000000C2
:100EF8000000000000640240286402400100000075
:100F0800000000000000000006390000000000009A
:100F1800000000000000000000640240406402403D
:100F2800020000000000000000000000103A00006D
:100F38000000000000000000000000000064024003
:100F48005864024003000000000000000000000098
:100F5800163B000000000000000000000000000038
:100F680000640240706402400400000000000000B9
:100F780000000000203C000000000000000000000D
:100F88000000000000640240886402400500000080
:100F980000000000000000002644000000000000DF
:100FA800000000000000000000640240A06402404D
:100FB80006000000000000000000000030450000AE
:100FC8000000000000000000000000000064024073
:100FD800B8640240070000000000000000000000A4
:100FE800364600000000000000000000000000007D
:100FF800FF00E001FF080000F4010000000000000D
:1010080000000000000000000100000000000000D7
:1010180000000000000000000000000001000000C7
:101028000000000006000000050000008300FFFF2C
:101038001A0000008200FFFF1D0000008200FFFF71
:101048001700000015000000010000001201000256
:101058000000004083042057000201020301000041
:10106800040309041A030000000000000000000047
:101078000000000000000000000000000000000068
:1010880059240108E1240108252501084D19010802
:1010980065250108B125010851190108DC0800205F
:1010A8002124010835180108591801087D1801087C
:1010B80081180108DD18010849190108B80800203D
:1010C800A9190108D9190108F1190108F519010828
:1010D800FD250108F9190108FD19010880590608BC
:1010E800718C0508716B0508FD8A05080000000071
:1010F800000000003D7F05087D7F05080000000016
:101108000000000000000000B16B050891170108FD
:101118009D170108CD230108A5230108A917010877
:10112800E9230108052401082A000000FFFFFFFF4A
:101138001F0000001C0000001F0000001E0000002F
:101148001F0000001E0000001F0000001F0000001C
:101158001E0000001F0000001E0000001F0000000D
:101168000068214CFFFFFFFF0100000045D1010886
:10117800FFFF0000D98F05081D9105085D8F050840
:10118800B5A105084D90050859920508BD6B0508DD
:10119800256C0508396C05080101000000010101F2
:1011A80000000000185906084C590608FFFFFFFF09
:1011B800008002021F00000053544D2020202020F0
:1011C80050726F6475742020202020202020202059
:1011D800302E3031008002021F00000053544D2091
:1011E8002020202050726F64757420202020202039
:1011F80020202020302E3031E16D0508E56D0508EE
:10120800E96D0508F56D0508F96D0508ED6D05082A
:10121800F16D0508FFFFFFFFD01C0708000008025A
:101228000503030000000000DC1C07080100080299
:101238000504030000000000E81C0708000008027D
:101248000503030000000000F01C07080100080265
:101258000504030000000000C02A07080200FE0180
:101268000110030000000000C0BC060803001402BF
:101278000003000000000000F81C070804001F021B
:101288000200080000000000001D070805001F02FA
:1012980002010800000000007D00000001000000BD
:1012A800A00F0000B80B00000102FFFF01000000C2
:1012B8008C1D0708D820070800000000C168020834
:1012C800A0860100040000008C1D070808230708F9
:1012D80000000000C50A0208E8030000040000003E
:1012E80088BD0608000000000000000011E00208A8
:1012F8007D000000FF0000009CC1060800000000FF
:1013080000000000A1FE02087D000000FF000000B0
:10131800383307080000000000000000D5B90308B2
:101328007D000000FF0000005421070800000000B5
:1013380000000000AD0F0208E803000003000000F1
:1013480074C30608000000000000000021A503087F
:101358001027000003000000F41C0708000000002C
:10136800D1810308394202085F76000005000000B9
:10137800A0C606080000000000000000450F020893
:1013880010270000020000001023070800000000DA
:101398000000000075960108E80300000500000041
:1013A8001C2307080000000000000000ADDA020856
:1013B800204E0000030000002C2307080000000056
:1013C80000000000B1F00208204E000003000000F9
:1013D8003C2307080000000000000000ED3B020865
:1013E800400D030003000000681E0708000000000D
:1013F80000000000D93F020810270000020000008A
:10140800A8C606080000000000000000D1C50408B6
:101418001027000003000000F4BF060800000000C9
:101428000000000041090208A86100000200000055
:10143800ACC606080000000000000000CD1102083C
:10144800A00F0000020000004C2307080000000065
:10145800000000002DF00408102700000200000022
:10146800F4C606080000000013AE04086947050822
:101478008545010002000000B4BF06080000000016
:1014880000000000110105081027000002000000FC
:10149800EC2007080000000000000000AD750408FB
:1014A80050C3000002000000582307080000000095
:1014B80000000000DD230508400D030001000000C6
:1014C800602307080000000000000000810A0208ED
:1014D800400D030002000000682307080000000018
:1014E80000000000BDE3040850C300000300000032
:1014F800742307080000000000000000D1D0020893
:1015080040420F000100000080230708000000008F
:1015180000000000F532020850C30000010000007E
:101528008C2307080000000000000000F52D0508C6
:101538001027000002000000B18A05081D6B05088D
:1015480095890508000000004D6B0508E58A050827
:1015580071780508497805080000000000000000BF
:10156800416B0508B16D0508D56D050819A1050879
:10157800FDA0050835A1050851A105086DA10508BC
:10158800058A0508F96A050889870508000000002A
:10159800C96A05089576050835770508217805088C
:1015A8000000000000000000ED6A05080000803F10
:1015B8000000000000000000000000000000803F64
:1015C8000000000000000000000000000000803F54
:1015D800000000000000000000000000FFFFFFFF07
:1015E800FFFFFFFF25340208000000000000000094
:1015F80000000000A96602080000000000000000CA
:1016080000000000000000003C0501200800000068
:10161800000000002C050120080000000101000066
:10162800FFFFFFFF01F11F3F280C0120360C0120AE
:10163800793F0208000000000000000000000000E0
:101648000000FA430000FA430000803F0000000059
:101658000000000000000000000000000000000082
:101668000000000000000000000000000000000072
:101678000000803F5C0C0120482301209C230120AE
:10168800D6010000FF1FFF1F00FF00000000000040
:1016980000000000D12D0408000000000000000038
:1016A8006A9A060801FF0000000000000000000020
:1016B80000000000149E0608000000000000000062
:1016C80000000000CC9E060800000000000000009A
:1016D80000000000789E06080000000000000000DE
:1016E800F13F0408282901200101000011450408E0
:1016F800000000000000000070B2060801000000B1
:10170800FA00000001000000010000002D202D2D2E
:10171800202D2D2D2D202D2D2D0000000000000046
:10172800000000000000000000000001F947040864
:101738000000000000000000789D06083B870408B0
:101748000000000000000000309D0608C2260120AD
:1017580088136F1701000000C426012088136F1733
:1017680000000000C626012088136F170100000042
:10177800C826012088136F1700000000812D040877
:101788000000000000000000D09A0608702901201F
:1017980001000000249B0608CB2601200100000060
:1017A800309B06087027012002000000389B0608BD
:1017B800A92D04080000000000000000449B060852
:1017C800000000000000000000000000989B0608D0
:1017D800000000000000000000000000089C06084F
:1017E800C026012002000000509C0608C82C0120D9
:1017F800E0150C1700000000C0120000EE2C0120BC
:101808000000000000000000EC2C01200000000097
:1018180000000000EA2C0120000000000000000089
:10182800E82C01200000000000000000E62C012048
:101838000000000000000000E42C0120000000006F
:1018480000000000000F0020000000000000000061
:10185800CA26012003000000409C06080000000082
:1018680000000000000000005C9C0608F22C01202B
:101878009CFF2C010000000072290120E0150C17C4
:10188800000000007429012002000000509C060896
:101898002D202D2D202D2D2D2D202D2D2D2D0000F1
:1018A8000000000000000000000000000000000030
:1018B800000000000000000000000000949C0608E2
:1018C8007C2501200000F401010000007A25012098
:1018D8000000F40101000000782501200000F40157
:1018E80001000000762501200000F401010000003D
:1018F800742501200000F401010000007225012078
:101908000000F40101000000702501200000F4012E
:1019180001000000F12404082D250408000000003F
:10192800149F06088C250120053201009A25012004
:101938003200F40101000000982501206400C40968
:10194800010000008A250120E803D00701000000FB
:1019580088250120E803D007010000008625012022
:10196800E803D00701000000842501201E00B80B01
:10197800010000009225012003000F000100000073
:101988009425012003000A0001000000822501209F
:101998000F00F4010100000096250120020000005C
:1019A800905206088025012005006400010000000F
:1019B8008E2501201900E803010000007E25012082
:1019C8000000C80001000000D825012000C801005F
:1019D800D725012000500100D6250120005A01001A
:1019E800D4250120020000008C4E0608D82E0708D6
:1019F800E02E07086E2901200100C409000000003C
:101A08006C2901200100C409000000006A29012096
:101A18000100C40900000000682901200100C40970
:101A280000000000642901200100C4090000000032
:101A3800662901200100C409000000006229012074
:101A48000100C40900000000602901200100C40948
:101A580000000000A126012000C80100A0260120E6
:101A680000C801009E2601200000FFFF0A000000B8
:101A78009C2601200100C800010000009A260120D0
:101A88003200307532000000982601207EFF1400D5
:101A9800050000009626012005002C010500000025
:101AA80094260120055A0500A726012000FF010001
:101AB800A526012002000000F4100020A326012022
:101AC80003000000A09F0608A626012000FF0100D1
:101AD800A426012002000000F4100020A226012004
:101AE80003000000A09F060880270120FF7F010057
:101AF8007C27012000000000FFFFFFFF010000001D
:101B08007827012000000000FFFFFFFF0100000010
:101B18007427012000000000FFFFFFFF0100000004
:101B280069250408D525040800000000B09F0608B0
:101B38006A250120EE02CA0801000000692501207B
:101B480000C80100640000006825012002C80100E7
:101B5800640000006725012002000000D84F060835
:101B6800BE2601200000803E05000000BC260120A2
:101B780080C1803E05000000BA2601200083007D58
:101B880005000000B826012080C1803E0500000045
:101B9800B626012000FF0100B42601206400F401EC
:101BA80001000000B22601206400F40101000000D9
:101BB800B02601206400F40101000000AE260120D7
:101BC800040000004C520608AD2601200200000067
:101BD80040520608112601200D000000404E06085C
:101BE8000E260120006401000C2601203200102777
:101BF8000A0000000B2601200D000000404E0608D8
:101C08000A2601200D000000404E06080926012082
:101C180002000000784E06080000000000000000E6
:101C280000000000BCA00608662501204A0000004C
:101C38001C5006086425012003000000F4A00608D3
:101C480065250120040000006052060807260120CF
:101C58000300000004A10608062601200300000076
:101C680004A10608FA250120000A0100F825012030
:101C78000000E80301000000F62501200000E80349
:101C880001000000F4250120000A0100F2250120CE
:101C98000000E80301000000F02501200000E8032F
:101CA80001000000E8250120C800E8030100000049
:101CB800EE2501203C00FA0001000000EC2501207F
:101CC8000100E80301000000EA25012000050100E9
:101CD800E6250120020000004C4F0608E4250120FB
:101CE8000000F40101000000E22501200000F401D9
:101CF80001000000E02501200000F40101000000BF
:101D0800DE2501200000F40101000000DC2501208F
:101D18000000E80301000000DA2501200000E803C4
:101D280001000000D2250120006401000A00000023
:101D3800D1250120006401000A000000BF25012010
:101D480019640100BE25012002000000404F06086A
:101D5800BC250120E803D0070A000000BA250120AD
:101D6800006401000A000000AF25012000640100A2
:101D7800AE25012000640100B625012000640100A1
:101D88000A000000B5250120006401000A000000D7
:101D9800B4250120006401000A000000B9250120D3
:101DA80000FF01000A000000B825012000FF010023
:101DB8000A000000B725012000FF01000A0000000A
:101DC800B325012001FF01000A000000B22501200F
:101DD80001FF01000A000000B125012001FF0100F8
:101DE8000A000000042601200000F40101000000A0
:101DF800022601200000E80301000000002601205F
:101E08000000E80301000000FE2501200000E803AF
:101E180001000000FC2501200000E803010000008B
:101E280027290120009601001E29012000C8010071
:101E38001D290120006401001C2901200064010003
:101E48001B290120006401001A29012000640100F7
:101E580019290120FF080100182901200164010047
:101E680025270408692704080000000014A10608B3
:101E78002129012001320100202901200100000050
:101E8800184F06081F29012004000000204F0608EB
:101E9800172901200096010016290120006401007D
:101EA800142901200000FA000A000000132901206B
:101EB8000A5A01001229012000C801001129012035
:101EC80000C801001029012000C8010024290120B0
:101ED80000320100262901200014010025290120D3
:101EE800004B010023290120040000000C4E0608C5
:101EF80022290120006401000A000000AA2501200F
:101F08000AC805000A000000A925012001000000F8
:101F18000C530608AC2501200AC805000A00000079
:101F2800AB250120010000000C530608A125012063
:101F380000C805000A000000A825012000C8050007
:101F48000A000000A225012000C805000A000000C0
:101F5800A325012000C805000A000000A6250120CD
:101F680000C805000A000000A725012000C80500D8
:101F78000A000000A525012000C805000A0000008D
:101F8800A425012000C805000A000000A0250120A2
:101F980002000000C84D06080E2901200000D007E5
:101FA800010000000929012000C8010008290120BA
:101FB80000C801000729012000C801000C290120E0
:101FC8000000D007010000000629012000C8010018
:101FD8000529012000C801000429012000C80100CA
:101FE8000A2901200000D007010000000329012070
:101FF80000C801000229012000C8010001290120B0
:1020080000C80100143B0708000000000000CA2CAB
:102018000120203B070807080000000004170020E3
:10202800283B0708070800000000FC160020303B8A
:102038000708070800000000F4160020383B0708CE
:10204800080800000000E8160020403B07080708C1
:1020580000000000E0160020483B070807080000C1
:102068000000D8160020503B0708070800000000B1
:10207800D0160020583B0708080800000000C416C6
:102088000020603B0708071000000000BC16002075
:10209800683B0708071000000000B4160020703BDA
:1020A8000708071000000000AC160020783B07085E
:1020B800081000000000A0160020A82C0708010046
:1020C80000000000000000000000000010000000F8
:1020D8000000000000000000552A0408652A0408D2
:1020E8006146040884A1060817260120005A010049
:1020F8001626012000C8010014260120E803D00795
:10210800010000000000000000000000F94B040876
:1021180020A20608AC26012003000000B84D0608DE
:10212800AB26012000030100AA26012000030100BC
:10213800F92A0408452B04080000000068A20608D4
:10214800912B0408D12B04080000000004A3060802
:10215800E12A0408854604080000000084A3060854
:10216800A826012001030100892E0408B12E0408C5
:1021780000000000F8A606084D2404087524040889
:102188000000000078A70608512C0408B12C0408A8
:1021980000000000E8A70608052A04087D84040852
:1021A80000000000A0A806089141040811240408B2
:1021B8000000000048A9060865290408000000007E
:1021C80000000000E4A9060825280408912804084E
:1021D8000000000048AA0608AD270408E9270408FB
:1021E8000000000000AB0608BD8A0408F1260408B8
:1021F800000000008CAB06089F25012001060100A5
:10220800F52804083129040800000000A4AC0608D9
:10221800018B0408314404080000000014AD0608CE
:10222800692604080D4304080000000090AE060863
:10223800618A0408CD420408000000000C17002041
:102248009D25012001030100812A0408B12A040800
:10225800000000009CAF0608C53F0408000000000D
:102268000000000000B00608192C0408A146040864
:10227800000000009CB006080000000000000000FC
:102288000000000038B106084126040895420408F9
:1022980000000000B8B10608000001FFFFFFFFFFC3
:1022A8000000803FFF00000001010000A849012054
:1022B80000000000A0490120000000000101AA550B
:1022C8000902000000AA5503009FAA550B0100004F
:1022D80014000000FF00000009024300020100C0D2
:1022E8003209040000010202010005240010010562
:1022F80024010001042402020524060001070582C6
:10230800030800FF09040100020A00000007050194
:102318000240000007058102400000000902640035
:10232800030100C032090400000103000000092174
:10233800110100012236000705830309000A080B72
:102348000102020201000904010001020201000564
:1023580024001001052401000204240202052406B9
:102368000102070582030800FF09040200020A00AF
:102378000000070501024000000705810240000037
:1023880009022000010104C0320904000002080605
:1023980050050705810240000007050102400000C2
:1023A80012010002EF0201408304563200020102CA
:1023B800030100001201000202020040830440579A
:1023C800000201020301000004030904AA550701E1
:1023D8000000AA5505010000AA55050100000800E3
:1023E80005010905A101A1000501093009310932DA
:1023F800093309350934093609371581257F7508E8
:102408009508810205091901290815002501950873
:1024180075018102C0C0000009022200010100E02C
:102428003209040000010301020009211101000121
:102438002236000705830309000A00000000000097
:102448000000000001000000000000000000000083
:102458003E5B0120000000000100000000000000B9
:102468000000000000000000000000000000000064
:102478000000000000000000000000000000000054
:10248800000000000000000000000000FF00000045
:102498000000000001020304010203040607080902
:1024A8009D8505083D86050885800508996A050803
:1024B800B58905087D6A0508656A0508A96A0508D9
:1024C800B96A0508000000000000000001000000D3
:1024D800000000000DA605089DA5050865980508DB
:1024E800A9A4050899A20508816D0508956D050838
:1024F800A96D0508000000000000000001020304A7
:1025080006070809C70000000500000006000000D3
:102518001C1C00200000000000000000000000005B
:1025280000000000000000000000000000000000A3
:102538000000000000000000000000000000000093
:102548000000000000000000000000000000000083
:102558000000000000000000000000000000000073
:102568000000000000000000000000000000000063
:04257800000000005F
:08280000082800080040000850
:1080000082B01E4B002201920193019B1C4A043353
:108010000193019B1968936803F00C03042B06D0AD
:10802000082B08D0174B184A1A6002B07047154B3E
:10803000196002B070475368506813F4800F00F065
:108040003F00536812D1C3F388130F49B1FBF0F11D
:1080500001FB03F30A4A0B495268C2F301420132A1
:108060005200B3FBF2F30B6002B07047C3F3881306
:10807000B1FBF0F101FB03F3ECE700BF5028004037
:1080800000380240801C00200024F400074BD0F888
:10809000E4105B68D0F8F0205B1A9A42B8BFC0F8D1
:1080A000F030012380F81C3100207047001000E000
:1080B00090F8DB30052B03D890F81E31032B01D04C
:1080C0000020704790F8233103F0FB03022B0CBF14
:1080D00000200720704700BF30B5EAB18E464FEA56
:1080E000014C034600F1C005002419689A6841EA72
:1080F0000C0142EA0E029A60C3E900140C33AB4251
:10810000F3D1D0F8C030C0F8C44043EA0E03C0F841
:10811000C030C0F8C84030BD4FEA014E8C46E0E7A1
:10812000836930B41C6999682268096822F00102E9
:1081300022608A899C8992B222EA04028A81027DA5
:1081400000681F2A06D94468203A0821914021423C
:1081500016D0FEE70468082191402142F9D1202180
:1081600001FA02F28260224A12793AB11A7E012A99
:108170000BD1D3F8F8200132C3F8F82030BC704797
:10818000202101FA02F2C260EDE7D3F8F4200132B7
:10819000C3F8F420EFF31181502282F3128858685B
:1081A0005C6C026822EA04029C6C2243C9B2026041
:1081B00081F31188D3E90C401A6999681D6C09682C
:1081C00014605061D3E90E40546090600024B3F80D
:1081D000A800D5604C62C86210680124204310607A
:1081E0001C768A899B8913439BB230BC8B81704774
:1081F000801C0020704700BF024B03EB401090F83A
:1082000025007047801C00204368B0F8502010B44F
:108210001A83EFF31182502383F312884168446C70
:108220000B6823EA0403C46C2343D2B20B6082F3CD
:108230001188D0E907418268036912681C6059619E
:10824000D0E909415C60C46A9960B0F86010DC60F4
:108250000023D1625DF8044B03767047084B10B5DC
:10826000D3F8083118440C46007E14F0B9FC18B15C
:10827000036882880CB11A8310BD5A83FCE700BFE3
:10828000801C0020037D1F2B30B54FF020020468B6
:1082900016D9A3F120056168AA400A420FD00C4A02
:1082A000002182F80C1141680A681F2B22F001029C
:1082B0000A604FF0200206D9203B9A40E26030BDB0
:1082C00021689A40E9E702FA03F3A360F7E700BFE9
:1082D000801C0020F0B4037D85691F2B63D90168E1
:1082E000A3F120024E6820249440264249D0102356
:1082F0009340CC60CB604B68D340DE0767D4EFF38C
:108300001183502282F312882A6C1168C9072FD476
:10831000516889B271B9D5E90964A64225D0AF691F
:108320002744D76058D9341BA4B25460AE620021F0
:1083300085F86410116841F00101DBB2116083F32C
:108340001188037D1F2B19D802681946106808236D
:108350008B40184200D093601068042303FA01F1A7
:10836000014200D09160F0BC7047012285F8642082
:10837000DBB283F31188037D1F2BE5D90168A3F1DC
:1083800020024C6808209040044200D0C8604C682D
:10839000042000FA02F22242E5D0203B00FA03F367
:1083A000F0BCCB6070470268202416689C402642CF
:1083B0001946CBD010219940946091601168D94042
:1083C000CC079CD5012101FA03F3936097E70123C1
:1083D00003FA02F2CA6092E72E69341BA4B2546019
:1083E000A962A4E74FF4006383817047074BD0F87C
:1083F000E4105B68D0F8F0205B1A9342C8BFC0F865
:10840000F030012380F81C3100207047001000E09C
:108410004FF40063838170474FF40063838170479A
:108420004FF4006383817047012380F81031704757
:1084300007B500238DF807300DF1070201230F2146
:1084400012F0C2FF28B19DF807306C2B14BF00203A
:10845000102003B05DF804FB4FF400638381704784
:108460004FF40063838170474FF40063838170474A
:1084700038B580226B21054612F056FF642015F0B6
:108480008BF9F521284612F0B1FFAC2818D005D899
:10849000122817D0982817D000240FE0AF28FBD15E
:1084A000092410226A21284612F03EFF28460322A2
:1084B000682112F039FF642015F06EF9204638BDAE
:1084C0000724EEE70824ECE70B24EAE738B500229E
:1084D0004E21054612F028FF1524962015F05CF970
:1084E000F521284612F082FF422807D0472807D0FE
:1084F000013C14F0FF04F0D1204638BD0C24FBE70A
:108500000D24F9E738B580226B21044612F00CFFE8
:10851000642015F041F9F521204612F067FF054669
:10852000012014F0A1FF682D1BD18C21204612F0F0
:108530005DFF18280DD8142834BF002503252046D8
:108540000722682112F0F0FE642015F025F9284674
:1085500038BDA0F15403DBB2072B34BF032500253F
:10856000EDE70025F3E708B5F52112F03FFF70288D
:1085700018D008D8422817D0472817D0122814BF7F
:108580000020082008BDAC2812D006D800F0FD005D
:10859000712814BF00200620F4E7AF2814BF002084
:1085A0000920EFE70520EDE70C20EBE70D20E9E7D8
:1085B0000720E7E7704700BF094B93F8102193F8B5
:1085C000113152085BB25242002B02700B700278DC
:1085D000BABF0333C3F38703002313440370704708
:1085E000801C00202E4B93F8122193F812C1BCF18D
:1085F000010FD2B25FFA8CF10DD00239022907D8EF
:1086000093F8131181423CD093F81211022906D03D
:1086100083F81221704793F81311814211D0B3F8F7
:108620001411B3F816C1013189B28C45A3F81411A5
:10863000EED280F00100032283F8130183F81221A7
:10864000704793F8181193F819C1614493F81AC14F
:10865000C9B28C4583F8181193F81B1103D801296E
:1086600014BF00220222013180F001004FF0000C03
:1086700083F81B1183F81301A3F814C183F81221A6
:10868000704793F81221A2F10402B2FA82F281F04B
:108690000101520983F8131183F81221704700BFBA
:1086A000801C0020144A154992F83F31C3EB832304
:1086B000A1FB03135B09D2F8341103F577738383AD
:1086C00092F93EC1B1F90220944511DB6FF03101FE
:1086D0008C45D4BFC2EB0C03C2EB0103C3EB832375
:1086E0008A1A93FBF2F303F577739BB2C383704747
:1086F0004FF47773C3837047801C00201F85EB51B4
:108700002DE9F0410026871E00F10608B6463546E1
:10871000092D1ED833462A4601EB030C02F108044A
:108720009CF801C00CFA02FCE2B20133092ADBB268
:108730004EEA0C0EF0D9C5F10903C3F3C4020835A3
:10874000013603F0F80352FA86F653FA85F3F6B2CF
:10875000DDB2CEF3090303F5777327F8023F0A3D34
:1087600047454FEA9E2EEDB2D2D18B79DB0914BF7B
:108770004FF4FA634FF47A730381BDE8F08100BFD0
:10878000234BD3F8301193F82C21497BD1B310B48B
:1087900093F8404194BB93F86501A8BBD2B2013273
:1087A000B2FBF1F401FB14224ABB93F84521022AE3
:1087B00025D093F89C21B3F89E11D3F8A042013242
:1087C000B2FBF1F001FB1022D2B283F89C2193F8A6
:1087D0009C11D3F8A422D3F8240152681944121A28
:1087E00091F8A01104FB01F1012002EB11225DF8C8
:1087F000044B83F84001C3F82821704700205DF83E
:10880000044B70470846704720465DF8044B70479C
:10881000801C00200E4A92F8650192F82C31A0B914
:1088200010B492F845110B4C022922780AD0012A83
:1088300008D0DBB20133B3FBF2F002FB1033B3FA22
:1088400083F040095DF8044B70470020704700BF7B
:10885000801C002098010020002858D070B5A9B1D4
:108860002B4E96F8B03204468BB9FFF749FF96F8C5
:10887000B4228B79062A03F07F0333D903F03F0338
:1088800086F8B5322046BDE870400BE770BDFFF7B3
:1088900037FF8B79C3F3C202052A03F07F0311D897
:1088A00003F00703052B9CBF1A4931F8133002F17E
:1088B000050288BF40F2DC5324F812302046BDE8A0
:1088C0007040EFE64FF47A71134A03F00F0301FB97
:1088D00003F3A2FB0323DB080B44C3822046BDE85D
:1088E0007040DFE60D49097807294FF47A7094BF8C
:1088F00003F03F039BB202F1050294BF3F217F21A9
:1089000000FB03F3D2B2B3FBF1F30344D4E77047A7
:10891000801C0020B84006088988888898010020BB
:1089200038B50446006A03681A7B92B9637E0BB9B6
:10893000012038BD094D0A49022305F52E7212F0B7
:10894000D7FC95F8B90200F00100607680F00100D4
:1089500038BD1B6A002BE9D0002038BD801C0020E8
:108960009C0100202DE9F8430546006A104F066877
:108970006B7E347BDFF83C9007F52E7884B9A3B189
:1089800002234246494612F0B3FC97F8B93203F08D
:1089900001036B764BB1286A0668347B002CEED05D
:1089A000326A002AFCD1002BEAD10120BDE8F8830D
:1089B000801C00209C01002001234376002070478A
:1089C000D0E90A2108B543690B4443610AB108465E
:1089D0009047002008BD00BF036A1B681B6A5B68E4
:1089E0005B78024613F0010008BF5076704700BF65
:1089F00082624161704700BF704700BF043070471A
:108A0000164BD0F8E0105A6810B50446D0F8D800DC
:108A100071B1131A99420BDC94F8D030C4F8D82005
:108A2000012B10D0D4F8D4300133C4F8D43010BDA9
:108A3000D4F8E430C4F8D8200344C4F8DC3094F807
:108A4000D030012BEED104F1E801201D12F01EFC04
:108A5000D4F8D4300133C4F8D43010BD001000E095
:108A600010B504460E49D0F8D83094F8D020D0F88C
:108A7000E40049680344012AC4E9361305D0D4F858
:108A8000D4300133C4F8D43010BD04F1E801201D06
:108A900012F0FCFBD4F8D4300133C4F8D43010BD4C
:108AA000001000E070B5866996F8DC30012B8AB0C2
:108AB000054623D0023B012B2BD8D6F89C30164C10
:108AC0008C221A700FCCEC46ACE80F00D6F89C3024
:108AD0000093D6F8A03001930FCCACE80F0094E8D7
:108AE0000300AB698CE8030003F11000694612F043
:108AF000CDFBAB691A69136A002BFCD1D6F8A03004
:108B0000B3F90220EA81B3F904202A82B3F90630CE
:108B10006B8201200AB070BDC440060810B50C4C31
:108B2000D4F8BC0213F0F4F994F8C032012B02D04F
:108B300094F8C0322BB9BDE810400649064812F03F
:108B4000A5BB04F531700549BDE8104012F09EBB8D
:108B5000801C0020A0010020441F0020C80100202C
:108B600070B50C4CB4F82851D4F8BC02D4F8286184
:108B700013F0CEF9084B6DBA360C83F85960A3F8A0
:108B80005A5004F5317003F15C01BDE8704012F0F9
:108B90007DBB00BF801C00209801002070B5224AD8
:108BA000224C234B94B00546CDE90042214A09925C
:108BB000A4F108020A922A7E0493201D0023CDE925
:108BC00005039A42CDE90E330B931093139314BF10
:108BD0000520042011932B6A0C90022001220290A0
:108BE00018688DF80C200E4607928DF820208DF81D
:108BF00034208DF8482058F0F7FD2B7E93B1330ECA
:108C000004F8073C063C320C330A22706370A670ED
:108C1000286A694612F03AFB2B6A186858F0E4FD9E
:108C200014B070BD073CEEE7DC1F002024020020DA
:108C3000D9890008B989000810B5044694B05022BB
:108C4000064968465BF082F9206A694612F01EFB0D
:108C5000236A186858F0C8FD14B010BDEC4006082F
:108C60002DE9F0410446006A00681E460F46904612
:108C700058F0BAFD237E002B3ED02C4865690523B1
:108C8000C0F8CC302B0E80F8953000F196039D7023
:108C90002A0C2D0A1A705D703B68C0F8D830012E7E
:108CA000D8F80030C0F8E030E36230D0022E2BD18B
:108CB0000021D8F80420C0F8E81080F8E4107968A2
:108CC000C0F8EC1013441A49C0F8F4200125E362FF
:108CD00080F8F850C0F8FC10164B617E206A03F152
:108CE0001402002914BF1946114612F0CFFAA36AE4
:108CF000B3B1E06ABDE8F0810C4865690423C0F8AF
:108D0000CC3000F19503C2E70020BDE8F081084AAD
:108D100080F8E4600023C0E93A23C0F8F430DBE7D0
:108D2000236A186858F060FDE3E700BF980100204F
:108D3000C18900083402002000B583B0416101926E
:108D4000049A0093826201236A4601A9FFF788FF13
:108D500003B05DF804FB00BF2DE9F0430446006A50
:108D6000354D006895B00E469146984658F03CFD4A
:108D7000324B0193324B049305F58E730093217EA1
:108D80000223029305F58A72012300278DF80C3027
:108D900005920697002937D08DF834308DF8483089
:108DA000CDE90977330ECDE90E77CDE9107785F857
:108DB00015310523CDF82C908DF82070CDF830803A
:108DC000139705F58B750793330C1E4F2B70330AE1
:108DD0006B70AE70D7F86403256A12F0DDF9637E1C
:108DE000A8803BBB05A9284612F050FA236A1868F0
:108DF00058F0FAFCD7F8680312F0CEF9236A98808D
:108E0000404615B0BDE8F0838DF834308DF8483019
:108E10000423CDE90911CDE90E11CDE91011CDF8EA
:108E20002C908DF82010CDF83080139105F2151597
:108E30000793C9E76946D6E798010020E01F0020A4
:108E4000D9890008801C002010B504468069036998
:108E50001A78022A82B002D0002002B010BD90F829
:108E60004C111B6A41F08001002BF5D16A460623A4
:108E7000103012F083FABDF80010BDF80220BDF8E2
:108E8000043049BA52BA5BBA0120E181228263827E
:108E900002B010BD03691A78022A01D00020704781
:108EA00010B51B6A90F84D1182B0044641F0800164
:108EB00013B1002002B010BD6A460623103012F034
:108EC0005DFABDF80010BDF80220BDF8043049BAC3
:108ED00052BA5BBA0120A4F8D010A4F8D220A4F8AA
:108EE000D43002B010BD00BF10B5044680690369DC
:108EF0001A78022A82B008D0009ABDF80430C4F86B
:108F00000E200120638202B010BD1B6A002BF3D13A
:108F100006236A46A821103012F030FAECE700BFB1
:108F200010B503691A78022A82B0044609D0009A63
:108F3000BDF80430C4F8D0200120A4F8D43002B029
:108F400010BD1B6A002BF2D106236A46A221103005
:108F500012F014FAEBE700BFF0B5836993F8DC2058
:108F6000012A8BB0054627D0023A012A2FD893F860
:108F70004C21D3F89C10174C62F07F030B7086696C
:108F8000D6F8A0305F1C0FCCEC46ACE80F00D6F84A
:108F90009C30CDE900370FCCACE80F0094E803001B
:108FA0008CE80300694606F1100012F06FF9AB6916
:108FB00019690A6A002AFCD1D3F8A0305A8852BA3B
:108FC000EA819A8852BA2A82DB885BBA6B820120D6
:108FD0000BB0F0BD3C410608F0B590F8DC30D0F89D
:108FE000A060012B8BB004464BD015D8D0F89C3034
:108FF0004FF0FF321A605A609A60DA60D0F8E030C1
:109000000522B3F57A7FC0F8F02054D8032380F806
:10901000DC3001200BB0F0BD023B012BF9D890F8F9
:109020004D31D0F89C203A4D63F07F031370D0F897
:10903000A0305F1C0FCDEC46ACE80F00D4F89C309C
:10904000CDE900370FCDACE80F0095E803008CE8C0
:109050000300694604F1100012F018F92269136A3E
:10906000002BFCD173885BBAA4F8D030B3885BBA0C
:10907000A4F8D230F38801205BBAA4F8D4300BB046
:10908000F0BD90F84C2190F84D319B1A5B100133E4
:10909000DBB206EB430236F813305BBAA0F8D030EF
:1090A00053885BBAA0F8D23093885BBAA0F8D4306A
:1090B00001200BB0F0BD03691A7B2AB35B691BB3B7
:1090C00090F8983003B390F84C31D0F89C20C4F855
:1090D000A40063F07F03137090F84C1190F84D31A9
:1090E000D0F8A0200B48C4F804015B1A0733012113
:1090F000C4F8FC30D4F89C3084F800110A44C4E968
:109100003D3284F8DC1084E7022384F8DC3080E709
:109110003C4106088D800008F0B590F81E31032B05
:109120008DB0054658D090F8DC30D0F8A060012B07
:1091300000F08E8015D8D0F89C3000221A605A605A
:109140009A609A81D0F8E0300522B3F57A7FC0F8B2
:10915000F02036D80323012480F8DC3020460DB0FF
:10916000F0BD023B012B33D8D0F89C30554F9222F2
:109170001A700FCF02AC0FC40FCF0FC497E80300D3
:10918000D5F89C3084E80300029302A9D5F8A030FA
:10919000039305F1100012F079F82A69136A002B85
:1091A000FCD1B6F90230A5F8D030B6F90430A5F8F4
:1091B000D230B6F90630A5F8D430012420460DB0DF
:1091C000F0BD03691A7B002A5AD1022385F8DC30EE
:1091D000012420460DB0F0BD3B4902913B4903916B
:1091E0000A21002301221030049102A98DF81420D5
:1091F0008DF828200190CDE90633CDE908330B9393
:1092000012F044F82A690198136A002BFCD1304906
:10921000B1F86E23052A19DDB1F97043D1F87063F6
:10922000B1F97273B1F9741314F5004F20D0C5F879
:10923000D060A5F8D4100124063A002AC9D0B02283
:109240007E2112F071F820460DB0F0BD1C46F4E707
:10925000B6F90820A0F8D020B6F90A20A0F8D2204C
:10926000B6F90C20A0F8D4201C4620460DB0F0BD65
:1092700017F5004FDBD111F5004FD8D11C46DBE7C5
:109280005B69002BA1D090F89840002C9DD0D0F8BD
:109290009C30C5F8A4008C221A70D0F8A020C0F829
:1092A000F8200E2201230B49C0F8FC20D0F89C20A6
:1092B000C0F80411C0F8F42080F8003180F8DC30E8
:1092C00087E700BFC4400608B8020020EC1F00205A
:1092D000801C0020ED83000870B50446EFF3118573
:1092E000F02383F312881249D1F8BC32A3B11A6873
:1092F00010699A8810420FD00E48C1F878434FF099
:1093000000430168B2FA82F223FA02F20A430260D1
:10931000EDB285F3118870BD184612F0F9FDEDB27B
:1093200085F3118804482346BDE87040184700BF04
:10933000801C0020003C0140F81F002008B5036895
:109340001A6A51681A6A8B785268D27842EA032303
:10935000D20708D50E4B0F48022283F8C022FFF730
:10936000BBFF002008BD13F0020308D0084B0948DA
:10937000012283F8C022FFF7AFFF002008BD044A96
:10938000044882F8C032FFF7A7FF002008BD00BFE5
:10939000801C00202994000808B50248FFF79CFFB4
:1093A000002008BD1D8B000802680648126A08B537
:1093B0005268054BD27883F87C23FFF78DFF00209D
:1093C00008BD00BF71940008801C002008B5024849
:1093D000FFF782FF002008BDC194000808B50248CD
:1093E000FFF77AFF002008BD819500080A4BD3F8EB
:1093F000BC3263B19A884FF00043B2FA82F2D34094
:1094000005D0064A116821EA03011160536104493D
:10941000044811F03BBF00BF801C0020003C01400D
:10942000C4020020441F00200D4BD3F8BC3263B1AE
:109430009A884FF00043B2FA82F2D34005D0094A2D
:10944000116821EA030111605361074B0748FF22AD
:1094500003F5AC7183F8552183F8562111F016BF3E
:10946000801C0020003C014098010020441F002087
:109470000F49D1F8BC3263B19A884FF00043B2FA79
:1094800082F2D34005D00B4A106820EA0300106036
:109490005361094B094A91F87CC383F881C103F5F4
:1094A000C271A2F1BC00C3F89C2111F0EFBE00BF55
:1094B000801C0020003C014098010020002000207A
:1094C0000A4BD3F8BC3263B19A884FF00043B2FA2A
:1094D00082F2D34005D0064A116821EA03011160E7
:1094E00053610449044811F0D1BE00BF801C002024
:1094F000003C014058030020441F00200A4BD3F8D1
:10950000BC3263B19A884FF00043B2FA82F2D34082
:1095100005D0064A116821EA03011160536104492C
:10952000044811F0B3BE00BF801C0020003C014085
:1095300080030020441F00200D4BD3F8BC3263B1E0
:109540009A884FF00043B2FA82F2D34005D0094A1C
:10955000116821EA030111605361074B074AC3F800
:10956000242203F50471A2F1C40011F08FBE00BFE4
:10957000801C0020003C01409801002008200020B1
:109580000A4BD3F8BC3263B19A884FF00043B2FA69
:1095900082F2D34005D0064A116821EA0301116026
:1095A00053610449044811F071BE00BF801C0020C3
:1095B000003C0140E4030020441F00202DE9F04757
:1095C000044690F8210144F23B3382B0A4F84C31B8
:1095D00010B902B0BDE8F0870509013D042D00F087
:1095E0000F0071D83A4F07EB4503B3F8AC3043FA9C
:1095F00000F2D20768D5012606FA00F001381840BB
:109600003D4458F0D7FDDFF8D89095F8B880314B3D
:10961000804409F5647A0AEBC8052622EA80E360F3
:10962000AB88B3FA83F3202BC3F11F02D1D01744C8
:1096300009EB82020C34C2F81046284697F8C04065
:1096400012F066FC0021284612F09AFC5AF8380005
:10965000A98800F13F40B1FA81F100F57E00C1F127
:109660001F01C0F38720C9B250F014FBAA888DF8FF
:109670000660B2FA82F24FF00043A144D34068463C
:109680004FF400620093ADF8042056F0B3F899F857
:109690005036F02B0ED8AB884FF00042B3FA83F36C
:1096A00032FA03F395D00C490A6813430B6002B0F9
:1096B000BDE8F087094AF023105D89F85036002292
:1096C000032156F015FAE6E7024BE36081E700BF9D
:1096D000B8400608018A0008003C0140D8B90608D5
:1096E000801C002038B500F110040546194811F01F
:1096F00053FDA8822846FFF761FF01226B21204617
:1097000011F012FE782013F0AFFE204618221B2124
:1097100011F00AFE204618221C2111F005FE2846F1
:10972000FEF7C6FC1A210246204611F0FDFD95F811
:1097300020212046192111F0F7FD20461022372163
:1097400011F0F2FD20460122BDE83840382111F029
:10975000EBBD00BF00127A0037B5054600F11004DA
:10976000354811F019FDA8822846FFF727FF42F27D
:109770001F53A5F84C310F224E21204611F0D4FD85
:109780000F2014F009F895F8DB30002B4ED095F837
:1097900020210132D3B20822B2FBF3F2082AD3B25D
:1097A00040D0042A40D0022B02D0012B3ED103230B
:1097B000224A02EB430393F8D12002F00F024F211B
:1097C0002046019211F0B0FD0F2013F0E5FF019A41
:1097D0005021204611F0A8FD0F2013F0DDFF204698
:1097E000EE22522111F0A0FD20460322142111F097
:1097F0009BFD20460022632111F096FD08222046A1
:10980000652111F091FDE421204611F0EFFD00F0FB
:10981000EF0040F060026421204603B0BDE8304014
:1098200011F082BD0023C3E70123C1E7002385F8BF
:10983000DB300622C1E700BF00366E01B8400608E3
:1098400038B500F110050446FFF7B8FE03226B217E
:10985000284611F069FD0F2013F006FE10226A2140
:10986000284611F061FD0F2013F0FEFD00226C214F
:10987000284611F059FD0F2013F0F6FD94F8202131
:109880001921284611F050FD0F2013F0EDFD18228C
:109890001B21284611F048FD0F2013F0E5FD18228A
:1098A0001C21284611F040FD0F2013F0DDFD102291
:1098B0003721284611F038FD0F2013F0D5FD012285
:1098C0003821284611F030FD0F2013F0CDFD204641
:1098D000FEF7EEFB1A210246284611F025FD012075
:1098E00013F0C2FD0A4811F057FCA0822046FFF792
:1098F000D1FA94F9D230013308D194F9D030013340
:1099000004D1BDE83840062014F0C6B938BD00BF08
:10991000002D31012DE9F04FCA4C94F804B083B00A
:10992000BBF1000F1ED1D4F85836002B16DD0026EF
:10993000C54831460769D0F8A0303D6825F00105DB
:1099400003F1C0023D6059600C339A42FBD1D4F858
:1099500058360136B34200F58070EBDC012003B0CD
:10996000BDE8F08FD4F85C36019313F045FDD4F8D0
:109970006036D4F864261433801AB0EB430FC0F27B
:109980004F81CDF800B0DDF804B004F5CD6704F6E2
:10999000481A04F108060025D4F8D839AB42C2DDD4
:1099A000B16973680A6998005368D1F8EC201FFA0E
:1099B00083FEA2EB0E0ED1F8E83000F108500EF154
:1099C000806C00EB4310ACF1390C00EB8C1C0146B1
:1099D0008C4540F2AE800A6801F58073002A00F0E1
:1099E00010810A6C002A00F00F81D1F88020002A33
:1099F00000F00D81D1F8C0201946002AE8D19C451D
:109A000040F29780191AAEEBA111452928BF4521D4
:109A1000002003EB8111984684464FF001090DE0C8
:109A20001A6C002A40F09080D3F88020002A40F081
:109A3000BA80D3F8C02003F580732AB9994206D9B9
:109A40001A68002AECD04033994200F28180112834
:109A50006FD9C0F11503002BC0F2C38000F0FC8069
:109A60000CFA03FCC0F11400012303FA00F0774A5A
:109A700040EA0C0CCCF3C43302EB8303CCF3441068
:109A8000D3F8D8100CF01F0302EB830302EB800025
:109A9000D3F8D83043EA0131CCF3842302EB8302BC
:109AA000D0F8D830D2F8D82041EA031343EA022391
:109AB00083EA132282EA121202F00F020F2A40F008
:109AC0009080B3F5803F80F08C8040F6FF71B1EB61
:109AD000131F4FEA131200F0AC80C2F308025B0BB5
:109AE00012FA03F37DD05A0802F5122202F5F86249
:109AF000B2FBF3F24FF6FE739A421AD0D4F8503903
:109B00000133C4F850394FF6FF739A426ED093B2C6
:109B1000AAF80C30032D4FF001038AF80E3003DC55
:109B200094F8CC392D2B7FD000995A46384611F045
:109B3000EBF80135082D07F15C070AF1040A06F17C
:109B400020067FF429AFEEE6803399427FF67FAF9F
:109B5000A3EB0802921102F1010E3D4A82FB0E8234
:109B6000A2EBEE72012AB8BF01220CFA02FC1044EB
:109B7000013A09FA02F242EA0C0C9E46DEF8002095
:109B80009AB1DEF84020002A44D0DEF88020002A76
:109B900043D0DEF8C0200EF5807E42B17145EDD88D
:109BA000984673464AE7C0334EE70EF1400E7145C2
:109BB000F6D9AEEB03039B115A1C254B83FB0283A2
:109BC000A3EBE273012BB8BF01230CFA03FC18448A
:109BD000013B09FA03F343EA0C0C734698467346BB
:109BE0002CE7D4F850390133C4F85039D4F84C3943
:109BF0000133C4F84C3900215A46384611F084F834
:109C000097E701F14003FAE601F18003F7E601F17D
:109C1000C003F4E60EF1800EC9E70EF1C00EC6E7F0
:109C2000002003B0BDE8F08F0A4B009923F81520FF
:109C3000E2E7D4F850390133C4F8503900231A460A
:109C400066E700BF801C00205C260020B8400608A4
:109C50005655555550260020124BCCF3C43203EB19
:109C60008202D2F8D8100CF01F0203EB8202D2F865
:109C7000D82042EA0132CCF3441103EB8101CCF34A
:109C8000842C03EB8C03D1F8D810D3F8D83042EAF7
:109C9000011242EA032383EA132282EA121202F03B
:109CA0000F020BE7B84006082DE9F0412D4F07EBF6
:109CB000401898F824300BB9BDE8F0818C2303FBE1
:109CC00000730E4693F8DE2D88F80A20002183F8F1
:109CD000DE1D0446450111F007FA98BB3D442248B9
:109CE0002E8100EB441010F0EFFF3B792A6A9BB104
:109CF000E968D2F8A03001248C4003F1C001420091
:109D000010F4004F90B202D15A6822435A600C33CB
:109D10009942F4D1BDE8F081EC68D2F8A03004F1AA
:109D200010020124944003F1C001420010F4004FDE
:109D300090B202D15A6822435A600C339942F4D14E
:109D4000BDE8F081094B93F8A42102EB420203EB3A
:109D5000C203234493F85161002EBFD0012388F839
:109D60000A30BBE7801C0020881C0020782D0020D2
:109D700010B5044659F0E0FB81B22046BDE8104022
:109D800092E700BF10B57D4C94F8A52194F8A4315A
:109D90009A4240F0978194F8A621002A00F0EC80C6
:109DA00094F8A731002B40F0EB80D4F8A811088874
:109DB00020F080000004000C0880B4F8AC01C862F8
:109DC000088880B240F0800008804B62B1F80CC077
:109DD000B4F8BC0140EA0C0080B2012A8881A4F8E2
:109DE000BC3100F0C980D4F8C011088820F0800090
:109DF0000004000C0880B4F8C401C862088880B26E
:109E000040F0800008804B62B1F80CC0B4F8D40177
:109E100040EA0C0080B2022A8881A4F8D43100F014
:109E2000AB80D4F8D811088820F080000004000C22
:109E30000880B4F8DC01C862088880B240F0800075
:109E400008804B62B1F80CC0B4F8EC0140EA0C0099
:109E500080B2032A8881A4F8EC3100F08D80D4F818
:109E6000F011088820F080000004000C0880B4F88D
:109E7000F401C862088880B240F0800008804B621C
:109E8000B1F80CC0B4F8040240EA0C0080B2042A15
:109E90008881A4F804326FD0D4F80812088820F022
:109EA00080000004000C0880B4F80C02C862088826
:109EB00080B240F0800008804B62B1F80CC0B4F86A
:109EC0001C0240EA0C0080B2052A8881A4F81C32EA
:109ED00052D0D4F82012088820F080000004000C32
:109EE0000880B4F82402C862088880B240F080007C
:109EF00008804B62B1F80CC0B4F8340240EA0C00A0
:109F000080B2062A8881A4F8343235D0D4F83812C9
:109F1000088820F080000004000C0880B4F83C029F
:109F2000C862088880B240F0800008804B62B1F8B7
:109F30000CC0B4F84C0240EA0C0080B2072A8881B9
:109F4000A4F84C3218D0D4F85022B4F85402118836
:109F500021F080010904090C1180D0621088B4F846
:109F6000641280B240F080001080536290890143F7
:109F700089B29181A4F8643210BD00BF782D002011
:109F8000D4F8B031B4F8B41159601968D4F8A80104
:109F900041F00101196040F20D33A0F84830818989
:109FA00089B241F48071012A8181E5D0D4F8C811C9
:109FB000B4F8CC014860086840F001000860D4F8AB
:109FC000C001A0F84830818989B241F48071022A29
:109FD0008181D1D0D4F8E011B4F8E4014860086878
:109FE00040F001000860D4F8D801A0F84830818919
:109FF00089B241F48071032A8181BDD0D4F8F8116F
:10A00000B4F8FC014860086840F001000860D4F82A
:10A01000F001A0F84830818989B241F48071042AA6
:10A020008181A9D0D4F81012B4F8140248600868ED
:10A0300040F001000860D4F80802A0F84830818997
:10A0400089B241F48071052A818195D0D4F8281213
:10A05000B4F82C024860086840F001000860D4F8A9
:10A060002002A0F84830818989B241F48071062A23
:10A07000818181D0D4F84012B4F844024860086865
:10A0800040F001000860D4F83802A0F84830818917
:10A0900089B241F48071072A81813FF46DAFD4F811
:10A0A0005812B4F85C224A600868D4F8502240F094
:10A0B00001000860A2F8483093899BB243F4807392
:10A0C000938110BD55F03AF800287FF464AE10BDBE
:10A0D0002DE9F843DFF8A08098F8A52198F8A4317D
:10A0E0009A423DD1214FD7F85856002D12DD002459
:10A0F0003E7907F6DC10A146013416B1037E012B30
:10A1000029D002691368A54243F0010300F580706D
:10A110001360F1D1164B5B68C3F30803C3B9EFF3C7
:10A120001183ABB913F044F9D8F86842C7F8640654
:10A13000002C0BDD0F4A02EBC40411689388888958
:10A14000083203439BB294428B81F6D1BDE8F88379
:10A1500012F0CCFFE8E780F8F090FEF755F8D0E772
:10A1600054F0ECFF0028BDD1BDE8F883801C00202E
:10A1700000ED00E0E42F0020782D00202DE9F047CD
:10A18000836882B0804613B11A689B8853835F4B03
:10A190005B68C3F30803002B40F0B380EFF3118337
:10A1A000002B40F0AE8013F003F90546574F584E90
:10A1B000584C05E013F0FCF8431BB3F57A7F30D21E
:10A1C0007B68C3F308031BB9EFF31183002BF1D0B5
:10A1D000EFF31182102383F312884FF0E021012066
:10A1E000D1F818C00B69DB0303D5C6F88C02D1F88F
:10A1F00018C0D4F85CE6D6F88C02D2B282F311888B
:10A20000D6F890124FF47A7202FB01F37044A3EB7C
:10A210000C03B3FBF1F302FB0030431BB3F57A7F71
:10A22000CED3D8F8083013B11A689B881383374C03
:10A23000384EDFF8DCA00A2710256368C3F3080353
:10A24000002B4BD1EFF31183002B47D113F0B0F863
:10A25000814606E013F0ACF8A0EB0903B3F57A7F72
:10A2600030D26368C3F308031BB9EFF31183002BEB
:10A27000F0D0EFF3118285F312884FF0E021012036
:10A28000D1F818C00B69DB0344BFCAF88C02D1F8BF
:10A2900018C0D6F85CE6DAF88C02D2B282F31188E4
:10A2A000DAF890124FF47A7202FB01F37044A3EBD8
:10A2B0000C03B3FBF1F302FB0030A0EB0903B3F591
:10A2C0007A7FCED3013FB8D1D8F80030ADF8047012
:10A2D0001B6A3BB1384602B0BDE8F08712F006FFBA
:10A2E0008146BEE74046022301AA802111F046F8CC
:10A2F0009DF80530242B14BF00200F2002B0BDE8CC
:10A30000F08712F0F3FE054650E700BF00ED00E0D5
:10A31000782D0020801C00202DE9F04F2DED028BC0
:10A32000034695B000F1100693F81E310090B62256
:10A330007E213046019310F0F7FFBB4CBB4DBC4F64
:10A3400008EE106A4FF064094FF010087B68C3F301
:10A350000803002B40F08385EFF31183002B40F0BE
:10A360007E8513F025F882464FF0E02B06E013F0CF
:10A370001FF8A0EB0A00B0F57A7F30D27B68C3F3F8
:10A3800008031BB9EFF31183002BF0D0EFF3118317
:10A3900088F31288DBF81800DBF8102012F4803FF5
:10A3A0004FF001021CBFC4F88C22DBF81800D5F86E
:10A3B0005C26D4F88CC2DBB283F31188D4F89062A7
:10A3C0004FF47A7101FB06F36244181AB0FBF6F001
:10A3D00001FB0200A0EB0A00B0F57A7FCED3B9F101
:10A3E0000109B3D1009B9B6918EE106A13B11A687A
:10A3F0009B8853838E4B5B68C3F30803002B40F0AC
:10A400006C85EFF31183002B40F0678512F0D0FFCD
:10A410008046DFF81CA210274FF0E02906E012F07A
:10A42000C7FFA0EB0800B0F57A7F32D2DAF804302B
:10A43000C3F308031BB9EFF31183002BEFD0EFF345
:10A44000118387F31288D9F818E0D9F81020D203C5
:10A450004FF0010103D5C4F88C12D9F818E0D5F8F3
:10A460005CB6D4F88C22DBB283F31188D4F890C2A6
:10A470004FF47A7101FB0CF002EB0B03A0EB0E0022
:10A48000B0FBFCF001FB0300A0EB0800B0F57A7F05
:10A49000CCD3009B9B6913B11A689B881383644FCC
:10A4A00008EE106A4FF00A094FF010087B68C3F3FA
:10A4B0000803002B40F0D884EFF31183002B40F009
:10A4C000D38412F075FF82464FF0E02B06E012F0C5
:10A4D0006FFFA0EB0A00B0F57A7F30D27B68C3F340
:10A4E00008031BB9EFF31183002BF0D0EFF31183B6
:10A4F00088F31288DBF81800DBF8102012F4803F94
:10A500004FF001021CBFC4F88C22DBF81800D5F80C
:10A510005C26D4F88CC2DBB283F31188D4F8906245
:10A520004FF47A7101FB06F36244181AB0FBF6F09F
:10A5300001FB0200A0EB0A00B0F57A7FCED3B9F19F
:10A540000109B3D118EE100A4A467C2110F0ECFE46
:10A55000374B5B68C3F3080318EE106A002B40F01A
:10A56000B784EFF31183002B40F0B28412F020FF88
:10A570008046DFF8BCA010274FF0E02906E012F07B
:10A5800017FFA0EB0800B0F57A7F32D2DAF804307A
:10A59000C3F308031BB9EFF31183002BEFD0EFF3E4
:10A5A000118387F31288D9F818E0D9F81020D00366
:10A5B0004FF0010103D5C4F88C12D9F818E0D5F892
:10A5C0005CB6D4F88C22DBB283F31188D4F890C245
:10A5D0004FF47A7101FB0CF002EB0B03A0EB0E00C1
:10A5E000B0FBFCF001FB0300A0EB0800B0F57A7FA4
:10A5F000CCD300225921304610F096FE0C4B5B68FC
:10A60000C3F30803002B40F05E84EFF31183002BAB
:10A6100040F0598412F0CCFE8046DFF814A01027D9
:10A620004FF0E0290DE000BF782D0020801C0020B5
:10A6300000ED00E012F0BCFEA0EB0800B0F57A7F60
:10A6400032D2DAF80430C3F308031BB9EFF31183F5
:10A65000002BEFD0EFF3118387F31288D9F818E0BD
:10A66000D9F81020D2034FF0010103D5C4F88C12A1
:10A67000D9F818E0D5F85CB6D4F88C22DBB283F3B5
:10A680001188D4F890C24FF47A7101FB0CF002EB00
:10A690000B03A0EB0E00B0FBFCF001FB0300A0EBF2
:10A6A0000800B0F57A7FCCD3002305938DF81C30D9
:10A6B00008930A930D9310931293012306938DF838
:10A6C00030308DF84430CB4B09935E238DF80F303A
:10A6D0000DF10F0304934FF4A47300220B9304A90C
:10A6E00000233046CDE90E2310F0D0FD009B1A69FF
:10A6F000136A002BFCD1C04F08EE106A4FF00A0914
:10A700004FF010087B68C3F30803002B40F0B183BF
:10A71000EFF31183002B40F0AC8312F049FE824628
:10A720004FF0E02B06E012F043FEA0EB0A00B0F57C
:10A730007A7F30D27B68C3F308031BB9EFF3118330
:10A74000002BF0D0EFF3118388F31288DBF81800A8
:10A75000DBF8102012F4803F4FF001021CBFC4F858
:10A760008C22DBF81800D5F85C26D4F88CC2DBB25A
:10A7700083F31188D4F890624FF47A7101FB06F3E9
:10A780006244181AB0FBF6F001FB0200A0EB0A00CD
:10A79000B0F57A7FCED3B9F10109B3D118EE100A22
:10A7A0000122592110F0C0FD934B5B68C3F30803ED
:10A7B00018EE106A002B40F08283EFF31183002B18
:10A7C00040F07D8312F0F4FD8046DFF82CA21027C4
:10A7D0004FF0E02906E012F0EBFDA0EB0800B0F529
:10A7E0007A7F32D2DAF80430C3F308031BB9EFF3EF
:10A7F0001183002BEFD0EFF3118387F31288D9F880
:10A8000018E0D9F81020D0034FF0010103D5C4F8A7
:10A810008C12D9F818E0D5F85CB6D4F88C22DBB2EB
:10A8200083F31188D4F890C24FF47A7101FB0CF0D5
:10A8300002EB0B03A0EB0E00B0FBFCF001FB0300EE
:10A84000A0EB0800B0F57A7FCCD3019B032B00F07E
:10A850009983AB224021304610F066FD664B5B6861
:10A86000C3F30803002B40F02683EFF31183002B82
:10A8700040F0218312F09CFD8046DFF87CA1102778
:10A880004FF0E02906E012F093FDA0EB0800B0F5D0
:10A890007A7F32D2DAF80430C3F308031BB9EFF33E
:10A8A0001183002BEFD0EFF3118387F31288D9F8CF
:10A8B00018E0D9F81020D0034FF0010103D5C4F8F7
:10A8C0008C12D9F818E0D5F85CB6D4F88C22DBB23B
:10A8D00083F31188D4F890C24FF47A7101FB0CF025
:10A8E00002EB0B03A0EB0E00B0FBFCF001FB03003E
:10A8F000A0EB0800B0F57A7FCCD30322412130468B
:10A9000010F012FD3C4B5B68C3F30803002B40F0D2
:10A91000CE82EFF31183002B40F0C98212F048FD84
:10A920008046DFF8D4A010274FF0E02906E012F0AF
:10A930003FFDA0EB0800B0F57A7F32D2DAF80430A0
:10A94000C3F308031BB9EFF31183002BEFD0EFF330
:10A95000118387F31288D9F818E0D9F81020D203B0
:10A960004FF0010103D5C4F88C12D9F818E0D5F8DE
:10A970005CB6D4F88C22DBB283F31188D4F890C291
:10A980004FF47A7101FB0CF002EB0B03A0EB0E000D
:10A99000B0FBFCF001FB0300A0EB0800B0F57A7FF0
:10A9A000CCD394F89532013BDBB2022B00F26582E6
:10A9B000124A134493F8A022120162F03202D2B27A
:10A9C0004221304610F0B0FC0B4B5B68C3F3080328
:10A9D000002B40F06882EFF31183002B40F063827C
:10A9E00012F0E6FC8046DFF810A010274FF0E029B7
:10A9F0000DE000BF1042060800ED00E0B840060878
:10AA000012F0D6FCA0EB0800B0F57A7F32D2DAF86B
:10AA10000430C3F308031BB9EFF31183002BEFD00D
:10AA2000EFF3118387F31288D9F818E0D9F81020D2
:10AA3000D0034FF0010103D5C4F88C12D9F818E007
:10AA4000D5F85CB6D4F88C22DBB283F31188D4F845
:10AA500090C24FF47A7101FB0CF002EB0B03A0EBF8
:10AA60000E00B0FBFCF001FB0300A0EB0800B0F50A
:10AA70007A7FCCD308224321304610F055FCB44BEA
:10AA80005B68C3F30803002B40F00982EFF31183E6
:10AA9000002B40F0048212F08BFC8046DFF8B0A25D
:10AAA00010274FF0E02906E012F082FCA0EB08002E
:10AAB000B0F57A7F32D2DAF80430C3F308031BB959
:10AAC000EFF31183002BEFD0EFF3118387F312889C
:10AAD000D9F818E0D9F81020D2034FF0010103D5BE
:10AAE000C4F88C12D9F818E0D5F85CB6D4F88C22EA
:10AAF000DBB283F31188D4F890C24FF47A7101FB72
:10AB00000CF002EB0B03A0EB0E00B0FBFCF001FB22
:10AB10000300A0EB0800B0F57A7FCCD3019B032B98
:10AB200000F0E08104225821304610F0FDFB884BF4
:10AB30005B68C3F30803002B40F0A181EFF311839E
:10AB4000002B40F09C8112F033FC8046DFF800A21D
:10AB500010274FF0E02906E012F02AFCA0EB0800D5
:10AB6000B0F57A7F31D2DAF80430C3F308031BB9A9
:10AB7000EFF31183002BEFD0EFF3118387F31288EB
:10AB8000D9F818C0D9F81020D2034FF0010103D52D
:10AB9000C4F88C12D9F818C0D5F85C26D4F88C0209
:10ABA000DBB283F31188D4F8901283184FF47A72D1
:10ABB00002FB01F0A0EB0C00B0FBF1F002FB030084
:10ABC000A0EB0800B0F57A7FCDD30A22532130469E
:10ABD00010F0AAFB5E4B5B68C3F30803002B40F048
:10ABE0005A81EFF31183002B40F0558112F0E0FB06
:10ABF0008046DFF85CA110274FF0E02906E012F054
:10AC0000D7FBA0EB0800B0F57A7F32D2DAF8043037
:10AC1000C3F308031BB9EFF31183002BEFD0EFF35D
:10AC2000118387F31288D9F818E0D9F81020D003DF
:10AC30004FF0010103D5C4F88C12D9F818E0D5F80B
:10AC40005CB6D4F88C22DBB283F31188D4F890C2BE
:10AC50004FF47A7101FB0CF002EB0B03A0EB0E003A
:10AC6000B0FBFCF001FB0300A0EB0800B0F57A7F1D
:10AC7000CCD302227C21304610F056FB344B5B686B
:10AC8000C3F30803002B40F00281EFF31183002B84
:10AC900040F0FD8012F08CFB8046DFF8B4A0102756
:10ACA0004FF0E02906E012F083FBA0EB0800B0F5BE
:10ACB0007A7F32D2DAF80430C3F308031BB9EFF31A
:10ACC0001183002BEFD0EFF3118387F31288D9F8AB
:10ACD00018E0D9F81020D2034FF0010103D5C4F8D1
:10ACE0008C12D9F818E0D5F85CB6D4F88C22DBB217
:10ACF00083F31188D4F890C24FF47A7101FB0CF001
:10AD000002EB0B03A0EB0E00B0FBFCF001FB030019
:10AD1000A0EB0800B0F57A7FCCD30E227D2130461F
:10AD200010F002FB0A4B5B68C3F30803002B40F0F2
:10AD3000AA80EFF31183002B40F0A58012F038FBBE
:10AD40008046DFF80CA010274FF0E02909E000BF93
:10AD500000ED00E012F02CFBA0EB0800B0F57A7FCC
:10AD600032D2DAF80430C3F308031BB9EFF31183CE
:10AD7000002BEFD0EFF3118387F31288D9F818E096
:10AD8000D9F81020D0034FF0010103D5C4F88C127C
:10AD9000D9F818E0D5F85CB6D4F88C22DBB283F38E
:10ADA0001188D4F890C24FF47A7101FB0CF002EBD9
:10ADB0000B03A0EB0E00B0FBFCF001FB0300A0EBCB
:10ADC0000800B0F57A7FCCD3019B032B00F07E8284
:10ADD000009B93F82101D8B111F002FF044600282E
:10ADE00000F0DD8200992623C380C64B41F80C3F5A
:10ADF00000231A4654F0A2FEA3884FF00042B3FA93
:10AE000083F332FA03F303D0BF490A6813430B609C
:10AE10002A68BE4BB3EB920F80F0CA82B3EBD20F1D
:10AE200080F0C882B3EB121F80F0C682B3EB521FD2
:10AE300080F0C482B3EB921F80F0C282B3EBD21FCA
:10AE400080F0C082B3EB122F34BF4FF480738023A5
:10AE5000009A938215B0BDEC028BBDE8F08F12F022
:10AE600045F98246FFF780BA12F040F98246FFF7B3
:10AE70002BBB12F03BF9824652E4CD22A0E512F042
:10AE800035F9804662E612F031F9804659E712F052
:10AE90002DF9804601E712F029F98046A9E612F063
:10AEA00025F98046FAE512F021F980469BE512F07B
:10AEB0001DF9804635E512F019F98046DDE412F0FF
:10AEC00015F9804681E412F011F98046FFF7A5BB21
:10AED00012F00CF98046FFF74CBB12F007F98046E0
:10AEE000FFF797BA02225821304610F01DFA884B1E
:10AEF0005B68C3F30803002B40F03582EFF3118346
:10AF0000002B40F0308212F053FA8046DFF800A2A6
:10AF100010274FF0E02907E012F04AFAA0EB0803EF
:10AF2000B3F57A7FBFF451AEDAF80430C3F3080307
:10AF30001BB9EFF31183002BEED0EFF3118287F3EF
:10AF40001288D9F818C0D9F81030D8034FF0010191
:10AF500003D5C4F88C12D9F818C0D5F85C36D4F8EB
:10AF60008C02D2B282F31188D4F890124FF47A7224
:10AF7000184402FB01F3A3EB0C03B3FBF1F302FB58
:10AF80000030CBE700224821304610F0CDF9604B6D
:10AF90005B68C3F30803002B40F0ED81EFF31183EE
:10AFA000002B40F0E88112F003FA8046DFF860A140
:10AFB00010274FF0E02906E012F0FAF9A0EB0803A1
:10AFC000B3F57A7F31D2DAF80430C3F308031BB942
:10AFD000EFF31183002BEFD0EFF3118387F3128887
:10AFE000D9F818C0D9F81020D2034FF0010103D5C9
:10AFF000C4F88C12D9F818C0D5F85C26D4F88C02A5
:10B00000DBB283F31188D4F8901210444FF47A72B3
:10B0100002FB01F3A3EB0C03B3FBF1F302FB0030E3
:10B02000A0EB0803B3F57A7FCDD3802249213046C7
:10B0300010F07AF9364B5B68C3F30803002B40F03D
:10B04000AA81EFF31183002B40F0A58112F0B0F933
:10B050008046DFF8BCA010274FF0E02906E012F090
:10B06000A7F9A0EB0803B3F57A7F31D2DAF8043000
:10B07000C3F308031BB9EFF31183002BEFD0EFF3F9
:10B08000118387F31288D9F818C0D9F81020D0039B
:10B090004FF0010103D5C4F88C12D9F818C0D5F8C7
:10B0A0005C26D4F88C02DBB283F31188D4F89012BA
:10B0B00010444FF47A7202FB01F3A3EB0C03B3FBD1
:10B0C000F1F302FB0030A0EB0803B3F57A7FCDD398
:10B0D00000224521304610F027F90D4B5B68C3F381
:10B0E0000803002B40F05381EFF31183002B40F055
:10B0F0004E8112F05DF98046DFF814A010274FF062
:10B10000E0290EE0618A0008003C0140809698002A
:10B1100000ED00E012F04CF9A0EB0803B3F57A7FE4
:10B1200031D2DAF80430C3F308031BB9EFF311830B
:10B13000002BEFD0EFF3118387F31288D9F818C0F2
:10B14000D9F81020D2034FF0010103D5C4F88C12B6
:10B15000D9F818C0D5F85C26D4F88C02DBB283F39A
:10B160001188D4F8901210444FF47A7202FB01F364
:10B17000A3EB0C03B3FBF1F302FB0030A0EB0803DD
:10B18000B3F57A7FCDD306224621304610F0CCF8B5
:10B190008D4B5B68C3F30803002B40F0F480EFF3A2
:10B1A0001183002B40F0EF8012F002F98046DFF8A7
:10B1B00018A210274FF0E02906E012F0F9F8A0EBF2
:10B1C0000803B3F57A7F31D2DAF80430C3F3080309
:10B1D0001BB9EFF31183002BEFD0EFF3118387F34B
:10B1E0001288D9F818C0D9F81020D0034FF0010107
:10B1F00003D5C4F88C12D9F818C0D5F85C26D4F859
:10B200008C02DBB283F31188D4F8901210444FF40F
:10B210007A7202FB01F3A3EB0C03B3FBF1F302FB25
:10B220000030A0EB0803B3F57A7FCDD3002247218D
:10B23000304610F079F8644B5B68C3F30803002BC9
:10B2400040F09D80EFF31183002B40F0988012F0C6
:10B25000AFF88046DFF870A110274FF0E02907E033
:10B2600012F0A6F8A0EB0803B3F57A7FBFF4F1AAB9
:10B27000DAF80430C3F308031BB9EFF31183002B92
:10B28000EED0EFF3118387F31288D9F818C0D9F8FC
:10B290001020D2034FF0010103D5C4F88C12D9F865
:10B2A00018C0D5F85C26D4F88C02DBB283F3118881
:10B2B000D4F8901210444FF47A7202FB01F3A3EB1E
:10B2C0000C03B3FBF1F302FB0030CBE7B0223046B6
:10B2D0007E2110F029F83C4B5B68C3F30803002B78
:10B2E00045D1EFF31183002B41D112F061F80746ED
:10B2F000DFF8D49010264FF0E02806E012F058F85E
:10B30000C31BB3F57A7FBFF463ADD9F80430C3F340
:10B3100008031BB9EFF31183002BEFD0EFF3118378
:10B3200086F31288D8F818C0D8F81020D2034FF04E
:10B33000010103D5C4F88C12D8F818C0D5F85C26E2
:10B34000D4F88C02DBB283F31188D4F89012104445
:10B350004FF47A7202FB01F3A3EB0C03B3FBF1F39E
:10B3600002FB0030CCE711F0C1FE8046CEE511F0C3
:10B37000BDFE0746BCE711F0B9FE804616E611F0A7
:10B38000B5FE804666E711F0B1FE80460FE711F08A
:10B39000ADFE8046B0E611F0A9FE804659E6009960
:10B3A0000A4B41F80C3F0246034654F0C7FB2FE519
:10B3B00002234DE504234BE5082349E5102347E527
:10B3C000202345E5402343E500ED00E0618A0008C5
:10B3D0002DE9F84F884D95F87532002B40F09C8090
:10B3E000864BD5F87C62864CD5F8782293F845C117
:10B3F000D4F8B81206EB5202013ABCF1020FCA624D
:10B400006CD094F8C522002A68D094F8C422002A8F
:10B4100064D0D3F83021D4E9AF0192689208091AB8
:10B4200057428F4203DC8A42A8BF0A461746D4F827
:10B43000C822D4F8CCE2D4F8D4A2D4F8D892D4F864
:10B44000E402D4F8DC82C4F8E07202FA0EFB391A86
:10B45000ABEB02020AFA09FB01FA08F1ABEB0A0AAC
:10B46000D4F8D002514441FA09F141FA08F8C4F87D
:10B47000D41207FA00F10A4442FA0EF242FA00F03E
:10B48000C4F8C82293F84421C4F8EC82022AC4F814
:10B49000E80200F09E80D4E9BD21BCF1000F00F06D
:10B4A0008480B2EB670F4FEA670603DC8E423246B8
:10B4B000A8BF0A46C5F8802293F8CC29C4F8F00248
:10B4C000452AC4F8E47209D1D5E99F12A3F8D079CE
:10B4D000A3F8D209A3F8D419A3F8D629494993F8B7
:10B4E000416194F80C0383F83F010022C4F8BC22A8
:10B4F000C1E9012293F82C210132D2B283F82C2128
:10B50000B6B30021D3F88421A3F84011904701235A
:10B5100085F87532BDE8F88FD5F88032D5F87822F5
:10B52000374CD5F87C02D4F8B81203EB5203013B38
:10B53000354A0344CB6253680022C3F30803C5F8BD
:10B54000802293B9EFF311837BB911F031FF2B4BBC
