:020000040800F2
:10000000F0FF01205985060815120608D53C0208A4
:10001000D1850608D1850608D185060800000000B4
:100020000000000000000000000000001912060897
:100030001D1206080000000021120608C51D020856
:10004000D1850608D1850608D1850608D185060820
:10005000D1850608D1850608CD070208D507020814
:10006000DD070208E5070208ED07020845D400088D
:1000700055D4000865D4000875D4000889D4000858
:100080009DD40008B1D40008D18506080000000006
:10009000000000000000000000000000F50702085A
:1000A000853802081D380208953802080D38020804
:1000B000453802085538020865380208C9C50008E5
:1000C000ADCA0008D1C50008B1CA0008D18506082C
:1000D000D18506083D1D0208491D020800000000E8
:1000E000FD070208D1850608C918060800000000AF
:1000F000000000000000000000000000C5D400085F
:100100000000000025FA000875380208D1850608AD
:1001100000000000000000000000000000000000DF
:10012000D9D40008EDD4000801D5000815D5000881
:1001300029D50008000000000000000000000000B9
:10014000000000000000000000000000251206086A
:100150003DD5000851D5000865D50008551D020899
:10016000D9C50008B5CA0008000000000000000062
:10017000000000000000000000000000000000007F
:1001800000000000D185060800000000000000000B
:08019000D1850608D18506089F
:08019800EC80060001000000EC
:1001A0000A90010024000000282D0020504A002061
:1001B00000000000956904084C4A00201402010068
:1001C00005000000DC420020784A0020000000000A
:1001D000A8AC0708744A00200610010024000000A3
:1001E000B42D0020844A0020000000002966010888
:1001F000804A0020FA01010003000000105E002088
:10020000705D002000000000116601086C5D002098
:10021000FF2101000500000068560020785D0020E5
:100220000000000041670108745D002005300100F6
:100230000800000090580020845D002000000000AD
:10024000B0AC0708805D002013020100040000002C
:100250008C580020905D002000000000B8AC07081A
:100260008C5D00201E020100060000004C5500209D
:100270009C5D002000000000BCAC0708985D0020D9
:100280000D120100140000006C570020A85D002032
:1002900000000000C4AC0708A45D002003110100A9
:1002A0000A000000A4540020C05D002000000000EF
:1002B0000DB60508BC5D00200B2201003D000000CA
:1002C0003C4D0020D05D002000000000D8AC0708A5
:1002D000CC5D00201500100070000000109D002073
:1002E000F4A500200000000000000000F0A50020A0
:1002F0002A00080060000000B09C002068A60020D2
:100300000000000091BF030864A600202102010044
:10031000F0000000C09B0020CCA6002000000000E0
:1003200055F70408C8A600202C00040010000000A7
:10033000B09B0020C0A700200000000025C20308D9
:10034000BCA7002025201E002C010000049A0020DC
:10035000D4A700200000000000000000D0A700206B
:100360002B001200240000007099002004A9002036
:100370000000000035C2030800A900203820010059
:1003800003000000C09000202CA900200000000005
:1003900018AD070828A900202920140078000000C3
:1003A000308D002034A90020000000000000000073
:1003B00030A900202830010016000000C48C002065
:1003C000B0A9002000000000397E0408ACA900207C
:1003D0000B3001001A000000A88C0020CCA90020DE
:1003E000000000001CAD0708C8A900201E00010085
:1003F00009000000988C0020ECA9002000000000FB
:1004000036AD0708E8A900200D1001004C000000DF
:10041000488C0020FCA9002000000000674802086A
:10042000F8A900200C400600E40000004C850020E4
:100430004CAA002000000000B912030848AA0020BE
:10044000012001000C0000003086002034AB0020A9
:100450000000000040AD070830AB0020270001007D
:1004600004000000A486002044AB0020000000002F
:100470004CAD070840AB0020232001001000000015
:10048000948600204CAB0020000000008169040825
:1004900048AB00200E400300B6010000908300200E
:1004A00060AB002000000000D9BE03085CAB002058
:1004B000220201001C010000988F00201CAD0020CA
:1004C000000000009D7B010818AD002016021500F9
:1004D0003F0000007CAE00203CAE00200000000089
:1004E0007567010838AE00201F02080010000000E8
:1004F000D0AE0020C0AE002000000000516701080F
:10050000BCAE00201B02010010000000F4AE002071
:10051000E4AE00200000000009670108E0AE002002
:1005200028020400040000000CAF002008AF0020E7
:1005300000000000FD66010804AF0020270204004F
:100540000400000018AF002014AF002000000000DD
:10055000F166010810AF00201C0202001C00000020
:10056000DC8C002020AF002000000000696E010834
:100570001CAF0020010201000B0000004CAF002066
:1005800040AF002000000000016601083CAF0020E1
:10059000000201000B000000B49000205CAF0020BE
:1005A00000000000F965010858AF00201A020100A0
:1005B0003C000000A8AF00206CAF0020000000004D
:1005C000F96E010868AF00200400080080000000F8
:1005D000309B0020E8AF0020000000000000000079
:1005E000E4AF00201902010010000000BC8D0020C3
:1005F0006CB00020000000003167010868B00020E6
:10060000081203000F000000ECA0002080B00020C2
:10061000000000009D6501087CB000200A02010076
:10062000140000004CA1002094B000200000000045
:100630000913030890B00020031201003D000000E0
:10064000809D0020ACB000200000000050AD0708E5
:10065000A8B000200C02010004000000FCA0002053
:10066000F0B000200000000019660108ECB0002086
:100670001310010004000000A48C0020F8B000203A
:100680000000000090AD0708F4B000200202010055
:1006900003000000E8A5002000B1002000000000D9
:1006A00000000000FCB00020F59101006C0000008B
:1006B0002C8F002008B1002000000000F94E050832
:1006C00004B10020F62101000C000000D48D0020B0
:1006D00078B100200000000094AD070874B100203C
:1006E0001212010004000000A8DB002088B10020E5
:1006F00000000000A0AD070884B100201102010035
:1007000008000000ACDB002090B1002000000000D9
:10071000A4AD07088CB100203400010010000000D7
:10072000B4DB00209CB100200000000075BF03086E
:1007300098B10020F831010006000000388C00203C
:10074000B0B1002000000000ACAD0708ACB1002043
:10075000020001000C00000078A10020BCB10020C4
:100760000000000000000000B8B10020FE01010000
:1007700014000000A88D0020CCB100200000000073
:1007800085650108C8B100200612030012000000B0
:1007900038A10020E4B1002000000000F16D010844
:1007A000E0B10020F701010006000000CC8D002020
:1007B000FCB1002000000000B2AD0708F8B1002035
:1007C000FC01010009000000C4DB002008B2002089
:1007D000000000001D67010804B20020FB010100B9
:1007E00001000000D0DB002018B200200000000053
:1007F0002967010814B200201A0001000E00000051
:10080000DCA0002020B2002000000000B8AD0708E6
:100810001CB200201400010005000000408C0020E4
:1008200034B2002000000000C6AD070830B200203E
:10083000FD010100240000009AA0002040B2002029
:1008400000000000DFE301083CB200201D020200AE
:100850000600000094A0002068B200200000000004
:100860000000000064B200201830010038000000D1
:10087000F88C002074B2002000000000656F0108B1
:1008800070B20020F901010004000000D4DB002058
:10089000B0B200200000000099E30108ACB20020D3
:1008A0001230010010000000AC820020B8B200201D
:1008B00000000000CCAD0708B4B200200E02010019
:1008C00002000000B4DD0020C8DF002000000000AE
:1008D000DCAD0708C4DF00202F100100220000005B
:1008E000D0DF0020B8DD002000000000DEAD0708EA
:1008F000CCDF00201F5001002400000014E5002080
:10090000E4F000200000000000AE0708E0F0002046
:10091000261001000E000000DCE000200CF1002099
:10092000000000009D49050808F100201B2001007F
:100930000C000000C8EC002020F1002000000000A6
:1009400029EC04081CF1002016200100060000001C
:10095000D8EC002030F100200000000024AE070891
:100960002CF100201010010002000000F8EA002025
:100970003CF10020000000002AAE070838F10020FA
:10098000190001000500000090F0002044F1002053
:10099000000000002CAE070840F1002029020100F1
:1009A0004000000064F200201CF500200000000060
:1009B00032AE070818F50020FD0701007C0000009A
:1009C0005CF4002060F50020000000008547050869
:1009D0005CF50020010101000400000058F4002033
:1009E000E0F500200000000000000000DCF5002021
:1009F000000101000400000054F40020E8F500208C
:100A00000000000072AE0708E4F5002002010100BA
:100A10000300000050F40020F0F50020000000006A
:100A2000A9120308ECF50020205201000800000084
:100A300010F40020F8F50020000000005DBF03085E
:100A4000F4F500202A0201000800000008F400204C
:100A500004F600200000000076AE070800F6002033
:100A6000371001002A000000D8F3002010F6002003
:100A7000000000007EAE07080CF600200300010015
:100A800001000000C40A0120D00C01200000000079
:100A900000000000CC0C0120050201000400000051
:100AA00070F70020D80C012000000000A8AE070855
:100AB000D40C01202C020100040000003CF70020AF
:100AC000000D012000000000ACAE0708FC0C012066
:100AD0002322010010000000500F0120EC13012020
:100AE00000000000B0AE0708E8130120100201006A
:100AF00001000000E09F0120DC9F012000000000B9
:100B0000C0AE0708D89F01200902010001000000C3
:100B1000609F0120E89F012000000000C2AE07088E
:040B2000E49F01202D
:100B240001010000A400000000000000000000001B
:100B34000000040100000200010000021000000097
:100B44000700FF0000600240106002400000000047
:100B54000000000000000000000B00000000000086
:100B64000000000000000000006002402860024015
:100B7400010000000000000000000000060C00005E
:100B840000000000000000000000000000600240BF
:100B9400406002400200000000000000000000006D
:100BA400100D000000000000000000000000000024
:100BB4000060024058600240030000000000000092
:100BC40000000000160E00000000000000000000FD
:100BD4000000000000600240706002400400000059
:100BE4000000000000000000200F000000000000D2
:100BF4000000000000000000006002408860024025
:100C040005000000000000000000000026100000A5
:100C1400000000000000000000000000006002402E
:100C2400A060024006000000000000000000000078
:100C3400301100000000000000000000000000006F
:100C440000600240B860024007000000000000009D
:100C540000000000362F000000000000000000002B
:100C64000000000000640240106402400000000024
:100C74000000000000000000003800000000000038
:100C840000000000000000000064024028640240EC
:100C94000100000000000000000000000639000010
:100CA400000000000000000000000000006402409A
:100CB4004064024002000000000000000000000048
:100CC400103A0000000000000000000000000000D6
:100CD4000064024058640240030000000000000069
:100CE40000000000163B00000000000000000000AF
:100CF4000000000000640240706402400400000030
:100D04000000000000000000203C00000000000083
:100D140000000000000000000064024088640240FB
:100D24000500000000000000000000002644000050
:100D34000000000000000000000000000064024009
:100D4400A064024006000000000000000000000053
:100D5400304500000000000000000000000000001A
:100D640000640240B8640240070000000000000074
:100D740000000000364600000000000000000000F3
:100D840000000000FF00E001FF080000F401000083
:100D9400000000000000000000000000010000004E
:100DA400000000000000000000000000000000003F
:100DB4000100000000000000010B0100120100020C
:100DC40000000040830420570002010203010000D8
:100DD400040309041A0300000000000000000000DE
:100DE40000000000000000000000000000000000FF
:100DF400D80000000000000005000000060000000C
:100E040002000000000000004C060020945D002059
:100E14000200000001000000B50701084806002098
:100E24000000000001000000010000009507010817
:100E34007804002000000000000000000000000012
:100E4400000000000000000000000000000000009E
:100E5400010000000000000000000000000000008D
:100E6400000000000100000000000000000000007D
:100E7400000000000000000001000000000000006D
:100E84000100000050C30000030000000000000047
:100E94000500010105000000FFFFFFFF2A0100001B
:100EA400F0A4060825000000FFFFFFFFC14501086C
:100EB400494601088D4601088D0A0108CD460108FE
:100EC40019470108910A01082406002089450108F0
:100ED4007509010899090108BD090108C10901083A
:100EE4001D0A0108890A010800060020E50A010814
:100EF400110B0108290B01082D0B01086547010896
:100F0400310B0108350B010898A7060879DD05089F
:100F140065B9050801DC05080000000000000000B8
:100F240035D0050875D00508000000000000000059
:100F340000000000A5B90508D1080108DD08010872
:100F4400354501080D450108E90801085145010826
:100F54006D4501081F0000001C0000001F00000078
:100F64001E0000001F0000001E0000001F00000003
:100F74001F0000001E0000001F0000001E000000F3
:100F84001F0000000068214C008002021F000000C6
:100F940053544D202020202050726F6475742020FB
:100FA4002020202020202020302E303100800202FA
:100FB4001F00000053544D202020202050726F64E5
:100FC400757420202020202020202020302E303135
:100FD4000600000005000000D5BB0508D9BB0508C4
:100FE400DDBB0508E9BB0508EDBB0508E1BB050849
:100FF400E5BB0508FFFF0000FFFFFFFF0100000045
:101004000001010100000000FFFFFFFFE5E005080B
:101014002DE2050869E00508EDF805085DE105081D
:1010240061E30508B1B9050819BA05082DBA050820
:1010340001010000D8BF06080CC00608FFFFFFFF2F
:10104400CC2B070800000802050303000000000081
:10105400C02B07080100080205040300000000007B
:1010640018890708000008020503030000000000B7
:10107400208907080100080205040300000000009D
:10108400489107080200FE0101100300000000005F
:101094000C210708030014020003000000000000F4
:1010A4002889070804001F0202000800000000004D
:1010B4003089070805001F02020108000000000033
:1010C4007D00000002000000685E0C0001000000CA
:1010D400A00F0000B80B000002FFFF01B02B0708AF
:1010E400382F0708000000002DAB0208A08601007D
:1010F40004000000B02B07089089070800000000D6
:10110400D9150208E803000004000000D4210708F0
:101114000000000000000000592103087D000000C9
:10112400FF00000000260708000000000000000087
:10113400694003087D000000FF00000024980708B0
:101144000000000000000000E5FA03087D00000034
:10115400FF000000CC2F0708000000000000000082
:10116400DDEF0108E803000003000000D8270708AA
:101174000000000000000000F9E40308102700004C
:10118400030000002489070800000000C5C3030809
:10119400BD8302085F76000005000000B83107082F
:1011A4000000000000000000893E02081027000033
:1011B40002000000988907080000000000000000F9
:1011C400B9E50108E803000005000000A489070848
:1011D4000000000000000000011C0308204E000075
:1011E40003000000B48907080000000000000000AC
:1011F400E9320308204E000003000000C4890708F8
:101204000000000000000000D9EC0108400D0300BC
:1012140003000000A42C07080000000000000000E8
:10122400558102081027000002000000602F070803
:101234000000000000000000050C05081027000055
:1012440003000000D489070800000000000000002B
:10125400F14A0208A086010002000000A82607083F
:101264000000000000000000AD48020850C3000068
:1012740002000000582407080000000000000000DD
:10128400654D0208A861000002000000C031070893
:101294000000000000000000F5510208A00F00004B
:1012A40002000000DC8907080000000000000000C4
:1012B400094005081027000002000000AC2C0708B4
:1012C40000000000B3470508619105088545010049
:1012D40002000000182407080000000000000000BD
:1012E400C54C050810270000020000004C2F070819
:1012F400000000000000000039C1040850C30000D1
:1013040002000000E8890708000000000000000057
:101314003DBE0508400D030001000000F0890708E8
:10132400000000000000000021480208400D0300F6
:1013340002000000F8890708000000000000000017
:101344009D33050850C3000003000000048A070809
:1013540000000000000000002930030840420F0094
:1013640001000000108A07080000000000000000CF
:101374008D77020850C30000010000001C8A070892
:1013840000000000000000000D7A0508102700008E
:1013940002000000B5DB050811B9050899DA050853
:1013A4000000000041B90508E9DB050801C905088A
:1013B400DDC80508000000000000000035B905087C
:1013C400A5BB0508C9BB050851F8050835F805088B
:1013D4006DF8050889F80508A5F8050809DB05086E
:1013E400EDB8050889D8050800000000BDB8050857
:1013F40031C70508D1C70508B9C8050800000000B1
:1014040000000000E1B805080000803F0000000073
:1014140000000000000000000000803F0000000009
:1014240000000000000000000000803F00000000F9
:101434000000000000000000FFFFFFFFFFFFFFFFB0
:10144400BD78020800000000000000000000000059
:1014540015A90208000000000000000000000000C0
:101464000101000000000000EC0C01200800000055
:1014740000000000DC0C012008000000FFFFFFFF5B
:1014840001F11F3FCC130120DA1301207EFF00007D
:10149400218102080000000000000000000000009C
:1014A4000000FA430000FA430000803F00000000FF
:1014B4000000000000000000000000000000000028
:1014C4000000000000000000000000000000000018
:1014D4000000803F001401200C2B0120602B012010
:1014E400D6010000FF1FFF1FFF00000000000000E6
:1014F400000000000000000018FD060800000000C5
:101504000000000000000000D0FD060800000000FC
:1015140000000000000000007CFD06080000000040
:1015240000000000C986040862300120358C0408DC
:101534000000000000000000801107080100000006
:10154400FA0000000100000001000000542D0120F9
:101554000000F40101000000522D01200000F401FC
:1015640001000000502D01200000F40101000000E2
:101574004E2D01200000F401010000004C2D01203B
:101584000000F401010000004A2D01200000F401D4
:1015940001000000482D01200000F40101000000BA
:1015A4009D6C0408D96C04080000000018FE0608AD
:1015B400642D012005320100722D01203200F40156
:1015C40001000000702D01206400C4090100000026
:1015D400622D0120E803D00701000000602D0120E6
:1015E400E803D007010000005E2D0120E803D007C6
:1015F400010000005C2D01201E00B80B010000005A
:101604006A2D012003000F00010000006C2D012051
:1016140003000A00010000005A2D01200F00F4010C
:10162400010000006E2D01200200000050B90608E0
:10163400582D01200500640001000000662D0120E2
:101644001900E80301000000562D01200000C80025
:1016540001000000B02D012000C80100AF2D0120C1
:1016640000500100AE2D0120005A0100AC2D0120D4
:1016740002000000FCB40608B8930708C0930708EA
:10168400A83001200100C40900000000A630012098
:101694000100C40900000000A43001200100C409B5
:1016A40000000000A23001200100C4090000000075
:1016B4009E3001200100C40900000000A030012078
:1016C4000100C409000000009C3001200100C4098D
:1016D400000000009A3001200100C409000000004D
:1016E400792E012000C80100782E012000C80100D5
:1016F400762E01200000FFFF0A000000742E012056
:101704000100C80001000000722E01203200307573
:1017140032000000702E01207EFF1400050000003E
:101724006E2E012005002C01050000006C2E012006
:10173400055A05007F2E012000FF01007D2E0120A7
:1017440002000000F00C00207B2E012003000000AA
:10175400A4FE06087E2E012000FF01007C2E01203D
:1017640002000000F00C00207A2E0120030000008B
:10177400A4FE060876330120FF7F010078330120A0
:1017840000000000FFFFFFFF010000007C33012088
:1017940000000000FFFFFFFF010000008033012074
:1017A40000000000FFFFFFFF01000000156D0408AA
:1017B400816D040800000000B4FE0608422D0120DB
:1017C400EE02CA0801000000412D012000C80100FA
:1017D40064000000402D012002C8010064000000E4
:1017E4003F2D01200200000054B606088433012076
:1017F4000000803E050000008633012080C1803E49
:1018040005000000883301200083007D05000000EE
:101814008A33012080C1803E050000008C33012002
:1018240000FF01008E3301206400F4010100000078
:10183400903301206400F401010000009233012080
:101844006400F4010100000094330120040000004E
:101854000CB90608953301200200000000B90608FF
:10186400E92D01200D000000B0B40608E62D01208A
:1018740000640100E42D0120320010270A0000005A
:10188400E32D01200D000000B0B40608E22D012074
:101894000D000000B0B40608E12D01200200000094
:1018A400E8B406080000000000000000000000008A
:1018B400C0FF06083E2D01204A00000098B6060825
:1018C4003C2D012003000000F8FF06083D2D0120F7
:1018D4000400000020B90608DF2D012003000000E9
:1018E40008000708DE2D0120030000000800070897
:1018F400D22D0120000A0100D02D01200000E803B0
:1019040001000000CE2D01200000E80301000000CA
:10191400CC2D0120000A0100CA2D01200000E8039B
:1019240001000000C82D01200000E80301000000B0
:10193400C02D0120C800E80301000000C62D0120CD
:101944003C00FA0001000000C42D01200100E8035E
:1019540001000000C22D012000050100BE2D012060
:1019640002000000BCB50608BC2D01200000F401F3
:1019740001000000BA2D01200000F4010100000064
:10198400B82D01200000F40101000000B62D012053
:101994000000F40101000000B42D01200000E80360
:1019A40001000000B22D01200000E8030100000046
:1019B400AA2D0120006401000A000000A92D0120C5
:1019C400006401000A000000972D01201964010041
:1019D400962D012002000000B0B50608942D0120C8
:1019E400E803D0070A000000922D012000640100E2
:1019F4000A000000872D012000640100862D0120CB
:101A0400006401008E2D0120006401000A00000022
:101A14008D2D0120006401000A0000008C2D01209E
:101A2400006401000A000000912D012000FF010064
:101A34000A000000902D012000FF01000A000000B0
:101A44008F2D012000FF01000A0000008B2D0120D2
:101A540001FF01000A0000008A2D012001FF01009E
:101A64000A000000892D012001FF01000A00000086
:101A7400DC2D01200000F40101000000DA2D01201A
:101A84000000E80301000000D82D01200000E80355
:101A940001000000D62D01200000E8030100000031
:101AA400D42D01200000E803010000006130012072
:101AB400009601005830012000C801005730012071
:101AC40000640100563001200064010055300120FB
:101AD40000640100543001200064010053300120EF
:101AE400FF0801005230012001640100D16E040896
:101AF400156F040800000000180007085B3001207F
:101B0400013201005A3001200100000088B50608A6
:101B1400593001200400000090B50608513001201E
:101B24000096010050300120006401004E30012075
:101B34000000FA000A0000004D3001200A5A01009A
:101B44004C30012000C801004B30012000C80100C6
:101B54004A30012000C801005E300120003201003B
:101B640060300120001401005F300120004B0100AF
:101B74005D300120040000007CB406085C300120C4
:101B8400006401000A000000822D01200AC805003B
:101B94000A000000812D012001000000CCB90608D4
:101BA400842D01200AC805000A000000832D0120AD
:101BB40001000000CCB90608792D012000C80500F9
:101BC4000A000000802D012000C805000A00000062
:101BD4007A2D012000C805000A0000007B2D012099
:101BE40000C805000A0000007E2D012000C8050081
:101BF4000A0000007F2D012000C805000A00000033
:101C04007D2D012000C805000A0000007C2D012064
:101C140000C805000A000000782D01200200000021
:101C24004CB40608483001200000D0070100000031
:101C34004330012000C801004230012000C80100E7
:101C44004130012000C80100463001200000D007C7
:101C5400010000004030012000C801003F30012095
:101C640000C801003E30012000C8010044300120BA
:101C74000000D007010000003D30012000C8010031
:101C84003C30012000C801003B30012000C80100A5
:101C940000A007080000000000005C3301200CA035
:101CA40007080708000000000013002014A007081C
:101CB400070800000000F81200201CA0070807080D
:101CC40000000000F012002024A00708080800000B
:101CD4000000E41200202CA0070807080000000000
:101CE400DC12002034A00708070800000000D4120A
:101CF40000203CA00708070800000000CC120020C8
:101D040044A00708080800000000C01200204CA0EE
:101D14000708071000000000B812002054A00708AC
:101D2400071000000000B01200205CA00708071094
:101D340000000000A812002064A00708081000009A
:101D440000009C120020F892070801000000000027
:101D5400000000000000000010000000000000006F
:101D6400000000000172040811720408858D040843
:101D740088000708EF2D0120005A0100EE2D0120F4
:101D840000C80100EC2D0120E803D0070100000089
:101D94000000000000000000259104082401070849
:101DA400842E0120030000003CB40608832E012089
:101DB40000030100822E012000030100A572040823
:101DC400F172040800000000780107083D7304085C
:101DD4007D73040800000000140207088D720408D3
:101DE400A98D04080000000094020708802E012039
:101DF400010301008DCE0408C1CE040800000000D8
:101E040008060708DD6B0408056C040800000000E0
:101E1400880607084DCC0408CDCC04080000000057
:101E2400F8060708B1710408A98B04080000000033
:101E3400B007070829880408A16B04080000000003
:101E44005808070811710408000000000000000091
:101E5400F4080708D16F04083D700408000000006E
:101E640058090708596F0408956F0408000000001A
:101E7400100A07084DCA04089D6E040800000000FB
:101E84009C0A0708772D012001060100A1700408AF
:101E9400DD70040800000000B40B070891CA0408B0
:101EA400C98A040800000000240C0708156E040801
:101EB400A589040800000000A00D0708F1C9040862
:101EC400658904080000000008130020752D012016
:101ED400010301002D7204085D7204080000000073
:101EE400AC0E07089D8604080000000000000000F6
:101EF400100F0708C5730408C58D0408000000000E
:101F0400AC0F070800000000000000000000000003
:101F140048100708ED6D04082D890408000000002E
:101F2400C810070800FF00000000000000000000C7
:101F3400F1CD0408000000000000000008130708A9
:101F44000101000000000100552A050800000000FE
:101F540000000000C0170708BB25050800000000AA
:101F640000000000781707082D202D2D202D2D2D81
:101F74002D202D2D2D000000000000000000000089
:101F8400000000000000000101FF0000FFFFFFFF50
:101F94000000803FFF0000009A33012088136F1770
:101FA400010000009C33012088136F17000000001B
:101FB4009E33012088136F1701000000A033012015
:101FC40088136F1700000000A9CD0408000000006A
:101FD4000000000018150708A635012001000000C4
:101FE4006C150708A33301200100000078150708C9
:101FF400483401200200000080150708CDCD0408F4
:1020040000000000000000008C150708000000001C
:102014000000000000000000E015070800000000B8
:10202400000000000000000050160708983301204B
:102034000200000098160708243A0120E0150C1746
:1020440000000000C0120000DE3A01200000000081
:1020540000000000DC3A0120000000000000000045
:10206400DA3A01200000000000000000D83A012004
:102074000000000000000000D63A0120000000002B
:1020840000000000D43A012000000000000000001D
:10209400BC1600200000000000000000A233012054
:1020A400030000008816070800000000000000007C
:1020B40000000000A4160708E23A01209CFF2C014E
:1020C40000000000FE390120E0150C17000000009C
:1020D4006639012002000000981607082D202D2DD6
:1020E400202D2D2D2D202D2D2D2D00000000000044
:1020F40000000000000000000000000000000000DC
:102104000000000000000000DC16070801010100C7
:10211400A4510120000000009C5101200000000097
:1021240001010000AA55070100001400FF0000008F
:1021340009024300020100C0320904000001020246
:1021440001000524001001052401000104240202F9
:102154000524060001070582030800FF09040100A5
:10216400020A000000070501024000000705810281
:102174004000000009026400030100C032090400A9
:1021840000010300000009211101000122360007AB
:1021940005830309000A080B010202020100090475
:1021A40001000102020100052400100105240100C0
:1021B4000204240202052406010207058203080022
:1021C400FF09040200020A000000070501024000A2
:1021D400000705810240000009022000010104C03B
:1021E4003209040000020806500507058102400078
:1021F400000705010240000012010002EF02014045
:10220400830456320002010203010000120100029D
:10221400020200408304405700020102030100004F
:1022240004030904AA550501000008000501090575
:10223400A101A10005010930093109320933093529
:102244000934093609371581257F750895088102F7
:102254000509190129081500250195087501810250
:10226400C0C0000009022200010100E0320904009C
:1022740000010301020009211101000122360007B7
:1022840005830309000A00000000000000000000AC
:102294000100000000000000000000009E63012017
:1022A4000000000001000000000000000000000029
:1022B400000000000000000000000000000000001A
:1022C400000000000000000000000000000000000A
:1022D4000000000000000000AA550902000000AA46
:1022E4005503009F01000000AA550B010000AA55E8
:1022F40005010000FF0000000000000001020304CB
:1023040001020304060708099DD605083DD7050800
:1023140079D105088DB80508B9DA050871B805083A
:1023240059B805089DB80508ADB8050800000000B7
:10233400000000000000000049FD0508D9FC050864
:1023440071E90508E5FB0508D1F9050875BB050821
:1023540089BB05089DBB05080000000000000000C3
:102364000102030406070809C70000000500000075
:1023740006000000F019002000000000000000002A
:102384000000000000000000000000000000000049
:102394000000000000000000000000000000000039
:1023A4000000000000000000000000000000000029
:1023B4000000000000000000000000000000000019
:1023C4000000000000000000000000000000000009
:0823D400000000000000000001
:08280000082800080040000850
:1080000082B01E4B002201920193019B1C4A043353
:108010000193019B1968936803F00C03042B06D0AD
:10802000082B08D0174B184A1A6002B07047154B3E
:10803000196002B070475368506813F4800F00F065
:108040003F00536812D1C3F388130F49B1FBF0F11D
:1080500001FB03F30A4A0B495268C2F301420132A1
:108060005200B3FBF2F30B6002B07047C3F3881306
:10807000B1FBF0F101FB03F3ECE700BF5028004037
:1080800000380240501A00200024F400074BD0F8BA
:10809000E4105B68D0F8F0205B1A9A42B8BFC0F8D1
:1080A000F030012380F81C3100207047001000E000
:1080B00090F8DB30052B03D890F81E31032B01D04C
:1080C0000020704790F8233103F0FB03022B0CBF14
:1080D00000200720704700BFB84B00EB800103EB86
:1080E000C10170B54A685268B2F814E01EF0010F81
:1080F0004FEA800C6ED15FFA8EF4A60742D5BFF32B
:108100005F8F91F82040012CE5B200F0D180118BF7
:10811000BFF35F8F0CEB000103EBC10191F820402E
:10812000022C00F0E7800CEB000103EBC10191F899
:108130002040032C07D191F8221021B193F87D1033
:10814000002940F0E780918889B241F480619180F4
:1081500093F97C100CEB000E03EBCE0E9EF820E0A2
:108160000EF1010E8E450CD1002183F87D1093F89D
:108170007E10002940F0B780604403EBC00300226A
:108180005A7770BD65075DD414F0400400F0CB80D1
:10819000148A93F97C508E6AE4B274555FFA85FEB6
:1081A0000EF1010464B291F8206083F87C40E51C74
:1081B000AE42214600F025810CEB000503EBC5051E
:1081C00095F82050AC42C5D10EF1020149B283F8B6
:1081D0007C10BFE7B2F800E02EF4006E4FEA0E4EBE
:1081E0004FEA1E4EA2F800E01488A4B244F4806462
:1081F000148091F82240002583F87C50002C48D050
:1082000093F87D40002C41D0012183F87D100CEBC8
:10821000000103EBC10191F82010022904D111885B
:1082200089B241F4006111800CEB000103EBC10144
:10823000897F41F001011182604403EBC00393F890
:10824000203070BD91F82240012583F87E50002C2B
:1082500070D093F87D40002C71D10CEB000103EB42
:10826000C10191F82110002900F0AA80118889B27B
:1082700041F40071118093F87C1001314CB283F805
:108280007C401188CE05FCD4214663E7C97FFF29D5
:10829000BAD00CEB000103EBC1018C7F04F0FE04AB
:1082A0001482CA7FFF2AC7D0FF2283F87C20C3E74D
:1082B00091F8221000293FF42AAF93F87D1000298D
:1082C0003FF425AF118821F480610904090C118065
:1082D000BFF35F8F118B118883F87E5089B241F410
:1082E000007111802FE7918821F440710904090C75
:1082F000918041E791F8221000293FF414AF93F8E0
:108300007D1000293FF40FAF118821F4806109042A
:10831000090C1180918821F480610904090C918075
:1083200093F97C1016E71FFA8EF52D062DD493F9DC
:108330007C100FE793F87D1000298ED096E791F816
:108340002040022C148846D924F480642404240C90
:108350001480158A8E6A93F97C40EDB235558E6A89
:10836000118889B241F400711180E4B2158A611C50
:1083700049B2EDB275549188023489B264B241F4C5
:10838000806183F87C4091807BE793F97C506E1C80
:108390003ED04C6A665D16826C1C91F8205064B227
:1083A000A54283F87C4021467FF4D4AE948824F41F
:1083B00080642404240C9480CCE600BF501A002072
:1083C000118893F97C4089B241F4807111800121B8
:1083D00083F87D1055E7A4B244F400741480158A24
:1083E0008E6A93F97C40EDB23555E4B28E6A158AF7
:1083F000611C49B20334EDB264B2755483F87C4019
:108400003FE7958825F480652D042D0C9580D3E6F3
:1084100083F87C40CC7F148291F8224024B991F8F3
:10842000201000297FF408AF918821F480610904AD
:10843000090C918000E700BF30B5EAB18E464FEAE3
:10844000014C034600F1C005002419689A6841EA0E
:108450000C0142EA0E029A60C3E900140C33AB42ED
:10846000F3D1D0F8C030C0F8C44043EA0E03C0F8DE
:10847000C030C0F8C84030BD4FEA014E8C46E0E73E
:10848000836930B41C6999682268096822F0010286
:1084900022608A899C8992B222EA04028A81027D42
:1084A00000681F2A06D94468203A082191402142D9
:1084B00017D0FEE70468082191402142F9D120211C
:1084C00001FA02F28260234A92F87F203AB11A7EC2
:1084D000012A0BD1D3F8F8200132C3F8F82030BCC0
:1084E0007047202101FA02F2C260ECE7D3F8F420D1
:1084F0000132C3F8F420EFF31181502282F3128885
:1085000058685C6C026822EA04029C6C2243C9B27F
:10851000026081F31188D3E90C401A6999681D6CD7
:10852000096814605061D3E90E40546090600024E3
:10853000B3F8A800D5604C62C862106801242043DB
:1085400010601C768A899B8913439BB230BC8B8157
:10855000704700BF501A0020704700BF024B03EB6A
:10856000401090F89D007047501A00204368B0F802
:10857000502010B41A83EFF31182502383F3128832
:108580004168446C0B6823EA0403C46C2343D2B2F1
:108590000B6082F31188D0E9074182680369126891
:1085A0001C605961D0E909415C60C46A9960B0F807
:1085B0006010DC600023D1625DF8044B03767047E5
:1085C000084B10B5D3F8803118440C46007E18F0E3
:1085D00053FF18B1036882880CB11A8310BD5A8307
:1085E000FCE700BF501A0020037D1F2B30B54FF071
:1085F0002002046816D9A3F120056168AA400A4246
:108600000FD00C4A002182F8841141680A681F2BA0
:1086100022F001020A604FF0200206D9203B9A4066
:10862000E26030BD21689A40E9E702FA03F3A360F3
:10863000F7E700BF501A0020F0B4037D85691F2BB7
:1086400063D90168A3F120024E6820249440264299
:1086500049D010239340CC60CB604B68D340DE07F9
:1086600067D4EFF31183502282F312882A6C1168C9
:10867000C9072FD4516889B271B9D5E90964A642F6
:1086800025D0AF692744D76058D9341BA4B25460B1
:10869000AE62002185F86410116841F00101DBB27F
:1086A000116083F31188037D1F2B19D802681946C6
:1086B000106808238B40184200D093601068042390
:1086C00003FA01F1014200D09160F0BC7047012231
:1086D00085F86420DBB283F31188037D1F2BE5D975
:1086E0000168A3F120024C6808209040044200D0A9
:1086F000C8604C68042000FA02F22242E5D0203B18
:1087000000FA03F3F0BCCB607047026820241668BF
:108710009C4026421946CBD010219940946091602C
:108720001168D940CC079CD5012101FA03F393606D
:1087300097E7012303FA02F2CA6092E72E69341B1D
:10874000A4B25460A962A4E74FF400638381704728
:10875000074BD0F8E4105B68D0F8F0205B1A934226
:10876000C8BFC0F8F030012380F81C3100207047EA
:10877000001000E04FF40063838170474FF4006302
:10878000838170474FF4006383817047012380F831
:108790001031704707B500238DF807300DF107023F
:1087A00001230F2117F0E2F928B19DF807306C2B57
:1087B00014BF0020102003B05DF804FB4FF40063E9
:1087C000838170474FF40063838170474FF40063E7
:1087D00083817047704701207047012070472DE961
:1087E000F047DFF88081D8F88851B8F88C21B8F8C4
:1087F0009291C2EB25135200C2EBE502B8F98E51FB
:108800006A4303FB03F5B8F990312D135D43AD13B3
:1088100005EBE225B8F99631C8F8A4510E46A5F546
:10882000FA31074681FB010C4FEAE37E03FB0CF2B1
:1088300000FB0E22A3FB003E9644B8F9942182FB74
:1088400001421B0A120343EA0E6342EA1452240354
:108850001B1942EB2E2202F50042A3FB093E09FB45
:1088600002EE4FEAEE734FEA6E0253EA6E0E4FF0DD
:1088700000046BD0B8F99C914FEAE97E09FB0CFC2F
:1088800000FB0ECCA9FB00908444B8F99A0180FB50
:1088900001E148044FEA4E4111EB0909D8F8A8114B
:1088A00040EADE304CEB0000C1F5801C0CF0004AC1
:1088B000B8F9981114EB09044AEA5C0A4FEACC7C37
:1088C00000EBC10140F63549BCEB04006AEB010A3C
:1088D000A0FB090109FB0A115FF070FCB8F9A24185
:1088E0004FEA613E430B43EAC14304FB0EF24FEAF9
:1088F000E47C03FB0C2CA4FB0342624404FB0EFE4D
:1089000003FB02EEA4FB0343B8F9A0219E44640ECE
:1089100044EACE1414EB000C02FB01F34FEAE274BC
:10892000814641EB6E6EA2FB092904FB00314944EC
:10893000D40C44EA41341CEB0404B8F99E314EEBEC
:10894000E141240A44EA016404EB03140FB1240A50
:108950003C6026B105EB850580352D123560BDE8FC
:10896000F08700BF501A002000B583B04FF0000C14
:1089700001230DF10702112198388DF807C017F077
:10898000F5F803B05DF804FB704700BF01207047A5
:108990000120704708B500685CF08CFCE0B90F4B13
:1089A00093F8AD2193F8AC11120142EA013293F829
:1089B000AE1142EA1112C3F8A82193F8B02193F83E
:1089C000AF11120142EA013293F8B11142EA1112D9
:1089D000C3F88821012008BD0020FCE7501A0020C0
:1089E00003681A78012A1CD0144B00B593F8BA1109
:1089F00093F8B9C193F8B80193F8BD2193F8BCE19D
:108A0000090441EA0C210143120493F8BB01C3F8A5
:108A1000B41142EA0E220243C3F8C02101205DF8DE
:108A200004FB93F90420054B02EB820203EBC20224
:108A3000527F002AD9D00020704700BF501A002072
:108A40002DE9F04FC84C83B0B4F8C431D4F8C0213C
:108A500094F9C851CDE90001B4F8C611A2EB032284
:108A6000A1FB02139E04A2FB0223EF1705FB03F3F5
:108A700002FB073346EA9136A5FB025289046D18C2
:108A80001A4442EB0603002B02DA013D43F10003D6
:108A9000009ADF17C4E97837002A00F0148103FB3D
:108AA00007F1A3FB032E0EEB410E4FEA921C4CEA9A
:108AB0008E6C0CFB07FB4FEAAE1103FB01BBACFB5A
:108AC00003C81BEB080BD4F8B45100F1488194F9AA
:108AD000CE114FEA1C2C4CEA0B6C4FEA2B2B4FEAC1
:108AE000E17801FB0BFA0CFB08AAA1FB0C181AEBAE
:108AF000080800F13081B4F9C961B4F9CB91490992
:108B000041EAC8610846A6F5804694F9CD11B6033E
:108B100006EB681ACE1701FB0EF802FB0688A1FBD4
:108B200002164644B60046EA91768900A9F58049C6
:108B300041184AEB060609FB07F84FEAE97A03FBFE
:108B40000A88A9FB039AD0444FEA485848EAD92832
:108B50004FEA495911EB090146EB0806002EC0F215
:108B6000F38094F9D49109FB0BFB4FEAE9780CFBF5
:108B700008BBA9FB0C98090E1BEB080841EA06216B
:108B80004FEA266600F1DB804FEA591C94F9D39135
:108B9000B4F8D1A109FB0EFE4FEAE97B02FB0BEE14
:108BA000A9FB0229CE444FEA0E1E4CEAC86C4EEADD
:108BB000127E12011CEB020CB4F8CF214FEAC23234
:108BC00002EB6818AAFB03920AFB072A4FEA8A5AAB
:108BD0004AEA992A4FEA895948EB0E081CEB090921
:108BE00048EB0A08B8F1000FC0F2A48094F9D7E16D
:108BF000B4F9D5B14FEA9909A1FB051249EA887980
:108C000019EB010905FB06264FEAEE710EFB07F290
:108C10004FEA0B4C03FB0122AEFB03E146EBA80637
:108C20000A441EEB0C0E42EBEB7BAEFB05CE05FBC4
:108C30000BEEBEF1000F76DB4FEA5C3C4CEACE4C0B
:108C4000ACFB05C14FEA6E3E05FB0E1EBEF1000FE8
:108C500062DB4FEA5C2C94F9D8214CEACE5C19EB2C
:108C60000C0146EB6E264FEAE27CA5FB054E04FBA9
:108C70000CFC02FB0ECCA4FB02421CEB020C45D404
:108C8000220C42EA0C42A2FB05244FEA2C4C05FBC5
:108C90000C4CBCF1000F35DBD20942EA4C62521891
:108CA00046EBEC16941846EB060CA41846EB0C0C9D
:108CB0004FEACC0C4CEA547CE400A41846EB0C06BA
:108CC000009A360C1660019A9AB1DA1847EB070140
:108CD000D21847EB0101C90041EA5271D200D31802
:108CE00047EB0107002F07DB019A9B0B43EA874301
:108CF000136003B0BDE8F08F43F6FF729B1847F195
:108D00000007F1E77F324CF1000CC5E74FF6FF7228
:108D1000A4184CF1000CB3E740F2FF111CEB010C5E
:108D20004EF1000E95E741F6FF721CEB020C4EF17E
:108D3000000E81E719F1030948F1000856E719F11F
:108D40001F0948F100081FE76FF07F4911EB090187
:108D500046F1000605E71F3148F10008CBE61CF19B
:108D6000FF0C4BF1000BB2E6501A00203A4B9FED7E
:108D70003B4A93F8E92193F8E80193F8EA1193F854
:108D8000EBC1120202EB00421144120248BF01F192
:108D90007F4107EE901AB3F9041293F8EC0193F8AF
:108DA000ED2106EE101AB3F90012B8EEE77A06EEDE
:108DB000901AB3F90212D3ED7E7A27EE047AB8EE58
:108DC000C66A05EE101AF8EEE66AB3F9FE11000263
:108DD00000EB0C400244E7EE066A000248BF02F1D5
:108DE0007F4205EE901AB8EEE76AB8EEC55A07EE74
:108DF000902AF8EEE55AB3F9FC21E7EE055A012076
:108E0000A6EE876A04EE902AD3ED7D6AB3F9F221CB
:108E1000F8EEE77A05EE102A67EE847AF8EEE44A77
:108E2000B3F9F021F8EEE66AA5EEA76AE7EEA46AC8
:108E300005EE902AB8EEC55AF8EEE55A67EE857A47
:108E4000B6EE005AE7EE066AE5EE857AC3ED826A71
:108E5000C3ED837A704700BF501A00200821843682
:108E600030B10A4BD3ED827AFDEEE77AC0ED007A9D
:108E700051B1064B9FED067AD3ED837A67EE877A80
:108E8000FDEEE77AC1ED007A704700BF501A00206E
:108E90000000C842704700BF0120704701207047A2
:108EA000704770470120704730B585B000238DF8BA
:108EB00007300DF107020123E721054616F07EFE7B
:108EC0009DF80730134C13F0030320D0052302AAAA
:108ED000E821284616F072FE9DF80A209DF8091038
:108EE000130443EA01239DF8081012F0800F43EAAF
:108EF000010314BF4FF07F4200221343C4F8103225
:108F0000BDF80B30A4F81432012005B030BDC4F810
:108F10001032F7E7501A00200B4A10B5D2F8104271
:108F20006423634348BF03F6FF731B130360B2F867
:108F300014320A2253433022B3FBF2F303F5845375
:108F40001A330B6010BD00BF501A002008B500682E
:108F50005CF0B0F970B9084A92F81D3292F81C1210
:108F60001B0243EA014392F81E120B43C2F8183267
:108F7000012008BD0020FCE7501A002010B504466F
:108F800000685CF097F938B92046044A0623F721B7
:108F90005EF054FB012010BD0020FCE7FC1B00200C
:108FA00008B503681A78012A06D0094A0623042165
:108FB0005EF044FB012008BD93F90430054A03EB41
:108FC000830302EBC3035B7F002BEED0002008BDC0
:108FD000081C0020501A002008B503681A78012ADE
:108FE00006D0094A062300215EF028FB012008BDB7
:108FF00093F90430054A03EB830302EBC3035B7F61
:10900000002BEED0002008BD381C0020501A002094
:1090100008B500685CF04EF970B9084A92F81D3244
:1090200092F81C121B0243EA014392F81E120B43F2
:10903000C2F82032012008BD0020FCE7501A0020B1
:109040002DE9F74F564AB2F82E32B2F82A62B2F83A
:109050003072CDE90001D2F818121B02C91AB2F819
:109060002C326EEB0E0EA3FB010403FB0E44B2F890
:109070002832C00940EA44601B04C018A6FB013531
:1090800006FB0E55B2F826624FEA132343EA056346
:109090004FEAC6364FEAE41444F100049B19A7FBDB
:1090A000012607FB0E664FEAD25242EA46224FEAF9
:1090B000252545F10005F61512F5FA6C46F1000B71
:1090C000BCF5FA6F7BF100074CDAA2FB02784FF097
:1090D000050A02FB06F908EB4909A7FB0A780AFB17
:1090E00009884FEA570949EAC879BF08B0EB090077
:1090F00047EA887764EB6804DB1B2A4F65EBA80519
:10910000BC454FF0FF377BEB070720DA40F6AC5742
:10911000D21946F100065643A2FB027202EB460644
:109120004FEAC608FA00BA1A48EA577866EB080808
:10913000101844EB08044FF00B08A7FB087208FB5B
:1091400006267F0847EAC677DB1B65EB660501FB51
:109150000EFEA1FB011202EB4E0EC90F41EA4E01B9
:10916000BCEB010C009A9AB10D4AD2F82012A1FB77
:10917000032301FB0535520D42EAC522121A4FEABC
:109180006555009B65EB0404D20B42EA44421A6029
:10919000019B0BB1C3F800C003B0BDE8F08F00BF66
:1091A000501A002024FAFFFF704701207047012069
:1091B000704710B5044600685CF07CF838B920466A
:1091C000044A0623F7215EF039FA012010BD002081
:1091D000FCE700BF841C002008B500685CF06AF85A
:1091E000D0B90E4B93F8352293F83412120242EAAA
:1091F000014293F836120A43C3F83C2293F838220E
:1092000093F83712120242EA014293F839120A43E4
:10921000C3F84022012008BD0020FCE7501A0020BE
:109220002A4BD3F8402293ED936AD3ED926AD3EDA3
:10923000917AD3ED965AD3ED954A93ED9A4A93EDF0
:10924000985AA2F5000207EE102AB8EEC77AD3F8B2
:109250003C22E7EE066AA2F5000293ED976AE7EE7C
:10926000267A93ED947AE5EEA74A06EE902AA7EEC9
:10927000A47AF8EEE66AD3ED995AD3ED9C4AA4EEAF
:10928000275AE6EEA45A93ED9B4AA5EE276AE4EE30
:10929000275AA5EEA66AA6EE867AB5EE407AF1EEDA
:1092A00010FA18BFBDEEC77AF5EE407A18BF80ED10
:1092B000007AF1EE10FA08D0FDEEE77A17EE903A58
:1092C000002BB8BFFF331B120B607047501A0020F1
:1092D00010B5074C94F874320BB9002010BD18F08B
:1092E00017FFD4F87832C01AD0F5FA50F6D5F4E763
:1092F000501A002070B505460C46FFF7E9FF2B68B1
:109300005D6808B118F03CFF064B002283F8742218
:109310002846224693F87532BDE87040492116F080
:109320004DBC00BF501A0020B0F90000084B41436B
:10933000994208DBB1F5000F07DA0029B8BFFF3109
:10934000081200B270470348FBE747F6FF70F8E7E2
:1093500001FF7FFF0080FFFF704710B50D4C2378A1
:1093600043B10C300C4A062303215EF067F900205C
:10937000207010BD094BB3F87C2252BA0A80B3F8B2
:109380007E2252BA8A80B3F880325BBA4B800120C9
:10939000EEE700BF98010020CC1C0020501A0020EE
:1093A00010B5124C637843B10C30114A06232821C2
:1093B0005EF044F90020607010BD0E4AB2F98232AE
:1093C000002BB8BF03339B100B80B2F98432002B03
:1093D000B8BF03339B104B80B2F98632002BB8BF65
:1093E00003339B108B800120E5E700BF980100202C
:1093F000D21C0020501A002010B5174C94F8883267
:10940000012B00F10C000CD0022B17D0012304F229
:10941000892206215EF012F9012384F888320020A7
:1094200010BD94F8893213F00403F6D0062304F239
:109430008A2200215EF002F90223EEE7B4F88A32B4
:109440000B80B4F88C324B80B4F88E328B800023C2
:1094500084F888320120E3E7501A002038B58022D2
:109460006B21054616F0D4FA642019F035F8F52181
:10947000284616F0F7FBAC2818D005D8122817D0CC
:10948000982817D000240FE0AF28FBD10924102220
:109490006A21284616F0BCFA28460322682116F0F5
:1094A000B7FA642019F018F8204638BD0724EEE713
:1094B0000824ECE70B24EAE738B500224E210546E4
:1094C00016F0A6FA1524962019F006F8F52128467C
:1094D00016F0C8FB422807D0472807D0013C14F0FB
:1094E000FF04F0D1204638BD0C24FBE70D24F9E73A
:1094F00038B580226B21044616F08AFA642018F0F1
:10950000EBFFF521204616F0ADFB0546012018F0D3
:1095100037FE682D1BD18C21204616F0A3FB18289E
:109520000DD8142834BF00250325204607226821C2
:1095300016F06EFA642018F0CFFF284638BDA0F16F
:109540005403DBB2072B34BF03250025EDE70025CC
:10955000F3E708B5F52116F085FB702818D008D878
:10956000422817D0472817D0122814BF00200820FF
:1095700008BDAC2812D006D800F0FD00712814BF39
:1095800000200620F4E7AF2814BF00200920EFE7F1
:109590000520EDE70C20EBE70D20E9E70720E7E7E2
:1095A000164BD0F8E0105A6810B50446D0F8D80031
:1095B00071B1131A99420BDC94F8D030C4F8D8205A
:1095C000012B10D0D4F8D4300133C4F8D43010BDFE
:1095D000D4F8E430C4F8D8200344C4F8DC3094F85C
:1095E000D030012BEED104F1E801201D16F0A4F9D2
:1095F000D4F8D4300133C4F8D43010BD001000E0EA
:1096000010B504460E49D0F8D83094F8D020D0F8E0
:10961000E40049680344012AC4E9361305D0D4F8AC
:10962000D4300133C4F8D43010BD04F1E801201D5A
:1096300016F082F9D4F8D4300133C4F8D43010BD18
:10964000001000E070B5866996F8DC30012B8AB016
:10965000054623D0023B012B2BD8D6F89C30164C64
:109660008C221A700FCCEC46ACE80F00D6F89C3078
:109670000093D6F8A03001930FCCACE80F0094E82B
:109680000300AB698CE8030003F11000694616F093
:1096900053F9AB691A69136A002BFCD1D6F8A030D4
:1096A000B3F90220EA81B3F904202A82B3F9063023
:1096B0006B8201200AB070BD849D0608F0B58369F5
:1096C00093F8DC20012A8BB0054627D0023A012A04
:1096D0002FD893F84C21D3F89C10174C62F07F03DD
:1096E0000B708669D6F8A0305F1C0FCCEC46ACE856
:1096F0000F00D6F89C30CDE900370FCCACE80F0056
:1097000094E803008CE80300694606F1100016F0A7
:1097100013F9AB6919690A6A002AFCD1D3F8A030A1
:109720005A8852BAEA819A8852BA2A82DB885BBA8E
:109730006B8201200BB0F0BDAC9D0608F0B590F82F
:10974000DC30D0F8A060012B8BB004464BD015D88C
:10975000D0F89C304FF0FF321A605A609A60DA609D
:10976000D0F8E0300522B3F57A7FC0F8F02054D865
:10977000032380F8DC3001200BB0F0BD023B012B4D
:10978000F9D890F84D31D0F89C203A4D63F07F0322
:109790001370D0F8A0305F1C0FCDEC46ACE80F0082
:1097A000D4F89C30CDE900370FCDACE80F0095E838
:1097B00003008CE80300694604F1100016F0BCF8C1
:1097C0002269136A002BFCD173885BBAA4F8D030ED
:1097D000B3885BBAA4F8D230F38801205BBAA4F84E
:1097E000D4300BB0F0BD90F84C2190F84D319B1A5D
:1097F0005B100133DBB206EB430236F813305BBA81
:10980000A0F8D03053885BBAA0F8D23093885BBA06
:10981000A0F8D43001200BB0F0BD03691A7B2AB345
:109820005B691BB390F8983003B390F84C31D0F8D3
:109830009C20C4F8A40063F07F03137090F84C11CF
:1098400090F84D31D0F8A0200B48C4F804015B1A01
:1098500007330121C4F8FC30D4F89C3084F800119F
:109860000A44C4E93D3284F8DC1084E7022384F81A
:10987000DC3080E7AC9D06088D800008F0B590F8DC
:109880001E31032B8DB0054658D090F8DC30D0F84F
:10989000A060012B00F08E8015D8D0F89C300022FB
:1098A0001A605A609A609A81D0F8E0300522B3F5C8
:1098B0007A7FC0F8F02036D80323012480F8DC300A
:1098C00020460DB0F0BD023B012B33D8D0F89C30C0
:1098D000554F92221A700FCF02AC0FC40FCF0FC496
:1098E00097E80300D5F89C3084E80300029302A9AE
:1098F000D5F8A030039305F1100016F01DF82A6981
:10990000136A002BFCD1B6F90230A5F8D030B6F9B5
:109910000430A5F8D230B6F90630A5F8D4300124C9
:1099200020460DB0F0BD03691A7B002A5AD10223EC
:1099300085F8DC30012420460DB0F0BD3B49029192
:109940003B4903910A21002301221030049102A90E
:109950008DF814208DF828200190CDE90633CDE94B
:1099600008330B9315F0E8FF2A690198136A002B5E
:10997000FCD13049B1F89222052A19DDB1F994429F
:10998000D1F89462B1F99672B1F9981214F5004FBA
:1099900020D0C5F8D060A5F8D4100124063A002ADA
:1099A000C9D0B0227E2116F033F820460DB0F0BDAC
:1099B0001C46F4E7B6F90820A0F8D020B6F90A2032
:1099C000A0F8D220B6F90C20A0F8D4201C462046DE
:1099D0000DB0F0BD17F5004FDBD111F5004FD8D118
:1099E0001C46DBE75B69002BA1D090F89840002C67
:1099F0009DD0D0F89C30C5F8A4008C221A70D0F805
:109A0000A020C0F8F8200E2201230B49C0F8FC204A
:109A1000D0F89C20C0F80411C0F8F42080F8003180
:109A200080F8DC3087E700BF849D06089C01002099
:109A3000E01C0020501A0020518700082DE9F04753
:109A4000044690F8210144F23B3382B0A4F84C3133
:109A500010B902B0BDE8F0870509013D042D00F002
:109A60000F0071D83A4F07EB4503B3F8503043FA73
:109A700000F2D20768D5012606FA00F00138184036
:109A80003D445EF0EBFBDFF8D89095F85C80314BFD
:109A9000804409F5277A0AEBC8052622EA80E360AC
:109AA000AB88B3FA83F3202BC3F11F02D1D0174444
:109AB00009EB82020C34C2F81C45284697F8644032
:109AC00016F072FE0021284616F0A6FE5AF838005D
:109AD000A98800F13F40B1FA81F100F57E00C1F1A3
:109AE0001F01C0F38720C9B255F070FCAA888DF819
:109AF0000660B2FA82F24FF00043A144D3406846B8
:109B00004FF400620093ADF804205BF0D1F999F8AE
:109B10005C35F02B0ED8AB884FF00042B3FA83F3DC
:109B200032FA03F395D00C490A6813430B6002B074
:109B3000BDE8F087094AF023105D89F85C35002202
:109B400003215BF033FBE6E7024BE36081E700BFF4
:109B5000849D0608A1950008003C0140981D070857
:109B6000501A002038B500F110040546194815F0C8
:109B70006BFEA8822846FFF761FF01226B21204679
:109B800015F046FF782018F0FBFA204618221B211A
:109B900015F03EFF204618221C2115F039FF2846FB
:109BA000FEF786FA1A210246204615F031FF95F895
:109BB00020212046192115F02BFF204610223721A5
:109BC00015F026FF20460122BDE83840382115F067
:109BD0001FBF00BF00127A0037B5054600F1100420
:109BE000354815F031FEA8822846FFF727FF42F2DC
:109BF0001F53A5F84C310F224E21204615F008FFC7
:109C00000F2018F069FC95F8DB30002B4ED095F84A
:109C100020210132D3B20822B2FBF3F2082AD3B2D8
:109C200040D0042A40D0022B02D0012B3ED1032386
:109C3000224A02EB430393F8752002F00F024F21F2
:109C40002046019215F0E4FE0F2018F045FC019A21
:109C50005021204615F0DCFE0F2018F03DFC204678
:109C6000EE22522115F0D4FE20460322142115F0D5
:109C7000CFFE20460022632115F0CAFE08222046AE
:109C8000652115F0C5FEE421204615F0EBFF00F03C
:109C9000EF0040F060026421204603B0BDE8304090
:109CA00015F0B6BE0023C3E70123C1E7002385F802
:109CB000DB300622C1E700BF00366E01849D060836
:109CC0002DE9F04FC74C94F87FB083B0BBF1000F83
:109CD0001ED1D4F86435002B16DD0026C24831466B
:109CE0000769D0F8A0303D6825F0010503F1C002F6
:109CF0003D6059600C339A42FBD1D4F8643501368B
:109D0000B34200F58070EBDC012003B0BDE8F08FBA
:109D1000D4F86835019318F0FBF9D4F86C35D4F811
:109D200070251433801AB0EB430FC0F24981CDF88F
:109D300000B0DDF804B004F2745704F6540A04F1DC
:109D400080060025D4F8E438AB42C2DDB1697368FF
:109D50000A6998005368D1F8EC201FFA83FEA2EB41
:109D60000E0ED1F8E83000F108500EF1806C00EBD7
:109D70004310ACF1390C00EB8C1C01468C4540F2D1
:109D8000A9800A6801F58073002A00F00A810A6C34
:109D9000002A00F00981D1F88020002A00F0078114
:109DA000D1F8C0201946002AE8D19C4540F29280A3
:109DB000191AAEEBA111452928BF4521002003EB5C
:109DC0008111984684464FF001090DE01A6C002A73
:109DD00040F08B80D3F88020002A40F0B480D3F884
:109DE000C02003F580732AB9994205D91A68002A60
:109DF000ECD0403399427BD811286BD9C0F11503C0
:109E0000002BC0F2BE8000F0F7800CFA03FCC0F11A
:109E10001400012303FA00F0744A40EA0C0CCCF35E
:109E2000C43302EB8303CCF34410D96F0CF01F034F
:109E300002EB830302EB8000DB6F43EA0131CCF3DA
:109E4000842302EB8302C36FD26F41EA031343EA18
:109E5000022383EA132282EA121202F00F020F2A6F
:109E600040F08F80B3F5803F80F08B8040F6FF712B
:109E7000B1EB131F4FEA131200F0AB80C2F30802DC
:109E80005B0B12FA03F37CD05A0802F5122202F59A
:109E9000F862B2FBF3F24FF6FE739A421AD0D4F88E
:109EA0005C380133C4F85C384FF6FF739A426DD0CA
:109EB00093B2AAF80C30032D4FF001038AF80E304C
:109EC00003DC94F8D8382D2B7ED000995A463846BA
:109ED00015F072FA0135082D07F15C070AF1040A42
:109EE00006F120067FF42EAFF3E68033994283D942
:109EF000A3EB0802921102F1010E3D4A82FB0E8291
:109F0000A2EBEE72012AB8BF01220CFA02FC104447
:109F1000013A09FA02F242EA0C0C9E46DEF80020F1
:109F20009AB1DEF84020002A44D0DEF88020002AD2
:109F300043D0DEF8C0200EF5807E42B17145EDD8E9
:109F40009846734650E7C03354E70EF1400E714512
:109F5000F6D9AEEB03039B115A1C254B83FB0283FE
:109F6000A3EBE273012BB8BF01230CFA03FC1844E6
:109F7000013B09FA03F343EA0C0C73469846734617
:109F800032E7D4F85C380133C4F85C38D4F8583878
:109F90000133C4F8583800215A46384615F00CFAF7
:109FA00098E701F1400300E701F18003FDE601F1CC
:109FB000C003FAE60EF1800EC9E70EF1C00EC6E747
:109FC000002003B0BDE8F08F0A4B009923F815205C
:109FD000E2E7D4F85C380133C4F85C3800231A4651
:109FE00067E700BF501A002038230020849D060830
:109FF000565555552C230020104BCCF3C43203EB9F
:10A000008202D16F0CF01F0203EB8202D26F42EA90
:10A010000132CCF3441103EB8101CCF3842C03EB2C
:10A020008C03C96FDB6F42EA011242EA032383EA21
:10A03000132282EA121202F00F0210E7849D060832
:10A040002DE9F041304F07EB401898F89C300BB9E0
:10A05000BDE8F0818C2303FB00730E4693F8EA2CD5
:10A0600088F88220002183F8EA1C0446450115F097
:10A0700093FBC0BB3D442548A5F8806000EB44102D
:10A0800015F07AF997F87F30D5F89820A3B1D5F874
:10A090008410D2F8A03001248C4003F1C0014200AA
:10A0A00010F4004F90B202D15A6822435A600C3328
:10A0B0009942F4D1BDE8F081D5F88440D2F8A030BF
:10A0C00004F110020124944003F1C001420010F495
:10A0D000004F90B202D15A6822435A600C33994221
:10A0E000F4D1BDE8F0810A4B93F8B02002EB4202B4
:10A0F00003EBC203234493F85D60002EBAD0012322
:10A1000088F88230B6E700BF501A0020D01A00202D
:10A11000482B002010B504465FF074F881B2204649
:10A12000BDE810408CE700BF10B57D4C94F8B1201D
:10A1300094F8B0309A4240F0978194F8B220002A07
:10A1400000F0EC8094F8B330002B40F0EB80D4F8B2
:10A15000B410088820F080000004000C0880B4F8D7
:10A16000B800C862088880B240F0800008804B6266
:10A17000B1F80CC0B4F8C80040EA0C0080B2012A63
:10A180008881A4F8C83000F0C980D4F8CC100888C1
:10A1900020F080000004000C0880B4F8D000C862F1
:10A1A000088880B240F0800008804B62B1F80CC093
:10A1B000B4F8E00040EA0C0080B2022A8881A4F8DA
:10A1C000E03000F0AB80D4F8E410088820F0800084
:10A1D0000004000C0880B4F8E800C862088880B267
:10A1E00040F0800008804B62B1F80CC0B4F8F80071
:10A1F00040EA0C0080B2032A8881A4F8F83000F00D
:10A200008D80D4F8FC10088820F080000004000C39
:10A210000880B4F80001C862088880B240F080006D
:10A2200008804B62B1F80CC0B4F8100140EA0C0091
:10A2300080B2042A8881A4F810316FD0D4F81411A8
:10A24000088820F080000004000C0880B4F8180191
:10A25000C862088880B240F0800008804B62B1F884
:10A260000CC0B4F8280140EA0C0080B2052A8881AD
:10A27000A4F8283152D0D4F82C11088820F080009E
:10A280000004000C0880B4F83001C862088880B26D
:10A2900040F0800008804B62B1F80CC0B4F8400177
:10A2A00040EA0C0080B2062A8881A4F8403135D0FB
:10A2B000D4F84411088820F080000004000C0880C5
:10A2C000B4F84801C862088880B240F08000088075
:10A2D0004B62B1F80CC0B4F8580140EA0C0080B2EF
:10A2E000072A8881A4F8583118D0D4F85C21B4F832
:10A2F0006001118821F080010904090C1180D062ED
:10A300001088B4F8701180B240F080001080536261
:10A310009089014389B29181A4F8703110BD00BFCA
:10A32000482B0020D4F8BC30B4F8C010596019682C
:10A33000D4F8B40041F00101196040F20D33A0F8E7
:10A340004830818989B241F48071012A8181E5D048
:10A35000D4F8D410B4F8D8004860086840F0010080
:10A360000860D4F8CC00A0F84830818989B241F463
:10A370008071022A8181D1D0D4F8EC10B4F8F000B9
:10A380004860086840F001000860D4F8E400A0F8D4
:10A390004830818989B241F48071032A8181BDD01E
:10A3A000D4F80411B4F808014860086840F00100CE
:10A3B0000860D4F8FC00A0F84830818989B241F4E3
:10A3C0008071042A8181A9D0D4F81C11B4F820012D
:10A3D0004860086840F001000860D4F81401A0F853
:10A3E0004830818989B241F48071052A818195D0F4
:10A3F000D4F83411B4F838014860086840F001001E
:10A400000860D4F82C01A0F84830818989B241F461
:10A410008071062A818181D0D4F84C11B4F85001A2
:10A420004860086840F001000860D4F84401A0F8D2
:10A430004830818989B241F48071072A81813FF4D3
:10A440006DAFD4F86411B4F868214A600868D4F894
:10A450005C2140F001000860A2F8483093899BB26B
:10A4600043F48073938110BD5AF06CF900287FF497
:10A4700064AE10BD2DE9F843DFF8A48098F8B12050
:10A4800098F8B0309A423ED1224FD7F86455002D4B
:10A4900013DD002497F87F6007F6E800A146013439
:10A4A00016B1037E012B29D002691368A54243F03F
:10A4B000010300F580701360F1D1174B5B68C3F3A3
:10A4C0000803C3B9EFF31183ABB917F0FDFDD8F85A
:10A4D0007441C7F87005002C0BDD104A02EBC40470
:10A4E000116893888889083203439BB294428B8118
:10A4F000F6D1BDE8F88317F085FCE8E780F8F09026
:10A50000FEF734F8D0E75AF01DF90028BCD1BDE8B9
:10A51000F88300BF501A002000ED00E0C02C00209E
:10A52000482B00202DE9F047836882B0804613B1A4
:10A530001A689B8853835F4B5B68C3F30803002B47
:10A5400040F0B380EFF31183002B40F0AE8017F0A2
:10A55000BBFD0546574F584E584C05E017F0B4FD6B
:10A56000431BB3F57A7F30D27B68C3F308031BB972
:10A57000EFF31183002BF1D0EFF31182102383F35B
:10A5800012884FF0E0210120D1F818C00B69DB03DD
:10A5900003D5C6F89801D1F818C0D4F868E5D6F804
:10A5A0009801D2B282F31188D6F89C114FF47A72D6
:10A5B00002FB01F37044A3EB0C03B3FBF1F302FBCA
:10A5C0000030431BB3F57A7FCED3D8F8083013B1EF
:10A5D0001A689B881383374C384EDFF8DCA00A27B3
:10A5E00010256368C3F30803002B4BD1EFF31183ED
:10A5F000002B47D117F068FD814606E017F064FD97
:10A60000A0EB0903B3F57A7F30D26368C3F3080384
:10A610001BB9EFF31183002BF0D0EFF3118285F318
:10A6200012884FF0E0210120D1F818C00B69DB033C
:10A6300044BFCAF89801D1F818C0D6F868E5DAF82E
:10A640009801D2B282F31188DAF89C114FF47A7231
:10A6500002FB01F37044A3EB0C03B3FBF1F302FB29
:10A660000030A0EB0903B3F57A7FCED3013FB8D118
:10A67000D8F80030ADF804701B6A3BB1384602B020
:10A68000BDE8F08717F0BEFB8146BEE740460223D7
:10A6900001AA802115F044FA9DF80530242B14BF3F
:10A6A00000200F2002B0BDE8F08717F0ABFB054695
:10A6B00050E700BF00ED00E0482B0020501A0020BA
:10A6C00070B5104ED6F8E438002B19DD06F1800481
:10A6D000002505E0D6F8E438AB4204F120040FDD94
:10A6E000237F0135002BF5D0E0680028F2D0217DD2
:10A6F00016F032FAD6F8E438AB4204F12004EFDC6D
:10A70000012070BD501A0020F0B5D0F88050876845
:10A710002B6858493E6823F001032B6000232B600F
:10A720008D426B60AB60EB602B614FF0210383B017
:10A73000044600F160026B6100F097804E4B9D4231
:10A740005ED02846019254F033FD019A002384F82C
:10A75000543079790C290ED8DFE801F0650D0D0D24
:10A760005E0D0D0D570D0D0D0700B38B23F4006327
:10A770001B041B0CB383304619F004F97B790C2BB6
:10A7800010D8DFE803F0690F0F0F600F0F0F570F9E
:10A790000F0F0700B38B23F400631B041B0C43F45F
:10A7A0000063B38340222968A369E06A6262334A86
:10A7B00003430A40216B13430B43D4E90D120B43AF
:10A7C0001343D4E90F120B431343D4E913120B4381
:10A7D000134343F040032B60D4E911316A690B4302
:10A7E00022F007021343A16A6B61D4E90723696071
:10A7F000AA60EB602B6843F010032B6003B0F0BD40
:10A800004FF4746143F8201CA0E7B38B23F00803D6
:10A810001B041B0CB383AEE7338B23F400631B04D0
:10A820001B0C3383A7E7338B23F008031B041B0C9B
:10A830003383A0E7B38B23F008031B041B0C43F006
:10A840000803B383AEE7338B23F400631B041B0CB4
:10A8500043F400633383A5E7338B23F008031B0421
:10A860001B0C43F0080333839CE7054B3D219960A3
:10A870006CE700BF10600240286002403F801CF07F
:10A88000006002402DE9F04FDFF8F0B12DED028BB2
:10A890009BF87F4085B034B90124204605B0BDEC5B
:10A8A000028BBDE8F08FDBF86835724F08EE103A86
:10A8B00017F02EFC97F8CC310290002B00F0BF81EE
:10A8C0000BF654030BF6E8450BF2745A0026994632
:10A8D0000EE02846FFF718FF97F8CC3101369E426C
:10A8E00005F18C050AF15C0A09F1040980F2C880BF
:10A8F000D7F8D431029AD31A03D4AA6D9342C0F286
:10A9000094818C2303FB06B393F83C3D03F0FF02D4
:10A910000192002BDDD0AB68A9891A68D5F8803088
:10A920005B681FFA83FE9389CEF1160E9BB223EA71
:10A930000103BEF1070F9381CBD9DBF85C380133FB
:10A94000CBF85C38D5F8883003939C4600225CF83D
:10A95000044B012190461BE0DCF80000B8F1140F15
:10A96000A0EB04031DDC13F1080448BF03F1170436
:10A97000231108EB24180446581E013102FA03F390
:10A98000012282408E4542EA03020CF1040C08D3F6
:10A990008E45E1D8C8F11503DCF800404FF01508EA
:10A9A000EAE7B8F1150F54D13348C2F38423C2F358
:10A9B000441100EB830300EB8101D3F8FC30D1F8A4
:10A9C000FC101B0243EA011302F01F0100EB81019E
:10A9D000C2F3C43200EB8202D1F8FC10D2F8FC20A2
:10A9E0000B4343EA023383EA132282EA121202F093
:10A9F0000F020F2A2DD140F6FF71B1EB131F4FEA62
:10AA0000131200F01981C2F308025B0B12FA03F370
:10AA10001FD05A0802F5122202F5F8624FF6FF71B4
:10AA2000B2FBF3F293B28B4213D0A9F80C30032E91
:10AA30004FF0010389F80E3004DC9BF8D8382D2B39
:10AA400000F0EF80019918EE102A504614F0B4FC83
:10AA50003FE7DBF858380133CBF85838002E00F0C8
:10AA6000D98000230193019918EE102A504614F062
:10AA7000A3FC2EE7482B0020849D0608501A0020D6
:10AA80000022C7F8D421002B3FF406AF9BF8F82C26
:10AA900012F0020FDBF8F02C10685479018C0CBF17
:10AAA00001220422A24092B289B221EA0201018469
:10AAB000018C89B20A43012B02843FF4EDAE9BF86E
:10AAC000842D12F0020FDBF87C2D10685479018C74
:10AAD0000CBF01220422A24092B289B221EA0201F3
:10AAE0000184018C89B20A43022B02843FF4D4AE64
:10AAF0009BF8102E12F0020FDBF8082E1068547924
:10AB0000018C0CBF01220422A24092B289B221EA38
:10AB100002010184018C89B20A43032B02843FF4B1
:10AB2000BBAE9BF89C2E12F0020FDBF8942E10683F
:10AB30005479018C0CBF01220422A24092B289B246
:10AB400021EA02010184018C89B20A43042B0284A8
:10AB50003FF4A2AE9BF8282F12F0020FDBF8202F53
:10AB600010685479018C0CBF01220422A24092B2D9
:10AB700089B221EA02010184018C89B20A43052BC2
:10AB800002843FF489AE9BF8B42FDBF8AC1F920728
:10AB90000868497954BF012204228A40018C92B28C
:10ABA00089B221EA02010184018C89B20A43062B91
:10ABB00002843FF471AE234A92F8401011F0020F64
:10ABC000916B0C684D79208C0CBF01210421A940A8
:10ABD00089B280B220EA01002084208C80B2014337
:10ABE000082B21847FF458AE92F8CC30D2F8C420E0
:10ABF000116850790A8C9B074CBF042301238340C2
:10AC00009BB292B222EA03020A840A8C92B21343E4
:10AC10000B8441E603990C4858225EF0FDFF019633
:10AC200010E70A4B23F816200CE70024204605B055
:10AC3000BDEC028BBDE8F08F00221346F5E6C7F8A5
:10AC4000D4312AE6502A0020D02200202C230020D4
:10AC50002DE9F843037D01681F2B044608D9486895
:10AC6000A3F120052022AA40024206D1BDE8F883C4
:10AC7000086820229A400242F8D0714A714E526808
:10AC8000C6F8D82196F8B320A569DFF8D09112BB99
:10AC90008C2202FB0592D2F8F00CD2F8687DD0F835
:10ACA00000803868B2F8F4CC20F001003860B8F8C1
:10ACB0000C2092B222EA0C02A8F80C2099F87F200E
:10ACC0000ABB1F2B40F2A880A3F12002202393404F
:10ACD000CB60BDE8F8838C2202FB0592D2F8F02C01
:10ACE0005069D2F80080026822F001020260B8F8D0
:10ACF0000C2022F480721204120CA8F80C2099F88F
:10AD00007F20002ADDD08C2303FB05934E4AD3F825
:10AD1000687D3B6823F001033B6000233B60974262
:10AD20007B60BB60FB603B614FF021037B617ED0A9
:10AD3000464B9F427FD0384654F03AFA8C2303FBAF
:10AD40000593D6F8D421012183F83C1D002A69D04F
:10AD5000B8F800303E499BB243F08003A8F80030B9
:10AD60008C2303FB05F54FF0FF332944C8F82C3042
:10AD7000404654F073FC09EB05030022D3F8140D90
:10AD8000C3F80C2DD3F8002D39680243D3F8180D01
:10AD90000243D3F81C0D0243D3F8200D0243D3F82D
:10ADA000240D0243D3F8280D0243D3F8340D024397
:10ADB000D3F8380D02432748084002433A607969C6
:10ADC000D3F82C2DD3F8300D21F0070102430A43AC
:10ADD0007A61D3F8102D7A60D3F8042DBA60D3F8D5
:10ADE000082DFA60D3F8682D16215160116841F0E2
:10ADF00001011160D3F8F02CB3F8F43C126891898A
:10AE00000B439BB20E4993814B68C6F8DC31237D1E
:10AE100021681F2B3FF658AF202202FA03F38B6004
:10AE2000BDE8F88317F074F9C6F8D40190E70A4B2F
:10AE30003D229A6082E74FF4746243F8202C7DE74C
:10AE4000001000E0482B0020106002402860024003
:10AE5000AC2700203F801CF000600240501A002008
:10AE6000F8B5054600F11004FEF7E8FD95F8D83076
:10AE7000072B5BD195F81D310226002B58D13746A0
:10AE800080226B21204614F0EDFD642017F024FB96
:10AE900007226821204614F0E5FD642017F01CFB12
:10AEA00000226B21204614F0DDFD642017F014FB16
:10AEB00001226B21204614F0D5FD0F2017F00CFB6A
:10AEC000FA001B21204614F0CDFD0F2017F004FBE3
:10AED000F2001C21204614F0C5FD0F2017F0FCFAEB
:10AEE0002846FDF7E5F81A210246204614F0BAFD7F
:10AEF0000F2017F0F1FA95F820211921204614F0BF
:10AF0000B1FD642017F0E8FA10223721204614F032
:10AF1000A9FD0F2017F0E0FA20460122382114F095
:10AF2000A1FDBDE8F8400F2017F0D6BA0326A6E72A
:10AF30000327A5E710B50446FFF792FF1022A018DB
:10AF40006A2114F065FD642017F0C6FA044814F075
:10AF50007BFCA082BDE81040012017F011B900BFB2
:10AF6000002D31012DE9F341144698460DF10702F9
:10AF7000012306460F4614F0F9FD88B1022017F0B0
:10AF8000FFF89DF8075025EA040444EA0802394610
:10AF900030468DF8072014F065FD089817F09CFAEC
:10AFA00002B0BDE8F08173B5642300F11004009392
:10AFB00001231A46054612212046FFF7D3FF02223D
:10AFC0000D21204614F04EFD012017F085FA0222D3
:10AFD0000E21204614F046FD012017F07DFA742260
:10AFE0001021204614F03EFD012017F075FAAC2226
:10AFF0001121204614F036FD0126012017F06CFACD
:10B0000044237C22122120460096FFF7ABFF062343
:10B010001A46132120460096FFF7A4FF00231722AB
:10B02000152120460096FFF79DFF0223204600963B
:10B030001A461821FFF796FF95F8210188B116F0FE
:10B040001BFA044608B12623C3802946084B41F861
:10B050000C3F002320461A465AF0CEF8204615F041
:10B0600093FB044814F0F0FBA88202B070BD00BF4F
:10B070008D870008809698007B22F42114F0F2BCA2
:10B0800037B500F10C040546C0685BF0D7FF00221D
:10B090000A21204614F0E6FC142017F01DFA0F22B6
:10B0A0000A21204614F0DEFC0A2017F015FA01AA46
:10B0B00003231021204614F059FD0A2017F00CFA42
:10B0C0009DF804308033A5F8F6309DF805308033C4
:10B0D000A5F8F8309DF806308033A5F8FA30002244
:10B0E0000A21204614F0BEFC0A2017F0F5F90DF1F4
:10B0F000030201230221204614F038FD01230DF143
:10B1000003020921204614F031FD11220A212046B4
:10B1100014F0A8FC012003B030BD37B500F10C05D8
:10B12000044670220021284614F09CFC20220121B4
:10B13000284614F097FC00220221284614F092FCC5
:10B14000642017F0C9F994F8F40098B116F094F956
:10B1500008B12823C3802146084B41F8083F00234B
:10B160001A4601905AF048F8019815F00DFB019825
:10B1700015F00AFB012003B030BD00BF5993000851
:10B1800010B500F10C04C0685BF058FF00222121CB
:10B19000204614F067FCFC222021204614F062FCBB
:10B1A00040222421204614F05DFC0C22232120465D
:10B1B00014F058FC00222221204614F053FC642095
:10B1C00017F08AF9012010BD10B500F10C04C06819
:10B1D0005BF034FF01220B21204614F043FC20B128
:10B1E0001D220921204614F03DFC00F0010010BD95
:10B1F0002DE9F04F2DED028B034683B000F11006D0
:10B2000093F81E310090B6227E213046019314F04F
:10B21000FFFBBB4CBB4DBC4F08EE106A4FF06409FE
:10B220004FF010087B68C3F30803002B40F06385E0
:10B23000EFF31183002B40F05E8516F045FF824648
:10B240004FF0E02B06E016F03FFFA0EB0A00B0F550
:10B250007A7F30D27B68C3F308031BB9EFF3118305
:10B26000002BF0D0EFF3118388F31288DBF818007D
:10B27000DBF8102012F4803F4FF001021CBFC4F82D
:10B280009821DBF81800D5F86825D4F898C1DBB20E
:10B2900083F31188D4F89C614FF47A7101FB06F3B3
:10B2A0006244181AB0FBF6F001FB0200A0EB0A00A2
:10B2B000B0F57A7FCED3B9F10109B3D1009B9B6978
:10B2C00018EE106A13B11A689B8853838E4B5B6823
:10B2D000C3F30803002B40F04C85EFF31183002BE0
:10B2E00040F0478516F0F0FE8046DFF81CA21027DC
:10B2F0004FF0E02906E016F0E7FEA0EB0800B0F5FD
:10B300007A7F32D2DAF80430C3F308031BB9EFF3C3
:10B310001183002BEFD0EFF3118387F31288D9F854
:10B3200018E0D9F81020D2034FF0010103D5C4F87A
:10B330009811D9F818E0D5F868B5D4F89821DBB29F
:10B3400083F31188D4F89CC14FF47A7101FB0CF09F
:10B3500002EB0B03A0EB0E00B0FBFCF001FB0300C3
:10B36000A0EB0800B0F57A7FCCD3009B9B6913B1AA
:10B370001A689B881383644F08EE106A4FF00A091D
:10B380004FF010087B68C3F30803002B40F0B8842B
:10B39000EFF31183002B40F0B38416F095FE824644
:10B3A0004FF0E02B06E016F08FFEA0EB0A00B0F5A0
:10B3B0007A7F30D27B68C3F308031BB9EFF31183A4
:10B3C000002BF0D0EFF3118388F31288DBF818001C
:10B3D000DBF8102012F4803F4FF001021CBFC4F8CC
:10B3E0009821DBF81800D5F86825D4F898C1DBB2AD
:10B3F00083F31188D4F89C614FF47A7101FB06F352
:10B400006244181AB0FBF6F001FB0200A0EB0A0040
:10B41000B0F57A7FCED3B9F10109B3D118EE100A95
:10B420004A467C2114F0F4FA374B5B68C3F30803F7
:10B4300018EE106A002B40F09784EFF31183002B75
:10B4400040F0928416F040FE8046DFF8BCA0102742
:10B450004FF0E02906E016F037FEA0EB0800B0F54B
:10B460007A7F32D2DAF80430C3F308031BB9EFF362
:10B470001183002BEFD0EFF3118387F31288D9F8F3
:10B4800018E0D9F81020D0034FF0010103D5C4F81B
:10B490009811D9F818E0D5F868B5D4F89821DBB23E
:10B4A00083F31188D4F89CC14FF47A7101FB0CF03E
:10B4B00002EB0B03A0EB0E00B0FBFCF001FB030062
:10B4C000A0EB0800B0F57A7FCCD30022592130469A
:10B4D00014F09EFA0C4B5B68C3F30803002B40F09A
:10B4E0003E84EFF31183002B40F0398416F0ECFD1D
:10B4F0008046DFF814A010274FF0E0290DE000BFD0
:10B50000482B0020501A002000ED00E016F0DCFD72
:10B51000A0EB0800B0F57A7F32D2DAF80430C3F33A
:10B5200008031BB9EFF31183002BEFD0EFF3118366
:10B5300087F31288D9F818E0D9F81020D2034FF019
:10B54000010103D5C4F89811D9F818E0D5F868B509
:10B55000D4F89821DBB283F31188D4F89CC14FF45E
:10B560007A7101FB0CF002EB0B03A0EB0E00B0FBB9
:10B57000FCF001FB0300A0EB0800B0F57A7FCCD310
:10B58000C24AC34F4FF4A4735E21304614F044FB0B
:10B5900008EE106A4FF00A094FF010087B68C3F3F9
:10B5A0000803002B40F0B183EFF31183002B40F030
:10B5B000AC8316F089FD82464FF0E02B06E016F0D2
:10B5C00083FDA0EB0A00B0F57A7F30D27B68C3F32D
:10B5D00008031BB9EFF31183002BF0D0EFF31183B5
:10B5E00088F31288DBF81800DBF8102012F4803F93
:10B5F0004FF001021CBFC4F89821DBF81800D5F801
:10B600006825D4F898C1DBB283F31188D4F89C6123
:10B610004FF47A7101FB06F36244181AB0FBF6F09E
:10B6200001FB0200A0EB0A00B0F57A7FCED3B9F19E
:10B630000109B3D118EE100A0122592114F0E8F9DA
:10B64000934B5B68C3F3080318EE106A002B40F0BD
:10B650008283EFF31183002B40F07D8316F034FDDD
:10B660008046DFF82CA210274FF0E02906E016F004
:10B670002BFDA0EB0800B0F57A7F32D2DAF8043067
:10B68000C3F308031BB9EFF31183002BEFD0EFF3E3
:10B69000118387F31288D9F818E0D9F81020D00365
:10B6A0004FF0010103D5C4F89811D9F818E0D5F886
:10B6B00068B5D4F89821DBB283F31188D4F89CC123
:10B6C0004FF47A7101FB0CF002EB0B03A0EB0E00C0
:10B6D000B0FBFCF001FB0300A0EB0800B0F57A7FA3
:10B6E000CCD3019B032B00F09983AB224021304641
