:020000040800F2
:100000000000012089490608254A0608E125020862
:1000100039240208254A0608254A0608000000007F
:10002000000000000000000000000000254A060853
:10003000254A060800000000254A06081516020891
:10004000254A0608254A0608254A0608254A0608BC
:10005000254A0608254A0608291102083111020816
:10006000391102084111020849110208FDA70008D0
:100070000DA800081DA800082DA800083DA800082C
:1000800051A8000865A80008254A0608254A060860
:10009000254A0608254A0608254A0608511102087D
:1000A0005DC9000849C800086DC9000839C80008C2
:1000B00071C8000881C8000891C80008E5A30008BD
:1000C000D9A3000815A4000809A40008254A0608B9
:1000D000254A0608611502086D15020879150208FF
:1000E00059110208254A0608254A06087DC9000854
:1000F00035C90008254A060825C9000879A800085E
:10010000254A060805E50008A1C80008254A060892
:100110008515020891150208B1C80008F9BF050845
:100120008DA80008A1A80008B5A80008C9A8000863
:10013000DDA8000800000000000000000000000032
:100140000000000000000000000000007DB5050870
:10015000F1A8000805A9000819A900089D150208C2
:1001600049A400083DA40008254A0608254A0608B7
:10017000254A0608254A0608000000000000000085
:10018000254A0608254A0608254A0608254A06087B
:10019000254A0608254A060800000000254A0608E8
:1001A000000000000000000000000000254A0608D2
:1001B000254A0608254A0608000000000000000045
:1001C000000000000000000000000000000000002F
:1001D000000000000000000000000000254A0608A2
:0801E000D444060001000000F8
:1001E8000A90010024000000A81C01200429012015
:1001F8000000000051DA0308002901201402010060
:1002080005000000F42501202C2901200000000031
:10021800C0B50708282901201F02080010000000A7
:100228004C2501203829012000000000C168010880
:10023800342901200610010024000000E41C0120DC
:100248004C29012000000000996701084829012075
:10025800FA010100030000001C4501203044012080
:1002680000000000816701082C440120FF210100E3
:1002780005000000A03401203844012000000000DF
:10028800B16801083444012005300100080000006D
:10029800543F01204444012000000000C8B507086D
:1002A800404401201302010004000000A43C012086
:1002B8005044012000000000D0B507084C4401203C
:1002C800183001003800000024340120584401206F
:1002D80000000000516D0108544401201E02010075
:1002E800060000001834012094440120000000009A
:1002F800D4B50708904401200D1201001400000035
:10030800003C0120A044012000000000DCB50708E3
:100318009C440120031101000A0000008C340120D4
:10032800B844012000000000FD2A0508B44401205B
:10033800123001001000000018330120C8440120C9
:1003480000000000F0B50708C44401200B2201009A
:100358003D0000004C2B0120DC440120000000007F
:1003680000B60708D84401201500100070000000EE
:1003780098760120247D0120000000000000000084
:10038800207D01202A000800600000003876012046
:10039800987D012000000000755D0308947D012010
:1003A80021020100F000000048750120FC7D0120B9
:1003B80000000000F15A0408F87D01202C00040018
:1003C8001000000038750120F07E012000000000B8
:1003D800CD5E0308EC7E012025201E002C010000C4
:1003E8008C730120047F0120000000000000000041
:1003F800007F01202B00120024000000447301201C
:100408003480012000000000E95E030830800120EC
:100418001620010006000000486B01205C800120C6
:100428000000000040B6070858800120270001009E
:10043800040000003C6B01206880012000000000DF
:1004480046B60708648001200C400600E40000005E
:1004580094640120708001200000000075010308E9
:100468006C8001203820010003000000E86A0120A8
:1004780058810120000000004AB607085481012075
:100488002920140078000000A46801206081012060
:1004980000000000000000005C8101200120010034
:1004A8000C00000098680120DC8101200000000099
:1004B8004EB60708D8810120232001001000000053
:1004C80088680120EC810120000000003DDA030863
:1004D800E88101202830010016000000546801203E
:1004E8000082012000000000D5F40308FC810120EF
:1004F8000B3001001A000000386801201C8201201E
:10050800000000005AB60708188201200E400300B8
:10051800B6010000786501203C820120000000003F
:10052800095B0308388201201E0001000900000051
:10053800BC670120F88301200000000074B607089A
:10054800F48301200D1001007000000048670120AD
:1005580008840120000000005535020804840120A9
:10056800220201001C010000C06901207C840120D6
:100578000000000061790108788401201602150046
:100588003F000000DC8501209C8501200000000060
:1005980009690108988501201B020100100000006C
:1005A80030860120208601200000000079680108BB
:1005B8001C8601202802040004000000488601204F
:1005C80044860120000000006D6801084086012073
:1005D80027020400040000005486012050860120F0
:1005E80000000000616801084C8601201C0202001E
:1005F8001C0000006C6801205C86012000000000DF
:10060800996C010858860120010201000B000000C6
:10061800888601207C86012000000000716701089F
:1006280078860120000201000B000000DC6A01202E
:10063800988601200000000069670108948601205F
:100648001A0201003C00000048770120A88601201A
:1006580000000000E56C0108A486012004000800E1
:1006680080000000B8740120E88601200000000026
:1006780000000000E48601201902010010000000BB
:10068800306901206C87012000000000A168010882
:100698006887012008120400140000008C790120EA
:1006A8008087012000000000056701087C87012081
:1006B8000A02010014000000F07901209887012047
:1006C80000000000C1010308948701200312010003
:1006D8003D00000008770120B087012000000000DD
:1006E8007EB60708AC8701200C0201000400000058
:1006F800A0790120F4870120000000008967010823
:10070800F087012013100100040000003468012064
:10071800FC87012000000000BCB60708F88701200C
:100728000202010003000000187D01200488012056
:10073800000000000000000000880120F591010081
:100748006C000000546901200C88012000000000A2
:1007580071CB040808880120F62101000C00000074
:10076800486901207C88012000000000C0B6070805
:10077800788801201212010004000000DCA1012089
:100788008C88012000000000CCB60708888801206A
:100798001102010008000000E0A101209488012056
:1007A80000000000D0B6070890880120340001003E
:1007B80010000000E8A10120A0880120000000002E
:1007C800595D03089C880120F831010006000000EB
:1007D80030670120B488012000000000D8B607085F
:1007E800B0880120020001000C0000001C7A0120E2
:1007F800C08801200000000000000000BC88012023
:10080800FE010100140000001C690120D0880120AD
:1008180000000000ED660108CC88012006120400E3
:1008280018000000D8790120E888012000000000A5
:10083800196C0108E4880120F70101000600000096
:10084800406901200489012000000000DEB6070885
:1008580000890120FC01010009000000F8A1012025
:1008680010890120000000008D6801080C89012012
:10087800FB0101000100000004A2012020890120E1
:1008880000000000996801081C8901201A00010075
:100898000E00000074790120288901200000000062
:1008A800E4B60708248901201400010005000000AF
:1008B800406701203C89012000000000F2B60708CB
:1008C80038890120FD010100240000004E79012033
:1008D800488901200000000013E401084489012030
:1008E8001D020200060000004879012070890120DD
:1008F80000000000000000006C890120F9010100DF
:100908000400000008A201207C89012000000000EA
:10091800CDE30108788901200E02010002000000E1
:1009280018A4012050A4012000000000F8B6070810
:100938004CA401202F1001002200000058A401201F
:10094800D4A3012000000000FAB6070854A401202F
:100958001F500100240000004CA901209CB0012078
:10096800000000001CB7070898B0012026100100FD
:100978000E0000006CA50120C4B00120000000009A
:1009880031C10408C0B001201B2001000C00000088
:1009980044B00120D8B0012000000000354E040802
:1009A800D4B0012010100100020000006CAE01203C
:1009B800E8B001200000000040B70708E4B00120BB
:1009C800FD0701007C000000ACB2012030B401201A
:1009D8000000000041BF04082CB4012001010100FF
:1009E80004000000A8B20120B0B4012000000000FB
:1009F80000000000ACB40120000101000400000068
:100A0800A4B20120B8B401200000000042B70708D2
:100A1800B4B401200201010003000000A0B20120CB
:100A2800C0B401200000000065010308BCB4012027
:100A38002902010040000000E4B30120C8B40120ED
:100A48000000000046B70708C4B401202052010086
:100A58000800000050B201200CB501200000000081
:100A6800415D030808B501202A02010008000000C2
:100A780048B2012018B501200000000086B7070819
:100A880014B50120190001000500000040B2012042
:100A980024B50120000000008EB7070820B501200A
:100AA800371001002A00000010B2012030B50120E3
:100AB8000000000094B707082CB50120232201008C
:100AC8001000000078BB012060BF0120000000007A
:100AD800C0B707085CBF0120030001000100000047
:100AE80050BD012074BF012000000000000000007C
:100AF80070BF012005020100040000002CBC012089
:100B08007CBF012000000000D0B7070878BF012093
:100B18002C0201000400000078B60120A4BF0120C7
:100B280000000000D4B70708A0BF01201002010090
:100B380001000000241902202019022000000000F2
:080B4800D8B707081C190220B0
:08280000082800080040000850
:10800000084A0346D0F8E4005268D3F8F010121A78
:1080100000209142B8BFC3F8F020012283F81C2150
:10802000704700BF001000E090F8DB30052B03D84C
:1080300090F81E31032B01D00020704790F82331B7
:1080400003F0FB03022B0CBF00200720704700BF8A
:1080500030B5FAB18E464FEA014C034600F1C00537
:10806000002419680C3353F8042C43F8084C41EAF7
:108070000C0142EA0E02AB4243F80C1C43F8042CFC
:10808000EFD1D0F8C03043EA0E03C0E93144C0F864
:10809000C03030BD4FEA014E8C46DEE7836930B414
:1080A0005C6999682268096822F0010222601C8AD2
:1080B000CA6822EA0402CA60027D00681F2A06D943
:1080C000203A082144689140214216D0FEE7082159
:1080D000046891402142F9D1202101FA02F2826024
:1080E000204A12783AB11A7F012A0BD1D3F8042121
:1080F0000132C3F8042130BC7047202101FA02F29A
:10810000C260EDE7D3F800210132C3F80021EFF39C
:108110001181502282F312885868C9B29D6C02689E
:10812000DC6C22EA05022243026081F311885A695D
:108130009968D3E90D40096814605061D3E90F4094
:10814000546090605C6CB3F8B400D4600124C862E1
:108150001068204310601A8A1C77CB68134330BC28
:10816000CB607047E401002070B50E4E7368002BA1
:1081700016DD06F10804002503E073682034AB42E5
:108180000EDD237F0135002BF7D0E06800220028A8
:10819000F3D0217D203419F03BF87368AB42F0DC5A
:1081A000012070BDE4010020704700BF024B03EBCB
:1081B000401090F825007047E40100204368426DAC
:1081C00030B49A61EFF31182502383F3128841682F
:1081D000D2B2856C0B68046D23EA050323430B6060
:1081E00082F31188436981681A68096822F00102E4
:1081F000D0E908541A60826A1D605C615A60D0E957
:108200000B429C60DA600023B0F86C2030BCCA627C
:10821000037770474FF4006383817047084A034631
:10822000D0F8E4005268D3F8F010121A00208A4205
:10823000C8BFC3F8F020012283F81C21704700BF9B
:10824000001000E04FF40063838170474FF4006337
:10825000838170474FF4006383817047012380F866
:10826000103170474FF40063838170474FF400630F
:10827000838170474FF4006383817047704701200A
:108280007047012070472DE9F047DFF880810E46E6
:108290000746D8F80050B8F80420B8F80A90C2EBA6
:1082A00025135200C2EBE502B8F906506A4303FBFE
:1082B00003F5B8F908302D135D43B8F90E30AD134E
:1082C0004FEAE37E05EBE225A5F5FA31C8F81C502C
:1082D00081FB010C03FB0CF200FB0E22A3FB003E12
:1082E0009644B8F90C201B0A82FB014243EA0E6354
:1082F000120342EA145224031B194FF0000442EB0C
:108300002E22A3FB093E02F5004209FB02EE4FEAD2
:10831000EE734FEA6E0253EA6E0E6BD0B8F914900A
:108320004FEAE97E09FB0CFC00FB0ECCA9FB009098
:108330008444B8F9120080FB01E148044FEA4E4141
:1083400040EADE3011EB0909D8F820104CEB0000B0
:10835000C1F5801C14EB0904B8F910100CF0004AA8
:1083600040F6354900EBC1014AEA5C0A4FEACC7C91
:10837000BCEB04006AEB010AA0FB090109FB0A112E
:108380005CF01CF9B8F91A404FEA613E8146430B94
:1083900004FB0EF24FEAE47C43EAC14303FB0C2CDE
:1083A000A4FB0342624404FB0EFE03FB02EEB8F999
:1083B0001820A4FB03439E44640E02FB01F344EA2D
:1083C000CE1414EB000C4FEAE274A2FB092941EB36
:1083D0006E6E04FB0031D40CB8F91630494444EAFF
:1083E00041341CEB04044EEBE141240A44EA0164ED
:1083F00004EB03140FB1240A3C6026B105EB85059C
:1084000080352D123560BDE8F08700BF9819012036
:10841000704700BF01207047012070473122F421CE
:1084200058F040BF08B5006858F0FEFED8B90F4AB2
:108430000F4992F8093192F808011B0143EA003311
:1084400092F80A0143EA101392F80B010B6292F8BA
:108450000C3192F80D211B0143EA0033012043EA5D
:1084600012130B6008BD0020FCE700BFE4010020F0
:1084700098190120036810B41A78012A1CD0184CEE
:108480001849012091F8122191F811C191F8153184
:1084900012041B0442EA0C2291F814C143EA0C2393
:1084A00091F810C191F8131142EA0C020B43C4E990
:1084B00069235DF8044B704793F90430084C03EBD3
:1084C000430304EB431393F87920202A03D00020C0
:1084D0005DF8044B70479B6B9B691B04F7D4CFE797
:1084E00098190120E40100202DE9F04FCC4C83B015
:1084F000B4F8AC31D4F8A821B4F8AE61A2EB0322F1
:1085000094F9B0510091A6FB02634FEAE57C9F0409
:10851000A2FB022305FB03F347EA9637B60402FBEE
:108520000C33A5FB0252AD191A4442EB0703002B92
:1085300002DA013D43F10003DF17C4E97237002876
:1085400000F01A8103FB07FCD4F8A451A3FB032617
:1085500006EB4C064FEA921E4FEAA6184EEA866ECC
:108560000EFB07FC03FB08CCAEFB03E81CEB080C7E
:1085700000F150814FEA1E2E4FEA2C214EEA0C6E7C
:1085800094F9B6C101914FEAEC780CFB01FA0EFBAD
:1085900008AAACFB0EC81AEB080A00F136814FEAB4
:1085A0005C1CB4F9B3814CEACA6194F9B5C1A8F571
:1085B00080484FEAEC7B0CFB06F902FB0B99ACFB05
:1085C00002CBD944B4F9B1B14FEA8909ABF5804B7C
:1085D00049EA9C794FEA8B3B4FEA8C0C0BEB6A1A09
:1085E00008FB07FB11EB0C0C4AEB09094FEAE87A90
:1085F00003FB0ABBA8FB038ADA444FEA4A5A4AEA59
:10860000D82A4FEA48581CEB080C49EB0A09B9F183
:10861000000FC0F2F3804FEA1C6B019994F9BCC1C2
:108620004BEA092B0CFB01FA4FEAEC784FEA296977
:108630000EFB08AAACFB0ECE1AEB0E0E00F1D98091
:108640004FEA5C1C4CEACE6894F9BBC14FEAEC7A65
:108650000CFB06F602FB0A66ACFB022CB444B4F831
:10866000B7614FEA0C1AF6034AEA127A120106EBD6
:108670006E1E18EB0202B4F8B981A8FB03C64EEBDC
:108680000A0A08FB07684FEA885646EA9C264FEA22
:108690008C5C12EB0C024AEB060ABAF1000FC0F236
:1086A000A28094F9BFE14FEA920CABFB05864CEA3D
:1086B0008A7C0EFB07F205FB09664FEAEE791CEB9C
:1086C0000808B4F9BDC103FB0922AEFB03E946EB80
:1086D000AA064A444FEA0C491EEB090E42EBEC7C19
:1086E000AEFB05E205FB0C22002A75DB4FEA5E3E7D
:1086F0004EEAC24E5213AEFB05CE05FB02EEBEF1B2
:10870000000F62DB4FEA5C2C94F9C0214CEACE5C8E
:1087100018EB0C0CA5FB054846EB6E264FEAE27EF3
:1087200004FB0EFE02FB08EEA4FB02421EEB020E4F
:1087300045D4220C42EA0E424FEA2E4EA2FB0524FB
:1087400005FB0E4EBEF1000F35DBD20942EA4E6248
:1087500012EB0C0246EBEE16941846EB060EA4182C
:1087600046EB0E0E4FEACE0E4EEA547EE400A418FD
:1087700046EB0E06360C0660009A9AB1DA1847EB03
:108780000700D21847EB0000C00040EA5270D20048
:10879000D31847EB0007002F07DB9B0B009A43EA37
:1087A0008743136003B0BDE8F08F43F6FF729B1858
:1087B00047F10007F1E77F324EF1000EC5E74FF6B3
:1087C000FF72A4184EF1000EB3E740F2FF121CEB4B
:1087D000020C4EF1000E95E741F6FF7C1EEB0C0EED
:1087E00042F1000282E712F1030C62464AF1000AEC
:1087F00057E71CF11F0C4EF1000E21E76FF07F4B85
:108800001CEB0B0C49F1000905E71CF11F0C4AF1A8
:10881000000AC4E61EF1FF0E4CF1000CAAE600BFF0
:10882000981901203B4BDFED3C3A93F8D11193F8B6
:10883000D001090293F8D22193F8D3C101EB004192
:1088400093F8D40193ED786A0A4409024FEA0020B4
:1088500093F8D51148BF02F17F42B8EEC66A00EB2B
:108860000C4007EE902AB3F9EC210144000205EE1A
:10887000902AB3F9E821F8EEE77A48BF01F17F4189
:1088800004EE902AB3F9EA21F8EEE55A07EE101A41
:1088900067EEA37A06EE902AF8EEE44AB3F9E621F1
:1088A000F8EEE66A012005EE102AB3F9E421E7EEBE
:1088B000A54AB8EEC55A04EE102AB8EEC77AB3F945
:1088C000DA21B8EEC44AA7EEA65AD3ED776A27EEAE
:1088D000237A05EE902AA4EEA76AB3F9D821F8EE20
:1088E000E66AF8EEE55A04EE902AF6EE003AE7EE74
:1088F000046AF8EEE44AA5EE076A67EE255AB0EE80
:10890000667AE4EEA35AA7EE867AC3ED7D5A83ED2C
:108910007C7A7047981901200821843630B10A4BBF
:10892000D3ED7C7AFDEEE77AC0ED007A51B1064BCB
:108930009FED067AD3ED7D7A67EE877AFDEEE77AD2
:10894000C1ED007A704700BF981901200000C842AD
:10895000704700BF01207047012070477047704783
:108960000120704730B5002385B0E72105468DF81A
:1089700007300DF107020123154C18F007F89DF898
:10898000073013F003031FD0052302AAE82128466D
:1089900017F0FCFF9DF80A209DF80910130412F04F
:1089A000800F43EA01239DF8081014BF4FF07F4267
:1089B00000220B431343C4F8F831BDF80B300120FB
:1089C000A4F8FC3105B030BDC4F8F831F7E700BFBA
:1089D000981901200B4A642310B5D2F8F84163437B
:1089E00048BF03F6FF731B130360B2F8FC310A2281
:1089F00053433022B3FBF2F303F584531A330B6075
:108A000010BD00BF9819012008B5006858F00CFC93
:108A100078B9094A012092F8193192F818111B020D
:108A200092F81A2143EA01431343044AC2F8003280
:108A300008BD0020FCE700BFE401002098190120D8
:108A400008B5006858F0F0FB78B9094A012092F89F
:108A5000193192F818111B0292F81A2143EA0143C6
:108A60001343044AC2F8043208BD0020FCE700BFEB
:108A7000E4010020981901202DE9F74F544AB2F87B
:108A80001232B2F80E621B02B2F81472CDE9000184
:108A9000D2F80012C91AB2F810326EEB0E0EA3FB18
:108AA000010403FB0E44C009B2F80C3240EA4460F2
:108AB0001B04E411C018A6FB013506FB0E554FEA56
:108AC0001323B2F80A6244F1000443EA0563F60393
:108AD0002D129B19A7FB012607FB0E664FEAD25207
:108AE00045F1000542EA4622F61512F5FA6C46F108
:108AF000000BBCF5FA6F7BF100074CDAA2FB0278A1
:108B00004FF0050A02FB06F908EB4909A7FB0A78B2
:108B10000AFB09884FEA5709BF0849EAC87947EABA
:108B20008877B0EB090064EB6804DB1B294F65EB29
:108B3000A805BC454FF0FF377BEB070720DA40F66E
:108B4000AC57D21946F100065643A2FB027202EB63
:108B50004606FA004FEAC608BA1A48EA577866EBA2
:108B60000808101844EB08044FF00B08A7FB087224
:108B700008FB06267F0847EAC677DB1B65EB660520
:108B800001FB0EFEA1FB011202EB4E0EC90F41EAE2
:108B90004E01BCEB010C009A92B10D4AD2F80412BE
:108BA000A1FB032301FB0535520D009B42EAC522C0
:108BB0006D15121A65EB0404D20B42EA44421A60A6
:108BC000019B0BB1C3F800C003B0BDE8F08F00BF3C
:108BD0009819012024FAFFFF7047012070470120F7
:108BE000704708B5006858F01FFBD8B90E4A0F4906
:108BF00092F81D3192F81C011B0243EA004392F8DF
:108C00001E01034392F81F01C1F8183292F8203177
:108C100092F821211B0243EA004301201343C1F8CB
:108C20001C3208BD0020FCE7E40100209819012057
:108C30002A4BD3F81C2293ED8A6AA2F50002D3EDE9
:108C4000896AD3ED887A07EE102AD3ED8D5AD3EDD9
:108C50008C4AB8EEC77AD3F8182293ED914AA2F560
:108C6000000293ED8F5AE7EE066A93ED8E6AE7EE07
:108C7000267A06EE902A93ED8B7AF8EEE66AE5EE18
:108C8000A74AD3ED905AA4EE275A93ED924AA7EE45
:108C9000A47AD3ED934AA5EE276AE6EEA45AE4EE51
:108CA000275AA5EEA66AA6EE867AB5EE407AF1EED0
:108CB00010FA03D0BDEEC77A80ED007AF5EE407A67
:108CC000F1EE10FA08D0FDEEE77A17EE903A002B9D
:108CD000B8BFFF331B120B60704700BF981901200B
:108CE000134BD0F8D8105B68D0F8E02010B50446DC
:108CF000581A824200DC22B9D4F8E4200A44C4F8AD
:108D0000DC2094F8D020C4F8D830012A05D0D4F85B
:108D1000D4300133C4F8D43010BD04F1E801201D73
:108D200017F082FCD4F8D4300133C4F8D43010BD2D
:108D3000001000E010B5104B04465868D4F8E41059
:108D4000D4F8D83094F8D0200B44C4F8D800012AC5
:108D5000C4F8DC3005D0D4F8D4300133C4F8D430B2
:108D600010BD04F1E801201D17F05EFCD4F8D430EA
:108D70000133C4F8D43010BD001000E070B586692E
:108D80008AB0054696F8DC30012B23D0023B012B3C
:108D90002BD8D6F89C308C22154CEC461A700FCC90
:108DA000ACE80F00D6F89C300093D6F8A0300193C1
:108DB0000FCCACE80F0094E80300AB698CE803002B
:108DC00003F11000694617F02FFCAB691A69136AAA
:108DD000002BFCD1D6F8A030B3F90220EA81B3F918
:108DE00004202A82B3F906306B8201200AB070BDDC
:108DF000F062060810B5044682B0806906236A4610
:108E000090F84C11103017F0CDFD58B1BDF800109E
:108E1000BDF80220BDF8043049BA52BA5BBAE1810C
:108E20002282638202B010BD10B582B0044690F871
:108E30004D1106236A46103017F0B4FD70B1BDF82D
:108E40000010BDF80220BDF8043049BA52BA5BBA2E
:108E5000A4F8D010A4F8D220A4F8D43002B010BDE9
:108E600010B5044682B0806906236A462821103076
:108E700017F098FDBDF80010BDF802200120BDF8E4
:108E80000430E1812282638202B010BD10B582B04D
:108E90000446062322216A46103017F083FDBDF8F0
:108EA0000010BDF802200120BDF80430A4F8D01055
:108EB000A4F8D220A4F8D43002B010BD002307B526
:108EC0000F218DF807300DF10702012317F06AFD1D
:108ED00028B19DF807306C2B14BF0020102003B080
:108EE0005DF804FB00B583B04FF0000C01231121A5
:108EF0000DF1070298388DF807C017F053FD03B045
:108F00005DF804FB8369F0B593F8DC208BB005466F
:108F1000012A27D0023A012A2FD893F84C21EC4697
:108F2000D3F89C1062F07F03154C0B708669D6F85D
:108F3000A0305F1C0FCCACE80F00D6F89C30CDE918
:108F400000370FCCACE80F0094E803008CE8030076
:108F5000694606F1100017F067FBAB6919690A6AE8
:108F6000002AFCD1D3F8A0305A8852BAEA819A88F4
:108F700052BA2A82DB885BBA6B8201200BB0F0BD4B
:108F800018630608F0B590F8DC308BB00446D0F8D2
:108F9000A060012B4BD015D8D0F89C304FF0FF3299
:108FA00005211A605A609A60DA60D0F8E030C0F8A3
:108FB000F010B3F57A7F54D8032380F8DC30012019
:108FC0000BB0F0BD023B012BF9D890F84D31EC46C7
:108FD000D0F89C2063F07F03384D1370D0F8A03098
:108FE0005F1C0FCDACE80F00D4F89C30CDE9003702
:108FF0000FCDACE80F0095E803008CE8030069464C
:1090000004F1100017F010FB2269136A002BFCD149
:10901000738801205BBAA4F8D030B3885BBAA4F897
:10902000D230F3885BBAA4F8D4300BB0F0BD90F81E
:109030004C2190F84D319B1A5B100133DBB236F8AE
:10904000132006EB430653BAA0F8D03073885BBAFE
:10905000A0F8D230B3885BBAA0F8D43001200BB0AE
:10906000F0BD03691A7B2AB35B691BB390F8983093
:1090700003B390F84C310122D0F89C0063F07F03D9
:10908000C4F8A4400E49037094F84D3194F84C0193
:1090900084F800211B1A84F8DC20D4F8A0200733C0
:1090A000C4F804110132D4F89C10C4E93E23C4F87A
:1090B000F41084E7022384F8DC3080E718630608A4
:1090C0000180000870B544F23B33044690F821015A
:1090D000A4F84C3100B970BD18F074F8214605466B
:1090E000A8B126220023C2800D4A41F80C2F1A464F
:1090F00057F036FFAB884FF00042B3FA83F332FAF1
:1091000003F3E8D007490A6813430B6070BD044CB1
:109110000346024641F80C4FBDE8704057F020BFAF
:10912000E18C0008003C01400269C3682DE9F0476A
:1091300012EA03092AD005460E464FF000474FF0C9
:109140000008B9FA89F327FA03F21B3BD24309EA74
:1091500002092A61042B16D8DFE803F0352C231A04
:109160000300B36A002B37D003F1FF3AC6F828801A
:109170001FFA8AFA746A34B1236820465146984728
:109180006468002CF8D1B9F1000FDAD1BDE8F0879E
:109190007068696B036889B29847B9F1000FD0D144
:1091A000F4E7B068A96B036889B29847B9F1000F7A
:1091B000C7D1EBE7F068E96B036889B29847B9F16A
:1091C000000FBED1E2E73069296C036889B2984785
:1091D000B9F1000FB5D1D9E7E96A1FFA81FAC9E7F9
:1091E000836910B5074C04EB8303D3F870024EF08B
:1091F00041FF0021B4F8900257F0B2FF002384F839
:10920000923210BD9819012080699C304EF032BF17
:1092100010B5074C94F894320BB9002010BD18F02B
:1092200057FBD4F89832C01AD0F5FA50F6D5F4E7C7
:109230009819012070B505460C46FFF7E9FF2B6829
:109240005D6808B118F072FB064B002228464921E0
:1092500083F89422224693F89532BDE8704017F0C7
:1092600095BB00BF981901202DE9F0412E4F07EB67
:10927000401898F824300BB9BDE8F08100EB80036A
:109280000E460021044607EB4313450193F82621BF
:1092900083F8261188F80A205CF0F6FF98BB3D445D
:1092A00022482E8100EB44105DF006F83B782A6AD4
:1092B0009BB1E9680124D2F8AC308C4003F1C001C5
:1092C000420010F4004F90B202D15A6822435A6013
:1092D0000C339942F4D1BDE8F081E9680124D2F859
:1092E000AC3001F1100203F1C0019440420010F4CF
:1092F000004F90B202D15A6822435A600C3399420F
:10930000F4D1BDE8F0810A4B93F8FC2202EB420253
:1093100003EBC203234493F8A962002EBFD00123BC
:1093200088F80A30BBE700BFE4010020EC01002010
:109330009819012010B504465CF038F90146204622
:1093400089B2BDE810408FE72DE9F0415CF0C4FF21
:1093500098B31D4ED6F82456002D12DD0024377820
:1093600006F5C660A046013417B1037F012B1FD05C
:109370004269AC4200F58670136843F00103136044
:10938000F1D118F0A5FAD6F82C46C6F82806002C1C
:109390000CDD0E4B03EBC4041968083333F8042CBE
:1093A000C868A34242EA0002CA60F5D1BDE8F08174
:1093B00080F8FC80FEF702FFDAE756F0E7FE0028AF
:1093C000C7D1BDE8F08100BFE4010020440C0020BB
:1093D0002DE9F84F444C2378EBB9D4F82436002B10
:1093E00016DD0026414831464769D0F8AC303D686B
:1093F00003F1C00225F001053D6059600C33934232
:10940000FBD10136D4F8243600F58670B342EBDC8C
:109410000120BDE8F88F364BDFF8E480D3F800B3C5
:1094200018F056FA58F8B03CD4F828261433801AAD
:10943000B0EB430F55DBA8F1AC0A04F1080608F5C0
:109440000D7700256368AB42C7DDB3694FF6FF793E
:109450002849D3F814C07268D3E93D0E5FFA8CF343
:109460002CF0FF0C103BA1FB031323491B09CB5C21
:109470009C44DCF804309BB2AEEB03015CF0F0FEE0
:109480004FF6FE7398421AD0D8F83C32484503F1A3
:109490000103C8F83C321AD00123032DB881BB73F5
:1094A00004DC134B93F804332D2B16D04FF6FF71C9
:1094B0005A46411A504618BF012116F069F9013584
:1094C0000AF15C0A20360437082DBBD185E7D8F8AD
:1094D00038320133C8F83832E8E7084B23F8150072
:1094E000E4E70020BDE8F88FE40100201408002024
:1094F00098190120ABAAAAAABCE90608A01C012061
:10950000DC120020F8B5054600F11004FFF7DAFD83
:1095100095F8D830072B5BD195F81D310226002B2A
:1095200058D1374680226B21204617F0D7F86420A7
:1095300018F09AFB07226821204617F0CFF8642024
:1095400018F092FB00226B21204617F0C7F8642028
:1095500018F08AFB01226B21204617F0BFF80F207C
:1095600018F082FB1B21FA00204617F0B7F80F20F5
:1095700018F07AFB1C21F200204617F0AFF80F20FC
:1095800018F072FB2846FEF74FFD1A2102462046CE
:1095900017F0A4F80F2018F067FB95F82021192187
:1095A000204617F09BF8642018F05EFB102237214C
:1095B000204617F093F80F2018F056FB20460122A2
:1095C000382117F08BF80F20BDE8F84018F04CBB9D
:1095D0000326A6E70327A5E72DE9F341144698469D
:1095E0000DF10702012306460F4617F0DBF988B19B
:1095F000022018F09BF99DF807503946304625EABD
:10960000040444EA08028DF8072017F067F8089868
:1096100018F02AFB02B0BDE8F081642373B500F1B5
:109620001004009301230546122120461A46012604
:10963000FFF7D2FF02220D21204617F04FF801203C
:1096400018F012FB02220E21204617F047F80120E5
:1096500018F00AFB74221021204617F03FF8012071
:1096600018F002FBAC221121204617F037F8012038
:1096700018F0FAFA44237C22122120460096FFF7C4
:10968000ABFF0623132120461A460096FFF7A4FFDE
:1096900000231722152120460096FFF79DFF022385
:1096A000204618211A460096FFF796FF95F82101EB
:1096B00088B117F087FD044608B12623C3802946E8
:1096C000084B204641F80C3F00231A4657F048FC4F
:1096D000204617F019FD044816F0B4F8A88202B02D
:1096E00070BD00BF5D820008809698007B22F42147
:1096F00016F0F4BF836810B5044682B01BB19A8897
:10970000196812048A61012018F0AEFAA36813B137
:109710001A689B8893610A2018F0A6FA2368002033
:109720001B6AADF804005BB92046022301AA802120
:1097300017F006F99DF80530242B14BF00200F20E8
:1097400002B010BDF0B590F81E318DB00546032B68
:1097500055D090F8DC30D0F8A060012B00F090805C
:1097600016D8D0F89C30002205211A605A609A6001
:109770009A81D0F8E030C0F8F010B3F57A7F00F2AB
:109780008F800323012480F8DC3020460DB0F0BD2B
:10979000023B012B2FD8D0F89C309222544F0DF170
:1097A000080C1A70D0F8A0400FCFACE80F000FCF14
:1097B000ACE80F0097E80300D5F89C308CE8030074
:1097C00002A905F11000CDE9023416F02DFF2A6937
:1097D000136A002BFCD1B6F902300124A5F8D03071
:1097E0002046B6F90430A5F8D230B6F90630A5F80F
:1097F000D4300DB0F0BD012420460DB0F0BD3D4E7B
:1098000000230122103006F10C010B938DF8142077
:109810008DF828200190CDE90633CDE908330A23DD
:10982000CDE9026102A9049316F0FEFE2A690198AF
:10983000146A002CFCD1F289052A18DD338AB6F9A6
:109840001240B6F9141014F5004F08BFB3F5004FDD
:10985000376914BF0123002311F5004418BF012408
:109860001C4303D0C5F8D070A5F8D410063A002ADE
:10987000C2D0B0227E2116F009FF20460DB0F0BD07
:10988000B6F908201C46A0F8D020B6F90A30A0F896
:10989000D230B6F90C30A0F8D43020460DB0F0BD6F
:1098A00003691A7BF2B15B69E3B190F89840CCB1DF
:1098B000D0F89C1001230E228C20C5F8A45008700B
:1098C0000D49C5F8FC2085F80031D5F89C2085F8B5
:1098D000DC30D5F8A030C5F80411C5F8F420C5F87F
:1098E000F83089E70223012485F8DC3084E700BFE3
:1098F000F0620608000000201D82000838B5054609
:1099000000F11004194815F09DFFA8822846FFF7C2
:10991000D9FB01226B21204616F0B8FE782018F002
:1099200005F8204618221B2116F0B0FE204618220A
:109930001C2116F0ABFE2846FEF776FB1A210246E4
:10994000204616F0A3FE95F820212046192116F096
:109950009DFE20461022372116F098FE2046012257
:109960003821BDE8384016F091BE00BF00127A00E1
:1099700038B500F110050446FFF7A4FB03226B2164
:10998000284616F083FE0F2017F0D0FF10226A2120
:10999000284616F07BFE0F2017F0C8FF00226C212E
:1099A000284616F073FE0F2017F0C0FF94F8202110
:1099B0001921284616F06AFE0F2017F0B7FF18226B
:1099C0001B21284616F062FE0F2017F0AFFF182269
:1099D0001C21284616F05AFE0F2017F0A7FF102270
:1099E0003721284616F052FE0F2017F09FFF012264
:1099F0003821284616F04AFE0F2017F097FF204620
:109A0000FEF712FB1A210246284616F03FFE0120FF
:109A100017F08CFF0A4815F015FFA0822046FFF7CB
:109A200003FA94F9D230013308D194F9D0300133DC
:109A300004D10620BDE8384018F030BA38BD00BF68
:109A4000002D310110B50446FFF75CFD10226A219C
:109A5000A01816F01BFE642018F006F9044815F053
:109A6000F1FEA0820120BDE8104017F05FBF00BFEB
:109A7000002D3101F8B500F11004B6227E21054613
:109A800090F81E61204616F001FE642018F0ECF8F4
:109A9000AB691BB11A689B881B049361012018F005
:109AA000E3F8AB6913B11A689B8893610A209B4F56
:109AB00018F0DAF800227C21204616F0E7FD01209C
:109AC00018F0D2F800225921204616F0DFFD0120BF
:109AD00018F0CAF84FF4A47307F1D0025E212046B3
:109AE00017F0ECF90A2018F0BFF80122204659219E
:109AF00016F0CCFD012018F0B7F8032E00F082809C
:109B0000AB2240212046864E16F0C0FD012018F001
:109B1000ABF803224121204616F0B8FD012018F0D1
:109B2000A3F896F81133013BDBB2022B60D9CD22AA
:109B30004221204616F0AAFD012018F095F80822CF
:109B40004321204616F0A2FD012018F08DF80422D2
:109B50005821204616F09AFD012018F085F80A22B7
:109B60005321204616F092FD012018F07DF80222C4
:109B70007C21204616F08AFD012018F075F8204659
:109B80000E227D2116F082FD012018F06DF895F867
:109B90002101D8B117F016FB0446002800F0B4806C
:109BA00026232946C3805F4B41F80C3F00231A4609
:109BB00057F0D6F9A3884FF00042B3FA83F332FA94
:109BC00003F303D058490A6813430B60D6F83433C3
:109BD00056499A08B1EB930F4FF0020306D2520890
:109BE0005B008A429BB201D9FF2BF8D9AB82F8BD4A
:109BF0003B44422193F81822120162F0320202F033
:109C0000FD0296E700224821204616F03FFD012084
:109C100018F02AF880224921204616F037FD01204D
:109C200018F022F800224521204616F02FFD0120D1
:109C300018F01AF806224621204616F027FD0120CA
:109C400018F012F800224721204616F01FFD0120CF
:109C500018F00AF8AB224021204616F017FD01202B
:109C600018F002F83246412120462D4E16F00EFD26
:109C7000012017F0F9FF96F81133013BDBB2022BFC
:109C80003FD83B44422193F81822120162F032027D
:109C900002F0FD02204616F0F9FC012017F0E4FF67
:109CA00008224321204616F0F1FC012017F0DCFFCA
:109CB00002225821204616F0E9FC012017F0D4FFBB
:109CC0000A225321204616F0E1FC012017F0CCFFB8
:109CD00002227C21204616F0D9FC012017F0C4FF97
:109CE0000E227D21204616F0D1FC012017F0BCFF8A
:109CF0002046B0227E2116F0C9FC012017F0B4FFE7
:109D000045E7CD224221C5E7064B2946024641F8E8
:109D10000C3F034657F024F958E700BFF0620608ED
:109D200098190120358D0008003C0140809698006C
:109D300038B5802205466B2116F0A8FC642017F088
:109D400093FFF521284617F0DFF8AC2818D005D886
:109D5000122817D0982817D000240FE0AF28FBD185
:109D6000092410226A21284616F090FC2846032276
:109D7000682116F08BFC642017F076FF204638BD72
:109D80000724EEE70824ECE70B24EAE738B51524AE
:109D900000224E21054616F079FC962017F064FF4C
:109DA000F521284617F0B0F8422807D0472807D0F9
:109DB000013C14F0FF04F0D1204638BD0C24FBE731
:109DC0000D24F9E737B5054600F11004354815F0C4
:109DD00039FDA8822846FFF775F942F21F530F227A
:109DE0004E21A5F84C31204616F050FC0F2017F0FC
:109DF0003BFF95F8DB30002B4ED095F82021013247
:109E0000D3B20822B2FBF3F2082AD3B240D0042A1C
:109E100040D0022B02D0012B3ED10323224A02EB79
:109E2000430393F81C2202F00F024F2120460192B7
:109E300016F02CFC0F2017F017FF019A5021204636
:109E400016F024FC0F2017F00FFF2046EE225221BF
:109E500016F01CFC20460322142116F017FC2046A5
:109E60000022632116F012FC08222046652116F01C
:109E70000DFCE421204617F047F800F0EF006421C4
:109E800040F06002204603B0BDE8304016F0FEBB53
:109E90000023C3E70123C1E70023062285F8DB3056
:109EA000C1E700BF00366E01F062060838B58022B7
:109EB00004466B2116F0EAFB642017F0D5FEF5216D
:109EC000204617F021F80546012017F02FFD682DD8
:109ED0001BD18C21204617F017F818280DD814280C
:109EE00034BF0025032520460722682116F0CEFB4B
:109EF000642017F0B9FE284638BDA0F15403DBB248
:109F0000072B34BF03250025EDE70025F3E7F521F6
:109F100008B516F0F9FF702818D008D8422817D0D5
:109F2000472817D0122814BF0020082008BDAC28ED
:109F300012D006D800F0FD00712814BF00200620C2
:109F4000F4E7AF2814BF00200920EFE70520EDE774
:109F50000C20EBE70D20E9E70720E7E710B5044602
:109F6000006857F061F938B920460623034AF72103
:109F700059F08AFF012010BD0020FCE7EC02002010
:109F800008B503681A78012A06D006230B4A042173
:109F900059F07AFF012008BD93F90430084A03EB19
:109FA000430302EB431393F87920202A01D00020C9
:109FB00008BD9B6B9B691B04F9D4E6E7F402002003
:109FC0009819012008B503681A78012A06D00623DB
:109FD0000B4A002159F058FF012008BD93F90430C5
:109FE000084A03EB430302EB431393F87920202A3A
:109FF00001D0002008BD9B6B9B691B04F9D4E6E7E8
:10A00000681B01209819012010B50446006857F01C
:10A010000BF9014690B923681A78022A08D1196A07
:10A0200021B90323064A204616F08AFC012006E0E7
:10A030000323034A204659F027FFF7E7002010BD0D
:10A04000FC020020E0E710B50446006857F0ECF889
:10A0500038B920460623044AF72159F015FF01209C
:10A0600010BD0020FCE700BF00030020016803468C
:10A070000A78012A04D0022A01D10B6A63B1704721
:10A0800007484FF0130C19791B2280F838C31B685E
:10A0900093F9040056F0E2BF13221B2116F0F6BA22
:10A0A00098190120582157F0D9B8482157F0D6B84F
:10A0B000BFF34F8F0549064BCA6802F4E0621343B1
:10A0C000CB60BFF34F8F00BFFDE700BF00ED00E0A6
:10A0D0000400FA05014B53F8200070475028004057
:10A0E00002692DE9F043177885B004460D46012F2B
:10A0F00018D10B794FF0000900F11008013B8DF8E1
:10A10000059013710DF105024B7975214B4508BF80
:10A11000682303753B46404616F044FC064600287B
:10A120003ED1226902231370EB7823B90026304612
:10A1300005B0BDE8F08304F11007A978384615F0A2
:10A14000A1FB06460028F1D0E87817F03BF8A061A3
:10A150002B780133DBB210B1C371222383710D213F
:10A1600017F09CF8A06915F087FB464AD2F8003337
:10A17000632BFBD9444815F065FBDFF81481434B92
:10A18000A08202E058F8043B5BB338469847034688
:10A190000028F7D0206984F8D83059F061FEC6E76E
:10A1A000206959F05DFE3B4649460DF106024046E6
:10A1B00016F0F8FB9DF8063003F07E03682B8DF84F
:10A1C000063000D1A0B99DF8053003F07E03682B5E
:10A1D0008DF805300FD0702BA9D1042384F8D83026
:10A1E000A5E7E8781E4616F0EDFF17F077F89EE732
:10A1F00084F8D8709BE7062302224046194684F86B
:10A20000D82002AA16F0CEFB9DF80D309DF80B2049
:10A210009B00520003F0040302F0020213439DF876
:10A22000092002F0010243EA020113430CD058B1A5
:10A23000012B1FD0022B03D001F0030103291DD1F4
:10A24000012384F8D93072E70DF10702012340465B
:10A250000C2116F0A7FB80F001009DF80720C0B28A
:10A2600002F00F0250B9B2FA82F35B0932B1042A4C
:10A27000E6D1E6E7002384F8D93058E7032017F049
:10A280000DFE54E79819012040420F00AD9E0008D2
:10A290001865060830B490F8443000F10801474AC8
:10A2A000012BC2F83C136ED083684549DC68454DEC
:10A2B00024F46004AB42DC60DC6844F46004DC60DD
:10A2C0009C6B24F440149C639C6B44F480149C634A
:10A2D0009C6B24F4F8449C639C6B44F488449C631A
:10A2E0009C6824F470249C609C689C609C6824F4A6
:10A2F00040149C609C689C605C6824F480645C6092
:10A300005C6824F480545C605C6901EA0401596172
:10A310005969596145D0DC68294924F0E064DC6062
:10A32000DC6844F0E064DC609C6B24F440149C63C3
:10A330009C6B44F480149C639C6B24F478249C6391
:10A340009C6B44F410249C639C6824F470249C60EF
:10A350009C689C609C6824F440149C609C689C6091
:10A360005C6824F480645C605C6824F480545C6005
:10A370009C692140134C9961A3429969996116D057
:10A38000002380F844301048104B848DC18D408DDF
:10A39000091B93FBF1F3C2E9D004C2F8483330BC87
:10A3A00070470B4C616841F400016160B3E70849F4
:10A3B0004B6843F400034B60E2E700BF98190120AB
:10A3C00000F0FFFF00200140007AF01F80380100FC
:10A3D00000230140704700BF01484EF05BB800BF4A
:10A3E000D0190120074810B4836BC46E99691A68AC
:10A3F00024B1234638305DF8044B18475DF8044B10
:10A40000704700BF9819012001484EF043B800BFC3
:10A41000301A0120084810B4D0F89830D0F8CC4059
:10A4200099691A6824B1234698305DF8044B18479F
:10A430005DF8044B704700BF9819012001484EF0A9
:10A4400029B800BF901A0120084810B4D0F8F8309D
:10A45000D0F82C4199691A6824B12346F8305DF888
:10A46000044B18475DF8044B704700BF9819012052
:10A470002DE9F84FD44F6023044603FB00735D6A57
:10A48000002D00F09C81DE6A1EB1B379002B40F0F4
:10A490009681602303FB0473D3F83090B9F1000F69
:10A4A00004D099F80630002B40F08981631CDBB2A0
:10A4B00016B11522F371B271B9F1000F04D0162252
:10A4C00089F8073089F80620287C4FF0090856F0F3
:10A4D0005BFA304615F0D0F9484615F0CDF9112158
:10A4E000304616F0DBFE1121484616F0D7FE4FF03D
:10A4F000330A02E00A2017F019FA304616F030FE4F
:10A5000010B9BAF1010AF5D1304615F0AFF90520BE
:10A5100017F00CFA304615F0AFF9052017F006FADF
:10A52000B8F10108E3D130464FF0600B15F09EF909
:10A53000052017F0FBF9484615F098F90BFB04FBD2
:10A54000052017F0F3F9304615F096F907EB0B0AE2
:10A55000052017F0EBF9484615F08EF99AF83430DB
:10A5600030460422002B994E14BF3E211E2116F0C6
:10A5700075FE9AF834305E444846002B4FF00402D2
:10A58000C14614BF3E211E2116F068FE4C224146F2
:10A5900030465BF0F7FCDAF824309FED8D7AB0EEB0
:10A5A000084A5B68F7EE003ABAF836B0CAF83830B5
:10A5B000884B9FED895A9A68884BC2F382221344D4
:10A5C00093F84022D7F83433D34007EE903AF8EEB0
:10A5D000677AC7EE275A07EE90BA9FED817AF8EEB8
:10A5E000E77AC7EE274ADFED7F7AB0EE007AE5EE34
:10A5F000877AA5EE875A25EE844A37EE856A74EE8F
:10A60000E72ABBF5C87F40F2145309F1010ED7BF0A
:10A610001946322364234FF49670C8BF782007EEA2
:10A6200090EAD4BF4FF4167C4FF4827C0344B8EE1A
:10A63000E77AC8BF4FF4FA7107EE903A27EE257A11
:10A6400001EB0C03F8EEE76A86EE873A73EE636A75
:10A65000FCEEE67A17EE902A07EE90CAB8EEE73ADB
:10A6600007EE903AF8EEE77A23EE243AC3EE276A33
:10A6700036EEC53A72EEE66AC3EE077A77EEE37A13
:10A68000FCEEE77A17EE901AC6EE877A77EEE37A59
:10A69000FCEEE77A17EE903A03F1020C0CEB010A9C
:10A6A000F0EE466A07EE90AAF8EE677AE7EE276AC0
:10A6B000F4EEE64AF1EE10FA00F383805FFA82FCD2
:10A6C000BCF10F0F00F29480323807EE900AF8EEDA
:10A6D000E77A77EEC47AC7EE876AFCEEE67A17EE81
:10A6E00090CA5FFA8CF00F2800F2828088B2FF28AF
:10A6F0007ED898B2FF287BD840EA097310054FEA4C
:10A700000C4200F07F6002F47F0203431343364A99
:10A7100002EA012143EA01086020012300FB0474DE
:10A7200000273046C4F83C80C4E91073C4E91277AE
:10A73000C4E9157758F034FF94F87930202BD9B25A
:10A7400019D194F87830012B15D0242384F879306E
:10A75000A36B1A6822F001021A601A6822F4805270
:10A760001A601A681A601A6842F001021A6084F8C6
:10A77000791084F87870002195F9120056F0C0FB2A
:10A7800095F91230AA7C002B07DB02F01F01012291
:10A790005B098A40154941F82320002195F91100F1
:10A7A00056F0AEFB95F911306A7C002B07DB02F006
:10A7B0001F0101225B098A400C4941F82320BDE8B2
:10A7C000F88F01316AE700BF98190120D0190120E4
:10A7D000286B6E4E0038024000001643F0620608F7
:10A7E000002474490000704200FFFF0000E100E017
:10A7F000BEF10F0F90D0F14603E700BF0248036996
:10A8000003B11847704700BF000001200248436BA6
:10A810000BB1243018477047000001200248836DB7
:10A820000BB1483018477047000001200248C36F41
:10A830000BB16C3018477047000001200348D0F876
:10A84000A0300BB190301847704700BF00000120C6
:10A850000348D0F8C4300BB1B4301847704700BF7C
:10A86000000001200348D0F8E8300BB1D830184779
:10A87000704700BF000001200348D0F80C310BB135
:10A88000FC301847704700BF000001200348D0F893
:10A89000303113B100F59070184770470000012067
:10A8A0000348D0F8543113B100F5A270184770472F
:10A8B000000001200348D0F8783113B100F5B470DE
:10A8C00018477047000001200348D0F89C3113B1AD
:10A8D00000F5C67018477047000001200348D0F803
:10A8E000C03113B100F5D87018477047000001203F
:10A8F0000348D0F8E43113B100F5EA701847704707
:10A90000000001200348D0F8083213B100F5FC70B4
:10A9100018477047000001200348D0F82C3213B1CB
:10A9200000F5077018477047000001200138064AFB
:10A93000064B00EBC00052F8200098420CBF952057
:10A94000962056F021B800BF0000012000600240B0
:10A95000013800EBC000F8B54FEA800C104C1D46E2
:10A96000104B54F80C00174664440E4698420CBF36
:10A970009520962056F008F894F91500B90926613B
:10A98000A56156F0BDFA94F91530002B07DB03F0F2
:10A990001F0001225B090449824041F82320F8BDD1
:10A9A000000001200060024000E100E0B54B2DE90D
:10A9B000F04F97B093F85D83B34B0025B34F0093EE
:10A9C000B34BA3F5F26ADFF8DC92DFF8DCB24E4657
:10A9D000B30AA3F58013522B55D8534493F8483249
:10A9E0000D2B50D8B8F1010FFC5640F02D81012CF1
:10A9F0003FD14FF000094946204617F085FB17F07C
:10AA00000BFC90F800C0BCF1000F18BFBCF1540F54
:10AA100014BF4FF0010C4FF0000C40F0118109F110
:10AA200004091FFA89F9B9F1100FE4D1002D00F0E3
:10AA3000CA80954A00210DE0534493F848320D2B0B
:10AA40000FD8FB56A3420FD0013102F58672A942FE
:10AA500080F2B580906803689B0AA3F58013522B9F
:10AA6000EAD90023A342EFD143799BF8050098422D
:10AA7000EAD1874B5B4513D05BF8206FB30AA3F58F
:10AA80008013522BA9D9B8F1010FF2D00123002471
:10AA9000B8F1020FADD1002BABD07D4B5B45EBD1B4
:10AAA000009B013503F58673042D00938BD1794B00
:10AAB0004FF00108DFF8F4B1009303F57C73ABF1BC
:10AAC000080A059308F1FF33DAF804209A4273DD8F
:10AAD000DBF80C60002E00F0EA833168B78801F1E2
:10AAE0003F41B7FA87F701F57E01C7F11F07890AD1
:10AAF000DAF82456002D40F3DD80634B002405E096
:10AB0000013403F58673AC4200F0D2801A688A42A1
:10AB1000F6D14FF486735C4ACBF8047003FB04242F
:10AB20005FFA88F3CBF8184016B1F3710323B371C1
:10AB30007B000322012102FA03F0A26C01FA03F365
:10AB40000243A264226D134323659AF80030002B60
:10AB50007FD0636D01FA07F73B43636596B13368B5
:10AB6000B2889A61474B3046002293F8721349012C
:10AB700041F0090101F0E90116F04AFB9AF80030B2
:10AB8000002B77D0B9B20122D4F8AC00FDF760FAFF
:10AB9000204608F10108FDF711FB0123009AB8F1E6
:10ABA000090F8BF81C300BF1200B0BF8033C53748E
:10ABB00002F11803009385D117B0BDE8F08FBCF106
:10ABC000000F7FF456AF584616F062FA9BF8054026
:10ABD000C3B2022B00F27383431C2F4A5BB203EB18
:10ABE000430398002D4B03F5727104E0994200F085
:10ABF000668353F82C2FB242F8D11A79A242F5D1CC
:10AC00001A58002AF2D094460023254A516801338D
:10AC1000614512D0102B02F12402F7D14FF0FF331F
:10AC200003EBC3031E4A02EB83031B7F002B7FF45D
:10AC300020AF009BC3F808B032E7DBB2013BEFE77F
:10AC4000002D7FF4F6AE14E7B4F1080318BF01231A
:10AC50001EE707F1100301FA03F2636D1343636506
:10AC600036B1B38801FA07F732681B04936179E7BC
:10AC700001FA07F7B9B20022D4F8AC00FDF7E8F901
:10AC800086E700BF9819012014080020ACE90608E7
:10AC9000806A0608D4150020000001408C65060873
:10ACA000000001200004014080690608EC0100203A
:10ACB000032C6CDC4FF4867303FB05A3D3F8380632
:10ACC000002800F0EA82C3F830160131CAB283F8D6
:10ACD00039270292542283F838276B1C0268CAF87D
:10ACE00024364479019216F0D3F9A84B864693F89E
:10ACF000713303939BF810300493C3B2022B00F21C
:10AD0000DE8200F1010CA249A24800234FFA8CFC1C
:10AD1000019A0CEB4C0C4FEA8C0C05E00133172B1D
:10AD200000F0CD8251F82C0F8242F7D10879A04271
:10AD3000F4D151F80C000028F0D02C210EEB4E0E6F
:10AD4000DFF8589201FB03F393494C4603EB8E0363
:10AD50000B44D3F8AC124FF4867303FB05A3C3F87E
:10AD600048160021C3F84406636898421ED001319A
:10AD700024341029F8D1894B13F8083C5BB9874A71
:10AD80005423029902F8083C02F8071C03E003234D
:10AD90007E4A82F87033824B82488349834AC3E9F2
:10ADA000B710C3F8E82217B0BDE8F08F4B1C7B4901
:10ADB000DBB2013B03EBC30301EB8303197F069175
:10ADC0000029E8D1029959774FF4867101FB05F00B
:10ADD0008C210446542018772046A310744C02900E
:10ADE000504404FB03F33468C0F82817C0F8344615
:10ADF00003FB01F1059C03EB430304EB410103EB6F
:10AE00000313C0F824176B4901EB8303C0F8DC3649
:10AE10003323C0F8E036684B02981C185B4BD3F81C
:10AE20003413039B062B00F03382072BDFF898C105
:10AE3000624B634814BF4FF0710C1846614B04BF5E
:10AE400063464FF01C0CB1FBF3F3B1FBF0F1013B97
:10AE5000104601399AB24FF4867303FB05A3A3F899
:10AE6000E416A3F89C260193029B2266002203F1BC
:10AE70005801514BA4F8582062661944E265484ACB
:10AE800042F8B0CC58F024F8019BD3F8382610686B
:10AE90000192036843F08003036053790C2B08D8B8
:10AEA000DFE803F06C070707640707075B0707077E
:10AEB00052004FF4867303FB05A3D3F83C164FF002
:10AEC000600C026800234FF0020ECDF838C04FF43A
:10AED000807C22F001021093CDF850C04FF0010C9D
:10AEE0001393CDF83CC04FF00A0C1593CDE911CE69
:10AEF00002600EAA57F0AAFE4FF48672019B02FB75
:10AF000005A2D2F83C161A680023012900F08881B6
:10AF1000042900F08581102900F0C481402900F047
:10AF20007F81B1F5807F51D0B1F5806F4ED0B1F502
:10AF3000805F00F0C081B1F5803F4FF03C030CBF53
:10AF400008214FF4006143E04FF486734FF48051C1
:10AF500003FB05A3C3F83C16B1E74FF486734FF427
:10AF6000807103FB05A3C3F83C16A8E74FF4867372
:10AF7000102103FB05A3C3F83C16A0E74FF486732A
:10AF8000012103FB05A3C3F83C1698E7981901209B
:10AF90008C65060800000140F062060800000120F0
:10AFA000DC120020EDE30108E9E30108F5E3010804
:10AFB0006B4CA407941600201408002010552200A2
:10AFC00044950800D0DD060040771B0008210423CB
:10AFD00002F1180050F803C041EA0C01C150019B76
:10AFE0001879002840F025814FF48672002302FB77
:10AFF00005A2D2F83806D2F844160068026842F07A
:10B0000001020260D9F804200133914200F00D8161
:10B01000102B09F12409F5D14FF0FF33AB4A03EBB4
:10B02000C30352F82300AA4B98420CBF95209620E8
:10B0300055F0AAFC4FF4867303FB05A3D3F838261A
:10B0400053790C2B00F2EE80A24901EB4303B3F8D5
:10B05000B8C74FF4867310689F4903FB05A3A3F894
:10B0600040C6002306E0904200F01F810133042B0C
:10B0700000F0288151F83320002AF4D1DAF82C2688
:10B080000132CAF82C260AEBC302DB00C2F8600AC0
:10B090001944069823469022B1F804E0DFF8509254
:10B0A0004CEA0E0CA1F804C08C49FFF751FC606912
:10B0B0004FF486734FF4804C03FB05A5036843F0FF
:10B0C00010030360036843F0140303600023C4E922
:10B0D0001F33C4E92833C4F8A8300423D5F8482620
:10B0E000C4F89C304FF48063C4F894204FF440328D
:10B0F000C4F88430C4F898204022A267D5F8E0262E
:10B10000C4F89020C2B2D5F8341620F0FF00103AEF
:10B1100018312167A9FB0231029B4FF480520909C3
:10B12000C4F8882003F170026D4B1A44D5F8DC3660
:10B13000C4F88CC0636758F003F8D5F84406029B46
:10B140004FF40031D0F800E04FF4006C03F1B80286
:10B15000634BC4F820E0D0F814E01A440023C4F88C
:10B1600024E0D0F804E0C4F828E0D0F808E0C4F8FF
:10B170002CE0D0F80CE0C4F8C830C4F830E0C4F8D3
:10B18000F030C4E93033C4E93A33D5F84836019396
:10B190000423C4F8E4304FF48063C4F8CC30019B3E
:10B1A000C4E93731D5F82837C4F8D830C3B220F015
:10B1B000FF00103BA9FB0331D5F83436C4F8D0C0EA
:10B1C00010330909C4F8B830D5F8243701934FF487
:10B1D0008043C4F8D430019BC4F8BC3057F0B0FFB2
:10B1E000D5F844265FFA88F3116861635169A16359
:10B1F0005168E16391682164D1686164116841F02C
:10B2000010011160116841F014011160049ACBF82B
:10B2100004708BF81020CBF80C60CBF8184084E455
:10B220000821D5E64FF0000C13E7DBB20693013B93
:10B23000F4E6039215F0C6FF039A20B30268254B8B
:10B2400002F13F42079002F57E0203EB9222019B3E
:10B2500092F8B0071A7A039255F096FB079B039A6F
:10B2600099880D92002218680C92089108A90393FE
:10B27000CDE90A220222099257F0AEFE5422039B26
:10B28000DA80019B1A68536C43F400435364ABE6C5
:10B2900014484FF0380C144BD5E50223134A82F8BA
:10B2A000703378E54FF4006192E6DB00F0E64FF092
:10B2B000FF3739461CE44FF40061042388E600237D
:10B2C0005B68FFDE00239B88FFDE00BF00000120DB
:10B2D00000600240F0620608440C00209D800008D7
:10B2E00014080020882A1100A0BB0D009819012025
:10B2F000ABAAAAAA2DE9F041834DC0EB001605EBDD
:10B30000C606D6F87433002B00F0BC800446070153
:10B3100096F8E40355F038FB96F8E433012203F085
:10B320001F015B09013B8A40032B0AD8DFE813F0B9
:10B33000E0000400E600DA0074494B6A23EA0202E6
:10B340004A623B1B04F1010805EBC3035FFA88F86E
:10B3500093F8780315F036FF18B1122380F80780B0
:10B3600083713B1B05EBC30393F8790315F02AFFA8
:10B37000064618B1132380F8078083713B1B05EB49
:10B38000C30393F87A0315F01DFF18B1142380F856
:10B39000078083713C1B2E21304605EBC40494F8D2
:10B3A0007C2315F05BFF94F87A0315F00BFF94F8FB
:10B3B0007D230E2115F052FF94F8780315F002FF5B
:10B3C00094F87B232E2115F049FFD4F874335049AB
:10B3D0001A688B4222F040021A6055D04D4A9342BF
:10B3E00069D002F58062934258D1484A116A41F40B
:10B3F00000411162116A21F4004111625A6842F45D
:10B4000080525A601A68520634D443491E68D1F8F3
:10B410005442D1F86002D1E99025B0F5005F42EACC
:10B420000502D1F84C5242EA0502D1F8505242EAE4
:10B430000502D1F8585242EA040242EA0502D1F864
:10B440005C5242EA0502354D42EA000205EA060571
:10B4500042EA05021A60D1F848225D6842EA1442C5
:10B460002F4C04EA050442EA04025A6002D1B1F802
:10B4700064221A61DA6922F40062DA611A6842F021
:10B4800040021A60BDE8F081204A516A41F48051BF
:10B490005162516A21F480515162AFE7214A9342CF
:10B4A00013D11A4A516A41F400515162516A21F490
:10B4B00000515162A2E7154A116A41F480411162BC
:10B4C000116A21F48041116298E7174A934295D19D
:10B4D0000E4A516A41F480115162516A21F480117F
:10B4E00051628BE709490B6923EA02020A6128E7E6
:10B4F00006494B6923EA02024A6122E703490B6AC3
:10B5000023EA02020A621CE798190120003802406F
:10B510000030014000380040000001204000FFFFE3
:10B52000FBF0FFFF003401400050014030B40469DB
:10B53000002341684025E46882690C315462446903
:10B540009560536093631160C2E90333C2E9053328
:10B55000C2E90733C2E90A33C2E90C3384B1C269D4
:10B56000E068936350621160C2E90133C2E90333BA
:10B57000C2E90533C2E90733C2E90A33C2E90C3331
:10B5800030BC7047114A037A0168D35C10B4CC58C0
:10B59000CA1824F00104CC501368DB07FCD4037DE7
:10B5A0001F2B09D9203B20225DF8044B02FA03F33C
:10B5B00043F01803CB60704720225DF8044B02FA79
:10B5C00003F343F018038B60704700BFBCE9060823
:10B5D000F0B50668356A00295CD12F68AC68D6F8EA
:10B5E00018E0002F5FD0364B3B40B3F1005F61D0D5
:10B5F00007F01F0104F11F0327F01F02194421F077
:10B600001F01BFF34F8F00290BDD114402F120030E
:10B61000DFF8B0C08B42CCF868221A4603F1200351
:10B62000F8D1BFF34F8FBFF36F8F03684FF4806281
:10B63000CEF80470CEF814205B69CEF8204043B3F6
:10B640006868F669002837D01D4B0340B3F1005FEE
:10B650001AD000F01F0220F01F011F32224422F0F6
:10B660001F02BFF34F8F002A0ADD0A4401F12003B5
:10B67000144D9A42C5F87012194603F12003F8D10F
:10B68000BFF34F8FBFF36F8F4FF4806370607361B0
:10B690003462F0BDEC69002CFBD06F691435D6F82C
:10B6A00018E0002F9FD1084A3346CEF81470CEF828
:10B6B0000420C1E73346B9E7044B70617360E7E7E4
:10B6C0000000FFFF00ED00E0180000201C0000203B
:10B6D000F8B507680646D7E90454002C50D0A0619D
:10B6E0002B7D1F2B39D82022286802FA03F343F060
:10B6F00018038360237D1F2B3AD92022203B02FAB6
:10B7000003F3226843F01803D3606368002269687A
:10B710000A601A601A6842F010021A60BA69297A3F
:10B7200057F00EFDFA69217A206857F009FD2A7A50
:10B730002A492F6833688D5C5A687B59206843F02A
:10B7400001037B51237AC95C435843F00103435002
:10B75000536843F003035360F8BD203B2022286860
:10B7600002FA03F343F01803C360237D1F2BC4D8F0
:10B77000202202FA03F3226843F018039360C4E71F
:10B780002A7D6B681F2AA8611FD82021286801FA2A
:10B7900002F242F0180282600021BA691960196849
:10B7A00041F010011960297A57F0CAFC2A7A0B4936
:10B7B00033682868895C5A68435843F00103435052
:10B7C000536843F002035360F8BD203A20212868F3
:10B7D00001FA02F242F01802C260DDE7BCE9060895
:10B7E0002DE9F04F0746A04B89B0A04E3C68D4F835
:10B7F0000490994500F01B81A3F57843994500F02A
:10B800008C8103F58063994540F089810222D9F843
:10B8100000304FF0010CB888218923F0400397F8DD
:10B820008880814284F824C0C9F8003040F05881F3
:10B8300097F80CA0A37A53453FD0C2EB02128C4B71
:10B8400003EBC20393F878030193BAF1000F40F0C1
:10B85000158115F0B7FC834608B3019B0225854985
:10B8600093F87B23036801921944834B03EB9123E4
:10B8700093F8B00755F088F8BBF80430DBF8000007
:10B8800002A902930323019ACDF814A00792CDE9EF
:10B8900003530123069357F09FFB97F80CA0D9F8A8
:10B8A000003043F00103C9F80030D9F8003043F00C
:10B8B0000203C9F8003084F80AA0D9F8003043F038
:10B8C0004003C9F80030226A9368002B00F03981E8
:10B8D0000020844651689C441432013001EA060E6F
:10B8E0000B4331B16169C1B1BEF1005F01D0D9062E
:10B8F00013D19368002BEDD1237B73B1B8F1000F06
:10B900000BD0012800F20E81BCF1070F00F20A8172
:10B91000236A1B7B002B00F00581236A9B68002BA8
:10B9200071D04FF00008B8F1000F02D098F80C3039
:10B930002BB1BB681BB19A88196812048A61236A0B
:10B9400062681D68236A5868236AD3F808E0536860
:10B95000BEF1010F23F48053536014DD71469368E8
:10B960009B07FCD5002D37D035F8023B93819368B7
:10B97000DB07FCD5D36808B120F8023B0239012966
:10B98000EDDC0EF0010E536843F480535360BEF1BA
:10B99000000F0CD093689907FCD5002D62D02B784E
:10B9A00013739368DB07FCD5D36800B10370236A77
:10B9B0001B7B002B4FD1236A1B6983B1236AD7F805
:10B9C00094001B69984701280ED0022807D1002354
:10B9D000236209B0BDE8F08F4FF6FF73C6E7D4F8D5
:10B9E0002080236A14332362236A9B68002B9AD138
:10B9F000B8F1000F07D098F80C3023B9BB6813B129
:10BA00001A689B889361236A1B68002B00F0A28050
:10BA1000236A00221F68236A5968236A21623C68EE
:10BA20001A60D4F80490104B99457FF4E5AE0022DB
:10BA3000D9F800104FF0010CBB88208921F040019B
:10BA400097F88880984284F824C0C9F800103FF421
:10BA5000EFAE184646E0BB68002BACD01A689B8856
:10BA60009361A8E7FF239BE7003001400000FFFF40
:10BA7000981901200000FEBFF062060815F0A2FB35
:10BA8000834600B3019B344A93F87BA303681A44AE
:10BA9000324B03EB922393F8B00754F075FFBBF8D9
:10BAA0000430DBF800004FF0030C0293022302A9DC
:10BAB000CDF81CA0039306930023CDE904C357F0EF
:10BAC0008BFA97F80CA0D9F8003023F00103C9F8DD
:10BAD0000030D9F8003023F00203C9F80030EAE65C
:10BAE000C0F34F03B3F5807FD9F80010A8BF4FF41F
:10BAF000807321F03801022BB8BF0223002B93FA88
:10BB0000A3F3B3FA83F308BF4FF0FF33013B41EADD
:10BB1000C303C9F8003020818AE6012277E64FF09E
:10BB2000FF3285E700213846FFF752FDBA681AB1A7
:10BB3000938812681B049361384609B0BDE8F04F42
:10BB4000C6E5237B002B3FF4E8AEB8F1000F7FF48D
:10BB5000DFAEE2E623623CE70000FEBFF0620608CB
:10BB6000014B43F82010704750280040F0B5A24C1C
:10BB7000A5B0E368022B00F03A82A048A04AA14990
:10BB8000121A5AF08BF9A048A04AA149121A5AF089
:10BB900085F9A368012B00F2C28003EB43039D4AA1
:10BBA0009D4D02EB430032F8132041888388C5E99C
:10BBB0009A21C5F87032994C994E9A4BB2FBF1F22A
:10BBC000994901FB02F20021C6F83423D4F88820F9
:10BBD00042F47002C4F888201A6842F001021A6028
:10BBE0009960924A1868024091481A60C0F30807A9
:10BBF000904A5A601A6822F480221A60D96007B10C
:10BC0000FEE78D49A0604FF6FF000A688B4B42F4B7
:10BC100000720A60E26802401343E36055F0FEF9E7
:10BC2000BFF34F8FBFF36F8FC4F85072BFF34F8FC6
:10BC3000BFF36F8F636943F400336361BFF34F8FCA
:10BC4000BFF36F8FC4F88470BFF34F8FD4F8803088
:10BC500043F6E07CC3F3C90EC3F34E33580100EA48
:10BC60000C01734641EA8372013B5F1CC4F86022F9
:10BC7000F8D1203810F1200FF1D1BFF34F8F636955
:10BC800043F480336361BFF34F8FBFF36F8F6A4913
:10BC9000644B0A6842F480720A60196C684A41F089
:10BCA00080511964196C01F0805102910299116858
:10BCB00041F4404111601268D5F8680202F4404234
:10BCC000D5F86C42D5F870120192019A9A6802F088
:10BCD0000C02042A00F08D809A6802F00C02082AF7
:10BCE00000F083804F4A136843F480331360D6F822
:10BCF000547504E0D6F85435DB1B642B74D81368F4
:10BD00009B03F7D5474A936803F00C03082B6BD0CD
:10BD1000136823F080731360D6F8547508E03E4D25
:10BD2000D5E99A2147E7D6F85435DB1B022B5BD8BF
:10BD300013689B01F7D40B06640843EA8013611E65
:10BD400043EA01433F491943364B5160116841F0C2
:10BD500080711160D6F8541504E0D6F85425521AB3
:10BD6000022A41D81A689201F7D5196C344A41F079
:10BD7000805119641B6C03F080530393039B136879
:10BD800043F480331360D6F8541506E0D6F85435E2
:10BD90005B1AB3F57A7F00F2CB805368DF03F5D5E9
:10BDA0001368274943F400331360D6F8542506E09E
:10BDB000D6F854359B1AB3F57A7F00F2B9804B68F8
:10BDC0009C03F5D54FF400124FF0006304A80492D1
:10BDD0004FF4C07221930723CDE9082303230A936C
:10BDE0004CF01CFC80B3FEE7FEE75B685A027FF56F
:10BDF00079AF0C4B1B6885E750280040000000001D
:10BE0000403E00008077070800000020E401002089
:10BE10006DD10708C46A06080000012000ED00E0AB
:10BE2000981901200038024040420F00FFFFF6FE43
:10BE30000000000810300024003C02400003FA0516
:10BE400000700040080040206C4A136803F00F03A4
:10BE5000062B0AD8136823F00F0343F0070313607F
:10BE6000136803F00F03072B63D1654B9A6842F404
:10BE7000E0529A609A6842F460429A609A6822F0AE
:10BE8000F0029A601A68900153D59A6841F288319D
:10BE900022F0030242F002029A60D6F8540504E050
:10BEA000D6F85425121A8A4243D89A6802F00C0236
:10BEB000082AF5D1514A136819070AD5136823F0E7
:10BEC0000F0343F007031360136803F00F03072BFE
:10BED0002FD14B4C4B4FA36823F4E05343F4A053B2
:10BEE000A360A36823F4604343F40043A3604CF0D1
:10BEF00061FBA368C3F303133B4493F8E037D840D6
:10BF0000C6F8340355F08AF8002304A8CDE91333AA
:10BF1000CDE91533CDE91733CDE91933CDE91B331D
:10BF2000CDE91D33384B04934CF078FB10B1FEE79C
:10BF3000FEE7FEE702234FF0007204A8CDE90633C6
:10BF4000D823CDE9042301230B934CF067FB00B108
:10BF5000FEE7D4F88C3023F08073C4F88C30D4F82A
:10BF60008C3043F08073C4F88C30A36803F00C036A
:10BF7000042B36D0082B18D0244BC6F83433204A73
:10BF8000D5E99A31B3FBF1F39168D6F83423C1F3C4
:10BF900003110F4497F8E017CA401D4901FB03F352
:10BFA000C6F83423934220D0FEE76368626813F436
:10BFB000800F636802F03F0218BF1649C3F388136D
:10BFC00008BF1249B1FBF2F202FB03F30C4A5268BC
:10BFD000C2F3014201325200B3FBF2F3C6F834332C
:10BFE000CDE70C4BC6F83433C9E725B0F0BD0021CE
:10BFF0000320FFF7B5FDFEF75BF800BF003C0240F1
:10C0000000380240F0620608C0FF03000024F4007C
:10C0100040420F0000127A001D4B1E48196C1E4A48
:10C0200041F0805130B4196482B0196CFF2401F0E2
:10C03000805101910199016841F480710160CA2029
:10C04000196C41F480611964196C01F480610091EC
:10C050005321009D5462506251625B6FDB000DD42E
:10C060000E4B00210E4A43F8041B9342FBD10D4BAB
:10C070000D4AC3F8502802B030BC7047094A0A4B39
:10C08000D2F850289A42EBD102B030BC704700BFC2
:10C090000038024000700040002800405428004052
:10C0A0006C2800400020004031666542800AA0F5FF
:10C0B0008010522808D8054B184490F848320D2BB0
:10C0C00002D8034AD056704700207047F062060835
:10C0D000ACE90608F0B50446D0F89400434B83B0B1
:10C0E000A16804F1640204F118070E68C1B220F0DF
:10C0F000FF0001921039A3FB0131090957F06AF8DA
:10C10000616D0023019A012984F8583018D0042960
:10C1100016D0102955D0402912D0B1F5807F53D0C8
:10C12000B1F5806F50D0B1F5805F55D0B1F5803F4B
:10C130004FF03C030CBF6FF0080C6FF4006C01E093
:10C140006FF0080C06F118053046E95801EA0C01B9
:10C15000E950616D56F07AFD636D012B16D0042B0A
:10C1600014D0102B0FD0402B10D0B3F5807F2FD0E0
:10C17000B3F5806F2CD0B3F5805F31D0B3F5803F3D
:10C1800006F1540502D04FF4006100E008212B684D
:10C190003A46D4F894000B4340212B602162C1B28F
:10C1A000124B20F0FF001039A3FB0131090956F0B2
:10C1B000C7FFD4F89420136843F01003136003B052
:10C1C000F0BD6FF4006CBDE76FF0080C0423B9E715
:10C1D00006F11C050821DAE76FF4006C0423B1E7CF
:10C1E00006F11C054FF40061D1E700BFABAAAAAA73
:10C1F0009E4B2DE9F04F1C782DED028B85B034B9A4
:10C200000124204605B0BDEC028BBDE8F08F984BB1
:10C21000984FD3F8003308EE103A15F059FB97F811
:10C22000743B0190002B00F01E81904BA7F1AC0AEB
:10C2300007F50D74002603F5927B5D46CDF80CB032
:10C24000D7F8C032019AD31A03D4EA6D9A4200F3A8
:10C25000F380864A06EB860302EB431393F87C31A6
:10C2600003F0FF020092002B63D0D5F89410AB6866
:10C2700081481A68CBB221F0FF01103BA0FB0303F9
:10C280007E481B09C35C19444B68A9891FFA83FEC9
:10C29000D368CEF1160E23EA0103BEF1070FD36077
:10C2A00047D9D7F83C3200220121013390468B4612
:10C2B000C7F83C32D5F89C309C4602935CF8049B4E
:10C2C00048461DE0DCF80090B8F1140FA9EB00031C
:10C2D00048465CDC13F1080948BF03F117094FEA2F
:10C2E000291308EB291803F1FF39013102FA03F38E
:10C2F0000CF1040C0BFA09F28E4542EA030246D314
:10C300008E45DFD8C8F11503DCF800004FF01508A2
:10C31000E9E7D7F838320133C7F83832002E00F099
:10C32000928000230093009918EE102A504613F0D3
:10C330002FFA28460136FFF7CDFE97F8743B0AF135
:10C340005C0A0434B34205F1A0053FF779AF00223F
:10C35000DDF80CB0C7F8C022002B3FF451AF03EB5F
:10C3600083030BEB43139BF810200BF1A00B5BF83E
:10C370004C0C12F0020F5BF8982C11680A6A14BF7B
:10C3800042EA800202435B450A62ECD138E7B8F129
:10C39000150FBED13A49C2F38423C2F3441001EB16
:10C3A000830301EB8000D3F8F037D0F8F0071B02CD
:10C3B00043EA001302F01F00C2F3C43201EB800015
:10C3C00001EB8202D0F8F017D2F8F0270B4343EAD2
:10C3D000023383EA132282EA121202F00F020F2ABA
:10C3E00097D140F6FF711A09B1EB131F38D0C2F391
:10C3F00008025B0B12FA03F38BD0224A4FF6FF714F
:10C4000002EB5302B2FBF3F39AB28A4281D0A281CB
:10C41000032E4FF00102A27385DC154A92F8042323
:10C420002D2A80D1184A5046009922F8163018EE6D
:10C43000102A13F0ADF97CE70024204605B0BDECCE
:10C44000028BBDE8F08F02995822104859F026FD62
:10C450000096009918EE102A504613F099F968E7F3
:10C4600000231A46D3E7C7F8C032CAE6E401002029
:10C4700098190120DC120020ABAAAAAABCE9060880
:10C48000F0620608C0270900A01C01203C1500200E
:10C49000830AA3F58013522B45D8F0B504466248B1
:10C4A00085B0034493F848020D283AD85F4D8601C1
:10C4B00005EB8013D3F85875A74232D00139C3F881
:10C4C000584589B2C3F86415D5F83413B1FBF2F2BC
:10C4D000013AC3F85C2505F5AB6202EB801000223F
:10C4E000C3F86825C3F86025C3F86C254CF0FCFA46
:10C4F0004F4B9C4218D0B4F1804F15D0A3F57C432C
:10C500009C4272D003F580639C426ED0494A03F589
:10C510007C439C4218BF944246D003F570539C4222
:10C5200042D005B0F0BD704700234FF48051AA19E6
:10C53000CDE9001392F894150129CDE90233F0D02A
:10C540000221D2F85805012482F895153A498768E6
:10C550003940816082F8954582F894350023AA1904
:10C56000CDE90033029392F89435012BD9D0D2F85B
:10C57000583502212E4882F8951583425A689968E9
:10C580004ED000F5806083424AD022F0700221F044
:10C590008001354401205A609960002385F8950593
:10C5A00085F8943505B0F0BD00214FF48053CDE9F6
:10C5B0000031AB1993F89425012ACDE90211B0D0CE
:10C5C000D3F85805022283F895251B4A87683A401C
:10C5D00082601A4A83F894150121944283F89515D4
:10C5E000BCD0144B9C429CD1B8E700224FF4805140
:10C5F000AB19CDE9001293F894150129CDE9022277
:10C600008FD00221D3F85805012483F895150A49E3
:10C6100087683940816083F8954583F894259DE7C4
:10C6200022F47002B1E700BFF062060898190120F9
:10C6300000000140000C00408800FEFF00040140A3
:10C6400070B504460068830AA3F58013522B05D801
:10C650002E4E334493F848520D2D00D970BDFFF78C
:10C6600017FF2B4BA801022203EB8515D5F85815AF
:10C6700085F89525274A8D682A40062A06D0B2F506
:10C68000803F03D00A6842F001020A60034401209F
:10C690002168214A83F895050023204801E050F8DD
:10C6A000332091420AD001330E2BF8D10121002012
:10C6B00054F026FC1A4B01221A6070BD06EBC3032E
:10C6C000012193F9754893F87568204654F018FCD9
:10C6D000002CC3DB06F01F0301216409104D01FA91
:10C6E00003F31B2E45F8243008D02E2EB6D12C2073
:10C6F00054F006FC4FF480536B6070BD192054F069
:10C70000FFFB4FF000732B6070BD00BFF0620608A6
:10C71000981901200700010000000140606B060825
:10C7200000E100E003689B0AA3F58013522B58D860
:10C73000F0B53D4C234493F848320D2B50D8447942
:10C74000A608002952D003EB8300384D4FF0020CAD
:10C75000A40803EB40000CFA04F4304405EB831604
:10C76000D6F8586505EB800CF768CCF81C193C43EB
:10C77000CCF82C29F4609C01EFF3118C502282F349
:10C7800012882C2203FB02F2A818D0F8181949B31A
:10C790000A1DC0F83C1926492C20264E03FB00F048
:10C7A00006EB000E1430014451F8040B18B1106070
:10C7B00051F8042C04328E45F6D100215FFA8CFC2E
:10C7C00011608CF311882C222C4402FB0353D4F803
:10C7D0005825D3F83C3913B3D36843F00103D36031
:10C7E000F0BD7047243212490A44D5E703EB8300B9
:10C7F0000E4D344603EB4000304405EB8316D6F86B
:10C8000058750226A640FC6824EA0604FC6005EB85
:10C810008004C4F81C19C4F82C299C01ACE7D36827
:10C8200023F00103D360F0BDF062060898190120DF
:10C83000B0220120D422012001490248FCF774BC37
:10C84000B02201200000014010B5064C064804F655
:10C850001811FCF769FC04F6A4210448BDE8104057
:10C86000FCF762BC9819012000000140004401401F
:10C8700002494FF08040FCF757BC00BFDC2201208A
:10C8800001490248FCF750BC082301200004004085
:10C8900001490248FCF748BC34230120000800404D
:10C8A00001490248FCF740BC60230120000C004015
:10C8B0002DE9F843194E3569F3681D4010D04FF04B
:10C8C0000047DFF85C80B5FA85F227FA02F31F2AE9
:10C8D0006FEA030305EA0305336103D0002DF2D1AB
:10C8E000BDE8F883D8F81C3AA3B103F1FF3900235F
:10C8F0001FFA89F9C8F81C3AD8F8184A002CEDD06C
:10C9000023682046494698476468002CF8D1002DDA
:10C91000D9D1E5E7F16A1FFA81F9EDE7001000408F
:10C920009819012001490248FCF7FEBBE4230120CD
:10C930000004014010B5064C064804F64C21FCF7F3
:10C94000F3FB04F628310448BDE81040FCF7ECBBCB
:10C950009819012000040140001C004001490248D0
:10C96000FCF7E2BB102401200040014001490248CD
:10C97000FCF7DABB68240120004801400149024865
:10C98000FCF7D2BB94240120001800402DE9F04FA1
:10C990004FF4257295B00021814859F0F3FA814B8C
:10C9A000814F4FF080415A6C07F12004B94642F0A4
:10C9B000010207F51E65A246DFF8F4815A64A7F16B
:10C9C00070065A6C02F001020092009A1A6C42F052
:10C9D00001021A641A6C02F001020192019A1A6CA7
:10C9E00042F002021A641A6C02F002020292029AE7
:10C9F0001A6C42F004021A641A6C02F004020392E8
:10CA0000039A1A6C42F008021A641A6C02F00802C7
:10CA10000492049A1A6C42F010021A641A6C02F022
:10CA200010020592059A1A6C42F020021A641A6CE0
:10CA300002F020020692069A5A6C42F002025A64F0
:10CA40005A6C02F002020792079A5A6C42F4803242
:10CA50005A645A6C02F480320892089A5A6C42F472
:10CA600000325A645A6C02F400320992099A5A6CE4
:10CA700042F480225A645A6C02F480220A920A9A82
:10CA80001A6C42F040021A641A6C02F040020B92D7
:10CA90000B9A1A6C42F080021A641A6C02F080023F
:10CAA0000C920C9A1A6C42F480721A641B6C03F498
:10CAB00080730D930D9B4246002301E056F833200E
:10CAC0008A420CD001330E2BF8D10AF1200A002043
:10CAD00053F05AFF55450DD05AF8201CEBE7334A66
:10CAE0000AF1200A02EBC30393F8740853F04CFFD9
:10CAF0005545F1D107F51C67DFF8B0B0DFF8B8A0F5
:10CB000009F120094F4526D099F80630002BF7D0BF
:10CB100099F8040014F056FB06460028F0D003688C
:10CB200009F1200919F8188C53440BEB932393F85F
:10CB3000B00753F029FFB288306800230E9202221A
:10CB40000EA9CDF84C80CDE90F23CDE9113356F075
:10CB500043FA4F45D8D14FF08041154F154E3A4614
:10CB6000002301E056F833208A420BD001330E2B0C
:10CB7000F8D12034002053F007FFAC420CD054F819
:10CB8000201CECE7094A203402EBC30393F8740835
:10CB900053F0FAFEAC42F2D115B0BDE8F08F00BF01
:10CBA000B022012000380240D06B0608F06206086F
:10CBB00000000140606B06080000FEBF70B5032056
:10CBC00082B0FDF787FA01284DD0334C0025334A57
:10CBD0000523C4F89850C4F89C50C4F8A020C4F8A9
:10CBE0009430BFF34F8FBFF36F8F4FF6FF01E268B2
:10CBF0002B4B0A402B4E13432B4AE360536FC6F86E
:10CC0000AC3B4BF0D7FC294B2949A3FB0023D4F8BC
:10CC1000FC209B0C42F08072C4F8FC20C6F8B03BAC
:10CC2000D6F83433234AA1FB031323499B09C2F8E6
:10CC3000B01F5560013B1168B3F1807F41F00101E5
:10CC4000116008D24FF0E022F0215361072384F8ED
:10CC50002310956113614FF0E022136943F0040340
:10CC6000136102B070BD02210320FEF779FF0E4B65
:10CC700012485A6C124942F480425A645B6C03F4C5
:10CC800080430193019A02680B68026083F308886D
:10CC90004B689847FEE700BF00ED00E01B00000670
:10CCA0000005FA05981901200038024083DE1B4375
:10CCB000D34D6210001000E055CEACC500380140E5
:10CCC0000000F01FD0F82011242200232DE9F041AC
:10CCD000C0F8942104460A68806804F5907522F033
:10CCE00001020A600B604B608B6094F805C0C4F8C9
:10CCF0009C314FEA8C22C4F8943184F8903102F4CC
:10CD00008052C4F89831C4F83831C4F828214FEA69
:10CD10000C32C4F8403102F40052C4F834312379A3
:10CD2000C4F82C214FEA0C22C4F8240113F00100AE
:10CD300002F48062C4F8302102D00422C4F8342105
:10CD400013F0020305D0D4F8342142F00802C4F8ED
:10CD500034211CF0010F0DD048B1D4F8442142F029
:10CD60000202C4F844214FF48032C4F84C21002B55
:10CD700040F0FF80A64B03F1200053F8042F9442AB
:10CD800000F0BD809842F8D11CF0080F40F0CD8033
:10CD9000D4F89431002B00F0128124232846C4F8E3
:10CDA00094310B6823F001030B604BF08BFF0128DB
:10CDB00015D0D4F84431002B40F01481D4F8203140
:10CDC00028465A6822F490425A609A6822F02A0251
:10CDD0009A601A6842F001021A6056F0E9FA237963
:10CDE000DA0761D5D4F8FC20002A00F0D5800023B2
:10CDF000D4F8041104F13C06E263A3644FF48062AA
:10CE00003046E264C4E91013C4E91433C4E91833AA
:10CE1000C4E91A334FF48033E3654FF48073A3659C
:10CE200056F00CFC30464BF03FF8D4F89881C4F82B
:10CE30008C61B8F1200F656731D1E368626999B2FE
:10CE40006AB3B1FA81F77F0949B394F890010128D8
:10CE500025D030460126C4F89C710B4684F89061B9
:10CE60002226A4F87811C4F898616A4ED4F82011EB
:10CE7000A667694E2431C4F87421E667674EC4F88A
:10CE80008C70C4F888604BF0ADF8002800F0AE80DC
:10CE9000102384F89071C4F89C31C4F89481E26B3B
:10CEA00023795268C4F814219B0773D5D4F8002164
:10CEB000002A69D00023D4F8081104F19C06C4F8B4
:10CEC0009C20C4F8A8304022C4F8B8303046C4E9E9
:10CED0002C33C4E93033C4E932334FF48033C4F81F
:10CEE000BC304FF48063C4E92812C4F8AC3056F06B
:10CEF000A5FB30464AF0D8FF002863D0FEE7002C9F
:10CF00003FF442AF94F8B831002B3FF43DAFD4F872
:10CF100044311CF0080F43F00803C4F844314FF4C7
:10CF20000043C4F854313FF433AFD4F89431002BAC
:10CF300051D024232846C4F894310B6823F0010310
:10CF40000B604BF0BFFE01283FF449AFD4F84431E9
:10CF5000002B43D1D4F8203128465A6822F490425D
:10CF60005A609A6822F022029A609A6842F0080297
:10CF70002EE7D4F8443143F00103C4F844314FF4B0
