:020000040800F2
:10000000F0FF0010318F0708C107070839F7020811
:10001000D18F0708D18F0708D18F07080000000093
:10002000000000000000000000000000C5070708F5
:10003000C907070800000000CD07070831B402080F
:10004000D18F0708D18F0708D18F0708D18F0708F4
:10005000D18F0708D18F0708455D0208695D020846
:10006000A15D0208D95D0208115E0208D1EA00080C
:10007000E1EA0008F1EA000801EB000815EB0008CE
:1000800029EB00083DEB0008D18F0708D18F070846
:10009000D18F0708D18F0708D18F0708495E020862
:1000A000E5F2020845F20208F5F2020835F202080C
:1000B0006DF202087DF202088DF2020875A00008B8
:1000C00099A500087DA000089DA50008D18F07080C
:1000D000D18F070881AF020839B00208F1B00208D9
:1000E000815E0208D18F07086122070805F3020824
:1000F000BDF2020815F30208ADF2020851EB000848
:10010000D18F0708651501089DF20208D18F0708F5
:10011000A9B1020861B202081DF9030851F90308E8
:1001200065EB000879EB00088DEB0008A1EB0008F7
:10013000B5EB0008D18F0708D18F0708D18F0708CA
:10014000D18F0708D18F0708D18F0708D10707087B
:10015000C9EB0008DDEB0008F1EB000819B3020859
:1001600085A00008A1A50008D18F0708D18F070836
:10017000D18F0708D18F0708D18F0708D18F0708C3
:08018000D18F0708D18F070899
:0828000000C00F0800001008E1
:1080000082B01E4B002201920193019B1C4A043353
:108010000193019B1968936803F00C03042B06D0AD
:10802000082B08D0174B184A1A6002B07047154B3E
:10803000196002B070475368506813F4800F00F065
:108040003F00536812D1C3F388130F49B1FBF0F11D
:1080500001FB03F30A4A0B495268C2F301420132A1
:108060005200B3FBF2F30B6002B07047C3F3881306
:10807000B1FBF0F101FB03F3ECE700BF5028004037
:1080800000380240E81D00200024F400074BD0F81F
:10809000E4105B68D0F8F0205B1A9A42B8BFC0F8D1
:1080A000F030012380F81C3100207047001000E000
:1080B000B84B00EB800103EBC10170B54A68526810
:1080C000B2F814E01EF0010F4FEA800C6ED15FFA97
:1080D0008EF4A60742D5BFF35F8F91F82040012CA4
:1080E000E5B200F0D180118BBFF35F8F0CEB000184
:1080F00003EBC10191F82040022C00F0E7800CEB6B
:10810000000103EBC10191F82040032C07D191F845
:10811000221021B193F87D10002940F0E78091886A
:1081200089B241F48061918093F97C100CEB000ED0
:1081300003EBCE0E9EF820E00EF1010E8E450CD121
:10814000002183F87D1093F87E10002940F0B7805D
:10815000604403EBC00300225A7770BD65075DD40D
:1081600014F0400400F0CB80148A93F97C508E6A9E
:10817000E4B274555FFA85FE0EF1010464B291F821
:10818000206083F87C40E51CAE42214600F025814A
:108190000CEB000503EBC50595F82050AC42C5D1AA
:1081A0000EF1020149B283F87C10BFE7B2F800E09B
:1081B0002EF4006E4FEA0E4E4FEA1E4EA2F800E07B
:1081C0001488A4B244F48064148091F822400025FD
:1081D00083F87C50002C48D093F87D40002C41D08F
:1081E000012183F87D100CEB000103EBC10191F834
:1081F0002010022904D1118889B241F40061118054
:108200000CEB000103EBC101897F41F001011182F8
:10821000604403EBC00393F8203070BD91F8224016
:10822000012583F87E50002C70D093F87D40002CFF
:1082300071D10CEB000103EBC10191F82110002971
:1082400000F0AA80118889B241F40071118093F87E
:108250007C1001314CB283F87C401188CE05FCD4EF
:10826000214663E7C97FFF29BAD00CEB000103EB7D
:10827000C1018C7F04F0FE041482CA7FFF2AC7D09C
:10828000FF2283F87C20C3E791F8221000293FF4F5
:108290002AAF93F87D1000293FF425AF118821F40F
:1082A00080610904090C1180BFF35F8F118B118865
:1082B00083F87E5089B241F4007111802FE79188D4
:1082C00021F440710904090C918041E791F82210D2
:1082D00000293FF414AF93F87D1000293FF40FAF4D
:1082E000118821F480610904090C1180918821F41E
:1082F00080610904090C918093F97C1016E71FFA3C
:108300008EF52D062DD493F97C100FE793F87D1090
:1083100000298ED096E791F82040022C148846D987
:1083200024F480642404240C1480158A8E6A93F942
:108330007C40EDB235558E6A118889B241F40071E6
:108340001180E4B2158A611C49B2EDB2755491886E
:10835000023489B264B241F4806183F87C40918038
:108360007BE793F97C506E1C3ED04C6A665D1682AA
:108370006C1C91F8205064B2A54283F87C402146E1
:108380007FF4D4AE948824F480642404240C948074
:10839000CCE600BFE81D0020118893F97C4089B22B
:1083A00041F480711180012183F87D1055E7A4B25A
:1083B00044F400741480158A8E6A93F97C40EDB2FF
:1083C0003555E4B28E6A158A611C49B20334EDB2A8
:1083D00064B2755483F87C403FE7958825F4806546
:1083E0002D042D0C9580D3E683F87C40CC7F14823D
:1083F00091F8224024B991F8201000297FF408AFA9
:10840000918821F480610904090C918000E700BF84
:1084100030B5EAB18E464FEA014C034600F1C00583
:10842000002419689A6841EA0C0142EA0E029A6037
:10843000C3E900140C33AB42F3D1D0F8C030C0F81C
:10844000C44043EA0E03C0F8C030C0F8C84030BD95
:108450004FEA014E8C46E0E7836930B41C699968A5
:108460002268096822F0010222608A899C8992B2FE
:1084700022EA04028A81027D00681F2A06D9446824
:10848000203A08219140214216D0FEE704680821D5
:1084900091402142F9D1202101FA02F28260224A60
:1084A00012783AB11A7E012A0BD1D3F8F8200132A2
:1084B000C3F8F82030BC7047202101FA02F2C260F4
:1084C000EDE7D3F8F4200132C3F8F420EFF3118183
:1084D000502282F3128858685C6C026822EA040217
:1084E0009C6C2243C9B2026081F31188D3E90C402D
:1084F0001A6999681D6C096814605061D3E90E40CF
:10850000546090600024B3F8A800D5604C62C86243
:1085100010680124204310601C768A899B891343CC
:108520009BB230BC8B81704708000010F0B5444C02
:1085300004EB401C9CF8202002B9F0BD414B4FF0E9
:108540008C0E0EFB003E93F8E06493F8E1249EF855
:1085500082708CF8067096424FF0000C4FEA40157E
:108560008EF882C00ED002EB420C03EBCC0C57000D
:108570009CF8E4C40CF1FF3EBEF1010F54D9BCF1EC
:10858000030F4BD060198180EFF31182902383F3A6
:1085900012888379818843EA41030021D2B29BB2D9
:1085A000817182F311881A09217882EA13225A40D4
:1085B000C9B1C4698168D4F8A040D2431B019BB201
:1085C00002F00F0201208840134304F1C0015A0059
:1085D00013F4004F93B202D16268024362600C341C
:1085E0008C42F4D1F0BDC1698068D1F8A0401B0174
:1085F00000F110019BB202F00F02012088401343EA
:1086000004F1C0015A0013F4004F93B202D1626822
:10861000024362600C34A142F4D1F0BD02F1010CBE
:108620000CF0030CB445ADD03A4403EBC20213186E
:1086300093F8F1140029A5D0631901229A71A1E7DA
:1086400008000010E81D0020704700BF024B03EB3C
:10865000401090F821007047080000104368B0F8FF
:10866000502010B41A83EFF31182502383F3128841
:108670004168446C0B6823EA0403C46C2343D2B200
:108680000B6082F31188D0E90741826803691268A0
:108690001C605961D0E909415C60C46A9960B0F816
:1086A0006010DC600023D1625DF8044B03767047F4
:1086B000037D1F2B30B54FF02002046816D9A3F1BB
:1086C00020056168AA400A420FD00C4A002182F8B6
:1086D000441541680A681F2B22F001020A604FF01E
:1086E000200206D9203B9A40E26030BD21689A40C2
:1086F000E9E702FA03F3A360F7E700BFE81D0020F3
:10870000037D01681F2B10B54FF0200217D9A3F18C
:1087100020044968A2400A4210D00C4A002182F885
:10872000451541680A681F2B22F001020A600168A2
:108730004FF0200206D9203B9A40CA6010BD09685C
:108740009A40E8E702FA03F38B60F7E7E81D0020A0
:10875000F0B4037D85691F2B63D90168A3F1200262
:108760004E6820249440264249D010239340CC6088
:10877000CB604B68D340DE0767D4EFF31183502200
:1087800082F312882A6C1168C9072FD4516889B204
:1087900071B9D5E90964A64225D0AF692744D760ED
:1087A00058D9341BA4B25460AE62002185F864101D
:1087B000116841F00101DBB2116083F31188037D80
:1087C0001F2B19D802681946106808238B401842DD
:1087D00000D093601068042303FA01F1014200D035
:1087E0009160F0BC7047012285F86420DBB283F30E
:1087F0001188037D1F2BE5D90168A3F120024C6885
:1088000008209040044200D0C8604C68042000FA60
:1088100002F22242E5D0203B00FA03F3F0BCCB6029
:1088200070470268202416689C4026421946CBD027
:1088300010219940946091601168D940CC079CD573
:10884000012101FA03F3936097E7012303FA02F28F
:10885000CA6092E72E69341BA4B25460A962A4E7EF
:10886000437D13B1012B04D070474FF480638381A3
:1088700070474FF40063FAE74FF400638381704759
:10888000074BD0F8E4105B68D0F8F0205B1A9342F5
:10889000C8BFC0F8F030012380F81C3100207047B9
:1088A000001000E04FF4805383817047074BD0F8ED
:1088B000E4105B68D0F8F0205B1A9342C8BFC0F8A0
:1088C000F030012380F81C3100207047001000E0D8
:1088D0004FF40063838170474FF4006383817047D6
:1088E0004FF4006383817047012380F81031704793
:1088F00070B5104ED6F80431002B18DD341D00255C
:1089000005E0D6F80431AB4204F120040FDD237FEB
:108910000135002BF5D0E0680028F2D0217D1DF054
:10892000ADFDD6F80431AB4204F12004EFDC0120A8
:1089300070BD00BF080000102DE9F04FC04C94F846
:1089400000B089B0BBF1000F1ED1D4F87434002BF5
:1089500016DD0026BB4831460769D0F8A0303D68D7
:1089600025F0010503F1C0023D6059600C339A42C5
:10897000FBD1D4F874340136B34200F58070EBDCDF
:10898000012009B0BDE8F08FAF4ED6F8485522F06F
:108990009BFDD4F80831D4F80C211433801AB0EBC5
:1089A000430FC0F2A681D4F804310193A74BA3FB77
:1089B0000523A74A5B09A2FB032CD4F818210092D7
:1089C0004FEADC0C96F84C2506920CEB8C0C06F565
:1089D000AA62A3EB4C0C0792D4F814210492002352
:1089E0005FFA8CF204F5CA7E059303920EEB8C0CB1
:1089F00004F5887A261D02931F46019BBB4240F373
:108A0000F980B16973680A6998005368D1F8EC205D
:108A10001FFA83F8A2EB0808D1F8E83000F10850FB
:108A200008F1806500EB4310393D00EB85150146E8
:108A30008D4240F2D3800A6801F58073002A00F06D
:108A40004B810A6C002A00F04A81D1F88020002A6C
:108A500000F04881D1F8C0201946002AE8D19D4293
:108A600040F2BC80181AA8EBA010452828BF45206A
:108A700003EB801100209946054680460CE01A6CF5
:108A8000002A7BD1D3F88020002A40F0A380D3F8BD
:108A9000C02003F580732AB9994205D91A68002AC3
:108AA000EDD0403399426CD84046112840F2968070
:108AB000C8F11503002BC0F2D18000F02481012100
:108AC000C8F1140201FA02F205FA03F313436148F4
:108AD000C3F3C43250F8221003F01F0250F82220D2
:108AE00042EA0132C3F34411C3F3842350F8211046
:108AF00050F8233042EA011242EA032383EA1322A8
:108B000082EA121202F00F020F2A40F0A780B3F59A
:108B1000803F80F0A38040F6FF71B1EB131F4FEA56
:108B2000131200F0EA80C2F308025B0B12FA03F39F
:108B300000F09480590801F5122101F5F861B1FBAC
:108B4000F3F14FF6FE73994248D0009B0133009336
:108B50004FF6FF73994200F084808BB2AAF80C3074
:108B6000032F4FF001038AF80E3000F38080069B3C
:108B70002D2B7CD1079B23F8171078E08033994286
:108B800092D9A3EB09029211501C334A82FB009246
:108B9000A2EBE072012AB8BF012295400120904467
:108BA000013A00FA02F21543184602687AB3026CE1
:108BB000002A00F09A80D0F88020002A00F09780E8
:108BC000D0F8C02000F5807012B38142EDD89946EC
:108BD000034661E7C03365E7CDF808B00137082FD9
:108BE0000EF15C0E0CF15C0C0AF1040A06F1200691
:108BF0007FF403AF029B13B1009BC4F81831059BAF
:108C0000002B3FF4A2AE049BC4F814319DE6403023
:108C10008142DCD9C31A9B115A1C0F4B83FB029370
:108C2000A3EBE273012BB8BF01239D4098440122BE
:108C3000013B02FA03F31D430346994603462BE723
:108C40000800001080040010E81D00201F85EB5173
:108C5000CDCCCCCC4CAB070856555555009B0133B9
:108C60000093049B0133CDE9043B4FF6FF719EF85E
:108C700058300398834214D0DCF80820DEF8003026
:108C80009B1ACEF80030DCF83020DEF804309B1A56
:108C9000CEF804300023CCF80830CCF830308EF811
:108CA0005800DEF800300133CEF80030DCF8083030
:108CB0000133CCF808304FF6FF7399428CD1DEF8BF
:108CC0000430CDF808B00133CEF80430DCF8303091
:108CD0000133CCF8303081E701F14003BFE601F108
:108CE0008003BCE601F1C003B9E6803090E7C030F4
:108CF0008EE7002009B0BDE8F08F009B01330093A0
:108D0000002319462AE70F49C5F3C43351F823203D
:108D100005F01F0351F8233043EA0233C5F3441230
:108D2000C5F3842551F8222043EA021351F8252087
:108D300043EA022383EA132282EA121202F00F02AC
:108D4000E2E600BF4CAB070810B5044671F03EF9EF
:108D500081B22046BDE81040FFF7E8BB2DE9F041A5
:108D60001F4B93F8E02493F8E1349A4232D11D4E20
:108D7000D6F87454002D12DD0024377806F58F6084
:108D8000A046013417B1037E012B1ED0026913687F
:108D9000AC4243F0010300F580701360F1D122F082
:108DA00093FBD6F87848C6F80C01002C0BDD0E4A70
:108DB00002EBC404116893888889083203439BB28C
:108DC000A2428B81F6D1BDE8F08180F8F080FFF7F8
:108DD00045FCDBE76CF0E6FB0028C8D1BDE8F0817C
:108DE000E81D0020080000108408001010B57D4C1C
:108DF00094F8E02494F8E1349A4240F099817A4B57
:108E000093F89C28002A00F0EC8093F8A038002BFF
:108E100040F0EC80D4F85815088820F08000000459
:108E2000000C0880B4F85C05C862088880B240F085
:108E3000800008804B62B1F80CC0B4F86C0540EAC1
:108E40000C0080B2012A8881A4F86C3500F0C9803A
:108E5000D4F87015088820F080000004000C088009
:108E6000B4F87405C862088880B240F080000880B9
:108E70004B62B1F80CC0B4F8840540EA0C0080B233
:108E8000022A8881A4F8843500F0AB80D4F88815D4
:108E9000088820F080000004000C0880B4F88C05DD
:108EA000C862088880B240F0800008804B62B1F848
:108EB0000CC0B4F89C0540EA0C0080B2032A8881FB
:108EC000A4F89C3500F08D80D4F8A015088820F017
:108ED00080000004000C0880B4F8A405C86208886B
:108EE00080B240F0800008804B62B1F80CC0B4F84A
:108EF000B40540EA0C0080B2042A8881A4F8B43595
:108F00006FD0D4F8B815088820F080000004000C59
:108F10000880B4F8BC05C862088880B240F08000C0
:108F200008804B62B1F80CC0B4F8CC0540EA0C00E4
:108F300080B2052A8881A4F8CC3552D0D4F8D01557
:108F4000088820F080000004000C0880B4F8D405E4
:108F5000C862088880B240F0800008804B62B1F897
:108F60000CC0B4F8E40540EA0C0080B2062A8881FF
:108F7000A4F8E43535D0D4F8E815088820F080004E
:108F80000004000C0880B4F8EC05C862088880B2C0
:108F900040F0800008804B62B1F80CC0B4F8FC05CA
:108FA00040EA0C0080B2072A8881A4F8FC3518D06A
:108FB000D4F80026B4F80406118821F080010904D1
:108FC000090C1180D0621088B4F8141680B240F0F9
:108FD0008000108053629089014389B29181A4F886
:108FE000143610BDE81D002008000010D4F86035CC
:108FF000B4F8641559601968D4F8580541F00101B6
:10900000196040F20D33A0F84830818989B241F4EB
:109010008071012A8181E4D0D4F87815B4F87C05F8
:109020004860086840F001000860D4F87005A0F8B6
:109030004830818989B241F48071022A8181D0D07F
:10904000D4F89015B4F894054860086840F0010021
:109050000860D4F88805A0F84830818989B241F4C5
:109060008071032A8181BCD0D4F8A815B4F8AC056E
:109070004860086840F001000860D4F8A005A0F836
:109080004830818989B241F48071042A8181A8D055
:10909000D4F8C015B4F8C4054860086840F0010071
:1090A0000860D4F8B805A0F84830818989B241F445
:1090B0008071052A818194D0D4F8D815B4F8DC05E4
:1090C0004860086840F001000860D4F8D005A0F8B6
:1090D0004830818989B241F48071062A818180D02B
:1090E000D4F8F015B4F8F4054860086840F00100C1
:1090F0000860D4F8E805A0F84830818989B241F4C5
:109100008071072A81813FF46CAFD4F80816B4F857
:109110000C264A600868D4F8002640F00100086078
:10912000A2F8483093899BB243F48073938110BDB9
:109130006CF038FA00287FF462AE10BD2DE9F047DC
:10914000037D01681F2B044608D94868A3F1200558
:109150002022AA40024206D1BDE8F08708682022FA
:109160009A400242F8D0604A604E5268C6F8A4287D
:1091700096F8A028A569DFF880910ABB8C2202FB33
:109180000592D2F88800D2F80071D0F800803868D3
:10919000B2F88CC020F001003860B8F80C2092B210
:1091A00022EA0C02A8F80C20327802BB1F2B40F2F6
:1091B0009080A3F1200220239340CB60BDE8F0878C
:1091C0008C2202FB0592D2F888205069D2F80080E8
:1091D000026822F001020260B8F80C2022F48072CA
:1091E0001204120CA8F80C203278002ADED04FF0BE
:1091F0008C0A0AFB059ADAF80071384662F00EFB19
:10920000D6F8AC3801228AF8D420002B67D0B8F801
:10921000003037499BB243F08003A8F800308C231C
:1092200003FB05F54FF0FF332944C8F82C304046C6
:1092300062F04EFD09EB05030022D3F8AC00C3F841
:10924000A420D3F8982039680243D3F8B000024331
:10925000D3F8B4000243D3F8B8000243D3F8BC00FB
:109260000243D3F8C0000243D3F8CC000243D3F842
:10927000D00002431F48084002433A60D3E931203E
:109280007969024321F007010A437A61D3F8A820E3
:109290007A60D3F89C20BA60D3F8A020FA60D3F8A3
:1092A000002116215160116841F001011160D3F8CD
:1092B0008820B3F88C30126891890B439BB20A491D
:1092C00093814B68C6F8A838237D21681F2B3FF691
:1092D00070AF202202FA03F38B60BDE8F08722F022
:1092E000F3F8C6F8AC0892E7001000E008000010A0
:1092F000DC1E00203F801CF0E81D00202DE9F04F0F
:10930000DFF814B19BF8004089B024B9012420464D
:1093100009B0BDE8F08F3D4ED6F8485522F0D4F89C
:109320009BF8DC380590002B00F0ED82384AA2FB58
:109330000532384B5209A3FB0213DB0803EB83030E
:10934000A2EB4303DAB206920BF5CA7202EB830377
:1093500002930BF58873019206F1E00703934FF037
:10936000000ADBF8AC38059AD31A04D457F8082C55
:109370009342C0F28582254A8C2303FB0A2393F88B
:10938000D43003F0FF02049257F8589C3C6AD9F895
:109390000050002B40F09581204662F03FFA1B4AB6
:1093A0008C2303FB0A23002283F8D42099F80510AC
:1093B0000C2914D8DFE811F0770113001300130013
:1093C00070011300130013007E011300130013003B
:1093D0000D00AB8B23F400631B041B0CAB833A46DC
:1093E000284626F02DF899F805300C2B1ED8DFE81A
:1093F00013F04A011D001D001D0041011D001D004C
:109400001D0038011D001D001D001500E81D002075
:109410001F85EB51CDCCCCCC08000010AB8B23F4D6
:1094200000631B041B0C43F40063AB83019B57F8E0
:10943000342C57F8101C5C330193029B5C3302936D
:10944000039B0433039357F8483C43F04003134312
:1094500057F8302C134357F82C2C134357F8282C6B
:10946000134357F8242C134357F8202C134340225E
:1094700047F83C2C57F8142C1343226822F07E62E4
:1094800022F45F3222F470720B431343236057E9D6
:10949000073162690B4322F007021343636157F8F7
:1094A000383C636057F8443CA36057F8403CE360A5
:1094B000236843F0100323609BF8DC380AF1010AAB
:1094C0009A4507F18C07FFF64CAF0022CBF8AC2889
:1094D000002B3FF41BAF9C4991F89020920700F1BC
:1094E000B881D1F8882010685479018C012289B2A2
:1094F000A24092B221EA02010184018C89B20A439E
:10950000012B02843FF402AF8F4991F81C21970789
:1095100000F1BB81D1F8142110685479018C01222B
:1095200089B2A24092B221EA02010184018C89B27F
:109530000A43022B02843FF4E9AE834991F8A82143
:10954000960700F1AB81D1F8A02110685479018C05
:10955000012289B2A24092B221EA02010184018C67
:1095600089B20A43032B02843FF4D0AE764991F8C6
:109570003422950700F19B81D1F82C221068547990
:10958000018C012289B2A24092B221EA0201018437
:10959000018C89B20A43042B02843FF4B7AE6A49B6
:1095A00091F8C022940700F18B81D1F8B82210689D
:1095B0005479018C012289B2A24092B221EA0201BF
:1095C0000184018C89B20A43052B02843FF49EAECC
:1095D0005D4991F84C23900700F17B81D1F8442339
:1095E00010685479018C012289B2A24092B221EA1A
:1095F00002010184018C89B20A43062B02843FF4E4
:1096000085AE514991F8D823920700F16E81D1F8C7
:10961000D02310685479018C012289B2A24092B201
:1096200021EA02010184018C89B20A43082B0284D9
:109630007FF46CAE444A92F864349B0740F15E813B
:10964000D2F85C240423116850790A8C83409BB2C1
:1096500092B222EA03020A840A8C92B213430B8468
:1096600054E6AB8B23F008031B041B0C43F00803E8
:10967000AB83DBE62B8B23F400631B041B0C43F44E
:1096800000632B83D2E62B8B23F008031B041B0CF7
:1096900043F008032B83C9E62B8B23F400631B04E0
:1096A0001B0C2B839BE62B8B23F008031B041B0C4A
:1096B0002B8394E6AB8B23F008031B041B0CAB83BA
:1096C0008DE6636837F8542C1FFA83FEAB89CEF120
:1096D000160E9BB223EA0203BEF1070FAB817FF6A1
:1096E0005BAEDBF818310133CBF81831BB6A079356
:1096F0009C4600225CF8046B012190461BE0DCF8DC
:109700000000B8F1140FA0EB06031FDC13F10806EC
:1097100048BF03F11706331108EB26180646581EFA
:10972000013102FA03F3012282408E4542EA03022C
:109730000CF1040C0AD38E45E1D8C8F11503DCF80E
:1097400000604FF01508EAE7E81D0020B8F1150F9A
:1097500074D16E48C2F38423C2F3441100EB830337
:1097600000EB8101D3F88030D1F880101B0243EA6E
:10977000011302F01F0100EB8101C2F3C43200EBC0
:109780008202D1F88010D2F880200B4343EA0233E2
:1097900083EA132282EA121202F00F020F2A4DD13D
:1097A00040F6FF71B1EB131F4FEA131200F09A80DD
:1097B000C2F308025B0B12FA03F33FD05A0802F51A
:1097C000122202F5F8624FF6FF71B2FBF3F293B288
:1097D0008B4233D00399BAF1030F8B814FF0010311
:1097E0008B7304DC4A4B93F84C352D2B3AD00199FE
:1097F000069E91F85830B3420DD002980B688268EB
:109800009B1A0B60026B4B689B1A4B6000238360B2
:10981000036381F85860019A029913680133136059
:109820008B6801338B60049B002B7FF4B5AD5368CC
:10983000013353600B6B01330B63ADE5DBF814317F
:109840000133CBF81431BAF1000F0FD00023049389
:10985000CDE72F4AD2F8882010685479018C042271
:1098600089B245E62B4B23F81A20C0E707992A480E
:10987000582271F0B5F8D9F80050CDF810A0B6E72D
:109880000024204609B0BDE8F08F214AD2F8142107
:1098900010685479018C042289B242E61C4AD2F83D
:1098A000A02110685479018C042289B252E6184A2A
:1098B000D2F82C2210685479018C042289B262E615
:1098C000134AD2F8B82210685479018C042289B264
:1098D00072E60F4AD2F8442310685479018C0422AE
:1098E00089B282E60022134674E7094AD2F8D023EF
:1098F00010685479018C042289B28FE6044BD3F8A6
:109900005C2401239FE6CBF8AC3800E54CAB07089C
:10991000E81D0020382300204401001038B58022C3
:109920006B2105461BF098FC642024F091FBF52187
:1099300028461BF06BFDAC2818D005D8122817D08C
:10994000982817D000240FE0AF28FBD1092410225B
:109950006A2128461BF080FC2846032268211BF060
:109960007BFC642024F074FB204638BD0724EEE71E
:109970000824ECE70B24EAE738B500224E2105461F
:109980001BF06AFC1524962024F062FBF521284682
:109990001BF03CFD422807D0472807D0013C14F0BB
:1099A000FF04F0D1204638BD0C24FBE70D24F9E775
:1099B000BFF34F8F0549064BCA6802F4E0621343B8
:1099C000CB60BFF34F8F00BFFDE700BF00ED00E0AD
:1099D0000400FA051648174A174938B5174C184DB0
:1099E000121A70F0FDFFD4F88820164B164842F486
:1099F0007002C4F888201A68002142F001021A603F
:109A000099601A6822F0847222F480321A605860D9
:109A10001A6822F480221A600C4AD960521B284628
:109A20000B4970F0DDFFA560BDE83840FEF7E8BAED
:109A30000000001008000010EBFB080800ED00E03B
:109A4000000000200038024010300024880100206F
:109A5000000000082DE9F843044690F8210144F283
:109A60003B33A4F84C3108B9BDE8F8830509013D42
:109A7000052D00F00F0000F29B804F4F07EB4503D0
:109A8000B3F8002142FA00F3DB0740F19180012393
:109A900003FA00F0013810403D446FF075F8474E6E
:109AA00095F80C81464A804406F5C36909EBC80560
:109AB0002621AB88E980B3FA83F3202BE260C3F15F
:109AC0001F02D1D0174406EB82020C34C2F81849A9
:109AD0004FF0004232FA03F397F8144105D0394AA7
:109AE000116821EA030111605361002128461CF02E
:109AF000C5FCAB8859F83820B3FA83F3C3F11F00D3
:109B000000F0FC0101F1804101F59C3102F13F427E
:109B100002F57E0200F003008F688000C2F3872206
:109B20004FF00F0C82400CFA00F027EA000088602A
:109B3000886802438A60234A234910684FF000472F
:109B400027FA03F320EA03001060506820EA0300BC
:109B50005060D1F8000C1843C1F8000C906820EA5E
:109B600003009060D06820EA0300D060D1F8082C90
:109B700026441A43C1F8082C96F85829F02A08D828
:109B8000002B3FF471AF0F490A6813430B60BDE827
:109B9000F883F02386F858390C4B0022185D032116
:109BA00069F0CEFFAB88B3FA83F327FA03F3E7E754
:109BB000034BE36058E700BF4CAB0708E81D0020EB
:109BC00079AC0008003C014000300140A440080886
:109BD00037B5054600F1100435481BF06FFCA8822C
:109BE0002846FFF737FF42F21F53A5F84C310F22EA
:109BF0004E2120461BF030FB0F2024F029FA95F867
:109C0000DB30002B4ED095F820210132D3B2082250
:109C1000B2FBF3F2082AD3B240D0042A40D0022B80
:109C200002D0012B3ED10323224A02EB430393F8D7
:109C3000252102F00F024F21204601921BF00CFB60
:109C40000F2024F005FA019A502120461BF004FB56
:109C50000F2024F0FDF92046EE2252211BF0FCFAE1
:109C60002046032214211BF0F7FA2046002263212C
:109C70001BF0F2FA0822204665211BF0EDFAE421E0
:109C800020461BF0C3FB00F0EF0040F060026421AF
:109C9000204603B0BDE830401BF0DEBA0023C3E726
:109CA0000123C1E7002385F8DB300622C1E700BFAE
:109CB00000366E014CAB070890F8DB30052B03D85B
:109CC00090F81E31032B01D00020704790F823310B
:109CD00003F0FB03022B0CBF00200720704738B5B0
:109CE00000F110040546FFF7B5FE80226B212046E7
:109CF0001BF00AFB642024F0ABF903226B21204601
:109D00001BF002FB95F82021192120461BF0FCFADC
:109D10000F2024F09DF92846FFF7CEFF1A210246B6
:109D200020461BF0F1FA18221B2120461BF0ECFA0A
:109D300018221C2120461BF0E7FA02223721204678
:109D40001BF0E2FA20460122BDE8384038211BF022
:109D5000DBBAF8B5054600F11004FFF77BFE95F875
:109D6000D830072B5BD195F81D310226002B58D136
:109D7000374680226B2120461BF0C6FA642024F06F
:109D800067F90722682120461BF0BEFA642024F000
:109D90005FF900226B2120461BF0B6FA642024F004
:109DA00057F901226B2120461BF0AEFA0F2024F058
:109DB0004FF9FA001B2120461BF0A6FA0F2024F0D1
:109DC00047F9F2001C2120461BF09EFA0F2024F0D8
:109DD0003FF92846FFF770FF1A21024620461BF084
:109DE00093FA0F2024F034F995F820211921204608
:109DF0001BF08AFA642024F02BF910223721204628
:109E00001BF082FA0F2024F023F92046012238218A
:109E10001BF07AFABDE8F8400F2024F019B90326A8
:109E2000A6E70327A5E738B500F110040546194851
:109E30001BF044FBA8822846FFF70CFE01226B2191
:109E400020461BF009FA782024F066F820461822F4
:109E50001B211BF001FA204618221C211BF0FCF9E3
:109E60002846FFF729FF1A21024620461BF0F4F985
:109E700095F82021204619211BF0EEF920461022EA
:109E800037211BF0E9F920460122BDE8384038218E
:109E90001BF0E2B900127A002DE9F043026917784D
:109EA000012F85B004460D4618D10B79013B137183
:109EB0004B79002B08BF682300F1100803754FF0A1
:109EC00000093B460DF10502752140468DF80590CD
:109ED0001AF0D8FF064600283ED1226902231370EB
:109EE000EB7823B90026304605B0BDE8F08304F1D5
:109EF0001008A97840461BF017FB06460028F1D051
:109F0000E8781CF077FAA0612B780133DBB210B14E
:109F1000C3712223837109211CF090FCA0691BF0FE
:109F2000FDFA424AD2F84835632BFBD94048DFF8A6
:109F30000891404F1BF0C2FAA08202E059F8047B5E
:109F40005FB34046B84703460028F7D0206984F83D
:109F5000D8306DF09DFAC6E720696DF099FA3B465E
:109F600049460DF1060240461AF08CFF9DF8063076
:109F700003F07E038DF8063008B1682B14D09DF8ED
:109F8000053003F07E03682B8DF805300FD0702B61
:109F9000A9D1042384F8D830A5E7E8781CF02AFA80
:109FA0001CF06BFC3E469EE784F8D8709BE70222CB
:109FB000062384F8D820194602AA40461AF062FF08
:109FC000E0B19DF80D309DF80B209B00520002F08F
:109FD000020203F0040313439DF8092002F001027A
:109FE00013430BD0012B1DD0022B17D003F003031A
:109FF000032B13D0032024F0E7F974E701230DF1BC
:10A00000070240460C211AF03DFF0028F2D09DF8CF
:10A01000073013F00F03EDD0042B03D0012384F895
:10A02000D93060E7002384F8D9305CE7E81D0020D0
:10A0300040420F00653101087CAC070843680B4AB9
:10A0400023F0407323F4807343F480734360836888
:10A050001A4042F002028260C36A0139CAB223F494
:10A06000700141EA0251C162704700BFFDF7FFC0B5
:10A07000704700BF0020FEF71BB800BF0120FEF7AD
:10A0800017B800BF0220FEF713B800BF431C00F052
:10A0900044812DE9F04FDFF8CCA300EB80030AEBFD
:10A0A000C30287B0D2F80480810005460191DB002D
:10A0B000B8F1000F05D0D468002C00F0FD80A17924
:10A0C00011B107B0BDE8F08FD2F81090B9F1000FD0
:10A0D00000F03B8199F80620002AF2D118330AF1EA
:10A0E0000406F018D8F80470F250691CC0E9012287
:10A0F0001523C260C9B2A3711623E17189F8071054
:10A1000089F8063098F818006BF03EFBBB8822688F
:10A11000A18823F440731B041B0CBB80D9F80030CA
:10A120001183B9F804201A83112120461CF0A6F9E6
:10A13000112148461CF0A2F909264FF0330B05E027
:10A14000BBF1010B00F0E38023F0E6FE0A20002CB7
:10A15000F6D02268A18813691942F1D051830520F5
:10A1600023F0DAFE2368A2881A83052023F0D4FEA8
:10A17000013EE2D1002C00F00D812368A2885A83B1
:10A18000052023F0C9FEB9F1000F00F02B81D9F8AA
:10A190000030B9F804205A83052023F0BDFE23685F
:10A1A000A2881A83052023F0B7FED9F80030B9F849
:10A1B00004201A83019B20465C190AEBC404A37D8A
:10A1C000227D002B14BF322112211AF0DFF9A37D6A
:10A1D000627D002B14BF3221122148461AF0D6F9B5
:10A1E0009A4B9F4200F0E880994B9F4200F0EF802D
:10A1F000984B9F4200F00081019B2B440AEBC30A5D
:10A200004FF47A73BAF8184003FB04F4BB8823F4C4
:10A2100040731B041B0CBB803B889BB243F00103C3
:10A220003B80BD8802A861F095FA25F03F050498AF
:10A23000894B2D04A3FB00232D0C45EA9345BD80DB
:10A240003A8822F001021204120C3A80834A990CD7
:10A2500094420B4662DC6200B0FBF2F292B2013330
:10A26000042A38BF04223B84BA833B889BB243F064
:10A2700001033B803B8823F4816323F002031B042A
:10A280001B0C4FF4804143F480633B8039813B8851
:10A2900023F080031B041B0C00223B8098F81A005B
:10A2A000114669F04DFC002298F81900114607B0DC
:10A2B000BDE8F04F69F044BCD2F81090B9F1000F3E
:10A2C00000F0A58099F80620002A7FF4FAAE183332
:10A2D0000AF10401CA18D8F80470CC50C2E901444C
:10A2E0001623D46089F806306B1C89F8073098F87B
:10A2F00018006BF049FABB88B9F8042023F44073C6
:10A300001B041B0CBB80D9F800301A8310E7002C0B
:10A310003DD1052023F000FE27E7704704EB4404FD
:10A32000B0FBF4F082B2C0F30B0008B942F00102B6
:10A330004FF4967301FB03F34949A1FB03139B09F7
:10A34000013342F400423B848EE70AF104011833E2
:10A35000CA18D8F8047041F80390C2E9019915238E
:10A36000C2F80C90A371431CE37198F818006BF0CD
:10A370000BFABB88A28823F440731B041B0CBB8020
:10A38000236811211A8320461CF078F8D4E622684D
:10A39000A188E3E6052023F0BFFDB9F1000F4DD001
:10A3A000D9F80030B9F804205A83052023F0B4FD11
:10A3B000052023F0B1FDF8E603F5F2331A6A42F402
:10A3C00000121A621A6A22F400121A6214E703F5E4
:10A3D000F0331A6A42F480021A621A6A22F4800286
:10A3E0001A6209E7052023F097FD2368A2881A83E3
:10A3F000052023F091FDDDE603F5EE331A6A42F401
:10A4000000021A621A6A22F400021A62F4E6183391
:10A410000AF10401CA18D8F8047041F80390C2E99F
:10A420000199C2F80C9098F818006BF0ADF9BB8850
:10A4300023F440731B041B0CBB807DE6052023F036
:10A440006BFD052023F068FDB4E600BF005400401A
:10A4500000580040005C004083DE1B43A0860100E2
:10A46000D34D6210E81D00202DE9F843074620F087
:10A47000FFFFDFF84C8007EB8709044608EBC905AE
:10A4800042F20F7604E020F0F3FF031BB3420ADC34
:10A490006B7F002BF7D108EBC90898F81C0080F0FF
:10A4A0000100BDE8F883B8F86039013338469BB243
:10A4B000A8F86039FFF7EAFD0020BDE8F88300BF87
:10A4C000E81D002010B582B08DF80730431C0CD079
:10A4D0000228044609DC0DF107036BF0FBF820B1FC
:10A4E0002046FFF7C1FF02B010BD002002B010BD32
:10A4F00070B5284D00EB800305EBC30384B05A68A8
:10A500005468A28A92B20392039A12F4706F1CBF2D
:10A5100001221A77039B13F4E06F4FEA80060CD1F7
:10A52000A38A304423F4706305EBC0051B041B0CA5
:10A530000022A3826A7704B070BD238BA38823F422
:10A5400080631B041B0CA380039B9A05E8D423881B
:10A550009B05E5D42388D9050FD52388DA05FCD4DB
:10A5600023889BB243F40073238023889B05FCD48B
:10A570000190FFF78BFD0198D2E723889BB243F44B
:10A5800000732380A38823F440731B041B0CA38057
:10A59000C6E700BFE81D00200020A9E70120A7E7CB
:10A5A0000220A5E72DE9F84F304F00EB800407EBC0
:10A5B000C404D4F80880B8F1000F04D09A46637F31
:10A5C00003F0FF0923B14FF000094846BDE8F88FBA
:10A5D0000E469346054620F04BFF0A9B7600F6B2E6
:10A5E000C4E909330123A67784F81FB084F82190C9
:10A5F00084F8223084F820A0637784F81C90B8F89F
:10A6000004209105064622D4B8F80030DA0512D4A9
:10A6100042F20F7404E020F02BFF831BA3421ADCEC
:10A62000B8F800309B05F6D4B8F800309BB243F47C
:10A630008073A8F80030B8F804309BB24FF00109DD
:10A6400043F44073A8F804304846BDE8F88F9946B3
:10A650004846BDE8F88FB7F8603901339BB2284609
:10A66000A7F86039FFF712FDAFE700BFE81D002033
:10A67000F8B5724C04EB0016D6F86439002B00F0E4
:10A680008A800546070196F86C096BF07DF896F80C
:10A690006C39590903F01F0203294FF0010303FA33
:10A6A00002F300F08E8004297BD0022974D0E319D4
:10A6B000013593F868091BF09DFEEDB2064610B116
:10A6C00012238371C571E31993F869091BF092FE97
:10A6D00010B11323C5718371E31993F86A091BF054
:10A6E00089FE10B11423C57183713C444A2194F84A
:10A6F0006B29304619F04AFF94F869091BF07AFE7D
:10A7000094F86B292A2119F041FF94F86A091BF08B
:10A7100071FE94F86B290A2119F038FFD4F86429E6
:10A72000474B9A4252D0474B9A423FD0464B9A42AF
:10A7300057D0464B9A425FD0454B9A4267D0454B23
:10A740009A426FD0444990884C880B884D892343A6
:10A750008C882343CC8820F0030023430C89000419
:10A76000000C23438C8990802B4310882343CC8991
:10A77000098A00F44150234303439BB21380938B17
:10A7800023F400631B041B0C9383118213889BB278
:10A7900043F040031380F8BD304A516A0B435362C3
:10A7A00085E72E4A11690B43136180E703F50033F7
:10A7B000196A41F480411962196A21F480411962D1
:10A7C000C0E7264A116A0B43136270E703F584332E
:10A7D000596A41F480515962596A21F48051596291
:10A7E000B0E703F5FE33196A41F400411962196AB2
:10A7F00021F400411962A5E703F58233596A41F457
:10A8000000515962596A21F4005159629AE703F5DF
:10A810006843596A41F480115962596A21F48011E0
:10A8200059628FE703F56443596A41F40011596294
:10A83000596A21F40011596284E700BFE81D002025
:10A840000030014000380040003C0040003401402E
:10A8500000500140005401408801002000380240AF
:10A8600010B404698269E468416814604024D460CB
:10A87000446900230C31C2E90433C2E90633C2E95A
:10A880000833C2E90A33C2E90C3393609363516021
:10A8900084B1C269E0689363C2E90233C2E9043358
:10A8A000C2E90633C2E90833C2E90A33C2E90C330C
:10A8B000C2E900015DF8044B704700BF4368002205
:10A8C0001A60037D1F2B08D9203B2022016802FA61
:10A8D00003F343F01803CB6070472022016802FAAB
:10A8E00003F343F018038B60704700BF0268136ADC
:10A8F00011B1D96901B3143330B49C681D689169F2
:10A90000DDB14FF4806088618D60104640690C6154
:10A9100080B15968D369C9B10A464FF480619A6021
:10A920009961224312F0010F14BF00224FF400522C
:10A930001A621C6130BC704770478D61054D4FF045
:10A94000FF0C05F812CF00688D60DFE7024A9A60BD
:10A950009961E6E7880100207C2700200168F8B5AE
:10A96000D1E9042304465568002B49D09861107D35
:10A970005E681F2831D81768202202FA00F040F0E4
:10A980001800B8601A7D1F2A32D91868203A20238F
:10A9900003FA02F242F01802C26000232B60336017
:10A9A0003368896943F010033360284660F0CCFFB8
:10A9B00023683046D96960F0C7FF2B68226843F0EE
:10A9C00001032B603368526843F0010333609388BE
:10A9D0009BB243F003039380F8BD17682038202210
:10A9E00002FA00F040F01800F8601A7D1F2ACCD857
:10A9F0001868202303FA02F242F018028260CCE7C2
:10AA0000137D90611F2B1CD81068202202FA03F3DB
:10AA100043F01803836000232B602B68896943F09F
:10AA200010032B60284660F08FFF2B68226843F0EC
:10AA3000010352682B6093889BB243F0020393801A
:10AA4000F8BD1068203B202202FA03F343F01803FC
:10AA5000C360E0E72DE9F843DFF81892834F06461C
:10AA6000356896F888806B68B088012285F82420C4
:10AA70001A8822F040021204120C1A802A8982429B
:10AA800023D0198821F0380109044B454FEA1141C0
:10AA900000F0B980764A934200F0B5800246B2F5E4
:10AAA000807FA8BF4FF48072022AB8BF0222002A1A
:10AAB00092FAA2F2B2FA82F208BF4FF0FF32013AE4
:10AAC00041EAC20292B21A802881317BAA7A8A4274
:10AAD0000CD01A8822F003021204120C1A801A8871
:10AAE00092B2002900F08C801A80A9721A8892B262
:10AAF00042F040021A802A6A9168002900F0AB8077
:10AB00004FF0000E1432F44652F8100C8C4400EA58
:10AB1000070120B1B1F1805F20D06969F1B152F82D
:10AB2000141C143201EA070011B1B0F1805F15D096
:10AB300052F80C1C0EF1010E0029E5D12A7B002AE7
:10AB400077D0B8F1000F09D0BEF1010F76D8BCF173
:10AB5000070F73D82A6A127B002A6FD02A6A92687C
:10AB60000021002A59D009B10A7B22B1B26812B182
:10AB7000116892884A832A6A14682A6A51682A6A84
:10AB80009268501E9AB12CB3224612F801CB14469B
:10AB90001A899207FCD5A3F80CC01A89D207FCD5F4
:10ABA0009A8992B209B101F8012B0138EBD22B6AD4
:10ABB0001B7BF3B92B6A1B6993B12B6AD6F89400FF
:10ABC0001B699847012808D0022809D100232B626D
:10ABD000BDE8F8834FF0FF0CDAE72B6A143B2B62D9
:10ABE000296A2B6A14332B622B6A9B686BB16B68E2
:10ABF000B9E7B368002BDDD01A689B881383D9E7C7
:10AC000042F0030270E7420849E731B10B7B23B9F8
:10AC1000B36813B11A689B8813832B6A1B681BB334
:10AC20002B6A1E682B6A5A682B6A2A6200221A60F5
:10AC300016E72A6A9268002A95D1EEE7002130468D
:10AC4000FFF754FEB36813B11A689B8853833046EC
:10AC5000BDE8F84382E62A7B002A3FF47FAFB8F1D3
:10AC6000000F7FF477AF79E72B62B1E70000FFFFB9
:10AC7000003C00400038004038B5D0F8E0102C4BC4
:10AC800004465A68D0F8D80071B1131A99420BDC07
:10AC900094F8D030C4F8D820012B10D0D4F8D43098
:10ACA0000133C4F8D43038BDD4F8E430C4F8D82027
:10ACB0000344C4F8DC3094F8D030012BEED1616845
:10ACC000201D04F1E805EFF3118C102383F31288A3
:10ACD00063681B6A0BB3D4F8F0302A461BB1D36902
:10ACE0001432002BFBD10B6AFBB1996839B993423E
:10ACF00009D0196829B15B6899680029F7D0143325
:10AD0000F3E7C3E900055FFA8CFC8CF31188D4F8F3
:10AD1000D4300133C4F8D43038BD0D625FFA8CFCF6
:10AD20008CF31188FFF796FEB8E71860FFDE00BFCE
:10AD3000001000E0F0B58569296995F84C210B7881
:10AD4000012B97B0044606D0022B01D10B6A2BB31E
:10AD5000002017B0F0BD91F90460731CF8D0022EEA
:10AD6000F6DC04AB297D009330460623FFF71AFC7E
:10AD70000028EDD03046FFF777FB0028E8D0BDF87B
:10AD80001010BDF81220BDF8143049BA52BA5BBA9F
:10AD90000120E1812282638217B0F0BD62F07F0260
:10ADA0008DF80F200DF10F0206920122CDE9073236
:10ADB000CDE90A338DF824308DF838208DF84C20F9
:10ADC0000F9304AA129314930623CDE90C230022B7
:10ADD0000023CDE9102305F11000EFF311861023B5
:10ADE00083F312882B691B6AFBB1089B06AF3A46B6
:10ADF0001BB1D3691432002BFBD10B6AEBB19968FC
:10AE000039B9934209D0196829B15B68996800295A
:10AE1000F7D01433F3E7C3E90007F6B286F31188DD
:10AE20002A69136A002BFCD1A9E706ABF6B20B62C4
:10AE300086F31188FFF70EFEF2E71860FFDE00BF11
:10AE400070B5016990F84D210B78012B96B004463E
:10AE500006D0022B01D10B6A43B3002016B070BD9F
:10AE600091F904506B1CF8D0022DF6DC04AB017D87
:10AE7000009328460623FFF795FB0028EDD02846CF
:10AE8000FFF7F2FA0028E8D0BDF81010BDF8122044
:10AE9000BDF8143049BA52BA5BBA0120A4F8D010F8
:10AEA000A4F8D220A4F8D43016B070BD62F07F02AE
:10AEB0008DF80F200DF10F0206920122CDE9073225
:10AEC000CDE90A338DF824308DF838208DF84C20E8
:10AED0000F9304AA129314930623CDE90C230022A6
:10AEE0000023CDE910231030EFF31185102383F3F5
:10AEF000128823691B6AFBB1089B06AE32461BB160
:10AF0000D3691432002BFBD10B6AEBB1996839B9C4
:10AF10009A4209D0196829B15B6899680029F7D06D
:10AF20001433F3E7C3E90006EDB285F31188226913
:10AF3000136A002BFCD1A7E706AB0B62EDB285F3D9
:10AF40001188FFF787FDF2E71860FFDE2DE9F04179
:10AF5000826992F8DC30012B8AB005464DD0023B65
:10AF6000012B55D892F84C31D2F89C20304C63F02C
:10AF70007F0313708669D6F8A030D6F8108003F1ED
:10AF8000010E0FCCEC46ACE80F00D6F89C30CDE9B2
:10AF9000003E0FCCACE80F0094E8030006F1100768
:10AFA0008CE80300EFF31180102383F312883369D8
:10AFB0001B6A002B30D0029B6A461BB1D369143246
:10AFC000002BFBD1D8F82030002B2ED0996839B94E
:10AFD00093420AD0196829B15B6899680029F7D0B3
:10AFE0001433F3E71F60C3F804D0C0B280F31188B4
:10AFF000AA6911690B6A002BFCD1D2F8A0305A88DB
:10B0000052BAEA819A8852BA2A82DB885BBA6B828A
:10B0100001200AB0BDE8F081C8F820D0C0B280F3AA
:10B0200011883846FFF716FDE2E71F60FFDE00BF1C
:10B0300098AC07082DE9F04190F8DC30D0F8A0502A
:10B04000012B8AB0044659D016D8D0F89C304FF066
:10B05000FF321A605A609A60DA60D0F8E030052258
:10B06000B3F57A7FC0F8F0207DD8032380F8DC3078
:10B0700001200AB0BDE8F081023B012BF8D890F81E
:10B080004D31D0F89C20544E63F07F031370D0F8FC
:10B09000A030D0F8108003F1010E00F110070FCEA0
:10B0A000EC46ACE80F00D4F89C30CDE9003E0FCE62
:10B0B000ACE80F0096E803008CE80300EFF3118082
:10B0C000102383F3128823691B6A002B74D0029B20
:10B0D0006A461BB1D3691432002BFBD1D8F820305B
:10B0E000002B76D0996839B9934225D0196801B3FD
:10B0F0005B6899680029F7D01433F3E790F84C2186
:10B1000090F84D319B1A5B100133DBB205EB430223
:10B1100035F813305BBAA0F8D03053885BBAA0F88A
:10B12000D23093885BBAA0F8D43001200AB0BDE8D1
:10B13000F0811F60C3F804D0C0B280F31188226987
:10B14000136A002BFCD16B885BBAA4F8D030AB88B3
:10B150005BBAA4F8D230EB8801205BBAA4F8D430F3
:10B160000AB0BDE8F08103691A7B72B35B6963B30F
:10B1700090F898304BB390F84C31D0F89C20C4F83C
:10B18000A40063F07F03137090F84C1190F84D31D8
:10B19000D0F8A0201148C4F804015B1A073301213C
:10B1A000C4F8FC30D4F89C3084F800110A44C4E997
:10B1B0003D3284F8DC105BE7C8F820D0C0B280F3E1
:10B1C00011883846FFF746FCB9E7022384F8DC30E3
:10B1D0004EE71F60FFDE00BF98AC07088D800008B7
:10B1E0002DE9F04FA34C94F8952995B0002A40F032
:10B1F0002A8102F0FF03FF228DF80F200DF10F02CC
:10B20000CDE90423CDE90833CDE90A330D930123B9
:10B210000168069306468DF81C308DF83030EFF348
:10B220001185102383F3128803681B6A002B00F03A
:10B230000E81069B04AF3A461BB1D3691432002B32
:10B24000FBD10B6A002B00F01281996839B9934247
:10B2500009D0196829B15B6899680029F7D01433BF
:10B26000F3E7C3E90067EDB285F311883268136A2A
:10B27000002BFCD1804D01974FF064084FF010096E
:10B280004FF0E0224FF47A7C4FF0010AB3466B682E
:10B29000C3F30803002B40F09F80EFF31183002BD2
:10B2A00040F09A80D4F848359069D4F848158B421C
:10B2B000F8D1D4F8A0198842F4D8D4F89CE90CFB52
:10B2C0000EF1091AB1FBFEF10CFB03116B68C3F31D
:10B2D0000803002B63D1EFF31183002B5FD1D4F867
:10B2E00048059669D4F848359842F8D1D4F8A03981
:10B2F0009E42F4D8D4F89C790CFB07F39B1BB3FB5C
:10B30000F7F30CFB00335B1AB3F57A7FDED3B8F1A9
:10B310000108BCD10DF10F030A93012306930B938F
:10B320008DF830308DF8443080238DF80E300DF1DB
:10B330000E03049300220023CDE90888CDE90E23F3
:10B34000019FDBF80010CDF814805E468DF81C805C
:10B35000CDF83480CDF84080CDF84880EFF31180EF
:10B36000102383F31288DBF800301B6A002B76D0A1
:10B37000069B3A461BB1D3691432002BFBD10B6AF2
:10B38000002B74D0996841B9934247D019680029BD
:10B3900042D05B6899680029F6D01433F2E7EFF3E6
:10B3A000118689F3128897691369DB0344BFC4F8D7
:10B3B00098A99769D4F84835D4F89809F6B286F375
:10B3C0001188D4F89C6918440CFB06F3DB1BB3FB13
:10B3D000F6F30CFB003396E7EFF3118089F3128844
:10B3E000D2F818E01369D90344BFC4F898A9D2F879
:10B3F00018E0D4F84835D4F89819C0B280F3118811
:10B40000D4F89C090B440CFB00F1A1EB0E01B1FB3D
:10B41000F0F10CFB031159E7C3E90067C0B280F3F8
:10B4200011883268106A0028FCD19DF80F20D12ABB
:10B4300002D015B0BDE8F08F01230E2084F89539B5
:10B4400015B0BDE8F08F0E2015B0BDE8F08F04AF49
:10B45000EDB20F6285F31188FFF7FCFA06E70F6281
:10B46000C0B280F311885846FFF7F4FAD9E71E609E
:10B47000FFDE00BFE81D002000ED00E038B5044607
:10B480002549D0F8D83094F8D020D0F8E4004968A5
:10B490000344012AC4E9361305D0D4F8D43001336B
:10B4A000C4F8D43038BD6168201D04F1E805EFF31D
:10B4B000118C102383F3128863681B6A0BB3D4F8D2
:10B4C000F0302A461BB1D3691432002BFBD10B6A32
:10B4D000FBB1996839B9934209D0196829B15B6801
:10B4E00099680029F7D01433F3E7C3E900055FFA40
:10B4F0008CFC8CF31188D4F8D4300133C4F8D430E8
:10B5000038BD0D625FFA8CFC8CF31188FFF7A2FA4C
:10B51000C3E71860FFDE00BF001000E02DE9F04730
:10B52000866996F8DC30012B8AB005465CD0023B78
:10B53000012B55D8D6F89C30394C92221A70D6F887
:10B540009C30876903F1010AD6F8A030D7F8109033
:10B5500003F101080FCCEC46ACE80F000FCCACE8CF
:10B560000F0094E80300CDE900A88CE8030007F180
:10B57000100EEFF31180102383F312883B691B6ACE
:10B58000002B40D0029B6A461BB1D3691432002BBA
:10B59000FBD1D9F82030002B3ED0996839B99342BD
:10B5A0000BD0196829B15B6899680029F7D014336A
:10B5B000F3E7C3F800E0C3F804D0C0B280F3118809
:10B5C000AB691A69136A002BFCD1D6F8A030B3F925
:10B5D0000220EA81B3F904202A82B3F906306B8293
:10B5E00001200AB0BDE8F087D6F8A030B3F90820F2
:10B5F000C281B3F90A200282B3F90C3043820120E0
:10B600000AB0BDE8F087C9F820D0C0B280F3118835
:10B610007046FFF71FFAD3E7C3F800E0FFDE00BF74
:10B6200098AC07082DE9F04390F8DC30D0F8A05032
:10B63000012B8BB0044661D015D8D0F89C30002285
:10B640001A605A609A609A81D0F8E0300522B3F50A
:10B650007A7FC0F8F02061D8032380F8DC30012025
:10B660000BB0BDE8F083023B012BF8D8D0F89C303A
:10B67000424E8C225A70D0F89C30D0F8109003F1D2
:10B680000108D0F8A03000F1100703F1010E0FCE31
:10B69000EC46ACE80F000FCEACE80F0096E80300D4
:10B6A000CDE9008E8CE80300EFF31180102383F3C3
:10B6B000128823691B6A002B50D0029B6A461BB17B
:10B6C000D3691432002BFBD1D9F82030002B52D093
:10B6D000996839B993420AD0196829B15B689968A9
:10B6E0000029F7D01433F3E71F60C3F804D0C0B2C9
:10B6F00080F311882269136A002BFCD1B5F902305E
:10B70000A4F8D030B5F90430A4F8D230B5F9063039
:10B71000A4F8D43001200BB0BDE8F08303691A7B94
:10B720002AB35B691BB390F8983003B3D0F89C3010
:10B73000C4F8A4008C225A70D0E9272301211048B4
:10B74000C4F804010D250A440B44C4E93D23C4F8A0
:10B75000FC5084F8001184F8DC1080E7C9F820D090
:10B76000C0B280F311883846FFF774F9C2E70223AC
:10B7700084F8DC3073E71F60FFDE00BF98AC070879
:10B78000818800082DE9F04FC34C97B094F8A43994
:10B79000029013B994F8953953BB029F97F8213161
:10B7A000002B40F09C812268BC4BB3EB920F80F0E1
:10B7B0007E86B3EBD20F80F07D86B3EB121F80F054
:10B7C0007F86B3EB521F80F07886B3EB921F80F038
:10B7D0007D86B3EBD21F80F07686B3EB122F34BF99
:10B7E0004FF480738023029A938217B0BDE8F08FE4
:10B7F000103015227E21039019F02EFD0398A84EDB
:10B800004FF064084FF0100C4FF0E0224FF47A71C3
:10B810004FF0010E83467368C3F30803002B40F01A
:10B820004181EFF31183002B40F03C81D4F848357F
:10B830009769D4F84855AB42F8D1D4F8A059AF4233
:10B84000F4D8D4F89C0901FB00F5ED1BB5FBF0F52D
:10B8500001FB03557368C3F30803002B40F0C3805A
:10B86000EFF31183002B40F0BE80D4F848059769B0
:10B87000D4F848359842F8D1D4F8A0399F42F4D88A
:10B88000D4F89CA901FB0AF3DB1BB3FBFAF301FB21
:10B8900000335B1BB3F57A7FDCD3B8F10108BAD172
:10B8A000584611227E21CDF80CB019F0D5FC039832
:10B8B0007B4E4FF0050C4FF0100E4FF0E0224FF48E
:10B8C0007A714FF0010883467368C3F30803002BB5
:10B8D00040F0C580EFF31183002B40F0C080D4F816
:10B8E00048359769D4F84855AB42F8D1D4F8A059F7
:10B8F000AF42F4D8D4F89C0901FB00F5ED1BB5FB71
:10B90000F0F501FB03557368C3F30803002B40F007
:10B910008880EFF31183002B40F08380D4F8480532
:10B920009769D4F848359842F8D1D4F8A0399F42A5
:10B93000F4D8D4F89CA901FB0AF3DB1BB3FBFAF3A0
:10B9400001FB00335B1BB3F57A7FDCD3BCF1010C48
:10B95000BAD1832302998DF8163001230DF1160612
:10B9600008930D938DF838308DF84C300DF1170594
:10B9700000220023CDE9066CCDE90ACCCDE91023E5
:10B98000D1F810E08DF824C05846CDF83CC0CDF871
:10B9900048C0CDF850C00C95EFF3118C102383F301
:10B9A00012880B691B6A002B00F07285089B0DF151
:10B9B000180841461BB1CB691431002BFBD1DEF8CE
:10B9C0002030002B00F085859A6852B98B4200F038
:10B9D000C9801A68002A00F0C3805B689A68002A50
:10B9E000F4D01433F0E7EFF311898CF312889069E7
:10B9F0001369DF0344BFC4F898E99069D4F8483567
:10BA0000D4F898795FFA89F989F31188D4F89C9968
:10BA10001F4401FB09F31B1AB3FBF9F301FB0733C6
:10BA200037E7EFF311898EF3128890691369DF030A
:10BA300044BFC4F898899069D4F84835D4F8987907
:10BA40005FFA89F989F31188D4F89C991F4401FBA6
:10BA500009F31B1AB3FBF9F301FB073372E7EFF3AA
:10BA600011858EF3128890691369DB0344BFC4F813
:10BA700098899069D4F84875D4F89839EDB285F36F
:10BA800011883B44D4F89C7901FB07F52D1AB5FBCE
:10BA9000F7F501FB035536E7E81D00208096980076
:10BAA00000ED00E0EFF311858CF3128890691369C3
:10BAB000DB0344BFC4F898E99069D4F84875D4F81A
:10BAC0009839EDB285F311883B44D4F89C7901FB99
:10BAD00007F52D1AB5FBF7F501FB0355BAE61D096D
:10BAE000013D052D03F00F0300F26E84184E06EBA6
:10BAF0004502B2F8000140FA03F2D20740F1648433
:10BB0000012202FA03F3013B18406DF03DF873196E
:10BB1000104D93F80C31104A184405EBC005394616
:10BB20002623EB80002341F80C2F28460093F022B7
:10BB30001AF0C2FEAA884FF00043B2FA82F2D34054
:10BB40003FF431AE05490A6813430B602BE600BF92
:10BB50004CAB0708002400207DB40008003C0140E5
:10BB6000C3E900085FFA8CF383F31188029B1A691A
:10BB7000136A002BFCD19DF8173003F03C03142B03
:10BB80007FF40BAE2B224021039019F065FBCB4BC9
:10BB900003985B68C3F30803002B40F0A281EFF326
:10BBA0001183002B40F09D814FF0E02CD4F84835F4
:10BBB000DCF81810D4F848259342F7D1D4F8A0291E
:10BBC0009142F3D8D4F89CC9DFF8F0A24FF47A720E
:10BBD00002FB0CFEAEEB010E4FF47A79BEFBFCFECD
:10BBE0004FF0E02102FB03EE4FF0100BDAF80430C7
:10BBF000C3F30803002B40F08E81EFF31183002B79
:10BC000040F08981D4F848358F69D4F848259342AB
:10BC1000F8D1D4F8A0299742F4D8D4F89CC909FBEC
:10BC20000CF2D21BB2FBFCF209FB0323A3EB0E03C5
:10BC3000B3F57A7FDAD394F8A939013BDBB2022B52
:10BC400000F2E4819E4A134493F8742142F00D02FD
:10BC50004221039019F000FB984B03985B68C3F3F3
:10BC60000803002B40F0D683EFF31183002B40F044
:10BC7000D1834FF0E02CD4F84835DCF81810D4F814
:10BC800048259342F7D1D4F8A0299142F3D8D4F8AB
:10BC90009CC9DFF828A24FF47A7202FB0CFEAEEBCF
:10BCA000010E4FF47A79BEFBFCFE4FF0E02102FB5F
:10BCB00003EEDAF80430C3F30803002B40F0878169
:10BCC000EFF31183002B40F08281D4F848358F695F
:10BCD000D4F848259342F8D1D4F8A0299742F4D853
:10BCE000D4F89CC909FB0CF2D21BB2FBFCF209FB95
:10BCF0000323A3EB0E03B3F57A7FDAD308224121A5
:10BD0000039019F0A9FA6D4B03985B68C3F308031D
:10BD1000002B40F06583EFF31183002B40F060832C
:10BD20004FF0E02CD4F84835DCF81810D4F848254A
:10BD30009342F7D1D4F8A0299142F3D8D4F89CC902
:10BD4000DFF878A14FF47A7202FB0CFEAEEB010E25
:10BD50004FF47A79BEFBFCFE4FF0E02102FB03EECC
:10BD6000DAF80430C3F30803002B40F01181EFF33D
:10BD70001183002B40F00C81D4F848358F69D4F83A
:10BD800048259342F8D1D4F8A0299742F4D8D4F8A2
:10BD90009CC909FB0CF2D21BB2FBFCF209FB03238A
:10BDA000A3EB0E03B3F57A7FDAD30022432103908D
:10BDB00019F052FA414B03985B68C3F30803002B58
:10BDC00040F04C83EFF31183002B40F047834FF09A
:10BDD000E02CD4F84835DCF81810D4F84825934204
:10BDE000F7D1D4F8A0299142F3D8D4F89CC9DFF850
:10BDF000CCA04FF47A7202FB0CFEAEEB010E4FF4B6
:10BE00007A79BEFBFCFE4FF0E02102FB03EEDAF88C
:10BE10000430C3F30803002B40F09B80EFF3118341
:10BE2000002B40F09680D4F848358F69D4F8482527
:10BE30009342F8D1D4F8A0299742F4D8D4F89CC9F9
:10BE400009FB0CF2D21BB2FBFCF209FB0323A3EBB0
:10BE50000E03B3F57A7FDAD30023CDE90A330793D3
:10BE60008DF824300F9312931493012306960893B0
:10BE7000029E0D938DF838308DF84C30F7238DF8F5
:10BE80001630002200230C95CDE910233569EFF31D
:10BE90001181102383F3128833691B6A002B00F091
:10BEA000D382089B42461BB1D3691432002BFBD1CD
:10BEB0002B6A002B00F00D8304E000BF00ED00E0D2
:10BEC0004CAB07089D6855B9934200F0A3801D68EC
:10BED000002D00F09D805B689D68002DF4D0143328
:10BEE000F0E7EFF31182102383F312884FF0E02381
:10BEF0009969D3F810C01CF4803F03D00121C4F825
:10BF000098199969D4F848E5D4F89839D2B282F3EF
:10BF10001188734456E6EFF311838BF312888F690F
:10BF20000A69D20303D50122C4F898298F69D4F88D
:10BF30004825D4F898C9DBB283F311886244D4F859
:10BF40009CC909FB0CF3DB1BB3FBFCF309FB0233BD
:10BF50006CE6EFF31183102282F312888F690A696D
:10BF6000D20303D50122C4F898298F69D4F8482553
:10BF7000D4F898C9DBB283F311886244D4F89CC921
:10BF800009FB0CF3DB1BB3FBFCF309FB02335EE79D
:10BF9000EFF31183102282F312888F690A69D203AA
:10BFA00003D50122C4F898298F69D4F84825D4F81C
:10BFB00098C9DBB283F311886244D4F89CC909FBA9
:10BFC0000CF3DB1BB3FBFCF309FB0233E8E6EFF3F6
:10BFD0001183102282F312888F690A69D20303D574
:10BFE0000122C4F898298F69D4F84825D4F898C953
:10BFF000DBB283F311886244D4F89CC909FB0CF3CB
:10C00000DB1BB3FBFCF309FB023372E60D221FE6D8
:10C01000C3E90008C9B281F31188029B1A69136A47
:10C02000002BFCD19DF817200390772142F0C0022D
:10C0300019F012F903981022512119F00DF9BE4B95
:10C0400003985B68C3F30803002B40F09A81EFF379
:10C050001183002B40F095814FF0E025D4F848354E
:10C06000A969D4F848259342F8D1D4F8A02991427F
:10C07000F4D8D4F89C594FF47A7202FB05F6761A7C
:10C08000B6FBF5F602FB0366DFF8ACE24FF0E02505
:10C090004FF47A7C4FF010094FF00108DEF80430BD
:10C0A000C3F30803002B40F00681EFF31183002B4C
:10C0B00040F00181D4F84825A969D4F84835934265
:10C0C000F8D1D4F8A0298A42F4D3D4F89C790CFB97
:10C0D00007F2521AB2FBF7F20CFB03239B1BB3F5DA
:10C0E0007A7FDBD30A225321039019F0B5F8924BE3
:10C0F00003985B68C3F30803002B40F01F81EFF344
:10C100001183002B40F01A814FF0E025D4F8483518
:10C11000A969D4F848259342F8D1D4F8A0299142CE
:10C12000F4D8D4F89C594FF47A7202FB05F6761ACB
:10C13000B6FBF5F602FB0366DFF8FCE14FF0E02505
:10C140004FF47A7C4FF010094FF00108DEF804300C
:10C15000C3F30803002B40F09180EFF31183002B11
:10C1600040F08C80D4F84825A969D4F8483593422A
:10C17000F8D1D4F8A0299142F4D8D4F89C790CFBDA
:10C1800007F2521AB2FBF7F20CFB03239B1BB3F529
:10C190007A7FDBD38022562119F05EF8664B5B680C
:10C1A000C3F30803002B40F0A380EFF31183002BAF
:10C1B00040F09E804FF0E020D4F848358169D4F8F3
:10C1C00048259342F8D1D4F8A0298A42F4D3D4F870
:10C1D0009C094FF47A7202FB00F56D1AB5FBF0F57D
:10C1E00002FB0355DFF850C14FF0E0204FF47A76A0
:10C1F0004FF010084FF0010EDCF80430C3F30803D1
:10C20000FBB9EFF31183E3B9D4F848358169D4F869
:10C2100048259342F8D1D4F8A0298A42F4D3D4F81F
:10C220009C7906FB07F2521AB2FBF7F206FB0323D6
:10C230005B1BB3F57A7FDFD3012384F8A439FFF7C2
:10C24000ACBAEFF3118388F3128881690269D703CE
:10C2500002D5C4F898E98169D4F84875D4F89829CA
:10C26000DBB283F311883A44D4F89C7906FB07F3D8
:10C270005B1AB3FBF7F306FB0233D9E7EFF3118345
:10C2800089F31288A9692A69D70302D5C4F8988965
:10C29000A969D4F84875D4F89829DBB283F31188DA
:10C2A0003A44D4F89C790CFB07F35B1AB3FBF7F321
:10C2B0000CFB02336AE7EFF3118389F31288A96953
:10C2C0002A69D70302D5C4F89889A969D4F84875B2
:10C2D000D4F89829DBB283F311883A44D4F89C79D6
:10C2E0000CFB07F35B1AB3FBF7F30CFB0233F5E629
:10C2F000EFF31182102383F312884FF0E023996942
:10C300001869C00303D50121C4F898199969D4F8B4
:10C310004835D4F89859D2B282F31188D4F89C09E0
:10C320004FF47A721D4402FB00F35B1AB3FBF0F387
:10C3300002FB053556E700BF00ED00E0EFF3118288
:10C34000102383F312884FF0E02399691D69ED03F0
:10C3500003D50121C4F898199969D4F84835D4F85F
:10C360009869D2B282F31188D4F89C594FF47A724A
:10C370001E4402FB05F35B1AB3FBF5F302FB063622
:10C38000DAE6EFF31182102383F312884FF0E023F3
:10C3900099691D69ED0303D50121C4F898199969BC
:10C3A000D4F84835D4F89869D2B282F31188D4F819
:10C3B0009C594FF47A721E4402FB05F35B1AB3FBDF
:10C3C000F5F302FB06365FE60299434B41F80C3F5A
:10C3D000002300931846F0221AF06EFAFFF7E3B933
:10C3E000EFF31182102383F312884FF0E023996951
:10C3F000D3F810C01CF4803F03D00121C4F8981971
:10C400009969D4F848E5D4F89839D2B282F3118802
:10C41000734493E4EFF31182102383F312884FF0F7
:10C42000E0239969D3F810C01CF4803F03D00121A8
:10C43000C4F898199969D4F848E5D4F89839D2B273
:10C4400082F31188734422E4C5F82080C9B281F3D5
:10C4500011880390FEF7FEFA0398DEE5EFF31182F0
:10C46000102383F312884FF0E0239969D3F810C0AA
:10C470001CF4803F03D00121C4F898199969D4F8BD
:10C4800048E5D4F89839D2B282F311887344ACE409
:10C490000DF118085FFA8CF3CEF8208083F3118831
:10C4A000CDF80CB0FEF7D6FA0398FFF75FBB022376
:10C4B000FFF799B90423FFF796B91023FFF793B953
:10C4C0000823FFF790B94023FFF78DB92023FFF72A
:10C4D0008AB91860FFDE00BF7DB400082DE9F04F77
:10C4E000836893B0054613B11A689B885383BF4B8A
:10C4F0005B68C3F30803002B40F00481EFF3118362
:10C50000002B40F0FF80BA4B4FF0E024D3F84825D1
:10C51000A069D3F848158A42F8D1D3F8A01981420E
:10C52000F4D3D3F89C694FF47A7404FB06F1091A2A
:10C53000B1FBF6F104FB0211AC4E4FF0E0204FF4DA
:10C540007A744FF0100C01277268C2F30802002AB7
:10C5500040F09F80EFF31182002A40F09A80D3F8D8
:10C560004885D0F818E0D3F848259045F7D1D3F89E
:10C57000A0299645F3D8D3F89C9904FB09F2A2EBC5
:10C580000E02B2FBF9F204FB0822521AB2F57A7FCE
:10C59000DAD3AA6812B1116892880A8393480A24F0
:10C5A00010264FF0E0214FF47A7C4FF0010B4268E7
:10C5B000C2F30802002A40F08E80EFF31182002AB5
:10C5C00040F08980D3F84825D1F81880D3F8487511
:10C5D000BA42F7D1D3F8A079B845F3D8D3F89C99EB
:10C5E0000CFB09FEAEEB080EBEFBF9FE0CFB02EEE7
:10C5F0004268C2F3080252BBEFF311823ABBD3F890
:10C600004875D1F81890D3F848259742F7D1D3F858
:10C61000A0299145F3D8D3F89CA90CFB0AF2A2EB10
:10C620000902B2FBFAF20CFB0722A2EB0E02B2F5F2
:10C630007A7FDDD3013CBAD12B68ADF804401A6A89
:10C64000002A00F08480204613B0BDE8F08FEFF39D
:10C65000118986F31288D1F818A00A69D20344BF61
:10C66000C3F898B9D1F818A0D3F84825D3F8987929
:10C670005FFA89F989F3118807EB0208D3F89C79EE
:10C680000CFB07F2A2EB0A02B2FBF7F20CFB08224A
:10C69000CBE7EFF311828CF31288D0F81880D0F832
:10C6A00010E01EF4803F03D0C3F89879D0F81880CA
:10C6B000D3F84895D3F898E9D2B282F31188CE44E2
:10C6C000D3F89C9904FB09F2A2EB0802B2FBF9F241
:10C6D00004FB0E2259E7EFF3118E86F31288D1F88E
:10C6E00018800A69D70344BFC3F898B9D1F81880F5
:10C6F000D3F84895D3F898295FFA8EFE8EF3118807
:10C700004A446BE7EFF31181102383F312884FF053
:10C71000E0229069136913F4803F354B03D0012068
:10C72000C3F898099069D3F84845D3F89829C9B255
:10C7300081F31188D3F89C6911194FF47A7404FBC2
:10C7400006F2121AB2FBF6F204FB0121F4E6802194
:10C750008DF803100DF10301029101A90891022146
:10C760000122099100200021CDE90342CDE90644D0
:10C77000CDE90C018DF814408DF828208DF83C206F
:10C780000B940E941094EFF31182102181F3128810
:10C790002968096A00292DD0049902A8002932D0FD
:10C7A0000146CC691431002CFBD11B6A002B2CD024
:10C7B0009C683CB9994209D01C682CB15B689C68A4
:10C7C000002CF7D01433F3E7C3E90050D2B282F360
:10C7D00011882B681A6A002AFCD19DF80530242B99
:10C7E00014BF00200F2013B0BDE8F08F00ED00E073
:10C7F000E81D002002A91962D2B282F311882846EE
:10C80000FEF728F9E5E70146CFE71D60FFDE00BF30
:10C8100038B504462549D0F8D83094F8D020D0F85F
:10C82000E40049680344012AC4E9361305D0D4F86A
:10C83000D4300133C4F8D43038BD6168201D04F110
:10C84000E805EFF3118C102383F3128863681B6AE9
:10C850000BB3D4F8F0302A461BB1D3691432002B45
:10C86000FBD10B6AFBB1996839B9934209D01968B9
:10C8700029B15B6899680029F7D01433F3E7C3E95D
:10C8800000055FFA8CFC8CF31188D4F8D4300133A6
:10C89000C4F8D43038BD0D625FFA8CFC8CF311887B
:10C8A000FEF7D8F8C3E71860FFDE00BF001000E015
:10C8B0002DE9F041866996F8DC30012B8AB00546F7
:10C8C0004AD0023B012B52D8D6F89C302F4C8C22F8
:10C8D0001A70D0F818800FCCEC46D8F810E0ACE80D
:10C8E0000F00D6F89C300093D6F8A03001930FCCFF
:10C8F000ACE80F0094E8030008F110078CE803008F
:10C90000EFF31180102383F31288D8F810301B6ADC
:10C91000002B30D0029B6A461BB1D3691432002B26
:10C92000FBD1DEF82030002B2ED0996839B9934224
:10C930000AD0196829B15B6899680029F7D01433C7
:10C94000F3E71F60C3F804D0C0B280F31188AB696D
:10C950001A69136A002BFCD1D6F8A030B3F9022073
:10C96000EA81B3F904202A82B3F906306B820120F0
:10C970000AB0BDE8F081CEF820D0C0B280F31188B3
:10C980003846FEF767F8E2E71F60FFDEC4AC070831
:10C990002DE9F04190F81E31032B8AB0044671D086
:10C9A00090F8DC30D0F8A060012B00F0CC8016D8D5
:10C9B000D0F89C3000221A605A609A609A81D0F8B0
:10C9C000E0300522B3F57A7FC0F8F0204DD803237C
:10C9D000012580F8DC3028460AB0BDE8F081023B32
:10C9E000012B4AD8D0F89C30DFF844E292221A702A
:10C9F000D0F8108000F11007BEE80F006D46AC467D
:10CA0000ACE80F00BEE80F00ACE80F009EE80300A2
:10CA1000D4F89C308CE803000093D4F8A030019344
:10CA2000EFF31180102383F3128823691B6A002B14
:10CA300000F0E880029B2A461BB1D3691432002B18
:10CA4000FBD1D8F82030002B00F0E580996851B96F
:10CA50009A4200F08B801968002900F085805B689D
:10CA600099680029F4D01433F0E703691A7B002A8F
:10CA700040F0A580022384F8DC30012528460AB066
:10CA8000BDE8F0816648674900230122CDE9000135
:10CA90000A210291CDE90433CDE9063321698DF8ED
:10CAA0000C2004F110068DF820200993EFF311807B
:10CAB000102383F3128823691B6A002B6ED0029B1C
:10CAC0006D462A461BB1D3691432002BFBD10B6A89
:10CAD000002B00F0A280996839B9934209D01968F7
:10CAE00029B15B6899680029F7D01433F3E7C3E9EB
:10CAF0000065C0B280F311882269136A002BFCD153
:10CB00004949B1F8CE29052A1BDDB1F9D009D1F880
:10CB1000D059B1F9D279B1F9D41910F5004F46D0F6
:10CB2000C4F8D050A4F8D4100125063A002AA5D0A4
:10CB30003046B0227E2118F08FFB28460AB0BDE8AF
:10CB4000F0811D46F2E7B6F90820A0F8D020B6F92A
:10CB50000A20A0F8D220B6F90C20A0F8D4201D4657
:10CB600028460AB0BDE8F081C3E90075C0B280F381
:10CB700011882269136A002BFCD1B6F90230A4F89F
:10CB8000D030B6F90430A4F8D230B6F90630A4F8A3
:10CB9000D430012528460AB0BDE8F081C1F820D084
:10CBA000C0B280F311883046FDF754FFA4E717F5B3
:10CBB000004FB5D111F5004FB2D11D46B5E75B6905
:10CBC000002B3FF457AF90F89850002D3FF452AF30
:10CBD000D0F89C30C4F8A4008C221A70D0F8A020A1
:10CBE000C0F8F8200E2201231049C0F8FC20D0F82C
:10CBF0009C20C0F80411C0F8F42080F8003180F8BF
:10CC0000DC303BE7C8F82050C0B280F311883846CA
:10CC1000FDF720FFADE71F60FFDE1E60FFDE00BFF7
:10CC20009C010020B4270020E81D0020AD880008EA
:10CC3000C4AC07082DE9F04F054697B000F1100786
:10CC400095F81E310393B62238467E2118F004FB76
:10CC5000C54CC64807EE907A4FF0640A4FF01008B2
:10CC60004FF0E0224FF47A7E4FF001094368C3F39E
:10CC70000803002B40F09C82EFF31183002B40F05F
:10CC80009782D4F848359669D4F848158B42F8D184
:10CC9000D4F8A0198E42F4D8D4F89C790EFB07F191
:10CCA0008E1BB6FBF7F60EFB03664368C3F308035F
:10CCB000002B40F0C681EFF31183002B40F0C181BF
:10CCC000D4F848759369D4F848158F42F8D1D4F850
:10CCD000A0198B42F4D8D4F89C190EFB01FCACEBE4
:10CCE0000303B3FBF1F30EFB07339B1BB3F57A7F12
:10CCF000DBD3BAF1010AB9D1AB6917EE907A13B15F
:10CD00001A689B885383994B5B68C3F30803002B15
:10CD100041F02E84EFF31183002B41F029844FF072
:10CD2000E026D4F84825B069D4F848359A42F8D1BD
:10CD3000D4F8A0399842F4D8ACEB0003B3FBF1F37C
:10CD40004FF47A7101FB0233884E4FF0E0214FF42B
:10CD50007A704FF0100E4FF0010C7268C2F30802A7
:10CD6000002A40F0A281EFF31182002A40F09D8159
:10CD7000D4F84895D1F81880D4F848259145F7D1D2
:10CD8000D4F8A0299045F3D8D4F89CA900FB0AF266
:10CD9000A2EB0802B2FBFAF200FB0922D21AB2F5AA
:10CDA0007A7FDAD3AB6913B11A689B881383DFF8F3
:10CDB000BC810A224FF010094FF0E0214FF47A7C39
:10CDC0004FF0010ABB46D8F80430C3F30803002B28
:10CDD00040F0D181EFF31183002B40F0CC81D4F8E7
:10CDE00048358E69D4F848058342F8D1D4F8A009B3
:10CDF0008642F4D8D4F89C790CFB07F0801BB0FB7A
:10CE0000F7F00CFB0300D8F80430C3F30803002B41
:10CE100040F02B81EFF31183002B40F02681D4F8F2
:10CE200048658F69D4F848359E42F8D1D4F8A039C6
:10CE30009F42F4D8D4F89CE90CFB0EF3DB1BB3FB48
:10CE4000FEF30CFB06331B1AB3F57A7FDBD3013AF2
:10CE5000B9D17C21584618F0FFF9444B5B68C3F305
:10CE600008035F46002B41F05F83EFF31183002B33
:10CE700041F05A834FF0E020D4F848358169D4F866
:10CE800048259342F8D1D4F8A0299142F4D8D4F897
:10CE90009C694FF47A7000FB06F2521AB2FBF6F26C
:10CEA00000FB0322314E4FF0E0214FF47A704FF037
:10CEB000100E4FF0010C7368C3F30803002B40F011
:10CEC0001681EFF31183002B40F01181D4F84895BF
:10CED000D1F81880D4F848359945F7D1D4F8A0395D
:10CEE0009845F3D8D4F89CA900FB0AF3A3EB0803F8
:10CEF000B3FBFAF300FB09339B1AB3F57A7FDAD35D
:10CF000000225921384618F0A7F9184B5B68C3F383
:10CF10000803002B41F0E482EFF31183002B41F072
:10CF2000DF824FF0E020D4F848358169D4F84825F5
:10CF30009342F8D1D4F8A0299142F4D8D4F89C694E
:10CF40004FF47A7000FB06F2521AB2FBF6F200FBC5
:10CF50000322064E4FF0E0214FF47A704FF0100E8E
:10CF60004FF0010C04E000BFE81D002000ED00E0E0
:10CF70007368C3F30803002B40F0DB80EFF31183E9
:10CF8000002B40F0D680D4F84895D1F81880D4F81A
:10CF900048359945F7D1D4F8A0399845F3D8D4F855
:10CFA0009CA900FB0AF3A3EB0803B3FBFAF300FB15
:10CFB00009339B1AB3F57A7FDAD35E238DF81730E5
:10CFC0000DF117030693002307938DF824300A937D
:10CFD0000C930F9312931493012308938DF8383018
:10CFE0008DF84C30814B0B934FF4A4730D930022BA
:10CFF0000023CDE910232969EFF31180102383F377
:10D0000012882B691B6A002B01F06383089B06AE14
:10D0100032461BB1D3691432002BFBD10B6A002BB3
:10D0200001F05284996851B9934200F0E380196885
:10D03000002900F0DD805B6899680029F4D0143382
:10D04000F0E7EFF3118188F3128893691769FF0302
:10D0500044BFC4F898999369D4F84875D4F898C92E
:10D06000C9B281F31188674435E6EFF3118789F37C
:10D070001288D1F818E00B69DB0344BFC4F898A903
:10D08000D1F818E0D4F84835D4F89869FFB287F39E
:10D090001188D4F89C791E440CFB07F3A3EB0E0314
:10D0A000B3FBF7F30CFB0633CDE6EFF311828EF3FF
:10D0B0001288D1F81890D1F8108018F4803F03D06E
:10D0C000C4F898C9D1F81890D4F84885D4F898A92C
:10D0D000D2B282F31188D044D4F89CA900FB0AF2A2
:10D0E000A2EB0902B2FBFAF200FB082256E6EFF3CC
:10D0F00011838EF31288D1F81890D1F8108018F4AB
:10D10000803F03D0C4F898C9D1F81890D4F8488566
:10D11000D4F898A9DBB283F31188D044D4F89CA941
:10D1200000FB0AF3A3EB0903B3FBFAF300FB08339C
:10D13000E2E6EFF311838EF31288D1F81890D1F85C
:10D14000108018F4803F03D0C4F898C9D1F8189023
:10D15000D4F84885D4F898A9DBB283F31188D04479
:10D16000D4F89CA900FB0AF3A3EB0903B3FBFAF381
:10D1700000FB08331DE7EFF3118689F312888F69EE
:10D180000B69D80344BFC4F898A98F69D4F848350F
:10D19000D4F89809F6B286F31188D4F89C69034450
:10D1A0000CFB06F0C01BB0FBF6F00CFB03002AE6FC
:10D1B000EFF3118188F3128897691369DB0344BF89
:10D1C000C4F898999769D4F84835D4F89869C9B2E1
:10D1D00081F31188D4F89C1933440EFB01F6F61B39
:10D1E000B6FBF1F60EFB03665FE500BFECAC07088B
:10D1F000C3E90076C0B280F311882A69136A002B54
:10D20000FCD1DFF8ECE34FF00A0A4FF010084FF0C2
:10D21000E0224FF47A764FF00109BB46DEF8043085
:10D22000C3F30803002B40F0A784EFF31183002B16
:10D2300040F0A284D4F848359069D4F848158B4260
:10D24000F8D1D4F8A0198842F4D8D4F89C7906FB18
:10D2500007F1091AB1FBF7F106FB0311DEF8043000
:10D26000C3F30803002B40F0BD83EFF31183002BC1
:10D2700040F0B883D4F848059769D4F84835984207
:10D28000F8D1D4F8A0399F42F4D8D4F89CC906FB51
:10D290000CF3DB1BB3FBFCF306FB00335B1AB3F5AB
:10D2A0007A7FDBD3BAF1010AB8D10122592158465D
:10D2B00017F0D2FFCE4B5B68C3F308035F46002B29
:10D2C00041F0EA80EFF31183002B41F0E5804FF04D
:10D2D000E020D4F848358169D4F848259342F8D144
:10D2E000D4F8A0299142F4D8D4F89C694FF47A700C
:10D2F00000FB06F2521AB2FBF6F200FB0322BC4E10
:10D300004FF0E0214FF47A704FF0100E4FF0010C07
:10D310007368C3F30803002B40F0A683EFF3118377
:10D32000002B40F0A183D4F84895D1F81880D4F8A8
:10D3300048359945F7D1D4F8A0399845F3D8D4F8B1
:10D340009CA900FB0AF3A3EB0803B3FBFAF300FB71
:10D3500009339B1AB3F57A7FDAD3039B032B00F0D2
:10D36000C586AB224021384617F076FFA04B5B689C
:10D37000C3F30803002B40F09586EFF31183002BD5
:10D3800040F090864FF0E020D4F848358169D4F819
:10D3900048259342F8D1D4F8A0299142F4D8D4F882
:10D3A0009C694FF47A7000FB06F2521AB2FBF6F257
:10D3B00000FB03228E4E4FF0E0214FF47A704FF0C5
:10D3C000100E4FF0010C7368C3F30803002B40F0FC
:10D3D0002983EFF31183002B40F02483D4F8489580
:10D3E000D1F81880D4F848359945F7D1D4F8A03948
:10D3F0009845F3D8D4F89CA900FB0AF3A3EB0803E3
:10D40000B3FBFAF300FB09339B1AB3F57A7FDAD347
:10D4100003224121384617F01FFF754B5B68C3F3A9
:10D420000803002B40F01A86EFF31183002B40F025
:10D4300015864FF0E020D4F848358169D4F84825A6
:10D440009342F8D1D4F8A0299142F4D8D4F89C6939
:10D450004FF47A7000FB06F2521AB2FBF6F200FBB0
:10D460000322634E4FF0E0214FF47A704FF0100E1C
:10D470004FF0010C7368C3F30803002B40F05A838C
:10D48000EFF31183002B40F05583D4F84895D1F881
:10D490001880D4F848359945F7D1D4F8A039984583
:10D4A000F3D8D4F89CA900FB0AF3A3EB0803B3FB61
:10D4B000FAF300FB09339B1AB3F57A7FDAD394F8B9
:10D4C000A939013BDBB2022B00F27483494A1344B1
:10D4D00093F8E822120162F03202D2B242213846B9
:10D4E00017F0BAFE424B5B68C3F30803002B40F011
:10D4F0009185EFF31183002B40F08C854FF0E020F5
:10D50000D4F848358169D4F848259342F8D1D4F845
:10D51000A0299142F4D8D4F89C694FF47A7000FBAA
:10D5200006F2521AB2FBF6F200FB0322304E4FF025
:10D53000E0214FF47A704FF0100E4FF0010C736839
:10D54000C3F30803002B40F0D382EFF31183002BC9
:10D5500040F0CE82D4F84895D1F81880D4F84835F8
:10D560009945F7D1D4F8A0399845F3D8D4F89CA9B7
:10D5700000FB0AF3A3EB0803B3FBFAF300FB093348
:10D580009B1AB3F57A7FDAD308224321384617F085
:10D5900063FE174B5B68C3F30803002B40F0148550
:10D5A000EFF31183002B40F00F854FF0E020D4F80B
:10D5B00048258169D4F848359342F8D1D4F8A02998
:10D5C0009142F4D8D4F89C694FF47A7000FB06F2CB
:10D5D000521AB2FBF6F200FB0322054E4FF0E02197
:10D5E0004FF47A704FF0100E4FF0010C04E000BFC2
:10D5F00000ED00E04CAB07087368C3F30803002B91
:10D6000040F05482EFF31183002B40F04F82D4F8A6
:10D610004835D1F81880D4F848959945F7D1D4F811
:10D62000A0394345F3D3D4F89CA900FB0AF3A3EB3C
:10D630000803B3FBFAF300FB09339B1AB3F57A7FB7
:10D64000DAD3039B032B00F0FC83042258213846D5
:10D6500017F002FECE4B5B68C3F30803002B40F0CB
:10D66000AB82EFF31183002B40F0A6824FF0E02055
:10D67000D4F848258169D4F848359342F8D1D4F8D4
:10D68000A0299142F4D8D4F89C694FF47A7000FB39
:10D6900006F2521AB2FBF6F200FB0322DFF8F0E2C8
:10D6A0004FF0E0204FF47A714FF0100C0126DEF8B5
:10D6B0000430C3F30803002B40F00783EFF311831A
:10D6C000002B40F00283D4F84835D0F81880D4F805
:10D6D00048959945F7D1D4F8A0399845F3D8D4F8AE
:10D6E0009CA901FB0AF3A3EB0803B3FBFAF301FBCC
:10D6F00009339B1AB3F57A7FD9D30A2253213846CE
:10D7000017F0AAFDA24B5B68C3F30803002B40F09F
:10D710007583EFF31183002B40F070834FF0E0200E
:10D72000D4F848258169D4F848359342F8D1D4F823
:10D73000A0298A42F4D3D4F89C694FF47A7000FB94
:10D7400006F2521AB2FBF6F200FB0322904E4FF0A3
:10D75000E0214FF47A704FF0100E4FF0010C736817
:10D76000C3F30803002B40F06C82EFF31183002B0E
:10D7700040F06782D4F84895D1F81880D4F848353D
:10D780009945F7D1D4F8A0399845F3D8D4F89CA995
:10D7900000FB0AF3A3EB0803B3FBFAF300FB093326
:10D7A0009B1AB3F57A7FDAD302227C21384617F030
:10D7B00053FD774B5B68C3F30803002B40F0BE8337
:10D7C000EFF31183002B40F0B9834FF0E020D4F841
:10D7D00048258169D4F848359342F8D1D4F8A02976
:10D7E0008A42F4D3D4F89C694FF47A7000FB06F2B5
:10D7F000521AB2FBF6F200FB0322654E4FF0E02115
:10D800004FF47A704FF0100E4FF0010C7368C3F3B1
:10D810000803002B40F0F381EFF31183002B40F05D
:10D82000EE81D4F84835D1F81880D4F84895994558
:10D83000F7D1D4F8A0394345F3D3D4F89CA900FB21
:10D840000AF3A3EB0803B3FBFAF300FB09339B1ABB
:10D85000B3F57A7FDAD30E227D21384617F0FCFC2F
:10D860004B4B5B68C3F30803002B40F08A83EFF354
:10D870001183002B40F085834FF0E020D4F8483529
:10D880008169D4F848259342F8D1D4F8A02991426F
:10D89000F4D8D4F89C694FF47A7000FB06F2521A5F
:10D8A000B2FBF6F200FB0322394E4FF0E0214FF4B9
:10D8B0007A704FF0100E4FF0010C7368C3F3080339
:10D8C000002B40F0E081EFF31183002B40F0DB816F
:10D8D000D4F84835D1F81880D4F848959945F7D14F
:10D8E000D4F8A0399845F3D8D4F89CA900FB0AF3E2
:10D8F000A3EB0803B3FBFAF300FB09339B1AB3F560
:10D900007A7FDAD3039B032B00F0018295F8213153
:10D91000002B35D01E09013E052E03F00F0300F247
:10D92000E5861C4F07EB4602B2F8000140FA03F20D
:10D93000D20740F1DB86012202FA03F3013B1840D3
