:020000040800F2
:10000000F0FF012061570608C95706089933020816
:10001000C9570608C9570608C95706080000000056
:10002000000000000000000000000000C9570608A2
:10003000C957060800000000C957060891F00108DA
:10004000C9570608C9570608C9570608C9570608F8
:10005000C9570608C95706083DEC010845EC0108D8
:100060004DEC010855EC01085DEC0108C99600084B
:10007000D9960008E9960008FD9600081197000837
:100080002597000839970008C9570608C957060878
:10009000BDBE0508C9570608C957060865EC010822
:1000A00005A1000809A0000815A10008F99F000893
:1000B00031A0000841A0000851A00008C98B000829
:1000C000BD8B0008FD8B0008F18B0008C95706089E
:1000D000C9570608F5EF010801F001080DF0010805
:1000E0006DEC0108C9570608C9570608C957060824
:1000F000F5A00008C9570608E5A00008C95706087A
:10010000C9570608C957060861A00008C95706085C
:1001100019F0010825F0010871A0000885CE050836
:100120006197000875970008899700089D97000857
:10013000B1970008C9570608C9570608C9570608E5
:10014000C9570608C9570608C9570608C9570608F7
:10015000C9570608C9570608C9570608C9570608E7
:10016000C9570608C9570608C9570608C9570608D7
:10017000C9570608C9570608C9570608C9570608C7
:1001800025A10008C9570608658C0008598C00088D
:10019000C957060800000000C9570608C9570608D5
:1001A000C9570608C9570608C9570608C957060897
:1001B000318C0008258C0008C9570608C957060865
:1001C0004D970008C5970008D9970008ED970008DB
:0801D000C9570608C9570608CB
:0801D800B45206000100000012
:08280000082800080040000850
:10600000074BD0F8C4105B68D0F8D0205B1A9A42D6
:10601000B8BFC0F8D030012380F8FC3000207047B2
:10602000001000E090F8BB30052B03D890F8FE304C
:10603000032B01D00020704790F8033103F0FB03DD
:10604000022B0CBF00200720704700BF30B5EAB11B
:106050008E464FEA014C034600F1C0050024196842
:106060009A6841EA0C0142EA0E029A60C3E9001400
:106070000C33AB42F3D1D0F8C030C0F8C44043EA8F
:106080000E03C0F8C030C0F8C84030BD4FEA014E22
:106090008C46E0E770B50F4E3368002B17DD341DDA
:1060A000002504E03368AB4204F120040FDD237FB8
:1060B0000135002BF6D0E06800220028F2D0217DC7
:1060C00018F030FE3368AB4204F12004EFDC01200D
:1060D00070BD00BF601A0020704700BF024B03EB89
:1060E000401090F821007047601A00204368C26C8D
:1060F00010B49A61EFF31182502383F31288416840
:10610000046C0B6823EA0403846C2343D2B20B6053
:1061100082F31188436981681A68096822F00102D4
:106120001A60D0E908421C605A60D0E90A429C60BB
:10613000DA60B0F86420CA6200235DF8044B03778C
:10614000704700BF344BD3F8043530B4E3B933495A
:106150000223C1E941334FF4A870C1F80C31B0F506
:10616000A87344BF6FF4A073C3181B115B002A33DC
:10617000C1F81031DB00B3F50C7F2DDA5B10012084
:1061800030BCC1F814317047254A2449A2FB0323CF
:106190009B0C0324082BC1F8044120D023F00802F3
:1061A000102A25D01B2B17D11E4A1F4B32F8102066
:1061B0005200A2F5AB7283FB0230D317C3EBA003EE
:1061C0005B002633C1F8103103EBC3030225B3F59E
:1061D0000C7FC1E94254D1DB002030BC7047114A2A
:1061E00032F810000223C1F8083140000123B4E75F
:1061F0000C4A32F81000102B4FF00202DDB24FEAC9
:106200004000C1F8082104D0182D08BF2346A4D0AF
:10621000E2E71346A1E700BF00200040601A00201B
:1062200083DE1B4330720608398EE3384FF4006377
:1062300083817047074BD0F8C4105B68D0F8D0203A
:106240005B1A9342C8BFC0F8D030012380F8FC30FD
:1062500000207047001000E04FF400638381704716
:106260004FF40063838170474FF40063838170476C
:10627000012380F8F03070474FF40063838170474A
:106280004FF40063838170474FF40063838170474C
:10629000704701207047012070472DE9F047DFF873
:1062A0008081D8F81851B8F81C21B8F82291C2EBB7
:1062B00025135200C2EBE502B8F91E516A4303FBF5
:1062C00003F5B8F920312D135D43AD1305EBE2253D
:1062D000B8F92631C8F834510E46A5F5FA3107460B
:1062E00081FB010C4FEAE37E03FB0CF200FB0E2264
:1062F000A3FB003E9644B8F9242182FB01421B0A0D
:10630000120343EA0E6342EA145224031B1942EBC0
:106310002E2202F50042A3FB093E09FB02EE4FEAE2
:10632000EE734FEA6E0253EA6E0E4FF000046BD02C
:10633000B8F92C914FEAE97E09FB0CFC00FB0ECC6E
:10634000A9FB00908444B8F92A0180FB01E14804CC
:106350004FEA4E4111EB0909D8F8381140EADE3016
:106360004CEB0000C1F5801C0CF0004AB8F9281174
:1063700014EB09044AEA5C0A4FEACC7C00EBC10149
:1063800040F63549BCEB04006AEB010AA0FB0901A9
:1063900009FB0A115EF0FEFFB8F932414FEA613E97
:1063A000430B43EAC14304FB0EF24FEAE47C03FBD8
:1063B0000C2CA4FB0342624404FB0EFE03FB02EE22
:1063C000A4FB0343B8F930219E44640E44EACE1482
:1063D00014EB000C02FB01F34FEAE274814641EB3F
:1063E0006E6EA2FB092904FB00314944D40C44EA37
:1063F00041341CEB0404B8F92E314EEBE141240A80
:1064000044EA016404EB03140FB1240A3C6026B192
:1064100005EB850580352D123560BDE8F08700BF9E
:10642000601A0020704700BF0120704701207047AC
:1064300008B5006859F0F2FDE0B90F4B93F83D2123
:1064400093F83C11120142EA013293F83E1142EAFC
:106450001112C3F8382193F8402193F83F1112012B
:1064600042EA013293F8411142EA1112C3F81821AD
:10647000012008BD0020FCE7601A002003681A789C
:10648000012A1CD0174B00B593F8DA1293F8D9C241
:1064900093F8D80293F8DD2293F8DCE2090441EA8C
:1064A0000C210143120493F8DB02C3F8D41242EA30
:1064B0000E220243C3F8E02201205DF804FB93F9A9
:1064C0000420084B642101FB023292F89D1120291F
:1064D00001D000207047D2F85C2192691204F8D4F0
:1064E000D1E700BF601A00202DE9F04FC84C83B0FF
:1064F000B4F8E432D4F8E02294F9E852CDE900018E
:10650000B4F8E612A2EB0322A1FB02139E04A2FB45
:106510000223EF1705FB03F302FB073346EA91362C
:10652000A5FB025289046D181A4442EB0603002BA6
:1065300002DA013D43F10003009ADF17C4E9C037D6
:10654000002A00F0148103FB07F1A3FB032E0EEBDE
:10655000410E4FEA921C4CEA8E6C0CFB07FB4FEA93
:10656000AE1103FB01BBACFB03C81BEB080BD4F85B
:10657000D45200F1488194F9EE124FEA1C2C4CEAF7
:106580000B6C4FEA2B2B4FEAE17801FB0BFA0CFB6B
:1065900008AAA1FB0C181AEB080800F13081B4F925
:1065A000E962B4F9EB92490941EAC8610846A6F5E7
:1065B000804694F9ED12B60306EB681ACE1701FB7C
:1065C0000EF802FB0688A1FB02164644B60046EA16
:1065D00091768900A9F5804941184AEB060609FB26
:1065E00007F84FEAE97A03FB0A88A9FB039AD0442B
:1065F0004FEA485848EAD9284FEA495911EB0901AE
:1066000046EB0806002EC0F2F38094F9F49209FBE1
:106610000BFB4FEAE9780CFB08BBA9FB0C98090EB1
:106620001BEB080841EA06214FEA266600F1DB80F1
:106630004FEA591C94F9F392B4F8F1A209FB0EFE4B
:106640004FEAE97B02FB0BEEA9FB0229CE444FEA9D
:106650000E1E4CEAC86C4EEA127E12011CEB020CB4
:10666000B4F8EF224FEAC23202EB6818AAFB039299
:106670000AFB072A4FEA8A5A4AEA992A4FEA8959B5
:1066800048EB0E081CEB090948EB0A08B8F1000FAB
:10669000C0F2A48094F9F7E2B4F9F5B24FEA99098F
:1066A000A1FB051249EA887919EB010905FB0626C9
:1066B0004FEAEE710EFB07F24FEA0B4C03FB01228F
:1066C000AEFB03E146EBA8060A441EEB0C0E42EBC0
:1066D000EB7BAEFB05CE05FB0BEEBEF1000F76DBD0
:1066E0004FEA5C3C4CEACE4CACFB05C14FEA6E3E37
:1066F00005FB0E1EBEF1000F62DB4FEA5C2C94F925
:10670000F8224CEACE5C19EB0C0146EB6E264FEA00
:10671000E27CA5FB054E04FB0CFC02FB0ECCA4FBAB
:1067200002421CEB020C45D4220C42EA0C42A2FBB2
:1067300005244FEA2C4C05FB0C4CBCF1000F35DB5B
:10674000D20942EA4C62521846EBEC16941846EB1A
:10675000060CA41846EB0C0C4FEACC0C4CEA547C0B
:10676000E400A41846EB0C06009A360C1660019A59
:106770009AB1DA1847EB0701D21847EB0101C900BB
:1067800041EA5271D200D31847EB0107002F07DB13
:10679000019A9B0B43EA8743136003B0BDE8F08F77
:1067A00043F6FF729B1847F10007F1E77F324CF187
:1067B000000CC5E74FF6FF72A4184CF1000CB3E7CC
:1067C00040F2FF111CEB010C4EF1000E95E741F673
:1067D000FF721CEB020C4EF1000E81E719F1030968
:1067E00048F1000856E719F11F0948F100081FE7B2
:1067F0006FF07F4911EB090146F1000605E71F31F3
:1068000048F10008CBE61CF1FF0C4BF1000BB2E69F
:10681000601A00203A4B9FED3B4A93F8092393F806
:10682000080393F80A1393F80BC3120202EB004219
:106830001144120248BF01F17F4107EE901AB3F9EB
:10684000241393F80C0393F80D2306EE101AB3F9F2
:106850002013B8EEE77A06EE901AB3F92213D3EDBF
:10686000C67A27EE047AB8EEC66A05EE101AF8EE7C
:10687000E66AB3F91E13000200EB0C400244E7EE97
:10688000066A000248BF02F17F4205EE901AB8EE98
:10689000E76AB8EEC55A07EE902AF8EEE55AB3F962
:1068A0001C23E7EE055A0120A6EE876A04EE902A23
:1068B000D3EDC56AB3F91223F8EEE77A05EE102A94
:1068C00067EE847AF8EEE44AB3F91023F8EEE66A4C
:1068D000A5EEA76AE7EEA46A05EE902AB8EEC55ABF
:1068E000F8EEE55A67EE857AB6EE005AE7EE066AEC
:1068F000E5EE857AC3EDCA6AC3EDCB7A704700BF77
:10690000601A00200821843630B10A4BD3EDCA7AD0
:10691000FDEEE77AC0ED007A51B1064B9FED067AA5
:10692000D3EDCB7A67EE877AFDEEE77AC1ED007A98
:10693000704700BF601A00200000C842704700BFC7
:106940000120704701207047704770470120704751
:1069500030B585B000238DF807300DF10702012313
:10696000E721054616F02AFF9DF80730134C13F077
:10697000030320D0052302AAE821284616F01EFFB3
:106980009DF80A209DF80910130443EA01239DF89D
:10699000081012F0800F43EA010314BF4FF07F424A
:1069A00000221343C4F83033BDF80B30A4F834335D
:1069B000012005B030BDC4F83033F7E7601A00207D
:1069C0000B4A10B5D2F830436423634348BF03F643
:1069D000FF731B130360B2F834330A22534330228F
:1069E000B3FBF2F303F584531A330B6010BD00BF01
:1069F000601A002008B5006859F010FB70B9084A09
:106A000092F83D3392F83C131B0243EA014392F89B
:106A10003E130B43C2F83833012008BD0020FCE7C9
:106A2000601A002008B5006859F0F8FA70B9084AF1
:106A300092F83D3392F83C131B0243EA014392F86B
:106A40003E130B43C2F84033012008BD0020FCE791
:106A5000601A00202DE9F74F564AB2F84E33B2F8CB
:106A60004A63B2F85073CDE90001D2F838131B0223
:106A7000C91AB2F84C336EEB0E0EA3FB010403FBF4
:106A80000E44B2F84833C00940EA44601B04C01801
:106A9000A6FB013506FB0E55B2F846634FEA1323F9
:106AA00043EA05634FEAC6364FEAE41444F10004B2
:106AB0009B19A7FB012607FB0E664FEAD25242EA5A
:106AC00046224FEA252545F10005F61512F5FA6C28
:106AD00046F1000BBCF5FA6F7BF100074CDAA2FB24
:106AE00002784FF0050A02FB06F908EB4909A7FBFB
:106AF0000A780AFB09884FEA570949EAC879BF08AA
:106B0000B0EB090047EA887764EB6804DB1B2A4F87
:106B100065EBA805BC454FF0FF377BEB070720DA94
:106B200040F6AC57D21946F100065643A2FB02725A
:106B300002EB46064FEAC608FA00BA1A48EA577846
:106B400066EB0808101844EB08044FF00B08A7FB8D
:106B5000087208FB06267F0847EAC677DB1B65EB51
:106B6000660501FB0EFEA1FB011202EB4E0EC90FE2
:106B700041EA4E01BCEB010C009A9AB10D4AD2F8E1
:106B80004013A1FB032301FB0535520D42EAC52248
:106B9000121A4FEA6555009B65EB0404D20B42EADA
:106BA00044421A60019B0BB1C3F800C003B0BDE8BA
:106BB000F08F00BF601A002024FAFFFF7047012009
:106BC00070470120704708B5006859F027FAD0B91E
:106BD0000E4B93F8592393F85813120242EA0142DC
:106BE00093F85A130A43C3F8542393F85C2393F899
:106BF0005B13120242EA014293F85D130A43C3F8A1
:106C00006023012008BD0020FCE700BF601A0020BF
:106C10002A4BD3F8602393EDDB6AD3EDDA6AD3ED28
:106C2000D97AD3EDDE5AD3EDDD4A93EDE24A93ED06
:106C3000E05AA2F5000207EE102AB8EEC77AD3F8A0
:106C40005423E7EE066AA2F5000293EDDF6AE7EE51
:106C5000267A93EDDC7AE5EEA74A06EE902AA7EEB7
:106C6000A47AF8EEE66AD3EDE15AD3EDE44AA4EE55
:106C7000275AE6EEA45A93EDE34AA5EE276AE4EE1E
:106C8000275AA5EEA66AA6EE867AB5EE407AF1EE10
:106C900010FA18BFBDEEC77AF5EE407A18BF80ED46
:106CA000007AF1EE10FA08D0FDEEE77A17EE903A8E
:106CB000002BB8BFFF331B120B607047601A002017
:106CC000B0F90000084B4143994208DBB1F5000FD1
:106CD00007DA0029B8BFFF31081200B27047034835
:106CE000FBE747F6FF70F8E701FF7FFF0080FFFF3B
:106CF000704700BF164BD0F8C0105A6810B5044654
:106D0000D0F8B80071B1131A99420BDC94F8B03086
:106D1000C4F8B820012B10D0D4F8B4300133C4F833
:106D2000B43010BDD4F8C430C4F8B8200344C4F85B
:106D3000BC3094F8B030012BEED104F1C801201D15
:106D400016F08CFBD4F8B4300133C4F8B43010BD65
:106D5000001000E010B504460E49D0F8B83094F8A1
:106D6000B020D0F8C40049680344012AC4E92E13B6
:106D700005D0D4F8B4300133C4F8B43010BD04F1F8
:106D8000C801201D16F06AFBD4F8B4300133C4F8F2
:106D9000B43010BD001000E070B5866996F8BC30C4
:106DA000012B8AB0054621D0023B012B29D8F36F75
:106DB000154C8C221A700FCCEC46ACE80F00F36F28
:106DC0000093D6F8803001930FCCACE80F0094E824
:106DD0000300AB698CE8030003F11000694616F06C
:106DE0003DFBAB691A69136A002BFCD1D6F88030E1
:106DF000B3F90220EA81B3F904202A82B3F90630FC
:106E00006B8201200AB070BD3872060810B50446C6
:106E1000806982B090F82C1106236A46103016F073
:106E2000D9FC58B1BDF80010BDF80220BDF80430FF
:106E300049BA52BA5BBAE1812282638202B010BDC4
:106E400010B582B090F82D11044606236A46103022
:106E500016F0C0FC70B1BDF80010BDF80220BDF8FE
:106E6000043049BA52BA5BBAA4F8B010A4F8B22000
:106E7000A4F8B43002B010BD10B50446806982B0E9
:106E80006A4606232821103016F0A4FCBDF8001035
:106E9000BDF80220BDF80430E18101202282638226
:106EA00002B010BD10B582B004466A460623222106
:106EB000103016F08FFCBDF80010BDF80220BDF8B0
:106EC0000430A4F8B0100120A4F8B220A4F8B43023
:106ED00002B010BD07B500238DF807300DF1070291
:106EE00001230F2116F076FC28B19DF807306C2B9A
:106EF00014BF0020102003B05DF804FB00B583B080
:106F00004FF0000C01230DF10702112178388DF8A4
:106F100007C016F05FFC03B05DF804FBF0B58369B1
:106F200093F8BC20012A8BB0054625D0023A012AED
:106F30002DD893F82C21D96F164C62F07F030B707B
:106F40008669D6F880305F1C0FCCEC46ACE80F00A9
:106F5000F36FCDE900370FCCACE80F0094E80300E5
:106F60008CE80300694606F1100016F077FAAB6969
:106F700019690A6A002AFCD1D3F880305A8852BABB
:106F8000EA819A8852BA2A82DB885BBA6B82012036
:106F90000BB0F0BD60720608F0B590F8BC30D0F8C8
:106FA0008060012B8BB0044648D014D8C36F4FF0DB
:106FB000FF321A605A609A60DA60D0F8C030052259
:106FC000B3F57A7FC0F8D02052D8032380F8BC30C4
:106FD00001200BB0F0BD023B012BF9D890F82D3108
:106FE000C26F394D63F07F031370D0F880305F1C9F
:106FF0000FCDEC46ACE80F00E36FCDE900370FCDC5
:10700000ACE80F0095E803008CE80300694604F142
:10701000100016F023FA2269136A002BFCD1738842
:107020005BBAA4F8B030B3885BBAA4F8B230F38886
:1070300001205BBAA4F8B4300BB0F0BD90F82C215D
:1070400090F82D319B1A5B100133DBB206EB430243
:1070500036F813305BBAA0F8B03053885BBAA0F8AA
:10706000B23093885BBAA0F8B43001200BB0F0BD09
:1070700003691A7B1AB35B690BB390F87830F3B1EC
:1070800090F82C31C26FC4F8840063F07F03137052
:1070900090F82C1190F82D31D0F880200B48C4F8CE
:1070A000E4005B1A07330121C4F8DC30E36F84F895
:1070B000E0100A44C4E9353284F8BC1088E70223A2
:1070C00084F8BC3084E700BF6072060801600008E5
:1070D00070B5044690F8010144F23B33A4F82C311A
:1070E00000B970BD17F0F6FD104B05462146A0B162
:1070F0002622C28041F80C3F00231A4658F00AFCB1
:10710000AB884FF00042B3FA83F332FA03F3E8D0CE
:1071100007490A6813430B6070BD41F80C3FBDE896
:1071200070400346024658F0F5BB00BFF56C0008FE
:10713000000401400269C3682DE9F04712EA03091F
:107140002AD005460E464FF000474FF00008B9FA26
:1071500089F327FA03F2D2431B3B2A6109EA0209A9
:10716000042B16D8DFE803F0352C231A0300B36A8A
:10717000002B37D003F1FF3A1FFA8AFAC6F82880AD
:10718000746A34B123682046514698476468002CDD
:10719000F8D1B9F1000FDAD1BDE8F0877068696BFA
:1071A000036889B29847B9F1000FD0D1F4E7B0680D
:1071B000A96B036889B29847B9F1000FC7D1EBE713
:1071C000F068E96B036889B29847B9F1000FBED146
:1071D000E2E73069296C036889B29847B9F1000F7A
:1071E000B5D1D9E7E96A1FFA81FAC9E7836910B412
:1071F0005C6999682268096822F001022260CA6805
:107200001C8A22EA0402CA600168007D0C68082218
:107210008240224212D1214C022294F8944302FA75
:1072200000F048603CB11A7F012A08D1D3F8DC2075
:107230000132C3F8DC205DF8044B7047FEE7D3F859
:10724000D8200132C3F8D820EFF31181502282F305
:10725000128858681C6C026822EA04025C6C2243A3
:10726000C9B2026081F31188D3E90C405A69996868
:10727000096814605060D3E90E409460D060B3F8A0
:107280009C00C86210680124204310601C77CA6803
:107290001B8A5DF8044B1343CB607047601A0020D3
:1072A00010B5074C94F898330BB9002010BD18F0B6
:1072B0004DF8D4F89C33C01AD0F5FA50F6D5F4E75F
:1072C000601A002070B505460C46FFF7E9FF2B68F1
:1072D0005D6808B11BF060FB064B002283F8982321
:1072E0002846224693F89933BDE87040492116F0AC
:1072F00065BA00BF601A00202DE9F04F2DED028B1A
:10730000BD4C83B094F89433009303BBD4F8A033FE
:10731000002B16DD0026B94831464769D0F8943075
:107320003D6825F0010503F1C0023D6059600C3352
:107330009A42FBD1D4F8A0330136B34200F1E40005
:10734000EBDC012003B0BDEC028BBDE8F08FD4F87C
:10735000A43308EE103A17F0F9FFD4F8A833D4F8A4
:10736000AC231433801AB0EB430FC0F2108104F544
:107370006C7904F5D26A261D00252368AB42C5DD71
:10738000B16972684B69D1F8CC705868D1F8D030C7
:1073900080B2181A00F1004CACF1390C012107EB56
:1073A0004C0C91403B469C4510D91A880A4200F08B
:1073B000E8805A880A4200F0E6809A880A4200F083
:1073C000E480DA880A4203F10803ECD11A880A4003
:1073D0000192002A40F09F80DF1BA0EB6700452848
:1073E00028BF452003EB4000834280F094809646FE
:1073F00090461F46944619E0B3F802B00BEA010B21
:107400005A4518BF043315D1B3F804B00BEA010B89
:107410005A4518BF06330DD1DA880A40944503F166
:10742000080307D1984207D91A880A40624518BF55
:107430000233E1D0984279D8B8F1110F6BD9C8F175
:107440001503002BC0F28C8000F0B4800EFA03FE0E
:10745000C8F11408012303FA08F8694A48EA0E0E35
:10746000CEF3C43302EB8303CEF34410996D0EF0D8
:107470001F0302EB830302EB80009B6D43EA0131A3
:10748000CEF3842302EB8302836D926D41EA0313F2
:1074900043EA022383EA132282EA121202F00F0265
:1074A0000F2A5DD1B3F5803F5AD240F6FF71B1EBA0
:1074B000131F4FEA131276D0C2F308025B0B12FAC5
:1074C00003F34DD05A0802F5122202F5F862B2FB1E
:1074D000F3F24FF6FE739A4201921CD0D4F898361C
:1074E0000133C4F898364FF6FF739A423DD0BDF889
:1074F0000430AAF80C30032D4FF001038AF80E3047
:1075000003DC94F814372D2B47D0009918EE102A7D
:10751000484615F0CFFE0135082D09F15C090AF146
:10752000040A06F120067FF428AFEFE6DF1B7A108D
:10753000571C344A82FB07C2A2EBE772012AB8BF8C
:1075400001220EFA02FE012733F802CC9044013AE0
:1075500007FA02F242EA0E0E01EA0C0C1F4663E73C
:10756000D4F898360133C4F89836D4F894360133F9
:10757000C4F89436002118EE102A484615F09AFEF9
:10758000C9E7023322E7043320E706331EE7002071
:1075900003B0BDEC028BBDE8F08F1B4B019A23F8C2
:1075A00015200099E7E7D4F898360133C4F89836E7
:1075B00000239EE7124BCEF3C43203EB8202916D9F
:1075C0000EF01F0203EB8202926D42EA0132CEF30B
:1075D000441103EB8101CEF3842E03EB8E03896DFE
:1075E0009B6D42EA011242EA032383EA132282EAF4
:1075F000121202F00F0253E7601A002080210020CF
:10760000307206085655555578210020F8B5374C8C
:1076100004EB401292F8203003B9F8BD344B4FF41C
:107620009A7C0CFB004C93F8586393F859E39CF850
:10763000B27A977176454FF000024FEA40158CF808
:10764000B22A0ED00EEB4E0203EBC2024FEA4E07F7
:1076500092F85C2302F1FF3CBCF1010F3AD9032AF6
:1076600032D0244B254403EB4010A98015F002FED4
:1076700094F89433EA6993B1A968D2F8943001245C
:107680008C4003F1C001420010F4004F90B202D1CF
:107690005A6822435A600C338B42F4D1F8BDAC686F
:1076A000D2F8943004F110020124944003F1C00197
:1076B000420010F4004F90B202D15A6822435A603F
:1076C0000C339942F4D1F8BD0EF1010202F003022D
:1076D000B242C6D0774403EBC703034493F869135F
:1076E0000029BED0631901229A71BAE7601A0020FE
:1076F000582B0020641A002010B504465EF0B4FE3A
:1077000081B22046BDE8104080E700BF2DE9F84374
:10771000224E96F8582396F859339A4238D1204D84
:10772000D5F8A083B8F1000F15DD002495F89493E7
:1077300005F5E4602746B9F1000F21D0037F012B46
:1077400021D042691368013443F00103444500F13C
:10775000E4001360EFD117F0F9FDD6F8BC43C5F88B
:10776000AC03002C0ADD0F4B03EBC40419689A88A4
:10777000C868083302439C42CA60F7D1BDE8F88369
:10778000FEF7B4FCDDE780F8D470FEF7AFFCD8E775
:1077900057F07AFF0028C2D1BDE8F883582B0020AB
:1077A000601A0020182F00202DE9F0412A4D95F88D
:1077B000582395F859339A4248D195F8E0336BB382
:1077C00095F8E143254B264F264E002140F20D3C13
:1077D00034B3D3F8A820B3F8ACE0D2F8048018682A
:1077E00008EA07084EEA080EC2F804E0D2F800E002
:1077F0004EF0010EC2F800E0D0F8DC23324042EA3D
:107800000C02C0F8DC23C26842F48072C26095F8B2
:10781000E02301318A4203F1B803D9DCBDE8F081ED
:107820001A68B3F80480D2F800E0B3F8B4002EF080
:10783000800EC2F800E0C2F82C805462D2F80CE04E
:1078400040EA0E00D060A3F8B440E0E757F01CFF18
:107850000028B2D1BDE8F081582B00203C2F002039
:107860000000FFFFE0E0FFFF10B58369074C04EB69
:107870008303D3F8C4094EF05FFCB4F8E409002197
:1078800058F068FB002384F8E63910BD582B00201F
:1078900010B5846904F19C004EF04EFCD4F89C3085
:1078A0005A681AB91A6822F001021A6010BD00BFA6
:1078B0002DE9F04704460068237D0268022101FAA1
:1078C00003F31A4209D0A6699F4D4FF49A7202FB46
:1078D000065292F89C1B11B14360BDE8F0879B49AA
:1078E0009B4F4968C7F8E81997F8E113002900F0A1
:1078F000CC80D2F8B82AD2F814C01168DCF8002085
:1079000022F00102CCF80020CA6822F48072CA601A
:1079100095F89423002ADFD04FF49A7909FB06F9F1
:1079200005EB090A8B4ADAF8D80BDAF8B83AC1B293
:107930000839D3F80080A2FB01310909864A0131D8
:1079400020F0FF00914459F0F5FED7F8F0390122FC
:107950008AF89C2B002B00F0CD80D8F800204FF443
:107960009A7303FB065342F08002C8F80020D3F854
:10797000982B4FF0FF31B2F5807FC8F82C1000F043
:10798000BE805BD8012A00F09280102A22D1D8F85C
:107990002020D3F8D41B22F01002C8F82020D3F8FE
:1079A000CC2B42EA0100D8F81820D3F8D01B22F4DF
:1079B0007F42014342EA1122C8F81820D3F8C82BAD
:1079C000D8F8203023F0A00343EA021343F0100359
:1079D000C8F820304FF49A7303FB06550023D5F8FE
:1079E000D80BC5F8743BC1B2A3F133330839A3FBFC
:1079F000013109094A46013120F0FF0059F054FED7
:107A0000D5F8D82B206853681B0C1B0443F01603D1
:107A10005360136843F001031360D5F8B82AB5F832
:107A2000BC3A1268D1680B43D360484A237D516841
:107A3000C7F8EC19022202FA03F34DE7B2F5805FB2
:107A4000C8D1D8F82020D3F8D41B22F48052C8F82B
:107A50002020D3F8CC2B42EA0100D8F81C20D3F820
:107A6000D01B22F47F42014342EA1122C8F81C20B5
:107A7000D3F8C82BD8F8203023F4204343EA02334C
:107A800043F48053C8F82030A4E7D2F8D8CBDCF810
:107A9000001021F00101CCF80010D2F8B81AB2F8A9
:107AA000BCCA0968CA6822EA0C02CA6030E7D8F882
:107AB0002020D3F8D41B22F00102C8F82020D3F8EC
:107AC000CC2B42EA0100D8F81820D3F8D01B22F0C2
:107AD000FF02014342EA1142C8F81820D3F8C82B2C
:107AE000D8F8203023F00A03134343F00103C8F809
:107AF00020306FE717F02AFCC7F8F0092DE7D8F817
:107B00002020D3F8D41B22F48072C8F82020D3F8A8
:107B1000CC2B42EA0100D8F81C20D3F8D01B22F06D
:107B2000FF02014342EA1142C8F81C20D3F8C82BD7
:107B3000D8F8203023F4206343EA022343F480730F
:107B4000C8F8203046E700BF601A0020001000E0AF
:107B5000582B0020CDCCCCCCCC250020F8B5054648
:107B600000F11004FFF7B4FA95F8B830072B5BD199
:107B700095F8FD300226002B58D1374680226B2124
:107B8000204615F0C5FC64201BF054F8072268213C
:107B9000204615F0BDFC64201BF04CF800226B2140
:107BA000204615F0B5FC64201BF044F801226B213F
:107BB000204615F0ADFC0F201BF03CF8FA001B210D
:107BC000204615F0A5FC0F201BF034F8F2001C2114
:107BD000204615F09DFC0F201BF02CF82846FEF7E0
:107BE00021FA1A210246204615F092FC0F201BF0C4
:107BF00021F895F800211921204615F089FC642010
:107C00001BF018F810223721204615F081FC0F20B8
:107C10001BF010F820460122382115F079FCBDE850
:107C2000F8400F201BF006B80326A6E70327A5E7B8
:107C30002DE9F341144698460DF10702012306464B
:107C40000F4615F0C7FD88B102201AF0A5FE9DF879
:107C5000075025EA040444EA0802394630468DF804
:107C6000072015F055FC08981AF0E4FF02B0BDE8B3
:107C7000F08173B5642300F11004009301231A46C8
:107C8000054612212046FFF7D3FF02220D21204690
:107C900015F03EFC01201AF0CDFF02220E212046F5
:107CA00015F036FC01201AF0C5FF74221021204681
:107CB00015F02EFC01201AF0BDFFAC221121204648
:107CC00015F026FC012601201AF0B4FF44237C2283
:107CD000122120460096FFF7ABFF06231A46132118
:107CE00020460096FFF7A4FF002317221521204607
:107CF0000096FFF79DFF0223204600961A461821A2
:107D0000FFF796FF95F8010188B116F0E3FF0446EE
:107D100008B12623C3802946084B41F80C3F0023B5
:107D200020461A4657F0F6FD204616F077FF044825
:107D300015F01CFBA88202B070BD00BF7162000884
:107D4000809698007B22F42115F0E2BB37B500F154
:107D50000C040546C0685CF03FFC00220A21204666
:107D600015F0D6FB14201AF065FF0F220A212046D9
:107D700015F0CEFB0A201AF05DFF01AA03231021A3
:107D8000204615F027FD0A201AF054FF9DF8043014
:107D90008033A5F8D6309DF805308033A5F8D8306B
:107DA0009DF806308033A5F8DA3000220A212046FB
:107DB00015F0AEFB0A201AF03DFF0DF1030201237E
:107DC0000221204615F006FD01230DF103020921D1
:107DD000204615F0FFFC11220A21204615F098FBE1
:107DE000012003B030BD37B500F10C050446702208
:107DF0000021284615F08CFB20220121284615F091
:107E000087FB00220221284615F082FB64201AF02D
:107E100011FF94F8D40098B116F05CFF08B1282344
:107E2000C3802146084B41F8083F00231A460190C1
:107E300057F070FD019816F0F1FE019816F0EEFE75
:107E4000012003B030BD00BFF16C000810B500F197
:107E50000C04C0685CF0C0FB00222121204615F014
:107E600057FBFC222021204615F052FB4022242102
:107E7000204615F04DFB0C222321204615F048FB2F
:107E800000222221204615F043FB64201AF0D2FE86
:107E9000012010BD10B500F10C04C0685CF09CFB23
:107EA00001220B21204615F033FB20B11D220921B0
:107EB000204615F02DFB00F0010010BD10B58368C1
:107EC00082B0044613B11A689B88936201201AF0AD
:107ED000B1FEA36813B11A689B8893610A201AF057
:107EE000A9FE23681B6A0020ADF804005BB9204698
:107EF000022301AA802115F03BFC9DF80530242BBC
:107F000014BF00200F2002B010BD00BFF0B590F8E4
:107F1000FE30032B8DB0054655D090F8BC30D0F81C
:107F20008060012B00F08B8014D8C36F00221A6090
:107F30005A609A609A81D0F8C0300522B3F57A7FF2
:107F4000C0F8D02034D80323012480F8BC30204668
:107F50000DB0F0BD023B012B31D8C36F524F9222BE
:107F60001A700FCF02AC0FC40FCF0FC497E80300F5
:107F7000EB6F84E80300029302A9D5F880300393E5
:107F800005F1100015F06AFA2A69136A002BFCD17A
:107F9000B6F90230A5F8B030B6F90430A5F8B23021
:107FA000B6F90630A5F8B430012420460DB0F0BD76
:107FB00003691A7B002A5AD1022385F8BC300124B8
:107FC00020460DB0F0BD39490291394903910A218B
:107FD000002301221030049102A98DF814208DF89D
:107FE00028200190CDE90633CDE908330B9315F035
:107FF00035FA2A690198136A002BFCD12D49B1F892
:10800000F629052A19DDB1F9F849D1F8F869B1F96D
:10801000FA79B1F9FC1914F5004F20D0C5F8B06019
:10802000A5F8B4100124063A002AC9D0B0227E2156
:1080300015F046FA20460DB0F0BD1C46F4E7B6F93F
:108040000820A0F8B020B6F90A20A0F8B220B6F9AE
:108050000C20A0F8B4201C4620460DB0F0BD17F54A
:10806000004FDBD111F5004FD8D11C46DBE75B692F
:10807000002BA1D090F87840002C9DD0C36FC5F89C
:1080800084008C221A700C4AC16FC5F8E420D5F820
:10809000802001230E20C5E93512C5F8DC0085F8E3
:1080A000E03085F8BC308BE738720608000000200D
:1080B0004C350020582B00203562000838B500F1FF
:1080C00010040546194815F051F9A8822846FEF714
:1080D000FFFF01226B21204615F0F2F978201AF0FB
:1080E0005BFC204618221B2115F0EAF920461822D5
:1080F0001C2115F0E5F92846FDF794FF1A210246E8
:10810000204615F0DDF995F800212046192115F0DB
:10811000D7F920461022372115F0D2F92046012246
:10812000BDE83840382115F0CBB900BF00127A0005
:1081300038B500F110050446FEF7CAFF03226B2193
:10814000284615F0BDF90F201AF026FC10226A21EE
:10815000284615F0B5F90F201AF01EFC00226C21FC
:10816000284615F0ADF90F201AF016FC94F80021FE
:108170001921284615F0A4F90F201AF00DFC182239
:108180001B21284615F09CF90F201AF005FC182237
:108190001C21284615F094F90F201AF0FDFB10223F
:1081A0003721284615F08CF90F201AF0F5FB012233
:1081B0003821284615F084F90F201AF0EDFB2046EF
:1081C000FDF730FF1A210246284615F079F9012003
:1081D0001AF0E2FB0A4815F0C9F8A0822046FEF723
:1081E0002FFE94F9B230013308D194F9B030013345
:1081F00004D1BDE8384006201AF036BE38BD00BFB5
:10820000002D310110B50446FFF7A8FC1022A0187C
:108210006A2115F055F964201AF00CFD044815F098
:10822000A5F8A082BDE8104001201AF0B5BB00BF40
:10823000002D3101F8B5054600F11004B6227E216B
:10824000204695F8FE7015F03BF964201AF0F2FC18
:10825000AB6913B11A689B88936201201AF0EAFC9B
:10826000AB6913B11A689B8893610A201AF0E2FC8B
:1082700000227C21204615F023F901201AF0DAFCB7
:10828000974E00225921204615F01AF901201AF0C4
:10829000D1FC4FF4A47306F1D8025E21204615F0FC
:1082A0002FFD0A201AF0C6FC01222046592115F0A4
:1082B00007F901201AF0BEFC032F00F08580AB22E5
:1082C0004021204615F0FCF801201AF0B3FC0322EF
:1082D0004121204615F0F4F801201AF0ABFC814B47
:1082E00093F8013A013BDBB2022B62D9CD22422145
:1082F000204615F0E5F801201AF09CFC08224321E5
:10830000204615F0DDF801201AF094FC04225821D3
:10831000204615F0D5F801201AF08CFC0A225321D2
:10832000204615F0CDF801201AF084FC02227C21B1
:10833000204615F0C5F801201AF07CFC20460E22DC
:108340007D2115F0BDF801201AF074FC95F80101AB
:10835000D8B116F0BFFC644B04462946002800F053
:10836000B6802622C28041F80C3F00231A4657F0FF
:10837000D1FAA3884FF00042B3FA83F332FA03F341
:1083800003D05A490A6813430B60594B5948DB68BC
:10839000B0EB930F4FEA930280F0A08007210223F5
:1083A00052085B0082429BB201D90139F8D1AB82FD
:1083B000F8BD3344422193F82022120162F03202C8
:1083C000204602F0FD0294E700224821204615F0E5
:1083D00077F801201AF02EFC80224921204615F062
:1083E0006FF801201AF026FC00224521204615F0E6
:1083F00067F801201AF01EFC06224621204615F0DF
:108400005FF801201AF016FC00224721204615F0E3
:1084100057F801201AF00EFCAB224021204615F03F
:108420004FF801201AF006FC3A464121204615F08B
:1084300047F801201AF0FEFB2A4B93F8013A013B62
:10844000DBB2022B3FD83344422193F820221201A1
:1084500062F03202204602F0FD0215F031F80120F0
:108460001AF0E8FB20460822432115F029F80120E4
:108470001AF0E0FB02225821204615F021F80120D5
:108480001AF0D8FB0A225321204615F019F80120D2
:108490001AF0D0FB02227C21204615F011F80120B1
:1084A0001AF0C8FB0E227D21204615F009F80120A4
:1084B0001AF0C0FB2046B0227E2115F001F8012001
:1084C0001AF0B8FB42E7CD2242212046C5E741F829
:1084D0000C3F0246034657F01DFA56E7022366E7B3
:1084E00030720608582B0020556D0008000401402A
:1084F000000000208096980038B580226B21054648
:1085000014F0DEFF64201AF095FBF521284615F0E3
:108510001DFCAC2818D005D8122817D0982817D0E1
:1085200000240FE0AF28FBD1092410226A2128463D
:1085300014F0C6FF28460322682114F0C1FF64200E
:108540001AF078FB204638BD0724EEE70824ECE754
:108550000B24EAE738B500224E21054614F0B0FF9F
:10856000152496201AF066FBF521284615F0EEFB3F
:10857000422807D0472807D0013C14F0FF04F0D16F
:10858000204638BD0C24FBE70D24F9E737B5054636
:1085900000F11004354814F0E9FEA8822846FEF7E1
:1085A00097FD42F21F53A5F82C310F224E21204691
:1085B00014F086FF0F201AF03DFB95F8BB30002B1E
:1085C0004ED095F800210132D3B20822B2FBF3F26B
:1085D000082AD3B240D0042A40D0022B02D0012B6B
:1085E0003ED10323224A02EB430393F8242202F0F4
:1085F0000F024F212046019214F062FF0F201AF063
:1086000019FB019A5021204614F05AFF0F201AF04E
:1086100011FB2046EE22522114F052FF2046032285
:10862000142114F04DFF20460022632114F048FF6E
:1086300008222046652114F043FFE421204615F06E
:1086400085FB00F0EF0040F060026421204603B09B
:10865000BDE8304014F034BF0023C3E70123C1E775
:10866000002385F8BB300622C1E700BF00366E014B
:108670003072060838B580226B21044614F020FFC2
:1086800064201AF0D7FAF521204615F05FFB054665
:1086900001201AF081F9682D1BD18C21204615F09C
:1086A00055FB18280DD8142834BF00250325204673
:1086B0000722682114F004FF64201AF0BBFA284650
:1086C00038BDA0F15403DBB2072B34BF03250025CE
:1086D000EDE70025F3E708B5F52115F037FB702825
:1086E00018D008D8422817D0472817D0122814BF0E
:1086F0000020082008BDAC2812D006D800F0FD00EC
:10870000712814BF00200620F4E7AF2814BF002012
:108710000920EFE70520EDE70C20EBE70D20E9E766
:108720000720E7E73122F4215CF04ABA13221B212B
:108730005CF046BA10B50446006857F06FFC38B9D3
:108740002046044A0623F7215CF09AF9012010BD67
:108750000020FCE79C1B002008B503681A78012A5A
:1087600006D00C4A062304215CF08AF9012008BDDA
:1087700093F90420084B642101FB023393F89D21F7
:10878000202A01D0002008BDD3F85C319B691B046E
:10879000F8D4E6E7381D0020601A002008B5036809
:1087A0001A78012A06D00C4A062300215CF068F9E9
:1087B000012008BD93F90420084B642101FB02331A
:1087C00093F89D21202A01D0002008BDD3F85C3108
:1087D0009B691B04F8D4E6E7681D0020601A00209E
:1087E00010B50446006857F019FC014690B923689B
:1087F0001A78022A08D1196A21B9074A03232046A8
:1088000014F0B6FF012006E0034A032320465CF083
:1088100037F9F7E7002010BD9C1D0020E0E710B5F8
:108820000446006857F0FAFB38B92046044A06238C
:10883000F7215CF025F9012010BD0020FCE700BF06
:10884000B81D002038B52A4C94F8243A013B024662
:108850000D460C30032B03D8DFE803F00C1B222F4E
:108860000123244A02215CF00BF9012384F8243A05
:10887000002006E094F8253ADB0703D4002084F8B2
:10888000240A38BD06231C4A03215CF0F9F80223B0
:10889000ECE70123174A09215CF0F2F80323E5E72E
:1088A00011220A215CF08CF994F8250A10F00C00D2
:1088B000E4D1042384F8243AE3E7B2F9D6100E4851
:1088C000FEF7FEF940422880B2F9D8100B48FEF7B7
:1088D000F7F940426880B2F9DA100948FEF7F0F97A
:1088E00000234042A88084F8243A0120C9E700BF51
:1088F000582B00207D3500207E350020803500205B
:108900008235002010B50D4C237C43B10C300C4A4D
:10891000062303215CF0B4F80020207410BD094B3D
:10892000B3F82C2A52BA0A80B3F82E2A52BA8A8097
:10893000B3F8303A5BBA4B800120EEE7000000202C
:1089400084350020582B002010B5124C637C43B1B5
:108950000C30114A062328215CF092F80020607444
:1089600010BD0E4AB2F9323A002BB8BF03339B1048
:108970000B80B2F9343A002BB8BF03339B104B8005
:10898000B2F9363A002BB8BF03339B108B8001201D
:10899000E5E700BF000000208A350020582B0020AA
:1089A00010B5174C94F8383A012B00F10C000CD09C
:1089B000022B17D0012304F6392206215CF060F85F
:1089C000012384F8383A002010BD94F8393A13F0A6
:1089D0000403F6D0062304F63A2200215CF050F896
:1089E0000223EEE7B4F83A3A0B80B4F83C3A4B80F5
:1089F000B4F83E3A8B80002384F8383A0120E3E74C
:108A0000582B002058215CF07FB948215CF07CB9DC
:108A10002DE9F04302691778012F85B004460D4611
:108A200018D10B79013B13714B79002B08BF6823D8
:108A300000F1100803754FF000093B460DF10502E7
:108A4000752140468DF8059014F0C4FE06460028B6
:108A50003ED1226902231370EB7823B900263046F9
:108A600005B0BDE8F08304F11008A978404614F081
:108A70009FFC06460028F1D0E87816F02BF9A0619B
:108A80002B780133DBB210B1C371222383710D2126
:108A900016F08CF9A06914F085FC424AD2F8A43390
:108AA000632BFBD94048DFF80891404F14F05EFC7F
:108AB000A08202E059F8047B5FB34046B847034602
:108AC0000028F7D0206984F8B8305BF085FDC6E750
:108AD00020695BF081FD3B4649460DF106024046A8
:108AE00014F078FE9DF8063003F07E038DF8063012
:108AF00008B1682B14D09DF8053003F07E03682B75
:108B00008DF805300FD0702BA9D1042384F8B8302C
:108B1000A5E7E87816F0DEF816F068F93E469EE71D
:108B200084F8B8709BE70222062384F8B82019461F
:108B300002AA404614F04EFEE0B19DF80D309DF8BB
:108B40000B209B00520002F0020203F004031343C7
:108B50009DF8092002F0010213430BD0012B1DD018
:108B6000022B17D003F00303032B13D003201AF0BA
:108B70007BF974E701230DF1070240460C2114F044
:108B800029FE0028F2D09DF8073013F00F03EDD036
:108B9000042B03D0012384F8B93060E7002384F864
:108BA000B9305CE7601A002040420F00758600086B
:108BB0006074060800207047704700BF01484EF0FF
:108BC00031B900BFBC1B0020084810B4D0F85C319C
:108BD000D0F8904199691A682CB1234600F5AE701F
:108BE0005DF8044B18475DF8044B7047601A00208D
:108BF00001484EF017B900BF201C0020084810B4EF
:108C0000D0F8C031D0F8F44199691A682CB12346E4
:108C100000F5E0705DF8044B18475DF8044B7047B1
:108C2000601A002001484EF0FDB800BF841C0020EF
:108C3000084810B4D0F82432D0F8584299691A681C
:108C40002CB1234600F509705DF8044B18475DF818
:108C5000044B7047601A002001484EF0E3B800BF93
:108C6000E81C0020084810B4D0F88832D0F8BC4284
:108C700099691A682CB1234600F522705DF8044BFF
:108C800018475DF8044B7047601A00202DE9F84F33
:108C9000D34F642303FB00730446D3F84451002DE3
:108CA00000F09481D3F84C611EB1B379002B40F0F1
:108CB0008D81642303FB0473D3F85091B9F1000F45
:108CC00004D099F80630002B40F08081631CDBB2A1
:108CD00016B11522B271F371B9F1000F04D016224A
:108CE00089F8062089F80730287E55F07BF8304651
:108CF00014F058FB484614F055FB1121304616F08D
:108D000055F81121484616F051F84FF009084FF078
:108D1000330A02E00A2019F03FFE304615F0AAFFA0
:108D200010B9BAF1010AF5D1304614F035FB05202F
:108D300019F032FE304614F035FB052019F02CFEF8
:108D4000B8F10108E3D1304614F026FB052019F0F4
:108D500023FE484614F020FB4FF0640B052019F069
:108D60001BFE0BFB04FB304614F01CFB07EB0B0A4D
:108D7000052019F011FE484614F014FB9AF85631FC
:108D80009AF85421002B14BF3E211E21304615F0C5
:108D9000EBFF9AF85631934E9AF85521002B14BFE9
:108DA0003E211E2148465E4415F0DEFF4C2241461E
:108DB00030465EF0DDF8DAF844315B68CAF85C31C1
:108DC0004EF0F8F807EE900A9FED877ABAF858B19E
:108DD0009FED865AF8EE677AB0EE084AC7EE275A3A
:108DE000C14607EE90BA9FED827AF8EEE77A25EE5B
:108DF000844AC7EE274ADFED7F7AB0EE007AE5EECF
:108E0000877AA5EE875A74EEE72A37EE856AF7EE81
:108E1000003ABBF5C87F40F2145309F1010ED8BFE8
:108E2000194607EE90EAD5BF642332234FF49670BB
:108E300078200344B8EEE77A07EE903A27EE257AD9
:108E4000F8EEE76AD8BF4FF4167C86EE873AC4BFC7
:108E50004FF4827C4FF4FA7101EB0C0373EE636AFA
:108E6000FCEEE67A17EE902A07EE90CAB8EEE73AE3
:108E700007EE903A23EE243AF8EEE77AC3EE276A3B
:108E800036EEC53A72EEE66AC3EE077A77EEE37A1B
:108E9000FCEEE77A17EE901AC6EE877A77EEE37A61
:108EA000FCEEE77A17EE903A03F1020C0CEB010AA4
:108EB00007EE90AAF8EE677AF0EE466AE7EE276AC8
:108EC000F4EEE64AF1EE10FA00F382805FFA82FCDB
:108ED000BCF10F0F7ED8323807EE900AF8EEE77A31
:108EE00077EEC47AC7EE876AFCEEE67A17EE90CA90
:108EF0005FFA8CF00F286DD888B2FF286AD898B234
:108F0000FF2867D840EA0973100500F07F604FEA38
:108F10000C4202F47F0203431343374A02EA012161
:108F200043EA0108642000FB047401230027C4E91C
:108F30005973C4E95B77C4E95E77C4F86081304651
:108F400059F054FC94F89D31202BD9B21AD194F8E1
:108F50009C31012B16D0242384F89D31D4F85C3148
:108F60001A6822F001021A601A6822F480521A600C
:108F70001A681A601A6842F001021A6084F89D119A
:108F800084F89C7195F91A00002156F06DFC95F952
:108F90001A30AA7E002B07DB02F01F0101228A4053
:108FA0005B09164941F8232095F91900002156F074
:108FB0005BFC95F919306A7E002B07DB02F01F017C
:108FC00001228A405B090D4941F82320BDE8F88F52
:108FD00001316BE7BEF10F0FA4D0F14619E700BFD6
:108FE000601A0020BC1B0020286B6E4E0000164348
:108FF000002474490000704200FFFF0000E100E01F
:109000002DE9F0417D4DC0EB001605EBC60682B0A0
:10901000D6F8403A002B00F0AF800446070196F8DE
:10902000B00A54F0DFFE96F8B03A03F01F025B0975
:109030000121013B01FA02F2042B0BD8DFE813F007
:109040000500C600CC00D500C0006D49CB6A23EAFC
:109050000202CA623B1B05EBC30304F1010893F84B
:10906000440A15F037FE5FFA88F818B1122380F829
:10907000078083713B1B05EBC30393F8450A15F08A
:1090800029FE064618B1132380F8078083713B1B25
:1090900005EBC30393F8460A15F01CFE18B1142320
:1090A00080F8078083713C1B05EBC4042E2194F8E3
:1090B000482A304615F058FE94F8460A15F00AFE84
:1090C00094F8492A0E2115F04FFE94F8440A15F041
:1090D00001FE94F8472A2E2115F046FED4F8403AB6
:1090E00048491A688B4222F040021A6047D0464A2B
:1090F00093425BD002F5806293424AD1404A916B21
:1091000041F400419163916B21F4004191635A68ED
:1091100042F480525A601A68520625D43B491D68B1
:109120008C6A486BD1E9052632430E6A32434E6A97
:109130003243CE6A224332430E6B25F47F453243DD
:1091400025F0BF0502432A431A605D68CA6925F409
:10915000706525F0040542EA14422A43B0F5005F29
:109160005A6004BF0A8F1A61DA6922F40062DA6178
:109170001A6842F040021A6002B0BDE8F081204A4D
:10918000116C41F480511164116C21F4805111640F
:10919000BDE71F4A9342BAD1194A116C41F400410C
:1091A0001164116C21F400411164B0E7144A916B11
:1091B00041F480419163916B21F480419163A6E772
:1091C0000F498B6A23EA02028A6243E70C490B6C5F
:1091D00023EA02020A643DE7094B996D1143996540
:1091E0009B6D1A400192019B34E7054BD96D1143E9
:1091F000D965DB6D1A400092009B2BE7582B0020AD
:109200000010024000300140003800400000002003
:10921000003C0140027A0B4B0168134410B413F870
:10922000013CCC5824F00104CC50CA181368DB0769
:10923000FCD4027D5DF8044B0223934043F00C0301
:109240004B60704704FA06082DE9F041D0F8008021
:109250002B4DD8E90464A061327DD4F800C002230C
:10926000074603FA02F2306842F00C024260227DA7
:10927000934043F00C03CCF80430317AD8F818202E
:109280006B1813F801EC50F80E3023F0010340F88E
:109290000E30237A2B4413F8013C5CF803E02EF0E7
:1092A000010E4CF803E05CF803E04EF0020E4CF8BF
:1092B00003E058F0F9F9D8F81C20217A206858F01A
:1092C000F3F93B6820685B685A6842F001025A6013
:1092D000327A36682A4412F8011C725842F00102B0
:1092E0007250227A154415F8011C425842F00102CE
:1092F00042505A6842F002025A60BDE8F08100BF55
:1093000004FA06082DE9F04F8046A14ED8F8005027
:10931000A04FD5F80490B14589B000F02D819E4B47
:10932000994500F08E8103F58063994500F09D8199
:109330009A4A914514BF4FF0FF320322D9F800102A
:10934000B8F80430288998F8684021F040014FF0BF
:10935000010C984285F824C0C9F8001040F05581EE
:1093600098F80CA0AB7A53453CD08D4BC2EB02125F
:1093700003EBC203019393F8440ABAF1000F40F0E3
:10938000158115F0A7FC8346F0B1019B93F847AA1D
:10939000036803F13842834B03EB922393F84802AE
:1093A00054F020FDBBF80430039302220123DBF8C4
:1093B0000000CDF81CA0CDE9042303A903230693E4
:1093C0004DF02AFC98F80CA0D9F8003043F00103C6
:1093D000C9F80030D9F8003043F00203C9F8003072
:1093E00085F80AA0D9F8003043F04003C9F80030EE
:1093F0002B6A9A68002A00F05B814FF0000CDFF8BE
:10940000A8E11433604653F8101C104401EA070227
:1094100031B1696921B3B2F1805F21D072451FD0AB
:1094200053F8142C143302EA070122B1B1F1805F22
:1094300016D0714514D053F80C2C0CF1010C002AF5
:10944000E1D12B7B63B15CB1BCF1010F00F2208153
:10945000072800F21D812B6A1B7B002B00F018816E
:109460002B6A9B684FF00009002B70D0B9F1000FF8
:1094700002D099F80C302BB1D8F8083013B11A6823
:109480009B8893622B6A6A681C682B6A58682B6AEF
:10949000D3F808C05368BCF1010F23F48053536024
:1094A00014DD614693689B07FCD5002C37D034F857
:1094B000023B93819368DB07FCD5D36808B120F8A1
:1094C000023B02390129EDDC0CF0010C536843F436
:1094D00080535360BCF1000F0CD093689907FCD502
:1094E000002C53D0237813739368DB07FCD5D36823
:1094F00000B103702B6A1B7B002B3FD12B6A1B69C9
:1095000083B12B6AD8F874001B69984701280ED0E4
:10951000022807D100232B6209B0BDE8F08F4FF677
:10952000FF73C6E7D5F820902B6A14332B622B6AA1
:109530009B68002B9AD1B9F1000F08D099F80C3034
:109540002BB9D8F8083013B11A689B8893612B6A3D
:109550001B68002B00F0B4802B6AD3F800802B6AC4
:109560005A682B6A2A62D8F80050D5F80490002275
:10957000B1451A607FF4D3AE0022DFE6D8F8083098
:10958000002BBBD01A689B889361B7E7FF23AAE73B
:10959000003001400080FFFF00380040003C0140E7
:1095A000582B0020307206080080012015F092FB35
:1095B0008346E8B1019B93F847AA036803F1384258
:1095C000404B03EB922393F8480254F00BFCBBF89A
:1095D000043003930223DBF80000CDF81CA0CDE992
:1095E000043303A9032306934DF016FB98F80CA04F
:1095F000D9F8003023F00103C9F80030D9F8003061
:1096000023F00203C9F80030EAE61846B3F5807F7C
:10961000A8BF4FF48073022BB8BF0223D9F8001003
:10962000002B93FAA3F3B3FA83F308BF4FF0FF3391
:10963000013B21F0380141EAC303C9F80030288119
:109640008EE6D9F80030B8F80400298998F8684007
:1096500023F040030122814285F82420C9F800301C
:109660003FF47EAEC0F34F03D0E7D9F80030B8F82E
:1096700004002A8998F8684023F0400301218242BF
:1096800085F824104FF00202C9F80030EAD167E6ED
:10969000D8F8000000215BF043FED8F8083013B181
:1096A0001A689B889362404609B0BDE8F04FCBE54D
:1096B0002B7B002B3FF4D4AE002C7FF4CCAECFE656
:1096C0002B6229E7307206080248C36C0BB13C30AC
:1096D00018477047000000200248036F0BB160304C
:1096E00018477047000000200348D0F894300BB1B1
:1096F00084301847704700BF000000200348D0F8AE
:10970000B8300BB1A8301847704700BF00000020E8
:109710000348D0F8DC300BB1CC301847704700BF9D
:10972000000000200348D0F800310BB1F03018479A
:10973000704700BF000000200348D0F8243113B167
:1097400000F58A7018477047000000200348D0F8E1
:10975000483113B100F59C70184770470000002095
:109760000348D0F86C3113B100F5AE70184770475C
:10977000000000200348D0F8903113B100F5C0700C
:1097800018477047000000200348D0F8B43113B1E7
:1097900000F5D27018477047000000200348D0F849
:1097A000D83113B100F5E47018477047000000206D
:1097B0000348D0F8FC3113B100F5F6701847704734
:1097C000000000200348D0F8203213B100F50470E7
:1097D00018477047000000200348D0F8443213B106
:1097E00000F50D7018477047000000200348D0F8BE
:1097F000683213B100F5167018477047000000205A
:109800000E4B013800B500EBC00003EB80000C4BA1
:10981000C06B83B098420CBFA020A12054F0E2FAA4
:10982000084B9A6C42F004029A649B6C03F00403A8
:109830000193019B03B05DF804FB00BF0000002012
:109840000000024000100240F0B50138184C00EB57
:10985000C00004EB80041D461648E36B83B08342CE
:109860000CBFA020A1200E46174654F0BBFA124BA5
:109870009A6C42F004029A649B6C94F95100E6647D
:1098800003F004030193B9096565019B55F0ECFFF2
:1098900094F95130002B08DB5809084903F01F03E5
:1098A000012202FA03F341F8203003B0F0BD00BFFB
:1098B00000000020000002400010024000E100E033
:1098C000800AA0F58010542808D8054B184490F859
:1098D00050320B2B02D8034AD056704700207047F5
:1098E00030720608F4F90608800000F1804000F5A7
:1098F00014500068704700BF800000F1804000F500
:1099000014500160704700BF244B2548996D254ACB
:1099100010B441F080519965996D83B001F0805188
:1099200001910199016841F480710160996D41F4E0
:1099300080619965996D01F4806100910099D3F877
:10994000901041F40041C3F89010FF24CA20532125
:10995000546250625162D3F89430DB0014D4124B3D
:1099600012490022C3F80425C3F80825C3F80C25C2
:10997000C3F81025C3F81425C3F81825C3F800153B
:1099800003B05DF8044B7047074A084BD2F8002536
:109990009A42E4D103B05DF8044B704700100240D6
:1099A0000070004000280040002000403166654201
:1099B00070B5394C4FF49A7303FB004393F8BF3AE8
:1099C00003B970BD354D95F858C395F859339C458A
:1099D0000ED003EB430205EBC20292F85CE30EF1FA
:1099E000FF36012E4FEA430231D9BEF1030F29D0D1
:1099F0004FF49A7303FB00F00444294BA4F8B01A07
:109A0000184413F037FC95F8E13302467BBBD5F8D8
:109A1000203CD4F8E00B01219847D4F8DC5BB4F883
:109A2000BC3AD4F8D82BB5F8B41019435368A5F84C
:109A3000B4101B0C1B0418435060136843F001035F
:109A4000136070BD5E1C06F003066645D0D013445B
:109A500005EBC303034493F869130029C8D04FF4FE
:109A60009A7303FB0043012283F8B22AC0E7D4F8BB
:109A7000B83AD4F8DC1B5B79D1F8B00003F0FC03F2
:109A800018440421D5F8203C9847D4F8DC3B8000EA
:109A9000A3F8AC0070BD00BF601A0020582B002056
:109AA00010250020F0B500F1F8020446D0F8280196
:109AB000474BC1B20839A3FB013183B0A3680192BF
:109AC0000909013120F0FF001E6857F033FED4F879
:109AD000E810019A0023012984F8EC3004F1BC0756
:109AE0001AD0042918D0102966D0402914D0B1F515
:109AF000807F5DD0B1F5806F5AD0B1F5805F63D0C3
:109B0000B1F5804F54D0B1F5803F0CBF6FF0080C19
:109B10006FF4006C382301E06FF0080C06F11805B3
:109B20003046E95801EA0C01E950D4F8E81057F042
:109B3000A1FBD4F8E830012B19D0042B17D0102B3F
:109B400012D0402B13D0B3F5807F2DD0B3F5806FAA
:109B50002AD0B3F5805F32D0B3F5804F24D0B3F56F
:109B6000803F06F1500502D04FF4006100E008216B
:109B70002B68D4F828010B4310212B60144BC4F838
:109B8000C410C1B20839A3FB013109093A460131B9
:109B900020F0FF0057F088FDD4F82821136843F027
:109BA0000203136003B0F0BD06F11C050821DFE7D6
:109BB0006FF0080C0423B1E76FF4006CAEE706F118
:109BC0001C054FF40061D3E76FF4006C0423A5E794
:109BD000CDCCCCCC2DE9F04FDFF870A22DED028B6F
:109BE0009AF8944387B034B90124204607B0BDECFD
:109BF000028BBDE8F08FDAF8A433DFF854B208EE38
:109C0000103A15F0A3FB9BF8503C0390002B00F09A
:109C100013810AF52B670AF5D2630AF56C74019378
:109C20003D4600260597DBF8F039039AD31A04D491
:109C3000D5F8F0209342C0F2E8804FF49A7303FB0A
:109C400006A393F89C3B03F0FF020292002B55D031
:109C5000AB68A9891A68D5F828315B681FFA83FEBA
:109C6000D368CEF1160E23EA0103BEF1070FD360CD
:109C700044D9DAF898360133CAF89836D5F8303135
:109C800004939C46002201215CF8047B904689469F
:109C90001BE0DCF80000B8F1140FA0EB07035ADC5E
:109CA00013F1080748BF03F117073B1108EB27180A
:109CB0000746581E013102FA03F38E4509FA00F2F5
:109CC00042EA03020CF1040C45D38E45E1D8C8F1F9
:109CD0001503DCF800704FF01508EAE7DAF894365F
:109CE0000133CAF89436002E00F0968000230293C8
:109CF000029918EE102A204613F0DCFA2846FFF7E6
:109D0000D1FE019A9BF8503C013604329E4205F583
:109D10009A7504F15C04019285DB0022059FCBF863
:109D2000F029002B3FF460AF4FF49A7202FB0373EB
:109D300097F8B420D7F8E80012F0020FBA6811685B
:109D40000A6A07F59A7714BF42EA80020243BB42CF
:109D50000A62EDD148E7B8F1150FBFD13848C2F318
:109D60008423C2F3441100EB830300EB8101D3F899
:109D7000A832D1F8A8121B0243EA011302F01F0116
:109D800000EB8101C2F3C43200EB8202D1F8A812C9
:109D9000D2F8A8220B4343EA023383EA132282EA71
:109DA000121202F00F020F2A98D140F6FF71B1EBA8
:109DB000131F4FEA13123CD0C2F308025B0B12FAD6
:109DC00003F38BD05A0802F5122202F5F8624FF61F
:109DD000FF71B2FBF3F293B28B423FF47FAF019974
:109DE000032E8B814FF001038B7381DC9AF81437BB
:109DF0002D2B7FF47DAF134B029923F816202046BC
:109E000018EE102A13F056FA78E70024204607B01F
:109E1000BDEC028BBDE8F08F04990B4858225DF031
:109E200033F80296029918EE102A204613F042FAEF
:109E300064E700221346D2E7CBF8F039D5E600BF3D
:109E400030720608782100201C210020601A0020B2
:109E5000582B002003689B0AA3F58013542B58D875
:109E6000F0B53D4C234493F850420B2C50D8407928
:109E70008608002952D0394D04EB840304EB4303D8
:109E8000334405EB84164FF0020CD6F8586C80086A
:109E9000F7680CFA00F005EB830C3843CCF89C1FF4
:109EA000CCF8AC2FF060A001EFF3118C502383F3BA
:109EB00012882C2304FB03F3E918D1F8982F4AB336
:109EC000C1F8BC2F131D264A264E2C2104FB01F19C
:109ED00006EB010E14310A4452F8041B19B1196043
:109EE00052F8043C04339645F6D100225FFA8CFC0C
:109EF0001A608CF311882C2303FB04542844D4F8F3
:109F0000BC3FD0F8582C13B3D36843F00103D3609F
:109F1000F0BD7047124A24331344D5E70F4D04EBCC
:109F2000840304EB43033046334405EB8416D6F830
:109F3000587C02268640F86820EA0600F86005EBA7
:109F40008300C0F89C1FC0F8AC2FA001ACE7D36819
:109F500023F00103D360F0BD30720608582B0020B7
:109F6000F03A0020143B002003689B0AA3F58013FD
:109F7000542B20D8104A134493F850320B2B1AD884
:109F800061B10E49427901EB83139208D3F8581C52
:109F90000223C86893400343CB6070470749427966
:109FA00001EB83139108D3F8580C0222C3688A404E
:109FB00023EA0203C360704730720608582B002062
:109FC00003689B0AA3F58013542B10D8084A134446
:109FD00093F850220B2A0AD80649437901EB8212E2
:109FE00099080223D2F8582C8B40DB431361704749
:109FF00030720608582B002001490248FDF79AB834
:10A00000F03A0020002C014010B5064C06482146CD
:10A01000FDF790F804F5C6710448BDE81040FDF75F
:10A0200089B800BFF03A0020002C014000440140F4
:10A0300002494FF08040FDF77DB800BF1C3B002077
:10A0400001490248FDF776B8483B00200004004073
:10A0500001490248FDF76EB8743B0020000800403B
:10A0600001490248FDF766B8A03B0020000C004003
:10A070002DE9F843194E3569F3681D400FD0DFF81C
:10A0800060804FF00047B5FA85F227FA02F3DB4310
:10A090001F2A336105EA030503D0002DF3D1BDE883
:10A0A000F883D8F89C30A3B103F1FF3900231FFADD
:10A0B00089F9C8F89C30D8F89840002CEDD0236876
:10A0C0002046494698476468002CF8D1002DDAD123
:10A0D000E5E7F16A1FFA81F9EDE700BF00100040E3
:10A0E000583B002001490248FDF724B8243C0020D9
:10A0F0000034014001490248FDF71CB8243C00200F
:10A100000034014001490248FDF714B8503C0020DA
:10A110000040014001490248FDF70CB8A83C00206E
:10A120000048014001490248FDF704B8D43C002032
:10A13000005001402DE9F0414FF40F728CB0002126
:10A140005D485E4EDFF880815CF012FF5C4B1A6E5A
:10A1500042F400621A661A6E02F400620092009ADB
:10A160009A6D42F001029A659A6D02F00102019225
:10A17000019A9A6D42F002029A659A6D02F002020B
:10A180000292029A9A6D42F004029A659A6D02F068
:10A1900004020392039A9A6D42F008029A659A6D3E
:10A1A00002F008020492049A9A6D42F010029A6535
:10A1B0009A6D02F010020592059A9A6D42F0200203
:10A1C0009A659A6D02F020020692069A1A6E42F47F
:10A1D00000521A661A6E02F400520792079A1A6E1B
:10A1E00042F480321A661A6E02F480320892089A9B
:10A1F0001A6E42F400321A661A6E02F400320992A4
:10A20000099A1A6E42F480221A661A6E02F48022AB
:10A210000A920A9A1A6E42F480121A661B6E03F4AE
:10A2200080130B930B9B06F53A6537464FF0804140
:10A2300006F538644246002301E054F83320914289
:10A240000BD001330C2BF8D10020203753F0CAFD7E
:10A25000AF420CD057F8201CECE71A4A02EBC303BC
:10A26000203793F8CC0E53F0BDFDAF42F2D1164F1C
:10A27000164C4FF080413A46002301E054F8332059
:10A2800091420BD001330C2BF8D10020203653F033
:10A29000A9FDAE420CD056F8201CECE7094A02EBAF
:10A2A000C303203693F8CC0E53F09CFDAE42F2D19E
:10A2B0000CB0BDE8F08100BFF03A002078750608C8
:10A2C0000010024030720608002C0140F880060899
:10A2D0001F4B984227D003F50063984223D003F523
:10A2E000406398421FD003F5806398421BD003F56A
:10A2F0008063984217D003F50063984213D0154944
:10A30000154B8A681548C2F3022213448A6893F8F1
:10A31000283FC06803F01F0312F4E06F20FA03F037
:10A3200000D0400070470B490B4B8A680B48C2F3C2
:10A33000C22213448A6893F8283FC06803F01F03C1
:10A3400012F4605F20FA03F0ECD04000EAE700BFAF
:10A35000002C01400010024030720608000000206E
:10A360002DE9F04F97B0B84B0193B84BDFF8F88266
:10A370000024A3F57365B64FDFF8D0A2BB0AA3F59E
:10A380008013542B4FF0000650D82B4493F85032D2
:10A390000B2B4BD818F90390AE4B93F8ED30012BF3
:10A3A00040F00B81B9F1010F36D14FF0000B594647
:10A3B000484618F08BFE18F013FF037813B1542BA6
:10A3C00040F01B810BF1040B1FFA8BFBBBF1100F4C
:10A3D000EDD1BCB34FF0000C9B4A00210DE02B44A3
:10A3E00093F850320B2B0FD818F903304B450ED091
:10A3F00001318C4202F1E40221DD906803689B0A7E
:10A40000A3F58013542BEAD900234B45F0D14379AF
:10A410009AF805009842EBD10136082E43D05AF83D
:10A42000207FBB0AA3F58013542BAED9894B93F838
:10A43000ED30013B012BEFD94FF00009B5E7BCF13E
:10A44000000FE9D1DAF80C00834B002205E001325D
:10A45000102A03F10C0300F0BE8359688842F6D13C
:10A4600052B29AF80510384613F070FE7B4A4068E5
:10A4700000235168884203F1010300F09B80102BF8
:10A4800002F12402F5D14FF0FF33754A03EBC30309
:10A4900002EB830393F85830002BBDD16B4B03EBD9
:10A4A0004616019B9E60019B0134E433042C01930A
:10A4B0007FF461AFDFF8B4816A4B01930127A8F103
:10A4C0000409BA46D9F800200AF1FF339A426EDD3A
:10A4D000D8F80C60002E00F07683B7883168B7FAA0
:10A4E00087F701F13841C7F11F07890AD9F8A0534E
:10A4F000002D40F38A80544B002404E00134AC4228
:10A5000003F1E4037FD01A688A42F7D14E4AC8F8B3
:10A510000470E42303FB0424C8F818405FFA8AF3AC
:10A5200016B1F3710323B371216CA26C7B0003207D
:10A53000984001432164012101FA03F31343A3640A
:10A5400099F89433002B40D0E36C01FA07F73B43B2
:10A55000E36496B13368B2889A613E4B93F8F81180
:10A56000490141F00901304601F0E901002214F0EF
:10A57000D9FB99F89433002B38D0D4F89400B9B2B1
:10A580000122FBF763FD2046FBF7B0FD019A012392
:10A590000AF1010A88F81C3088F81D305374BAF1AA
:10A5A000090F02F1180308F1200801938AD117B0AE
:10A5B000BDE8F08FDBB2013B67E7022B7FF4F5AE1D
:10A5C000B9F1080F3FF4F1AE26E7E36C07F1100292
:10A5D00001FA02F21343E36436B1B38832681B0414
:10A5E00001FA07F79361B8E701FA07F7D4F8940086
:10A5F000B9B20022FBF72AFDC5E74FF0010C002C91
:10A600007FF4EAAE08E7032C68DCE42202FB059243
:10A61000D2F82837002B00F0CC82C2F82017013185
:10A6200082F80118542182F800186A1CC9F8A02386
:10A63000084ADC6892F80121039298F810200492ED
:10A64000054900221AE000BF802100206081060831
:10A6500000340140503C00207C0200203C000020DF
:10A6600000000020883D0020F4F90608641A00204C
:10A670000132102A01F10C0100F0AD8248688442D9
:10A68000F6D159791868DFF840B352B213F05EFD85
:10A69000E423D0E9014203FB0593C3F83827C3F84C
:10A6A00034475A46002351688C4203F101031AD003
:10A6B000102B02F12402F6D1B44B93F83420AB46B0
:10A6C000002A00F0E180B248B249B34AB34BC0F867
:10A6D0002831C0E9472117B0BDE8F08FAC4A032309
:10A6E00082F80031EFE7DBB2A84A013B03EBC3037A
:10A6F00002EB8303E42293F85810059102FB05F264
:10A7000002924A440846B2F800180028DBD1A3F8A8
:10A7100058100299A24C4B0003EBA103C3EB432357
:10A72000D2F8281703EB83435B42086803EB43012D
:10A7300001EB011104EB81014FF08C0C994C0CFBE7
:10A7400003F304EB43033468C2F8EC373323C2F855
:10A750002447C2F8B417C2F8B837C2F8F0C7FFF7F9
:10A76000B7FD914B02995C18039B062B00F0F18119
:10A77000072B8E4A8E4B8F4914BF712219468E4B80
:10A7800004BF13461C22C9F8A823B0FBF3F2E4234C
:10A7900003FB0593013A92B2B0FBF1F10139A3F842
:10A7A000BC17A3F88427A2650022A4F85020E26514
:10A7B0006265D3F828270393029B106803F15001C8
:10A7C000794B194456F00AFF039BD3F828270392CC
:10A7D0001068036843F08003036053790C2B08D89A
:10A7E000DFE803F0750707076E0707076607070727
:10A7F0005E00E42303FB0593D3F82C1702684FF0A7
:10A80000600CCDF838C04FF4807C0023CDF850C0E8
:10A810004FF0010C109313931593CDF83CC0022315
:10A8200022F001024FF00A0CCDE911C302600EAA1A
:10A8300056F020FDE42202FB0592039BD2F82C1770
:10A840001A6801294FF0000300F07D81042900F00F
:10A850007A81102900F0B281402900F07481B1F5AD
:10A86000807F3BD0B1F5806F38D0B1F5805F00F0CC
:10A87000AE81B1F5804F31D0B1F5803F0CBF0821DA
:10A880004FF4006138232BE0E42202FB0B9292F894
:10A89000011892F8002883F8342083F8351012E765
:10A8A000E42303FB05934FF48051C3F82C17A5E76D
:10A8B000E42303FB05934FF48071C3F82C179DE745
:10A8C000E42303FB05931021C3F82C1796E7E42338
:10A8D00003FB05930121C3F82C178FE708210423FC
:10A8E00002F1180050F803C041EA0C01C150039B6B
:10A8F0001879002840F03181E42202FB0592002300
:10A90000D2F82807D2F834170068026842F0010232
:10A910000260DBF80420914203F1010300F015818D
:10A92000102B0BF1240BF4D14FF0FF33174A03EB3C
:10A93000C30302EB8303D86B204B98420CBFA020CB
:10A94000A12053F04FFA1E4A936C43F00403936422
:10A95000E42303FB0593D3F82817936CD1F800C0C8
:10A9600003F004030893089B4B790C2B9BBF154AFB
:10A9700002EB4303002233F8C82CE42303FB0593C6
:10A980006046A3F83027002327E000BF0000002026
:10A99000503C002051B701084DB7010859B70108D4
:10A9A00060820120E07A01208021002040771B0096
:10A9B0001055220044950800D0DD0600000002403A
:10A9C00000100240288306083C000020884200F066
:10A9D000F8800133042B00F00181824951F83310D3
:10A9E0000029F3D1804984460846D1F8BC130131CF
:10A9F000C0F8BC1300EBC301DB00C1F8C0C3794948
:10AA000005980B444FF0000B99880A439A807749C8
:10AA100023469022FEF718FF6069E42303FB0595A7
:10AA2000036843F002030360036843F00A03036012
:10AA3000C4E91DBB4FF44052D5F83837C4F88C3008
:10AA4000C4F8902080231022E3672267D5F8B82746
:10AA5000C4F88820D5F82427654BC1B218320839CC
:10AA6000A266A3FB01214FF40072C4F88020029A71
:10AA7000604B68321A444FF4006CD5F8B437E36683
:10AA80000909013120F0FF00C4F884C056F00CFE23
:10AA9000029AD5F834075749A0320A440168216266
:10AAA000416861628168A162C168E162C4E92ABB50
:10AAB000C4F8B0B0D5F83817C4F8C4104FF4005C2F
:10AAC0008023C4F8B430C4F8C8C0D5F8F037C4F84F
:10AAD000C030D5F824371033C4F8A030C1B2444B8D
:10AAE0000839A3FB01314FF48073C4F8B830D5F8AE
:10AAF000EC37C4F8A43009094FF480630131C4F87D
:10AB0000BC3020F0FF0056F0CFFDD5F83427116897
:10AB10002163516861639168A163D168E163116841
:10AB200041F002011160116841F00A011160049ABC
:10AB300088F810205FFA8AF3C8F80470C8F80C602F
:10AB4000C8F81840EDE40821CAE6DBB20593013BE2
:10AB5000ECE62949294B382215E6069214F0BAF89A
:10AB6000069A08B30268039B079002F13841244A11
:10AB700002EB912292F848021A7A069253F032F9C7
:10AB8000079B069A99880D92002218680991CDE9D1
:10AB90000B2209A9022206930A924CF03DF8069B6B
:10ABA0005422DA80039B1A68536C43F400435364C5
:10ABB000A2E6144A022382F8003184E54FF40061D2
:10ABC0008EE6DB001BE74FF0FF3739468EE44FF48B
:10ABD0000061042384E600235B68FFDE00239B887A
:10ABE000FFDE00BF182F0020582B0020ED71000859
:10ABF000CDCCCCCC80210020882A1100A0BB0D0038
:10AC000030720608503C00202DE9F843830AA3F572
:10AC10008013542B41D8464D2B4493F850620B2E91
:10AC20003BD8DFF8188108EB86150446D5F8583C68
:10AC300083424FEA861930D0013989B2C5F8641CC5
:10AC4000C5F8580C1746FFF743FB0023B0FBF7F29B
:10AC500008F65840013AC5F8683CC5F8603CC5F8AC
:10AC60006C3CC5F85C2C00EB86104CF0B5F9314B10
:10AC70009C4214D0B4F1804F11D0A3F594339C4280
:10AC80000DD003F580639C4209D003F580639C429C
:10AC900005D003F594339C4237D0BDE8F88395F88E
:10ACA000943C012BF9D0D5F8583C022285F8952C1C
:10ACB0009968214A0A409A60012285F8952C08EB90
:10ACC00009021C48022182F8951C83425A6899683F
:10ACD00018D000F50060834214D000F5E0508342A4
:10ACE00010D022F00072C84422F0700221F08001DE
:10ACF0005A6001209960002388F8950C88F8943CEC
:10AD0000BDE8F88322F47002EBE795F8943C012B40
:10AD1000C3D008EB09020221D2F8583C82F8951CF6
:10AD20009868054901409960012182F8951CC6E7A1
:10AD300030720608002C01408800CEFF582B0020FE
:10AD400070B504460068830AA3F58013542B05D818
:10AD50002E4E334493F850520B2D00D970BDFFF79F
:10AD600053FF2B4BA80103EB85150222D5F8581C85
:10AD700085F8952C8D68274A2A40062A06D0B2F518
:10AD8000803F03D00A6842F001020A6003440120B8
:10AD90002168214A83F8950C2048002301E050F8EF
:10ADA000332091420AD001330C2BF8D1012100202D
:10ADB00054F05AFD1A4B01221A6070BD06EBC30312
:10ADC000012193F9CD4E93F8CD6E204654F04CFD01
:10ADD000002CC3DB124D640906F01F03012101FAA8
:10ADE00003F31B2E45F8243008D02E2EB6D12C208C
:10ADF00054F03AFD4FF480536B6070BD192054F04D
:10AE000033FD4FF000732B6070BD00BF3072060839
:10AE1000582B002007000100002C0140F880060894
:10AE200000E100E0BFF34F8F0549064BCA6802F40A
:10AE3000E0621343CB60BFF34F8F00BFFDE700BF5D
:10AE400000ED00E00400FA052DE9F843BFF35F8F41
:10AE5000464A00210B46C2F894100846C2F89830C2
:10AE60000133112BC2F89C10C2F8A010F6D10523B3
:10AE7000C2F89430BFF34F8FBFF36F8FBFF35F8F74
:10AE80003B4C3A4FC2F894000026012520E0002AEE
:10AE90003AD0D4F80080637AA17AE07A1B0643EABC
:10AEA000017343EA4203217B627BC7F8986043EA5F
:10AEB000804343EA414343EA0243013643F001033E
:10AEC000032EC7F89C8004F11004C7F8A0301CD0F2
:10AED0006368227A002BDAD0D4F80080002ADAD115
:10AEE00028F01F09A3EB0909B9F1200F38BF4FF073
:10AEF000200948465BF0C2FF431E05FA03F2914564
:10AF000008BF1846C2B2C6E7FEE70523C7F894306B
:10AF1000BFF34F8FBFF36F8FFB68164C4FF6FF02E6
:10AF2000134043F00523144A43F47A03FB60D2F83C
:10AF30009430C4F8FC314CF005F8D7F8FC200F4BE6
:10AF40000F4942F08072C7F8FC2000225A601A684C
:10AF500042F001021A608B680A4AB0FBF2F043F437
:10AF600080438B60C4F80002BDE8F88300ED00E088
:10AF70003C030020503C002000100240001000E084
:10AF80000070004040420F002DE9F04FDFF824939D
:10AF90001F4609EB800389B0D3F80442002C78D017
:10AFA000D4F8B451BB4B23606B68C4F8AC312B6B45
:10AFB0006361EB6AA361EB8EE360AB8EA1602361FA
:10AFC00095F800A009EB4A03904693F93022511CF2
:10AFD00006464FEA4A0B40F0D880D94499F93132FD
:10AFE000013340F0BD80D4F8000188B1AA4B0022A3
:10AFF0005968884203F1240302F1010200F008813C
:10B00000102AF5D1A54B93F83420002A00F039819D
:10B01000D4F8FC0088B1A04B00215A68904203F19B
:10B02000240301F1010100F0C7801029F5D19B4BE9
:10B0300093F83420002A00F03F816B68C4F8203177
:10B0400095F82400002840F0B48094F8BA0113F079
:10B0500041FE17F0080A94F8B8B181461DD00028C7
:10B060003ED017F0510F4FF00B0314BF0A211A21E5
:10B07000013617F0010F8371C67114BF40232023DE
:10B0800094F8BB21194313F04DFED4F8FC30002B8B
:10B090004FD0204609B0BDE8F08F18F0020F1FD046
:10B0A000F0B1036803F138427D4B03EB922393F830
:10B0B00048020B2389F80630731C89F8073094F88E
:10B0C000BB7152F08FFEB9F80430D9F80000039339
:10B0D00003A90223CDE905AA079704934BF09CFD31
:10B0E00018F0010FD1D0584613F0F4FD07460028A0
:10B0F000CBD002680C238371694B02F1384203EB19
:10B1000092230136C67193F8480294F8B96152F05F
:10B1100069FEBB88386803930222002303A9CDE9A6
:10B120000423069307964BF077FDD4F8FC30002BF0
:10B13000AFD195F8291095F92700890954F094FBAF
:10B1400095F9273095F82720002BA2DB55485B099D
:10B1500002F01F02012101FA02F240F8232098E7D1
:10B1600099F930225146052012F074FE00283FF470
:10B170003AAF4368C4F8FC308368D4F80001C4F8DF
:10B18000043100287FF432AF42E75146042012F028
:10B1900061FE00283FF421AF4368C4F80031D94470
:10B1A0008368C4F8083199F9313201333FF41BAF99
:10B1B000D6E752F017FE48E7C9B2384B013901EB28
:10B1C000C10103EB81012B7891F858200133DBB2E8
:10B1D000002A7FF432AFC86B81F85930324B984265
:10B1E0000CBFA020A1200C2381F8583052F0FAFDAA
:10B1F0002E4A6B68916C41F004019164926C02F0EC
:10B2000004020292029A03F12402C4F81C2115E7F9
:10B210005FFA82F909F1FF33204A03EBC30302EB23
:10B2200083022B7892F858100133DBB200297FF4A7
:10B23000EFAE82F859301C48D36B83420CBFA0207C
:10B24000A1200B2382F8583052F0CCFD174B18493F
:10B250009A6C42F004029A649B6C95F8282003F0E3
:10B2600004030193019B48462346FEF7EDFA6B6801
:10B27000D4F8FC002833C4F8183100287FF4CBAE92
:10B28000DBE62A78013283F835200B2283F834205C
:10B29000BEE600BF7C8206083C00002000000020C3
:10B2A0003072060800E100E0000002400010024099
:10B2B00091780008503C00202A78013283F835202C
:10B2C0000C2283F834206B68B8E600BFF8B5D0F8DC
:10B2D00020112423C0F8A0310A68002322F00102C3
:10B2E0000A600B604B608B6090F805C0C0F8A83115
:10B2F00080F89C31C0F8A031C0F83831C0F8A431D2
:10B30000C0F84031C0F834314FEA8C2303F4805345
:10B310008268C0F828314FEA0C33C0F8242103F4C6
:10B320000053BE4AC0F82C314FEA0C2303F480636B
:10B330009142C0F8303104BF0423C0F8443103798E
:10B34000044600F5907513F001001CBF0422C4F8F8
:10B35000342113F0020305D0D4F8342142F008025E
:10B36000C4F834211CF0010F0DD048B1D4F84821A5
:10B3700042F00202C4F848214FF48032C4F8502150
:10B38000002B40F0F780A64B03F12C0053F8042B60
:10B39000944200F0B5809842F8D11CF0080F40F0BC
:10B3A000C580D4F8A031002B00F009812423C4F813
:10B3B000A0310B6823F0010328460B604EF080FBA0
:10B3C000012815D0D4F84831002B40F00681D4F87C
:10B3D00020315A6822F490425A609A68284622F036
:10B3E0002A029A601A6842F001021A6057F0AAF81D
:10B3F0002379D9075ED5D4F8FC20002A00F0CC8050
:10B40000D4F80431E263802204F13C070026E264B0
:10B41000C4F8A03020224FF48053C4E916233846E4
:10B42000C4E91166C4E9146657F02EFA38464AF0AA
:10B43000EBFDD4F8A431C4F89871202B656634D1A3
:10B44000626992B3E36899B279B394F89C010128D8
:10B450002BD0A4F87C117349A166734994F860005D
:10B46000E1667249216701214FF0220C8842C4F83D
:10B47000A861C4F87821666784F89C11C4F8A4C157
:10B480000AD094F8610084F860100128D4F82011E3
:10B4900000F0AB8084F86060102100222023C4F803
:10B4A000A81184F89C21C4F8A031E26B237952687A
:10B4B000C4F814219B076ED5D4F80021002A64D06B
:10B4C0000023C4E92C33D4F80811C4F8A830C4F818
:10B4D000B8304FF48053C4F89C2004F19C0610222D
:10B4E000C4F8BC3080233046C4E92812C4F8AC301C
:10B4F00057F0CAF930464AF087FD002862D0FEE7CF
:10B50000002C3FF44AAF94F8C431002B3FF445AF10
:10B51000D4F8483143F00803C4F848311CF0080F50
:10B520004FF40043C4F858313FF43BAFD4F8A03196
:10B53000002B4FD02423C4F8A0310B6823F0010363
:10B5400028460B604EF0BCFA01283FF451AFD4F806
:10B550004831002B45D1D4F820315A6822F490426A
:10B560005A609A6822F022029A609A68284642F04D
:10B57000080236E7D4F8483143F00103C4F84831F3
:10B580004FF40033C4F84C31FDE6D4F8AC21136815
:10B5900043F080031360F8BDD4F8AC21116841F486
:10B5A00080711160916841F001019160116841F072
:10B5B00020011160116841F0100111607AE784F8F0
:10B5C0009C31F3E6D4F89C30C4F89461C4F8C450BC
:10B5D0005860F8BD84F89C31ACE728464FF0CEF8AF
:10B5E000F5E628464FF0CAF8B5E79BB22431384655
:10B5F0004AF0F0FD00287FF44FAFD4F8203184F8F2
:10B600009C011A6842F480721A609A6842F0010242
:10B610009A609A6842F040029A6046E700800040D3
:10B62000543E0020C1710508F5710508F97105083F
:10B6300070B5EFF31185502383F31288D0F80031F1
:10B640001B6813F0010303D0EDB285F3118870BDC0
:10B65000D0F8A021D0F8A4110A4302F02102212A37
:10B660000446F1D0D0E909218A424AD09CBF1A464B
:10B670000069A26288BF531AD4F8A02198BF431A68
:10B680000026202A9BB284F8B061DDD1A26951184E
:10B69000DAD0002BD8D094F89C21012AD4D0D4F849
:10B6A0009401A4F876314FF0010C2122C4F8A8616E
:10B6B000C4F87011A4F8743184F89CC1C4F8A021B6
:10B6C00040B31A4A90F824E0C262194A0263E64580
:10B6D000184A42638663D4F8202108D080F824C039
:10B6E00090F825C0BCF1010F0FD080F82460102124
:10B6F00000222023C4F8A81184F89C21C4F8A031AA
:10B70000A2E7012380F8B0319EE728324AF062FDBB
:10B710000028ECD1D4F8203100224021196284F8AD
:10B720009C219A6842F080029A608DE79971050821
:10B73000BD710508F9710508F8B5D0F82031DA694E
:10B740009106044615D5586AE36AC0B2002B00F092
:10B75000F180216B9847D4F820311A6822F4807266
:10B760001A609A6822F001029A609A6942F008020F
:10B770009A61DA69D20744BF01221A62DA6997072F
:10B7800044BF02221A62DA69560744BF04221A62D1
:10B79000DA69150744BF08221A62D4F80021002A8A
:10B7A00038D0D96949060AD4DA69D20606D5626B5F
:10B7B00012B19047D4F8203110221A62F8BDD9692D
:10B7C0001E689D680F0704F590703BD18F0607D562
:10B7D00006F0200C05F080575CEA070740F0D380A4
:10B7E000CF0202D56F0200F1DA800F0606D505F40C
:10B7F000000506F080073D4340F0A880480602D5CA
:10B80000710600F1B58012B12046FFF711FFD4F8A0
:10B810002031C9E7D9690806C3D5D4F8A011212978
:10B82000BFD0D4E90901814200F0B280A069405C38
:10B83000C0B2986220690131B1FBF0F500FB15112F
:10B84000A162AEE75E4F06F4907E05EA070C5EEA61
:10B850000C07C5D0CF0709D5F70507D501271F620B
:10B86000D4F8A87147F00107C4F8A8718F0772D403
:10B870004F0709D5EF0707D504271F62D4F8A87131
:10B8800047F00207C4F8A8710F070CD506F020078F
:10B8900057EA0C0707D008271F62D4F8A87147F0B1
:10B8A0000807C4F8A871D4F8A871002FABD0890696
:10B8B0000CD506F0200605F0805556EA050205D0A5
:10B8C000D4F88C2112B19047D4F82031D4F8A811C3
:10B8D0009A6801F0080102F04002114363D01A682F
:10B8E00022F490721A609A6822F0805222F00102CB
