:020000040800F2
:10000000F8FF0120C54D0B08614E0B08F5380608B6
:10001000614E0B08614E0B08614E0B08000000009A
:10002000000000000000000000000000614E0B080E
:10003000614E0B0800000000614E0B0809290608FC
:10004000614E0B08614E0B08614E0B08614E0B08A8
:10005000614E0B08614E0B08491C0608711C06080E
:10006000AD1C0608E91C0608251D0608F50700005A
:10007000090800001D0800003108000045080000C4
:10008000590800006D080000614E0B08614E0B0816
:10009000614E0B08614E0B08614E0B08611D06088E
:1000A000614E0B08251A0408614E0B08151A040846
:1000B000351A0408451A0408551A0408355B040863
:1000C000995A0408F95B04085D5B0408614E0B084B
:1000D000614E0B08A10B0000990C0000910D00006F
:1000E0009D1D0608614E0B0800000000211B04083E
:1000F000F91A0408311B0408E91A040881080000F1
:10010000614E0B08C1820408651A0408614E0B0891
:10011000890E0000810F0000751A0408817C0A080E
:1001200095080000A9080000BD080000D1080000E3
:10013000E5080000614E0B08614E0B08614E0B088C
:1001400000000000000000000000000000000000AF
:10015000F90800000D0900002109000079100000D5
:10016000BD5C0408215C0408614E0B08614E0B085D
:10017000614E0B08614E0B08614E0B080000000039
:10018000614E0B08614E0B087111000069120000EE
:10019000614E0B08614E0B08614E0B08614E0B0857
:1001A000614E0B08614E0B08614E0B08614E0B0847
:1001B000614E0B08614E0B08614E0B08815D04080F
:1001C000E55C0408614E0B08614E0B08614E0B089C
:1001D000614E0B0829800A08614E0B08614E0B081E
:1001E000614E0B08614E0B08614E0B08614E0B0807
:1001F000614E0B08614E0B08614E0B08614E0B08F7
:10020000614E0B08614E0B08614E0B08614E0B08E6
:10021000411B0408511B0408611B0408614E0B08B4
:10022000614E0B08614E0B08614E0B080000000088
:10023000C5820408614E0B0800000000614E0B08E7
:10024000614E0B08614E0B08614E0B08614E0B08A6
:10025000614E0B08614E0B08614E0B08614E0B0896
:10026000614E0B08614E0B08614E0B08614E0B0886
:10027000614E0B08614E0B08614E0B080000000038
:10028000614E0B0800000000614E0B0800000000EA
:0802900000000000614E0B08A4
:0828000000001E080000200882
:020000040804EE
:1000000030B5FAB18E464FEA014C034600F1C00507
:10001000002419680C3353F8042C43F8084C41EAC7
:100020000C0142EA0E02AB4243F80C1C43F8042CCC
:10003000EFD1D0F8C03043EA0E03C0E93144C0F834
:10004000C03030BD4FEA014E8C46DEE7F0B5424C81
:1000500004EB401292F8203003B9F0BD4FF4B47CA9
:100060003E4B00264FEA401E0CFB004C9CF806510C
:100070008CF8066195711D785A7895420DD002EB87
:10008000420C560003EBCC0C9CF804C00CF1FF377B
:10009000012F55D9BCF1030F4DD004EB0E00818028
:1000A000EFF31183902282F312888279DBB2818888
:1000B00042EA4102002192B2817183F3118813094F
:1000C000247883EA122383EA0201CCB11301C943E5
:1000D000C269012480689BB201F00F01D2F8AC2004
:1000E00084400B4302F1C000590013F4004F8BB25F
:1000F00002D15168214351600C328242F4D1F0BDEB
:1001000013018468C26901F00F0104F110009BB271
:100110000124D2F8AC200B43844002F1C000590006
:1001200013F4004F8BB202D15168214351600C325D
:100130009042F4D1F0BD571C07F00307AF42ACD09A
:10014000324403EBC2030344597C0029A5D004EBDD
:100150000E0301229A71A0E708000020781E0024F7
:10016000704700BF024B03EB401090F8210070472E
:10017000080000204368426D30B49A61EFF31182A9
:10018000502383F312884168D2B2856C0B68046DEA
:1001900023EA050323430B6082F3118843698168D6
:1001A0001A68096822F00102D0E908541A60826ACC
:1001B0001D605C615A60D0E90B429C60DA600023EC
:1001C000B0F86C2030BCCA6203777047084A034617
:1001D000D0F8E4005268D3F8F010121A00209142CF
:1001E000B8BFC3F8F020012283F81C21704700BF7C
:1001F000001000E0437D13B1012B04D070474FF491
:100200008063838170474FF40063FAE74FF4006323
:1002100083817047084A0346D0F8E4005268D3F857
:10022000F010121A00208A42C8BFC3F8F020012241
:1002300083F81C21704700BF001000E04FF480538A
:1002400083817047084A0346D0F8E4005268D3F827
:10025000F010121A00208A42C8BFC3F8F020012211
:1002600083F81C21704700BF001000E00269C368DA
:100270002DE9F04712EA03092AD005460E464FF051
:1002800000474FF00008B9FA89F327FA03F21B3B45
:10029000D24309EA02092A61042B16D8DFE803F0E9
:1002A000352C231A0300B36A002B37D003F1FF3A31
:1002B000C6F828801FFA8AFA746A34B12368204687
:1002C000514698476468002CF8D1B9F1000FDAD193
:1002D000BDE8F0877068696B036889B29847B9F127
:1002E000000FD0D1F4E7B068A96B036889B29847D2
:1002F000B9F1000FC7D1EBE7F068E96B036889B289
:100300009847B9F1000FBED1E2E73069296C036864
:1003100089B29847B9F1000FB5D1D9E7E96A1FFA58
:1003200081FAC9E78069B43061F0E0BE2DE9F04F91
:10033000A54D85B095F80080B8F1000F1ED1D5F815
:10034000B43F002B16DD0026A04831464769D0F89F
:10035000AC303C6803F1C00224F001043C605960F9
:100360000C339A42FBD10136D5F8B43F00F58670C4
:10037000B342EBDC012005B0BDE8F08F944B5C6E1E
:1003800022F012FBD5F8443CD5F8482C1433801ADF
:10039000B0EB430FC0F29A818E4A4FF0000A05F687
:1003A0004C4605F1040EA2FB04328B4BCDF800A0A5
:1003B000C2465209A3FB0213DB0803EB8303A2EB43
:1003C0004303DAB206EB830905F62C73039201931B
:1003D000D5F8B03F009A9342B1DD002A40F35B812B
:1003E000DEF8184000227D4BD4F8F40099692033E0
:1003F000D1F8F410884208BF52469E45F6D1002A33
:1004000000F0498162690121DEF80430744F99409F
:10041000D3B222F0FF02D4F8F840103BA7FB0373DD
:10042000704F1B09FB5C1A4453686F4A9BB2E41A75
:100430000346A21800EB42029A420FD91F880F42CE
:1004400000F027815F880F4200F03C819F880F42B7
:1004500000F03A81DF8808330F42EDD11A880A4054
:100460000292002A40F00281181AA4EB600045288D
:1004700028BF452003EB4000834280F0F78094467C
:1004800090461F46144616E0B3F802B00BEA010B83
:100490005A4540F0FA80B3F804B00BEA010B5A4514
:1004A00040F0F580DA8808330A40944206D1984239
:1004B00006D91A880A40A242E6D0023398426AD886
:1004C000B8F1110F40F2D280C8F11503002BC0F231
:1004D000958000F006810CFA03FCC8F11408012392
:1004E000424A03FA08F848EA0C0CCCF3C43352F839
:1004F00023100CF01F0352F8233043EA0133CCF3EE
:100500004411CCF3842C52F8211052F82C2043EAE9
:10051000011343EA022383EA132282EA121202F051
:100520000F020F2A6AD1B3F5803F67D240F6FF7100
:100530001A09B1EB131F00F0CD80C2F308025B0B68
:1005400012FA03F35AD02A4A02EB5302B2FBF3F237
:100550004FF6FE7302929A4200F08880D5F8343F3D
:100560000133C5F8343F4FF6FF739A424BD0BDF8C4
:100570000830019A938101239373009B032B4ADC7B
:10058000134B93F868302D2B45D11A4B009A0299E2
:1005900023F812103FE0DF1B33F8024C7A100C40B6
:1005A000571C154A82FB07B2A2EBE7720127012A0A
:1005B000B8BF01220CFA02FC9044013A07FA02F299
:1005C0001F4642EA0C0C74E708000020C00F002010
:1005D000781E00241F85EB51CDCCCCCC0C00002024
:1005E000ABAAAAAA9C030C08C7FFFF7F286B0B08C5
:1005F000C0270900E41E002456555555D5F8343F50
:100600000133C5F8343FD5F8303F0133C5F8303FEA
:100610004FF6FF73029396F8583003998B4210D02F
:10062000D9F8082033689B1A33607368D9F83020F2
:100630009B1A73600023C9F80830C9F8303086F877
:1006400058103368029A01333360D9F80830013307
:10065000C9F808304FF6FF739A4207D17368013327
:100660007360D9F830300133C9F83030009B5C3604
:10067000019A09F15C0901330EF1200E0432082BB6
:10068000009301927FF4A4AE59E6043316E70633D3
:1006900014E70233E2E6DEF81830D3F8F430BFF3A3
:1006A0004F8F03F590721E49C1F85C32203393429C
:1006B000F9D1BFF34F8FBFF36F8FDEF81840D4F836
:1006C000F4009FE60433C9E60633C7E6002005B010
:1006D000BDE8F08FD5F8343F0133C5F8343F00232F
:1006E00047E7104BCCF3C43253F822100CF01F0232
:1006F00053F8222042EA0132CCF34411CCF3842C8B
:1007000053F8210053F82C1042EA001343EA012366
:1007100083EA132282EA121202F00F0201E700BFFD
:1007200000ED00E0286B0B0810B5044675F0A0FB47
:100730000146204689B2BDE8104087E4394B2DE9D7
:10074000F0411A785B789A4266D1374F4FF0000C2F
:10075000364E38463D1FD5F8B03F634517DDBCF136
:10076000000F43DD81693B460022D1F8AC40996916
:100770002033D1F8AC108C4208BF01228342F6D15D
:10078000A2B30CF1010C2030BCF1080FE3D1D5F875
:10079000B46F002E11DD00242F782548A0460134C7
:1007A00017B1037F012B32D04269B44200F5867045
:1007B000136843F001031360F1D122F0F5F81D4BEB
:1007C000C5F8480CD3F8F042002C0DDD03F53D735D
:1007D00003EBC4041968083333F8042CC868A34237
:1007E00042EA0002CA60F5D1BDE8F0818369D3F81E
:1007F000AC30BFF34F8F03F1E002C6F8683220330C
:100800009342FAD1BFF34F8FBFF36F8FB9E780F8F0
:10081000FC80FFF7AFFCC7E76DF0C2FE002894D163
:10082000BDE8F081781E00240C00002000ED00E0FF
:10083000C00F00200011002070B50E4ED6F8B03F5A
:10084000002B15DD341D002504E0D6F8B03F203420
:10085000AB420DDD237F0135002BF6D0217D203406
:1008600054F8140C21F0C2FAD6F8B03FAB42F1DCD8
:10087000012070BD08000020F0B50446D0F85C01EE
:100880006F4B83B0A16804F596720E68C1B220F078
:10089000FF0001921039A3FB013109096FF0BAFF83
:1008A000D4F81C110023019A012984F820311CD0AE
:1008B00004291AD0102900F0AE80402915D0B1F5D6
:1008C000807F00F0AB80B1F5806F00F0A780B1F5BC
:1008D000805F00F0AB80B1F5803F4FF03C030CBF70
:1008E0006FF008076FF4006701E06FF0080706F18A
:1008F00018053046E9583940E950D4F81C116FF01A
:100900003BFDD4F81C31012B18D0042B16D0102B32
:1009100011D0402B12D0B3F5807F00F08380B3F567
:10092000806F7FD0B3F5805F00F08480B3F5803FA7
:1009300006F1540502D04FF4006200E008222B6853
:100940004026D4F85C011343C2B220F0FF012B60B3
:10095000103A3B4BC4F8E860A3FB0232394BD4F8A1
:100960000C51120913F802C0D4E93B365CF801704F
:100970003343354E3E403343D4F8F4603343D4F828
:10098000F8603343D4F8FC603343D4F80861334350
:1009900043F040034CF801300CEB0103D5B15E6924
:1009A00026F0070ED4F810613543D4F8146145EAF7
:1009B0000E055D615CF8015025F0C0753543D4F833
:1009C00018614CF801505CF8015025F4C00535431E
:1009D0004CF80150D4F8E450DD60D4F8E0509D604C
:1009E0001A4D5E683540D4F80061D4F804413543AF
:1009F0005D60174B1344174A9B00914218BF203388
:100A00001A6822F0FF0222431A60036843F01003C1
:100A1000036003B0F0BD6FF4006768E76FF008078C
:100A2000042364E706F11C05082288E76FF40067D9
:100A300004235CE706F11C054FF400627FE700BF6A
:100A4000ABAAAAAA9C030C081F80FCFF0000FFFFB2
:100A500000820010000002402DE9F04FDFF8F8A2FC
:100A600087B09AF8004024B90124204607B0BDE8B9
:100A7000F08FB34B5D6E21F097FFB24991F8283AA1
:100A8000002B00F0D081B04A0AF64C470026A2FBAA
:100A90000532AE4B0AF582755209A3FB0243DB080F
:100AA00003EB8303A2EB4303D1F8302A821A07EB4E
:100AB000830B0392DAB20AF62C7304920193039A21
:100AC000002A04DBD5F82431934200F39D814FF4D2
:100AD000B47303FB06A393F8243203F0FF020292DF
:100AE000002B00F08680D5F85C11AB6898481A6836
:100AF000CBB221F0FF01103BA0FB030395481B097B
:100B0000C35C19444B68A9891FFA83FCD368CCF1F4
:100B1000160C23EA0103BCF1070FD36069D9DAF898
:100B2000343F00220121013396468946CAF8343FFA
:100B3000D5F864311C46059354F8048B40461EE0FA
:100B4000D4F80080BEF1140FA8EB0003404600F378
:100B5000058113F1080848BF03F117084FEA28136D
:100B60000EEB281E03F1FF38013102FA03F30434BF
:100B700009FA08F28C4542EA0302C0F0EF808C4586
:100B8000DED8CEF1150320684FF0150EEAE7DAF84B
:100B9000303F0133CAF8303F002E00F03A81002385
:100BA000029397F8583004998B4210D0DBF8082054
:100BB0003B689B1A3B607B68DBF830209B1A7B60AC
:100BC0000023CBF80830CBF8303087F858103B685A
:100BD00001333B60DBF808300133CBF80830029B6F
:100BE0003BB97B6801337B60DBF830300133CBF8F5
:100BF0003030019B284601365C3704330BF15C0B27
:100C000005F5B4750193FFF737FE4E4B93F8283A7C
:100C1000B3423FF754AF00224A49C1F8302A002BB3
:100C20003FF422AF9AF8DC21DAF8200212F0020F2A
:100C3000DAF80C2111680A6A0CBF024342EA80020A
:100C4000012B0A623FF410AF9AF84423DAF88803C4
:100C500012F0020FDAF8742211680A6A0CBF02431C
:100C600042EA8002022B0A623FF4FEAE9AF8AC24FC
:100C7000DAF8F00412F0020FDAF8DC2311680A6ADD
:100C80000CBF024342EA8002032B0A623FF4ECAE3F
:100C90009AF81426DAF8580612F0020FDAF844250A
:100CA00011680A6A0CBF024342EA8002042B0A62FE
:100CB0003FF4DAAE9AF87C27DAF8C00712F0020F98
:100CC000DAF8AC2611680A6A0CBF024342EA8002D5
:100CD000052B0A623FF4C8AE9AF8E428DAF828092E
:100CE00012F0020FDAF8142811680A6A0CBF0243E6
:100CF00042EA8002062B0A623FF4B6AE9AF84C2A0A
:100D0000DAF8900A12F0020FDAF87C2911680A6A00
:100D10000CBF024342EA8002082B0A627FF4A4AEB1
:100D20009AF8B43BDAF8F81B13F0020FDAF8E43A59
:100D30001A68136A14BF43EA81030B43136293E6F4
:100D4000781E0024001100201F85EB51CDCCCCCCA7
:100D5000ABAAAAAA9C030C0808000020BEF1150F3C
:100D60007FF415AF3249C2F38423C2F3441001EB80
:100D7000830301EB8000D3F88030D0F880001B02A1
:100D800043EA001302F01F00C2F3C43201EB8000FB
:100D900001EB8202D0F88010D2F880200B4343EAA6
:100DA000023383EA132282EA121202F00F020F2AA0
:100DB0007FF4EDAE40F6FF711A09B1EB131F2FD08F
:100DC000C2F308025B0B12FA03F33FF4E0AE194AD8
:100DD0004FF6FF7102EB5302B2FBF3F39AB28A4271
:100DE0003FF4D5AE0199032E8A814FF001028A7338
:100DF0003FF7D7AE104A92F868202D2A7FF4D1AE83
:100E00000E4A22F81630CCE60024204607B0BDE892
:100E1000F08F059958220A4875F0A8FC0296C0E6A2
:100E200000231A46DEE7074AC2F8303A1DE600BF43
:100E3000286B0B08C0270900781E0024E41E00243C
:100E4000600F002000110020014B43F82010704774
:100E500050400058014B53F8200070475040005854
:100E6000BFF34F8F0549064BCA6802F4E062134393
:100E7000CB60BFF34F8F00BFFDE700BF00ED00E088
:100E80000400FA052DE9F043BDB0BFF35F8FA24A1D
:100E90000020516A0346044621F480315162014624
:100EA000C2F89400C2F898300133C2F89C10112B9C
:100EB000C2F8A010F6D10523C2F89430536A43F467
:100EC00080335362BFF34F8FBFF36F8F9348944AC1
:100ED0009449121A75F04AFC9348944A9449121A9C
:100EE00075F044FC934AD368042B00F0FC8005D8CD
:100EF000012B00F09B83022B00F09183864A002394
:100F00008D4C0120D2F888108C4E41F470018C4D2C
:100F1000C2F8881020602361216841F080012160BF
:100F2000216801432160216841F4803121602168FA
:100F300041F480512160A361E3612362A362E36213
:100F400023636363A363E36323646364216821F41D
:100F5000802121607B492366C1F808014FF00061C0
:100F60004FF6FF00784B9160D16801400B43D3608E
:100F700063F0B2F8A36902460F20C3F30323A1690B
:100F8000334493F8003103F01F0322FA03F3AB62FA
:100F90005DF09EFF6D4AD36813F0040FD36840F0F4
:100FA000A4806B4B0021694A0391D96A21F00101A9
:100FB000D962DB6A03F001030393936943F440436E
:100FC0009361936903F440430393039B93699804EB
:100FD000FCD54C2200210DA8594C75F03BFC5D4A14
:100FE00042F203031268B3EB124F4FF00003079372
:100FF00004F1140318BF1C46E268002A4FD0544B7A
:101000005249D86A20F00100D862DB6A03F001037C
:1010100007938B6923F4404313438B618B6903F47B
:1010200040430793079B494A93699904FCD5424B77
:101030004FF4403148484FF00108D3F8E020002732
:1010400042F08002C3F8E020D3F8E03003F08003E0
:101050000693069B0323816108A908930B93CDE9AE
:10106000098761F0A5FF02230DA8CDF834801E97F3
:10107000CDE91633A3781893A3881993A3791A930B
:10108000E3791B93237A1C9323691D934FF48033D8
:101090000E9362F063FD03283BD098B1FEE72B4A24
:1010A0002B4B916941F440419161926902F44042B5
:1010B0000792DA6A42F00102DA62DB6A03F00103A6
:1010C0000793AFE7254B1A6812F00E0F4AD11A6842
:1010D00022F00F0242F002021A601B6803F00F03B5
:1010E000022B3FD0FEE7D46008E723F007031C4C37
:1010F00043F00203D360D4F8141106E0D4F814319D
:101100005B1AB3F57A7F3FF64CAF53689F04F5D571
:1011100047E772B6FFF7A4FE00ED00E00000000014
:10112000D83B000020960C0800000020080000209A
:10113000F3FC0C085040005800440258286B0B0880
:1011400000000024008000510003FA050048025806
:10115000000400580010005C001C025800200052DF
:10116000781E00246D4A936903F070033F2B05D865
:10117000936923F0700343F040039361674AD36996
:1011800003F070033F2B05D8D36923F0700343F0BD
:101190004003D361614AD36903F4E063B3F5806F20
:1011A00005D2D36923F4E06343F48063D3615B4ADF
:1011B000136A03F070033F2B05D8136A23F0700302
:1011C00043F040031362554B9A69120705D49A699C
:1011D00022F00F0242F008029A61504A936923F408
:1011E0007063936113689B017FF57CAF136941F2D3
:1011F00088304B4C23F0070343F003031361D4F80A
:10120000141105E0D4F814315B1A834200F2BF8157
:10121000136903F03803182BF4D1936903F00F031B
:10122000082B05D9936923F00F0343F0080393615A
:101230003C4A136803F00F03022B0BD9136823F009
:101240000F0343F002031360136803F00F03022B34
:101250007FF448AF314A936903F07003402B05D9FE
:10126000936923F0700343F0400393612B4AD369E1
:1012700003F07003402B05D9D36923F0700343F0CA
:101280004003D361254AD36903F4E063B3F5806F6B
:1012900005D9D36923F4E06343F48063D3611F4A23
:1012A000136A03F07003402B00F269811B4F62F058
:1012B00013FF0346E86ABA69B969C2F30322164408
:1012C00096F8002102F01F02D340AB625DF000FEF1
:1012D000002840F05D811023149016900DA80D9306
:1012E00062F03CFC002840F049813B680E4943F025
:1012F00080033B60D7F8F43043F00203C7F8F430C2
:10130000D7F8F43003F002030293029B0A6A074BFA
:1013100042F001020A62D4F814110CE000440258B1
:10132000781E0024002000520004005800E204004F
:10133000013B3FF4EEAED4F814219142F8D0D4F83A
:101340001421D4F814319B1A0A2BFAD94FF48023B4
:10135000C14C0DA84FF000080D934FF44013032625
:1013600002272E936FF07CFCD4F8EC300DA843F0EC
:101370000203C4F8EC30D4F8EC3003F0020301931C
:10138000019BD4F8943043F00203C4F89430D4F8AD
:10139000943023F00203C4F89430B04B1A6841F241
:1013A0000303B3EB124FAE4BAE4A38BF1A46AE4BF7
:1013B0005A601A6822F47C5242F400521A601A6889
:1013C00042F060021A600D96CDE92A886FF048FC61
:1013D0004FF4E0430DA8CDF8E0800D93CDE92488CB
:1013E0006FF03EFC18230DA8CDF8B4800D93CDF816
:1013F000C8806FF035FCD4F8D43005210DA843F433
:101400008033C4F8D430D4F8D430CDF8548003F409
:101410008033119610970093009B4FF480330D9307
:1014200020934FF4FA73CDE90E130423CDE913880A
:1014300012936FF015FC4FF400230DA80D934FF499
:10144000003335936FF00CFCD4F8E03008A98748DE
:1014500043F00103C4F8E030D4F8E030099703F01A
:1014600001030B96CDF828800593059B4FF48073FC
:10147000CDF83080089361F09BFD236908A97C4872
:1014800023F0FE7343F088732361D4F8E03043F017
:101490000403C4F8E030D4F8E030099703F0040303
:1014A0000B96CDF8288004934FF40073049A0893A8
:1014B000CDF8308061F07CFD236923F07E4343F05A
:1014C000FC43236162F008FE6A4B6B4A4146A86206
:1014D0001846D21A75F0BEF96848694A6949121A65
:1014E00075F044F9BFF35F8F674D4646674C01279F
:1014F0006B6A23F480336B62C5F8948023E0002A82
:1015000044D0D4F80080637A103414F8061C1B060B
:1015100043EA017343EA420314F8052C43EA824389
:1015200014F8042C43EA424314F8032CC5F89860DD
:10153000013643EA0243C5F89C80032E43F00103C1
:10154000C5F8A03025D06368227A002BD7D0D4F814
:101550000080002AD7D128F01F09A3EB0903202B14
:1015600038BF20231846994675F0FAF8431E07FA4B
:1015700003F2914518BF0346DAB2C4E7FEE7136AE7
:1015800023F0700343F0400313628FE6FEE7A9E502
:10159000A8E50523C5F894306B6A43F480336B6289
:1015A000BFF34F8FBFF36F8FBFF34F8FBFF36F8FBB
:1015B0000022C5F85022BFF34F8FBFF36F8F6B69C6
:1015C00043F400336B61BFF34F8FBFF36F8FC5F8E8
:1015D0008420BFF34F8FD5F8805043F6E0762A4938
:1015E000C5F34E34C5F3C905640104EA06002B4671
:1015F00040EA8372013BC1F86022F9D2203C14F129
:10160000200FF2D1BFF34F8F4B6943F480334B610E
:10161000BFF34F8FBFF36F8F3DB0BDE8F083042160
:101620000320FFF711FC72B6FFF71AFC02200A4BE9
:101630001749D060D3F8F4200243C3F8F420D3F85C
:10164000F43003400D930D9AD1F8003883F30888E5
:10165000D1F804389847FEE7004402580010005CB7
:101660007FBB22307FBB2200008400400000025874
:1016700000080258A0340124204E0124A02E012489
:10168000A0340124FBFC0C0800ED00E03000002435
:101690000090F01F30B5274C4FF6FF00264A85B06A
:1016A000E168264B0140264D0A43E260D3F8D02082
:1016B000C5F81821D3F8DC2042F00052C3F8DC2032
:1016C000D3F8DC2002F000520192019AD3F8DC201A
:1016D00042F08042C3F8DC20D3F8DC2002F08042E4
:1016E0000292029AD3F8DC2042F00042C3F8DC20D8
:1016F000D3F8DC3003F000430393039B62F0ECFC6F
:10170000D4F8FC200F4942F080720F4BA1FB00106F
:101710000E49C4F8FC204FF06042800CC2F8B01FA4
:101720000022C5F81C015A601A6842F001021A60D2
:1017300005B030BD00ED00E00005FA050044025898
:10174000781E002483DE1B43001000E055CEACC59C
:1017500008B51D480023C0F88430BFF34F8F43699C
:1017600023F480334361BFF34F8FD0F8803043F6CA
:10177000E074C3F34E3CC3F3C90E4FEA4C1C0CEAB1
:101780000401734641EA8372013BC0F874225A1C7B
:10179000F8D1ACF1200C1CF1200FF0D1BFF34F8F2A
:1017A000BFF36F8FBFF34F8FBFF36F8F436900227B
:1017B00023F400334361C0F85022BFF34F8FBFF3CF
:1017C0006F8F72B6FFF74CFB00ED00E0800AA0F5CA
:1017D0008010522808D8054B184490F810310D2B72
:1017E00002D8034AD056704700207047286B0B0878
:1017F000BC030C08094A0023094901E051F83320D1
:10180000824204D00133112BF8D100207047054AE1
:1018100002EBC303B3F86801704700BF000001404A
:101820008C6C0B08286B0B08890AA1F580115229D2
:101830002FD8204B194410B591F810E1BEF10D0FCF
:1018400026D8EFF31184502383F3128803680BB377
:1018500084464CF8243F043300F1140252F8041B70
:1018600019B1196052F8043C04336245F6D10021E5
:10187000E2B2196082F31188436A7BB10E4B4C22AD
:1018800002FB0E3EDEF82021D36843F00103D36053
:1018900010BD704700F1240C6346DDE7064B4C2277
:1018A00002FB0E3EDEF82021D36823F00103D36053
:1018B00010BD00BF286B0B08781E0024F0B504682B
:1018C000A30AA3F58013522B2DD8254D2B4493F852
:1018D00010310D2B27D840794FEA900E21B3214EBD
:1018E0004FF04C0C03EB83050CFB036C800803EBFF
:1018F0004505DCF820714FF0020C75440CFA00F03D
:10190000D7F80CC040EA0C0006EB850CCCF8981513
:10191000CCF8A825F860144A2C20214600FB0320AF
:10192000BDE8F04080E7F0BD0E4E4C257046022722
:1019300005FB03658740D5F820C103EB8305DCF880
:101940000C0003EB450520EA07007544CCF80C00B9
:1019500006EB8500C0F89815C0F8A825DBE700BFA6
:10196000286B0B08781E00240C24002403689B0AB3
:10197000A3F58013522B00D97047154A134493F8EE
:1019800010310D2BF8D84FF04C0C10B4114C79B924
:10199000417902220CFB03405DF8044B21FA02F36B
:1019A000D0F820119A40CB6823EA0203CB6070473D
:1019B000417902220CFB03405DF8044B21FA02F34B
:1019C000D0F8201102FA03F3CA681343CB607047C2
:1019D000286B0B08781E002403689B0AA3F580136C
:1019E000522B12D8094A134493F810210D2A0CD80F
:1019F0004079022306494FF04C0CD8400CFB0212F0
:101A00008340D2F82021DB4313617047286B0B0819
:101A1000781E002401490248FEF728BC0C2400244B
:101A20000000014001490248FEF720BC0C240024BC
:101A30000000014002494FF08040FEF717BC00BF94
:101A40003824002401490248FEF710BC6424002415
:101A50000004004001490248FEF708BC902400241D
:101A60000008004001490248FEF700BCBC240024E5
:101A7000000C00402DE9F843194E3569F3681D400C
:101A800010D04FF00047DFF85C80B5FA85F227FAF6
:101A900002F31F2A6FEA030305EA0305336103D04B
:101AA000002DF2D1BDE8F883D8F89836A3B103F140
:101AB000FF3900231FFA89F9C8F89836D8F89446F8
:101AC000002CEDD023682046494698476468002CD6
:101AD000F8D1002DD9D1E5E7F16A1FFA81F9EDE7D8
:101AE00000100040781E002401490248FEF7BEBBEA
:101AF000402500240004014010B5064C064804F5BA
:101B0000D961FEF7B3FB04F5E4610448BDE8104079
:101B1000FEF7ACBB781E002400040140001C00400E
:101B200001490248FEF7A2BB6C25002400180040C2
:101B300001490248FEF79ABBC4250024002000405A
:101B400001490248FEF792BBF02500240040014005
:101B500001490248FEF78ABB1C26002400440140CC
:101B600001490248FEF782BB482600240048014094
:101B70002DE9F0474FF425728EB000218A4874F0A9
:101B800069FE8A4B8A4F4FF08041D3F8F02007F16D
:101B90002004B94642F0010207F53065A246DFF89D
:101BA0001882C3F8F020A7F18806D3F8F02002F0DD
:101BB00001020092009AD3F8E82042F00102C3F833
:101BC000E820D3F8E82002F001020192019AD3F84C
:101BD000E82042F00202C3F8E820D3F8E82002F03F
:101BE00002020292029AD3F8E82042F00402C3F8FB
:101BF000E820D3F8E82002F004020392039AD3F815
:101C0000E82042F00802C3F8E820D3F8E82002F008
:101C100008020492049AD3F8E82042F01002C3F8B4
:101C2000E820D3F8E82002F010020592059AD3F8D4
:101C3000E82042F02002C3F8E820D3F8E82002F0C0
:101C400020020692069AD3F8F02042F00202C3F86E
:101C5000F020D3F8F02002F002020792079AD3F89E
:101C6000E82042F04002C3F8E820D3F8E82002F070
:101C700040020892089AD3F8E82042F08002C3F8A4
:101C8000E820D3F8E82002F080020992099AD3F8FC
:101C9000E82042F48072C3F8E820D3F8E82002F488
:101CA00080720A920A9AD3F8F02042F48032C3F884
:101CB000F020D3F8F02002F480320B920B9AD3F884
:101CC000F02042F40032C3F8F020D3F8F02002F400
:101CD00000320C920C9AD3F8F02042F48022C3F820
:101CE000F020D3F8F03003F480230D930D9B42468F
:101CF000002301E056F833208A420CD00133112B27
:101D0000F8D10AF1200A00206CF0EAFC55450DD00C
:101D10005AF8201CEBE7274A0AF1200A02EBC3031A
:101D2000B3F868016CF0DCFC5545F1D107F52E677E
:101D300009F120094F4512D099F80630002BF7D051
:101D400099F8040020F07CFA02210028F0D099F8DC
:101D5000082009F1200920F00BF94F45ECD14FF094
:101D60008041154F154E3A46002301E056F83320C6
:101D70008A420BD00133112BF8D1203400206CF0B3
:101D8000AFFCAC420CD054F8201CECE7094A2034DC
:101D900002EBC303B3F868016CF0A2FCAC42F2D1D1
:101DA0000EB0BDE8F08700BF0C24002400440258A8
:101DB000146D0B08286B0B08000001408C6C0B089D
:101DC000704700BF38B590F83DE08446BEF1020F81
:101DD0005FFA8EF018D014469CF83D20012A02D1FB
:101DE00002228CF83D200C290DD8DFE801F05D0CB3
:101DF0000C0C290C0C0C430C0C0C0E004032214630
:101E0000284660F0FBFD002038BDDCF83050334A36
:101E1000EA63334AEA6495F83420012AF3D00121B9
:101E2000DCF8002085F8341095F835100129E5D04C
:101E300000234FF40062184685F834306A6538BDD7
:101E4000DCF82850254AEA63254AEA6495F83420EC
:101E5000012AD8D00121DCF8002085F8341095F84B
:101E600035100129E4D138322146284660F0C6FDFC
:101E7000002038BDDCF82C50184AEA63184AEA649E
:101E800095F83420012ABED00121DCF8002085F825
:101E9000341095F835100129CAD13C322146284624
:101EA00060F0ACFD002038BDDCF824500B49DCF8B4
:101EB0000020E9630A49E96495F834100129A2D0A9
:101EC000012185F8341095F835100129B0D134324C
:101ED0002146284660F092FD002038BD6DF80908C3
:101EE00015F809081F4B984210B50ED003F5806312
:101EF00098420AD01C4A03F58043984218BF90428A
:101F000003D003F5806398421BD162F007F9174BA9
:101F10001749DC69DA69C4F3022CC2F3022201EB2F
:101F20000C0393F8003103F01F03D8400F4B114905
:101F30001B69C3F3C03342EAC303CB5C03FB00F06D
:101F400010BD62F0EBF8094B0949DC69DA69C4F3AA
:101F50000214C2F302120B1993F8003103F01F03AD
:101F6000D840E3E70000014000400140004402582F
:101F7000286B0B08A8030C08830AA3F58013522BC7
:101F80006DD82DE9F0417B4D84B02B4493F810615E
:101F90000D2E61D8DFF804824C25044605FB06852A
:101FA000D5F82031834257D001391746C5F82001B2
:101FB00089B2C5F82C11FFF795FF0023B0FBF7F2AB
:101FC000C5F83031013AC5F82831C5F8343195F8F3
:101FD0005D31C5F8242103F0FF02002B40D04C23D3
:101FE000654903FB068503FB06110223D5F8200192
:101FF00085F85D31043162F099FB012385F8683181
:1020000085F85E3185F85F3185F8603185F861319A
:1020100085F8623185F8633185F8643185F865317A
:1020200085F8663185F8673185F85D31534B9C4200
:1020300019D0B4F1804F16D0A3F57C439C4212D046
:1020400003F580639C420ED003F580639C426CD004
:1020500003F578439C4268D004B0BDE8F081704736
:1020600085F85C21BBE74C234FF48051002203FB31
:102070000683009193F85C1103920129CDE90122B6
:10208000EAD00221D3F82001012483F85D113C49F4
:1020900085682940816083F85D4183F85C214C228A
:1020A000002302FB06820293CDE9003392F85C31F3
:1020B000012BD1D0D2F820310221304882F85D11B5
:1020C00083425A6899682CD000F58060834228D0FA
:1020D00022F070022B485A602B4A934218BFB3F18A
:1020E000804F0CBF01220022834208BF42F0010250
:1020F00000F58060834208BF42F0010212B9234A12
:10210000934202D121F0800199604C2301210022E9
:1021100003FB068686F85D1186F85C2104B0BDE8F5
:10212000F0811B4810405860ECE700214FF48053C9
:10213000CDE900314C2303FB068393F85C21012A8F
:10214000CDE9021188D0D3F82001022283F85D2165
:102150000B4A85682A4082600E4A83F85C1101218F
:10216000944283F85D119AD00B4B9C427FF474AF7C
:1021700095E700BF286B0B08981F00240000014062
:102180008800CEFF00080040000400400018004016
:102190008FFF0FFF00040140000C0040781E002458
:1021A00070B504460068830AA3F58013522B05D846
:1021B0002C4D2B4493F810610D2E00D970BDFFF704
:1021C000DBFE294B4C2202FB063696F85D31012BD3
:1021D00013D021680023254A254801E050F8332018
:1021E00091421CD00133112BF8D1012100206CF059
:1021F0001FFE204B01221A6070BD0223D6F8202159
:1022000086F85D311C4B91680B40062BE1D0B3F58D
:10221000803FDED0136843F001031360D9E705EB7C
:10222000C3030121134D93F86A4120466CF000FE70
:1022300004F01F03012162091B2C01FA03F345F886
:10224000223006D119206CF0F3FD4FF000732B60A3
:1022500070BD2E2CB2D12C206CF0EAFD4FF48053CF
:102260006B6070BD286B0B08781E002400000140D5
:102270008C6C0B0800E100E007000100D0F8501161
:102280002422F8B5C0F8D02104460A6800238068EB
:1022900004F5A87522F001020A600B604B608B60A8
:1022A00094F805C0C4F8D83184F8CC31C4F8D031E2
:1022B000C4F86831C4F8D431C4F87031C4F864315A
:1022C0004FEA8C23B44A03F48053C4F8540191427A
:1022D000C4F858314FEA0C3303F40053C4F85C31AE
:1022E0004FEA0C2303F48063C4F8603100F0AE8140
:1022F000237913F0010002D00422C4F8642113F002
:10230000020305D0D4F8642142F00802C4F8642125
:102310001CF0010F0DD048B1D4F8782142F0020230
:10232000C4F878214FF48032C4F88021002B40F0AB
:1023300081819A4B03F12C0053F8042B944200F056
:102340003F819842F8D11CF0080F40F04F81D4F83B
:10235000D031002B00F0988124232846C4F8D031D6
:102360000B6823F001030B6062F098FB012815D085
:10237000D4F87831002B40F08D81D4F850312846C4
:102380005A6822F490425A609A6822F02A029A60AF
:102390001A6842F001021A606EF03AFB2379DA07FC
:1023A0006DD5D4F82C21002A00F05B810023D4F8ED
:1023B000341104F13C06E2634FF48062C4F8B810B3
:1023C0003046E264C4E91133C4E91433C4E9183374
:1023D000C4E91A334FF48033E3654FF48073A36587
:1023E0006FF096F930465CF0DFFDD4F8D431C4F8D4
:1023F000C861202B65673DD1E368626999B2CAB3B1
:10240000B1FA81F04009A9B394F8CCC1BCF1010F35
:1024100030D02227C4F8D80194F870C0C4F8D47121
:102420005F4FA4F8AC110121A7675E4F8C45C4F83B
:10243000A821E7675C4FC4F88C0084F8CC11C4F87D
:1024400088700ED094F8717084F87010012FD4F851
:10245000501100F027814FF4006384F87000C4F835
:102460009030102100222023C4F8D81184F8CC2108
:10247000C4F8D031E26B23795268C4F844219B0739
:1024800040F18880D4F83021002A00F0E380002356
:10249000D4F8381104F1B406C4F8B420C4F8C0303C
:1024A0004022C4F8D0303046C4E93233C4E9363370
:1024B000C4E938334FF48033C4F8D4304FF4806328
:1024C000C4E92E12C4F8C4306FF022F930465CF033
:1024D0006BFD002840F0B980D4F8B420334B344869
:1024E0003449824218BF9A42C4F8C461C4F8EC501F
:1024F00000F160000CBF012300232F4C8A4208BF6B
:1025000043F001033031A24208BF43F001036034BD
:102510008A4208BF43F001033031824208BF43F0D2
:10252000010300F568708A4208BF43F0010301F51A
:102530005C71A24208BF43F0010304F568748A424B
:1025400008BF43F001033031824208BF43F001036A
:1025500060308A4208BF43F001033031A24208BF15
:1025600043F001038A4208BF43F001033031824245
:1025700008BF43F001038A4208BF43F001033BB99F
:102580000E4BD31AB3FA83F35B09002B00F0A38040
:1025900000235360F8BD00BF000C00583C1B002016
:1025A000F5F8090829F909082DF909081000024071
:1025B000280002404000024058000240B804024097
:1025C000002C3FF4C0AE94F8F431002B3FF4BBAEC6
:1025D000D4F878311CF0080F43F00803C4F87831C0
:1025E0004FF40043C4F888313FF4B1AED4F8D03191
:1025F000002B4CD024232846C4F8D0310B6823F09C
:1026000001030B6062F04AFA01283FF4C7AED4F828
:102610007831002B42D1D4F8503128465A6822F440
:1026200090425A609A6822F022029A609A6842F0B8
:102630000802ACE6D4F8783143F00103C4F87831ED
:102640004FF40033C4F87C3173E6FEE70423C4F88A
:1026500074314DE6D4F8DC21136843F08003136035
:10266000F8BDD4F8DC21116841F4807111609168E3
:1026700041F001019160116841F020011160116881
:1026800041F010011160FAE684F8CC3164E684F878
:10269000CC31AFE7284662F0DBFC6EE6284662F0FC
:1026A000D7FCB8E79BB22431304660F0A7F9002888
:1026B0007FF4D7AED4F8503184F8CC011A6842F4D4
:1026C00080721A609A6842F001029A609A6842F039
:1026D00040029A60CEE65360F8BD00BFF8B50446EC
:1026E000EFF31185502383F31288D0F830311B6843
:1026F00003F001031BB1EDB285F31188F8BDD0F8EA
:10270000D021D0F8D4110A4302F02102212AF2D0BC
:10271000D0E909218A424FD04BD800691A46431AA2
:102720009BB2A262002284F8E021D4F8D021202AB2
:10273000E1D1A2695118DED0B3FA83F25209002B1D
:10274000D9D094F8CC010128D5D02120A4F8A63105
:102750004FF0010CC4F8D821C4F8D001D4F8C4015A
:10276000C4F8A011A4F8A43184F8CCC170B31D4EF4
:1027700090F834E0C6631C4EE645026506641B4EC5
:10278000C6640CD090F83560D4F85071664580F876
:1027900034C015D04FF4006380F834204365102115
:1027A00000222023C4F8D81184F8CC21C4F8D031F9
:1027B000A1E7531A9BB2B4E7012380F8E0319AE70E
:1027C00007F1280260F01AF90028E8D1D4F8503156
:1027D00000224021196284F8CC219A6842F08002DC
:1027E0009A6088E7CDF80908F1F809082DF9090879
:1027F0002DE9F843404C04EB8004D4F83C4A002C0B
:102800003DD0D4F8E4511F463C4B0646A16020461B
:10281000236090466B68C4F8DC31AB6B63616B6B13
:10282000A361EB8FE360AB8F23611FF073FE6B68D6
:10283000A88DC4F8503100285AD194F8EA011FF04D
:10284000FFFC3A07034694F8E8911BD538B317F01C
:10285000510F4FF00B0206F1010614BF0A211A2195
:1028600017F0410FC671827114BF4023202394F8E2
:10287000EB2119431FF07CFBD4F82C3123B3204605
:10288000BDE8F88318F0020F09D040B10B220221F5
:102890008271721CC27194F8EB211FF069FB4846EB
:1028A0001FF0CEFC0028E7D018F0010FE4D00C2276
:1028B00001360221C671827194F8E9211FF058FB9C
:1028C000D4F82C31002BDAD195F8321095F830007D
:1028D00089096CF0ADFA95F830300122084903F00F
:1028E0001F005B098240204641F82320BDE8F883A1
:1028F0006BF0F6FEA1E700BF00110020F4770B0893
:1029000000E100E02DE9F041BC4C86B004EB00177B
:10291000D7F82838002B00F0D48005460601B7F818
:1029200032086BF0DDFEB7F83238012103F01F02E8
:102930005B09023B01FA02F2082B0FD8DFE813F023
:102940001D0125012D0135013D01090045014D0104
:102950005501AB4BD96F21EA0202DA67A3190135A1
:1029600093F82C08EDB21FF06BFC10B11223C57167
:102970008371A31993F82D081FF062FC074610B16C
:102980001323C5718371A31993F82E081FF058FC07
:1029900010B11423C571837104EB060838462E214B
:1029A00098F830281DF05AFF98F82E081FF048FCC0
:1029B0000546C8B10168934B934A0B4498F83178A7
:1029C0009B0A02EB4303B3F8FC0C6BF089FEAB8867
:1029D000286801A90597022701930023CDE9027316
:1029E0000323049360F0E4FA344494F82C081FF0B5
:1029F00027FC94F82F282E211DF030FFD4F828381A
:102A000082491A688B4222F001021A605CD0804A27
:102A1000934200F0888002F58062934272D1784A36
:102A2000D2F8901041F40041C2F89010D2F8901002
:102A300021F40041C2F89010DA6842F00042DA60F6
:102A40009A6822F4F0729A601A68D60739D47149EC
:102A50009D688A6FD1F8804044EA02008A6E104374
:102A60006D4A2A4010434A6F9860DD68486EED0059
:102A700078D50243C86EDE68B4F5800F42EA0002E2
:102A8000086F664D42EA0002C86F05EA060542EA91
:102A90000002086E00F4C02600F4006042EA06025C
:102AA00042EA0502DA601A6822F4006242EA000291
:102AB0001A6002D1D1F884201A641A6D22F0010242
:102AC0001A6506B0BDE8F0814D4AD2F8981041F47D
:102AD0008051C2F89810D2F8981021F48051C2F8B1
:102AE00098104F4A9342A7D1454AD2F89C1041F022
:102AF0002001C2F89C10D2F89C1021F02001C2F8ED
:102B00009C1099E7474A93421BD13D4AD2F898104E
:102B100041F40051C2F89810D2F8981021F40051F5
:102B2000C2F8981088E7364AD2F8901041F48041F4
:102B3000C2F89010D2F8901021F48041C2F89010A1
:102B4000CFE7394A9342CCD12D4AD2F8981041F4BC
:102B50008011C2F89810D2F8981021F48011C2F8B0
:102B6000981069E7B2F1806F83D1B0F5800F80D102
:102B70001D6845F480551D607BE7214BD3F8981004
:102B800021EA0202C3F89820E8E61D4BD3F8901022
:102B900021EA0202C3F89020E0E6194BD3F8941022
:102BA00021EA0202C3F89420D8E6154BD3F880102E
:102BB00021EA0202C3F88020D0E6114BD3F884103A
:102BC00021EA0202C3F88420C8E60D4BD3F88C102A
:102BD00021EA0202C3F88C20C0E6094BD3F8881022
:102BE00021EA0202C3F88820B8E6054BD3F89C100E
:102BF00021EA0202C3F89C20B0E600BF781E002440
:102C0000004402580000FEA7286B0B08003001406A
:102C10000038004000000024E0FFBF8FFFFF39D8DC
:102C2000001400580034014000500140114A037A5A
:102C30000168D35C10B4CC58CA1824F00104CC50FD
:102C40001368DB07FCD4037D1F2B09D9203B20220E
:102C50005DF8044B02FA03F343F01803CB607047AE
:102C600020225DF8044B02FA03F343F018038B6053
:102C7000704700BF9C030C08F8B507680646D7E903
:102C80000454A0612B7D1F2B49D9203B20222868AA
:102C900002FA03F343F01803C360237D1F2B48D9C6
:102CA0002022203B02FA03F3226843F01803D3608A
:102CB0006368002269680A601A601A6842F01002AC
:102CC0001A60BA69297A6DF055FDFA69217A20688F
:102CD0006DF050FD33682E681A6A5B689168586819
:102CE000184A024020680A4317495A602A7A8D5CC4
:102CF000725942F001027251227A895C425842F0C4
:102D0000010242509A6842F440429A601A6842F0C6
:102D100001021A601A6842F400721A60F8BD20229B
:102D2000286802FA03F343F018038360237D1F2B06
:102D3000B6D8202202FA03F3226843F01803936006
:102D4000B6E700BF0000FFFF9C030C082DE9F04F21
:102D50008046A24B89B0A24FD8F8004065689D42DA
:102D600000F07881A3F578439D4200F0D28103F50D
:102D700080639D4200F0CF8103F578439D4200F0CF
:102D8000CC8103F5E0539D4200F0C981954A9542FC
:102D900014BF4FF0FF320522012398F88890B8F84D
:102DA000041084F8243023898B421BD0B1F5807F36
:102DB0000B468D48A8BF4FF48073022BB8BF022387
:102DC000002B93FAA3F3B3FA83F308BF4FF0FF335A
:102DD00000EB8303D3F80C0DAB6823F0E04303430F
:102DE000AB60218198F80C30A17A994255D0002B24
:102DF00000F03A81DFF800B20BEB021292F82CC817
:102E000001924FEA1C1A0CF00F0C0AF1FF3ABAF1CA
:102E1000060F39D8744901EB4A00B0F8300D40FA7A
:102E20000CFE1EF0010F2FD001230BF6880B03FAC6
:102E30000CF3013B184071F0F1FD6B49019A01EB75
:102E40000A0C92F82F389CF840AD019382446748F1
:102E50005BF83A201044800A01EB4001B1F8FC0C09
:102E60006BF03EFC019B5BF83A0003A907930BEB68
:102E7000CA039B8803930223CDE9043303230693FB
:102E800060F096F898F80C30EA6822F08072EA60F8
:102E9000EA6822F00072EA60A372216A8B68002B54
:102EA00000F0508100201431DFF850A1504D8446CD
:102EB00051F8102C9C44013002EA070E134352B122
:102EC000666936B3BEF1005F23D0524501D2AA42F3
:102ED00001D2DA061DD151F8143C143103EA07027D
:102EE00013B1B2F1005F14D051F80C3C002BDFD1CC
:102EF000237B73B1B9F1000F0BD0012800F21181CF
:102F0000BCF1070F00F20D81236A1B7B002B00F040
:102F10000881236A9B68002B00F087804FF000092E
:102F2000344DB9F1000F02D099F80C3033B1D8F814
:102F300008301BB19A88196812048A61236A626892
:102F40001868236A5968236AD3F808C053682B406D
:102F500043EA0C035360136843F0010313601368E2
:102F600043F400731360BCF1000F14D053699B0746
:102F7000FCD500282FD010F8013B82F8203053698F
:102F8000DE07FCD592F83030DBB209B101F8013B25
:102F9000BCF1010CEAD153691B07FCD5936943F0DE
:102FA00010039361136823F001031360236A1B7BF2
:102FB000002B51D1236A1B6913B3236AD8F89400FC
:102FC0001B699847012820D0022819D100232362C9
:102FD00009B0BDE8F08FFF23CFE700BF003001400C
:102FE0000000FEFF00140058286B0B080000FEA72D
:102FF000A02E01240000FFFF781E002488A70124D2
:10300000D4F82090236A14332362236A9B68002B30
:1030100087D1B9F1000F08D099F80C302BB9D8F846
:10302000083013B11A689B889361236A1B68002BD0
:1030300000F09180236A0022D3F80080236A596847
:10304000236A2162D8F800401A606568434B9D42AC
:103050007FF488AE00229FE6D8F80830002BA9D074
:103060001A689B889361A5E73D4901EB021A9AF81B
:103070002CC84FEA1C1B0CF00F0C0BF1FF3BBBF1F3
:10308000060F3CD8374A02EB4B00B0F8300D40FA3F
:103090000CFE1EF0010F32D0012101FA0CFC0CF1E4
:1030A000FF3C0CEA000071F0B9FC2E4A2E4B02EBFB
:1030B0000B0C9AF82FB89CF840ADDFF8B0C08244F2
:1030C00053F83A0084444FEA9C2C02EB4C02B2F8CD
:1030D000FC0C6BF005FB244B0121CDF81CB003EB7D
:1030E000CA0253F83A00059103A993880393022377
:1030F0000493032306935FF05BFF98F80C30EA68B3
:1031000042F08072EA60EA6842F00072EA60A372FC
:10311000C3E6012240E602223EE603223CE6042208
:103120003AE60021D8F8000070F0D6FED8F8082062
:103130001AB1938812681B049361404609B0BDE838
:10314000F04F99E5237B002B3FF4E3AEB9F1000F7C
:103150007FF4DAAEDDE623623AE700BF00300140DB
:10316000781E0024286B0B08002700240000FEA70F
:1031700038B52A4B0446D0F8D8105A68D0F8E03059
:10318000501A834200DC23B9D4F8E4300B44C4F86D
:10319000DC3094F8D030C4F8D820012B05D0D4F816
:1031A000D4300133C4F8D43038BD201D04F1E80513
:1031B0006168EFF3118C102383F3128863681B6A34
:1031C0000BB3D4F8F0302A461BB1D3691432002B6C
:1031D000FBD10B6AFBB1996839B99A4209D01968D9
:1031E00029B15B6899680029F7D01433F3E7C3E984
:1031F00000055FFA8CFC8CF31188D4F8D4300133CD
:10320000C4F8D43038BD5FFA8CFC0D628CF31188A1
:10321000FFF79CFDC3E71860FFDE00BF001000E071
:10322000F0B5866997B00446316996F84C210B7861
:10323000012B08D0022B02D10B6A002B3FD00025B6
:10324000284617B0F0BD91F90430032BD4BF0025F8
:103250000125B3F1FF3F08BF45F00105002DEED178
:1032600064204B4F00FB03F307EB030CDCF8203C1E
:103270000CF54260002BE3D0FF2A317D9CF8613CC5
:103280005CD0202B5CD19CF8603C012B58D00623ED
:103290004900009304AB6AF0FFFD002850D1BDF84F
:1032A00010100125BDF81220BDF8143049BA52BAE9
:1032B00028465BBAE1812282638217B0F0BD62F0DA
:1032C0007F0207938DF8243006F110008DF80F204F
:1032D0000DF10F020F9306920122129308928DF8BE
:1032E00038208DF84C2004AA1493CDE90A33062324
:1032F000CDE90C2300220023CDE91023EFF3118543
:10330000102383F3128833691B6A002B35D006AF74
:10331000089B3A461BB1D3691432002BFBD10B6AD0
:10332000002B32D0996839B9934212D0196871B123
:103330005B6899680029F7D01433F3E7202B10D08D
:10334000B7F8983D01339BB2A7F8983D78E7C3E9F9
:103350000007EDB285F311883269136A002BFCD1A6
:103360009DE79CF8603C012BEAD04900062304AAA3
:103370006AF066FC002892D0E2E706ABEDB20B6281
:1033800085F31188FFF7E2FCE6E71860FFDE00BF77
:10339000781E0024016970B50B7896B0044690F849
:1033A0004D21012B08D0022B02D10B6A002B42D0F9
:1033B0000025284616B070BD91F90430032BD4BF08
:1033C00000250125B3F1FF3F08BF45F00105002DA1
:1033D000EED164204B4E00FB03F306EB030CDCF84C
:1033E000203C0CF54260002BE3D0FF2A217D9CF8A5
:1033F000613C5ED0202B5ED19CF8603C012B5AD002
:1034000006234900009304AB6AF046FD002852D120
:10341000BDF810100125BDF81220BDF8143049BACE
:1034200052BA28465BBAA4F8D010A4F8D220A4F867
:10343000D43016B070BD62F07F0207938DF824304F
:1034400010308DF80F200DF10F020F93069201221C
:103450001293149308928DF838208DF84C2004AA0A
:10346000CDE90A330623CDE90C2300220023CDE960
:103470001023EFF31185102383F3128823691B6A4D
:10348000002B35D006AE089B32461BB1D3691432EF
:10349000002BFBD10B6A002B32D0996839B99342CB
:1034A00012D0196871B15B6899680029F7D014339C
:1034B000F3E7202B10D0B6F8983D01339BB2A6F865
:1034C000983D76E7C3E90006EDB285F311882269DD
:1034D000136A002BFCD19BE79CF8603C012BEAD0DF
:1034E0004900062304AA6AF0ABFB002890D0E2E76B
:1034F00006ABEDB20B6285F31188FFF727FCE6E718
:103500001860FFDE781E002482692DE9F04192F8F0
:10351000DC308AB00546012B4DD0023B012B55D83B
:1035200092F84C31EC46D2F89C2063F07F032F4C8C
:1035300013708669D6F8A03006F11007D6F810800F
:1035400003F1010E0FCCACE80F00D6F89C30CDE9AA
:10355000003E0FCCACE80F0094E803008CE80300B9
:10356000EFF31180102383F3128833691B6A002B59
:1035700030D0029B6A461BB1D3691432002BFBD1B9
:10358000D8F82030002B2ED0996839B993420AD050
:10359000196829B15B6899680029F7D01433F3E7FB
:1035A0001F60C3F804D0C0B280F31188AA69116902
:1035B0000B6A002BFCD1D2F8A0305A8852BAEA81AB
:1035C0009A8852BA2A82DB885BBA6B8201200AB0E1
:1035D000BDE8F081C0B2C8F820D080F31188384629
:1035E000FFF7B4FBE2E71F60FFDE00BF70780B0857
:1035F0002DE9F04190F8DC308AB00446D0F8A050B4
:10360000012B59D016D8D0F89C304FF0FF3205214D
:103610001A605A609A60DA60D0F8E030C0F8F010B2
:10362000B3F57A7F7DD8032380F8DC3001200AB01F
:10363000BDE8F081023B012BF8D890F84D31EC4603
:10364000D0F89C2000F1100763F07F03514E1370F7
:10365000D0F8A030D0F8108003F1010E0FCEACE806
:103660000F00D4F89C30CDE9003E0FCEACE80F003F
:1036700096E803008CE80300EFF31180102383F336
:10368000128823691B6A002B74D0029B6A461BB107
:10369000D3691432002BFBD1D8F82030002B76D020
:1036A000996839B9934225D0196801B35B68996864
:1036B0000029F7D01433F3E790F84C2190F84D31FE
:1036C0009B1A5B100133DBB235F8132005EB430581
:1036D00053BAA0F8D0306B885BBAA0F8D230AB8870
:1036E0005BBAA0F8D43001200AB0BDE8F0811F60B9
:1036F000C3F804D0C0B280F311882269136A002B8A
:10370000FCD16B8801205BBAA4F8D030AB885BBADF
:10371000A4F8D230EB885BBAA4F8D4300AB0BDE884
:10372000F08103691A7B72B35B6963B390F89830D8
:103730004BB390F84C310122D0F89C0063F07F032A
:10374000C4F8A4401449037094F84D3194F84C0126
:1037500084F800211B1A84F8DC20D4F8A020073359
:10376000C4F804110132D4F89C10C4E93E23C4F813
:10377000F4105BE7C0B2C8F820D080F31188384657
:10378000FFF7E4FAB9E7022384F8DC304EE71F6064
:10379000FFDE00BF70780B08CD0104082DE9F04F63
:1037A000A04C95B094F89A2D002A40F0248102F0A4
:1037B000FF03FF220646016805930D938DF80F2045
:1037C000CDE90833CDE90A330DF10F03049301234A
:1037D00006938DF81C308DF83030EFF311851023EF
:1037E00083F3128803681B6A002B00F0088104AF82
:1037F000069B3A461BB1D3691432002BFBD10B6AEE
:10380000002B00F00C81996839B9934209D01968EE
:1038100029B15B6899680029F7D01433F3E7C3E94D
:103820000067EDB285F311883268136A002BFCD172
:103830004FF064087C4D4FF010094FF0E0224FF438
:103840007A7C4FF0010AB34601976B68C3F3080313
:10385000002B40F09A80EFF31183002B40F095800D
:10386000636E9069616E8B42FAD1D4F8A01D8842D4
:10387000F6D8D4F81CE10CFB0EF1091AB1FBFEF1ED
:103880000CFB03116B68C3F30803002B61D1EFF34A
:103890001183002B5DD1606E9669636E9842FAD1F8
:1038A000D4F8A03D9E42F6D8D4F81C710CFB07F367
:1038B0009B1BB3FBF7F30CFB00335B1AB3F57A7F6A
:1038C000E0D3B8F10108C0D10DF10F0300225E462C
:1038D000019F0A930123DBF8001006930B938DF8E8
:1038E00030308DF844308023CDF814808DF80E30C0
:1038F0000DF10E038DF81C8004930023CDF8348065
:10390000CDF84080CDF84880CDE90888CDE90E2378
:10391000EFF31180102383F31288DBF800301B6A69
:10392000002B74D0069B3A461BB1D3691432002B8E
:10393000FBD10B6A002B72D0996841B9934245D0F4
:103940001968002940D05B6899680029F6D01433C3
:10395000F2E7EFF3118689F3128897691369DB03A5
:1039600002D5C4F89CAD9769636EF6B2D4F89C0D8D
:1039700086F31188D4F81C6118440CFB06F3DB1B9A
:10398000B3FBF6F30CFB003397E7EFF3118089F3F9
:103990001288D2F818E01369D90303D5C4F89CAD96
:1039A000D2F818E0636EC0B2D4F89C1D80F3118881
:1039B000D4F81C010B440CFB00F1A1EB0E01B1FB90
:1039C000F0F10CFB03115DE7C3E90067C0B280F3BF
:1039D00011883268106A0028FCD19DF80F20D12A86
:1039E00002D015B0BDE8F08F01230E2084F89A3D77
:1039F00015B0BDE8F08F0E2015B0BDE8F08F04AF14
:103A0000EDB20F6285F31188FFF7A0F90CE7C0B2A1
:103A10000F6280F311885846FFF798F9D9E71E60C6
:103A2000FFDE00BF781E002400ED00E038B504463C
:103A3000264BD4F8E410586894F8D020D4F8D83045
:103A4000012AC4F8D8000B44C4F8DC3005D0D4F8FF
:103A5000D4300133C4F8D43038BD201D04F1E8055A
:103A60006168EFF3118C102383F3128863681B6A7B
:103A70000BB3D4F8F0302A461BB1D3691432002BB3
:103A8000FBD10B6AFBB1996839B9934209D0196827
:103A900029B15B6899680029F7D01433F3E7C3E9CB
:103AA00000055FFA8CFC8CF31188D4F8D430013314
:103AB000C4F8D43038BD5FFA8CFC0D628CF31188E9
:103AC000FFF744F9C3E71860FFDE00BF001000E015
:103AD0002DE9F04786698AB0054696F8DC30012B5F
:103AE0005CD0023B012B55D8D6F89C309222394C41
:103AF000EC461A70D6F89C30876903F1010AD6F8B3
:103B0000A030D7F8109007F1100E03F101080FCC88
:103B1000ACE80F000FCCACE80F0094E80300CDE94F
:103B200000A88CE80300EFF31180102383F31288C0
:103B30003B691B6A002B40D0029B6A461BB1D369CC
:103B40001432002BFBD1D9F82030002B3ED09968DD
:103B500039B993420BD0196829B15B68996800297B
:103B6000F7D01433F3E7C3F800E0C3F804D0C0B2D1
:103B700080F31188AB691A69136A002BFCD1D6F85F
:103B8000A030B3F90220EA81B3F904202A82B3F904
:103B900006306B8201200AB0BDE8F087D6F8A0306D
:103BA000B3F90820C281B3F90A200282B3F90C30BC
:103BB000438201200AB0BDE8F087C0B2C9F820D026
:103BC00080F311887046FFF7C1F8D3E7C3F800E02F
:103BD000FFDE00BF70780B082DE9F04390F8DC3071
:103BE0008BB00446D0F8A050012B61D015D8D0F886
:103BF0009C30002205211A605A609A609A81D0F8A0
:103C0000E030C0F8F010B3F57A7F61D8032380F874
:103C1000DC3001200BB0BDE8F083023B012BF8D86B
:103C2000D0F89C308C22424EEC465A7000F11007BE
:103C3000D0F89C30D0F8109003F10108D0F8A030F3
:103C400003F1010E0FCEACE80F000FCEACE80F0071
:103C500096E80300CDE9008E8CE80300EFF31180B5
:103C6000102383F3128823691B6A002B50D0029B18
:103C70006A461BB1D3691432002BFBD1D9F820302E
:103C8000002B52D0996839B993420AD0196829B1EA
:103C90005B6899680029F7D01433F3E71F60C3F815
:103CA00004D0C0B280F311882269136A002BFCD1C2
:103CB000B5F902300120A4F8D030B5F90430A4F8E9
:103CC000D230B5F90630A4F8D4300BB0BDE8F0839B
:103CD00003691A7B2AB35B691BB390F8983003B36E
:103CE000D0F89C308C220121C4F8A4005A70D0E98D
:103CF00027230D2084F800110A440B44C4F8FC006B
:103D00000C4884F8DC10C4F80401C4E93D2380E7C2
:103D1000C0B2C9F820D080F311883846FFF716F8F2
:103D2000C2E7022384F8DC3073E71F60FFDE00BFC8
:103D300070780B08150204082DE9F04FB34C97B0CA
:103D400094F8A43D029013B994F89A3DA3B9029E49
:103D500096F82131002B40F07D81AD4A0223AD4918
:103D600052085B008A429BB201D9FF2BF8D9029A14
:103D7000938217B0BDE8F08F103015227E214FF0EE
:103D8000640803901DF0C6F803984FF0100CA24E83
:103D90004FF0E0224FF47A714FF0010E83467368C2
:103DA000C3F30803002B40F03981EFF31183002B9C
:103DB00040F03481636E9769656EAB42FAD1D4F8F6
:103DC000A05DAF42F6D8D4F81C0101FB00F5ED1B55
:103DD000B5FBF0F501FB03557368C3F30803002B33
:103DE00040F0DB80EFF31183002B40F0D680606E53
:103DF0009769636E9842FAD1D4F8A03D9F42F6D8F5
:103E0000D4F81CA101FB0AF3DB1BB3FBFAF301FBA3
:103E100000335B1BB3F57A7FDED3B8F10108BED166
:103E2000584611227E21CDF80CB01DF073F803988E
:103E30004FF0050C784E4FF0100E4FF0E0224FF48B
:103E40007A714FF0010883467368C3F30803002BAF
:103E500040F0C080EFF31183002B40F0BB80636E15
:103E60009769656EAB42FAD1D4F8A05DAF42F6D83F
:103E7000D4F81C0101FB00F5ED1BB5FBF0F501FBCF
:103E800003557368C3F30803002B69D1EFF3118363
:103E9000002B65D1606E9769636E9842FAD1D4F8B1
:103EA000A03D9F42F6D8D4F81CA101FB0AF3DB1B0E
:103EB000B3FBFAF301FB00335B1BB3F57A7FE0D36E
:103EC000BCF1010CC0D183230DF1160602990DF14E
:103ED00017058DF8163001230022584608930D93DC
:103EE0008DF838308DF84C300023D1F810E0CDF843
:103EF0001CC08DF824C0CDF828C0CDF82CC0CDF85A
:103F00003CC00696CDF848C0CDF850C00C95CDE920
:103F10001023EFF3118C102383F312880B691B6AB3
:103F2000002B00F04B850DF11808089B41461BB192
:103F3000CB691431002BFBD1DEF82030002B00F0D0
:103F40004C859A6852B98B4200F0C8801A68002AE2
:103F500000F0C2805B689A68002AF4D01433F0E75E
:103F6000EFF311898EF3128890691369DF0302D58C
:103F7000C4F89C8D9069636E5FFA89F9D4F89C7DD2
:103F800089F31188D4F81C911F4401FB09F31B1A13
:103F9000B3FBF9F301FB07338EE7EFF311898CF3E1
:103FA000128890691369DF0302D5C4F89CED90690B
:103FB000636E5FFA89F9D4F89C7D89F31188D4F88F
:103FC0001C911F4401FB09F31B1AB3FBF9F301FB1E
:103FD00007331EE7EFF311858EF31288906913699A
:103FE000DB0302D5C4F89C8D9069676EEDB2D4F8FE
:103FF0009C3D85F311883B44D4F81C7101FB07F507
:104000002D1AB5FBF7F501FB03553AE7781E00249E
:1040100080F0FA028096980000ED00E0EFF3118541
:104020008CF3128890691369DB0302D5C4F89CED08
:104030009069676EEDB2D4F89C3D85F311883B44DE
:10404000D4F81C7101FB07F52D1AB5FBF7F501FB40
:104050000355C1E61C0903F00F03013C062C00F2D6
:10406000A1841A4D05EB4402B2F8300D40FA03F278
:10407000D20740F1978401222544154C02FA03F33C
:10408000013B184070F0CAFC95F8403D3146114A9A
:1040900018442626002304EBC004E6802046009343
:1040A00041F80C2FF0221DF009FCA2884FF00043CC
:1040B000B2FA82F2D3403FF450AE4FF0B041D1F8A3
:1040C00080201343C1F8803047E600BF286B0B08FF
:1040D000002700242D3A0408C3E900085FFA8CF396
:1040E00083F31188029B1A69136A002BFCD19DF897
:1040F000173003F03C03142B7FF429AE2B22402110
:1041000003901CF007FFC34B03985B68C3F30803DD
:10411000002B40F09281EFF31183002B40F08D8152
:104120004FF0E02C636EDCF81810626E9342F9D108
:10413000D4F8A02D9142F5D8D4F81CC14FF47A726E
:10414000DFF8D0A24FF47A7902FB0CFE4FF0100B8F
:10415000AEEB010E4FF0E021BEFBFCFE02FB03EED6
:10416000DAF80430C3F30803002B40F08081EFF34A
:104170001183002B40F07B81636E8F69626E9342E6
:10418000FAD1D4F8A02D9742F6D8D4F81CC109FB77
:104190000CF2D21BB2FBFCF209FB0323A3EB0E03D0
:1041A000B3F57A7FDCD394F8A93D013BDBB2022B57
:1041B00000F23583984A134493F8702D42F00D02B3
:1041C000422103901CF0A6FE924B03985B68C3F358
:1041D0000803002B40F09883EFF31183002B40F08D
:1041E00093834FF0E02C636EDCF81810626E9342FC
:1041F000F9D1D4F8A02D9142F5D8D4F81CC14FF4D0
:104200007A72DFF810A24FF47A7902FB0CFEAEEB63
:10421000010E4FF0E021BEFBFCFE02FB03EEDAF8DC
:104220000430C3F30803002B40F05C81EFF31183EB
:10423000002B40F05781636E8F69626E9342FAD112
:10424000D4F8A02D9742F6D8D4F81CC109FB0CF283
:10425000D21BB2FBFCF209FB0323A3EB0E03B3F565
:104260007A7FDCD30822412103901CF053FE694B76
:1042700003985B68C3F30803002B40F07983EFF3E6
:104280001183002B40F074834FF0E02C636EDCF858
:104290001810626E9342F9D1D4F8A02D9142F5D84E
:1042A000D4F81CC14FF47A72DFF868A14FF47A7920
:1042B00002FB0CFEAEEB010E4FF0E021BEFBFCFE5C
:1042C00002FB03EEDAF80430C3F30803002B40F0DE
:1042D000EB80EFF31183002B40F0E680636E8F6973
:1042E000626E9342FAD1D4F8A02D9742F6D8D4F852
:1042F0001CC109FB0CF2D21BB2FBFCF209FB03232D
:10430000A3EB0E03B3F57A7FDCD3002243210390A5
:104310001CF000FE3F4B03985B68C3F30803002BBF
:1043200040F00C83EFF31183002B40F007834FF034
:10433000E02C636EDCF81810626E9342F9D1D4F869
:10434000A02D9142F5D8D4F81CC14FF47A72DFF851
:10435000C4A04FF47A7902FB0CFEAEEB010E4FF0D5
:10436000E021BEFBFCFE02FB03EEDAF80430C3F3EF
:104370000803002B40F0D480EFF31183002B40F0B2
:10438000CF80636E8F69626E9342FAD1D4F8A02D0C
:104390009742F6D8D4F81CC109FB0CF2D21BB2FB31
:1043A000FCF209FB0323A3EB0E03B3F57A7FDCD306
:1043B00000230022069607938DF824300F93129362
:1043C0001493029E0C953569CDE90A3301230893B5
:1043D0000D938DF838308DF84C30F7238DF816306A
:1043E0000023CDE91023EFF31181102383F312880A
:1043F00033691B6A002B00F05B82089B42461BB1AD
:10440000D3691432002BFBD12B6A002B00F0E5821C
:1044100004E000BF00ED00E0286B0B089D6855B973
:10442000934200F09D801D68002D00F097805B682E
:104430009D68002DF4D01433F0E7EFF311821023C0
:1044400083F312884FF0E0239969D3F810C01CF46D
:10445000803F03D00121C4F89C1D9969D4F864E021
:10446000D2B2D4F89C3D82F31188734464E6EFF332
:1044700011838BF312888F690A69D20303D5012255
:10448000C4F89C2D8F69626EDBB2D4F89CCD83F3A7
:1044900011886244D4F81CC109FB0CF3DB1BB3FB8D
:1044A000FCF309FB023379E6EFF31183102282F368
:1044B00012888F690A69D20303D50122C4F89C2DA2
:1044C0008F69626EDBB2D4F89CCD83F311886244AD
:1044D000D4F81CC109FB0CF3DB1BB3FBFCF309FB99
:1044E00002330DE7EFF31183102282F312888F69F4
:1044F0000A69D20303D50122C4F89C2D8F69626E2C
:10450000DBB2D4F89CCD83F311886244D4F81CC18B
:1045100009FB0CF3DB1BB3FBFCF309FB02339CE64A
:10452000EFF31183102282F312888F690A69D20394
:1045300003D50122C4F89C2D8F69626EDBB2D4F8DA
:104540009CCD83F311886244D4F81CC109FB0CF3A1
:10455000DB1BB3FBFCF309FB023324E7C3E90008D0
:10456000C9B281F31188029B1A69136A002BFCD12E
:104570009DF817207721039042F0C0021CF0CAFC7E
:104580000398102251211CF0C5FCB74B03985B68BF
:10459000C3F30803002B40F09581EFF31183002B48
:1045A00040F090814FF0E025636EA969626E9342FE
:1045B000FAD1D4F8A02D9142F6D8D4F81C514FF47A
:1045C0007A7202FB05F6761AB6FBF5F602FB036675
:1045D000DFF894E24FF0E0254FF47A7C4FF01009B9
:1045E0004FF00108DEF80430C3F30803002B40F05D
:1045F000FA80EFF31183002B40F0F580626EA96919
:10460000636E9342FAD1D4F8A02D8A42F6D3D4F83F
:104610001C710CFB07F2521AB2FBF7F20CFB0323DE
:104620009B1BB3F57A7FDDD30A22532103901CF044
:1046300071FC8D4B03985B68C3F30803002B40F0BB
:104640001581EFF31183002B40F010814FF0E0252E
:10465000636EA969626E9342FAD1D4F8A02D91429B
:10466000F6D8D4F81C514FF47A7202FB05F6761A8C
:10467000B6FBF5F602FB0366DFF8ECE14FF0E02550
:104680004FF47A7C4FF010094FF00108DEF8043047
:10469000C3F30803002B40F08A80EFF31183002B53
:1046A00040F08580626EA969636E9342FAD1D4F8B6
:1046B000A02D9142F6D8D4F81C710CFB07F2521AC7
:1046C000B2FBF7F20CFB03239B1BB3F57A7FDDD320
:1046D000802256211CF01EFC634B5B68C3F3080369
:1046E000002B40F09E80EFF31183002B40F0998067
:1046F0004FF0E020636E8169626E9342FAD1D4F884
:10470000A02D8A42F6D3D4F81C014FF47A7202FB32
:1047100000F56D1AB5FBF0F502FB0355DFF848C153
:104720004FF0E0204FF47A764FF010084FF0010E72
:10473000DCF80430C3F30803EBB9EFF31183D3B90A
:10474000636E8169626E9342FAD1D4F8A02D8A42D9
:10475000F6D3D4F81C7106FB07F2521AB2FBF7F23B
:1047600006FB03235B1BB3F57A7FE1D3012384F8B7
:10477000A43DFFF7ECBAEFF3118388F31288816947
:104780000269D70302D5C4F89CED8169676EDBB27C
:10479000D4F89C2D83F311883A44D4F81C7106FB9D
:1047A00007F35B1AB3FBF7F306FB0233DAE7EFF329
:1047B000118389F31288A9692A69D70302D5C4F83D
:1047C0009C8DA969676EDBB2D4F89C2D83F31188A8
:1047D0003A44D4F81C710CFB07F35B1AB3FBF7F3F4
:1047E0000CFB023370E7EFF3118389F31288A96998
:1047F0002A69D70302D5C4F89C8DA969676EDBB21C
:10480000D4F89C2D83F311883A44D4F81C710CFB26
:1048100007F35B1AB3FBF7F30CFB023300E70D223F
:10482000CEE4EFF31182102383F312884FF0E023DC
:1048300099691869C00303D50121C4F89C1D9969C1
:10484000636ED2B2D4F89C5D82F311884FF47A7211
:10485000D4F81C011D4402FB00F35B1AB3FBF0F318
:1048600002FB05355AE700BF00ED00E0EFF31182CF
:10487000102383F312884FF0E02399691D69ED033B
:1048800003D50121C4F89C1D9969636ED2B2D4F896
:104890009C6D82F311884FF47A72D4F81C511E4437
:1048A00002FB05F35B1AB3FBF5F302FB0636E3E606
:1048B000C9B2C5F8208081F311880390FEF746FA4B
:1048C000039850E6EFF31182102383F312884FF020
:1048D000E02399691D69ED0303D50121C4F89C1DEE
:1048E0009969636ED2B2D4F89C6D82F311884FF44B
:1048F0007A72D4F81C511E4402FB05F35B1AB3FB19
:10490000F5F302FB063663E6EFF31182102383F31F
:1049100012884FF0E0239969D3F810C01CF4803F4F
:1049200003D00121C4F89C1D9969D4F864E0D2B287
:10493000D4F89C3D82F3118873445EE4EFF3118256
:10494000102383F312884FF0E0239969D3F810C045
:104950001CF4803F03D00121C4F89C1D9969D4F850
:1049600064E0D2B2D4F89C3D82F311887344EAE447
:10497000EFF31182102383F312884FF0E02399693B
:10498000D3F810C01CF4803F03D00121C4F89C1D53
:104990009969D4F864E0D2B2D4F89C3D82F31188CE
:1049A00073447DE4002302990D48F022009341F8FE
:1049B0000C0F18461CF082FFFFF7CFB90DF1180855
:1049C0005FFA8CF3CEF8208083F31188CDF80CB019
:1049D000FEF7BCF90398FFF785BB1860FFDE00BF48
:1049E0002D3A040882682DE9F04F054693B01AB1BC
:1049F000938812681B049361BA4B5B68C3F3080386
:104A0000002B40F0FC80EFF31183002B40F0F78087
:104A1000B54B4FF0E0245A6EA069596E8A42FAD124
:104A2000D3F8A01D8142F6D3D3F81C614FF47A74F9
:104A300004FB06F1091AB1FBF6F104FB0211A94EC1
:104A40004FF0E0204FF47A744FF0100C0127726899
:104A5000C2F30802002A40F09980EFF31182002A85
:104A600040F09480D3F86480D0F818E05A6E9045F6
:104A7000F8D1D3F8A02D9645F4D8D3F81C9104FBB7
:104A800009F2A2EB0E02B2FBF9F204FB0822521A61
:104A9000B2F57A7FDBD3AA6812B1116892888A6175
:104AA0000A24904810264FF0E0214FF47A7C4FF012
:104AB000010B4268C2F30802002A40F08980EFF33C
:104AC0001182002A40F084805A6ED1F818805F6EFF
:104AD000BA42F9D1D3F8A07DB845F5D8D3F81C91E6
:104AE0000CFB09FEAEEB080EBEFBF9FE0CFB02EE62
:104AF0004268C2F3080242BBEFF311822ABB5F6E29
:104B0000D1F818905A6E9742F9D1D3F8A02D91455B
:104B1000F5D8D3F81CA10CFB0AF2A2EB0902B2FBF8
:104B2000FAF20CFB0722A2EB0E02B2F57A7FDFD37A
:104B3000013CBED12B68ADF804401A6A002A00F08F
:104B40008280204613B0BDE8F08FEFF3118986F321
:104B50001288D1F818A00A69D20303D5C3F89CBD06
:104B6000D1F818A05A6E5FFA89F9D3F89C7D89F3C1
:104B7000118807EB0208D3F81C710CFB07F2A2EBBB
:104B80000A02B2FBF7F20CFB0822CCE7EFF311822A
:104B90008CF31288D0F81880D0F810E01EF4803F13
:104BA00003D0C3F89C7DD0F81880D3F86490D2B2BB
:104BB000D3F89CED82F31188CE44D3F81C9104FB0A
:104BC00009F2A2EB0802B2FBF9F204FB0E225EE747
:104BD000EFF3118E86F31288D1F818800A69D70393
:104BE00003D5C3F89CBDD1F81880D3F864905FFA60
:104BF0008EFED3F89C2D8EF311884A446EE7EFF3B6
:104C00001181102383F312884FF0E0229069136919
:104C100013F4803F344B03D00120C3F89C0D9069FE
:104C20005C6EC9B2D3F89C2D81F311881119D3F8A9
:104C30001C614FF47A7404FB06F2121AB2FBF6F20E
:104C400004FB0121FBE680210122002003948DF862
:104C500003100DF103010492029101A98DF828209F
:104C60008DF83C200222089100218DF81440069412
:104C700007940B940E9410940992CDE90C01EFF374
:104C80001182102181F312882968096A00292DD028
:104C9000049902A8002932D00146CC691431002CB5
:104CA000FBD11B6A002B2CD09C683CB9994209D0DF
:104CB0001C682CB15B689C68002CF7D01433F3E7B8
:104CC000C3E90050D2B282F311882B681A6A002A15
:104CD000FCD19DF80530242B14BF00200F2013B009
:104CE000BDE8F08F00ED00E0781E002402A9D2B2EA
:104CF000196282F311882846FEF728F8E5E7014695
:104D0000CFE71D60FFDE00BF38B50446264BD4F860
:104D1000E410586894F8D020D4F8D830012AC4F8A8
:104D2000D8000B44C4F8DC3005D0D4F8D4300133BB
:104D3000C4F8D43038BD201D04F1E8056168EFF3F4
:104D4000118C102383F3128863681B6A0BB3D4F8A9
:104D5000F0302A461BB1D3691432002BFBD10B6A09
:104D6000FBB1996839B9934209D0196829B15B68D8
:104D700099680029F7D01433F3E7C3E900055FFA17
:104D80008CFC8CF31188D4F8D4300133C4F8D430BF
:104D900038BD5FFA8CFC0D628CF31188FDF7D6FFED
:104DA000C3E71860FFDE00BF001000E02DE9F0410E
:104DB00086698AB0054696F8DC30012B4AD0023B62
:104DC000012B52D8D6F89C308C222F4CEC461A700E
:104DD000D0F818800FCCD8F810E008F11007ACE834
:104DE0000F00D6F89C300093D6F8A03001930FCC7A
:104DF000ACE80F0094E803008CE80300EFF31180A7
:104E0000102383F31288D8F810301B6A002B30D09F
:104E1000029B6A461BB1D3691432002BFBD1DEF82A
:104E20002030002B2ED0996839B993420AD01968E6
:104E300029B15B6899680029F7D01433F3E71F6044
:104E4000C3F804D0C0B280F31188AB691A69136A41
:104E5000002BFCD1D6F8A030B3F90220EA81B3F9D7
:104E600004202A82B3F906306B8201200AB0BDE823
:104E7000F081C0B2CEF820D080F311883846FDF71B
:104E800065FFE2E71F60FFDE9C780B082DE9F0412B
:104E900090F81E318AB00446032B6AD090F8DC30BB
:104EA000D0F8A060012B00F0CA8017D8D0F89C3051
:104EB000002205211A605A609A609A81D0F8E03089
:104EC000C0F8F010B3F57A7F00F2ED8003230125DE
:104ED00080F8DC3028460AB0BDE8F081023B012BA7
:104EE00042D8D0F89C306D469222DFF82CE2AC46D6
:104EF00000F110071A70D0F81080BEE80F00ACE87F
:104F00000F00BEE80F00ACE80F00D4F89C309EE81C
:104F100003008CE803000093D4F8A0300193EFF372
:104F20001180102383F3128823691B6A002B00F081
:104F3000E180029B2A461BB1D3691432002BFBD1BE
:104F4000D8F82030002B00F0DE80996851B99342E8
:104F500000F088801968002900F082805B689968F9
:104F60000029F4D01433F0E7012528460AB0BDE843
:104F7000F081674F002301220A2007F1200104F18C
:104F8000100600978DF80C208DF820200993CDE9AC
:104F90000110CDE904332169CDE90633EFF3118027
:104FA000102383F3128823691B6A002B72D06D468D
:104FB000029B2A461BB1D3691432002BFBD10B6A2A
:104FC000002B00F0A280996839B9934209D0196882
:104FD00029B15B6899680029F7D01433F3E7C3E976
:104FE0000065C0B280F311882269156A002DFCD1DA
:104FF0007A8C052A18DDBB8CB7F92650B7F9281032
:1050000015F5004F08BFB3F5004F786A14BF0123B0
:10501000002311F5004518BF01251D4303D0C4F836
:10502000D000A4F8D410063A002A9ED03046B02210
:105030007E211BF06FFF28460AB0BDE8F081B6F96B
:1050400008201D46A0F8D020B6F90A30A0F8D230CA
:10505000B6F90C30A0F8D43028460AB0BDE8F0818B
:10506000C3E90075C0B280F311882269136A002B6E
:10507000FCD1B6F902300125A4F8D0302846B6F9A3
:105080000430A4F8D230B6F90630A4F8D4300AB00F
:10509000BDE8F081C0B2C1F820D080F3118830465D
:1050A000FDF754FEA0E703691A7BF2B15B69E3B137
:1050B00090F89850CDB1D0F89C100E228C20C4F8F6
:1050C000A44001230870C4F8FC20124AD4F8A010B0
:1050D000C4F80421D4F89C20C4F8F81084F80031F6
:1050E00084F8DC30C4F8F4203FE70223012584F87B
:1050F000DC303AE7C0B2C8F8205080F31188384657
:10510000FDF724FEB1E71F60FFDE1E60FFDE00BF7B
:10511000A02E0124450204089C780B080138074B97
:10512000074A00EBC00003EB8000D0F888009042F3
:105130000CBFA020A12069F0D3BA00BF000000245A
:105140000000024001382DE9E84100EBC000134D9A
:105150001E46134B05EB800590460F46D5F8880098
:1051600098420CBFA020A12069F0BAFAB5F99E00C0
:105170004FEA9811C5F89870C5F8A06069F058FE1C
:10518000B5F99E30002B07DB03F01F0001225B09FD
:105190000449824041F82320BDE8E8810000002452
:1051A0000000024000E100E02DE9F04FAD4B91B06E
:1051B0000024DFF8D4820093AB4BA3F69C5BAB4E8C
:1051C0000025DFF8A492B30AA3F58013522B59D817
:1051D0005B4493F810310D2B54D818F90370A44B8D
:1051E00093F8DD3D012B40F02281012F40D14FF09B
:1051F000000A514638461EF0E7F91EF06DFA90F8A5
:1052000000C0BCF1000F18BFBCF1540F14BF4FF029
:10521000010C4FF0000C40F006810AF1040A1FFA5D
:105220008AFABAF1100FE4D1002C00F0C9808D4A3F
:1052300000210EE05B4493F810310D2B10D818F9C3
:105240000330BB420FD0013102F58672A14280F2D9
:10525000B380906803689B0AA3F58013522BE9D9A9
:105260000023BB42EFD1437999F805009842EAD177
:105270000135082D14D059F8206FB30AA3F5801317
:10528000522BA5D97A4B93F8DD3D012BF0D00122AA
:105290000027022BABD1002AA9D00135082DEAD175
:1052A000009B013403F58673042C009387D1714B66
:1052B0000127DFF8D8810093BA46A3F5F563A8F17A
:1052C000040903930AF1FF33D9F8B02F9A4270DD35
:1052D000D8F80C60002E00F0BB83B78833686649AD
:1052E000B7FA87F71944C7F11F07890AD9F8B45FDD
:1052F000002D40F3CF805B4B002405E0013403F523
:105300008673AC4200F0C4801A688A42F6D14FF42A
:105310008673544AC8F8047003FB04245FFA8AF3C6
:10532000C8F8184016B1F3710323B3717B00032250
:10533000012102FA03F0A26C01FA03F30243A26412
:10534000226D1343236599F80030002B79D0636DEB
:1053500001FA07F73B43636516B13368B2889A6177
:10536000434B304693F8F21D490141F0090101F029
:10537000E9011CF03BFD99F80020B9B2002A5BD08E
:105380000122D4F8AC00FAF73BFE20460AF1010AEC
:10539000FAF7F0FE0123009ABAF1090F88F81C30E1
:1053A00008F1200808F8033C537402F11803009335
:1053B00088D111B0BDE8F08FBCF1000F7FF458AF79
:1053C000D9F80C0000222D4B04E001320C33102AD6
:1053D00000F0468359688842F7D152B2304699F8B6
:1053E00005101CF01FFA264A40680023516801335B
:1053F000884215D0102B02F12402F7D14FF0FF3371
:1054000003EBC3031F4A02EB830393F8A430002B82
:105410007FF42EAF144B03EB4515009B9D603FE7D7
:10542000DBB2013BECE7002C7FF401AF20E7B7F1E2
:10543000080218BF01222CE7D4F8AC00FAF7E0FD0F
:10544000A3E707F1100301FA07F701FA03F2636D0E
:1054500013436365002E83D0B38832681B049361C5
:105460007EE700BFC00F0020C4780B080004014095
:10547000781E00249C1B00200000FEA7C802002408
:105480008800002400000024BC030C080C0000204D
:10549000032C57DC4FF4867303FB0593D3F8C00F3E
:1054A000002800F0CB8203F586525424C3F8B81FBD
:1054B0000131147041F2C102C46899546B1C00227E
:1054C000C9F8B43FA64B93F8F13D029398F8103019
:1054D0000493A44B04E001320C33102A00F0C08284
:1054E00059688C42F7D152B2417900681CF09AF9A0
:1054F0004FF48673DFF8A0B203FB0593D0E90142B5
:10550000C3F8D02F5A46C3F8CC4F0023516801335B
:105510008C421CD0102B02F12402F7D1924BAB46E7
:1055200093F88020002A00F0E980904B9048914940
:10553000914AC3F8840AC3F8801AC3F88C2A11B0C0
:10554000BDE8F08F0323864A82F8F03DEDE7DBB239
:105550004FF486728449013B02FB05F203EBC3035F
:1055600001924A4401EB830302F6B87193F8A40058
:10557000B1F8081105900028D7D1A3F8A4104FF076
:10558000330C019B7D499B107D4C01FB03F3D2F84A
:10559000C01F0868C3EBC30103EBC30304EB411155
:1055A00004F5607404EB43133468C2F8BC4F41F255
:1055B000680442F804C041F26404115141F2B001A0
:1055C0008C24545041F2AC015350FCF78BFC019BEE
:1055D0006C4AD418029B062B00F01782072B6A4AEC
:1055E0006A4B6B4914BF712219466A4B04BF1346BC
:1055F0001C22C9F8442C41F2240CB0FBF3F2B0FB9E
:10560000F1F0013A4FF486730138002103FB059352
:1056100092B223F80C2041F26C0C029323F80C0098
:105620002266019AA4F858106166E16502F15801FA
:10563000544A1144D3F8C02F10686BF019F8029B3C
:10564000D3F8C02F10680292036843F08003036010
:1056500053790C2B08D8DFE803F07B0707077307A3
:1056600007076A07070761004FF4867303FB05937A
:10567000D3F8C41F4FF0600C02680023CDF820C09F
:105680004FF4807C0A9322F00102CDF838C04FF02D
:10569000010C0D930F930223CDF824C04FF00A0C98
:1056A000CDE90BC3026008AA6AF066FE4FF4867269
:1056B000029B02FB059219680023D2F8C42F012A2D
:1056C00000F09A81042A00F09781102A00F0BB8133
:1056D000402A00F09181B2F5807F5FD0B2F5806FF3
:1056E0005CD0B2F5805F00F0B781B2F5803F4FF03B
:1056F0003C030CBF08224FF4006251E04FF486785F
:1057000041F2C10108FB0B9808F5865218F8011008
:10571000127883F8811083F8802006E74FF48673AF
:105720004FF4805103FB0593C3F8C41FA2E74FF465
:1057300086734FF4807103FB0593C3F8C41F99E788
:105740004FF48673102103FB0593C3F8C41F91E740
:105750004FF48673012103FB0593C3F8C41F89E747
:10576000781E0024C802002400000024001100203C
:1057700075E9050871E905087DE905086B4CA40782
:10578000A0A70124C00F002040771B001055220065
:1057900044950800D0DD0600880000240822042378
:1057A00001F1180050F803C042EA0C02C250029BFB
:1057B0001879002840F02D814FF48672002302FBF7
:1057C0000592D2F8C00FD2F8CC1F0068026842F0F0
:1057D00001020260DBF804200133914200F01181E4
:1057E000102B0BF1240BF5D14FF0FF339F4A03EB45
:1057F000C30302EB8303D3F888009D4B98420CBF90
:10580000A020A12068F06CFF4FF4867303FB059382
:10581000D3F8C03F5A790C2A00F2F080954901EB89
:105820004202B2F89CCE19684FF48673039803FBCA
