:020000040800F2
:10000000F0FF0120350C0508CDEA0008F1A3030834
:10001000AD0C0508AD0C0508AD0C0508000000008E
:10002000000000000000000000000000C9EA000815
:10003000C5EA000800000000C1EA000855500308A6
:10004000AD0C0508AD0C0508AD0C0508AD0C050898
:10005000AD0C0508AD0C050825BA030851BB030813
:1000600015BB0308D9BA03089DBA0308E5ED0408D7
:10007000D5ED0408C5ED0408B5ED0408A1ED0408AC
:100080008DED040879ED0408AD0C050800000000B2
:1000900000000000000000000000000061BA03083A
:1000A000513D0308A13D0308413D0308C93D030834
:1000B000913D0308813D0308713D03089DFB040841
:1000C000A5FB040891FB040899FB0408AD0C050886
:1000D000AD0C05088D780308D177030800000000F7
:1000E000E9B90308AD0C0508E901010800000000AA
:1000F00000000000000000000000000065ED0408A2
:1001000000000000C1C90408613D0308AD0C0508EA
:1001100000000000000000000000000000000000DF
:1001200051ED04083DED040829ED040815ED04081F
:1001300001ED0408000000000000000000000000C5
:1001400000000000000000000000000055E400086E
:10015000EDEC0408D9EC0408C5EC04081577030895
:1001600085FB04088DFB040800000000000000006F
:10017000000000000000000000000000000000007F
:1001800000000000AD0C05080000000000000000A9
:08019000AD0C0508AD0C0508DB
:08019800D4070500010000007E
:1001A0000E020100020000004C4F002064520020AB
:1001B0000000000090080008140201000500000083
:1001C0003C2A00206852002000000000920800082D
:1001D00013020100040000003C18002070520020AF
:1001E0000000000098080008122001001100000023
:1001F0005052002074520020000000009C080008AB
:100200000D1001004C000000E84C00208852002036
:1002100000000000D9BF020809020100010000002F
:10022000804C0020D452002000000000AE080008DE
:100230002C000500140000006C4C0020D852002057
:1002400000000000F59A0108FD01010024000000F3
:10025000104C0020EC520020000000004320030856
:10026000061001001A000000F04B0020105300207F
:10027000000000006D290408FB01010001000000DE
:10028000884B00202C53002000000000C1280408E7
:10029000FC01010009000000544A002030530020F6
:1002A00000000000C9280408F70101000600000052
:1002B000484A00203C53002000000000B00800081D
:1002C000F901010004000000444A002044530020CA
:1002D00000000000ED200308160215003F0000009A
:1002E0009C4900204853002000000000E928040831
:1002F000340001000A00000050460020885300200E
:10030000000000006514020811020100080000004E
:10031000284600209453002000000000B608000882
:100320001212010004000000204600209C5300200F
:1003300000000000BE080008182001003000000086
:10034000F0450020A05300200000000029360408DA
:100350002A02010002000000EC440020D0530020DB
:100360000000000055290408204201009000000010
:10037000583C0020D45300200000000075140208EF
:10038000FF11010006000000003C00206454002022
:1003900000000000B1280408081203000F0000004C
:1003A0000C3C00206C54002000000000FD280408D4
:1003B000FA01010003000000F83500207C54002001
:1003C00000000000E12804080A8001002600000067
:1003D000D82D002080540020000000004188010832
:1003E000FE010100140000006C2B0020A854002026
:1003F0000000000075280408012001000C00000026
:10040000C4A400200CB5002000000000C4080008AF
:10041000371001002E00000020A5002018B5002094
:1004200000000000D00800081E00010009000000C4
:1004300084A2002048B5002000000000FE0800084B
:100440001B1001000C00000018A1002054B5002072
:10045000000000001118010821020100E000000066
:10046000209F002060B5002000000000CD2A010878
:10047000261001000E00000050B6002040B60020FB
:1004800000000000E11101080B3001001A0000001B
:10049000CCA0002090B60020000000000809000851
:1004A0001F30010024000000F49E0020ACB60020A4
:1004B0000000000024090008050201000A000000F5
:1004C00030A10020D0B6002000000000480900083C
:1004D0002B0012002400000004C50020E0C400200E
:1004E00000000000C59A01082920140078000000CF
:1004F00098C3002028C50020000000000000000074
:10050000190201001000000050C20020A0C5002008
:1005100000000000ED280408232001001000000066
:1005200098C00020B0C500200000000049890108E3
:10053000F62101000C0000002CC00020C0C50020E6
:1005400000000000540900081C0202001C0000000A
:100550009CBF002010C6002000000000A13304084A
:100560002820010018000000B8BF00202CC6002081
:1005700000000000E59C01080412010002000000D8
:100580009CC1002044C60020000000006009000853
:100590000F0201000100000098C1002048C60020A1
:1005A00000000000620900080510010006000000BC
:1005B000E8BC00204CC600200000000064090008D0
:1005C0001300010004000000D4D30020F0D3002069
:1005D000000000006C0900080C200600A8000000C4
:1005E00028D30020F4D3002000000000A5B40208A6
:1005F000000101000400000024D300209CD400204E
:100600000000000070090008020101000300000062
:1006100020D30020A0D4002000000000D1B40208A4
:100620002F10010022000000FCD20020A4D40020E2
:100630000000000074090008101001000200000012
:10064000D0D30020C8D40020000000009609000884
:10065000190001000500000030D10020CCD400209A
:1006600000000000980900082D0201003E00000073
:10067000A8D00020D4D400200000000031150208CA
:100680002B0220008001000064CD002014D5002042
:1006900000000000000000000EF003005C010000FC
:1006A000F0D7002094D600200000000005150208B5
:1006B000F8210100040000005CCD00204CD900208E
:1006C000000000009E0900082C0201001400000038
:1006D0000CCD002050D9002000000000A209000825
:1006E0002A0008006000000088CB002064D90020A8
:1006F000000000003D140208020001000C00000090
:10070000B4E10020A8E30020000000000000000089
:1007100025201E002C010000C0E10020B4E30020D1
:10072000000000000000000029020100400000005D
:10073000FCE00020E0E4002000000000B809000810
:10074000010101000400000060E0002040E50020FD
:100750000000000000000000231201001000000053
:1007600068E3002044E5002000000000F8090008CC
:100770002802040004000000A8EF0020B0F00020D0
:10078000000000006929040827020400040000009A
:10079000A4EF0020B4F00020000000005D29040850
:1007A0001F0208001000000000ED0020B8F000203B
:1007B000000000008D2804081A0201003C0000001F
:1007C0008CE60020C8F0002000000000AD350408D1
:1007D000381001000100000070E5002004F1002045
:1007E00000000000080A00080B1201003C00000095
:1007F00040F7002068FF0020000000000C0A0008FD
:100800000D12010014000000A8FE0020A4FF00202B
:1008100000000000480A00081D0202000600000057
:100820004CFE0020B8FF0020000000000000000087
:10083000060203000C00000058FE002040040120C6
:10084000000000006D3404081610010004000000D0
:100850002CF800204C040120000000005C0A000875
:100860000202010003000000283901202439012080
:100870000000000000000000000201000B0000006A
:10088000383901202C390120000000000000000050
:100890000000000000FF0000000001000000000157
:1008A0000001055334313100000000020000000057
:1008B0000000010000000000000001010101FFFF35
:1008C000FFFF0000E8036400040A000114001E009A
:1008D00020003200C800D007960014003200280023
:1008E0004C0440060005500014000F00080064008E
:1008F0000100010005000A000000F4019600000557
:100900000100000000000000AE014A015E012C0160
:1009100064000200000001000A019A01001E0A00A2
:1009200000000000000000000001000000050000C1
:1009300001020300000000000000000000000000B1
:1009400000000000008007000000000000000F0011
:100950000B7C00000000000001000000020200000B
:100960000000000020000301000000000000000063
:1009700090010000000000000000000000000000E6
:100980000000000000000000000000000000000067
:100990000000000000000005000028010000020027
:1009A000E8030000D0070A00E80300000000000090
:1009B0000000000000000000000000000000000037
:1009C0000000000000000000000000000000000027
:1009D0000000000000000000000000000000000017
:1009E0000000000000000000000000000000000007
:1009F00000000000000000000000000000000000F7
:100A000000000000000000000000000000000000E6
:100A100000000000000000000000000000000000D6
:100A200000000000000000000000000000000000C6
:100A300000000000000000000000000000000000B6
:100A400000000000010000000000000000000000A5
:100A5000000000000000000000000000C4090000C9
:100A60000403090412010002EF020140830456321C
:100A70000002010203010000120100020202004014
:100A8000830440570002010203010000FFFFFFFF43
:100A90000060024010600240000000000000000002
:100AA000000B00000000000000000000000000003B
:100AB00000600240286002400100000000000000C9
:100AC000060C000000000000000000000000000014
:100AD0000060024040600240020000000000000090
:100AE000100D0000000000000000000000000000E9
:100AF0000060024058600240030000000000000057
:100B0000160E0000000000000000000000000000C1
:100B1000006002407060024004000000000000001D
:100B2000200F000000000000000000000000000096
:100B300000600240886002400500000000000000E4
:100B4000261000000000000000000000000000006F
:100B500000600240A06002400600000000000000AB
:100B60003011000000000000000000000000000044
:100B700000600240B8600240070000000000000072
:100B8000362F000000000000000000000000000000
:100B900000640240106402400000000000000000F9
:100BA000003800000000000000000000000000000D
:100BB00000640240286402400100000000000000C0
:100BC00006390000000000000000000000000000E6
:100BD0000064024040640240020000000000000087
:100BE000103A0000000000000000000000000000BB
:100BF000006402405864024003000000000000004E
:100C0000163B000000000000000000000000000093
:100C10000064024070640240040000000000000014
:100C2000203C000000000000000000000000000068
:100C300000640240886402400500000000000000DB
:100C4000264400000000000000000000000000003A
:100C500000640240A06402400600000000000000A2
:100C6000304500000000000000000000000000000F
:100C700000640240B8640240070000000000000069
:100C800036460000000000000000000000000000E8
:100C90007D0000000100000015830008118300089A
:100CA0000D83000801830008FD8200080983000805
:100CB0000583000800000000099600086DA80008E0
:100CC000A58C0008ADA90008E196000899830008EA
:100CD00071830008558300082DA200083D8A000892
:100CE0004D8700082D8D0008AD8D00085D8F000830
:100CF000858300085D8300084D8300080100000023
:100D00000000803FAD500108B1550108295101088C
:100D1000110A0108F50B0108210A01083D0A010822
:100D2000E9090108D90901080000000000000000DD
:100D300009022000010104C0320904000002080673
:100D40005005070581024000000705010240000030
:100D500009026400030100C032090400000103001D
:100D60000000092111010001222600070583030864
:100D7000000A080B0102020201000904010001023D
:100D800002010005240010010524010002042402D0
:100D9000020524060102070582030800FF09040278
:100DA00000020A000000070501024000000705815B
:100DB0000240000009024300020100C032090400A1
:100DC00000010202010005240010010524010001B8
:100DD000042402020524060001070582030800FF1F
:100DE00009040100020A000000070501024000009A
:100DF0000705810240000000FF0000000000010123
:100E0000FF00000005010905A101A100050109304D
:100E10000931093209330935093409400938158186
:100E2000257F750895088102C0C0000009022200D4
:100E3000010100E032090400000103010200092160
:100E4000110100012226000705830308000A0000A3
:100E50000000000001020304010203040607080960
:100E600088B600200000000060B6002000000000EE
:100E700001000000349905083C99050800000000B5
:100E800041B50208A0860100040000000000000037
:100E90000000000000000000000000000000000052
:100EA0000000000000000000000000000000000042
:100EB000000000003499050844990508000000006E
:100EC00089310308E803000004000000000000006E
:100ED0000000000000000000000000000000000012
:100EE0000000000000000000000000000000000002
:100EF000000000004C990508000000000000000000
:100F0000D13102087D000000FF0000000000000059
:100F100000000000000000000000000000000000D1
:100F200000000000000000000000000000000000C1
:100F300000000000DCF505080000000000000000D3
:100F4000D51A02087D000000FF000000000000002C
:100F50000000000000000000000000000000000091
:100F60000000000000000000000000000000000081
:100F700000000000E4D105080000000000000000AF
:100F8000917A02087D000000FF00000000000000D0
:100F90000000000000000000000000000000000051
:100FA0000000000000000000000000000000000041
:100FB0000000000054990508000000000000000037
:100FC000852B0308E8030000030000000000000078
:100FD0000000000000000000000000000000000011
:100FE0000000000000000000000000000000000001
:100FF00000000000589905080000000000000000F3
:101000000164020810270000030000000000000037
:1010100000000000000000000000000000000000D0
:1010200000000000000000000000000000000000C0
:101030000000000038F20508000000006997010870
:10104000F95003085F760000050000000000000072
:101050000000000000000000000000000000000090
:101060000000000000000000000000000000000080
:1010700000000000A8F505080000000000000000C6
:1010800059AA03081027000001000000000000001A
:101090000000000000000000000000000000000050
:1010A0000000000000000000000000000000000040
:1010B0000000000064990508000000000000000026
:1010C000D11E0308E8030000050000000000000036
:1010D0000000000000000000000000000000000010
:1010E0000000000000000000000000000000000000
:1010F00000000000709905080000000000000000DA
:10110000A1BE0208204E0000030000000000000005
:1011100000000000000000000000000000000000CF
:1011200000000000000000000000000000000000BF
:101130000000000080990508000000000000000089
:1011400071BC0208204E00000300000000000000F7
:10115000000000000000000000000000000000008F
:10116000000000000000000000000000000000007F
:101170000000000090990508000000000000000039
:10118000F9200308400D03000300000000000000E8
:10119000000000000000000000000000000000004F
:1011A000000000000000000000000000000000003F
:1011B00000000000A09905080000000000000000E9
:1011C000D5F1020810270000010000000000000017
:1011D000000000000000000000000000000000000F
:1011E00000000000000000000000000000000000FF
:1011F00000000000A89905080000000000000000A1
:10120000E53B01081027000003000000000000007B
:1012100000000000000000000000000000000000CE
:1012200000000000000000000000000000000000BE
:1012300000000000AC99050800000000000000005C
:10124000C5D50108A08601000100000000000000D3
:10125000000000000000000000000000000000008E
:10126000000000000000000000000000000000007E
:1012700000000000B4990508000000000000000014
:10128000052A030850C30000010000000000000010
:10129000000000000000000000000000000000004E
:1012A000000000000000000000000000000000003E
:1012B00000000000BC9905080000000000000000CC
:1012C000D5270308A08601000000000000000000F0
:1012D000000000000000000000000000000000000E
:1012E00000000000000000000000000000000000FE
:1012F00000000000C8990508000000000000000080
:10130000B9230308A86100000100000000000000EC
:1013100000000000000000000000000000000000CD
:1013200000000000000000000000000000000000BD
:1013300000000000D4990508000000000000000033
:10134000E17C0308A00F0000010000000000000085
:10135000000000000000000000000000000000008D
:10136000000000000000000000000000000000007D
:1013700000000000E09905080000000000000000E7
:10138000A12B010810270000010000000000000050
:10139000000000000000000000000000000000004D
:1013A000000000000000000000000000000000003D
:1013B00000000000EC99050800000000000000009B
:1013C0004D18010810270000010000000000000077
:1013D000000000000000000000000000000000000D
:1013E00000000000000000000000000000000000FD
:1013F00000000000F899050800000000000000004F
:1014000031CA020840420F00000000000000000046
:1014100000000000000000000000000000000000CC
:1014200000000000000000000000000000000000BC
:1014300000000000049A0508000000000000000001
:101440006DC2020850C30000000000000000000050
:10145000000000000000000000000000000000008C
:10146000000000000000000000000000000000007C
:101470000000000001000000FFFFFFFF84B8002013
:10148000D8B8002001000000425702000000010609
:101490004257020000000106D601010100010101CE
:1014A00000FF01000000803F00000000000000007D
:1014B000000000000000803F00000000000000006D
:1014C000000000000000000000000000000000001C
:1014D000000000000000000000000000010000000B
:1014E0000000FA430000FA430000000030E500204D
:1014F000080000000000000020E5002008000000B7
:101500002000000005500108050B01089D4F01084F
:1015100000000000D509010885580108ED4E0108BA
:10152000394B010800000000000000009509010887
:101530002583000819830008318C00084D8C0008B1
:10154000158C0008F98B0008DD8B0008BD4F0108E1
:10155000E10A0108F14E010800000000AD09010890
:101560003D4B0108C14E0108994A010800000000E6
:1015700000000000A109010895EB0208000000002E
:101580000000000000000000FFFFFFFF685E0C008D
:10159000FFFFFFFF020102FFFF010000FFFF00004D
:1015A0002CF20508000008020503030000000000FB
:1015B00034F20508010008020504030000000000E1
:1015C00060A405080200FE010110030000000000F5
:1015D00040CC0508030014020003000000000000D6
:1015E0003CF2050804001F02020008000000000091
:1015F00044F2050805001F02020108000000000077
:10160000FFFFFFFF1A0300000000000000000000C1
:1016100000000000000000000000000000000000CA
:101620000403090412010002000000408304205753
:101630000002010203010B00893C04085D3C040820
:10164000013C0408212A04081D3C0408C13B04088D
:101650001D2A0408880E0020793D0408993D0408DD
:10166000693D0408012A0408253D0408DD3C0408FE
:10167000F1290408640E002095360408092A04089C
:10168000052A0408FD290408E5360408F929040898
:10169000F52904082C8B050821580108C10A010806
:1016A000015701080000000000000000994E0108E9
:1016B000A94D01080000000000000000000000002B
:1016C00089090108A92A04089D2A0408E93D04089B
:1016D000053E0408552A0408CD3D0408B13D040820
:1016E000FFFFFFFF1F0000001C0000001F000000A4
:1016F0001E0000001F0000001E0000001F00000070
:101700001F0000001E0000001F0000001E0000005F
:101710001F0000000068214C01250000D487050847
:101720000100000050C3000001010000008002021F
:101730001F00000053544D202020202050726F6461
:10174000757420202020202020202020302E3031B1
:10175000008002021F00000053544D202020202052
:1017600050726F64757420202020202020202020BB
:10177000302E3031010000000000040100000000A4
:101780000000000210000000070000000000000040
:101790000000000001020304060708090100000020
:1017A000DC0E00200000000000000000000000002F
:1017B0000000000000000000000000000000000029
:1017C0000000000000000000000000000000000019
:1017D0000000000000000000000000000000000009
:1017E00000000000000000000000000000000000F9
:1017F00000000000000000000000000000000000E9
:0418000000000000E4
:08280000082800080040000850
:10800000F0B401292A4C2B4D23684FF0000694BF91
:1080100000270127EE626662A6626763676B47EA24
:1080200042076763EE63EC6B002A38D144F4957421
:10803000EC631C6824F001041C601C68E407FCD499
:10804000490289085960D8601968EAB921F04001ED
:10805000196019498B421DD018494FF47410C8603B
:10806000196841F01E011960596941F08001596198
:10807000196841F00101196022B90E4AD36A43F030
:108080000803D362F0BC704741F0400119600A490F
:108090008B42E1D14FF0746041F8500CE0E744F0BE
:1080A0001A04EC63EC6A44F00804EC62C1E700BF18
:1080B000400F0020002C0140586402400064024040
:1080C0001148002302461178032902F1060216D056
:1080D0000133062BF7D10D4AD36D052B0ED0591C59
:1080E00003EB4303D16500EB4303032040F2EB3184
:1080F00040F2FF32187059809A807047704703EB46
:10810000430300EB4303F0E7780F0020400F00200B
:1081100070B4C3080D4CE25C00F00706B24004EBFB
:10812000D004D2B20020C6F108038B4228BF0B4610
:10813000C3F108052A419840C91A40EA02004FF0ED
:10814000000614F8012FEED170BC7047E00F00203C
:10815000084AD2E9343199420AD0D118013391F852
:10816000D8100170C3F30A03C2F8D0300120704761
:1081700000207047400F0020064AD2F8D838D2F8C5
:10818000DC28934294BF4FF400600020013B9B1A0F
:1081900018447047400F0020012380F85130704789
:1081A00007B501A8FFF7D4FF0028FAD09DF8040016
:1081B00003B05DF804FB044BD3E93403984288BF55
:1081C00003F50063181A7047400F00200120704724
:1081D000024BC3F8E028C3F8E4187047400F0020B2
:1081E000024BC3F8E828C3F8EC187047400F002092
:1081F0007047704730B4134DD5E934239A4286BF97
:1082000003F50064A21A9A1A0A44B2F5006F13D853
:10821000A9B101444A1E013810F8014FE918824201
:1082200003F1010381F8D840C3F30A03F4D1C5F880
:10823000D430002030BC7047022030BC7047084664
:10824000F8E700BF400F0020212838B50C4605D0C4
:1082500022282ED0202813D0002038BD0029FBD0A2
:10826000072AF9D11A4BD3F8F00893F8F41893F8C9
:10827000F52893F8F638206021716271A371EBE75D
:108280000029E9D0072AE7D1114DD5F8E4381BB110
:108290000968D5F8E0089847206821796279A379C0
:1082A000C5F8F00885F8F41885F8F52885F8F6384B
:1082B000D2E70029D0D0022ACED1054AD2F8EC3834
:1082C000002BC9D00988D2F8E8089847C4E700BF56
:1082D000400F0020024B0020C3F8F808704700BF91
:1082E000400F0020044B00200522C3F8F828C3F8F3
:1082F000EC08C3F8E4087047400F0020704700BF47
:10830000704700BF704700BF704700BF704700BF95
:10831000704700BF704700BF042301480B807047BF
:108320009801002010B4074A074B92F8FC08122469
:1083300003F114020C8001280CBF184610465DF8AA
:10834000044B7047400F00209C01002000487047FC
:10835000C80F002000487047C80F0020034B93F857
:108360008400032894BF002001207047400F0020A4
:10837000034B93F88400032894BF0020012070472A
:10838000400F0020034B93F88400003818BF0120F1
:10839000704700BF400F0020034B93F88400003863
:1083A00018BF0120704700BF400F0020A0B18268B5
:1083B0000D4B12B107229A7070471978DA600329C1
:1083C0004FF004000CBF80214FF48071C3E901110C
:1083D0001A611A7598707047034B41F2E4710122DB
:1083E0005A545A70704700BFBC8400200378022B97
:1083F00010D0006908B9012070470C4B1B78032B83
:108400000EBF0B4B80B24FF6F773984294BF00201B
:10841000012070470549436841F650028A58B3EB82
:10842000422F2CBF01200020704700BFBC840020D9
:10843000F7FFFF0F0378022B14D030B4104A4368C3
:10844000006941F6480402F5C2511559096841F620
:108450003C042B4012595B0A023801FB00301044E7
:1084600030BC7047064B426841F6340141F630009B
:108470005958185800EB410000EB5220704700BFDC
:10848000BC84002010B5094CD4F8BC20138999078E
:10849000FCD513891B06F9D40A202CF01DFCD4F856
:1084A000C000BDE8104033F07DBA00BF400F00208F
:1084B00000285DD0036803F13F4202F57E022DE9FA
:1084C000F041920A324DAA5C02F01F0552090124C4
:1084D000032A04FA05F456D0042A4FD0022A48D0C1
:1084E0008588B5FA85F0C0F11F00C0F3CC0603EB18
:1084F000860600F0070082000F24306A944020EACC
:1085000004003062306A01FA02F202430021326252
:108510004FF0010E0A464FF0030C02270EFA02F844
:1085200038EA050002F101021CD118680CFA01F4C6
:1085300020EA04001860186807FA01F606431E6076
:108540009E6826EA04069E6098689860586820EA4B
:108550000800586058685860D86820EA0400D8605D
:10856000D868D860102A01F10201D7D1BDE8F081A6
:108570007047084A556C2C435464B1E7054A156BA3
:108580002C431463ACE7034A156C2C431464A7E72F
:10859000F83C05080038024008B5124BD3F8BC007F
:1085A000828940F2E9330289013B12F0020F9BB24B
:1085B00012D0FF23838140F2E9330289013B12F09C
:1085C000010F9BB202D08089C0B208BD002BF4D14C
:1085D00033F0DEFCC0B208BD002BE4D133F0D8FC90
:1085E000C0B2F8E7400F002070B505460E460924DA
:1085F000FFF7D2FFFF2803D1013CF9D1012070BD64
:10860000FE2801D0022070BD064933462A46D1F823
:10861000BC00002146F05EFDFFF7BEFFFFF7BCFF88
:10862000002070BD400F002010B51D4C0023C4F881
:108630008030FFF7B1FFD4F8BC00828940F2E93303
:108640000289013B12F0020F9BB217D0FD238381F8
:1086500040F2E9330289013B12F0010F9BB212D0C4
:108660008389FFF799FFFF2812D1FFF795FFFF28B5
:108670000ED10423022084F8843010BD002BDFD1FA
:1086800033F086FCEDE7002BE4D133F081FCE8E722
:10869000D4F8003963670923002084F8843010BDC2
:1086A000400F002070B582B040F040060C0E054629
:1086B0000A0A080C95238DF801408DF804108DF8F6
:1086C00000608DF802008DF803208DF80530082435
:1086D000FFF762FFFF2802D0013CF9D125BB1A4BFE
:1086E000D3F8BC00062583896E464FF47A734FF6A3
:1086F000FF713EB316F8012B0489013BA4079BB21E
:1087000015D593B283814FF47A730489E40703F19A
:10871000FF3211D5013D8289EBD10924FFF73CFFDF
:10872000FF2802D1013CF9D1FF2002B070BD8B427D
:10873000E2D133F02DFCF0E793B28B42E5D133F078
:1087400027FCEAE7FF22D7E7400F00202DE9F84396
:108750001A4C94F88460042E0546894690461F46BC
:1087600008D0082E02D00020BDE8F883FFF75CFF98
:108770000228F8D1D4F8C00033F00EF994F87A301A
:1087800093B969021120FFF78DFF98B9D4F8003929
:10879000C4F860900522C4E91B87656684F88420CC
:1087A00063670120BDE8F88329461120FFF77AFFAF
:1087B0000028EBD0FFF766FED5E700BF400F002092
:1087C0002DE9F84F564B984210D003F56853083303
:1087D000984267D0534B0020A3F85C09A3F86809BE
:1087E000C3F86009C3F86409BDE8F88F4D4C4E4EDC
:1087F00002224FF0000BC4F8042904F60815D946EC
:108800004FF4007A4FF48078F26A01275A455946AE
:10881000BB4403D0D4F878093EF046F994F87C299B
:1088200085F82420D4F87809A5F804A04FF0007248
:108830004FF48031A960EA60A5F8108085F81290A5
:10884000A5F806802F762862B7213EF023FBD4F8E6
:108850000429364B6F76934545F8283BD4DB84F8E2
:108860006A99D4F80419B4F80C29D4F81439D4F856
:108870001009B4F81859C4F8803912FB01F203FB4F
:1088800001F3A4F85C29B4F80E19294AC4F8600968
:10889000C4F86439A4F86859A4F85E19C4F85829D2
:1088A0000120A1E71F4C204E0223C4F8043904F62E
:1088B00008154FF0000B4FF4806A4FF040094FF459
:1088C0000068F26A01275A455946BB4403D0D4F8E0
:1088D00078093EF0E9F8D4F8781994F87C292962EF
:1088E00085F824204FF400314FF00062C5E90212F0
:1088F000A5F804A0A5F81090A5F80680AF74FFF7BE
:10890000DFFB28466F763EF017FAD4F80429094BAE
:1089100045F8283B9345D4DB84F86A79A1E700BF8A
:108920001971EF00400F002098010020003D05085C
:10893000583D05082C3D0508F8B51A4C94F88439C3
:10894000002BFBD159B301444E1E451ED4F8DC2840
:10895000D4F8D81815F8017F531CC3F30A038B42CF
:108960002CBF4FF400600020C91A224401440129A1
:1089700082F88879C4F8DC380FD101202CF0CAFACB
:10898000D4F8D838D4F8DC188B4294BF4FF4006286
:1089900000225B1A1344012BEFD0B542D6D1002040
:1089A000F8BD00BF400F002010B5094CD4F8F838CE
:1089B000084611465BB1D4F8F838052B07D1002AD8
:1089C000D4F8003903DDFFF7B7FFD4F8003910BD44
:1089D000400F002010B590F85010002380F8503060
:1089E00081B10B4CD4F8F82872B1D4F8F828052AD4
:1089F0000CD13C30D4F80039FFF79EFFD4F8003991
:108A0000012010BD0120FCE71046FAE71846F8E700
:108A1000400F0020002280F85120DBE790F8502022
:108A2000531C0244DBB280F8503082F83C1090F8BE
:108A300051200AB1132B00D9CCE770472DE9F04142
:108A400043794F4C002B14BF0122002284F8B02040
:108A500003D184F88430BDE8F08190F8018008F1FA
:108A6000FF3676B2054630460F4633F0F9FB022357
:108A7000C4F8BC0084F8B8302B78002B5BD1ED78BB
:108A8000002D4CD14FF48071D4F8BC00C4F8C05014
:108A900046F0B0F94FF47A702CF03CFAD4F8C000EC
:108AA00032F080FFD4F8BC000A2683894FF6FF71AC
:108AB0004FF47A73FF270289950719D587814FF400
:108AC0007A730289D20703F1FF3524D5013E8289EA
:108AD000F1D12C4B0289920713D5028912F0800242
:108AE0000FD1D4F8001984F8782001236167B0E72A
:108AF000013B9BB28B42DED133F04AFAD4F8BC0082
:108B0000E7E7013BE6D194F8782084F88430531CE1
:108B100084F878309FE7ABB28B42D2D1ECE728469D
:108B200031F096FE054608B11E23C3800921284670
:108B300032F088FDA6E706EB86063E44414696F9EC
:108B40000320002033F06AF9064630B1406844F053
:108B500001FEB36884F8CE3018B9002384F8C4301D
:108B60008DE7094A431E02EB431317210022C4F884
:108B7000C83044F001FE012384F8C4307FE700BF11
:108B8000400F0020A1860100C8010020F8B5104E5A
:108B9000D6F89040054600680F4664080DF086F848
:108BA000B4FBF7F1B1F5803F03D3012CFAD9640887
:108BB000F6E72246284689B22BF0EEF9054BC6F8B7
:108BC000F83828460449BDE8F84000222BF004B9E3
:108BD0003820002005B801083029002010B5044CC9
:108BE00004480A4621460BF0DBFE204610BD00BFBC
:108BF000382900203097050810B5044C04480A466F
:108C000021460BF0CDFE204610BD00BF38290020C4
:108C10004097050810B5044C04480A4621460BF05D
:108C2000BFFE204610BD00BF382900204C97050824
:108C300010B5044C04480A4621460BF0B1FE20460C
:108C400010BD00BF382900205897050810B5044C06
:108C500004480A4621460BF0A3FE204610BD00BF83
:108C6000382900206897050810B50C4C94F8CD20E1
:108C70000023C4F8803012B1094AC2F8003A43F028
:108C8000FFFE20B10423022084F8843010BDD4F804
:108C900000396367092384F8843010BD400F002039
:108CA0003820002070B50D4D95F88430042B044613
:108CB0000E460AD0082B06D1EB6F83420CD0FFF78B
:108CC000D3FF022801D0012070BD0823C5E91F464B
:108CD00085F88430022070BD022070BD400F002056
:108CE00010B50BF031FE104C58B194F88430032BC2
:108CF00012D894F878300133DBB2072B84F878303F
:108D000003D9002384F8843010BDD4F80039636798
:108D1000012384F8843010BDD4F8BC004FF4807176
:108D200046F068F8E5E700BF400F002070B51E4C24
:108D300094F88430042B06460D4608D0082B22D127
:108D4000E36F83422DD0FFF76FFC02281BD1D4F8CC
:108D5000C00032F021FE00213720FFF7A3FC294696
:108D60001720FFF79FFCB0B994F87A306BB9710205
:108D70001920FFF797FC70B90823C4E91F6584F830
:108D80008430022070BD012070BD31461920FFF7EC
:108D900089FC0028F0D0FFF775FBFFF7A1FF032047
:108DA00070BD022070BD00BF400F00202DE9F043D0
:108DB000694D91B006460F469046994695F8843025
:108DC000042B0DD0082B07D1EB6FB34200F0C0800D
:108DD000FFF72AFC0228F1D0012011B0BDE8F08392
:108DE000D5F8C00032F0D8FD95F87A30002B40F06D
:108DF0009E8071021820FFF755FC002840F0A280E9
:108E000095F88440FFF7C8FB082C0CBFFC22FE221B
:108E1000D5F8BC00818940F2E9330189013B11F0AA
:108E2000020F9BB24FD093B2838140F2E9340389A1
:108E3000013C13F0010FA4B276D0838995F8C430B9
:108E4000002B48D001A80CF059FDD5F8BC30D5F85E
:108E5000C82095F8CE10506803970C334022029337
:108E600000234906CDE9083304920B934FF4806246
:108E700006930A934FF400730792019105930CF047
:108E80007BFDD5F8C83001A958680CF049FDD5F82C
:108E9000C830D5F8BC2059680B6843F001030B605B
:108EA00093889BB243F002039380012206230020A3
:108EB000C5E91B892F666E6685F8682085F88430C1
:108EC00011B0BDE8F083002BA7D133F061F895F81D
:108ED000C430002BB6D1D5F8BC00BE4683894FF410
:108EE00080724FF47A744FF6FF71BEF1000F19D003
:108EF0001EF8013BB0F808C0013C1CF0020FA4B200
:108F000017D09BB283814FF47A74B0F808C01CF07C
:108F1000010F04F1FF3311D0013A8389C5D0BEF1AE
:108F2000000FE5D1FF23E5E7002C80D1CDE73146E6
:108F300060E78C42DED133F02BF8B6E79CB28C426E
:108F4000E3D1F8E7FFF79EFAFFF7CAFE032044E7F4
:108F5000FFF722FBFC225BE7400F00202DE9F04FDA
:108F6000A44C94F8B06087B0002E00F0D68194F83D
:108F70008420DFF88892DFF888829F4F4FF6FF75D4
:108F8000531E082B00F29580DFE813F0A700D100F4
:108F90006B0193008200090014019300FF0094F814
:108FA000C430002B40F03E82D4F8BC00236E94F80D
:108FB00068E0828903EB0E2C4FF480714FF47A73D2
:108FC000BCF1000F00F0B7811CF801AB0289013B36
:108FD00092079BB240F1EE811FFA8AF383814FF42E
:108FE0007A730289D20703F1FF3A40F1EB8101392C
:108FF0008289E5D10EF1010E5FFA8EFEBEF1020FFD
:1090000084F868E052D1D4F8BC00838940F2E93397
:109010000289013B12F0020F9BB200F0C7810023CE
:10902000838140F2E9330289013B12F0010F9BB2C8
:1090300000F0B4818389838940F2E9330289013BDE
:1090400012F0020F9BB200F0A5810023838140F251
:10905000E9330289013B12F0010F9BB200F09481C9
:109060008389FFF799FA00F01F00052800F0A1821C
:10907000FFF736FED4F86CA0BAF1000F00F0CC81F7
:109080000022236F616E0120D04794F8842077E797
:10909000206E4FF40071FFF7A7FA012800F0A481B9
:1090A000022800F0A881002800F0EF8194F88420C5
:1090B000531EDBB2022B00F23A81D4F80039616F03
:1090C0005B1AC82B00F22F81A2F10806B6FA86F6C9
:1090D0007609304607B0BDE8F08FD4F8C00032F012
:1090E0005BFC00210846FFF7DDFA8246FFF7CAF96C
:1090F000BAF1010FDAD10023D4F8C00084F8793036
:1091000032F04AFC40F2AB110820FFF7CBFA0528F9
:1091100000F08581012800F01181FFF7B3F994F880
:109120007920002A00F04282022384F88430D4F8A7
:10913000C00032F031FC94F87930022B0CBF4FF0B4
:10914000804A4FF0000A00213720FFF7ABFA514662
:109150002920FFF7A7FA8246FFF794F9BAF1000F2A
:10916000A4D194F87930022B00F0A48184F87AA07D
:10917000D4F8C00032F010FC00210920FFF792FA69
:1091800000283FD0FFF77EF990E74FF0080AFFF77D
:1091900003FAFF2800F02082BAF1010AF7D1636FC9
:1091A000D4F80029FA33934280D2FFF799FD94F85E
:1091B0008420E5E6FFF7F0F9FF284FF0080A06D013
:1091C000BAF1010AEBD0FFF7E7F9FF28F8D1D4F89C
:1091D00080300022012B84F8782040F20382E26F75
:1091E00008210132013BC4E91F2384F884100A4698
:1091F0006AE700BF400F0020006402400F64024095
:1092000000600240C5481021FFF7EEF983460028B0
:10921000B8D101217F20FEF77BFF01288246B1D122
:1092200058460221FEF774FF002800F0A0810128B3
:10923000A8D116213A20FEF76BFF01308002C4F856
:109240008800FFF71FF9D4F8C00032F0A5FB002119
:109250000A20FFF727FA002840F06481032384F8EE
:109260008430102102A8FFF7BFF900287FF41EAF59
:109270009DF815309DF816109DF810209DF80900F6
:109280009DF80AC01B01DBB243EA111303F5FA6330
:10929000A4F89A30DDF8113001F00F0184F89C1029
:1092A0001BBA110902F00F024CEA002084F8981052
:1092B00084F899209DF808109DF80B20C4F894308C
:1092C000039BC4F89030A4F88C0084F88E1084F8C6
:1092D0008F20FFF7D7F894F87A307BB9D4F8C00024
:1092E00032F05AFB4FF400711020FFF7DBF9824691
:1092F000FFF7C8F8BAF1000F7FF457AFD4F8BC00FD
:10930000042145F077FD002204233046C4F8802074
:1093100084F8843007B0BDE8F08F304684F884606C
:1093200007B0BDE8F08FFFF7DBFC94F88420042A37
:109330007FF4CAAECDE64FF0FF0A47E6D4F8BC0092
:109340004FF0040E838902A94FF47A734FF0FF0C9B
:10935000028992073CD5A0F80CC04FF47A730289B9
:10936000D20703F1FF3A3AD5828992B209B101F8E6
:10937000012BBEF1010EEBD19DF80B30AB2B04BFDE
:10938000022384F87930C8E6002B7FF462AE32F015
:10939000FFFD66E6002B7FF451AEF8E7002B7FF46B
:1093A00042AE32F0F5FDD4F8BC0044E6002B7FF469
:1093B0002FAEF6E7AB427FF409AE32F0E9FD94F848
:1093C00068E017E61FFA8AF3AB427FF40AAEF4E7CF
:1093D000013B9BB2AB42BBD132F0DAFDCCE71FFAC6
:1093E0008AF3AB42BBD1F7E7636FD4F8002964334B
:1093F0009342BFF45BAEFFF745F8FFF771FCD4F87A
:109400006CA0BAF1000F07D000221046236F616EE6
:10941000D04794F88420B3E594F88420B0E584F82C
:1094200079A07AE6D4F8C8305968DB69494594BF19
:109430004046384613F0005F00F08B80D0F804C03F
:10944000DFF8DCE003EA0C0C1CEA0E0F3FF43CAE44
:1094500003EA0E03C3600B68D4F8BC0023F00103D9
:109460000B600389D90703D583890389DA07FBD405
:1094700003899B07FCD503891906F9D4838823F057
:1094800002031B041B0C8380BFE50190FEF7FAFF6B
:10949000E56E019884F87800042384F88430002D68
:1094A0003FF417AED4E91821236FA84794F884201D
:1094B000531EFEE5D4F8C00032F06EFA51463A2051
:1094C000FFF7F0F8D4F8BC1082468B894FF0040EF9
:1094D0004FF47A7302A84FF0FF0C0A89920728D53F
:1094E000A1F80CC04FF47A730A89D20703F1FF3B4D
:1094F0002AD58A8992B208B100F8012BBEF1010E7B
:10950000EBD1BAF1000F0DD1FEF7BCFF029B1BBAE5
:10951000C3F3807384F87A302AE600BFE00F00209E
:109520007D0F7D0FFEF7AEFFFFF7DAFB94F8842086
:1095300026E5013B9BB2AB42CFD1084632F028FD75
:10954000BAF1000FEED1DFE71FFA8BF3AB42CBD1BC
:10955000F3E7D0F800C0DFF8ACE003EA0C0C1CEA3B
:109560000E0F3FF4B1AD03EA0E03836073E70421ED
:109570002C20FEF7CDFD032183464E20FEF7C8FDCB
:109580000C21034636200193FEF7C2FD019B421CCD
:1095900002339A400AFA0BFAA2FB0A01420A42EA93
:1095A000C152C4F88820FEF76DFF4CE684F8842091
:1095B0008AE5E56ED4F800396367072284F88420D1
:1095C000002D3FF481ADD4E91821236F0120A84775
:1095D00094F88420531E6CE5FEF754FF042384F8AE
:1095E000843076E508D0042384F88430FEF74AFFFF
:1095F00094F88420531E5CE5FFF716F802287FF4E8
:1096000055ADBFE57D0F7D0F70B54379234C002B21
:1096100014BF0123002384F8B03003D1002384F861
:10962000843070BD1E4D002195F9072A032032F0C9
:10963000F5FB0028F2D04668304644F08BF884F8F9
:10964000CC000028EAD095F8053A003B18BF01236A
:10965000304684F8CD3044F05DF90BF075F938B937
:1096600094F8783084F88400013384F8783070BD41
:1096700043F0F0FA40B194F878300022013384F8D6
:10968000783084F8842070BDD4F8002984F87800FC
:109690000123626784F8843070BD00BF400F002052
:1096A0003820002010B543F0D5FA58B10B4C94F88F
:1096B00078300133DBB2072B84F8783003D90023EC
:1096C00084F8843010BD0BF03FF90028F7D0D4F8AF
:1096D00000396367012384F8843010BD400F0020F7
:1096E0002DE9F041874C94F8B050002D00F0F8803F
:1096F00094F88420844F0226531E082B41D8DFE8BB
:1097000003F037399E4068501540050043F0B8F922
:10971000002840F0EC80636FD4F80029FA339342BC
:109720002CD2FFF7BFFF94F88420E5E743F0A8F9B7
:109730000028F0D0D4F880300022012B84F8782063
:1097400040F2D980E16F94F8CD00013B0131C4E9CA
:109750001F1310B16C4BC3F8002A082284F8842030
:10976000A2F10805B5FA85F56D092846BDE8F08136
:1097700084F8846043F084F9002841D194F884206F
:10978000531EDBB2022B09D8D4F80039616F5B1A83
:10979000C82BE5D9FFF786FF94F88420042ADFD18F
:1097A000E3E7236B002BDBD1E66ED4F80039636767
:1097B000072284F88420002ED2D0D4E91821236F08
:1097C0000120B047DAE7636FD4F8001964338B42A5
:1097D000C6D2D4F82C80B8F1000FF4D143F050F980
:1097E0000028A0D0E66E84F87880042384F88430C2
:1097F000002E7AD0D4E91821236F4046B047BDE748
:1098000042F0E4FD0028B9D197F8093A002BA3F102
:109810000203B3FA83F314BF022201225B0984F826
:10982000792084F87A3042F0D1FD00287FF479AFB6
:10983000364A0323926CC4F8882084F8843042F0BE
:10984000C5FD00289AD1304BC4F8800093F83C6ADB
:10985000B3F83E0AD3F840EAD3F840CAD3F8407AC6
:10986000D3F8402A84F88E6093F8441AA4F88C0048
:1098700093F8456A84F8922093F8450AD3F8482A69
:10988000C4F89420B3F84E8AB3F84E2A84F89310A3
:10989000B3F84E1AC2F30B1343EA182303F00F0375
:1098A00001F00F024FEA1E6E4FEA1C4C3F0A3609C8
:1098B00000F00F0003F5FA63042184F8990084F89E
:1098C0008FE084F890C084F8917084F89860A4F8D0
:1098D0009A3084F89C2084F884102846BDE8F081F2
:1098E00084F884502846BDE8F08105463DE704230E
:1098F00084F8843039E7FAD1FFF7B6F994F8842078
:10990000531E3EE7400F002038200020482A002048
:109910002DE9F04FC14C94F8681A83B00546C1F3A5
:109920004001D4F8700A32F043F894F8681AD4F879
:109930006C0AC94301F001016F1E32F039F8FBB225
:109940000193002D00F0D080B54EDFF8DC82B54DDC
:109950004FF01009D4F8700A32F014F8D4F86C0AF9
:1099600032F010F8B4F8783A002B40F04E8194F8B9
:109970007A1AD4F87C0A32F01BF84FF0FA0A4FF446
:109980007A710120D8F80430C3F30803002B40F0AB
:109990000F81EFF31183002B40F00A81D6F80029E4
:1099A000D5F808C0D6F800399A42F7D1D4F8A03AD1
:1099B0009C45F3D8D4F89C7A01FB07F3A3EB0C0386
:1099C000B3FBF7F301FB0232D8F80430C3F308030A
:1099D000002B40F0AB80EFF31183002B40F0A6800A
:1099E000D6F80039D5F808B0D6F80079BB42F7D1DF
:1099F000D4F8A07ABB45F3D8D4F89C7A01FB07FCD5
:109A0000ACEB0B0CBCFBF7FC01FB03C39B1AB3F5DF
:109A10007A7FD9D3BAF1010AB4D1D4F8700A31F0FF
:109A2000B1FFD4F86C0A31F0ADFFB4F8783A002BEE
:109A300040F0DF8094F87A1AD4F87C0A81F00101B2
:109A400031F0B6FFFA204FF47A714FF0010CD8F8DC
:109A50000430C3F30803002B40F08980EFF3118337
:109A6000002B40F08480D6F80029D5F808E0D6F81D
:109A700000399A42F7D1D4F8A03A9E45F3D8D4F8E9
:109A80009CAA01FB0AF3A3EB0E03B3FBFAF301FB61
:109A90000232D8F80430C3F3080343BBEFF3118359
:109AA0002BBBD6F80039D5F808B0D6F80079BB4200
:109AB000F7D1D4F8A07ABB45F3D8D4F89CAA01FB1F
:109AC0000AFEAEEB0B0EBEFBFAFE01FB03E39B1A94
:109AD000B3F57A7FDDD30138B9D1019B5F1EFBB2AC
:109AE000FF2B01937FF436AF03B0BDE8F08FEFF3A7
:109AF000118A89F31288AF682B68DB0344BFC4F86E
:109B000098CAAF68D6F80039D4F898EA5FFA8AFAAA
:109B10008AF31188D4F89CAA734401FB0AFEAEEBC9
:109B2000070EBEFBFAFE01FB03E3D0E7EFF3118E55
:109B300089F31288D5F808B02B68DF0344BFC4F856
:109B4000980AD5F808B0D6F80039D4F898CA5FFA60
:109B50008EFE8EF31188D4F89C7A634401FB07FCD7
:109B6000ACEB0B0CBCFBF7FC01FB03C34EE7EFF3C4
:109B7000118E89F31288D5F808A02B68DA0344BF48
:109B8000C4F898CAD5F808A0D6F80039D4F8982AAD
:109B90005FFA8EFE8EF31188D4F89CEA1A4401FB1A
:109BA0000EF3A3EB0A03B3FBFEF301FB023270E7F3
:109BB000EFF3118C89F31288D5F808E02B68DB03EA
:109BC00044BFC4F8980AD5F808E0D6F80039D4F8AC
:109BD000982A5FFA8CFC8CF31188D4F89C7A1A448A
:109BE00001FB07F3A3EB0E03B3FBF7F301FB023218
:109BF000EAE6D4F8943A002B3FF424AFD4F8803A44
:109C0000C3F800A084F891AA1CE7D4F8943A002B7A
:109C10003FF4B3AE2BF03EFAAFE600BF3820002091
:109C2000400F002010E000E000ED00E02DE9F04FD3
:109C3000BD4CBE4E94F8681AD4F8700ADFF8F4826E
:109C4000BB4D83B0C1F3400131F0B2FE94F8681A05
:109C5000D4F86C0AC94301F0010131F0A9FE0523D3
:109C600001934FF01009D4F8700A31F08BFED4F84C
:109C70006C0A31F087FEB4F8783A002B40F04C8142
:109C800094F87A1AD4F87C0A31F092FE32274FF415
:109C90007A710120D8F80430C3F30803002B40F098
:109CA0000F81EFF31183002B40F00A81D6F80029D1
:109CB000D5F808C0D6F800399A42F7D1D4F8A03ABE
:109CC0009C45F3D8D4F89CEA01FB0EF3A3EB0C03FC
:109CD000B3FBFEF301FB0232D8F80430C3F30803F0
:109CE000002B40F0AB80EFF31183002B40F0A680F7
:109CF000D6F80039D5F808B0D6F800C96345F7D1D1
:109D0000D4F8A0CAE345F3D8D4F89CEA01FB0EFCD2
:109D1000ACEB0B0CBCFBFEFC01FB03C39B1AB3F5C5
:109D20007A7FD9D3013FB5D1D4F8700A31F02AFE39
:109D3000D4F86C0A31F026FEB4F8783A002B40F0E3
:109D4000E08094F87A1AD4F87C0A81F0010131F0AD
:109D50002FFE32204FF47A710127D8F80430C3F374
:109D60000803002B40F08B80EFF31183002B40F0B1
:109D70008680D6F80029D5F808E0D6F800399A424E
:109D8000F7D1D4F8A03A9E45F3D8D4F89CAA01FBA9
:109D90000AF3A3EB0E03B3FBFAF301FB0232D8F88C
:109DA0000430C3F3080343BBEFF311832BBBD6F896
:109DB0000039D5F808B0D6F800E97345F7D1D4F8E2
:109DC000A0EAF345F3D8D4F89CAA01FB0AFEAEEB57
:109DD0000B0EBEFBFAFE01FB03E39B1AB3F57A7F81
:109DE000DDD30138B9D1019B5F1E17F0FF0301934A
:109DF0007FF439AF03B0BDE8F08FEFF3118A89F338
:109E00001288D5F808B02B68DB0344BFC4F8987AF1
:109E1000D5F808B0D6F80039D4F898EA5FFA8AFA8B
:109E20008AF31188D4F89CAA734401FB0AFEAEEBB6
:109E30000B0EBEFBFAFE01FB03E3CEE7EFF3118E40
:109E400089F31288D5F808B02B68DB0344BFC4F847
:109E5000980AD5F808B0D6F80039D4F898CA5FFA4D
:109E60008EFE8EF31188D4F89CEA634401FB0EFC4D
:109E7000ACEB0B0CBCFBFEFC01FB03C34EE7EFF3AA
:109E8000118E89F31288D5F808A02B68DA0344BF35
:109E9000C4F8987AD5F808A0D6F80039D4F8982AEA
:109EA0005FFA8EFE8EF31188D4F89CEA1A4401FB07
:109EB0000EF3A3EB0A03B3FBFEF301FB02326EE7E2
:109EC000EFF3118C89F31288D5F808E02B68DA03D8
:109ED00044BFC4F8980AD5F808E0D6F80039D4F899
:109EE000982A5FFA8CFC8CF31188D4F89CCA1A4427
:109EF00001FB0CF3A3EB0E03B3FBFCF301FB0232FB
:109F0000EAE6D4F8943A002B3FF423AFD4F8803A31
:109F10001F6084F8917A1CE7D4F8943A002B3FF440
:109F2000B5AE2BF0B7F8B1E638200020400F002086
:109F300010E000E000ED00E00E4B30B4DB6842784A
:109F400001780D4CDB43C3F30223C3F10403DBB2FE
:109F500002FA03F360181B0101F01F0501224909F1
:109F600003F0F003AA4080F8003344F8212030BC0D
:109F7000704700BF00ED00E000E100E000F01F02CC
:109F800040090123032803FA02F304D004280CD06B
:109F9000022805D07047074A116C0B4313647047C1
:109FA000044A516C0B4353647047024A116B0B43D4
:109FB000136370470038024000285FD0036803F144
:109FC0003F4202F57E022DE9F041920A334CA25C39
:109FD00002F01F0452090121032A01FA04F158D0AA
:109FE000042A51D0022A4AD08588B5FA85F2C2F1F6
:109FF0001F02C2F3CC0403EB840402F00702216ABF
:10A0000092000F20904021EA00012162206A0C2179
:10A0100001FA02F202430021226208464FF0010ECB
:10A020004FF0030C02270EFA00F838EA050200F19F
:10A0300001001DD11C680CFA01F224EA02041C6024
:10A040001E6807FA01F434431C609E6826EA020683
:10A050009E609E6816439E605C6824EA08045C600B
:10A060005C685C60DC6824EA0202DA60DA68DA6064
:10A07000102801F10201D6D1BDE8F0817047084AED
:10A08000546C21435164AFE7054A146B21431163BB
:10A09000AAE7034A146C21431164A5E7F83C0508BC
:10A0A0000038024058B183884FF00042B3FA83F37E
:10A0B00032FA03F303D002490A6813430B60704776
:10A0C000003C0140134B0268196821EA0201196043
:10A0D000596821EA0201596019680A431A609968AF
:10A0E000026821EA02019960D96821EA0201D96077
:10A0F0004179102907D001F1804303F59E33196897
:10A100000A431A607047996811439960D9680A43F5
:10A11000DA607047003C0140002864D0F0B58388C5
:10A12000B3FA83F3202B0A4685B00446C3F11F011E
:10A1300043D02D4D2D4E05EB81037718C3F8A42A8B
:10A14000002197F88C7031F07DFAB4F804C02268D1
:10A15000274CBCFA8CFCCCF11F0303F0FC0101F18D
:10A16000804101F59C3103F0030398004FF00F0E7E
:10A1700002F13F438A680EFA00FE22EA0E0203F55E
:10A180007E038A60C3F38723834088684FF00042D0
:10A1900022FA0CF203433D448B6002A86261012362
:10A1A0004FF400618DF80E300292ADF80C10FFF7FD
:10A1B00089FF95F8E43AF02B01D805B0F0BD3E4494
:10A1C000F02196F89C308DF8043003224FF4807310
:10A1D00001A885F8E41A8DF80520ADF80630FFF7E0
:10A1E000ABFE05B0F0BD704738200020F83C0508F4
:10A1F000003C0140B0B10C49D1F8EC3A102B03D12E
:10A20000052100202AF020BC03EB43020A4482F817
:10A21000F00A202082F8F10A0120034482F8F20AB1
:10A22000C1F8EC3A704700BF38200020C078E1E761
:10A230002DE9F04FDFF884A32DED028B9AF8341B43
:10A24000002297B0CAF8242BCAF8282BCAF82C2B66
:10A25000CAF8302BCAF8202B19B19AF8352B8AF896
:10A26000202B9AF8362B1AB19AF8372B8AF82F2B15
:10A270009AF83A2B1AB19AF83B2B8AF82A2B9AF8BB
:10A28000382B1AB19AF8392B8AF8252B9AF83C3BCF
:10A2900005935A1ED3B257B204937B1C00F0AA80D8
:10A2A000BC4ABD4E52F83780029602EBC70200232B
:10A2B0001279019308EE102A1D46344699462678F5
:10A2C0003946304632F042FA83463046BBF1000F41
:10A2D0001ED030F0BDFAEA1D1321D2B220B14FF0EA
:10A2E000000E827180F807E031F0ACF9207832F08E
:10A2F00057FA4FF0070309F1010223714FF00103F0
:10A3000084F802906070CDF804B05FFA82F9E370CF
:10A310000135042D04F10504D1D118EE100A029E76
:10A32000CDF80C90FFF72AFE9C499D4A48680240F0
:10A3300042F440324A600FB9019B5BB9994C482006
:10A34000FFF71CFE2046022145F03EFCA26842F0C9
:10A350000102A2609148934A4168BAF83E4B41F429
:10A3600000014160516821F480515160916B21F4EA
:10A37000401141F480119163D16841F46001D160D2
:10A38000956B85F44011C1F3015101EB81011F2050
:10A3900000FA01FC25EA0C0C112505FA01F141EA4D
:10A3A0000C019163D16841F0E061D160956BC5F318
:10A3B0000151C1F10401C9B201EB810188404FF0A4
:10A3C000120C25EA00000CFA01F108439063E4B195
:10A3D000BAF8401BCAF8484BA1B1BAF8422BCAF8E8
:10A3E0004C1B62B1019B7048521A90FBF2F2CAF802
:10A3F000502B6BB917B0BDEC028BBDE8F08F6B4AE8
:10A400001288EFE76A4A1188E7E76A4A1488DFE7AB
:10A410004046039945F0D8FB5F4B012003F1140936
:10A420000723F278441CE4B252B375783279A5F16F
:10A430000A0101EB410105EB450C092D03FA01FE70
:10A4400003FA0CFB02FA01F140F28E80D8F80C20DE
:10A4500022EA0E0E41EA0E01C8F80C10421E02EB71
:10A4600082021F21062801FA02FC05FA02F261D8D5
:10A47000D8F8341021EA0C010A432046C8F83420E9
:10A480000536B145CDD1D8F80820049942F40072C0
:10A49000C8F80820D8F8082042F48072C8F80820CC
:10A4A000D8F80820574442F00102C8F8082097F96C
:10A4B000442B022031F0B2FC044600289AD04068B8
:10A4C00043F048F9059A062143F056F960680BF00D
:10A4D00053FA07A80BF012FA039EA368364A0793B3
:10A4E000012E8CBF4FF48060002000230D9008F1F6
:10A4F0004C054FF40060089509920A934FF480725E
:10A500000C930E904FF4003360680B9607A94FF43C
:10A510000055CDE90F5211930BF002FA62681368EF
:10A5200043F001031360D8F8083043F08043C8F8C3
:10A5300008305FE7C11FA0F10D0201EB81014FF070
:10A540001F0E02EB82020C280EFA01FC0EFA02F03A
:10A5500005FA01F113D8D8F8302022EA0C02114391
:10A560002046C8F830108BE7D8F8101002FA0CF229
:10A5700021EA0B0B42EA0B02C8F810206EE7D8F86C
:10A580002C1005FA02F221EA00010A432046C8F81D
:10A590002C2075E79C3D0508582B00200023014026
:10A5A000E030FCFF00200140803801002E7AFF1FC0
:10A5B0002C7AFF1F2A7AFF1F8C2B002038200020C6
:10A5C000F8B5274E00EBC00406EB8404D4F8605BBA
:10A5D000002D38D094F871CB0CF0FF07BCF1000FC0
:10A5E00031D149004FF0010CC9B284F8721B84F8D4
:10A5F000732B84F875CB84F8767B84F874CB84F85D
:10A6000071CB84F8707BAA88C4F8783BC4F87C3B93
:10A61000940502D501273846F8BD2B88D9050CD4FE
:10A620004FF4805301E0013B10D02A889205FAD400
:10A630002B889BB243F480732B80AB889BB243F48E
:10A640004073AB80E6E700273846F8BDB6F8C83B54
:10A6500001339BB2A6F8C83B44F082FEDBE700BFA3
:10A660003820002070B4464B93F8CA2B03EB02113C
:10A67000100191F8CC1B03291BD8DFE801F00C1D59
:10A6800002491C18D4F8D01BF1B10139C4F8D01B11
:10A69000002070BC704793F8385C002D5BD03949BE
:10A6A000002201E0954256D00C8801328C31002CFA
:10A6B000F8D0012070BC70471C18D4F8D01B0029BA
:10A6C000E3D1022184F8CC1B191891F8D80B01387A
:10A6D000C0B281F8D80B90BB2B4893F8585DD0F8E6
:10A6E0003002D1F8D44B013202F00302431E03269C
:10A6F000AA42234481F8CC6BB3FBF0F4C1F8D04BF1
:10A70000D7D098429CBF04F1FF34C1F8D04BD0E7BA
:10A710001918D1F8D00B70BB93F8581D8A42C8D0D5
:10A72000013202F00304A14283F8CA4BC1D003EB0B
:10A7300004120223C2F8D00B82F8CC3BBAE7124BCA
:10A74000D3F83022012002F2E73370BCB3FBF2F3FE
:10A75000C1F8D03B70470C4AD2F83012034401F5DF
:10A760001C5201200F3270BCB2FBF1F283F8CC0B0B
:10A77000C3F8D02B70470138C1F8D00B002099E7FF
:10A7800038200020782C0020980100202DE9F84F77
:10A790003249DFF8D4B091F8091A0124022907469A
:10A7A00019461046CBF82C404FF000022C4C1D46A9
:10A7B00018BF7F02FDF724FC2A4B63626B02A36281
:10A7C000E36A40F2FF5943F093034FF400704FF4F3
:10A7D0008A62E3620121C4F83890A0601020E26030
:10A7E00041F040FF012D40F251434E46C4F83890ED
:10A7F000CA4640F252488EBF4FF0120998464FF0B9
:10A8000011090A25C4F838A00121A7604846C4F8F8
:10A810000C8041F027FF03464FF0000C40F27742D6
:10A8200001213720A6632BB900231846CBF8283026
:10A83000BDE8F88FA663C4F808C0E26041F012FFDB
:10A84000013DA6630028EFD015F0FF05DAD10346DD
:10A85000CBF82C50CBF82830BDE8F88F38200020FA
:10A86000002C014000E1F505400F00202DE9F843E0
:10A87000184C94F88460042E0546894690461F467D
:10A8800008D0082E02D00020BDE8F883FEF7ECF9CE
:10A890000228F8D101234A4628460021FFF776FF17
:10A8A00050B1FEF7FFFEE56E002DECD00022236FC5
:10A8B000616E1046A847E6E7D4F80039C4F8609006
:10A8C0000522C4E91B87656684F88420636701203C
:10A8D000BDE8F883400F00202DE9F84F2F49DFF83D
:10A8E000C49091F8091A1E4602292D4B07464FF0D5
:10A8F000010418BF4702012E40F259481C6398BF5B
:10A900004FF48B683B469346474640F2FF55B046AE
:10A910008CBF4FF0190A4FF0180A0A241E4640F265
:10A92000FF53C9F838300121C9F808605046C9F80A
:10A930000C7041F097FE03464FF0000C40F2774256
:10A9400001213720C9F83850A3B9584641460122A1
:10A95000FDF756FB4646134A134B53627602966246
:10A96000D36A43F09103D3620D4B002108469962EC
:10A97000BDE8F88FC9F83850C9F808C0C9F80C20EC
:10A9800041F070FE013CC9F838500028DDD014F0C9
:10A99000FF04C4D1024B1C63BDE8F88F38200020AF
:10A9A000400F0020002C014000E1F5052DE9F047A3
:10A9B000374C82B005460E461746984694F88400F8
:10A9C00004280CD0082806D1E36FAB4207D0FEF76D
:10A9D0004BF90228F2D0012002B0BDE8F087DFF881
:10A9E000B8A02666DAF8009A6566C9F34F210F29E8
:10A9F0004FEA592223D8D4F880300193FBB194F860
:10AA0000CD00E0B1B9F5005F13D0224831464FF4D4
:10AA10000072484449F0D4F809F50072C2F34F219E
:10AA20001029CAF8002A4FEA522202D0019B012BBA
:10AA300021D192B2013A174EAD1A0B4600E0012324
:10AA400032462846062601250021E766C4F87080B4
:10AA500084F8685084F88460FFF73EFF0028BBD07C
:10AA6000FEF720FEE66E86B12846236F616E002257
:10AA7000B0470320B0E7E26F013B01320421C4E993
:10AA80001F2384F884100220A6E70320A4E700BF58
:10AA9000400F0020BC5400203820002070B5244D09
:10AAA00095F85C4D022C134682B00A4607D0014649
:10AAB00005F65C5002B0BDE8704031F02DBCD5F811
:10AAC000641D11B10C6889886183D5F8601D8E8979
:10AAD00040F2E9340E89013C16F0020FA4B223D0F3
:10AAE00084B28C8140F2E9340889013C10F0010FF6
:10AAF000A4B20DD088890846002144F0EBFAD5F8BD
:10AB0000643D13B11A689B881383012002B070BDA5
:10AB1000002CE9D10846CDE9002331F039FADDE90E
:10AB20000023D5F8601DE6E7002CD3D1F2E700BF83
:10AB30003820002030B40578022D14D0012D02D029
:10AB4000002030BC7047044690F90400084B421CBA
:10AB500083F89C5DF4D00328F2DC0A4603F69C538C
:10AB6000617930BC2CE530BC012231F0F7BA00BF6E
:10AB70003820002010B50C4C94F85C3D022B12D10B
:10AB8000D4F8640D30F00EFFD4F8640D08B1212321
:10AB9000C380012130F056FDD4F8600D0821BDE8D6
:10ABA000104044F027B910BD3820002073B50D4E79
:10ABB00005460C46FF230A46014630468DF807300D
:10ABC00031F0CCFA01230DF1070245F08001304647
:10ABD00031F088FA9DF80700031B5842584102B033
:10ABE00070BD00BF942D002060EE007A67EEA77A5A
:10ABF00027EE800A704700BF9FED737A07EE901A28
:10AC000020EE070AF8EE677A27EE800AFDEEC07A9A
:10AC100017EE903A2033402B00F2C780DFED6B7ABD
:10AC2000B4EEE70AF1EE10FAF0EE407A0CDD9FED9B
:10AC3000686ADFED686AB0EE677AB4EEE67AF1EE44
:10AC400010FA77EEC67AF6DC9FED637AF4EEC77AF7
:10AC5000F1EE10FA0CD59FED5E6ADFED606AB0EEA2
:10AC6000677AB4EEE67AF1EE10FA77EE867AF6D4E9
:10AC70009FED5B7AF4EEC77AF1EE10FA00F38D8067
:10AC80009FED587AF4EEC77AF1EE10FA44BF9FEDCB
:10AC9000527A77EE677A27EEA76ADFED535A9FED77
:10ACA000537ADFED536AA6EE257A67EE865AE6EE12
:10ACB000076AB6EE007AE5EEA67A27EE877ADFED30
:10ACC000486A70EE267ABDEEE76A16EE103A203337
:10ACD000402B67D8B4EEE60AF1EE10FA0CDDDFED9A
:10ACE0003C5A9FED3C6AF0EE676AF4EEC66AF1EEFC
:10ACF00010FA77EEE57AF6DCDFED376AF4EEE67A05
:10AD0000F1EE10FA0CD5DFED325A9FED346AF0EE19
:10AD1000676AF4EEC66AF1EE10FA77EEA57AF6D419
:10AD2000DFED2F6AF4EEE67AF1EE10FA40DDDFEDAA
:10AD3000276A76EEE77A67EEA75A9FED2B5A9FEDCA
:10AD40002B6ADFED2B6AA5EE856A27EEA55AE5EEA4
:10AD5000866AB8EE006AE5EE267A67EE867AC7EE76
:10AD6000206A0023836143610362C361B7EE006A16
:10AD700076EE865A76EE666A86EE257A67EE277A52
:10AD800066EE876AC0ED017AC0ED037A80ED007A45
:10AD900080ED027AC0ED046A70479FED0C7A77EE81
:10ADA000677A78E7DFED137AD9E79FED127A86E7C5
:10ADB000DFED0C6AF4EEE67AF1EE10FA44BFDFED57
:10ADC000066A76EEE77AB6E727D4D236DB0F49403B
:10ADD000DB0FC940E4CB1641DB0F49C0E4CB16C101
:10ADE000DB0FC93FDB0FC9BF92E741B99730083C81
:10ADF00015A82ABE000000002DE9F0472DED048BB8
:10AE0000674D82B095F89D3D0190002B40F0C280C7
:10AE100095F8BE3DB5F8C02DDFED626AB5F8C29D6C
:10AE2000A5F8D49D07EE103AB8EEC76AB7EE007ADF
:10AE300007EE902AF0EE475AB5F8BC2DE6EE665ABA
:10AE40004FEA49069642A6EE267AB8BF164605F6A0
:10AE5000C851F8EEE77A05F6CC5267EEA67AC1ED56
:10AE6000005A1FFA86F805F55D6182ED007A01222D
:10AE7000A5F8D68DC1ED007A85F89D2D002B00F048
:10AE80008580DDED017A9FED480A484F9FED489A95
:10AE9000F8EE677AB6B280EE270A46F067FB7600D6
:10AEA000B0FBF6F6012EB8BF0126F6B2B0FBF6F302
:10AEB0009BB2044685F8D86DBA4600EE103ABBEE58
:10AEC000ED0A0C3707ED030A46F050FB394BDFED76
:10AED0003A6AB9FBF0F0A3FB0434E40807EE904AA9
:10AEE000F8EEE77A022886EEA77AB8BF022085F846
:10AEF000E00D0024F7EE008A8AED027AB6EE008AB1
:10AF000007EE904AB8EEE70A013420EE090A3AF05B
:10AF100093FC38EEC00A202C20EE080AA7EC010AA8
:10AF2000EED107EE906AF8EEE77AF7EE006A86EE69
:10AF3000A77A224A224B41F2844441F290402A519E
:10AF400002F12801A8322A5041F2E12241F27C406C
:10AF500007EE908AAE54F8EE677A41F28C4441F2E3
:10AF6000884210262E52202614202E53A85283EDFC
:10AF7000007AC3F89C11C3EDAC7AC3EDAD7AC3ED92
:10AF8000AE7A02B0BDEC048BBDE8F0870D4A82F8C2
:10AF9000343276E795F8D86DB5F8D68DC1E700BFA5
:10AFA000382000200AD7233C00247449142E0020A6
:10AFB0003C8C4F3EABAAAAAADB0FC941A43D0508B1
:10AFC0001C33002098010020F0B40D6800240CE030
:10AFD000BCF1050F18D8A0F137030A2B14D104EBEC
:10AFE000840415F8010B03EB4404A0F13003DEB236
:10AFF000092EA0F16107A0F1410CF0D9052FE7D887
:10B00000A0F157030A2BEAD00D601460F0BC704722
:10B0100010B50021094C82B00846C4F8B81421F0DC
:10B0200087F9074B0193042304F2BC400DEB0302A4
:10B03000062131F01DF802B010BD00BF30310020F4
:10B040005475C52A70B5461E00F13105344614F812
:10B05000011F601E801BFF29C0B201D021F068F9DA
:10B06000AC42F4D1A0203CF067FB0121022021F08A
:10B070005FF90E4D40F2E93401E0013C05D0422178
:10B08000284630F0A7FF0028F7D16221074830F0AA
:10B09000A1FF1321242021F04BF92520092121F0C3
:10B0A00047F9BDE87040A0203CF046BBEC350020DD
:10B0B0002DE9F04F2DED108B034697B00433159317
:10B0C000DFEDCACA149002238A4613928B4612936C
:10B0D000149C4FEADB0604EB461202EB061031012A
:10B0E000A6EB86034FEAC60806EB4605CDE900014C
:10B0F00000EBC303043108F10400119620442144FD
:10B100002C01C6EBC60C0394EC00119D04944FEA8D
:10B11000CC0405946C0106EB860E0294159D009CF0
:10B1200003EB46174FEACE0E02EBC6064FEACB09F9
:10B130004FF0000C51ED01AAD3ED001A92ED007A08
:10B1400094ED005A96ED004AD7ED007A15ED012AEC
:10B1500050ED016A32EE07BA76EE840A7AEE855A2D
:10B1600031EEA70A3BEE256A70EE804A76EEC46A9D
:10B1700036EE244A36EE646A05ED014A82ED006A35
:10B18000D0ED00BAD6ED012AD3ED019A95ED00AAD3
:10B1900092ED016A97ED013A91ED00CAD4ED014AB2
:10B1A0007BEEE23A36EEE19A32EE472A73EEE98A16
:10B1B0003AEE464A39EE279A78EE838AB0EE428A12
:10B1C000A9EE6C8ADC44E24573EEC33AB0EE441A51
:10B1D000A8EEEC1A76EEE77A33EEA97A7CEE643AC2
:10B1E00077EEA17A3AEE066A7AEEC51A3CEE24AA08
:10B1F00074EECC4A39EE833A35EE6A5AF0EE639A31
:10B20000F0EE48AAE7EE2C9AA8EEAC4AE7EE2C4AFC
:10B21000E7EE6CAAF0EE418AB0EE427AB0EE612A17
:10B220007BEE656A7BEEA22A76EE4A5AA9EE2C7A6C
:10B23000A7EEAC2AA7EEAC5AE7EEEC8A32EE83BA60
:10B2400076EEC3BA35EEE09A75EEC07A36EE0A6A4B
:10B2500076EEE26A36EE0BAA76EE836A77EEA07A95
:10B2600034EE423A77EE290A36EE4B6A7BEEA22A9A
:10B2700039EE000A73EEAA3A78EE244A37EE697A7C
:10B2800031EE055A71EEA85A32EE044A85ED00AA55
:10B2900082ED016A4D4441ED012A4A44C4ED006A41
:10B2A00081ED000AC4ED017A494440ED010A4C44A5
:10B2B00087ED007AC6ED003AC3ED004A80ED003A12
:10B2C00087ED014A484486ED015A4F44C3ED015AC7
:10B2D0004E444B443FF62EAF119B072B40F2C781E3
:10B2E000029D149E019B03980499059A08357519CF
:10B2F0000C330E95354608F108080EF10804EB18DA
:10B3000008300831083246442C1928186918AA1840
:10B31000079305F10C030D960C940B900A9109927A
:10B3200008934FF001084FF0000E129B9E44139BB0
:10B3300003EBCE0303EBCE02109302EBCE0303EB41
:10B34000CE01029101EBCE0101EBCE0505EBCE065D
:10B35000D6ED007A0F93AEEB8E03019106EB03134B
:10B3600003EBCE07D3ED01AACDED067A019BD5ED17
:10B37000007A97ED01BACDED057AD3ED007A029B04
:10B38000CDED047AD3ED007A0F9BCDED037A07EB78
:10B39000CE0CD3ED007ADCED01BACDED027A0CEBE8
:10B3A000CE01D2ED007A109A009101EBCE00014659
:10B3B00091ED01DACDED017A0099D2ED007A91EDAF
:10B3C00001CA00EBCE0000EBCE0494ED01EAD0ED13
:10B3D00001DACDED007ADDE90776DDE90954DDE932
:10B3E0000B01DDE90D23C44602E000BFF304353F45
:10B3F00094ED009A90ED00FA91ED006AD5ED007A97
:10B40000D3ED006A57ED014A92ED005A56ED013A2C
:10B4100096ED00AA35EE060A73EEA65A39EE278A93
:10B4200034EE8F7A70EE082A75EE87EA35EE465ACA
:10B430003EEEA26A73EEE63A06ED016AD1ED019A9C
:10B44000D2ED01FAD4ED016AD3ED011A95ED013A7E
:10B45000D0ED018A97ED004A3FEEE96A35EE491AD0
:10B4600076EE660A31EE271A3AEE612A75EE677AB1
:10B4700070EE830A3FEEA95A74EECF9A77EE897A7E
:10B480007AEE211AB0EE42AA74EE68FAA0EEECAAA7
:10B49000DC44E24535EEC77AB0EE639A74EE285A82
:10B4A00038EEC44AF0EE698AA1EE6C9AE7EEAC8AF7
:10B4B00036EE436A7FEE644A36EE266AA0EEAC2A88
:10B4C000F0EE4A0AE7EEEC0AE7EEAC4AF0EE687AF4
:10B4D000F0EE498A36EE833AE6EE6C8AE1EE2C3ADB
:10B4E000B0EE6F1AA6EE2C1A71EEE56AA6EE2C4AA3
:10B4F00071EEA55A75EE031A7EEEE22A37EE43FA94
:10B5000075EEE1EAB0EE686A76EEC08A39EE044A7A
:10B510007FEE86FA76EEC86A33EE816A38EE888A64
:10B5200073EEC13A37EE457A2CEE2E1A3FEE055AED
:10B5300022EECC9A9DED03FA70EE266A33EE077A7E
:10B54000AFEE221AAFEE2E9A7AEE244A9DED01FA62
:10B5500079EEA09A25EE4BAA72EE670A37EE822AA0
:10B560006BEE087AAFEE08AAEFEE057A2DEEA63A5A
:10B570009DED05FA67EE6D8AAFEE073AEFEE268A8B
:10B5800066EE6A2A9DED00FA2AEEA00AEFEE202A66
:10B590006EEE02EADDED060A23EECE5AE0EEA3EAF5
:10B5A0002BEEA98ADDED023AAFEE060AA3EE848AFD
:10B5B00024EE6B7A6DEE246A9DED044A2FEECD6A7F
:10B5C000A0EE825AA3EEA97AE4EE2F6AA4EE246AD2
:10B5D00075EEA15AC6ED005A83ED001A83ED019A6B
:10B5E0004E4447ED017A87ED00AA4B4480ED003AC6
:10B5F000C0ED018A4F4482ED000A4844C2ED012AA1
:10B60000C5ED00EA85ED015A4A44C1ED006A81EDBD
:10B61000016A4D4484ED008A84ED017A49444C442A
:10B620003FF6E6AE0E9B08330E930D9B08330D9349
:10B630000C9B08330C930B9B08330B930A9B08332A
:10B640000A93099B08330993089B08330893079BC7
:10B6500008330793119B08F1010843457FF465AE59
:10B66000129BDDF844B0DB009BB2129330E517B0BB
:10B67000BDEC108BBDE8F08F30B5044683B000BF41
:10B68000806830F089F94CF2050301AA6946ADF8EB
:10B6900000306068032300258DF8025043F01AFD46
:10B6A000A06830F07FF900BF9DF8060003B030BD00
:10B6B000F0B5C44EC44885B02422002148F0E1FA18
:10B6C00096F8C974002F39D1C04DD5F858395BB3FD
:10B6D0009B6A4BB3BE48984783682BB30388DFF857
:10B6E000E8C2013B9BB264466646002130780328DD
:10B6F00006F106061BD001310629F7D10022217878
:10B70000022904F1060400F0A8800132062AF6D1CD
:10B71000E96D052908D0481C02FB01C2E86502203A
:10B720000021938010705180384605B0F0BD06238B
:10B7300003FB01514B8F013B9BB2DFE796F8C80436
:10B7400006F59A63C6F8CC3410B9A04D0027BCE7C3
:10B750002FF07EF80546C6F8D804002800F0ED80EA
:10B7600083790BB13C2BF0D1781E022340B286F8CE
:10B77000D03430F075FD0028E7D02023C6F8D4047B
:10B78000EB80284609212FF05DFFD6F8CC348F4D91
:10B79000986830F007F9D6F8CC341021586843F097
:10B7A00029FB8C4BD6F8CC24C5F8782993E8030004
:10B7B0000123009032208DF8041085F87C39002494
:10B7C00029F0A8FB052302AA6946D6F8CC048DF817
:10B7D0000A408DF8094030F0C9FB9DF80A009DF839
:10B7E00009109DF80B207C4B000240EA01401043F9
:10B7F000984200F0C28034DCA3F5F113984260D087
:10B8000044DD764B984254D00233984264D14FF4D1
:10B8100000724FF48073A5F85C29A5F86839B5F873
:10B820006829B5F85C39120202FB03F300204FF4DB
:10B830008071B3F1807FC5F86029C5F8643985F857
:10B840006A09A5F85E1900F287800124644B85F827
:10B8500071492746C5F8583937E7062101FB02C26E
:10B860005DE7604B984234DC053B984234DD5E4B2B
:10B870000344032B79D801A252F823F0C3B800087F
:10B88000B3B80008A5B800080FB80008A3F5220354
:10B89000013B984269D04CDD544B984209D00133AA
:10B8A000984219D14FF48073A5F85C39A5F868392E
:10B8B000B5E780224FF48073A5F85C29A5F86839B4
:10B8C000ADE740224FF48073A5F85C29A5F86839EC
:10B8D000A5E7474B9842E5D00023A5F85C39A5F8C9
:10B8E0006839C5F86039C5F86439FCF769FF034663
:10B8F00080BB9DF80B009DF80A209DF80C100002FB
:10B9000040EA02403B4A084390423ED0A5F85C39E9
:10B91000A5F86839C5F86039C5F86439FCF750FFF7
:10B920000746B8B996F8C8042EF092FF30F0FEFA38
:10B93000CBE6314B9842B5D0CEE77C1E022360B2F5
:10B9400086F8D03430F08CFC00283FF4FEAEC6F808
:10B95000D40416E70127B8E60123D5F8780985F85D
:10B960007039B7213BF096FA6FE720224FF48073CD
:10B97000A5F85C29A5F8683951E74FF480621023D7
:10B98000A5F85C29A5F8683949E71C4BC5F85C396E
:10B990004FF4003140234FF000620127A5F86839C9
:10B9A000C5F86019C5F8642985F86A79FCF788FB41
:10B9B000074885F871793BF0BFF9114BC5F8583944
:10B9C00083E600BF30310020780F0020400F0020B8
:10B9D00098180020CC3E05081640E0001720C20051
:10B9E000003D05081940EF00EABF10FF17BA20001C
:10B9F0001870EF0021AAEF00186001000004000891
:10BA00002C3D05082DE9F041C54BC64EC64DC74C2F
:10BA10000822C3F88820336B82B043F001033363FC
:10BA200007464FF4C052284640F202338846694622
:10BA3000CDE900230AF036FA6B6AC4F8C08A23F411
:10BA400070436B626B6AC4F8C87A43F420436B623C
:10BA50006B6AB749C4F8C41A23F470236B626B6A2B
:10BA6000B448C4F8DC0443F420236B62736CB2491D
:10BA7000C4F8E01443F480437364736BAF48B04977
:10BA8000C4F8EC0443F0800302257363AD4F84F8DF
:10BA9000E454AD4EAD4DC4F830154FF0A043C4F89A
:10BAA000E834AB4AC4F8F87403F53463A1F5D071F7
:10BAB000C4F83455C4F8FC64C4F83835C4F800152B
:10BAC0000123DFF8BCC2C4F8F4C407F51077A5F56C
:10BAD000E465A6F5A066A1F58C61C4F83C75C4F8D0
:10BAE000F054C4F8A86584F8E73405F5A0755361EF
:10BAF00006F5B076C4F86C1584F8EE351946954B0A
:10BB0000954AC4F87455A7F5BC67A035C4F880659C
:10BB1000924EC4F87C75C4F8843507F5D45703F504
:10BB20006953C4F888554FF050250020DFF854E2DF
:10BB3000C4F8AC25ACF5687C02F5A042C4F8B07539
:10BB4000C4F8B46507F5A04706F5A046C4F8B835B3
:10BB5000C4F8BC55A3F5485304F2DC45C4F8C0252D
:10BB6000C4F8C865C4F8E835C4F870E5C4F878C509
:10BB70000246C4F8C4752B4684F8F005402683F8C5
:10BB80001C21A3F822210132042AC3E9496083F869
:10BB90001D1183F81F01C3F8300103F12803EED112
:10BBA000002211462B46402083F87423A3F87A2301
:10BBB0000132042AC3E9DF0183F8751383F8771390
:10BBC000C3F8881303F12803EED14FF0A043644873
:10BBD0009A6822F001029A60DA6842F04002DA6064
:10BBE00009F01EFA94F8E5340022212161F317428E
:10BBF0000BB142F4801294F8DF14D4F8E834012930
:10BC00009A6300F0E480DA68D4F8E865D4F8EC04CC
:10BC1000C2F3076121F0600141F0400161F31F624E
:10BC20000021DA603160026861F3CC22026094F88E
:10BC3000E724012A00F0B88010214A4809F042FDAB
:10BC4000484809F025FDD4F8EC0494F8DD340022CE
:10BC50004FF0FF31026142618161C26153B305F16E
:10BC60001407414E114607EB83074FEA830C4FF050
:10BC7000FF0E56F8042F1368002BACBF00234FF0C3
:10BC80009043B74213601161C2F808E0F1D105F1A9
:10BC90005003364963440027FF2651F8042F1568E6
:10BCA000002DACBF00254FF09045994215601761FB
:10BCB0009660F2D1036994F8DF1443F4807301298C
:10BCC000036161D0D4F8E824294800239361002956
:10BCD0004FF0FF336FF0804151615360516114BFE9
:10BCE00000231023906143F470139069D4F8C41AB0
:10BCF00043F4605343F00803034393619368096876
:10BD000043F00103936088471A4B1B4ADA60684688
:10BD10001A4B0093FEF710F902B0BDE8F08100BFA6
:10BD200000E100E000380240000002403031002015
:10BD3000D00300200804010040004001000800502A
:10BD4000000B00502009005040090050200B00500B
:10BD5000003C0140C0050050001000500030005071
:10BD6000183600200C360020203600205C360020DB
:10BD70000008008000ED00E00005FA054302000124
:10BD80000009005020050050D4F8E824144B036348
:10BD90006FF08041134D00234FF0FF3093615161EC
:10BDA0005060516195619EE701680F4A0F4E41F066
:10BDB00003010160802159629E62C3F80421E022E0
:10BDC000C3F80821C0F24002C3F80C2134E79A6896
:10BDD00022F03E0141F02A0161F307029A6012E766
:10BDE0000301810000080080A000400080002000C6
:10BDF00010B51A4C94F8D20AC0B9194B83F8B100A7
:10BE0000C3F8B40094F8D53A012B05D0022B21D009
:10BE1000D4F8D83A1BB910BD124BC4F8D83A12491D
:10BE20005B68BDE81040A1F10C0018472EF010FD32
:10BE300094F8D42A0A49003A18BF012281F8B120A7
:10BE4000C1F8B4000028DDD01F22C28020212FF0CD
:10BE5000F9FBD7E7054BC4F8D83AE0E730310020CA
:10BE6000400F0020100400200C3C0020EC030020B8
:10BE700099B10A6B824216D9154BD3F81C2B91420B
:10BE800021D34C3991421ED30B6B9842F9D38B6B63
:10BE90009842F6D80B46184670470D4BD3F81C1B3A
:10BEA0000A6B904212D30B680BB9F4E70A6B90420D
:10BEB0000B4602D38A6B9042EDD951F84C3F002BD0
:10BEC000F4D1184670470023184670470A46D8E751
:10BED000303100202DE9F047CC0143D10346224AFE
:10BEE00043F8082B4FF0FF324260022418467E26AA
:10BEF000DFF87880D8F8209B2644013E051D49468E
:10BF00006FF070474FF0010A08E0A3421CD0631C99
:10BF100045F8043C321B1C460435CAB10B6BA342E6
:10BF200002D88B6BA34204D22046FFF7A1FF014643
:10BF300090B10A794B6B002AE7D1A34204D0E6D234
:10BF400045F8042C631CE5E745F8047C631CE1E735
:10BF5000C8F8201BBDE8F08745F804AC321B631C11
:10BF60004946D8E78026C3E7F8FFFF0F30310020AD
:10BF700070B4447941BB03684FF400524FF400762B
:10BF8000202502213CBB1A8C22F001021204120C63
:10BF90001A841A8B188C22F0F30280B2120420F05B
:10BFA0000A00120C014342F0010241F001011A8320
:10BFB00019841A8B22F00C021204120C1A831A8BA9
:10BFC00092B270BC1A837047002203681646154669
:10BFD0001146002CD7D0042C21D0082C38D0198C35
:10BFE00021F480510904090C19849C8B1D8C45F6A1
:10BFF000FF7040F6FF4128402140024342F4805246
:10C0000041F4807199831A849A8B22F4406212045D
:10C01000120C9A839A8B92B270BC9A8370471A8CD6
:10C0200022F010021204120C1A84188B198C89B297
:10C0300040F6FF4221F0A00102400D4342F480721D
:10C0400045F010051A831D841A8B22F44062B3E771
:10C050001A8C22F480721204120C1A84998B1A8C96
:10C0600021F0F30192B2090422F42062090C324358
:10C0700042F4807241F0010199831A849A8B22F074
:10C080000C02C4E738B50E4D0446006809F00EFEF8
:10C09000D5F89020204652084FF6FF7127F07CFF1C
:10C0A00020460021FFF764FF064BC5F8FC3805F673
:10C0B000FC0120460022BDE8384027F08DBE00BFBD
:10C0C00038200020DD9D01082DE9F84FDFF84CA154
:10C0D0009FED4B4ADFED4B4ADFED4B3A0AF110057D
:10C0E000A8460AF19004524606E004F18006424553
:10C0F000344605F1020561D012F8013B002BF4D063
:10C10000DFF81C9199F8C0129942EED32988237068
:10C11000002963D04CF25033994251D807EE901A5F
:10C12000F8EE677A2B8C67EE847A092BC4ED017ADE
:10C130005DD942F210718B425FD807EE903AF8EE6B
:10C14000677AB5F8403067EEA47A132BC4ED047A11
:10C150004AD9B3F57A7F4DD807EE903AF8EE677A70
:10C16000B5F86030DFF8BCB0C4ED027A632BDBF8C1
:10C170006C1E36D907EE901AF8EE676A07EE903A11
:10C1800083EEA67AF8EE677AB4EEE77AF1EE10FA6B
:10C1900098BFF0EE477AC4ED037A04F1140704F176
:10C1A00080063846D4ED040A94ED020A2437FEF7DF
:10C1B00023FDB74207D0DBF86C1EF2E7BDE8F88F2D
:10C1C000DFED127AAEE799F8C2126FEA0A03013185
:10C1D000134489F8C21289F8C13288E7F7EE007A71
:10C1E000A0E7DFED0B7AD6E7F3EE047AB8E7F2EEDC
:10C1F000047AA6E7DFED077AB2E7DFED077AA0E77A
:10C2000090C2753D0AD7233C00BADB480050434733
:10C210000000C84200007A4400401C46583C002000
:10C2200028420020382000202DE9F04F2DED028B10
:10C23000504F9FED518ADFF850B185B03C1D4FF053
:10C2400001085FFA88FA17F8010B5246512128F0CD
:10C2500009F94FF0010900264FF400530546002864
:10C260007AD017F8010C256384ED018AE3602EF083
:10C27000EFFA422128B14FF0510C80F807A080F866
:10C2800006C06A7A2FF00CF80021DBF890202868AD
:10C2900027F042FF286827F08DFF4FF48073024695
:10C2A00001A88DF80420ADF806308DF80590FDF753
:10C2B00043FE324B324A6262C4E90A3604F1280274
