:020000040800F2
:10000000F0FF012045AE040801CF0008FD8503087C
:10001000BDAE0408BDAE0408BDAE0408000000007B
:10002000000000000000000000000000FDCE0008FD
:10003000F9CE000800000000F5CE0008C94603080C
:10004000BDAE0408BDAE0408BDAE0408BDAE0408D4
:10005000BDAE0408BDAE040821AF03084DB00308CF
:1000600011B00308D5AF030899AF030899930408AA
:100070008993040879930408699304085593040844
:10008000419304082D930408BDAE0408000000004D
:100090000000000000000000000000005DAF030849
:1000A00065310308B131030855310308D531030820
:1000B000A53103089531030885310308ED9D040837
:1000C000F59D0408E19D0408E99D0408BDAE0408FF
:1000D000BDAE0408E94703082D47030800000000EF
:1000E000E5AE0308BDAE0408890401080000000065
:1000F0000000000000000000000000001993040848
:1001000000000000BDAE040875310308BDAE040850
:1001100000000000000000000000000000000000DF
:1001200005930408F1920408DD920408C9920408BA
:10013000B59204080000000000000000000000006C
:10014000000000000000000000000000A1E700081F
:10015000A19204088D92040879920408BDAE0408A7
:10016000D59D0408DD9D040800000000000000008B
:10017000000000000000000000000000000000007F
:1001800000000000BDAE04080000000000000000F8
:08019000BDAE0408BDAE040879
:08019800E4A9040001000000CD
:1001A0000B3001001A000000E42C0020B05B00209E
:1001B00000000000000800081F30010024000000BB
:1001C000A82C0020CC5B0020000000001C080008C8
:1001D000050201000A000000E02A0020F05B002078
:1001E00000000000400800081302010004000000A5
:1001F000F41D0020FC5B0020000000004A080008FD
:100200000D10010040000000244E0020005C002082
:1002100000000000FDEE02080902010001000000DC
:10022000DC580020405C0020000000004E08000860
:100230002C00050014000000E84D0020445C002064
:100240000000000089A70108F90101000400000076
:10025000C44D0020585C002000000000B51D0308BC
:10026000FD01010024000000A04D00205C5C002086
:10027000000000000B1D0308061001001A0000001A
:10028000342C0020805C002000000000BD500408D9
:10029000FB01010001000000304D00209C5C0020AB
:1002A000000000006DC10308FC010100090000000E
:1002B000FC4B0020A05C0020000000007DC1030872
:1002C000F701010006000000F04B0020AC5C0020AC
:1002D0000000000050080008160215003F00000052
:1002E000E44A0020B45C00200000000005C30308BD
:1002F000340001000A000000184A0020F45C0020CD
:1003000000000000B92C02081102010008000000E2
:10031000F0490020005D00200000000056080008A1
:100320001212010004000000E8490020085D0020CE
:10033000000000005E0800081820010030000000E6
:10034000342D00200C5D0020000000004D500408FA
:100350002042010090000000344100203C5D00205C
:10036000000000003D2302080A8001002600000072
:10037000C4390020CC5D002000000000C1940108B9
:100380001220010011000000BC330020F45D0020A9
:100390000000000062080008000201000B000000DD
:1003A000F8300020085E002000000000000000007F
:1003B0000202010003000000C8220020145E002099
:1003C00000000000000000000C020100040000001A
:1003D00078220020185E002000000000BDBC030849
:1003E000FE01010014000000485000201C5E0020A7
:1003F0000000000085BB03080101010004000000AB
:10040000A0710020BC780020000000000000000067
:10041000000101000400000098710020C078002055
:100420000000000074080008020101000300000041
:1004300094710020C478002000000000B1C10208BF
:10044000010201000B000000AC710020C878002000
:1004500000000000CDBB03081B1001000C000000D1
:1004600078610020D478002000000000453C01089D
:1004700021020100E0000000DC5F0020E0780020A5
:10048000000000007D22010823120100100000007E
:100490001C730020C07900200000000078080008CC
:1004A000371001002E00000080750020D079002058
:1004B00000000000880800080E0201000200000091
:1004C00018730020007A002000000000B608000821
:1004D0002F1001002200000098780020047A0020EC
:1004E00000000000B80800081E000100090000001C
:1004F00064720020287A002000000000DA0800085A
:10050000051001000600000054720020347A00201B
:1005100000000000E4080008F58101006800000008
:100520006C5F00203C7A002000000000C52F01080D
:10053000FD07010072000000BA5E0020A47A0020CE
:1005400000000000050B0108261001000E0000004D
:10055000287B0020187B002000000000750901089E
:100560002B00120024000000248B0020008B0020B0
:100570000000000059A7010829201400780000009D
:1005800070890020488B002000000000000000005F
:10059000F62101000C000000E0860020C08B002046
:1005A00000000000EC0800081C0202001C00000013
:1005B00068870020108C0020000000003DBD03086B
:1005C000012001000C000000D47D00202C8C0020B4
:1005D00000000000F80800080C200600A800000039
:1005E000DC7C0020388C00200000000085C102085F
:1005F0000EF003005C010000607B0020E08C002016
:1006000000000000CD2302081300010004000000D8
:10061000948200203C8E00200000000004090008A5
:10062000232001001000000050820020408E002096
:1006300000000000C9950108101001000200000030
:10064000EC9C0020F0A10020000000000809000838
:100650001900010005000000B09A0020F4A100205C
:10066000000000000A0900082D0201003E00000001
:10067000289A0020FCA1002000000000F9230208B5
:100680002B02200080010000E49600203CA2002004
:100690000000000000000000F8210100040000003C
:1006A000DC960020BCA30020000000001009000818
:1006B0002C020100140000008C960020C0A3002032
:1006C00000000000140900082A0008006000000073
:1006D00008950020D4A30020000000001523020884
:1006E000020001000C0000009CA5002060A7002073
:1006F000000000000000000025201E002C0100006A
:10070000A8A500206CA70020000000000000000049
:100710002902010040000000F4A4002098A8002055
:10072000000000002809000828020400040000005E
:1007300034B100205CB40020000000000DBD0308AF
:10074000270204000400000030B1002060B4002043
:100750000000000001BD03081F0208001000000097
:1007600074AE002064B4002000000000ADBB03089C
:100770001A0201003C0000001CAA002074B40020F2
:100780000000000015BF0308381001000100000040
:1007900014A90020B0B4002000000000680900087F
:1007A000060203000C000000D4B40020C8B40020EE
:1007B00000000000FDBD0308081203000F00000048
:1007C000F0B40020E0B4002000000000D5BC030815
:1007D0001610010004000000B8B4002000B500208D
:1007E000000000006A0900081D0202000600000067
:1007F00088CC002090CC0020000000000000000009
:10080000AE014A015E012C016401010000000100FB
:100810000A019A01001E0A0000000000000000000A
:1008200000010000000500000102030000000000BC
:100830000000000000000000000000000080070031
:100840000000000000000F000B7C0000013F0000D2
:100850002201000000000000000001010101FFFF73
:10086000FFFF000000010001054D4B34310000087E
:1008700000020000900100000000000000000000E5
:10088000000000000000000020003200C800D00777
:1008900096001400320028004C0440060005500069
:1008A00014000F00080064000100000005000A00A9
:1008B0000000F401960000000000000000000000AD
:1008C0000000000000000000000000000000000028
:1008D0000000000000000000000000050100000012
:1008E00000000000200003010000000000000000E4
:1008F0000100000002020000E8036400040A000195
:1009000014001E0048040400000500002801000037
:100910000200E8030000D0070A00E803000000001E
:1009200000000000000000000000000000000000C7
:1009300000000000000000000000000000000000B7
:1009400000000000000000000000000000000000A7
:100950000000000000000000000000000000000097
:0E09600000000000000000000000C4090000BC
:10096E000403090412010002EF020140830456320F
:10097E000002010203010000120100020202004007
:10098E0083044057000201020301000009026400C3
:10099E00030100C032090400000103000000092118
:1009AE00110100012226000705830308000A080B27
:1009BE000102020201000904010001020201000508
:1009CE00240010010524010002042402020524065D
:1009DE000102070582030800FF09040200020A0053
:1009EE0000000705010240000007058102400000DB
:1009FE0009024300020100C0320904000001020294
:100A0E000100052400100105240100010424020246
:100A1E000524060001070582030800FF09040100F2
:100A2E00020A0000000705010240000007058102CE
:100A3E0040000000FF000000080001007D000000E3
:100A4E00B9820008B5820008B1820008A5820008AC
:100A5E00A1820008AD820008A98200082D8300083B
:100A6E0021830008F98200080D830008E582000842
:100A7E00D1820008BD820008010100000000803F05
:100A8E0005010905A101A10005010930093109324D
:100A9E00093309350934094009381581257F750850
:100AAE0095088102C0C0000009022200010100E089
:100ABE0032090400000103010200092111010001A5
:100ACE002226000705830308000A00000000040127
:100ADE0000000000000000021000000007000000EF
:100AEE0000000000010203040102030406070809C6
:100AFE00ADD0000869D70008E1D20008D583000800
:100B0E00B5890008E583000801840008AD8300085C
:100B1E009D8300080000000000000000A85B00207C
:100B2E0000000000805B00200000000001000000BB
:100B3E0000000100E00101007EFF0000FFFFFFFF4B
:100B4E0008000000204405089C4305080000000032
:100B5E001DC20208A0860100040000000000000073
:100B6E000000000000000000000000000000000077
:100B7E000000000000000000000000000000000067
:100B8E00000000002044050828440508000000006D
:100B9E00951B0308E803000004000000000000009D
:100BAE000000000000000000000000000000000037
:100BBE000000000000000000000000000000000027
:100BCE000000000030440508000000000000000096
:100BDE00754402087D000000FF00000000000000C8
:100BEE0000000000000000000000000000000000F7
:100BFE0000000000000000000000000000000000E7
:100C0E00000000005CB205080000000000000000BB
:100C1E00952D02087D000000FF000000000000007E
:100C2E0000000000000000000000000000000000B6
:100C3E0000000000000000000000000000000000A6
:100C4E0000000000BC51050800000000000000007C
:100C5E00F98302087D000000FF0000000000000084
:100C6E000000000000000000000000000000000076
:100C7E000000000000000000000000000000000066
:100C8E0000000000384405080000000000000000CD
:100C9E0021260308E8030000030000000000000006
:100CAE000000000000000000000000000000000036
:100CBE000000000000000000000000000000000026
:100CCE00000000003C440508000000000000000089
:100CDE00417202081027000003000000000000000F
:100CEE0000000000000000000000000000000000F6
:100CFE0000000000000000000000000000000000E6
:100D0E0000000000C4AE05080000000069A3010841
:100D1E00A18603085F7600000500000000000000B9
:100D2E0000000000000000000000000000000000B5
:100D3E0000000000000000000000000000000000A5
:100D4E000000000028B205080000000000000000AE
:100D5E00C1B00308102700000100000000000000D1
:100D6E000000000000000000000000000000000075
:100D7E000000000000000000000000000000000065
:100D8E0000000000484405080000000000000000BC
:100D9E00991B0308E8030000050000000000000096
:100DAE000000000000000000000000000000000035
:100DBE000000000000000000000000000000000025
:100DCE000000000054440508000000000000000070
:100DDE0069C40208204E000003000000000000005D
:100DEE0000000000000000000000000000000000F5
:100DFE0000000000000000000000000000000000E5
:100E0E00000000006444050800000000000000001F
:100E1E0059C20208204E000003000000000000002E
:100E2E0000000000000000000000000000000000B4
:100E3E0000000000000000000000000000000000A4
:100E4E0000000000744405080000000000000000CF
:100E5E00C51D0308400D0300030000000000000044
:100E6E000000000000000000000000000000000074
:100E7E000000000000000000000000000000000064
:100E8E00000000008444050800000000000000007F
:100E9E0035F00208102700000100000000000000DD
:100EAE000000000000000000000000000000000034
:100EBE000000000000000000000000000000000024
:100ECE0000000000C84305080000000000000000FC
:100EDE007548010810270000030000000000000004
:100EEE0000000000000000000000000000000000F4
:100EFE0000000000000000000000000000000000E4
:100F0E00000000008C4405080000000000000000F6
:100F1E00A124030850C300000100000000000000DF
:100F2E0000000000000000000000000000000000B3
:100F3E0000000000000000000000000000000000A3
:100F4E0000000000944405080000000000000000AE
:100F5E0085200308A86100000100000000000000C9
:100F6E000000000000000000000000000000000073
:100F7E000000000000000000000000000000000063
:100F8E0000000000A0440508000000000000000062
:100F9E00414C0308A00F00000100000000000000FB
:100FAE000000000000000000000000000000000033
:100FBE000000000000000000000000000000000023
:100FCE0000000000AC440508000000000000000016
:100FDE0089890108102700000100000000000000B0
:100FEE0000000000000000000000000000000000F3
:100FFE0000000000000000000000000000000000E3
:10100E0000000000B84405080000000000000000C9
:10101E004D7401081A41000001000000000000009C
:10102E0000000000000000000000000000000000B2
:10103E0000000000000000000000000000000000A2
:10104E0000000000BC440508000000000000000085
:10105E004D90000810270000010000000000000065
:10106E000000000000000000000000000000000072
:10107E000000000000000000000000000000000062
:10108E0000000000B0430508000000000000000052
:10109E005DD0010850C300000100000000000000F8
:1010AE000000000000000000000000000000000032
:1010BE000000000000000000000000000000000022
:1010CE0000000000C84405080000000000000000F9
:1010DE0071CF020840420F00000000000000000027
:1010EE0000000000000000000000000000000000F2
:1010FE0000000000000000000000000000000000E2
:10110E0000000000D44405080000000000000000AC
:10111E0071C8020850C3000000000000000000006B
:10112E0000000000000000000000000000000000B1
:10113E0000000000000000000000000000000000A1
:10114E000000000001FF00007C7F0020D07F002007
:10115E00010000000000000000000000B5A9010819
:10116E001C830020000000000000000000000000B2
:10117E00ECFC04080000000000000000000000006D
:10118E00A4FD0408000000000000000000000000A4
:10119E0050FD0408D601FF00FFFFFFFFD9AE010886
:1011AE0000000000000000007CFC040801000000AC
:1011BE00FA00000001000000010000000101000023
:1011CE000001010100000000CE7D00200000F401AE
:1011DE0001000000CC7D00200000F40101000000A1
:1011EE00CA7D00200000F40101000000C87D00202F
:1011FE000000F40101000000C67D00200000F40193
:10120E0001000000C47D00200000F4010100000078
:10121E00C27D00200000F40101000000619301086E
:10122E002593010800000000B0EA0408B27D0020FA
:10123E0005320100C07D00206400F40101000000B1
:10124E00BE7D00206400C40901000000B07D0020B6
:10125E00E803D00701000000AE7D0020E803D007B0
:10126E0001000000AC7D0020E803D0070100000063
:10127E00AA7D00201E00B80B01000000B87D0020E2
:10128E0005000F0001000000BA7D002003000A00D7
:10129E0001000000A87D00201E00F40101000000E6
:1012AE00BC7D0020020000003CEB0408A67D00205F
:1012BE001400640001000000B47D00203200E80339
:1012CE0001000000A47D00200000C8000100000005
:1012DE00444905084C490508202D00200100C40989
:1012EE00000000001E2D00200100C40900000000B7
:1012FE001C2D00200100C409000000001A2D002042
:10130E000100C40900000000142D00200100C409D2
:10131E0000000000162D00200100C409000000008E
:10132E00122D00200100C40900000000102D002025
:10133E000100C40900000000CB71002000C80100AC
:10134E00CA71002000C80100C87100200000FFFF14
:10135E000A000000C67100200100C8000100000054
:10136E00C47100203200307532000000C2710020BE
:10137E0005820500C071002005002C01050000004B
:10138E00BF710020055A0500BC71002000FF01004E
:10139E00BE71002002000000080B0020BA71002070
:1013AE0003000000D0E30408BB71002000FF010021
:1013BE00BD71002002000000080B0020B971002052
:1013CE0003000000D0E30408B5920108459201081D
:1013DE000000000048EB0408E47D0020EE02CA087D
:1013EE0001000000E27D002000C801006400000042
:1013FE00E17D002000C8010064000000E07D0020B7
:10140E000200000054EC0408A67100200000803E8B
:10141E0005000000A471002080C1803E0500000080
:10142E009E7100200083007D050000009C7100204D
:10143E0080C1803E050000009771002000FF010072
:10144E00927100206400F4010100000091710020EF
:10145E000400000060EC04089071002002000000FF
:10146E0074EC04084F7B00200D00000080EC040893
:10147E004C7B0020006401004A7B002032001027C4
:10148E000A000000487B00200D00000080EC0408DC
:10149E00477B00200D00000080EC0408467B0020F6
:1014AE0002000000B8EC0408EA7D002043000000B2
:1014BE00C4EC0408E87D00200100FF7F010000005D
:1014CE00E77D002002000000D4ED0408517B0020CF
:1014DE0003000000E4ED0408507B00200300000030
:1014EE00E4ED0408CC7C0020000A0100CA7C002038
:1014FE000000E80301000000C87C00200000E803A3
:10150E0001000000C67C00200000E803010000007E
:10151E00C47C00200000E80301000000BC7C002019
:10152E000000E80301000000C27C00200000E80378
:10153E0001000000C07C00200000E8030100000054
:10154E00BE7C002000140100DA7C002002000000A6
:10155E00F4ED0408D87C00200000F4010100000026
:10156E00D67C00200000F40101000000D47C002095
:10157E000000F40101000000D27C00200000F40104
:10158E0001000000D07C00200000A00F0100000030
:10159E00CE7C00200000A00F01000000917D0020F5
:1015AE0019640100907D00200200000000EE040886
:1015BE008C7D0020006401000A0000008B7D00205D
:1015CE00006401000A0000008A7D00200064010012
:1015DE000A0000008F7D002000FF01000A000000BD
:1015EE008E7D002000FF01000A0000008D7D00208E
:1015FE0000FF01000A000000897D002001FF0100AC
:10160E000A000000887D002001FF01000A00000092
:10161E00877D002001FF01000A0000005A7B002098
:10162E000000F40101000000587B00200000A00F14
:10163E0001000000567B00200000A00F01000000FA
:10164E00547B00200000A00F01000000527B002000
:10165E000000A00F010000009F8200200132010057
:10166E009E820020010000000CEE04089D820020E6
:10167E000400000014EE04089C82002000C8010043
:10168E009B82002000C801009A82002000C8010041
:10169E009982002000320100A1820020004B01003F
:1016AE00A08200200400000028EE0408988200208A
:1016BE00006401000A000000B08200200000D00784
:1016CE0001000000AA82002000C80100A9820020AB
:1016DE0000C80100A882002000C80100AE820020D0
:1016EE000000D00701000000A782002000C8010002
:1016FE00A682002000C80100A582002000C80100BB
:10170E00AC8200200000D00701000000A48200205F
:10171E0000C80100A382002000C80100A2820020A0
:10172E0000C801000D900108F58F010800000000AF
:10173E003CEE04083E7B002000C801003C7B0020EC
:10174E00E803D007010000000000000000000000C8
:10175E00F1A90108D8EE04084D4154454B463431E9
:10176E0031000000B871002000030100B7710020A5
:10177E0000030100811901082D1901080000000065
:10178E002CEF0408E91801089D180108000000005C
:10179E00C8EF0408D51901089D7B01080000000060
:1017AE0048F00408A8710020010301000994010803
:1017BE00DD9301080000000084F3040821180108DD
:1017CE00D517010800000000F4F304081D9001086D
:1017DE0015AB01080000000090F40408B9AA010836
:1017EE00359401080000000038F504085D900108EA
:1017FE000000000000000000B8F504081591010873
:10180E00C1900108000000001CF60408A99101080F
:10181E006D91010800000000C4F60408A51C020822
:10182E00E59101080000000050F70408A37D002098
:10183E0001060100959001086D900108000000005E
:10184E0014F80408291C0208C5AB010800000000AA
:10185E0084F80408F51C02083DAC010800000000E5
:10186E003CF90408A27D002001030100D58F010878
:10187E00B58F01080000000010FA04084D1D020883
:10188E00000000000000000064FA04086D18010852
:10189E000D73010800000000E4FA040800000000C7
:1018AE00000000000000000070FB04081D920108FB
:1018BE00B5AC010800000000D4FB04080000803F16
:1018CE000000000000000000000000000000803F4B
:1018DE0000000000000000000000000000000000FA
:1018EE0000000000000000000000000000000000EA
:1018FE0000000000010000000000FA430000FA435F
:10190E0045F2020800000000000000000000000088
:10191E0000000000E8A80020080000000000000001
:10192E00D8A80020080000002000000081890008CF
:10193E0061880008C1D200080000000099830008E9
:10194E0079D00008D9870008EDCF0008000000000C
:10195E000000000055830008F18800082188000867
:10196E000DD20008000000006D830008F1CF0008C2
:10197E00AD87000849CF00080000000000000000FD
:10198E0061830008FFFFFFFF685E0C00020000008D
:10199E0000600240106002400000000000000000E5
:1019AE00000B00000000000000000000000000001E
:1019BE0000600240286002400100000000000000AC
:1019CE00060C0000000000000000000000000000F7
:1019DE000060024040600240020000000000000073
:1019EE00100D0000000000000000000000000000CC
:1019FE00006002405860024003000000000000003A
:101A0E00160E0000000000000000000000000000A4
:101A1E000060024070600240040000000000000000
:101A2E00200F000000000000000000000000000079
:101A3E0000600240886002400500000000000000C7
:101A4E002610000000000000000000000000000052
:101A5E0000600240A060024006000000000000008E
:101A6E003011000000000000000000000000000027
:101A7E0000600240B8600240070000000000000055
:101A8E00362F0000000000000000000000000000E3
:101A9E0000640240106402400000000000000000DC
:101AAE0000380000000000000000000000000000F0
:101ABE0000640240286402400100000000000000A3
:101ACE0006390000000000000000000000000000C9
:101ADE00006402404064024002000000000000006A
:101AEE00103A00000000000000000000000000009E
:101AFE000064024058640240030000000000000031
:101B0E00163B000000000000000000000000000076
:101B1E0000640240706402400400000000000000F7
:101B2E00203C00000000000000000000000000004B
:101B3E0000640240886402400500000000000000BE
:101B4E00264400000000000000000000000000001D
:101B5E0000640240A0640240060000000000000085
:101B6E0030450000000000000000000000000000F2
:101B7E0000640240B864024007000000000000004C
:101B8E0036460000000000000000000000000000CB
:101B9E0001000000A00F0000B80B00000102FFFFC3
:101BAE0001000000FFFF0000B8AE050800000802AB
:101BBE000503030000000000C0AE05080100080286
:101BCE0005040300000000008C6305080200FE01FE
:101BDE000110030000000000A04C050803001402D1
:101BEE000003000000000000C8AE050804001F023C
:101BFE000200080000000000D0AE050805001F021C
:101C0E000201080000000000FFFFFFFFFF010000BF
:101C1E00F4010000FF0000000000000000000000C2
:101C2E0001020304060708090100000068140020E1
:101C3E000000000000000000000000000000000096
:101C4E000000000000000000000000000000000086
:101C5E000000000000000000000000000000000076
:101C6E000000000000000000000000000000000066
:101C7E000000000000000000000000000000000056
:101C8E000000000000000000000000000000000046
:082800000000000000000000D0
:108000002DE9F04700230F6801264FF0030C02E032
:108010000133102B41D006FA03F232EA0704F7D1FC
:10802000D0F800E05C000CFA04F52EEA050EC0F86A
:1080300000E091F80490D0F800A009FA04FE09F1DC
:10804000FF394EEA0A0EB9F1010FA846C0F800E068
:108050006FEA050515D8D0F808E005EA0E05856039
:108060004D79D0F808E0A54045EA0E0585604568E1
:1080700025EA020242608A7945689A4092B22A4310
:108080004260C26822EA0802C260CA79C568A2409A
:1080900001332A43102BC260BDD1BDE8F08700BF79
:1080A000037830B403B30246C0F10105531912F846
:1080B000014FDBB2002CF9D101335B00DAB20C4C7A
:1080C0000B80032322706370017859B102230025CD
:1080D0005A1CD2B2E154A55410F8011F0233DBB28E
:1080E0000029F5D130BC704702221346E7E700BFF4
:1080F000C8140020084AD2E9403199420AD0D11868
:10810000013391F808110170C3F30A03C2F800317A
:108110000120704700207047C8140020064AD2F89A
:108120000839D2F80C29934294BF4FF40060002024
:10813000013B9B1A18447047C8140020012380F8A3
:108140005130704707B501A8FFF7D4FF0028FAD0D7
:108150009DF8040003B05DF804FB044BD3E9400331
:10816000984288BF03F50063181A7047C8140020AE
:1081700001207047024BC3F81029C3F81419704747
:10818000C8140020024BC3F81829C3F81C19704703
:10819000C81400207047704730B4134DD5E9402310
:1081A0009A4286BF03F50064A21A9A1A0A44B2F5ED
:1081B000006F13D8A9B101444A1E013810F8014FCD
:1081C000E918824203F1010381F80841C3F30A036D
:1081D000F4D1C5F80431002030BC7047022030BC17
:1081E00070470846F8E700BFC8140020212838B5BA
:1081F0000C4605D022282ED0202813D0002038BDD0
:108200000029FBD0072AF9D11A4BD3F8200993F89B
:10821000241993F8252993F8263920602171627179
:10822000A371EBE70029E9D0072AE7D1114DD5F872
:1082300014391BB10968D5F81009984720682179CD
:108240006279A379C5F8200985F8241985F82529CC
:1082500085F82639D2E70029D0D0022ACED1054AA6
:10826000D2F81C39002BC9D00988D2F818099847D0
:10827000C4E700BFC8140020024B0020C3F828093F
:10828000704700BFC8140020044B00200522C3F82B
:108290002829C3F81C09C3F814097047C814002022
:1082A000704700BF704700BF704700BF704700BFF6
:1082B000704700BF704700BF704700BF08B5024855
:1082C000FFF7EEFE014808BD4C3F0508C81400202A
:1082D00008B50248FFF7E4FE014808BD5C3F050809
:1082E000C814002008B50248FFF7DAFE014808BDAF
:1082F000683F0508C814002008B50248FFF7D0FE03
:10830000014808BD743F0508C814002008B502489C
:10831000FFF7C6FE014808BD843F0508C8140020C9
:10832000042301480B8070479801002010B4074ACD
:10833000074B92F82C09122403F114020C80012837
:108340000CBF184610465DF8044B7047C814002057
:108350009C010020642301480B807047C401002069
:10836000432301480B8070472802002010B5084CB9
:10837000D4F8D400FF2809D00649D1F8302901F6F5
:108380003411FFF733FFFF23C4F8D430002010BDB1
:1083900098010020C8140020E8E700BF08B5D0F815
:1083A000E4355B6A9847002008BD00BF08B5D0F8E7
:1083B000E4351B6A9847002008BD00BFD0F8E435BB
:1083C00010B504461B689847D4F8E8359B68984771
:1083D000002010BD08B5D0F8E435DB6903B198473B
:1083E000002008BD08B5042290F81211D0F8E83535
:1083F00080F8131180F81221DB689847002008BD2F
:1084000010B5D0F8E83504461B699847032384F873
:108410001231002010BD00BF0B0617D401EB810301
:1084200000EBC30310B400EB81000124002283F8A9
:10843000764383F8741383F87523426D5DF8044B1B
:10844000136843F4001300201360704701F07F01AC
:1084500001EB810300EBC303012200EB810083F8F1
:108460001C1183F81E2183F81D2182691368002BDB
:1084700001DA43F0804343F4001313600020704797
:1084800082B00023016801930B6901930E4B03E056
:108490000A690192013B13D0019A002AF8DA019A85
:1084A000094B42F001020192019A0A610A690192A4
:1084B00003E00A690192013B02D0019AD207F8D485
:1084C000002002B0704700BF400D0300436D064A14
:1084D0001A61C278012A06D100F2CC5058614FF0DF
:1084E000802219681A6070471800086010B5802152
:1084F0000446FFF791FF20460021FFF78DFF20463D
:10850000BDE81040E2E700BF70B44B78012B26D0E5
:108510000B784A6900EB83035C6D25682369D2B14F
:108520008A684A6102F07F0223F4002323F07F036C
:1085300042F4002213432361C378012B04BF0B696B
:108540006361C5F3076363F07B0363F31F65256015
:10855000002070BC70478A6802F07F02E4E78269FD
:108560004C691568136944B38E68B4428CBF06F039
:108570007F0404F07F0423F4002323F07F0344F4FA
:10858000002443EA040388BF4E611361C378012BC2
:108590001DD0C5F3076464F07B0464F31F651560A8
:1085A000002BD5D14B69002BD2D002690878516BD2
:1085B000012383400B435363CAE723F4002323F0D2
:1085C0007F0343F400231361C378012BE1D10B78BF
:1085D0000C6900EB8300C5F30763816963F07B03DB
:1085E00063F31F654C610020156070BC704700BFCD
:1085F0002DE9F0434B78012B30D00B784C6900EB20
:1086000083035E6D356837691CB38B681C44013C7D
:10861000B4FBF3F4C4F3090203FB02F3C3F3120344
:108620004B61144643EAC44363F31C073761C378C4
:10863000012B04BF0B697361CB78012B44D0C5F3C8
:10864000076363F07B0363F31F6535600020BDE8BB
:10865000F0838A680124C2F31203E3E791F80080F3
:108660004E6900EB880EDEF818C0DCF80050DCF82C
:10867000107076B3D1F80890384A06EB0904013C33
:10868000B4FBF9F402EAC444C6F312022243CC78E4
:1086900007F060473A43012C174649D0CCF8102028
:1086A000C278012A55D00269516B03FA08F30B43D3
:1086B0005363C5F3076363F07B0363F31F65CCF873
:1086C00000500020BDE8F0834B7973B345F00055AE
:1086D000B5E707F0604747F40027CC78CCF8107076
:1086E000C378012B2FD0012CE3D102699268D20507
:1086F00054BF45F0005545F08055C5F3076262F060
:108700007B0262F31F65CCF80050002B9ED1B0B203
:1087100003308010DEF8D04098D0CA6852F8041BAD
:10872000216001339842F9D190E745F0805586E702
:1087300064F35E77CCF81070C378012BD5D10A6949
:10874000CCF81420D1E70A69CCF81420012CB0D160
:10875000CBE70B69CCF81430ABE700BF0000F81F83
:1087600038B501EB810400EBC4040D46002184F808
:108770007453C4F88C1384F87513C4F88833C4F8A0
:108780008023C3782821012B01FB050108BFEDB22E
:1087900001F55D7108BFC4F884231DB9FFF7B4FE6D
:1087A000002038BDFFF724FF002038BD10B501EBD5
:1087B0008101084A00EBC1010446B1F88C13104650
:1087C000FFF7EAFC034A204640230121FFF7C8FFD8
:1087D000002010BD041E0020E8E700BF30B44C7834
:1087E0000022012C154612D0097800EB81040123E8
:1087F0008B40646D63F31F4501696FF3CF322260D4
:10880000CB6923EA0503002030BCCB6170470B78AD
:1088100000EB83019C4064F30F058C69ECE700BF1B
:1088200040F2011310B500F5A2710446A0F84431DE
:10883000FFF7D4FF0123A4F89C3304F567712046A9
:10884000FFF7CCFF4FF48173A4F86C3104F5B671D7
:108850002046FFF7C3FFFFF70FFD002010BD00BF4C
:1088600038B540F2031304460D46A0F8943100F5E4
:10887000CA71FFF7B3FF29462046FFF7D1FF00205A
:1088800038BD00BFF0B44B780A78012B4FF00004DC
:1088900000EB820524D0012393406D6D63F31F44E8
:1088A0002E68330415D48A6891F803C0CF880F4925
:1088B000C2F30A0242F0805343F400430CF0030277
:1088C00043EA824307F00F0243EA825331400B43ED
:1088D0002B600369DA691443DC610020F0BC704747
:1088E0009340AD6963F30F04DAE700BF007833EC1F
:1088F0002DE9F04140F20113044602254FF04008F3
:1089000001270026A0F84431C0F84C8180F8475177
:10891000A0F84A7180F8486100F5A271FFF7B2FF34
:1089200004F56771A4F89C73C4F8A48384F89F537A
:1089300084F8A0632046FFF7A5FF082203234FF425
:108940008171C4F87421A4F86C1184F86F3104F5B6
:10895000B671A4F872512046FFF794FF064B9D8331
:10896000FFF792FC054A434620463946FFF7F8FEDA
:108970003046BDE8F08100BF98010020041E0020B1
:1089800070B50323082240F2031604460D46C0F8D2
:108990009C2180F89731A0F89A31A0F8946100F5F5
:1089A000CA71FFF76FFF29462046FFF7A1FF00209D
:1089B00070BD00BF70B5002540260446A0F8745372
:1089C00080F87753C0F87C6300F55D71FFF75AFFBC
:1089D0004FF48073A4F81C3104F58E71C4F824613F
:1089E00084F81F51A4F822512046FFF74BFFD4F81A
:1089F000E835A078012284F812215B689847284660
:108A000070BD00BF82B000230193019A094B42F070
:108A100010020192C168019A0A610A69019203E099
:108A20000A690192013B02D0019AD206F8D40020D3
:108A300002B07047400D030082B000230193019AF9
:108A40000B4B42F020020192019A61F38A120192CB
:108A5000C168019A0A610A69019203E00A690192F8
:108A6000013B02D0019A9206F8D4002002B0704770
:108A7000400D03000E4BDA68D20310D4DA68D10639
:108A80000FD4DA68D20510D4DA6812F0E00F0AD1F8
:108A9000DB6813F0020F14BF082009207047012083
:108AA000704706207047072070470220704700BFBC
:108AB000003C0240024A536A23EA000050627047B9
:108AC00000380240074A92F87C3992F87D19013348
:108AD000DBB2994282F87C3904BF002382F87C39EA
:108AE000704700BFC81400200B4B93F87E1993F811
:108AF0007F2991420ED010B493F87E29D3F8804993
:108B0000511CD2B2C0B2C9B283F87E19A0545DF82C
:108B1000044B7047704700BFC8140020FD2870B593
:108B200022D0F02804D0EF2822D00224204670BDA5
:108B3000114D0320052641282E444FF0000405F175
:108B4000010580F080030DD0042B0BD9FFF7E6FF61
:108B50002044B542C4B2E9D015F8010B412880F099
:108B60008003F1D10420F3E7044D0B200426E2E753
:108B7000034D0C200626DEE770DF04086CDF0408D6
:108B800078DF04080E4BD3F88829B3F9840952071B
:108B900007D400EB8000400080B200F5C87080B2BE
:108BA0007047D3F8C439074A323382FB0312D8170F
:108BB000C0EBA20080B200F5C87080B2704700BF61
:108BC000C8140020676666660C4AD2F8E03930B4F3
:108BD0001C68D2F8D8595D6019810025611C1960A4
:108BE0009D812070D2F8E039D2F8D8191A685A60FD
:108BF0004FF6F67230BC19609A817047C814002095
:108C000000B583B00268084B8188CDF8012032227C
:108C1000D3F8E439ADF805108DF800206846984780
:108C200003B05DF804FB00BFC81400205E2810B537
:108C300011D05D2805D00D4BBDE81040D3F8E839C0
:108C400018470A4CD4F8E8399847D4F8E8393D2059
:108C5000BDE810401847054C5D20D4F8E839984726
:108C6000D4F8E8393E20BDE810401847C814002069
:108C700000285ED00368374A2DE9F04103F13F44F4
:108C800004F57E0402EB94220124127D02F01F05FC
:108C90005209032A04FA05F456D0042A4FD0022AB6
:108CA00048D08588B5FA85F0C0F11F00C0F3CC0626
:108CB00003EB860600F0070082000F24306A944020
:108CC00020EA04003062306A01FA02F20243002115
:108CD00032624FF0010E0A464FF0030C02270EFAE3
:108CE00002F838EA050002F101021CD118680CFAFA
:108CF00001F420EA04001860186807FA01F6064338
:108D00001E609E6826EA04069E609868986058680F
:108D100020EA0800586058685860D86820EA0400C3
:108D2000D860D868D860102A01F10201D7D1BDE817
:108D3000F0817047084A556C2C435464B1E7064AE9
:108D4000156B2C431463ACE7034A156C2C43146475
:108D5000A7E700BF6CDF040800380240F8B56F4C8D
:108D600000234FF4F0722021054604F51F6084F8BB
:108D7000EC3945F0AAF804F53D604FF4F07220217B
:108D800045F0A3F894F8B10D10B194F8B22D0AB9DA
:108D90000020F8BD2FF04CF9C4F8BC0D28B1827941
:108DA0000AB13C2AF4D12322C28009212AF09AFE7A
:108DB000D4F8BC0D2FF0FAFB94F8B23D013B5BB246
:108DC0005A1C00F09880022B00F3958004EB0313EB
:108DD000D3F8C00D524EC4F8B80D0223102184F808
:108DE000B43D3DF0E5FDB6F8D8104E4833F0BAFB7F
:108DF000D4F8BC0D2FF0D4FBFF218C203DF07EFE7B
:108E00000746D4F8BC0D2FF0D1FBD4F8B80D0421DF
:108E10003DF0CEFD1B2F05D0D4F8BC0D20212AF04B
:108E200061FEB5E7D4F8BC3D012284F8EC290BB112
:108E30002322DA80B6F8D8103A4833F093FBD4F8FE
:108E4000BC0D2FF0ADFB40210A203DF057FEFF2165
:108E50008A203DF053FEC0F38013D4F8BC0D84F893
:108E6000F03D2FF0A3FBD4F8B80D04213DF0A0FD98
:108E700094F8B03D012B44D0022B3ED0002B49D0BA
:108E800094F8F13D182B09D194F8F02DB6F8D830AC
:108E9000A4F8F45DA4F8F62DA4F8F83DB6F8D810BF
:108EA000204833F05FFBB6F8D8101E4833F05AFB69
:108EB000D4F8BC0D2FF074FB022100203DF01EFE03
:108EC000D4F8BC0D2FF072FBD4F8B80D04213DF09E
:108ED0006FFD94F8012E94F8023E94F8001E84F879
:108EE000FC1DC2F12002C3F1100384F8032E84F8A4
:108EF000043E0120F8BD00206CE70823A6F8D83016
:108F0000BEE7002DF9D094F8F03D002B14BF0823E4
:108F10001023F3E71023A6F8D830B1E7C8140020D7
:108F2000980100207C220020F8B51A4C94F8053EE8
:108F3000002BFBD159B301444E1E451ED4F80C2919
:108F4000D4F8081915F8017F531CC3F30A038B42A8
:108F50002CBF4FF400600020C91A224401440129AB
:108F6000C4F80C3982F8087E0FD101202BF008FBE1
:108F7000D4F80839D4F80C198B4294BF4FF400622E
:108F800000225B1A1344012BEFD0B542D6D100204A
:108F9000F8BD00BFC81400200A4B0846D3F82819B2
:108FA00010B569B1D3F82839052B09D1064C002A30
:108FB000D4F8103504DD1146FFF7B6FFD4F81035AC
:108FC00010BD00BFC8140020C025002010B590F8C7
:108FD0005010002380F8503089B10C4CD4F8282967
:108FE0007AB1D4F82829052A0DD1094C3C30D4F89F
:108FF0001035FFF799FFD4F81035012010BD01207E
:10900000FCE71046FAE71846F8E700BFC81400204E
:10901000C0250020002280F85120D7E790F850208A
:10902000531C0244DBB280F8503082F83C1090F8B8
:1090300051200AB1132B00D9C8E77047024B0146F3
:10904000D3F814052BF0F8BDC02500202DE9F0471A
:10905000DD4C2DED0A8BD4F8183582B0002B4DD0A5
:10906000D4F81C2592F82E20002A47D0D74E074668
:1090700096F8F10D092804BF0022A6F8F42D94F803
:109080002425002A47D1D24B94F82A15A3FB075375
:1090900001294FEA931300F0A58002297CD0002912
:1090A00073D096F87D0948B30023D4F8187594F866
:1090B0002465B4F9B286D4F8B4E6D4F8B8C6B4F9E5
:1090C000BC16C44A1D461FB1EEB1012E00F0A281AC
:1090D000C2E901550021558095818C468E4688460F
:1090E0000133DBB2834202F11002ECD1A4F8B28664
:1090F000C4F8B4E6C4F8B8C6A4F8BC1602B0BDEC17
:109100000A8BBDE8F0878342E2D292F80090B9F171
:109110000A0FE5D9DCE7012AC3D194F854269FED64
:10912000AEBADFEDAEAA9FEDAEAADFEDAE9A013288
:10913000002184F8542686F87C199FEDAB9ADFED68
:10914000AB8A09E0013B84F8923696F8F13D092B91
:1091500000F02E81D4F8183518462BF069FD002850
:1091600000F06781D4F818052BF05AFD94F8923678
:109170000246002BE6D194F8931600294DD19B2886
:10918000E3D1012384F89336DFE7994B9F4288D9D6
:10919000012384F82A3584E7D4F82C1564319942E8
:1091A00000F28E8196F87C3904EB031393F8542671
:1091B000FF2A06D08F49013283F85426012381F813
:1091C000DA30FFF77FFC0123092884F82A357FF481
:1091D00068AFB4F8903601339BB2A4F89036A6F885
:1091E000F63D5EE796F87C5986F87E298C2202FBD4
:1091F0000542814FC4F82C3582F83E1502230A221D
:109200000928C6F8807986F87F2984F82A357FF402
:1092100048AF0135A6F8F45D43E7012908D19B2842
:1092200000F03881022384F8940684F893368CE7A2
:1092300060180131C9B2132980F8932602D084F84E
:10924000931682E794F8282594F89B5694F89D1677
:1092500094F8A00694F89CE694F89EC684F8933699
:1092600007EE102A94F8A12641EA054142EA0022BD
:1092700041EA0E2194F89F06B4F8265507EE901A9D
:1092800040EA0C201146B8EEC77AB8EEE78A07EE3E
:10929000900AA94227EE0BCAF8EEE7BA12B240F2E2
:1092A000B58094F82935DFED556A07EE903AF8EE6F
:1092B000E77A491B67EEA66A07EE901AF8EEE77A9E
:1092C00066EEA77AFDEEE77A17EE905A96F8F18DE2
:1092D00094F8A336B8F1090F08BFA6F8F42D94F856
:1092E000A22643EA022307EE903AF8EEE77A67EE09
:1092F000AA7A27EE8A7A79EEE77AC7EE277A17EE0E
:10930000900A41F057F841EC100B42F09FFA51ECF3
:10931000100B41F07FFB07EE900AB0EE687AA7EEE3
:10932000897AF7EE006AC6EE877ADFED356AF4EEE9
:10933000E67AF1EE10FA6BD477EEE67AFDEEE77A94
:10934000CDED017A9DF90400DFED2E7A96F87C19B7
:1093500068EE277A2BEE8C7A04EB0112FDEEE77AA9
:10936000BDEEC77A17EE903AC2F85856002582F83B
:10937000545617EE105A1BB20329A2F8603682F831
:109380005506A2F8565607D8B8F10C0F00F0F38036
:10939000B8F10D0F00F08480B8F1090F7FF4DAAE58
:1093A000B4F88E3601339BB2A4F88E36A6F8F83D99
:1093B000B4F89026D4F81835013292B2A4F8902669
:1093C000A6F8F62DB9E600BFC0250020C81400207D
:1093D000D34D6210142C00200000A53D3333533AC6
:1093E00051DF593E333353402CBB84390FCF5B3BA5
:1093F0003F4B4C0098010020F02A0020A5A5723EAA
:10940000339388430AD7233C2FE33E311D465DE763
:10941000002099E78342BFF45BAEB2F90C9092F85A
:1094200000A0B9F1000F40D0BAF10A0F3FF650AEDC
:1094300056E696F8F13D092B96F87C3900F0B48099
:109440001B01E218B2F96016002933DD02F5CB6288
:10945000D2ED006A5FED147AF8EEE66A66EEA76A6E
:10946000D4F8A816C4F8A8767F1A6D4A07EE907A49
:1094700092ED007AF8EE677A2344A7EEA67AF0EE32
:10948000477ABDEEC77AC2ED007A17EE101AC3F81C
:109490005C1606E60B2284F8933684F8922654E68E
:1094A00006EB4101A1F8F40D54E6BAF1770F3FF64F
:1094B0000FAE15E60021DFED5B6AC2F85816CFE764
:1094C00096F87E1996F87F3999427FF4EAAD564DA9
:1094D00005F1090715F8013F08215A40530012F021
:1094E000800F08BF520083F0070314BFDAB2D2B274
:1094F0000139F3D1BD42EDD194F8393593425BD1B6
:1095000096F87C7994F83755B4F83325B4F835E5F6
:1095100094F8383594F8318504EB071C9EFA9EFECA
:1095200043EA052352BA94F832558CF8541692B295
:109530001FFA8EF1DFF8F8E0CCF8582645EA082546
:1095400094F93025CCF85C161BB20121032FACF83E
:109550005656ACF860368CF855268EF8DA1007D8D7
:109560000C2849D00D2803D106EB4703A3F8F42DAE
:10957000FFF7A8FA0CE662182C4892F8882603EB4D
:1095800083035208012A03EB8303B8BF01229B0027
:1095900006EB410193FBF2F380FB0302DB17C3EB05
:1095A000A203A1F8F43DD5E504EB03121B0192F8E8
:1095B0005426A6F8FA2D44E796F87C3904EB0313F9
:1095C00093F85426FF2A06D01949013283F854260D
:1095D000012381F8DA30FFF775FA0123092884F8AE
:1095E0002A357FF45EADB4F88E3601339BB2A4F811
:1095F0008E36A6F8F83D54E5E21906EB470792F8D7
:10960000882652086421012A13FB01F3B8BF012206
:109610000A2193FBF2F393FBF1F3A7F8F43DA7E7DC
:109620006C2C002000000000EF2A002067666666B0
:10963000980100202DE9F041FD2984B0044600F096
:10964000DE80F02900F0BD80EF2900F033814AB1BF
:109650000346861803AD002003F8010B9E4205F86F
:10966000010BF9D19A4B0B2003F1090501E013F826
:10967000010F814200F0C880AB42F8D14B1E832B12
:1096800000F29380DFE813F03001370141014C0113
:10969000B9018400560161016D01910091007301CF
:1096A000730173018901890189016D0191009100A4
:1096B00094019C0191009100910091009100910012
:1096C0009100910091009100910091009100910012
:1096D0009100910091009100910091009100910002
:1096E00091009100910091009100910091009100F2
:1096F00091009100910091009100910091009100E2
:109700009100910091009100AE01910091009100B3
:1097100091009100910091009100910091009100C1
:1097200091009100910091009100910091009100B1
:1097300091009100910091009100910091009100A1
:109740009100910091009100910091009100910091
:109750009100910091009100910091009100910081
:109760009100910091009100910091009100910071
:109770009100910091009100910091009100910061
:109780009100910091009100910091001F011F0133
:10979000504BB3F83017002900F06781019223F095
:1097A00079FA019A80B2ADF80C003AB1224403ABC9
:1097B00013F8011B04F8011BA242F9D104B0BDE863
:1097C000F081454F03214FF00508B84400250137CB
:1097D0000CE0FFF7A3F9064660193246FFF72AFFAF
:1097E00070194745C5B2E9D017F8011B412981F02E
:1097F0008003084601D0042BEBD80426ECE7374F52
:109800000B214FF00408E0E7354BD3F888399B066D
:109810000CD4002AD2D0224403AB13F8011B04F865
:10982000011B9442F9D104B0BDE8F081294B93F8B3
:10983000C00610F0020F93F8D80640D0052834BFB8
:1098400002250325142917D97C39C8B20628E0D887
:109850000629DED801A050F821F000BF3D9A00088B
:109860003D9A0008259A0008139800084F9A0008AE
:10987000479A0008579A00080929CAD90A390A29BB
:10988000C7D801A656F821F0079A00085F9A000889
:1098900013980008139800081398000813980008FC
:1098A0001398000813980008139800081B9A0008E2
:1098B0003D9A00080B4F0C214FF0060885E70B2955
:1098C000A7D10125CCE0064BD3F8C03903936CE750
:1098D00088DF0408C025002070DF04086CDF04085E
:1098E000C814002078DF04080192FFF74BF9019AB1
:1098F000ADF80C0059E76F4BD3ED037AFDEEE77A34
:1099000017EE903AADF80C304FE76B4B93F8F30637
:10991000B3F8E016002840F0AE80ADF80C1044E734
:109920006549B1F8E03691F80C17B3FBF1F3ADF8E7
:109930000C303AE7604B93F84C17CE0700F1A0804B
:10994000B3F83037ADF80C302FE75B4B5B49B3F918
:10995000103881FB0301DB17C3EBA103ADF80C301A
:1099600023E7554BB3F81238ADF80C301DE7544BD4
:10997000DFED546AD3ED007A0C39C9B203EB8103F1
:1099800093ED147A67EEA67A67EE877AFDEEE77AB2
:1099900017EE903AADF80C3007E7474B03EB410167
:1099A000B1F8EE3703EB83035B00ADF80C30FCE657
:1099B000414B93F84C3703F00103ADF80C30F4E65B
:1099C0003D4BB3F8A817C8055ABFCB4303F00103BA
:1099D000032311F0020F18BF072311F4806F18BF83
:1099E0000923AFE70192FFF7CDF8374B019AD3F87F
:1099F000C83943EAC0400390D7E62F4BD3F840372D
:109A0000ADF80C30D1E6B3F8D43603EB830303EBA7
:109A100083039B00ADF80C30FBE6B3F8D236ADF80B
:109A20000C30F6E6B3F8D236284903EBC3039B00AB
:109A3000A1FB03135B09ADF80C30EAE6B3F8DC36A2
:109A4000ADF80C30E5E6D3F8C8360393E1E6D3F879
:109A5000C4360393DDE6D3F8CC360393D9E6EDB2F2
:109A60008DF80C508DF80D00D3E6D3F8480780F33D
:109A7000100080B297E693F80C37B1FBF3F14CE796
:109A8000B3F95607B3F88817884209DB03F5E26398
:109A9000D3ED037AFCEEE77A17EE903A9BB251E7EA
:109AA000D3F8A41703F5E263CD06D3ED037AF1D51D
:109AB000002347E7D02C0020C0250020676666669B
:109AC0006C2D002000007A44C81400201F85EB5143
:109AD00000F01F0240090123032803FA02F304D017
:109AE00004280CD0022805D07047074A116C0B439C
:109AF00013647047044A516C0B4353647047024A25
:109B0000116B0B43136370470038024000487047E5
:109B1000342E00200E4B30B4DB68427801780D4CB7
:109B2000DB43C3F30223C3F10403DBB202FA03F302
:109B300060181B0101F01F050122490903F0F00321
:109B4000AA4080F8003344F8212030BC704700BFA1
:109B500000ED00E000E100E0002871D0F0B583885E
:109B6000B3FA83F3202B0A4683B00446C3F11F01E6
:109B700050D0344F344D07EB81036E18C3F89C2945
:109B8000002196F8286029F0ADFFA38821682F48AE
:109B9000B3FA83F3C3F11F0202F0FC0404F1804422
:109BA00004F59C3402F003024FEA820E4FF00F0CD2
:109BB00001F13F42A1680CFA0EFC21EA0C01A16000
:109BC00002F57E02A168C2F387224FF0004C02FA30
:109BD0000EF22CFA03F30A43A260436102681C49A7
:109BE00022EA03020260426822EA0302426002683B
:109BF0001A430260826822EA03028260C26822EA93
:109C00000302C2600A68374413430B6097F8DC39DB
:109C1000F02B01D803B0F0BD3544F02195F8383071
:109C20008DF8043003224FF4807301A887F8DC1903
:109C30008DF80520ADF80630FFF76CFF03B0F0BDDE
:109C4000704700BFC02500206CDF0408003C0140C5
:109C5000083C01402DE9F047C94C94F8E31905464A
:109C6000C1F34001D4F8E8092EF0A6FC94F8E319FA
:109C7000D4F8E409C94301F001012EF09DFC002D48
:109C800000F0E58005F1FF38BE4EBF4D5FFA88F861
:109C90001027D4F8E83933B11A689B8851690B4210
:109CA00014BF53831383D4F8E43933B11A689B8803
:109CB00051690B4214BF53831383B4F8F039002B5E
:109CC00040F0558194F8F219D4F8F4092EF074FCA0
:109CD0004FF0FA0C4FF47A704FF0010E7368C3F333
:109CE0000803002B40F01781EFF31183002B40F0A5
:109CF0001281D4F81025A968D4F810359A42F8D109
:109D0000D4F8183A9942F4D8D4F8149A00FB09F31D
:109D10005B1AB3FBF9F300FB02327368C3F3080369
:109D2000002B40F0B780EFF31183002B40F0B2809E
:109D3000D4F81035D5F808A0D4F810158B42F7D117
:109D4000D4F8181A8A45F3D8D4F8149A00FB09F10C
:109D5000A1EB0A01B1FBF9F100FB03139B1AB3F568
:109D60007A7FDAD3BCF1010CB8D1D4F8E83933B139
:109D70001A689B8851690B4214BF53831383D4F82C
:109D8000E43933B11A689B8851690B4214BF53837D
:109D90001383B4F8F039002B40F0DD8094F8F21909
:109DA000D4F8F40981F001012EF006FC4FF0FA0C12
:109DB0004FF47A704FF0010E7368C3F30803002B61
:109DC00040F08980EFF31183002B40F08480D4F8B9
:109DD0001025A968D4F810359A42F8D1D4F8183A69
:109DE0009942F4D8D4F8149A00FB09F35B1AB3FB38
:109DF000F9F300FB02327368C3F308034BBBEFF3C4
:109E0000118333BBD4F81035D5F808A0D4F8101559
:109E10008B42F7D1D4F8181A8A45F3D8D4F8149A9B
:109E200000FB09F1A1EB0A01B1FBF9F100FB0313FF
:109E30009B1AB3F57A7FDED3BCF1010CBCD108F1DB
:109E4000FF385FFA88F8B8F1FF0F7FF422AFBDE862
:109E5000F087EFF3118987F31288D5F808A02B68F3
:109E6000DB0344BFC4F810EAD5F808A0D4F81035D5
:109E7000D4F8101A5FFA89F989F31188D4F8149A82
:109E80000B4400FB09F1A1EB0A01B1FBF9F100FB66
:109E90000313CDE7EFF3118987F31288D5F808A0F3
:109EA0002B68D90344BFC4F810EAD5F808A0D4F849
:109EB0001035D4F8101A5FFA89F989F31188D4F8AB
:109EC000149A0B4400FB09F1A1EB0A01B1FBF9F173
:109ED00000FB031342E7EFF3118187F31288D5F8F3
:109EE00008902B68DA0344BFC4F810EAD5F808904C
:109EF000D4F81035D4F8102AC9B281F31188D4F8F7
:109F0000141A1A4400FB01F3A3EB0903B3FBF1F3AA
:109F100000FB02326FE7EFF3118187F31288D5F867
:109F200008902B68DB0344BFC4F810EAD5F808900A
:109F3000D4F81035D4F8102AC9B281F31188D4F8B6
:109F4000141A1A4400FB01F3A3EB0903B3FBF1F36A
:109F500000FB0232E1E6D4F80C3A002B3FF426AFC6
:109F6000D4F8F8290023136084F8093A1EE7D4F8DE
:109F70000C3A002B3FF4ACAE2AF0C6FBA8E600BFBB
:109F8000C025002000ED00E010E000E02DE9F84FD2
:109F9000C44CC54F94F8E319D4F8E809C34DC1F394
:109FA00040012EF009FB94F8E319D4F8E409C94301
:109FB00001F001012EF000FB4FF0050B4FF01008EF
:109FC000D4F8E83933B11A689B8851690B4214BF41
:109FD00053831383D4F8E43933B11A689B885169E9
:109FE0000B4214BF53831383B4F8F039002B40F0B5
:109FF000518194F8F219D4F8F4092EF0DDFA4FF0FB
:10A00000320C4FF47A7001267B68C3F30803002BEF
:10A0100040F01481EFF31183002B40F00F81D4F84E
:10A020001025A968D4F810359A42F8D1D4F8183A16
:10A030009942F4D8D4F8149A00FB09F35B1AB3FBE5
:10A04000F9F300FB02327B68C3F30803002B40F0F6
:10A05000B480EFF31183002B40F0AF80D4F81035BB
:10A06000D5F808A0D4F810158B42F7D1D4F8181AF7
:10A070008A45F3D8D4F8149A00FB09F1A1EB0A0140
:10A08000B1FBF9F100FB03139B1AB3F57A7FDAD326
:10A09000BCF1010CB8D1D4F8E83933B11A689B8807
:10A0A00051690B4214BF53831383D4F8E43933B19D
:10A0B0001A689B8851690B4214BF53831383B4F809
:10A0C000F039002B40F0DA8094F8F219D4F8F40952
:10A0D00081F001012EF070FA4FF0320C4FF47A70DB
:10A0E00001267B68C3F30803002B40F08780EFF361
:10A0F0001183002B40F08280D4F81025A968D4F891
:10A1000010359A42F8D1D4F8183A9942F4D8D4F8D4
:10A11000149A00FB09F35B1AB3FBF9F300FB02325C
:10A120007B68C3F308033BBBEFF3118323BBD4F875
:10A130001035D5F808A0D4F810158B42F7D1D4F813
:10A14000181A8A45F3D8D4F8149A00FB09F1A1EB48
:10A150000A01B1FBF9F100FB03139B1AB3F57A7FF7
:10A16000DED3BCF1010CBCD10BF1FF3616F0FF0BB6
:10A170007FF426AFBDE8F88FEFF3118988F31288DA
:10A18000D5F808A02B68DB0344BFC4F8106AD5F8E3
:10A1900008A0D4F81035D4F8101A5FFA89F989F3B9
:10A1A0001188D4F8149A0B4400FB09F1A1EB0A01C1
:10A1B000B1FBF9F100FB0313CFE7EFF3118988F34B
:10A1C0001288D5F808A02B68D90344BFC4F8106AD8
:10A1D000D5F808A0D4F81035D4F8101A5FFA89F928
:10A1E00089F31188D4F8149A0B4400FB09F1A1EB10
:10A1F0000A01B1FBF9F100FB031345E7EFF311810D
:10A2000088F31288D5F808902B68DA0344BFC4F8A5
:10A21000106AD5F80890D4F81035D4F8102AC9B2CD
:10A2200081F31188D4F8141A1A4400FB01F3A3EB4C
:10A230000903B3FBF1F300FB023271E7EFF3118185
:10A2400088F31288D5F808902B68DB0344BFC4F864
:10A25000106AD5F80890D4F81035D4F8102AC9B28D
:10A2600081F31188D4F8141A1A4400FB01F3A3EB0C
:10A270000903B3FBF1F300FB0232E4E6D4F80C3A35
:10A28000002B3FF429AFD4F8F8290023136084F899
:10A29000093A21E7D4F80C3A002B3FF4B0AE2AF08B
:10A2A00033FAACE6C025002000ED00E010E000E04D
:10A2B00010B4B8B10D4CD4F81C3A102B05D15DF890
:10A2C000044B0521002029F0F5BE03EB4302224494
:10A2D00082F8211A01210B4482F8200A82F8221AFE
:10A2E000C4F81C3A5DF8044B704700BFC02500203D
:10A2F000F8B5274E00EBC00406EB8404D4F8545A9A
:10A30000002D38D094F865CA0CF0FF07BCF1000F9F
:10A3100031D149004FF0010CC9B284F8661A84F8B3
:10A32000672A84F869CA84F86A7A84F868CA84F863
:10A3300065CA84F8647AAA88C4F86C3AC4F8703A9A
:10A34000940502D501273846F8BD2B88D9050CD4D1
:10A350004FF4805301E0013B10D02A889205FAD4D3
:10A360002B889BB243F480732B80AB889BB243F461
:10A370004073AB80E6E700273846F8BDB6F8BC3A34
:10A3800001339BB2A6F8BC3A3FF004F9DBE700BF0B
:10A39000C025002070B4464B93F8BE2A03EB02118F
:10A3A000100191F8C01A03291BD8DFE801F00C1D39
:10A3B00002491C18D4F8C41AF1B10139C4F8C41AFE
:10A3C000002070BC704793F82C5B002D5BD039499E
:10A3D000002201E0954256D00C8801328C31002CCD
:10A3E000F8D0012070BC70471C18D4F8C41A00299A
:10A3F000E3D1022184F8C01A191891F8CC0A013867
:10A40000C0B281F8CC0A90BB2B4893F8345BD0F8EB
:10A41000DC00D1F8C84A013202F00302431E0326D1
:10A42000AA42234481F8C06AB3FBF0F4C1F8C44ADD
:10A43000D7D098429CBF04F1FF34C1F8C44AD0E79A
:10A440001918D1F8C40A70BB93F8341B8A42C8D0DB
:10A45000013202F00304A14283F8BE4AC1D003EBEB
:10A4600004120223C2F8C40A82F8C03ABAE7124BB7
:10A47000D3F8DC20012002F2E73370BCB3FBF2F327
:10A48000C1F8C43A70470C4AD2F8DC10034401F515
:10A490001C5201200F3270BCB2FBF1F283F8C00AEB
:10A4A000C3F8C42A70470138C1F8C40A002099E7EC
:10A4B000C0250020FC2A00209801002070B52E4DF8
:10A4C00095F88C49022C84B01AD0012C02D00020BF
:10A4D00004B070BD95F99049631CF8D0032CF6DCEC
:10A4E0000091134695F89119024620463FF0E6F98F
:10A4F0000028ECD0204604B0BDE870403FF0AABA76
:10A50000D5F8943913B11C689B886383D5F890699A
:10A51000B38940F2E9343389013C13F0020FA4B24D
:10A5200019D084B2B48140F2E9343389013C13F08C
:10A53000010FA4B21BD0B389134630460A4600214E
:10A540003EF032FFD5F89439A3B11A689B88138383
:10A55000012004B070BD002CDDD13046CDE90212DF
:10A5600032F038F8DDE90212D5F89069E4E7002C02
:10A57000DBD1F2E70120ABE7C814002010B5027868
:10A58000022A044613D0012A01D0002010BD2D4B11
:10A5900090F9040083F8352B421CF6D00328F4DC34
:10A5A0000A4603F635336179BDE81040A0E68368BA
:10A5B00013B11A689B8853836368988940F2E93223
:10A5C0001889013A10F0020F92B225D089B2998110
:10A5D00040F2E9321989013A11F0010F92B22BD001
:10A5E0009A899A8940F2E9321989013A11F0020FE9
:10A5F00092B21ED001229A8140F2E9321989013AC1
:10A6000011F0010F92B20ED09B89A368BBB11A68FA
:10A610009B881383012010BD002AD1D1184631F048
:10A62000D9FF6368DDE7002AE8D1184631F0D2FF90
:10A63000EBE7002AD8D1F8E7002ACBD1EEE70120DA
:10A6400010BD00BFC02500202DE9F04F2DED108B6F
:10A65000034697B004331593DFEDCACA1490022362
:10A660008A4613928B461293149C4FEADB0604EB46
:10A67000461202EB06103101A6EB86034FEAC6082C
:10A6800006EB4605CDE9000100EBC303043108F1F8
:10A6900004001196204421442C01C6EBC60C0394FF
:10A6A000EC00119D04944FEACC0405946C0106EB78
:10A6B000860E0294159D009C03EB46174FEACE0EC2
:10A6C00002EBC6064FEACB094FF0000C51ED01AA90
:10A6D000D3ED001A92ED007A94ED005A96ED004AFF
:10A6E000D7ED007A15ED012A50ED016A32EE07BA76
:10A6F00076EE840A7AEE855A31EEA70A3BEE256A99
:10A7000070EE804A76EEC46A36EE244A36EE646A0B
:10A7100005ED014A82ED006AD0ED00BAD6ED012ABE
:10A72000D3ED019A95ED00AA92ED016A97ED013AF9
:10A7300091ED00CAD4ED014A7BEEE23A36EEE19AA1
:10A7400032EE472A73EEE98A3AEE464A39EE279A04
:10A7500078EE838AB0EE428AA9EE6C8ADC44E24548
:10A7600073EEC33AB0EE441AA8EEEC1A76EEE77A2E
:10A7700033EEA97A7CEE643A77EEA17A3AEE066A75
:10A780007AEEC51A3CEE24AA74EECC4A39EE833A2E
:10A7900035EE6A5AF0EE639AF0EE48AAE7EE2C9A8C
:10A7A000A8EEAC4AE7EE2C4AE7EE6CAAF0EE418A3E
:10A7B000B0EE427AB0EE612A7BEE656A7BEEA22AA9
:10A7C00076EE4A5AA9EE2C7AA7EEAC2AA7EEAC5A3E
:10A7D000E7EEEC8A32EE83BA76EEC3BA35EEE09A53
:10A7E00075EEC07A36EE0A6A76EEE26A36EE0BAAAB
:10A7F00076EE836A77EEA07A34EE423A77EE290A53
:10A8000036EE4B6A7BEEA22A39EE000A73EEAA3AC4
:10A8100078EE244A37EE697A31EE055A71EEA85A7D
:10A8200032EE044A85ED00AA82ED016A4D4441ED05
:10A83000012A4A44C4ED006A81ED000AC4ED017AA0
:10A84000494440ED010A4C4487ED007AC6ED003AD8
:10A85000C3ED004A80ED003A87ED014A484486ED99
:10A86000015A4F44C3ED015A4E444B443FF62EAFBC
:10A87000119B072B40F2C781029D149E019B0398F8
:10A880000499059A083575190C330E95354608F16B
:10A8900008080EF10804EB18083008310832464465
:10A8A0002C1928186918AA18079305F10C030D969E
:10A8B0000C940B900A91099208934FF001084FF005
:10A8C000000E129B9E44139B03EBCE0303EBCE02C0
:10A8D000109302EBCE0303EBCE01029101EBCE010C
:10A8E00001EBCE0505EBCE06D6ED007A0F93AEEB6D
:10A8F0008E03019106EB031303EBCE07D3ED01AA00
:10A90000CDED067A019BD5ED007A97ED01BACDED3C
:10A91000057AD3ED007A029BCDED047AD3ED007A6F
:10A920000F9BCDED037A07EBCE0CD3ED007ADCED77
:10A9300001BACDED027A0CEBCE01D2ED007A109A7D
:10A94000009101EBCE00014691ED01DACDED017AE7
:10A950000099D2ED007A91ED01CA00EBCE0000EB38
:10A96000CE0494ED01EAD0ED01DACDED007ADDE917
:10A970000776DDE90954DDE90B01DDE90D23C44665
:10A9800002E000BFF304353F94ED009A90ED00FA29
:10A9900091ED006AD5ED007AD3ED006A57ED014ADA
:10A9A00092ED005A56ED013A96ED00AA35EE060AF0
:10A9B00073EEA65A39EE278A34EE8F7A70EE082AA3
:10A9C00075EE87EA35EE465A3EEEA26A73EEE63A37
:10A9D00006ED016AD1ED019AD2ED01FAD4ED016ADA
:10A9E000D3ED011A95ED013AD0ED018A97ED004AB9
:10A9F0003FEEE96A35EE491A76EE660A31EE271A1D
:10AA00003AEE612A75EE677A70EE830A3FEEA95A34
:10AA100074EECF9A77EE897A7AEE211AB0EE42AAD6
:10AA200074EE68FAA0EEECAADC44E24535EEC77A93
:10AA3000B0EE639A74EE285A38EEC44AF0EE698A92
:10AA4000A1EE6C9AE7EEAC8A36EE436A7FEE644A7A
:10AA500036EE266AA0EEAC2AF0EE4A0AE7EEEC0AE1
:10AA6000E7EEAC4AF0EE687AF0EE498A36EE833AC9
:10AA7000E6EE6C8AE1EE2C3AB0EE6F1AA6EE2C1AD6
:10AA800071EEE56AA6EE2C4A71EEA55A75EE031A30
:10AA90007EEEE22A37EE43FA75EEE1EAB0EE686A3E
:10AAA00076EEC08A39EE044A7FEE86FA76EEC86A00
:10AAB00033EE816A38EE888A73EEC13A37EE457A12
:10AAC0002CEE2E1A3FEE055A22EECC9A9DED03FA9B
:10AAD00070EE266A33EE077AAFEE221AAFEE2E9AA8
:10AAE0007AEE244A9DED01FA79EEA09A25EE4BAA62
:10AAF00072EE670A37EE822A6BEE087AAFEE08AA8A
:10AB0000EFEE057A2DEEA63A9DED05FA67EE6D8A19
:10AB1000AFEE073AEFEE268A66EE6A2A9DED00FA5E
:10AB20002AEEA00AEFEE202A6EEE02EADDED060A1A
:10AB300023EECE5AE0EEA3EA2BEEA98ADDED023A2F
:10AB4000AFEE060AA3EE848A24EE6B7A6DEE246AD9
:10AB50009DED044A2FEECD6AA0EE825AA3EEA97AAB
:10AB6000E4EE2F6AA4EE246A75EEA15AC6ED005AEF
:10AB700083ED001A83ED019A4E4447ED017A87ED8B
:10AB800000AA4B4480ED003AC0ED018A4F4482EDAB
:10AB9000000A4844C2ED012AC5ED00EA85ED015ADC
:10ABA0004A44C1ED006A81ED016A4D4484ED008A9A
:10ABB00084ED017A49444C443FF6E6AE0E9B0833DF
:10ABC0000E930D9B08330D930C9B08330C930B9B3A
:10ABD00008330B930A9B08330A93099B08330993A4
:10ABE000089B08330893079B08330793119B08F1D0
:10ABF000010843457FF465AE129BDDF844B0DB00ED
:10AC00009BB2129330E517B0BDEC108BBDE8F08F0E
:10AC10002DE9F047164D0746002095F93D9B05F6B6
:10AC2000443684B007EB010805F6E45504464FF0BE
:10AC3000B60A3368ABB193F83830142B11D0B9F1A0
:10AC4000FF3F01D04B450CD1002269463046CDE98B
:10AC50000244CDE90078ADF808A08DF80E4022F04E
:10AC6000D1FAE036B542E4D104B0BDE8F08700BFC8
:10AC7000C0250020F0B40D6800240CE0BCF1050FE5
:10AC800018D8A0F137030A2B14D104EB840415F86B
:10AC9000010B03EB4404A0F13003DEB2092EA0F156
:10ACA0006107A0F1410CF0D9052FE7D8A0F15703B7
:10ACB0000A2BEAD00D601460F0BC70472DE9F74311
:10ACC000124E0124A02318255FFA84F8FF2B14DC10
:10ACD000D6F8E40DE9B2C1F11C0282725F1C026871
:10ACE00080F80B80DBB20093C1F11B01D2F8189001
:10ACF00000234246C9B2C8473B46013DE6D1013474
:10AD0000052CE0D103B0BDE8F08300BFC0250020D2
:10AD100010B50A4C94F8010E003818BF0120FEF758
:10AD20001DF850B1064904F6E85031F0AFFB04F6C7
:10AD3000E8500BF0ADFB04F6E85010BDC025002034
:10AD4000ACDF040870B4447941BB03684FF400528F
:10AD50004FF40076202502213CBB1A8C22F0010220
:10AD60001204120C1A841A8B188C22F0F30280B28F
:10AD7000120420F00A00120C014342F0010241F0DB
:10AD800001011A8319841A8B22F00C021204120C8E
:10AD90001A831A8B92B270BC1A8370470022036820
:10ADA000164615461146002CD7D0042C21D0082C6D
:10ADB00038D0198C21F480510904090C19849C8B1A
:10ADC0001D8C45F6FF7040F6FF41284021400243AC
:10ADD00042F4805241F4807199831A849A8B22F450
:10ADE00040621204120C9A839A8B92B270BC9A83BE
:10ADF00070471A8C22F010021204120C1A84188B5D
:10AE0000198C89B240F6FF4221F0A00102400D43A7
:10AE100042F4807245F010051A831D841A8B22F4C7
:10AE20004062B3E71A8C22F480721204120C1A8466
:10AE3000998B1A8C21F0F30192B2090422F420625A
:10AE4000090C324342F4807241F0010199831A8463
:10AE50009A8B22F00C02C4E70B88F0B433BB028C4F
:10AE60004C880E898B88C98822F001021204120CCA
:10AE70000284058B028CADB225F0F30592B22B4310
:10AE800022F00A0243EA061322439BB242F0010277
:10AE900003830284038B23F00C031B041B0C03832A
:10AEA000038B9BB21943F0BC01837047042B048CC5
:10AEB0002CD0082B4E888A880D89C98851D024F45B
:10AEC00080542404240C0484838B078C2C0344EAD0
:10AED000022440F6FF421A4045F6FF733B4043EA26
:10AEE000063322439BB292B243F48053828303849D
:10AEF000828B22F440621204120C8283838B9BB2F9
:10AF000043EA01239BB2F0BC8383704724F0100412
:10AF10002404240C4D880F898A88C9880484068BF0
:10AF2000038C12029BB242EA073423F0A00340F6DE
:10AF3000FF42324043EA051322439BB292B243F0F0
:10AF4000100302830384028B22F440621204120C69
:10AF50000283038B9BB243EA01239BB2F0BC0383C1
:10AF6000704724F480742404240C0484848B038CA0
:10AF7000A4B29BB224F0F30423F42063224343EAF7
:10AF8000062342EA05129BB243F4807392B2828395
:10AF90000384838B23F00C031B041B0C8383838BA0
:10AFA0009BB21943F0BC8183704700BFF0B5C84B1A
:10AFB000C84EC94DC94C0822C3F88820336B83B0F2
:10AFC00043F00103336307464FF4C052284640F272
:10AFD00002336946CDE90023FDF712F86B6AC048D9
:10AFE000C049C14ADFF844E323F470436B626B6AE3
:10AFF00043F420436B626B6A23F470236B626B6AC9
:10B0000043F420236B62736CC4F8100E43F4804346
:10B010007364736BB548C4F8140E41F2F43041F216
:10B02000F83543F0800341F2FC3C2750736301F193
:10B030001C03615144F80C30AD4EAE4BAE49C4F820
:10B04000206E022784F8187E4FF0A045AB4FC4F85D
:10B050001C5EC4F8283EC4F8641E05F5326506F58A
:10B06000A07603F51073A1F5D071C4F82C7EC4F856
:10B07000685EC4F8306EC4F86C3EC4F8341E012318
:10B0800007F51077A5F5E465A6F5A066A1F58C6136
:10B09000C4F8707EC4F8245EC4F8DC6E84F81B3EED
:10B0A00005F5A075536106F5B076C4F8A01E84F8C6
:10B0B000223F1946924B934AC4F8A85EA7F5BC6795
:10B0C000A035C4F8B46E904EC4F8B07EC4F8B83E53
:10B0D00007F5D45703F56953C4F8BC5E4FF050250B
:10B0E0000020DFF84CC2C4F8E02EC4F8E47E02F57C
:10B0F000A04207F5A047C4F8E86EC4F8EC3E06F598
:10B10000A046A3F54853C4F8F05E04F56165C4F8A1
:10B11000F42EC4F8FC6EC4F81C3FC4F8A4EEC4F8C6
:10B12000ACCE0246C4F8F87E2B4684F8240F4026A5
:10B1300083F81C21A3F822210132042AC3E94960C3
:10B1400083F81D1183F81F01C3F8300103F12803B0
:10B15000EED1002211462B46402083F87423A3F839
:10B160007A230132042AC3E9DF0183F8751383F8D7
:10B170007713C3F8881303F12803EED14FF0A043EF
:10B1800062489A6822F001029A60DA6842F040024E
:10B19000DA60FDF775F994F8193E0022212161F378
:10B1A00017420BB142F4801294F8131ED4F81C3EDF
:10B1B00001299A6300F0E180DA68D4F81C6FD4F8B2
:10B1C000200EC2F3076121F0600141F0400161F3FC
:10B1D0001F620021DA603160026861F3CC220260F4
:10B1E00094F81B2E012A00F0B58010214848FDF785
:10B1F00023FC4748FDF706FCD4F8200E94F8113ED6
:10B2000000224FF0FF31026142618161C26153B39C
:10B2100005F114073F4E114607EB83074FEA830CF5
:10B220004FF0FF0E56F8042F1368002BACBF00231D
:10B230004FF09043B74213601161C2F808E0F1D1BA
:10B2400005F15003344963440027FF2651F8042FC9
:10B250001568002DACBF00254FF090459942156050
:10B2600017619660F2D1036994F8131E43F480735A
:10B27000012903615ED0D4F81C2E28480023936175
:10B2800000294FF0FF336FF08041516153605161ED
:10B2900014BF00231023906143F47013916943F4A9
:10B2A000605343F008030B43936141F2F831936814
:10B2B000615843F0010393600B689847184B194A93
:10B2C000DA606846184B0093FEF724FC03B0F0BD2B
:10B2D00000E100E00038024000000240C0250020EC
:10B2E0000804010078020020003C014040004001B9
:10B2F0000008005000090050000B005020090050C9
:10B30000C00500500010005000300050DC33002019
:10B31000D0330020E43300202034002000080080D7
:10B3200000ED00E00005FA05430200012005005091
:10B3300060050050D4F81C2E144B03636FF080415D
:10B34000134D00234FF0FF30936151615060516104
:10B350009561A1E701680F4A0F4E41F003010160BA
:10B36000802159629E62C3F80421E022C3F80821BB
:10B37000C0F24002C3F80C2137E79A6822F03E0180
:10B3800041F02A0161F307029A6015E70301810089
:10B3900000080080A000400080002000074AB2F8AA
:10B3A0002203D2F83C1342F2107303FB00F3B3FB09
:10B3B000F1F3C2F83834C2F804357047B8360020CB
:10B3C0009FED737A07EE901A20EE070AF8EE677A7F
:10B3D00027EE800AFDEEC07A17EE903A2033402B1C
:10B3E00000F2C780DFED6B7AB4EEE70AF1EE10FAF7
:10B3F000F0EE407A0CDD9FED686ADFED686AB0EE32
:10B40000677AB4EEE67AF1EE10FA77EEC67AF6DCF9
:10B410009FED637AF4EEC77AF1EE10FA0CD59FED4A
:10B420005E6ADFED606AB0EE677AB4EEE67AF1EE5E
:10B4300010FA77EE867AF6D49FED5B7AF4EEC77A4F
:10B44000F1EE10FA00F38D809FED587AF4EEC77A92
:10B45000F1EE10FA44BF9FED527A77EE677A27EE4D
:10B46000A76ADFED535A9FED537ADFED536AA6EEDC
:10B47000257A67EE865AE6EE076AB6EE007AE5EEC2
:10B48000A67A27EE877ADFED486A70EE267ABDEE5F
:10B49000E76A16EE103A2033402B67D8B4EEE60A7E
:10B4A000F1EE10FA0CDDDFED3C5A9FED3C6AF0EE58
:10B4B000676AF4EEC66AF1EE10FA77EEE57AF6DC2A
:10B4C000DFED376AF4EEE67AF1EE10FA0CD5DFED37
:10B4D000325A9FED346AF0EE676AF4EEC66AF1EE16
:10B4E00010FA77EEA57AF6D4DFED2F6AF4EEE67A5D
:10B4F000F1EE10FA40DDDFED276A76EEE77A67EECF
:10B50000A75A9FED2B5A9FED2B6ADFED2B6AA5EE14
:10B51000856A27EEA55AE5EE866AB8EE006AE5EE82
:10B52000267A67EE867AC7EE206A0023836143613C
:10B530000362C361B7EE006A76EE865A76EE666AFB
:10B5400086EE257A67EE277A66EE876AC0ED017A85
:10B55000C0ED037A80ED007A80ED027AC0ED046AD6
:10B5600070479FED0C7A77EE677A78E7DFED137A14
:10B57000D9E79FED127A86E7DFED0C6AF4EEE67A02
:10B58000F1EE10FA44BFDFED066A76EEE77AB6E731
:10B5900027D4D236DB0F4940DB0FC940E4CB16413C
:10B5A000DB0F49C0E4CB16C1DB0FC93FDB0FC9BFBE
:10B5B00092E741B99730083C15A82ABE0000000068
:10B5C0002DE9F047DFF854919FED4B4ADFED4B4AF0
:10B5D000DFED4B3A09F11005A84609F190044A46FF
:10B5E00006E004F180064245344605F1020560D0CC
:10B5F00012F8013B002BF4D0424991F87D19994291
:10B60000EFD329882370002964D04CF2503399423B
:10B6100051D807EE901AF8EE677A2B8C67EE847A91
:10B62000092BC4ED017A5ED942F210718B4260D8C9
:10B6300007EE903AF8EE677AB5F8403067EEA47AF4
:10B64000132BC4ED047A4BD9B3F57A7F4ED807EEAD
:10B65000903AF8EE677AB5F86030DFF8C4A0C4ED30
:10B66000027A632BDAF8381337D907EE901AF8EE1E
:10B67000676A07EE903A83EEA67AF8EE677AB4EE40
:10B68000E77AF1EE10FA98BFF0EE477AC4ED037A4C
:10B6900004F1140704F180063846D4ED040A94ED51
:10B6A000020A2437FFF78CFEB74207D0DAF83813C6
:10B6B000F2E7BDE8F087DFED147AAEE7134B93F8BD
:10B6C00015126FEA09001044013183F8140283F85F
:10B6D000151288E7F7EE007A9FE7DFED0D7AD5E7E0
:10B6E000F3EE047AB7E7F2EE047AA5E7DFED097A24
:10B6F000B1E7DFED097A9FE790C2753D0AD7233C99
:10B7000000BADB48C814002000504347B04700206F
:10B710000000C84200007A4400401C46344100202A
:10B72000B83600200C4B0D4AD3F830120C4810B438
:10B730000C4CC3F820228A1E2231B4F886371B0134
:10B74000A0FB03C3DB08A3F5B06322F8023F9142DC
:10B75000F3D15DF8044B7047B0470020BDA001084D
:10B76000CDCCCCCCC025002070B5084C251D2E4674
:10B7700014F8010B21F0A2FE28B1037805F8013B73
:10B78000B442F5D170BDFF23F8E700BFE8490020BF
:10B790002DE9F0471D4F012607F10805B2464FF08D
:10B7A00037094FF0000817F8010B2CF041FC044654
:10B7B00090B180F80690C671FB7803F07F02012AF1
:10B7C00018D013F0800F20460DD185F804802CF09E
:10B7D000E7FE85F805802C600136052E05F1080589
:10B7E000E1D1BDE8F08785F804A02CF0DFFE85F8F4
:10B7F00005A0F0E71B0605D40121204628F072F9C8
:10B80000FB78DEE72CF0D2FEF6E700BFF04900201F
:10B810002DE9F04FDFF8E891DFF8E8B185B009F1E4
:10B82000CA0309F10A05A9F26A2A0393012419F847
:10B83000017B002F00F0BE804FEA171808F1FF3897
:10B84000B8F1030F07F00F0200F2B7800BEB4803CB
:10B85000B3F8900040FA02F616F0010600F0C88036
:10B8600001239340013B1840D8443FF073F998F806
:10B870009830614E184406EBC00604236E61F471E3
:10B88000B371002303E00133152B00F0938003997B
:10B8900003EB43024FEA4308895CB942F3D15244B7
:10B8A00092F83513002900F0A580384627F0DCFE19
:10B8B0000746006827F07CFE797927F019FF0378A6
:10B8C000002B77D1D044042388F8754388F874336B
:10B8D000002E59D03368787A03F13F4202F57E0298
:10B8E0000BEB92220121127D02F01F0C5209032A58
:10B8F00001FA0CF16CD0042A62D0022A70D0B6F89A
:10B9000004E0BEFA8EF2C2F11F02C2F3CC0103EBD7
:10B91000810102F007020E6A92004FF00F0C0CFA40
:10B9200002FC26EA0C060E620E6A904030430022AA
:10B9300008621146012000FA01FC3CEA0E001ED10B
:10B9400018680326964020EA06001860D3F80080A5
:10B950000220904040EA08001860986820EA06003B
:10B96000986098689860586820EA0C005860586899
:10B970005860D86820EA0600D860D868D8600131DD
:10B98000102902F10202D5D100200134BAF8683240
:10B990001A4AB2FBF3F3CDE900009BB228463946C0
:10B9A000E4B220F079FF0123092C6B7405F118052E
:10B9B0007FF43DAF05B0BDE8F08F00266E6160E713
:10B9C000DFF844C0DCF830200A43CCF8302096E79A
:10B9D000DFF834C0DCF840201143CCF840108EE78B
:10B9E000DFF824C0DCF844201143CCF8441086E78B
:10B9F0006E6146E70B68FFDED42D002040420F0049
:10BA00001A4A00206CDF0408003802402DE9F04794
:10BA10002DED048BDFF8AC8182B098F89E33019055
:10BA2000002B40F0B4805D4EDFED5D6A96F82A335E
:10BA3000B6F82C23B6F82E93A8F8AC9307EE103A7C
:10BA400007EE902AB8EEC76AB7EE007AB6F8282358
:10BA5000F0EE475A4FEA4905E6EE665A9542B8BFFE
:10BA60001546A6EE267A1FFA85FA0122F8EEE77A45
:10BA7000A8F8AEA367EEA67AC8EDE85A88EDE97A91
:10BA8000C8EDEA7A88F89E23002B7CD0DDED017AA0
:10BA90009FED440A9FED449A444FF8EE677AADB2A9
:10BAA00080EE270A3FF086FE6D00B0FBF5F5012D14
:10BAB000B8BF0125EDB2B0FBF5F39BB2044688F8A0
:10BAC000B05300EE103ABBEEED0AF7EE008A88EDB7
:10BAD000ED0A3FF06FFE364BDFED366AB9FBF0F052
:10BAE000A3FB0434E40807EE904AF8EEE77A022854
:10BAF00086EEA77AB8BF022088F8B8030024B6EE15
:10BB0000008A88EDEF7A07EE904AB8EEE70A013432
:10BB100020EE090A32F086FC38EEC00A202C20EE16
:10BB2000080AA7EC010AEED107EE905AF8EEE77A80
:10BB3000F7EE006A86EEA77A1F4B204AC6F8503906
:10BB400003F12801A833C6F84C191020C6F85C3957
:10BB50002021142386F8AD57A6F84809A6F85819ED
:10BB600007EE90AAF8EE677AA6F8543982ED007ACB
:10BB7000C2EDAC7AC2EDAD7AC2EDAE7A02B0BDECE8
:10BB8000048BBDE8F0870E4A82F818317EE798F8FA
:10BB9000B053B8F8AEA3014EC6E700BFB8360020D8
:10BBA0000AD7233C002474493C8C4F3E704B002044
:10BBB000ABAAAAAADB0FC94108E00408683E00202E
:10BBC00098010020B04700202DE9F0412A4C2B4D70
:10BBD000B4F84464A5F8F06982B0EEB994F8400472
:10BBE0002CF026FA94F84124C5F8F409003A18BF5D
:10BBF000012285F8F22948B194F842142B22002939
:10BC000014BF11210121C28027F06CFF002002B077
:10BC1000BDE8F0412CF024BD94F840840022404659
:10BC20002B2127F0B5FD074640462CF001FAF8B16C
:10BC3000F7B12B22C5F80C0AC280797AFDF718F803
:10BC40004FF000080E4AB2FBF6F3C3F34F0000902A
:10BC50009BB23946CDF8048005F6F810A4F8466486
:10BC600020F01AFED5F8F839C3F8008085F8098A63
:10BC700002B0BDE8F08100BFB0470020C025002021
:10BC800040420F002DE9F84F254C94F8543484F8C5
:10BC9000483404F24B47002604F58D645FFA86FBB6
:10BCA0000BF101085FFA88F8012117F8010F4246ED
:10BCB0000E448A4627F06CFD4FF00009054640B35C
:10BCC000387804F80E9C04F80D9C04F80FBC04F8B6
:10BCD00010AC44F8045C2CF0ABF918B180F806A065
:10BCE00080F80780697AFCF7C3FF0E4A00212846D6
:10BCF00027F058FB0C4B23600C4B221D2146284695
:10BD0000C4E9013927F06EFA697928684A4620F0BB
:10BD1000F1F9082E04F11C04C0D1BDE8F88F00BF72
:10BD2000B047002040420F002DC102080128020840
:10BD300070B52D4C2D4B94F88005C4F87835002251
:10BD40000221C4F83825C4F83C25C4F84025C4F8BD
:10BD50007425A4F87C2527F01BFD002838D094F822
:10BD60009525036805461AB1D4F88825934230D04A
:10BD700094F8AD251AB1D4F8A025934229D0002318
:10BD800094F88005C4F8645484F858342CF050F9C1
:10BD900008B10223C380697AFCF76AFF2846144A77
:10BDA000002127F0FFFA134A1349C4F8681400264B
:10BDB000111F2846114BC4F86C34C4F8706427F086
:10BDC00011FA697928683246BDE8704020F092B9CE
:10BDD00070BD1B8D0A49D4F8B4259BB20133B2FB68
:10BDE000F3F381F81931CAE7B047002000FFFF00E4
:10BDF00040420F001C4C002029280208C9290208D3
:10BE0000980100202DE9F04FD04DD14CDFF88493FC
:10BE100084460F4616460FCD2DED048B0FC40FCD73
:10BE20000FC495E807008BB099F87636039684E83E
