:020000040800F2
:10000000F0FF0120A157040811BA00086965030830
:100010001958040819580408195804080000000069
:100020000000000000000000000000000DBA000801
:1000300009BA00080000000005BA0008997B03080F
:1000400019580408195804081958040819580408BC
:1000500019580408195804084D81030861810308E0
:100060005D8103085981030855810308E13A0408BA
:10007000D13A0408C13A0408B13A04089D3A040888
:10008000893A0408753A0408195804080000000069
:100090000000000000000000000000005181030883
:1000A0002D6A03087D6A03081D6A0308A56A030810
:1000B0006D6A03085D6A03084D6A030895470408E2
:1000C0009D47040889470408914704081958040803
:1000D00019580408E97B0308D97B030800000000D5
:1000E0004981030819580408F900010800000000BC
:1000F000000000000000000000000000613A040859
:1001000000000000195804083D6A03081958040843
:1001100000000000000000000000000000000000DF
:100120004D3A0408393A0408253A0408113A0408FB
:10013000FD3904080000000000000000000000007D
:100140000000000000000000000000006DD4000866
:10015000E9390408D5390408C139040819580408D4
:100160007D470408854704080000000000000000E7
:10017000000000000000000000000000000000007F
:1001800000000000195804080000000000000000F2
:0801900019580408195804086D
:080198004053040001000000C7
:1001A0000B3001001A000000702D00203C60002080
:1001B00000000000780800081F3001002400000043
:1001C000342D002058600020000000009408000832
:1001D00005020100040000006C5D00207C6000202E
:1001E00000000000B8080008030101000A00000038
:1001F0009C2C00208060002000000000098C00087A
:100200001302010004000000942000208C600020F4
:1002100000000000BC0800080D10010040000000B4
:100220001C4C002090600020000000003D350308B9
:10023000090201000100000098560020D060002053
:1002400000000000C00800080610010024000000A3
:10025000A0560020D46000200000000099FE030892
:100260002C00050014000000CC4B0020F86000209A
:100270000000000031060208F9010100040000003E
:10028000A84B00200C610020000000006D6F0308E7
:10029000FD010100240000007C4B002010610020C3
:1002A00000000000076F0308FB01010001000000CF
:1002B000104B002034610020000000006DFE030898
:1002C000FC01010009000000DC4900203861002029
:1002D000000000007DFE0308F70101000600000099
:1002E000B04900204461002000000000C20800085E
:1002F0000A80010036000000D84800204C61002030
:100300000000000029960108110201000800000009
:10031000AC4800208461002000000000C8080008EC
:100320001212010004000000A44800208C6100208B
:1003300000000000D0080008182001003000000074
:10034000744800209061002000000000CDFF0308E9
:10035000204201009000000014370020C0610020FE
:1003600000000000750702080202010003000000FF
:100370002036002050620020000000000000000035
:100380000C02010004000000DC3500205462002053
:10039000000000002DF203081220010011000000EF
:1003A000083200205862002000000000D408000835
:1003B000000201000B000000442F00206C620020AE
:1003C0000000000025F20308FE01010014000000F7
:1003D000044E00207862002000000000CDF10308E8
:1003E000010201000B000000246F0020508100205A
:1003F0000000000015F203081B02010010000000BD
:100400000C6F00205C8100200000000081F20308D6
:100410001B1001000C000000D06500206C81002042
:1004200000000000A938010821020100E0000000DE
:10043000386400207881002000000000811C010841
:100440002312010010000000106C002058820020D0
:1004500000000000E8080008371001002E0000002E
:100460007C6E00206882002000000000F808000870
:100470000E020100020000000C6C00209882002097
:1004800000000000260900082F10010022000000D3
:100490002C8100209C820020000000002809000818
:1004A0001E00010009000000446B0020C0820020F3
:1004B000000000004A0900080510010006000000C5
:1004C000346B0020CC82002000000000540900089A
:1004D000F581010068000000C8630020D48200207C
:1004E00000000000952A0108FD07010074000000CB
:1004F000126300203C8300200000000081070108F7
:10050000261001000E000000C0830020B0830020F0
:1005100000000000F10501082B001200240000007B
:100520007C930020349400200000000001060208A3
:100530001C0202001C0000006C9100205894002056
:100540000000000089FD0308012001000C000000EC
:100550002486002074940020000000005C0900083C
:100560000C200600A80000002885002080940020B0
:1005700000000000099102080EF006008001000052
:10058000888800202895002000000000E11502085E
:100590001300010004000000948E0020A8960020A3
:1005A000000000006809000823200100100000007E
:1005B000AC870020AC960020000000008D9601085A
:1005C00000010100040000005C840020BC960020B3
:1005D000000000006C090008020101000300000097
:1005E00058840020C09600200000000035910208C9
:1005F000220201001C0100007C8C0020C496002017
:100600000000000015FF0308EC031D00AE00000011
:10061000C8B0002028B20020000000000000000048
:1006200010100100020000001CB20020D8B200200F
:10063000000000007009000819000100050000001A
:1006400088AF0020DCB20020000000007209000822
:10065000EB03200080010000E0AB0020E4B20020AA
:100660000000000000000000E90301002C00000071
:1006700020AA002064B400200000000078090008CF
:100680002A00080060000000D0A8002090B40020DC
:10069000000000004D070208340001000A000000BD
:1006A000C4A80020F0B4002000000000311F0208A0
:1006B0002920140078000000709A0020FCB400206B
:1006C0000000000000000000EA030100010000003B
:1006D0002CBF002038BF00200000000000000000F8
:1006E000020001000C00000020BF00203CBF0020E1
:1006F0000000000000000000F62101000C000000D6
:10070000DCBD002048BF002000000000A409000854
:10071000F82101000100000018BF002054BF002094
:1007200000000000B009000825201E002C01000078
:10073000ECBD002058BF00200000000000000000B9
:10074000290201004000000064B7002084C000209E
:1007500000000000B20900080A02010014000000B5
:10076000FCBC0020E4C0002000000000B1A702088B
:100770001A0201003C000000C4C7002004C9002088
:10078000000000003D000408031201003D000000CD
:1007900084C7002040C9002000000000F2090008C2
:1007A0003810010001000000A0C4002080C9002012
:1007B00000000000300A00082802040004000000C5
:1007C00024D0002038D00020000000007DF2030873
:1007D000270204000400000020D000203CD00020AC
:1007E0000000000071F20308160215003F0000002F
:1007F00084C9002040D00020000000005DFF0308F5
:100800001D02020006000000D8DA0020FCDA0020F9
:100810000000000000000000060203000C000000C1
:10082000F0DA002004DE00200000000049FE03088A
:10083000081203000F000000E0DA002010DE0020A4
:100840000000000045F203081F020800100000002D
:100850006CD2002020DE002000000000F5F103082B
:10086000161001000400000068D2002030DE0020D5
:0808700000000000320A00083C
:10087800AE014A015E012C01640101000000010083
:100888000A019A01001E0A00000000000000000092
:100898000001000000050000010203000000000044
:1008A80000000000000000000000000000800700B9
:1008B800000000000000013F0000220100000000CD
:1008C8000000000001010101FFFFFFFF000000011F
:1008D8000001054D4B343100000800020000000003
:1008E8000000000000000000000000000000000000
:1008F80020003200C800D0079600140032002800FB
:100908004C0440060005500014000F000800640065
:100918000100000005000A000000F4019600000034
:1009280000000000000000000000000000000000BF
:1009380000000000000000000000000000000000AF
:100948000000000501000000000000002000030175
:1009580000000000E8036400040A000114001E00FF
:100968004804040090010000000500002801000070
:100978000100D007E8036400140014001E000A00F8
:10098800000000000A0014001400640014001400A1
:10099800000000002800640096000000000000002D
:1009A8000100000002020000020000000000000038
:1009B800000000000000000000000000000000002F
:1009C800000000000000000000000000000000001F
:1009D800000000000000000000000000000000000F
:1009E80000000000000000000000000000000000FF
:1009F80000000000000000000000000000000000EF
:100A080000000000000000000000000000000000DE
:100A180000000000000000000000000000000000CE
:0E0A280000000000000001000000C4090000F2
:100A36000403090412010002EF0201408304563246
:100A4600000201020301000012010002020200403E
:100A560083044057000201020301000009026400FA
:100A6600030100C03209040000010300000009214F
:100A7600110100012236000705830309000A080B4D
:100A8600010202020100090401000102020100053F
:100A96002400100105240100020424020205240694
:100AA6000102070582030800FF09040200020A008A
:100AB6000000070501024000000705810240000012
:100AC60009024300020100C03209040000010202CB
:100AD600010005240010010524010001042402027E
:100AE6000524060001070582030800FF090401002A
:100AF600020A000000070501024000000705810206
:100B060040000000FF00000000FF000000000000A1
:100B16000000AA550701000001AA550501000008BA
:100B26008C8C0408FF1FFF1F7D00000008000101D8
:100B36000000803F05010905A101A100050109305A
:100B4600093109320933093509340936093715815E
:100B5600257F7508950881020509190129081500E0
:100B66002501950875018102C0C000000902220016
:100B7600010100E03209040000010301020009211D
:100B8600110100012236000705830309000A00004F
:100B96000000040100000000000000021000000038
:100BA6000700000000000000010203040102030424
:100BB60006070809BDBB000879C20008F1BD000898
:100BC6003583000809890008458300086183000809
:100BD6000D830008FD8200080000000000000000F0
:100BE6001982000815820008118200080582000893
:100BF600018200080D820008098200088D82000823
:100C060081820008598200086D820008458200082A
:100C1600318200081D8200082D202D2D202D2D2D1E
:100C26002D202D2D2D2D00000000000000000000BD
:100C360000000000000000AA550B010000AA55059F
:100C4600010000AA550902000000AA5503009F00F2
:100C560001000000C0120000346000200000000007
:100C66000C600020000000000100000000000100F0
:100C7600E0017EFFFFFFFFFFFF000000FFFFFFFF19
:100C860008FFFF0060F40408DCF30408000000001D
:100C9600BD910208A08601000400000000000000CB
:100CA600000000000000000000000000000000003E
:100CB600000000000000000000000000000000002E
:100CC6000000000060F4040868F404080000000056
:100CD60099EE0208E803000004000000000000008E
:100CE60000000000000000000000000000000000FE
:100CF60000000000000000000000000000000000EE
:100D06000000000070F4040800000000000000006D
:100D1600A5A202087D000000FF0000000000000000
:100D260000000000000000000000000000000000BD
:100D360000000000000000000000000000000000AD
:100D460000000000D4690508000000000000000053
:100D5600B99202087D000000FF00000000000000BC
:100D6600000000000000000000000000000000007D
:100D7600000000000000000000000000000000006D
:100D860000000000700205080000000000000000DE
:100D9600B56302087D000000FF00000000000000AF
:100DA600000000000000000000000000000000003D
:100DB600000000000000000000000000000000002D
:100DC6000000000078F404080000000000000000A5
:100DD600E13A0308E80300000300000000000000F9
:100DE60000000000000000000000000000000000FD
:100DF60000000000000000000000000000000000ED
:100E0600000000007CF40408000000000000000060
:100E1600ED4C02081027000003000000000000004F
:100E260000000000000000000000000000000000BC
:100E360000000000000000000000000000000000AC
:100E460000000000206605080000000051FD0108B2
:100E56003D4103085F760000050000000000000029
:100E6600000000000000000000000000000000007C
:100E7600000000000000000000000000000000006C
:100E8600000000009869050800000000000000004E
:100E9600B56A0308102700000100000000000000EA
:100EA600000000000000000000000000000000003C
:100EB600000000000000000000000000000000002C
:100EC6000000000088F40408000000000000000094
:100ED6009DEE0208E8030000050000000000000087
:100EE60000000000000000000000000000000000FC
:100EF60000000000000000000000000000000000EC
:100F06000000000094F40408000000000000000047
:100F160051A90208204E0000030000000000000056
:100F260000000000000000000000000000000000BB
:100F360000000000000000000000000000000000AB
:100F460000000000A4F404080000000000000000F7
:100F5600EDA70208204E000003000000000000007C
:100F6600000000000000000000000000000000007B
:100F7600000000000000000000000000000000006B
:100F860000000000B4F404080000000000000000A7
:100F96001D3E0308400D0300030000000000000092
:100FA600000000000000000000000000000000003B
:100FB600000000000000000000000000000000002B
:100FC60000000000C4F40408000000000000000057
:100FD600713803081027000001000000000000001F
:100FE60000000000000000000000000000000000FB
:100FF60000000000000000000000000000000000EB
:101006000000000008F404080000000000000000D2
:10101600E54401081027000003000000000000005E
:1010260000000000000000000000000000000000BA
:1010360000000000000000000000000000000000AA
:1010460000000000CCF404080000000000000000CE
:101056001DED020850C30000010000000000000062
:10106600000000000000000000000000000000007A
:10107600000000000000000000000000000000006A
:1010860000000000D4F40408000000000000000086
:101096002D190308A86100000100000000000000EF
:1010A600000000000000000000000000000000003A
:1010B600000000000000000000000000000000002A
:1010C60000000000E0F4040800000000000000003A
:1010D60005EF0208A00F000001000000000000005C
:1010E60000000000000000000000000000000000FA
:1010F60000000000000000000000000000000000EA
:1011060000000000ECF404080000000000000000ED
:10111600FD79010810270000010000000000000012
:1011260000000000000000000000000000000000B9
:1011360000000000000000000000000000000000A9
:1011460000000000F8F404080000000000000000A1
:101156006D7201081A410000010000000000000045
:101166000000000000000000000000000000000079
:101176000000000000000000000000000000000069
:1011860000000000FCF4040800000000000000005D
:10119600898C0008204E00000100000000000000BD
:1011A6000000000000000000000000000000000039
:1011B6000000000000000000000000000000000029
:1011C60000000000F0F3040800000000000000002A
:1011D60005C8010850C3000001000000000000001F
:1011E60000000000000000000000000000000000F9
:1011F60000000000000000000000000000000000E9
:101206000000000008F504080000000000000000CF
:10121600F5930008400D03000000000000000000E8
:1012260000000000000000000000000000000000B8
:1012360000000000000000000000000000000000A8
:101246000000000010F50408000000000000000087
:10125600D9EC0208400D0300000000000000000069
:101266000000000000000000000000000000000078
:101276000000000000000000000000000000000068
:101286000000000018F5040800000000000000003F
:101296005D85010850C30000030000000000000047
:1012A6000000000000000000000000000000000038
:1012B6000000000000000000000000000000000028
:1012C6000000000024F504080000000000000000F3
:1012D6006DBB020840420F00000000000000000045
:1012E60000000000000000000000000000000000F8
:1012F60000000000000000000000000000000000E8
:101306000000000030F504080000000000000000A6
:10131600DDEE020850C300000000000000000000DF
:1013260000000000000000000000000000000000B7
:1013360000000000000000000000000000000000A7
:101346000000000001FF010001000000D98D010826
:1013560000000000000000009C940408000000004B
:10136600000000000000000064A704080000000060
:1013760000000000000000001CA804080000000097
:101386000000000000000000C8A7040800000000DC
:1013960000000000E19A01084D880020D6010000F7
:1013A600388B00208C8B00200101000021B401083D
:1013B6000000000000000000F0A8040849B701087A
:1013C6000000000000000000A8A804082D202D2D14
:1013D600202D2D2D2D202D2D2D000000000000008C
:1013E600000000000000000000000000FFFFFFFFFB
:1013F60025A001080000000000000000F4A6040873
:1014060001000000FA0000000100000001000000D9
:101416000101000000010101000100001C860020FE
:101426000000F401010000001A8600200000F4010B
:1014360001000000188600200000F40101000000F1
:10144600168600200000F40101000000148600202A
:101456000000F40101000000128600200000F401E3
:1014660001000000108600200000F40101000000C9
:10147600C99401088D940108000000006C950408C9
:1014860000860020053201000E8600206400F4016B
:10149600010000000C8600206400C4090100000061
:1014A600FE850020E803D00701000000FC8500202F
:1014B600E803D00701000000FA850020E803D00702
:1014C60001000000F88500201E00B80B0100000096
:1014D6000686002005000F00010000000886002097
:1014E60003000A0001000000F68500201E00F4013A
:1014F600010000000A86002002000000F89504089A
:10150600F48500201400640001000000028600201B
:101516003200E80301000000F28500200000C80048
:101526000100000028FA040830FA0408AC6500201F
:101536000100C40900000000AA6500200100C409DA
:1015460000000000A86500200100C409000000009A
:10155600A66500200100C40900000000A065002067
:101566000100C40900000000A26500200100C409B2
:10157600000000009E6500200100C4090000000074
:101586009C6500200100C409000000007B84002047
:1015960000C801007A84002000C801007884002079
:1015A6000000FFFF0A000000768400200100C8004A
:1015B6000100000074840020320030753200000003
:1015C600728400207EFF1400050000007084002055
:1015D60005002C01050000006E840020055A050058
:1015E6006B84002000FF01006D84002002000000D3
:1015F6008C0C00206984002003000000C88E0408BB
:101606006A84002000FF01006C84002002000000B4
:101616008C0C00206884002003000000C88E04089B
:101626001D940108AD93010800000000049604080B
:1016360034860020EE02CA0801000000328600202F
:1016460000C80100640000003186002000C80100C7
:101656006400000030860020020000001097040895
:10166600628400200083007D050000006084002065
:1016760080C1803E050000005B84002000FF010061
:10168600548400206400F40101000000528400200C
:10169600030000001C97040851840020020000008B
:1016A6002C970408FD8400200D00000038970408DC
:1016B600FA84002000640100F8840020320010271C
:1016C6000A000000F78400200D0000003897040887
:1016D600F68400200D00000038970408F5840020E9
:1016E60002000000709704083A8600203E000000C1
:1016F6007C970408388600200100FF7F0100000067
:10170600378600200200000078980408FF84002035
:101716000300000088980408FE84002003000000EF
:1017260088980408168500200000E80301000000E0
:10173600148500200000E803010000001285002047
:101746000000E80301000000108500200000E80307
:1017560001000000088500200000E80301000000E9
:101766000E8500200000E803010000000C85002023
:101776000000E803010000000A85002000140100B3
:101786002485002002000000989804082285002085
:101796000000F40101000000208500200000F40193
:1017A600010000001E8500200000F4010100000079
:1017B6001C8500200000F401010000001A850020AD
:1017C6000000A00F01000000188500200000A00FF7
:1017D60001000000DD85002019640100DC85002081
:1017E60002000000A4980408D885002000640100C7
:1017F6000A000000D7850020006401000A000000EE
:10180600D6850020006401000A000000DB85002068
:1018160000FF01000A000000DA85002000FF010039
:101826000A000000D985002000FF01000A00000020
:10183600D585002001FF01000A000000D4850020A4
:1018460001FF01000A000000D385002001FF01000E
:101856000A000000068500200000A00F010000001D
:10186600048500200000A00F010000000285002072
:101876000000A00F01000000008500200000A00F5E
:10188600010000000E8A0020013201000D8A0020AE
:1018960001000000B09804080C8A00200400000033
:1018A600B89804080B8A002000C801000A8A0020A4
:1018B60000C80100098A002000C80100088A00202B
:1018C60000320100108A0020004B01000F8A002020
:1018D60004000000CC9804081E8A00200000D007EF
:1018E60001000000198A002000C80100188A0020A3
:1018F60000C80100178A002000C801001C8A0020C9
:101906000000D00701000000168A002000C8010070
:10191600158A002000C80100148A002000C80100B2
:101926001A8A00200000D00701000000138A002058
:1019360000C80100128A002000C80100118A002098
:1019460000C801009191010879910108000000008A
:10195600E0980408F284002000C80100F08400200A
:10196600E803D007010000000000000000000000AE
:101976007DDF01087C9904084D4154454B463431BE
:101986003100000067840020000301006684002007
:1019960000030100CD9001088190010800000000BD
:1019A600D099040841900108F98F01080000000051
:1019B6006C9A04081991010809A0010800000000AA
:1019C600EC9A040864840020010301007195010863
:1019D6004595010800000000349E04088D8F01081B
:1019E600518F010800000000A49E0408A19101087F
:1019F600B5BF010800000000249F04081D9B0108D4
:101A06009D95010800000000CC9F0408F191010893
:101A160000000000000000004CA004089592010898
:101A26005592010800000000B0A0040811930108B7
:101A3600D5920108000000004CA10408D10002085C
:101A46004D93010800000000D8A10408F08500208D
:101A5600010601002D920108059201080000000010
:101A66009CA204086100020881A101080000000090
:101A760000A3040821010208E9A1010800000000F2
:101A8600A8A30408EF85002001060100559101086E
:101A960031910108000000007CA4040875010208C9
:101AA6000000000000000000D0A40408C98F01084F
:101AB600F19F01080000000050A504080000000086
:101AC6000000000000000000DCA504088593010862
:101AD60061A20108000000004CA6040800000000F6
:101AE600000000000000000064A80408185D002043
:101AF6009CFF2C01000000002C8E0020E0150C1726
:101B060000000000E2870020020000009CA80408F4
:101B16004C84002088136F17010000004E840020BB
:101B260088136F17000000008E2C002000000000B4
:101B3600000000008C2C00200000000000000000C7
:101B46008A2C00200000000000000000882C0020E5
:101B56000000000000000000862C002000000000AD
:101B660000000000842C002000000000000000009F
:101B7600BC0300200000000000000000D483002009
:101B8600030000008CA904084484002088136F1702
:101B960001000000625D002088136F17000000003E
:101BA600918E010800000000000000009CA90408B6
:101BB600E387002001000000F0A90408645D00200E
:101BC60001000000FCA904085A5D00200200000084
:101BD60004AA040800000000000000000000000045
:101BE60010AA0408798E0108000000000000000019
:101BF600ACAA04080000000000000000000000007D
:101C060000AB040800000000000000000000000017
:101C160070AB04085084002002000000A8AB040842
:101C26005E5D0020E0150C17000000000000803FFC
:101C36000000000000000000000000000000803FDF
:101C4600000000000000000000000000000000008E
:101C5600000000000000000000000000000000007E
:101C660000000000010000000000FA430000FA43F3
:101C7600A13A030800000000000000000000000078
:101C860000000000D4C00020080000000000000092
:101C9600C4C000200800000020000000FFFFFFFF76
:101CA60002010000A00F0000B80B00000102FFFFB8
:101CB60001000000685E0C00D5880008B5870008A2
:101CC600D1BD000800000000F982000889BB0008A9
:101CD6002D870008FDBA0008000000000000000083
:101CE600B582000845880008758700081DBD0008F4
:101CF60000000000CD82000801BB00080187000833
:101D060059BA00080000000000000000C182000867
:101D1600FF000000FFFF000014660508000008022F
:101D260005030300000000001C6605080100080208
:101D36000504030000000000701305080200FE0100
:101D460001100300000000007CFD040803001402DB
:101D560000030000000000002466050804001F02BE
:101D660002000800000000002C66050805001F029E
:101D76000201080000000000FFFFFFFF00600240B4
:101D8600106002400000000000000000000B000090
:101D9600000000000000000000000000006002409B
:101DA600286002400100000000000000060C000050
:101DB600000000000000000000000000006002407B
:101DC600406002400200000000000000100D00000C
:101DD600000000000000000000000000006002405B
:101DE600586002400300000000000000160E0000CC
:101DF600000000000000000000000000006002403B
:101E0600706002400400000000000000200F000087
:101E1600000000000000000000000000006002401A
:101E26008860024005000000000000002610000047
:101E360000000000000000000000000000600240FA
:101E4600A060024006000000000000003011000003
:101E560000000000000000000000000000600240DA
:101E6600B86002400700000000000000362F0000A6
:101E760000000000000000000000000000640240B6
:101E8600106402400000000000000000003800005E
:101E96000000000000000000000000000064024096
:101EA600286402400100000000000000063900001E
:101EB6000000000000000000000000000064024076
:101EC600406402400200000000000000103A0000DA
:101ED6000000000000000000000000000064024056
:101EE600586402400300000000000000163B00009A
:101EF6000000000000000000000000000064024036
:101F0600706402400400000000000000203C000055
:101F16000000000000000000000000000064024015
:101F2600886402400500000000000000264400000E
:101F360000000000000000000000000000640240F5
:101F4600A0640240060000000000000030450000CA
:101F560000000000000000000000000000640240D5
:101F6600B86402400700000000000000364600008A
:101F7600000000000000000000000000FF0100005B
:101F8600F401000048EF0408000000000000000013
:101F960001020304060708090100000008170020D3
:101FA600000000000000000000000000000000002B
:101FB600000000000000000000000000000000001B
:101FC600000000000000000000000000000000000B
:101FD60000000000000000000000000000000000FB
:101FE60000000000000000000000000000000000EB
:101FF60000000000000000000000000000000000DB
:082800000000000000000000D0
:10800000037830B403B30246C0F10105531912F8E6
:10801000014FDBB2002CF9D101335B00DAB20C4C1A
:108020000B80032322706370017859B1022300256D
:108030005A1CD2B2E154A55410F8011F0233DBB22E
:108040000029F5D130BC704702221346E7E700BF94
:1080500068170020084AD2E9403199421FBFD11861
:10806000013391F8081101701DBFC3F30A03012009
:10807000C2F800310020704768170020064AD2F885
:108080000839D2F80C29934294BF4FF400600020C5
:10809000013B9B1A1844704768170020012380F8A1
:1080A0005130704707B501A8FFF7D4FF0028FAD078
:1080B0009DF8040003B05DF804FB044BD3E94003D2
:1080C000984288BF03F50063181A704768170020AC
:1080D00001207047024BC3F81029C3F814197047E8
:1080E00068170020024BC3F81829C3F81C19704701
:1080F000681700207047704730B4134DD5E940230E
:108100009A4286BF03F50064A21A9A1A0A44B2F58D
:10811000006F13D8A9B101444A1E013810F8014F6D
:10812000E918824203F1010381F80841C3F30A030D
:10813000F4D1C5F80431002030BC7047022030BCB7
:1081400070470846F8E700BF68170020212838B5B7
:108150000C4605D022282ED0202813D0002038BD70
:108160000029FBD0072AF9D11A4BD3F8200993F83C
:10817000241993F8252993F826392060217162711A
:10818000A371EBE70029E9D0072AE7D1114DD5F813
:1081900014391BB10968D5F810099847206821796E
:1081A0006279A379C5F8200985F8241985F825296D
:1081B00085F82639D2E70029D0D0022ACED1054A47
:1081C000D2F81C39002BC9D00988D2F81809984771
:1081D000C4E700BF68170020024B0020C3F828093D
:1081E000704700BF68170020044B00200522C3F829
:1081F0002829C3F81C09C3F8140970476817002020
:10820000704700BF704700BF704700BF704700BF96
:10821000704700BF704700BF704700BF08B50248F5
:10822000FFF7EEFE014808BD78EF0408681700204C
:1082300008B50248FFF7E4FE014808BD88EF0408CE
:108240006817002008B50248FFF7DAFE014808BDAC
:1082500094EF04086817002008B50248FFF7D0FE25
:10826000014808BDA0EF04086817002008B50248BF
:10827000FFF7C6FE014808BDACEF040868170020F0
:10828000042301480B8070479801002010B4074A6E
:10829000074B92F82C09122403F114020C800128D8
:1082A0000CBF184610465DF8044B70476817002055
:1082B0009C010020642301480B807047C40100200A
:1082C000432301480B8070472802002010B5084C5A
:1082D000D4F8D400FF2809D00649D1F8302901F696
:1082E0003411FFF733FFFF23C4F8D430002010BD52
:1082F0009801002068170020E8E700BF08B5D0F813
:10830000E4355B6A9847002008BD00BF08B5D0F887
:10831000E4351B6A9847002008BD00BFD0F8E4355B
:1083200010B504461B689847D4F8E8359B68984711
:10833000002010BD08B5D0F8E435DB6903B19847DB
:10834000002008BD08B5042290F81211D0F8E835D5
:1083500080F8131180F81221DB689847002008BDCF
:1083600010B5D0F8E83504461B699847032384F814
:108370001231002010BD00BF0B0617D401EB8103A2
:1083800000EBC30310B400EB81000124002283F84A
:10839000764383F8741383F87523426D5DF8044BBC
:1083A000136843F4001300201360704701F07F014D
:1083B00001EB810300EBC303012200EB810083F892
:1083C0001C1183F81E2183F81D2182691368002B7C
:1083D00001DA43F0804343F4001313600020704738
:1083E00082B00023016801930B6901930E4B03E0F7
:1083F0000A690192013B13D0019A002AF8DA019A26
:10840000094B42F001020192019A0A610A69019244
:1084100003E00A690192013B02D0019AD207F8D425
:10842000002002B0704700BF400D0300436D064AB4
:108430001A61C278012A06D100F2CC5058614FF07F
:10844000802219681A6070471800086010B58021F2
:108450000446FFF791FF20460021FFF78DFF2046DD
:10846000BDE81040E2E700BF70B44B78012B24D088
:108470000B784D6900EB83035A6D14681369D5B10D
:108480008D684D6123F4002305F07F0523F07F0301
:1084900045F400252B431361C378012B04BF0B69FE
:1084A0005361C4F3076363F07B0363F31F641460D9
:1084B000002070BC70478D68E4E782694D691468DC
:1084C000136915B38E68B5428CBF66F3060365F376
:1084D000060343F4002388BF4E611361C378012B68
:1084E0001DD0C4F3076565F07B0565F31F64146058
:1084F000002BDDD14B69002BDAD002690878516B73
:10850000012383400B435363D2E723F4002323F07A
:108510007F0343F400231361C378012BE1D10B786F
:108520000D6900EB8300C4F30763816963F07B038B
:1085300063F31F644D610020146070BC704700BF7E
:108540002DE9F0434A78012A32D00B784A6900EBD2
:1085500083035C6D2368266912B38D682A44013A4F
:10856000B2FBF5F2C2F3090205FB02F5C5F31205F1
:1085700062F3DC464D6165F312062661C278012A7A
:1085800004BF0A696261CA78012A47D0C3F307624F
:1085900062F07B0262F31F6323600020BDE8F0837A
:1085A0008A68C2F3120242F4002262F31C06E4E776
:1085B00091F800804F6900EB880EDEF818C0DCF8F7
:1085C0000030DCF8106077B3D1F80890384C07EB36
:1085D0000905013DB5FBF9F504EAC545C7F31204E9
:1085E0002C43CD7806F060463443012D26464AD010
:1085F000CCF81040C478012C56D00169486B02FABF
:1086000008F202434A63C3F3076262F07B0262F33B
:108610001F63CCF800300020BDE8F0834A797AB3BC
:1086200043F00053B2E706F0604646F40026CD78EA
:10863000CCF81060C278012A30D0012DE3D1006956
:108640008068C00554BF43F0005343F08053C3F328
:10865000076060F07B0060F31F63CCF80030002AF5
:108660009BD1B8B203308010DEF8D04095D0C968F5
:108670001346013351F8042B22609842F9D18CE75C
:1086800043F0805382E765F35E76CCF81060C278E1
:10869000012AD4D10C69CCF81440D0E70C69CCF88D
:1086A0001440012DAFD1CAE70A69CCF81420AAE71B
:1086B0000000F81F38B501EB810400EBC4040D463F
:1086C000002184F87453C4F88C1384F87513C4F82B
:1086D0008833C4F88023C3782821012B01FB0501CE
:1086E00008BFEDB201F55D7108BFC4F884231DB960
:1086F000FFF7BAFE002038BDFFF722FF002038BD8B
:1087000010B501EB8101084A00EBC1010446B1F844
:108710008C131046FFF7F0FC034A2046402301214A
:10872000FFF7C8FF002010BDA4200020E8E700BF2D
:1087300030B44C780022012C154612D0097800EB99
:10874000810401238B40646D63F31F4501696FF35E
:10875000CF322260CB6923EA0503002030BCCB6115
:1087600070470B7800EB83019C4064F30F058C6924
:10877000ECE700BF40F2011310B500F5A27104460A
:10878000A0F84431FFF7D4FF0123A4F89C3304F58B
:1087900067712046FFF7CCFF4FF48173A4F86C316A
:1087A00004F5B6712046FFF7C3FFFFF715FD002063
:1087B00010BD00BF38B540F2031304460D46A0F8C3
:1087C000943100F5CA71FFF7B3FF29462046FFF741
:1087D000D1FF002038BD00BFF0B40A784B7800EB21
:1087E0008205012B0EBFAD696D6D01232E684FF020
:1087F00000040BBF9340934063F30F0463F31F44E3
:10880000330415D48A6891F803C0CF880C49C2F3A9
:108810000A0242F0805343F400430CF0030243EA9F
:10882000824307F00F0243EA825331400B432B602F
:108830000369DA691443DC610020F0BC704700BFB3
:10884000007833EC2DE9F04140F201130446022593
:108850004FF0400801270026A0F84431C0F84C81B1
:1088600080F84751A0F84A7180F8486100F5A2717C
:10887000FFF7B2FF04F56771A4F89C73C4F8A483F2
:1088800084F89F5384F8A0632046FFF7A5FF0822D1
:1088900003234FF48171C4F87421A4F86C1184F897
:1088A0006F3104F5B671A4F872512046FFF794FFBA
:1088B000064B9D83FFF798FC054A43462046394600
:1088C000FFF7F8FE3046BDE8F08100BF98010020B8
:1088D000A420002070B50323092240F203160446A9
:1088E0000D46C0F89C2180F89731A0F89A31A0F885
:1088F000946100F5CA71FFF76FFF29462046FFF724
:10890000A1FF002070BD00BF70B5002540260446C1
:10891000A0F8745380F87753C0F87C6300F55D715C
:10892000FFF75AFF4FF48073A4F81C3104F58E71E1
:10893000C4F8246184F81F51A4F822512046FFF79F
:108940004BFFD4F8E835A078012284F812215B6847
:108950009847284670BD00BF82B000230193019A5A
:10896000094B42F010020192C168019A0A610A693A
:10897000019203E00A690192013B02D0019AD206FA
:10898000F8D4002002B07047400D030082B00023ED
:108990000193019A0B4B42F020020192019A61F37C
:1089A0008A120192C168019A0A610A69019203E080
:1089B0000A690192013B02D0019A9206F8D4002084
:1089C00002B07047400D03000E4BDA68D20310D49A
:1089D000DA68D1060FD4DA68D20510D4DA6812F05A
:1089E000E00F0AD1DB6813F0020F14BF0820092042
:1089F000704701207047062070470720704702200B
:108A0000704700BF003C0240024A536A23EA00005C
:108A1000506270470038024000207047704730B104
:108A2000034B93F97C090028D4BF00200120704734
:108A30006817002008B5FFF7F2FF60B1064A92F808
:108A40007D3992F87E295B0003F00203002A18BFEB
:108A500043F001030B6008BD6817002008B5FFF75D
:108A6000DEFF18B1024BD3F880390B8008BD00BF80
:108A70006817002070B5FFF7D2FF90B1094AB2F82D
:108A8000845975B1D2F888690023B3421C4608DACC
:108A900002EB44040133B4F88C49AC42DBB2F4D3AA
:108AA0000B7070BD6817002008B5FFF7B8FF10B154
:108AB00000230B70137008BD0420704728B1034BCE
:108AC00093F9D800003818BF0120704798010020A2
:108AD00008B5FFF7F3FF50B1054B93F9D820012AF1
:108AE000C3BF93F8DB30C3F340030B60002008BD25
:108AF0009801002008B5FFF7E1FF18B1024B93F889
:108B0000DA300B7008BD00BF9801002070B5FFF788
:108B1000D5FF38B10E4C94F8DB30DB0703D50023CA
:108B20000B70137070BD0B4D94F9D93095F89C699A
:108B300093FBF6F301330B7094F9D94095F89C1927
:108B400094FBF1F301FB134301331370EAE700BF19
:108B500098010020681700200320704770B50B4A69
:108B600092F8A03906255E1CB6FBF5F405FB1464EB
:108B700092F8A159AC421FBF02EBC30382F8A0498F
:108B8000C3F8A409C3F8A81970BD00BF6817002076
:108B9000002230B504461046914200DC30BDA35C93
:108BA0000825584010F0800F4FEA400318BF83F0AB
:108BB000D503013DD8B2F5D10132EDE710B5E9B1E9
:108BC0000F4BD3F8D409814218DCBAB1D3F89C39E1
:108BD0009A4213DC0B4C013A013903FB012184F862
:108BE000E61004F1E2000521FFF7D2FF062184F828
:108BF000E70004F1E200BDE81040AFE710BD00BFA0
:108C00006817002098010020002303808370838070
:108C1000C3800372704700BF30B4114B93F8E8195A
:108C200093F8244CC3F8200C002503F6DC108C22AA
:108C300083F8E659092C02FB01324FF00A05C3F80C
:108C4000D8094FF0010083F8E75983F81C0C08BFDE
:108C5000091830BC82F8EE0908BFA3F8281C704739
:108C600068170020074A92F8E83992F8301C01335F
:108C7000DBB2994282F8E83904BF002382F8E83970
:108C8000704700BF68170020F8B5694CD4F8343C31
:108C900053B3D4F8383C93F82E302BB3654B94F88B
:108CA0001C2CA3FB00139D09002A79D0012A1BD19B
:108CB000D4F8203C6433AB4217D894F8E83904EB7D
:108CC000031393F83C1CFF291FBF5B48013183F855
:108CD0003C1C80F8E820FFF7C5FF2846FFF79CFF03
:108CE00094F8243C092B62D0F8BD94F8E62994F856
:108CF000E7399A42F8D104F6DB1004F6E4160023B3
:108D000010F8012F082153405A0013F0800F08BFBC
:108D10005B0082F0070214BFD3B2DBB20139F3D19A
:108D2000B042EDD194F8E5299A4249D194F8E86926
:108D3000B4F8DF7994F8E3C9B4F8E10994F8E439B8
:108D400094F8DDE904EB06127FBA40BA43EA0C233B
:108D5000BFB294F8DEC982F83C1CC2F8407C81B2F4
:108D6000354F94F9DC09C2F8441C4CEA0E2C1BB2B6
:108D70000121032EA2F83ECCA2F8483C82F83D0C1B
:108D800087F8E81009D894F8242C0C2A3AD00D2A38
:108D900003D104EB4604A4F8280CFFF763FF02E0BC
:108DA000264B9842A0D92846BDE8F84034E7B4F8ED
:108DB000823C01339BB2A4F8823CA4F82A3CF8BD63
:108DC00094F8E83904EB031393F83C2CFF2A06D0FF
:108DD00019490132012083F83C2C81F8E800FFF7A3
:108DE00041FF2846FFF718FF94F8243C092B7FF435
:108DF0007BAFB4F8803C01339BB2A4F8803CA4F86C
:108E00002C3CF8BDA1190E4A91F87C1C03EB83039E
:108E100003EB83039B0004EB460493FBF1F382FB1B
:108E20000312DB17C3EBA203A4F8283CB5E700BF8D
:108E300068170020D34D6210980100203F4B4C0072
:108E4000676666660B4B93F8E61993F8E72991423B
:108E50000ED010B493F8E629D3F8D849511CD2B2F9
:108E6000C0B2C9B283F8E619A0545DF8044B70474C
:108E7000704700BF68170020FD2870B522D0F02889
:108E800004D0EF2822D00224204670BD114D0320CB
:108E9000052641282E444FF0000405F1010580F01D
:108EA00080030DD0042B0BD9FFF7E6FF2044B54219
:108EB000C4B2E9D015F8010B412880F08003F1D14C
:108EC0000420F3E7044D0B200426E2E7034D0C20B9
:108ED0000626DEE7E4890408E0890408EC89040832
:108EE0000C4BD3F8882CB3F9840C520743BFD3F84A
:108EF000C43C094A323300EB800045BFD81782FBDF
:108F000003124000C0EBA20080B200F5C87080B22E
:108F1000704700BF68170020676666660C4AD2F883
:108F2000E03C30B41C68D2F8D85C5D601981002543
:108F3000611C19609D812070D2F8E03CD2F8D81CE9
:108F40001A685A604FF6F67230BC19609A81704701
:108F50006817002000B583B00268084B8188CDF8FF
:108F600001203222D3F8E43CADF805108DF8002042
:108F70006846984703B05DF804FB00BF68170020FF
:108F80005E2810B511D05D2805D00D4BBDE810400E
:108F9000D3F8E83C18470A4CD4F8E83C9847D4F892
:108FA000E83C3D20BDE810401847054C5D20D4F852
:108FB000E83C9847D4F8E83C3E20BDE8104018470C
:108FC00068170020F8B51A4C94F8EC3C002BFBD144
:108FD00059B301444E1E451ED4F80C29D4F8081983
:108FE00015F8017F531CC3F30A038B422CBF4FF4C7
:108FF00000600020C91A224401440129C4F80C3938
:1090000082F8F07C0FD101202EF0BAFDD4F8083997
:10901000D4F80C198B4294BF4FF4006200225B1A03
:109020001344012BEFD0B542D6D10020F8BD00BFCC
:10903000681700200A4B0846D3F8281910B569B103
:10904000D3F82839052B09D1064C002AD4F8F83377
:1090500004DD1146FFF7B6FFD4F8F83310BD00BFAA
:10906000681700206028002010B590F850100023E9
:1090700080F8503089B10C4CD4F828297AB1D4F852
:109080002829052A0DD1094C3C30D4F8F833FFF7D4
:1090900099FFD4F8F833012010BD0120FCE71046F9
:1090A000FAE71846F8E700BF68170020602800209C
:1090B000002280F85120D7E790F85020531C02443A
:1090C000DBB280F8503082F83C1090F851200AB1A1
:1090D000132B00D9C8E77047024B0146D3F8FC03B5
:1090E0002EF0CCBD60280020F8B505461E201CF0EF
:1090F0006FFE134C0146F0B9D4F8000490F83830F4
:109100001E3B012B01D92EF0B9FD0E4F0026AE42B9
:1091100009DBB4F824340133A4F82434D4F8F83348
:10912000C4F83434F8BD17F8011BD4F800042EF04D
:10913000A5FD0136EBE7002384F83234EEE700BFEB
:1091400060280020642C002038B5154C94F8A13913
:1091500094F8A0299A421CD004EBC303114AD3F817
:10916000A419D3F8A8090023984213DC8B780E4A7F
:109170005B0882F83234C2F83804FFF7B5FF94F880
:10918000A13906210133B3FBF1F201FB123384F85C
:10919000A13938BDCD5C02F8015B0133E4E700BFC3
:1091A00068170020642C0020602800202DE9F84F6B
:1091B0001B4C0546162094F83CA494F83DB494F852
:1091C0003E64B4F84094B4F8428494F844741CF0BB
:1091D000FFFD30B1B8F1000F1EBFC14601264FF0B0
:1091E000000A94F84634DA070AD494F84B243AB9C2
:1091F000012F12D0022F03D113F0020F08BF012656
:1092000085F800A085F801B0AE70A5F80490A5F827
:1092100006802F722846BDE8F88F3E46F0E700BF73
:1092200060280020134B10B400220F2483F872141E
:10923000090A83F8710483F87314C3F87424C3F81B
:109240007824C3F87C2483F8704403F58E600121F0
:1092500010F8014F013122440E29D2B2F8D183F81F
:109260007E240549D3F880045DF8044B10222EF0CB
:10927000E3BC00BF60280020D02C0020054B00215B
:1092800083F88414C3F88814D3F8803403B1C9E791
:10929000704700BF6028002013B50446FFF70EFC9E
:1092A00008B300230DF106022046ADF8063011F098
:1092B000D3FFC0B10D4C9DF8062094F9D81084F866
:1092C000ED20032908BF62F07F024FF00501084836
:1092D00008BF84F8ED20FFF75BFC062184F8EE0060
:1092E0000348FFF73BFC02B010BD00BF980100200F
:1092F000810200202DE9F84F2DED028BFFF7DEFBF8
:10930000002844D0264B93F9D80001283FDD93F87C
:10931000EF40DFF894809FED238A0FF27C0BDBE9AE
:1093200000AB15468E1E02EB44094D4504D1BDEC41
:10933000028B2046BDE8F88F38F8027B26F8027FC2
:1093400007EE907AF8EEE77A67EE887A17EE900AE1
:109350003BF0BEFC52465B463BF012FD41EC100B6D
:109360003FF01EF851EC100B3CF032F80E2F80B29B
:109370000AD919303223B0FBF3F080B200EB800041
:1093800000EB8000400080B225F8020BCDE70024FE
:10939000CDE700BFAFF300801655B5BBB16B0240FF
:1093A00098010020CDCCCC3DEC2C002038B50D46EA
:1093B000FFF784FB044638B10C4890F8DB30DB073C
:1093C00004D5B0F8DC002880204638BD084A90F962
:1093D000D93092F89C2993FBF2F102FB1132013251
:1093E0000131F03011F04CFFEDE700BF9801002093
:1093F000681700202DE9F04FA84D95F89C348BB0EC
:109400008146002B40F0B280D5F8A064002E00F019
:10941000AD80A34AD2F8F44004F0F021B1F1E02F7E
:109420006DD1C2F8F430D5F8A424944267D00493E7
:109430000593ADF81830B5F8403495F83CE4ADF834
:10944000143095F83DC495F8443495F83EA48DF851
:1094500018300DF110088DF810E08DF811C08DF85E
:1094600012A098E8070007AB03C38E4F1A80C4F31D
:1094700042533B44C4F30342997CC5F8A4448E454F
:1094800002F1010201D1944508D030468DF81C103C
:109490008DF81D2011F0F4FEADF82000304612F0DA
:1094A00025F9032804F0070B34D0042835D0002315
:1094B0009A4501A9304618BF8DF81E3011F05AFFA9
:1094C00048B1019BC4F3001103F001038B4202D0A9
:1094D000304611F0FDFF0A2207A940463FF007FA87
:1094E00068B19DF81E30BDF81C2085F83E34BDF8EB
:1094F0002030A5F83C24A5F8403439F0D7F895F889
:10950000A8A404AF95F8A834032B79D8DFE803F0BA
:10951000083174A15F44FB7DCAE75F44FB7FC7E766
:109520003946304611F02CFF044658B107A8FFF722
:109530003DFE9DF81E109DF810308B4260D03046E5
:1095400012F03CF895F8A834013303F0030385F8D2
:10955000A8340CB99A45D5D195F84634DB0700D527
:1095600024B1336849461B68304698470BB0BDE8C4
:10957000F08F01A8FFF71AFE95F846849DF8044085
:1095800008F00108ECB1B8F1000F39D13A460DF1FD
:109590000301304611F0F7FE044688B307A8FFF731
:1095A00005FE9DF81C109DF803309DF81D208B4290
:1095B00003D19DF81030934222D0304612F008F8C3
:1095C000C0E7B8F1000FBDD13946304611F0D5FEE5
:1095D0000446A8B107A8FFF7E9FDBDF82010BDF8C3
:1095E00010308B420CD085F8A98485F8AA843368A2
:1095F00030469B699847A5E795F84634D80701D5CA
:1096000000249FE707A9304611F0B4FE0446002865
:10961000F6D016201CF0DCFB95F8AB348342804674
:10962000EED085F8AB0460B1B5F84234002BE7D139
:10963000079BD907E4D40121304611F049FF444685
:1096400080E7079BDA07DBD50146304611F040FF83
:1096500078E73846FFF7AAFD97E8070007AB03C392
:109660001A809DF810309BB10DF11D0207A93046FC
:1096700011F089FE0DF11E01304611F081FE0A2223
:1096800007A938463FF033F9041E18BF012459E7F3
:1096900008A9304611F071FEECE700BF60280020F9
:1096A00098010020E08904082DE9F041FD2984B0EB
:1096B000044600F0DE80F02900F0BD80EF2900F0C4
:1096C00033814AB10346861803AD002003F8010B2D
:1096D0009E4205F8010BF9D19A4B0B2003F10905C5
:1096E00001E013F8010F814200F0C880AB42F8D1CD
:1096F0004B1E832B00F29380DFE813F0300137011B
:1097000041014C01C201840056016A0176019100B9
:1097100091007C017C017C01920192019201760111
:10972000910091009D01A50191009100910091008F
:1097300091009100910091009100910091009100A1
:109740009100910091009100910091009100910091
:109750009100910091009100910091009100910081
:109760009100910091009100910091009100910071
:10977000910091009100910091009100B70191003A
:109780009100910091009100910091009100910051
:109790009100910091009100910091009100910041
:1097A0009100910091009100910091009100910031
:1097B0009100910091009100910091009100910021
:1097C0009100910091009100910091009100910011
:1097D0009100910091009100910091009100910001
:1097E00091009100910091009100910091009100F1
:1097F00091009100910091009100910091009100E1
:109800001F011F01504BB3F81C15002900F0708197
:10981000019222F039F8019A80B2ADF80C003AB109
:10982000224403AB13F8011B04F8011BA242F9D137
:1098300004B0BDE8F081454F03214FF00508B8445E
:10984000002501370CE0FFF717FB0646601932468A
:10985000FFF72AFF70194745C5B2E9D017F8011B79
:10986000412981F08003084601D0042BEBD804265F
:10987000ECE7374F0B214FF00408E0E7354BD3F806
:10988000883C9B060CD4002AD2D0224403AB13F8A8
:10989000011B04F8011B9442F9D104B0BDE8F0812A
:1098A000294B93F8AC0410F0020F93F8C40440D095
:1098B000052834BF02250325142917D97C39C8B2DD
:1098C0000628E0D80629DED801A050F821F000BF14
:1098D000C39A0008C39A0008AB9A0008879800084A
:1098E000D59A0008CD9A0008DD9A00080929CAD93E
:1098F0000A390A29C7D801A656F821F08D9A00081E
:10990000E59A00088798000887980008879800085B
:1099100087980008879800088798000887980008AB
:10992000A19A0008C39A00080B4F0C214FF00608BB
:1099300085E70B29A7D10125D5E0064BD3F8C03C1C
:1099400003936CE7088A040860280020E48904086F
:10995000E089040868170020EC8904080192FFF7E9
:10996000BFFA019AADF80C0059E7674BD3ED037AC3
:10997000FDEEE77A17EE903AADF80C304FE7634B07
:1099800093F8DF04B3F8CC14002840F0B780ADF8AA
:109990000C1044E75D49B1F8CC3491F8F814B3FBEE
:1099A000F1F3ADF80C303AE7584B93F84614CD0775
:1099B00045BF03F2FC43D3ED037AB3F81C35FCEE4C
:1099C000E77A44BF17EE903A9BB2ADF80C3026E729
:1099D0004E4B4F49B3F9A03581FB0301DB17C3EBB5
:1099E000A103ADF80C301AE7484BB3F8A235ADF837
:1099F0000C3014E7474BDFED486AD3ED007A0C39A1
:109A0000C9B203EB810393ED147A67EEA67A67EE91
:109A1000877AFDEEE77A17EE903AADF80C30FEE665
:109A20003A4B03EB4101B1F87E3503EB83035B0056
:109A3000ADF80C30F3E6354B93F8463403F00103F0
:109A4000ADF80C30EBE6314BB3F8381548075ABF88
:109A5000CB4303F00103032311F0020F18BF0723C8
:109A600011F0080F18BF0923AFE70192FFF738FA8A
:109A70002A4B019AD3F8C83C43EAC0400390CEE693
:109A8000224BD3F82C35ADF80C30C8E6B3F8C0340F
:109A900003EB830303EB83039B00ADF80C30F2E68A
:109AA000B3F8BE34ADF80C30EDE6B3F8BE341C4963
:109AB00003EBC3039B00A1FB03135B09ADF80C3060
:109AC000E1E6B3F8C834ADF80C30DCE6D3F8B434D2
:109AD0000393D8E6D3F8B0340393D4E6D3F8B8347C
:109AE0000393D0E6EDB28DF80C508DF80D00CAE668
:109AF000D3F8340580F3100080B28EE693F8F83482
:109B0000B1FBF3F143E700BF5C2D0020602800208B
:109B1000676666669C2D002000007A446817002066
:109B20001F85EB5100F01F0240090123032803FAAF
:109B300002F304D004280CD0022805D07047074A4D
:109B4000116C0B4313647047044A516C0B4353640C
:109B50007047024A116B0B43136370470038024091
:109B600058B183884FF00042B3FA83F332FA03F31B
:109B70001FBF02490A6813430B607047003C014055
:109B80000E4B30B4DB68427801780D4CDB43C3F3F5
:109B90000223C3F10403DBB202FA03F360181B01D2
:109BA00001F01F050122490903F0F003AA4080F8E3
:109BB000003344F8212030BC704700BF00ED00E0C6
:109BC00000E100E02DE9F04182B00D4604462EF0A0
:109BD000B1FA00284EDB364F364E3B1806EB8000BC
:109BE0000021C0F8A455204693F834802EF068F97F
:109BF000002C5AD0256805F13F4505F57E05C5F3D3
:109C0000872520462EF096FA00F0FC0303F18043EE
:109C100003F59C3300F003009A6880000F21814017
:109C200022EA01029A609A68854015439D60002CE3
:109C300038D0A0884FF00044B0FA80F0C440E2432E
:109C40001D4B1E485C61196811401960596811402C
:109C50005960196821431960996811409960D96861
:109C60000A40DA60036846441C43046096F8E43511
:109C7000F02B02D802B0BDE8F0814744F02197F8FC
:109C800044308DF8043003224FF4807301A886F825
:109C9000E4158DF80520ADF80630FFF771FF02B02E
:109CA000BDE8F0814FF0FF32CAE7FF25A9E700BF0A
:109CB000E089040860280020003C0140083C014085
:109CC00010B4B8B10D4CD4F8EC35102B05D15DF8BB
:109CD000044B052100202EF0FDB903EB4302224482
:109CE00082F8F11501210B4482F8F00582F8F21593
:109CF000C4F8EC355DF8044B704700BF60280020C5
:109D00002DE9F84F2E4F00EBC00407EB8404D4F884
:109D100024662EB1054694F8350600F0FF0820B100
:109D20004FF000084046BDE8F88F89469A469346B2
:109D30002DF0C2FE4FEA49010123C9B284F836165C
:109D400084F837B684F8393684F83A8684F8383699
:109D500084F8353684F83486B288C4F83CA6910578
:109D60008146C4F840A61DD43388DA0510D442F2E7
:109D70000F7405E02DF0A0FEA0EB0903A34215DC53
:109D800033889B05F6D433889BB243F480733380C9
:109D9000B3889BB243F440734FF00108B380404650
:109DA000BDE8F88F98464046BDE8F88FB7F88C3686
:109DB00001339BB22846A7F88C363AF06DFAB1E72A
:109DC0006028002070B5464E96F88E4604EB84035A
:109DD00006EB8303A50093F89036032B6ED8DFE8DB
:109DE00003F059291E02254406EB8505D5F8940693
:109DF000002870D196F8E0369C425FD0013404F020
:109E00000302934286F88E2658D002EB820406EBBA
:109E100084040223C4F8940684F8903670BD2B198C
:109E200006EB8303D3F8942672B1013AC3F8942663
:109E3000002070BD2B1906EB8303D3F89426002A6B
:109E4000F3D1022283F89026254406EB850595F888
:109E50009C36013BDBB285F89C368BBB214B96F8D8
:109E6000E066D3F8F810D5F89806621C02F00302F9
:109E70004B1E0324B242034485F89046B3FBF1F035
:109E8000C5F894061AD0994218D80138C5F8940636
:109E9000012070BD2EF0B2FC80B1124B2C44D3F8DF
:109EA000F82006EB8404012102F51C5384F8901677
:109EB0000F33B3FBF2F3C4F8943670BD012070BDCC
:109EC000084BD3F8F820012002F2E733B3FBF2F39A
:109ED000C5F8943670BD0138C5F89406002070BDF1
:109EE000602800209801002030B4084C94F88C5C65
:109EF000022D13460A46014604F68C4002D030BCBF
:109F00002EF078BB30BC2EF011BB00BF68170020CC
:109F10000378022B4FF0010201D02EF091BB2EF0FE
:109F20001DBB00BF2DE9F04F2DED108B034697B000
:109F300004331593DFEDCACA149002238A461392A4
:109F40008B461293149C4FEADB0604EB461202EB9D
:109F500006103101A6EB86034FEAC60806EB46055C
:109F6000CDE9000100EBC303043108F104001196B0
:109F7000204421442C01C6EBC60C0394EC00119D37
:109F800004944FEACC0405946C0106EB860E02940F
:109F9000159D009C03EB46174FEACE0E02EBC6065A
:109FA0004FEACB094FF0000C51ED01AAD3ED001A96
:109FB00092ED007A94ED005A96ED004AD7ED007AC2
:109FC00015ED012A50ED016A32EE07BA76EE840AE9
:109FD0007AEE855A31EEA70A3BEE256A70EE804A8A
:109FE00076EEC46A36EE244A36EE646A05ED014A1E
:109FF00082ED006AD0ED00BAD6ED012AD3ED019AC8
:10A0000095ED00AA92ED016A97ED013A91ED00CA33
:10A01000D4ED014A7BEEE23A36EEE19A32EE472A7F
:10A0200073EEE98A3AEE464A39EE279A78EE838A49
:10A03000B0EE428AA9EE6C8ADC44E24573EEC33A84
:10A04000B0EE441AA8EEEC1A76EEE77A33EEA97A6F
:10A050007CEE643A77EEA17A3AEE066A7AEEC51A99
:10A060003CEE24AA74EECC4A39EE833A35EE6A5AB5
:10A07000F0EE639AF0EE48AAE7EE2C9AA8EEAC4A0E
:10A08000E7EE2C4AE7EE6CAAF0EE418AB0EE427A97
:10A09000B0EE612A7BEE656A7BEEA22A76EE4A5A22
:10A0A000A9EE2C7AA7EEAC2AA7EEAC5AE7EEEC8A22
:10A0B00032EE83BA76EEC3BA35EEE09A75EEC07A28
:10A0C00036EE0A6A76EEE26A36EE0BAA76EE836A1E
:10A0D00077EEA07A34EE423A77EE290A36EE4B6AF2
:10A0E0007BEEA22A39EE000A73EEAA3A78EE244AF1
:10A0F00037EE697A31EE055A71EEA85A32EE044A0B
:10A1000085ED00AA82ED016A4D4441ED012A4A44E1
:10A11000C4ED006A81ED000AC4ED017A494440EDC6
:10A12000010A4C4487ED007AC6ED003AC3ED004ABF
:10A1300080ED003A87ED014A484486ED015A4F44CC
:10A14000C3ED015A4E444B443FF62EAF119B072BF3
:10A1500040F2C781029D149E019B03980499059AC1
:10A16000083575190C330E95354608F108080EF1BF
:10A170000804EB1808300831083246442C19281816
:10A180006918AA18079305F10C030D960C940B900F
:10A190000A91099208934FF001084FF0000E129BAC
:10A1A0009E44139B03EBCE0303EBCE02109302EB12
:10A1B000CE0303EBCE01029101EBCE0101EBCE0504
:10A1C00005EBCE06D6ED007A0F93AEEB8E03019130
:10A1D00006EB031303EBCE07D3ED01AACDED067A10
:10A1E000019BD5ED007A97ED01BACDED057AD3ED5F
:10A1F000007A029BCDED047AD3ED007A0F9BCDED72
:10A20000037A07EBCE0CD3ED007ADCED01BACDED8D
:10A21000027A0CEBCE01D2ED007A109A009101EB9C
:10A22000CE00014691ED01DACDED017A0099D2ED33
:10A23000007A91ED01CA00EBCE0000EBCE0494ED64
:10A2400001EAD0ED01DACDED007ADDE90776DDE94E
:10A250000954DDE90B01DDE90D23C44602E000BF2E
:10A26000F304353F94ED009A90ED00FA91ED006A09
:10A27000D5ED007AD3ED006A57ED014A92ED005A10
:10A2800056ED013A96ED00AA35EE060A73EEA65A8F
:10A2900039EE278A34EE8F7A70EE082A75EE87EA57
:10A2A00035EE465A3EEEA26A73EEE63A06ED016AD4
:10A2B000D1ED019AD2ED01FAD4ED016AD3ED011A84
:10A2C00095ED013AD0ED018A97ED004A3FEEE96A3B
:10A2D00035EE491A76EE660A31EE271A3AEE612A11
:10A2E00075EE677A70EE830A3FEEA95A74EECF9A44
:10A2F00077EE897A7AEE211AB0EE42AA74EE68FA05
:10A30000A0EEECAADC44E24535EEC77AB0EE639AE3
:10A3100074EE285A38EEC44AF0EE698AA1EE6C9ABF
:10A32000E7EEAC8A36EE436A7FEE644A36EE266A82
:10A33000A0EEAC2AF0EE4A0AE7EEEC0AE7EEAC4AF1
:10A34000F0EE687AF0EE498A36EE833AE6EE6C8AF1
:10A35000E1EE2C3AB0EE6F1AA6EE2C1A71EEE56A19
:10A36000A6EE2C4A71EEA55A75EE031A7EEEE22A8D
:10A3700037EE43FA75EEE1EAB0EE686A76EEC08A2F
:10A3800039EE044A7FEE86FA76EEC86A33EE816AC9
:10A3900038EE888A73EEC13A37EE457A2CEE2E1AE3
:10A3A0003FEE055A22EECC9A9DED03FA70EE266A36
:10A3B00033EE077AAFEE221AAFEE2E9A7AEE244AE7
:10A3C0009DED01FA79EEA09A25EE4BAA72EE670A8E
:10A3D00037EE822A6BEE087AAFEE08AAEFEE057A26
:10A3E0002DEEA63A9DED05FA67EE6D8AAFEE073ABF
:10A3F000EFEE268A66EE6A2A9DED00FA2AEEA00AA2
:10A40000EFEE202A6EEE02EADDED060A23EECE5ACA
:10A41000E0EEA3EA2BEEA98ADDED023AAFEE060AE2
:10A42000A3EE848A24EE6B7A6DEE246A9DED044AD5
:10A430002FEECD6AA0EE825AA3EEA97AE4EE2F6A3F
:10A44000A4EE246A75EEA15AC6ED005A83ED001AF7
:10A4500083ED019A4E4447ED017A87ED00AA4B4403
:10A4600080ED003AC0ED018A4F4482ED000A484475
:10A47000C2ED012AC5ED00EA85ED015A4A44C1ED5D
:10A48000006A81ED016A4D4484ED008A84ED017A11
:10A4900049444C443FF6E6AE0E9B08330E930D9BA9
:10A4A00008330D930C9B08330C930B9B08330B93D1
:10A4B0000A9B08330A93099B08330993089B0833C6
:10A4C0000893079B08330793119B08F10108434544
:10A4D0007FF465AE129BDDF844B0DB009BB21293B3
:10A4E00030E517B0BDEC108BBDE8F08F2DE9F047DB
:10A4F000164D0746002095F9E99605F5DE6684B00D
:10A5000007EB010805F5196504464FF0B60A3368F4
:10A51000ABB193F83830142B11D019F1020F01D0E0
:10A520004B450CD1002269463046CDE90244CDE9C5
:10A530000078ADF808A08DF80E4021F0C9FCE03697
:10A54000B542E4D104B0BDE8F08700BF6028002028
:10A550002DE9F743124E0124A02318255FFA84F851
:10A56000FF2B14DCD6F89009E9B2C1F11C0282720B
:10A570005F1C026880F80B80DBB20093C1F11B0105
:10A58000D2F8189000234246C9B2C8473B46013D65
:10A59000E6D10134052CE0D103B0BDE8F08300BF63
:10A5A00060280020F8B5754C00234FF4F07220218C
:10A5B00004F6BC1084F8B93994F8AD693EF0BFF9DF
:10A5C00004F69C304FF4F07220213EF0B8F994F874
:10A5D0007D0D10B194F87E3D0BB90020F8BD2DF033
:10A5E000ABFBC4F8880D28B1837913F0BF0FF4D109
:10A5F0002323C38009212DF063FCD4F8880D2DF0AE
:10A60000CDFC94F87E3D013B5BB25A1C00F0A38068
:10A61000022B00F3A08004EB0313D3F88C0D584DEC
:10A62000C4F8840D0223102184F8803D39F060FACB
:10A63000B5F8FC1053482DF05DFFD4F8880D2DF0CF
:10A64000A7FCFF218C2039F027FC0746D4F8880DA1
:10A650002DF0A4FCD4F8840D042139F049FA1B2F05
:10A6600005D0D4F8880D20212DF02AFCB5E7D4F8C8
:10A67000883D012284F8B9290BB12322DA80B5F88C
:10A68000FC1040482DF036FFD4F8880D2DF080FCEA
:10A6900040210A2039F000FCFF218A2039F0FCFB20
:10A6A000C0F38013D4F8880D84F8BC3D2DF076FCFF
:10A6B000D4F8840D042139F01BFA94F87C3D012B69
:10A6C0004FD0022B49D0002B54D02F4B93F8242C81
:10A6D000182A0CD1003E94F8BC1DB5F8FC20A3F854
:10A6E0002A1C18BF0126A3F8286CA3F82C2CB5F857
:10A6F000FC1024482DF0FEFEB5F8FC1021482DF08A
:10A70000F9FED4F8880D2DF043FC0221002039F029
:10A71000C3FBD4F8880D2DF041FCD4F8840D04213E
:10A7200039F0E6F994F8C12D94F8C23D94F8C05D73
:10A730001649174884F8BD5DC2F12002C3F1100329
:10A7400084F8C32D84F8C43D2DF06AFE10480BF048
:10A75000F7FD0F48F8BD002061E70823A5F8FC309D
:10A76000B3E7002EF9D094F8BC3D002B14BF0823AA
:10A770001023F3E71023A5F8FC30A6E7602800209B
:10A7800098010020E0350020681700202C8A04087A
:10A79000F43100202DE9F0479AB0DDE9226ADDF8B6
:10A7A000909004460D461746984602E020682DF02A
:10A7B00037FA20682DF03CFA0028F7D101466422D0
:10A7C00001A83EF0BCF8254B8DF80450CDF85CA0F4
:10A7D0000293002D3ED0AB1E012B3DD9042D14BF9A
:10A7E00000230323DFF878A08DF80530DAF8F8337A
:10A7F00003961E440123CDE9059404968DF85B3041
:10A8000037B14246394607A83EF038F88DF85A80ED
:10A810009AF80A6E00231893CEB99AF8090E6422AA
:10A8200002FB00A001A900F60C603EF027F801230E
:10A830008AF8096E8AF80A3E236843B143463A46CD
:10A84000294620461AB0BDE8F0470DF065BE1AB0A3
:10A85000BDE8F0870523C5E70223C3E728360020BB
:10A86000602800201B4B93F8742E92B393F87C2E33
:10A87000DFED196A07EE902A03F69861D1ED005AD0
:10A88000F8EE677A86EEA56A03F6786003F56861EC
:10A8900003F69C6300220A608A600A611A609A606B
:10A8A0001A6186EEA77AD0ED007A37EE277A36EE77
:10A8B000276AC7EE876A87EE867AC1ED016AC1ED25
:10A8C000036AC1ED056A83ED017A83ED037A83EDB6
:10A8D000057A70476028002083F9223E2DE9F84F61
:10A8E000DFF85CA10AF110062DED048BB146DFED17
:10A8F0004C8A9FED4C8A9FED4C9A0AF19005544684
:10A9000006E005F180074C453D4606F1020662D09F
:10A9100014F8013B002BF4D0444A92F8302C9A42B0
:10A92000EFD332882B70002A67D04CF250339A4212
:10A9300055D807EE902AF8EE677A338C67EEA87A3E
:10A94000092BC5ED017A61D942F21072934263D8A6
:10A9500007EE903AF8EE677AB6F8403067EE887AFC
:10A96000132BC5ED047A4ED9B3F57A7F51D807EE93
:10A97000903AF8EE677AB6F86030DFF8C8B0C5ED07
:10A98000027A632BDBF850163AD907EE901AF8EEEC
:10A99000676A07EE903A89EE267AF8EE677AB4EEA7
:10A9A000E77AF1EE10FA98BFF0EE477AC5ED037A38
:10A9B00005F1140805F180074046D5ED040A95ED30
:10A9C000020A012208F1240837F0A0FCB84509D09A
:10A9D000DBF85016F0E7BDEC048BBDE8F88FDFED37
:10A9E000147AAAE79BF8F92E6FEA0A03013223448E
:10A9F0008BF8F92E8BF8F83E85E7F7EE007A9CE7A6
:10AA0000DFED0C7AD2E7F3EE047AB4E7F2EE047AE3
:10AA1000A2E7DFED097AAEE7DFED087A9CE700BF39
:10AA200090C2753D0AD7233C00BADB486817002066
:10AA3000005043470000C84200007A4400401C46D2
:10AA400014370020583900200C480D4BD0F8141F43
:10AA500010B40C4CC0F8043F8A1E2231B0F82E3FCF
:10AA60001B01A4FB03C3DB08A3F5B06322F8023F7C
:10AA70009142F3D15DF8044B704700BF5839002074
:10AA80009D980108CDCCCCCC70B5084C251D2E4628
:10AA900014F8010B21F012FC28B1037805F8013BF2
:10AAA000B442F5D170BDFF23F8E700BFA4480020F1
:10AAB0002DE9F0471D4F012607F10805B2464FF07A
:10AAC0003B094FF0000817F8010B2DF035F904464B
:10AAD00090B180F80690C671FB7803F07F02012ADE
:10AAE00018D013F0800F20460DD185F804802DF08A
:10AAF0004FFA85F805802C600136052E05F1080512
:10AB0000E1D1BDE8F08785F804A02DF047FA85F87B
:10AB100005A0F0E71B0605D4012120462DF0D0F951
:10AB2000FB78DEE72DF03AFAF6E700BFAC480020EC
:10AB30002DE9F0472DED048B634C82B094F87C3FF7
:10AB40000190002B40F0BB8094F89E3FB4F8A02FFA
:10AB5000DFED5E6AB4F8A29FA4F8C49F07EE103A36
:10AB6000B8EEC76AB7EE007A07EE902AF0EE475AC1
:10AB7000B4F89C2FE6EE665A4FEA49069642A6EED6
:10AB8000267AB8BF164604F6B871F8EEE77A04F6EE
:10AB9000BC7267EEA67AC1ED005A1FFA86F804F57A
:10ABA0007C6182ED007A0122A4F8C68FC1ED007AA3
:10ABB00084F87C2F002B7ED0DDED017A9FED440AD6
:10ABC000444F9FED459AF8EE677AB6B280EE270AB9
:10ABD0003BF04CFB7600B0FBF6F6012EB8BF012629
:10ABE000F6B2B0FBF6F39BB2054684F8C86FBA46DE
:10ABF00000EE103ABBEEED0A0C3707ED030A3BF00E
:10AC000035FB364BDFED366AB9FBF0F0A3FB0535BB
:10AC1000ED0807EE905AF8EEE77A022886EEA77A5A
:10AC2000B8BF022084F8D00F0025F7EE008A8AED25
:10AC3000027AB6EE008A07EE905AB8EEE70A0135BE
:10AC400020EE090A37F040FB38EEC00A202D20EE36
:10AC5000080AA7EC010AEED107EE906AF8EEE77A4F
:10AC6000F7EE006A86EEA77A1E4B1F4AC4F8CC3D69
:10AC700003F12801A833C4F8C81D1020C4F8D83D3A
:10AC80002021142384F8296CA4F8C40DA4F8D41D41
:10AC900007EE908AF8EE677AA4F8D03D82ED007A4C
:10ACA000C2EDAC7AC2EDAD7AC2EDAE7A02B0BDECC7
:10ACB000048BBDE8F0870D4A82F8FE307CE794F8FB
:10ACC000C86FB4F8C68FC7E7583900200AD7233CAD
:10ACD00000247449244900203C8C4F3EABAAAAAA08
:10ACE000DB0FC9417C8A04088445002098010020BC
:10ACF000F0B5284C34F89C5C24F89A5C83B0EDB92C
:10AD000014F8A00C2DF018F814F89F2C44F8980CA7
:10AD1000003A18BF012204F8942C48B114F89E1C84
:10AD20002B22002914BF11210121C2802DF0C8F867
:10AD3000002003B0BDE8F0402DF03EB914F8A07C2F
:10AD4000002238462B212CF06DFE064638462CF0AA
:10AD5000F3FFE8B1E6B12B2244F87C0CC280727A92
:10AD600002212DF037F800270B4AB2FBF5F3C3F3AD
:10AD70004F0000909BB231460197A4F1900024F857
:10AD8000785C20F073FC54F8903C1F6004F87F7CE2
:10AD900003B0F0BD504A002040420F002DE9F84FAB
:10ADA000254C14F86C3C04F8763CA4F17507002699
:10ADB000583C5FFA86FB0BF101085FFA88F8012125
:10ADC00017F8010F42460E448A462CF02BFE4FF036
:10ADD0000009054648B3387804F80E9C04F80D9C29
:10ADE00004F80FBC04F810AC44F8045C2CF0A4FF89
:10ADF000022118B180F806A080F807806A7A2CF04A
:10AE0000E9FF0E4A002128462CF026FC0C4B23605B
:10AE10000C4B221D21462846C4E901392CF0CCFCFC
:10AE2000697928684A4620F0D9FB082E04F11C04F1
:10AE3000BFD1BDE8F88F00BF504A002040420F004C
:10AE400015B60208F98D020870B52C4C2C4B94F8FD
:10AE5000C000C4F8B83000220221C4E91E22C4F8A0
:10AE60008020C4F8B420A4F8BC202CF0DBFD00281E
:10AE700037D00168054604F1C40304F592705A7C8A
:10AE800012B15A6891422DD018338342F7D1002372
:10AE900094F8C00044F85C5C04F8683C2CF04CFF6B
:10AEA00008B10223C3806A7A02212CF093FF28465E
:10AEB000144A00212CF0D0FB134A144944F8581CC2
:10AEC0000026111F2846124B44F8543C44F8506C9D
:10AED0002CF072FC697928683246BDE8704020F099
:10AEE0007DBB70BD0B8D0B49D4F824219BB201337F
:10AEF000B2FBF3F381F8FF30C9E700BF504A0020EE
:10AF000000FFFF0040420F00FC490020218E020894
:10AF1000C18F020898010020F8B5534E96F8280F0B
:10AF200096F8295F2CF008FF60B12D23C380202103
:10AF300004462CF0C5FF0A202CF016FE20462DF00A
:10AF4000EFF820B9494FD7F82831DA0000D5F8BD1D
:10AF5000013D092DFBD896F8274FCCB9402028F0A9
:10AF600029FB0028F3D090F9043096F8FD1E092B38
:10AF7000C8BF143B3B440A2993F82C4167D093F88F
:10AF8000383196F8262F002A08BF1C46002CDED048
:10AF900020462CF0D1FE054608B12D23C3800121A7
:10AFA00028462CF08DFF012108462DF043F80121A1
:10AFB00028462CF0F9FF3C202CF0E2FD0021012076
:10AFC0002DF038F896F8293F1BB3002400210846DD
:10AFD0002DF030F8002102202DF02CF80021284619
:10AFE0002CF0E2FF78202CF0BFFD012100202DF095
:10AFF00021F8012102202DF01DF8012128462CF016
:10B00000D3FF78202CF0B0FD96F8293F01349C4204
:10B01000DCDB96F8273F93B996F8283F002B96D1B2
:10B0200096F82A3F012B92D1D7F8283113F080539C
:10B030008DD186F8293FBDE8F84037F037BB322084
:10B040002CF09EFD284600212CF03AFFE4E7D7F8CB
:10B0500050315B057FF57BAF0BF046FB00287FF49A
:10B0600076AF002C94D172E758390020504A002066
:10B070002DE9F041204D95F85B3185F8543105F507
:10B08000AC7705F5AE7600244FF0050817F8010BF4
:10B0900020BB30600134032C06F10406F6D195F88C
:10B0A0005411D5F85C01C94301F001012CF07CFF7B
:10B0B00095F85411D5F8600181F00201C1F3400107
:10B0C0002CF072FF95F85411D5F8640181F0040159
:10B0D000BDE8F041C1F380012CF066BF2CF02CFEDE
:10B0E000013401213060E3B210B180F80680C371F1
:10B0F00030682CF0E5FECEE7504A002030B404382A
:10B10000043A0C1F01F1080554F8043F52F8041FDB
:10B11000AC42A3EB010340F8043FF5D130BC7047CB
:10B1200038B5041E0D4611DB092C24DC08461A4BE9
:10B130001A49A3FB0423DB0803EB8303A4EB4303BB
:10B140000022CB5C03704270284638BD64422D2338
:10B15000092C01F8013B16D80F4B1048A3FB042320
:10B16000DB0803EB8303A4EB43030022C35C0B70F7
:10B170004A70284638BD0848A0FB04300A22C0089F
:10B1800036F008FCD3E70448A0FB0430C0080A22CC
:10B1900036F000FC0146DFE7CDCCCCCCB8EF04089C
:10B1A00070B4344890F86831A3F13001092958D8B7
:10B1B00000F5B474224600F2771012F8015FA5F191
:10B1C0003001092904D88242F7D1002070BC7047B1
:10B1D000141B022C4BDD2848002101E010F8013B34
:10B1E00001EB810103EB4103161A303B022E0446AA
:10B1F00003F0FF01F2DC214B03FB01F1A2424FF00F
:10B2000000030DD903EB830314F8016B5B00303BA3
:10B210003344A24203F0FF03F4D1194800FB03F3C7
:10B220002E2D06D01748A0FB032301EB930070BC22
:10B230007047013204200024157804EB8404303D6B
:10B240006400092DA4B298BF641900F1FF309CBFBF
:10B25000A4B2013210F0FF00EED1642202FB0433ED
:10B26000E0E700211D4600F5B4720B46D8E7064C16
:10B270000021C3E7504A0020B94B00208096980077
:10B2800040420F00ABAAAAAAB84B002038B504462A
:10B290000D460A460068FF213DF051FB2168294414
:10B2A000216038BD83B50C461646054626F0CEFD16
:10B2B000204626F0CBFD0021204B0846002E08BF7B
:10B2C0001E462CF0B7FE002101202CF0B3FE2846CC
:10B2D0002CF0AEFCB0B1012100202CF0ABFE2846D2
:10B2E0002CF09EFC074620462CF09EFC0028FAD04D
:10B2F000394620462CF0C2FC3846B04700210846AB
:10B300002CF098FE20462CF093FC0028DFD0012181
:10B3100000202CF08FFE20462CF082FC01462846AF
:10B3200001912CF081FC01990028F8D028462CF0DE
:10B33000A5FC002108462CF07DFEC8E7D5EC0208EC
:10B34000F0B500230B604B608B60CB600B61026833
:10B35000DFF894C089B004ADC2F385572E4647FA92
:10B3600003F0C007344644BF13F80C0004F8010B87
:10B3700003F1010348BF2646062BF0D11848C2F35B
:10B3800003240444002394F8CC4133708DF8184012
:10B3900000F5EA7CC2F305370DF1190647FA03F010
:10B3A000C007344644BF13F80C0004F8010B03F146
:10B3B000010348BF2646062BF0D100233370C2F3A9
:10B3C000834406ABCDE90134084602F00F0305497A
:10B3D0000095C2F3031236F0EDFD09B0F0BD00BFD9
:10B3E000E0890408E0EF0408A48B040870B5094C58
:10B3F000D4F87821054662B10026D4F878012D21D1
:10B4000001362DF065F9AE42F7DBBDE870402DF056
:10B410008FBB70BD504A0020074B4FF47A7003F188
:10B4200014014FF4FA6223F8040C23F8022C0433BD
:10B430008B42F8D1704700BFD04B0020F8B5224DA9
:10B44000D5F8383C93F82E20EAB15B699847F0B103
:10B45000D5F8383C93F82C209AB11C4E00249A6AF7
:10B46000B6EC010A9F69904707EE900AE0B2B8EE89
:10B47000670AB847D5F8383C93F82C200134944239
:10B48000EDDB1B6A984795F8243C332B00D0F8BDC0
:10B490000F4B93F8A031002BF9D0D5F8383C93F836
:10B4A0002C30042B1E46A8BF0426002BEFD000240E
:10B4B000084D2346184637F0C3FB0134E3B2B342CC
:10B4C00025F8020BF6D3F8BD68170020E04B0020EA
:10B4D000504A00209023002038B50F4C94F8AB114F
:10B4E00001F03F018B1C024601F10A0584F8A931E5
:10B4F00084F8A65104F5D27084F8A721083117F01A
:10B50000C1FA254485F8A20194F8A6311C44000A2A
:10B5100084F8A30138BD00BF504A002070B51D4C0F
:10B520000968D4F8B4541C4ED4F8B044D6ED407A2F
:10B53000DFED1A6A491B00EE901A0168F8EEE00A86
:10B54000091B60EEA70A00EE101A20EEA07AB8EEF2
:10B55000C00A1C46A0EE007AB1EE400AF1EEC77AAE
:10B5600067EEA67AFCEEE77AC2ED007A36F03EFE90
:10B570009FED0B7ADFED0B7AE0EE077AFDEEE77ACE
:10B5800017EE902A002ABCBF02F50C42A0322260BE
:10B5900070BD00BF60280020980100202C7D8E3FE8
:10B5A000A00CB34500A00C4638B50B4C0025012279
:10B5B0008021204627F0EAFF30B194F9040028F0FA
:10B5C0001BF808B1006838BD0135052D04F10C04E5
:10B5D000EDD10020F7E700BF1C4C00202DE9F84F0B
:10B5E000A64CA74B94F83503D4F80C822DED048BB0
:10B5F00093ED008A002840F0BC80D4F8402394F8F2
:10B60000341394F85133002A19DD07EE902ADFED48
:10B610009D6AF8EEE77AC3F1640386EEA77A00EE3E
:10B62000103AB8EEC00A20EE070A29B920EE000A47
:10B63000DFED957A20EE270A3AF018FE80B2B4F8D2
:10B640003633A4F83603834200F0938094F81072E6
:10B650008E4E9FED8F9ADFED8F8A002594F854333C
:10B660002B41DB0714D594F83433002B58D1B4F8B0
:10B67000363307EE103A0FB986ED019AB8EE477AE5
:10B68000C8EE877A77EE887A88EE277A86ED027A96
:10B690000135052D06F12406E0D194F83953B4F8AC
:10B6A0003C633DB1D4F8582394F83A3392F83220F1
:10B6B000134371D087BB7EB3744EDFED768A012DC4
:10B6C0004FF0000906F16C0713D0022D06F1B80007
:10B6D000414607D1B4F83C3300EE103AB8EE400AC8
:10B6E00036F0C0FE2436B74216D094F83953012DF7
:10B6F000EBD1B4F83C33C6F8B89007EE103AB8EE88
:10B70000477A2436C8EE877A77EE887A88EE277AE9
:10B7100086ED267AB742E8D1BDEC048BBDE8F88F00
:10B72000B4F83633414600EE103A301D37B9B8EE62
:10B73000400A36F097FE94F81072A9E7D6ED069A03
:10B74000D6F81CB0D6F820A0D6F82490B8EE400A5F
:10B750000322F0EE490A301D36F0D8FD94F810723D
:10B76000C6ED069AC6F81CB0C6F820A0C6F824900C
:10B770008EE794F81072002F3FF46AAF94F83953B3
:10B78000B4F83C63002DC7D0D4F8582394F83A336A
:10B7900092F832201343BFD1D4F8402394F85133A8
:10B7A000002A62DD07EE902A9FED367AF8EEE77AFE
:10B7B000C3F1640387EE270A012D07EE903AF8EEF5
:10B7C000E77A20EE270A02BF60EE007A9FED2E0A8C
:10B7D00027EE800A3AF04AFD80B2A4F83C03002F1D
:10B7E00047D0B04298D0002896D0284E9FED299A95
:10B7F000DFED278A012D06F16C0727D0022D1DD120
:10B80000B4F83C33D6F8CCB0D6F8D0A0D6F8D49063
:10B81000D6F8D85000EE103A0322B8EE400AF0EE07
:10B82000680A414606F1B80036F070FDC6F8CCB0A3
:10B83000C6F8D0A0C6F8D490C6F8D8502436B7427F
:10B840003FF46AAF94F83953012DD7D1B4F83C33A3
:10B8500007EE103AB8EE477AC9EE077A77EE887AA3
:10B8600088EE277A86ED2F7AE8E70023A4F83C33A8
:10B8700052E70646002E3FF44FAF1DE7504A002026
:10B88000D836002000409C45CDCC4C3C604C00207C
:10B890000000000083F9223EF8B5214C1D270E461A
:10B8A000054684F85C7317F013FA002017F0B2F91C
:10B8B000082017F0AFF90E2017F0ACF9384617F052
:10B8C000A9F9042017F0A6F9042017F0A3F9002025
:10B8D00017F0A0F9302017F09DF9002017F09AF921
:10B8E000304617F097F9002017F094F917F0DCF9BB
:10B8F00004F25D3017F0E2F8234670B194F85D234E
:10B9000062B994F85E23302A00D03AB993F85F23E5
:10B9100022B993F860332B700120F8BD0120FCE7B9
:10B92000504A00201D4991F86821A2B3F0B40026C6
:10B9300005463346304637461BB991F868412D2CF1
:10B9400023D02E2A19D0CA1800EB800092F8684143
:10B95000A4F13002092A4FEA40009CBFA0F1300256
:10B96000A0180E2B14D80133CA1892F86821002AA7
:10B97000E2D106B14042F0BC70470133002DF8D04F
:10B98000CA182A4482F86871DDE701231E46EBE7F6
:10B990000020F0BC70470020704700BF504A0020D4
:10B9A0001FB503AC8DF80C30009400238DF80D30DA
:10B9B0000BF0FEF904B010BD10B51C202CF0BCF942
:10B9C000112104462CF07CFA20462CF0E1FAC82024
:10B9D0002CF0D6F82046BDE810402CF0DFBA00BFAE
:10B9E00008B53F202CF0A8F9054BC3F8700308B147
:10B9F0002A23C380BDE8084040212CF061BA00BF73
:10BA0000504A0020704700BF704700BF704700BF1A
:10BA1000704700BF70B501F07F0505EB850400EBB2
:10BA2000C404282101FB05010126C4F8303100239C
:10BA3000C4E94A2284F81C5184F81D61C4F83431E9
:10BA400001F58E711DB9FCF70FFD002070BDFCF7EC
:10BA500077FD002070BD00BF2549D1F874330F2B4E
:10BA600004D05A1CC1F874230020704770B5214CD3
:10BA700094F8EC5C0023C1F87433F5B9D4F80829C4
:10BA8000D4F80C39B2F5006F19D09A422CD01AD9DB
:10BA9000C2F50063402B18D9403B02F14005C1F8C4
:10BAA0007833012384F8EC3CC4F8085992B240235F
:10BAB00011490A448121FFF7ADFF002070BDC4F891
