:020000040800F2
:10000000F0FF0120153D040881AF0008C13A030844
:100010008D3D04088D3D04088D3D0408000000005E
:100020000000000000000000000000007DAF00089C
:1000300079AF00080000000075AF0008B91B030885
:100040008D3D04088D3D04088D3D04088D3D040858
:100050008D3D04088D3D0408213C0308353C030810
:10006000313C03082D3C0308293C03087D22040889
:100070006D2204085D2204084D2204083922040878
:1000800025220408112204088D3D04080000000008
:10009000000000000000000000000000253C0308F4
:1000A000D914030829150308C914030851150308B6
:1000B0001915030809150308F9140308C92D0408C4
:1000C000D12D0408BD2D0408C52D04088D3D04085C
:1000D0008D3D0408191C0308091C030800000000DA
:1000E0001D3C03088D3D04080501010800000000C7
:1000F000000000000000000000000000FD210408D6
:100100000000000029050408E91403088D3D0408D7
:1001100000000000000000000000000000000000DF
:10012000E9210408D5210408C1210408AD210408EF
:1001300099210408000000000000000000000000F9
:1001400000000000000000000000000019F6000898
:1001500085210408712104085D210408F91B0308A6
:10016000B12D0408B92D04080000000000000000B3
:10017000000000000000000000000000000000007F
:10018000000000008D3D0408000000000000000099
:080190008D3D04088D3D0408BB
:08019800B4380400010000006E
:1001A0000E0201000200000068390020144E0020F9
:1001B00000000000600800081402010005000000B3
:1001C0006C390020184E0020000000006208000872
:1001D00013020100040000002C180020204E002013
:1001E0000000000068080008122001001100000053
:1001F000004E0020244E0020000000006C08000883
:100200000D1001004C000000B0370020384E0020D7
:1002100000000000517E02080902010001000000F8
:10022000B0440020844E0020000000007E0800083A
:100230000610010022000000B8440020884E002073
:1002400000000000D57003082C0005001400000019
:1002500048370020AC4E002000000000ED9201085D
:10026000FD010100240000000C370020C04E0020DA
:100270000000000027F40208FB010100010000005B
:10028000A0360020E44E002000000000617003084A
:10029000FC010100090000006C350020E84E002040
:1002A0000000000069700308F7010100060000006B
:1002B00040350020F44E00200000000080080008B7
:1002C000F90101000400000030350020FC4E002040
:1002D0000000000091F40208110201000800000073
:1002E000C8340020004F00200000000086080008ED
:1002F0001212010004000000C0340020084F00204A
:10030000000000008E0800081820010030000000E6
:10031000903400200C4F00200000000015750308E9
:10032000E803010002000000283B00203C4F0020B1
:1003300000000000B9700308204201009000000096
:10034000F0250020404F0020000000004D940108DF
:10035000FF1101000600000098250020D04F00206A
:1003600000000000F96F0308081203000F000000EE
:10037000A4250020D84F00200000000009700308C9
:10038000FA0101000300000084250020E84F00204E
:100390000000000081700308FE010100140000004D
:1003A0001C3C0020EC4F002000000000917003086E
:1003B0001300010004000000F0B40020FCB4002091
:1003C0000000000094080008101001000200000066
:1003D000ECB4002000B500200000000098080008E0
:1003E0002820010018000000D4B4002004B500202B
:1003F00000000000B9A30108232001001000000044
:10040000B4B400201CB50020000000003D8E01089F
:100410000A800100360000007CB400202CB50020CA
:1004200000000000D98D010819000100050000003E
:1004300074B4002064B50020000000009A08000891
:100440000C200600A8000000CCB300206CB50020F2
:1004500000000000211E020800010100040000004D
:10046000C8B3002014B6002000000000A008000857
:100470000201010003000000C4B3002018B60020F0
:10048000000000004D1E02082F1001002200000095
:10049000A0B300201CB6002000000000A408000843
:1004A0000510010006000000CCB0002040B600207E
:1004B00000000000C6080008371001002E000000F0
:1004C00088AC002048B6002000000000CC080008DE
:1004D0001E000100090000001CAA002078B60020C0
:1004E00000000000FA0800081B1001000C000000CA
:1004F000289C002084B60020000000008510010820
:1005000021020100E0000000309A002090B6002097
:1005100000000000B1200108261001000E000000BC
:10052000C4B4002070B7002000000000610A010878
:100530000B3001001A000000DC9B0020B0B7002047
:1005400000000000040900081F3001002400000022
:1005500044A90020CCB700200000000020090008BA
:10056000050201000400000028AE0020F0B70020C2
:100570000000000044090008EA0301000800000030
:1005800094D60020A0D6002000000000000000004B
:10059000EB0320008001000054D30020A8D60020E7
:1005A00000000000000000000EF00600BC0100008A
:1005B000E4D9002028D8002000000000E1A20108B2
:1005C000E90301002C00000084D00020A0DB002003
:1005D00000000000480900082A0008006000000030
:1005E00050CF0020CCDB0020000000001194010857
:1005F000340001000A00000044CF00202CDC002061
:10060000000000003994010829201400780000003F
:10061000F0C0002038DC00200000000000000000D6
:100620002B0012002400000080C00020B0DC00205D
:1006300000000000BD9201081C0202001C00000026
:10064000E8BD0020D4DC002000000000697603082B
:10065000041201000200000088BF0020F0DC00202E
:1006600000000000740900080F02010001000000F2
:1006700084BF0020F4DC00200000000076090008A0
:100680002902010040000000ECDE002054E70020B9
:10069000000000007809000823120100100000008B
:1006A000A0DF0020B4E7002000000000B809000827
:1006B000EC031D00AE00000084E60020C4E700202B
:1006C0000000000000000000012001000C000000FC
:1006D00054DF002074E8002000000000C809000872
:1006E000381001000100000050EC002090EF0020C5
:1006F00000000000D4090008020001000C00000006
:10070000A0EC002094EF002000000000000000009A
:10071000F62101000C00000050EE0020A0EF0020A8
:1007200000000000D8090008F821010001000000C5
:10073000ECED0020ACEF002000000000E409000810
:100740002530200040010000ACEC0020B0EF00207C
:100750000000000000000000280204000400000067
:1007600084F800209CFB002000000000B570030806
:10077000270204000400000080F80020A0FB0020F5
:1007800000000000A9700308160215003F000000D9
:10079000F0F00020A4FB002000000000F56F03082B
:1007A0001A0201003C00000074F10020E4FB00206C
:1007B000000000009D7503081D02020006000000F5
:1007C0006C030120840301200000000000000000F1
:1007D0001B020100100000001C0801200C08012071
:1007E00000000000C1700308060203000C000000B6
:1007F000780301202C08012000000000397703084D
:100800001F020800100000004808012038080120DD
:1008100000000000D16F0308000201000B0000007F
:1008200044FD0020580801200000000089700308E2
:10083000161001000400000050FD00206408012093
:1008400000000000E60900080202010003000000A9
:1008500018310120143101200000000000000000C8
:100860000000000000FF0000000001000000000187
:100870000001055334313100000000020000000087
:100880000000010000000000000001010101FFFF65
:10089000FFFF00000000000000050000280100002C
:1008A00090010000000000000000000000000000B7
:1008B0000000000000000000000000000000000038
:1008C00000000000000020000301000020003200B2
:1008D000C800D00796001400320028004C044006DF
:1008E0000005500014000F00080064000100010022
:1008F00005000A000000F401960000050100000058
:1009000000000000AE014A015E012C0164000000FD
:10091000000001000A019A01001E0A000000000008
:1009200000000000000100000005000001020300BB
:1009300000000000000000000000000000000000B7
:1009400000800700000000000100D007E8036400F9
:10095000140014001E000A00000000000A00140029
:10096000140064001400140000000000280064005B
:1009700096000000000000000000000000000000E1
:100980000000000000000000000000000000000067
:100990000000000000000000000000000000000057
:1009A0000000000000000000000000000000000047
:1009B0000000000000000000000000000000000037
:1009C0000000000000000000E8036400040A0001C9
:1009D00014001E00000000000000000001000000E4
:0A09E000020200000200C40900003A
:1009EA000403090412010002EF0201408304563293
:1009FA00000201020301000012010002020200408B
:100A0A00830440570002010203010000090220008A
:100A1A00010104C032090400000208065005070556
:100A2A00810240000007050102400000090264003B
:100A3A00030100C03209040000010300000009217B
:100A4A00110100012236000705830309000A080B79
:100A5A00010202020100090401000102020100056B
:100A6A0024001001052401000204240202052406C0
:100A7A000102070582030800FF09040200020A00B6
:100A8A00000007050102400000070581024000003E
:100A9A0009024300020100C03209040000010202F7
:100AAA0001000524001001052401000104240202AA
:100ABA000524060001070582030800FF0904010056
:100ACA00020A000000070501024000000705810232
:100ADA0040000000FF00000001000000FFFFFFFFD0
:100AEA0000600240106002400000000000000000A8
:100AFA00000B0000000000000000000000000000E1
:100B0A00006002402860024001000000000000006E
:100B1A00060C0000000000000000000000000000B9
:100B2A000060024040600240020000000000000035
:100B3A00100D00000000000000000000000000008E
:100B4A0000600240586002400300000000000000FC
:100B5A00160E000000000000000000000000000067
:100B6A0000600240706002400400000000000000C3
:100B7A00200F00000000000000000000000000003C
:100B8A00006002408860024005000000000000008A
:100B9A002610000000000000000000000000000015
:100BAA0000600240A0600240060000000000000051
:100BBA0030110000000000000000000000000000EA
:100BCA0000600240B8600240070000000000000018
:100BDA00362F0000000000000000000000000000A6
:100BEA00006402401064024000000000000000009F
:100BFA0000380000000000000000000000000000B3
:100C0A000064024028640240010000000000000065
:100C1A00063900000000000000000000000000008B
:100C2A00006402404064024002000000000000002C
:100C3A00103A000000000000000000000000000060
:100C4A0000640240586402400300000000000000F3
:100C5A00163B000000000000000000000000000039
:100C6A0000640240706402400400000000000000BA
:100C7A00203C00000000000000000000000000000E
:100C8A000064024088640240050000000000000081
:100C9A0026440000000000000000000000000000E0
:100CAA0000640240A0640240060000000000000048
:100CBA0030450000000000000000000000000000B5
:100CCA0000640240B864024007000000000000000F
:100CDA00364600000000000000000000000000008E
:100CEA007D00000000000000F9C60008DDC700080A
:100CFA00DD9200085DC800084DC900089983000804
:100D0A007183000855830008C996000819930008E2
:100D1A0059940008D5CB0008A1ED000855CC00086D
:100D2A00858300085D8300084D83000801000000E8
:100D3A000000803F05010905A101A1000501093054
:100D4A000931093209330935093409360937158158
:100D5A00257F7508950881020509190129081500DA
:100D6A002501950875018102C0C000000902220010
:100D7A00010100E032090400000103010200092117
:100D8A00110100012236000705830309000A000049
:100D9A000000000001020304010203040607080917
:100DAA007DDB000855E30008CDDE00084985000810
:100DBA00958700085985000875850008218500086F
:100DCA0011850008000000000000000015830008DB
:100DDA00118300080D83000801830008FD820008C2
:100DEA00098300080583000800000100FFFFFFFFD8
:100DFA0001000000425702000000010642570200AB
:100E0A0000000106A8B700200000000080B70020FB
:100E1A0000000000FF00000098C50408A0C50408EF
:100E2A0000000000D51E0208A08601000400000090
:100E3A0000000000000000000000000000000000A8
:100E4A000000000000000000000000000000000098
:100E5A00000000000000000098C50408A8C50408A6
:100E6A0000000000FDFB0208E80300000400000087
:100E7A000000000000000000000000000000000068
:100E8A000000000000000000000000000000000058
:100E9A000000000000000000B0C5040800000000C7
:100EAA0000000000192502087D000000FF00000074
:100EBA000000000000000000000000000000000028
:100ECA000000000000000000000000000000000018
:100EDA000000000000000000E8F404080000000020
:100EEA0000000000CD1F02087D000000FF00000086
:100EFA0000000000000000000000000000000000E8
:100F0A0000000000000000000000000000000000D7
:100F1A00000000000000000044D3040800000000A4
:100F2A0000000000494B02087D000000FF0000009D
:100F3A0000000000000000000000000000000000A7
:100F4A000000000000000000000000000000000097
:100F5A000000000000000000B8C5040800000000FE
:100F6A000000000005F60208E80300000300000084
:100F7A000000000000000000000000000000000067
:100F8A000000000000000000000000000000000057
:100F9A000000000000000000BCC5040800000000BA
:100FAA0000000000FDB50108102700000300000042
:100FBA000000000000000000000000000000000027
:100FCA000000000000000000000000000000000017
:100FDA00000000000000000020F1040800000000EA
:100FEA0015E70108112103085F76000005000000DB
:100FFA0000000000000000000000000000000000E7
:10100A0000000000000000000000000000000000D6
:10101A000000000000000000ACF40408000000001A
:10102A0000000000AD67030810270000010000005F
:10103A0000000000000000000000000000000000A6
:10104A000000000000000000000000000000000096
:10105A000000000000000000C8C5040800000000ED
:10106A0000000000D5F20208E803000005000000B5
:10107A000000000000000000000000000000000066
:10108A000000000000000000000000000000000056
:10109A000000000000000000D4C5040800000000A1
:1010AA00000000008D2B020810270000030000003A
:1010BA000000000000000000000000000000000026
:1010CA000000000000000000000000000000000016
:1010DA000000000000000000E4C504080000000051
:1010EA0000000000292A020810270000030000005F
:1010FA0000000000000000000000000000000000E6
:10110A0000000000000000000000000000000000D5
:10111A000000000000000000F4C504080000000000
:10112A000000000029F90208400D03000300000036
:10113A0000000000000000000000000000000000A5
:10114A000000000000000000000000000000000095
:10115A00000000000000000004C6040800000000AF
:10116A00000000006DC60208102700000100000000
:10117A000000000000000000000000000000000065
:10118A000000000000000000000000000000000055
:10119A0000000000000000000CC604080000000067
:1011AA0000000000152D01081027000003000000B0
:1011BA000000000000000000000000000000000025
:1011CA000000000000000000000000000000000015
:1011DA00000000000000000010C604080000000023
:1011EA000000000019C70108A086010001000000E4
:1011FA0000000000000000000000000000000000E5
:10120A0000000000000000000000000000000000D4
:10121A00000000000000000018C6040800000000DA
:10122A0000000000D17C020850C300000100000049
:10123A0000000000000000000000000000000000A4
:10124A000000000000000000000000000000000094
:10125A00000000000000000020C604080000000092
:10126A0000000000657A0208A08601000000000064
:10127A000000000000000000000000000000000064
:10128A000000000000000000000000000000000054
:10129A0000000000000000002CC604080000000046
:1012AA0000000000A5A60208A861000001000000D5
:1012BA000000000000000000000000000000000024
:1012CA000000000000000000000000000000000014
:1012DA00000000000000000038C6040800000000FA
:1012EA0000000000D57E0208A00F000001000000E7
:1012FA0000000000000000000000000000000000E4
:10130A0000000000000000000000000000000000D3
:10131A00000000000000000044C6040800000000AD
:10132A000000000091690108102700000100000078
:10133A0000000000000000000000000000000000A3
:10134A000000000000000000000000000000000093
:10135A00000000000000000050C604080000000061
:10136A0000000000418D0008102700000100000065
:10137A000000000000000000000000000000000063
:10138A000000000000000000000000000000000053
:10139A0000000000000000005CC604080000000015
:1013AA0000000000F946020840420F000000000059
:1013BA000000000000000000000000000000000023
:1013CA000000000000000000000000000000000013
:1013DA00000000000000000068C6040800000000C9
:1013EA0000000000AD7E020850C3000000000000AB
:1013FA0000000000000000000000000000000000E3
:10140A0000000000000000000000000000000000D2
:10141A000000000000000000FF010000D6010000EB
:10142A00F0BB002044BC00200000803F0000000008
:10143A0000000000000000000000000000000000A2
:10144A000000000000000000000000000000000092
:10145A000000803F000000000000000000000000C3
:10146A00010000000001010100010000010000006C
:10147A000000FA430000FA4389C80208000000008D
:10148A00000000000000000000000000A4E70020A7
:10149A00080000000000000094E700200800000097
:1014AA0020000000FFFFFFFF02010102FFFF010011
:1014BA00685E0C00A98B0008A5860008ADDE00084E
:1014CA00000000000D85000849DB00085D8B00085C
:1014DA00BDDA00080000000000000000C98400080E
:1014EA0025830008198300080DD2000829D20008B4
:1014FA00F1D10008D5D10008B9D10008618B0008E4
:10150A0081860008F9DD000800000000E184000877
:10151A00C1DA0008318B000819DA0008000000005F
:10152A0000000000D5840008FFFF0000FFFFFFFF56
:10153A0014F104080000080205030300000000007B
:10154A001CF1040801000802050403000000000061
:10155A003CC904080200FE0101100300000000005B
:10156A00ACCD0408030014020003000000000000D0
:10157A0024F1040804001F02020008000000000011
:10158A002CF1040805001F020201080000000000F7
:10159A001A03000000000000000000000000000024
:1015AA00000000000000000000000000040309041D
:1015BA0012010002000000408304205700020102C9
:1015CA00030100000D800308E17F0308857F0308FB
:1015DA0091710308A17F0308457F03088D710308F1
:1015EA00800E0020FD80030819760308ED800308A9
:1015FA0071710308A98003086180030861710308F7
:10160A005C0E00201D7A03087971030875710308BE
:10161A006D710308697A0308697103086571030823
:10162A0070B10408358C00086186000815DC0008D2
:10163A0000000000000000000DD9000835D900089C
:10164A00000000000000000000000000BD84000847
:10165A00197203080D720308558103087181030882
:10166A00C5710308398103081D810308FFFFFFFFC5
:10167A001F0000001C0000001F0000001E000000E8
:10168A001F0000001E0000001F0000001F000000D5
:10169A001E0000001F0000001E0000001F000000C6
:1016AA000068214C008002021F00000053544D20A4
:1016BA002020202050726F64757420202020202062
:1016CA0020202020302E3031008002021F0000002E
:1016DA0053544D202020202050726F6475742020AE
:1016EA002020202020202020302E3031000004012C
:1016FA0000000000000000021000000007000000C7
:10170A0000000000000000000102030406070809A7
:10171A0001000000D00E00200000000000000000C0
:10172A0000000000000000000000000000000000AF
:10173A00000000000000000000000000000000009F
:10174A00000000000000000000000000000000008F
:10175A00000000000000000000000000000000007F
:10176A00000000000000000000000000000000006F
:08177A00000000000000000067
:08280000082800080040000850
:04400000FFFFFFFFC0
:10800000F0B401292A4C2B4D23684FF0000694BF91
:1080100000270127EE626662A6626763676B47EA24
:1080200042076763EE63EC6B002A38D144F4957421
:10803000EC631C6824F001041C601C68E407FCD499
:10804000490289085960D8601968EAB921F04001ED
:10805000196019498B421DD018494FF47410C8603B
:10806000196841F01E011960596941F08001596198
:10807000196841F00101196022B90E4AD36A43F030
:108080000803D362F0BC704741F0400119600A490F
:108090008B42E1D14FF0746041F8500CE0E744F0BE
:1080A0001A04EC63EC6A44F00804EC62C1E700BF18
:1080B000300F0020002C0140586402400064024050
:1080C0001148002302461178032902F1060216D056
:1080D0000133062BF7D10D4AD36D052B0ED0591C59
:1080E00003EB4303D16500EB4303032040F2EB3184
:1080F00040F2FF32187059809A807047704703EB46
:10810000430300EB4303F0E7680F0020300F00202B
:1081100070B4C3080D4CE25C00F00706B24004EBFB
:10812000D004D2B20020C6F108038B4228BF0B4610
:10813000C3F108052A419840C91A40EA02004FF0ED
:10814000000614F8012FEED170BC7047D00F00204C
:10815000084AD2E9343199420AD0D118013391F852
:10816000D8100170C3F30A03C2F8D0300120704761
:1081700000207047300F0020064AD2F8D838D2F8D5
:10818000DC28934294BF4FF400600020013B9B1A0F
:1081900018447047300F0020012380F85130704799
:1081A00007B501A8FFF7D4FF0028FAD09DF8040016
:1081B00003B05DF804FB044BD3E93403984288BF55
:1081C00003F50063181A7047300F00200120704734
:1081D000024BC3F8E028C3F8E4187047300F0020C2
:1081E000024BC3F8E828C3F8EC187047300F0020A2
:1081F0007047704730B4134DD5E934239A4286BF97
:1082000003F50064A21A9A1A0A44B2F5006F13D853
:10821000A9B101444A1E013810F8014FE918824201
:1082200003F1010381F8D840C3F30A03F4D1C5F880
:10823000D430002030BC7047022030BC7047084664
:10824000F8E700BF300F0020212838B50C4605D0D4
:1082500022282ED0202813D0002038BD0029FBD0A2
:10826000072AF9D11A4BD3F8F00893F8F41893F8C9
:10827000F52893F8F638206021716271A371EBE75D
:108280000029E9D0072AE7D1114DD5F8E4381BB110
:108290000968D5F8E0089847206821796279A379C0
:1082A000C5F8F00885F8F41885F8F52885F8F6384B
:1082B000D2E70029D0D0022ACED1054AD2F8EC3834
:1082C000002BC9D00988D2F8E8089847C4E700BF56
:1082D000300F0020024B0020C3F8F808704700BFA1
:1082E000300F0020044B00200522C3F8F828C3F803
:1082F000EC08C3F8E4087047300F0020704700BF57
:10830000704700BF704700BF704700BF704700BF95
:10831000704700BF704700BF042301480B807047BF
:108320009801002010B4074A074B92F8FC08122469
:1083300003F114020C8001280CBF184610465DF8AA
:10834000044B7047300F00209C010020004870470C
:10835000B80F002000487047B80F0020034B93F877
:108360008400032894BF002001207047300F0020B4
:10837000034B93F88400032894BF0020012070472A
:10838000300F0020034B93F88400003818BF012001
:10839000704700BF300F0020034B93F88400003873
:1083A00018BF0120704700BF300F0020A0B18268C5
:1083B0000D4B12B107229A7070471978DA600329C1
:1083C0004FF004000CBF80214FF48071C3E901110C
:1083D0001A611A7598707047034B41F2E4710122DB
:1083E0005A545A70704700BF008000200378022B57
:1083F00010D0006908B9012070470C4B1B78032B83
:108400000EBF0B4B80B24FF6F773984294BF00201B
:10841000012070470549436841F650028A58B3EB82
:10842000422F2CBF01200020704700BF0080002099
:10843000F7FFFF0F0378022B14D030B4104A4368C3
:10844000006941F6480402F5C2511559096841F620
:108450003C042B4012595B0A023801FB00301044E7
:1084600030BC7047064B426841F6340141F630009B
:108470005958185800EB410000EB5220704700BFDC
:108480000080002010B40C4A92F8003902EBC301BE
:108490000133DBB2042B4FF0050408BF00234FF477
:1084A000045081F8044982F80039C1F808095DF8E0
:1084B000044B4FF0FF307047300F0020202301485D
:1084C0000B807047C4010020642301480B80704773
:1084D000E4010020432301480B807047480200203C
:1084E00010B5084CD4F8F400FF2809D00649D1F89B
:1084F000242901F62811FFF7A7FEFF23C4F8F43062
:10850000002010BD98010020300F0020E8E700BFD8
:1085100008B5D0F8E4355B6A9847002008BD00BF75
:1085200008B5D0F8E4351B6A9847002008BD00BFA5
:10853000D0F8E43510B504461B689847D4F8E83500
:108540009B689847002010BD08B5D0F8E435DB697A
:1085500003B19847002008BD08B5042290F8121115
:10856000D0F8E83580F8131180F81221DB689847BD
:10857000002008BD10B5D0F8E83504461B699847BF
:10858000032384F81231002010BD00BF0B0617D45E
:1085900001EB810300EBC30310B400EB8100012465
:1085A000002283F8764383F8741383F87523426DB1
:1085B0005DF8044B136843F4001300201360704708
:1085C00001F07F0101EB810300EBC303012200EB0B
:1085D000810083F81C1183F81E2183F81D21826914
:1085E0001368002B01DA43F0804343F40013136057
:1085F000002070470B0630B41CD401EB810200EB65
:10860000C202002300EB810582F8741382F87533EF
:1086100001241A4604FA01F16D6D61F31F420169EC
:108620006FF3CF332B60CB6923EA0203002030BC09
:10863000CB61704701F07F0101EB810400EBC404C2
:10864000012200EB8105002384F81C1184F81D2110
:1086500002FA01F11A46AD6961F30F02DFE700BFCC
:1086600010B581210446FFF7C5FF20460121FFF721
:10867000C1FF024B002083F8300910BD300F0020ED
:1086800010B581210446FFF7B5FF20460121FFF711
:10869000B1FF82212046FFF7ADFFFFF71BFE002050
:1086A00010BD00BF38B50D4604468321FFF7A2FF79
:1086B00029462046FFF7E4FF002038BDF0B41646F7
:1086C0000A063AD401EB810500EBC50528240022F7
:1086D00004FB0104022B85F87413C5F87C6385F84C
:1086E000773385F8752304F55D7448D0154600EBA3
:1086F0008107012202FA01F17F6D61F31F45D7F86E
:1087000000C01CF4004F11D1E488204946F080528B
:1087100042F4004242EA834204F00F041C4B42EA56
:10872000845211400CEA0303194339600269D3698A
:108730002B430020F0BCD361704701F07F0101EBB7
:10874000810500EBC5052824012204FB0104022B4E
:1087500085F81C11C5F8246185F81F31A5F8221190
:1087600085F81D2104F58E740CD0002500EB8107DF
:10877000012202FA01F1BF6961F30F05BFE722711F
:108780001546B4E700252571F0E700BFFF87CC133D
:10879000007833EC002310B5194604464022FFF759
:1087A0008DFF8021204600234022FFF787FFD4F869
:1087B000E835A078012284F812215B6898470020F0
:1087C00010BD00BF82B00023016801930B690193C3
:1087D0000E4B03E00A690192013B13D0019A002A73
:1087E000F8DA019A094B42F001020192019A0A61FA
:1087F0000A69019203E00A690192013B02D0019AE1
:10880000D207F8D4002002B0704700BF400D03002B
:10881000436D064A1A61C278012A06D100F2CC5093
:1088200058614FF0802219681A607047180008607C
:1088300010B580210446FFF7A9FE20460021FFF76E
:10884000A5FE2046BDE81040E2E700BF70B44B78BB
:10885000012B24D00B784D6900EB83035A6D14680B
:108860001369D5B18D684D6123F4002305F07F05B0
:1088700023F07F0345F400252B431361C378012BBC
:1088800004BF0B695361C4F3076363F07B0363F3B5
:108890001F641460002070BC70478D68E4E7826933
:1088A0004D691468136915B38E68B5428CBF66F3C1
:1088B000060365F3060343F4002388BF4E6113618A
:1088C000C378012B1DD0C4F3076565F07B0565F304
:1088D0001F641460002BDDD14B69002BDAD00269D4
:1088E0000878516B012383400B435363D2E723F491
:1088F000002323F07F0343F400231361C378012B8B
:10890000E1D10B780D6900EB8300C4F30763816943
:1089100063F07B0363F31F644D610020146070BC3F
:10892000704700BF2DE9F0434A78012A32D00B7816
:108930004A6900EB83035C6D2368266912B38D6876
:108940002A44013AB2FBF5F2C2F3090205FB02F533
:10895000C5F3120562F3DC464D6165F3120626612C
:10896000C278012A04BF0A696261CA78012A47D025
:10897000C3F3076262F07B0262F31F63236000208F
:10898000BDE8F0838A68C2F3120242F4002262F367
:108990001C06E4E791F800804F6900EB880EDEF8D2
:1089A00018C0DCF80030DCF8106077B3D1F808901C
:1089B000384C07EB0905013DB5FBF9F504EAC5455F
:1089C000C7F312042C43CD7806F060463443012DE2
:1089D00026464AD0CCF81040C478012C56D0016904
:1089E000486B02FA08F202434A63C3F3076262F07B
:1089F0007B0262F31F63CCF800300020BDE8F083F7
:108A00004A797AB343F00053B2E706F0604646F481
:108A10000026CD78CCF81060C278012A30D0012D24
:108A2000E3D100698068C00554BF43F0005343F0B0
:108A30008053C3F3076060F07B0060F31F63CCF8E2
:108A40000030002A9BD1B8B203308010DEF8D0404D
:108A500095D0C9681346013351F8042B226098421F
:108A6000F9D18CE743F0805382E765F35E76CCF86A
:108A70001060C278012AD4D10C69CCF81440D0E738
:108A80000C69CCF81440012DAFD1CAE70A69CCF8C3
:108A90001420AAE70000F81F38B501EB810400EBB1
:108AA000C4040D46002184F87453C4F88C1384F870
:108AB0007513C4F88833C4F88023C3782821012BA8
:108AC00001FB050108BFEDB201F55D7108BFC4F8F7
:108AD00084231DB9FFF7BAFE002038BDFFF722FF3F
:108AE000002038BD70B5104BD3F83C2993F8545989
:108AF00004461AB193F840392B430DD0812120460A
:108B0000FFF744FD022D00D070BD2046074ABDE8A6
:108B100070401F230121BFE70121FFF737FD2046E9
:108B20008121BDE8704031E5300F0020641800203D
:108B300010B501EB8101084A00EBC1010446B1F810
:108B40008C131046FFF756FB034A204640230121B1
:108B5000FFF7A2FF002010BD88180020E8E700BF43
:108B600010B50223044640228121FFF7A7FD2046CD
:108B7000022340220121FFF7A1FD82212046032389
:108B80000822FFF79BFD064B02229A83FFF7AAFB00
:108B9000044A204640230121FFF77EFF002010BD3C
:108BA000980100208818002038B509220D46044697
:108BB00003238321FFF782FD29462046FFF7D0FFDC
:108BC000002038BD82B000230193019A094B42F086
:108BD00010020192C168019A0A610A69019203E0D8
:108BE0000A690192013B02D0019AD206F8D4002012
:108BF00002B07047400D030082B000230193019A38
:108C00000B4B42F020020192019A61F38A12019209
:108C1000C168019A0A610A69019203E00A69019236
:108C2000013B02D0019A9206F8D4002002B07047AE
:108C3000400D030070B50446144EFFF711FD2046A9
:108C4000022340228121FFF739FD402201212046E5
:108C50000223FFF733FDD6F8983900251B6886F804
:108C60003059284686F8545998472046FFF7AAFFFE
:108C700020460121FFF7C0FF204606F634121F23CD
:108C80000121FFF709FF284670BD00BF300F00200B
:108C90000E4BDA68D20310D4DA68D1060FD4DA6842
:108CA000D20510D4DA6812F0E00F0AD1DB6813F0B5
:108CB000020F14BF082009207047012070470620CA
:108CC0007047072070470220704700BF003C0240F9
:108CD00030B4114B93F8AC1993F8E84BC3F8E40B9C
:108CE000002503F51A608C2283F8AA59092C02FB8F
:108CF00001324FF00A05C3F89C094FF0010083F8D8
:108D0000AB5983F8E00B08BF091830BC82F8B209F0
:108D100008BFA3F8EC1B7047300F0020074A92F8F9
:108D2000AC3992F8F41B0133DBB2994282F8AC39CA
:108D300004BF002382F8AC39704700BF300F002019
:108D4000F8B5694CD4F8F83B53B3D4F8FC3B93F82E
:108D50002E302BB3654B94F8E02BA3FB00139D0939
:108D6000002A79D0012A1BD1D4F8E43B6433AB420A
:108D700017D894F8AC3904EB031393F8001CFF29BF
:108D800005D05B48013183F8001C80F8F820FFF71C
:108D9000C5FF2846FFF79CFF94F8E83B092B62D0FB
:108DA000F8BD94F8AA2994F8AB399A42F8D104F6A0
:108DB0009F1004F6A816002310F8012F0821534035
:108DC0005A0013F0800F08BF5B0082F0070214BF47
:108DD000D3B2DBB20139F3D1B042EDD194F8A92975
:108DE0009A4249D194F8AC69B4F8A37994F8A7C928
:108DF000B4F8A50994F8A83994F8A1E904EB06128F
:108E00007FBA40BA43EA0C23BFB294F8A2C982F8F1
:108E1000001CC2F8047C81B2354F94F9A009C2F855
:108E2000081C4CEA0E2C1BB20121032EA2F802CC26
:108E3000A2F80C3C82F8010C87F8F81009D894F8D5
:108E4000E82B0C2A3AD00D2A03D104EB4604A4F8EF
:108E5000EC0BFFF763FF02E0264B9842A0D92846AF
:108E6000BDE8F84034E7B4F8463C01339BB2A4F8BF
:108E7000463CA4F8EE3BF8BD94F8AC3904EB031380
:108E800093F8002CFF2A06D019490132012083F8FB
:108E9000002C81F8F800FFF741FF2846FFF718FF84
:108EA00094F8E83B092B7FF47BAFB4F8443C0133E2
:108EB0009BB2A4F8443CA4F8F03BF8BDA1190E4ABB
:108EC00091F8401C03EB830303EB83039B0004EB4B
:108ED000460493FBF1F382FB0312DB17C3EBA203FF
:108EE000A4F8EC3BB5E700BF300F0020D34D621073
:108EF000980100203F4B4C006766666630B4054C15
:108F00000D46134601462A46D4F8BC0030BC39F061
:108F100079BB00BF300F00202DE9F84F574B984226
:108F200010D003F568530833984268D0544B0020A2
:108F3000A3F8A00CA3F8AC0CC3F8A40CC3F8A80CBD
:108F4000BDE8F88F4E4C4F4E02224FF0000BC4F894
:108F5000482C04F64C45D9464FF4007A4FF48078FB
:108F6000D6F8FC2001275A455946BB4403D0D4F813
:108F7000BC0C34F0B7FC94F8C02C85F82420D4F84D
:108F8000BC0CA5F804A04FF000724FF48031A9602A
:108F9000EA60A5F8108085F81290A5F806802F7673
:108FA0002862B72134F094FED4F8482C364B6F7603
:108FB000934545F8283BD3DB84F8AE9CD4F8481C95
:108FC000B4F8502CD4F8583CD4F8540CB4F85C5C89
:108FD000C4F8C43C12FB01F203FB01F3A4F8A02C7B
:108FE000B4F8521C294AC4F8A40CC4F8A83CA4F84C
:108FF000AC5CA4F8A21CC4F89C2C0120A0E7204C77
:10900000204E0223C4F8483C04F64C454FF0000BB8
:109010004FF4806A4FF040094FF40068D6F8FC2006
:1090200001275A455946BB4403D0D4F8BC0C34F050
:1090300059FCD4F8BC1C94F8C02C296285F8242073
:109040004FF400314FF00062C5E90212A5F804A008
:10905000A5F81090A5F80680AF74FFF731F8284600
:109060006F7634F087FDD4F8482C094B45F8283B3F
:109070009345D3DB84F8AE7CA0E700BF1971EF0005
:10908000300F00209801002088680408E068040878
:10909000B4680408F8B51A4C94F8C83C002BFBD10E
:1090A00059B301444E1E451ED4F8DC28D4F8D81814
:1090B00015F8017F531CC3F30A038B422CBF4FF4F6
:1090C00000600020C91A224401440129C4F8DC3898
:1090D00082F8CC7C0FD1012028F064FDD4F8D83878
:1090E000D4F8DC188B4294BF4FF4006200225B1A64
:1090F0001344012BEFD0B542D6D10020F8BD00BFFC
:10910000300F00200A4B0846D3F8F81810B569B1A3
:10911000D3F8F838052B09D1064C002AD4F8D433FB
:1091200004DD1146FFF7B6FFD4F8D43310BD00BFFD
:10913000300F00202820002010B590F85010002398
:1091400080F8503089B10C4CD4F8F8287AB1D4F8B2
:10915000F828052A0DD1094C3C30D4F8D433FFF758
:1091600099FFD4F8D433012010BD0120FCE710464C
:10917000FAE71846F8E700BF300F0020282000204B
:10918000002280F85120D7E790F85020531C024469
:10919000DBB280F8503082F83C1090F851200AB1D0
:1091A000132B00D9C8E77047024B0146D3F8BC0027
:1091B00039F06EBA300F002010B5104C0023FF209C
:1091C000C4F88030FFF7F0FFFD20FFF7EDFFFF2030
:1091D000FFF7EAFFFF2808D1FFF7E6FFFF2804D1D9
:1091E000042384F88430022010BD054A0923D2F8F4
:1091F000D423626784F88430002010BD300F002033
:109200002820002070B505460E460924FF20FFF7F0
:10921000CBFFFF2803D1013CF8D1012070BDFE280F
:1092200001D0022070BD324629460020FFF766FEBD
:10923000FF20FFF7B9FFFF20FFF7B6FF002070BD4A
:1092400070B582B040F040060C0E05460A0A080CC4
:1092500095238DF801408DF804108DF800608DF88D
:1092600002008DF803208DF805300824FF20FFF759
:109270009BFFFF2802D0013CF8D165B906220021EE
:109280006846FFF73BFE0924FF20FFF78DFFFF280C
:1092900002D1013CF8D1FF2002B070BD10B50D4CD9
:1092A00094F8CD200023C4F8803012B10A4AC2F8E5
:1092B000D83337F099F920B1042384F884300220A0
:1092C00010BD054A0923D2F8D423626784F884309C
:1092D00010BD00BF300F00202820002070B50D4DBC
:1092E00095F88430042B04460E460AD0082B06D18C
:1092F000EB6F83420CD0FFF7D1FF022801D0012091
:1093000070BD0823C5E91F4685F88430022070BD72
:10931000022070BD300F00202DE9F0414379404D0F
:10932000002B14BF0122002285F8B02003D185F85C
:109330008430BDE8F08190F8018008F1FF3676B204
:10934000044630460F462AF061FF0223C5F8BC00F0
:1093500085F8B83023784BBBE478002C3ED14FF42D
:109360008071D5F8BC00C5F8C04038F08FFF4FF4CD
:109370007A7028F017FCD5F8C0002A4C28F062FE5D
:10938000002108460A22FFF7B9FD01E0013C31D077
:10939000D5F8BC0039F074F90028F7D1224B85F8D4
:1093A0007800D3F8D4336B670123C0E706EB860659
:1093B0003E44414696F9032000202AF013FD06465C
:1093C00030B1406838F030F9B36885F8CE30C8B9AC
:1093D000002385F8C430E478002CC0D0204628F063
:1093E000FFFC044608B11E23C3800921204628F053
:1093F000BBFDB4E795F8783085F88440013385F8F3
:10940000783096E7094A431E02EB431317210022E6
:10941000C5F8C83038F0B0F9012385F8C4309BE7AF
:10942000300F0020A1860100282000209802002093
:1094300010B5084CD4F8BC0039F022F90028F9D155
:109440000A2028F0A3FBD4F8C000BDE8104028F0A3
:10945000F9BD00BF300F00202DE9F8431A4C94F8F5
:109460008460042E0546894690461F4608D0082E83
:1094700002D00020BDE8F883FFF79EFE0228F8D155
:10948000D4F8C00028F0D8FD94F87A309BB969026E
:109490001120FFF7D5FEA0B90C4BC4F86090D3F8AB
:1094A000D42365660523C4E91B87626784F884308A
:1094B0000120BDE8F88329461120FFF7C1FE0028EE
:1094C000EAD0FFF7B5FFD4E7300F002028200020B6
:1094D0000E4B30B4DB68427801780D4CDB43C3F3AC
:1094E0000223C3F10403DBB202FA03F360181B0189
:1094F00001F01F050122490903F0F003AA4080F89A
:10950000003344F8212030BC704700BF00ED00E07C
:1095100000E100E000F01F0240090123032803FAE4
:1095200002F304D004280CD0022805D07047074A63
:10953000116C0B4313647047044A516C0B43536422
:109540007047024A116B0B431363704700380240A7
:1095500058B183884FF00042B3FA83F332FA03F331
:1095600003D002490A6813430B607047003C014076
:109570002DE9F04782B00D4617461E4604462AF0F4
:1095800043FB00285ADBDFF80091DFF8008109EB8C
:10959000000308EB80000021C0F8DC53204693F85C
:1095A00084A028F0E1FC002C69D0256805F13F4536
:1095B00005F57E05C5F3872520462AF025FB00F03A
:1095C000FC0303F1804303F59C3300F003009A6829
:1095D00080000F21814022EA01029A609A6885404A
:1095E00015439D60002C40D0A0884FF00044B0FA95
:1095F00080F0C440E24323494C610B6813400B6088
:109600004B6813404B600B6823430B608B6809EB7E
:10961000860613408B60CB6896F894001A40102899
:10962000CA6025D000F1804000F59E3003681C43DD
:109630000460D04498F81C34BB4202DC02B0BDE8A0
:10964000F087D144BA1199F8A0308DF8043001A800
:109650004FF4807388F81C748DF80520ADF806303F
:10966000FFF736FF02B0BDE8F0874FF0FF32C2E7E8
:109670008B6823438B60CB681C43CC60D9E7FF2504
:109680009AE700BF003C01408868040828200020B9
:10969000B0B10C49D1F82434102B03D1052100209E
:1096A0002AF082BA03EB43020A4482F828042020FD
:1096B00082F829040120034482F82A04C1F82434E2
:1096C000704700BF28200020C078E1E72DE9F84F5F
:1096D0002E4F00EBC00407EB8404D4F85C642EB179
:1096E000054694F86D0400F0FF0820B14FF0000823
:1096F0004046BDE8F88F89469A46934628F0F0F92F
:109700004FEA49010123C9B284F86E1484F86FB49A
:1097100084F8713484F8728484F8703484F86D3479
:1097200084F86C84B288C4F874A491058146C4F8A6
:1097300078A41DD43388DA0510D442F20F7405E002
:1097400028F0CEF9A0EB0903A34215DC33889B0572
:10975000F6D433889BB243F480733380B3889BB2D2
:1097600043F440734FF00108B3804046BDE8F88FE2
:1097700098464046BDE8F88FB7F8C43401339BB231
:109780002846A7F8C43439F0A1F8B1E72820002012
:1097900070B5464E96F8C64404EB840306EB83038B
:1097A000A50093F8C834032B6ED8DFE803F05929DD
:1097B0001E02254406EB8505D5F8CC04002870D19F
:1097C00096F818359C425FD0013404F003029342AE
:1097D00086F8C62458D002EB820406EB84040223E8
:1097E000C4F8CC0484F8C83470BD2B1906EB83038D
:1097F000D3F8CC2472B1013AC3F8CC24002070BD58
:109800002B1906EB8303D3F8CC24002AF3D10222D0
:1098100083F8C824254406EB850595F8D434013B2C
:10982000DBB285F8D4348BBB214B96F81865D3F89E
:109830000013D5F8D004621C02F003024B1E03246F
:10984000B242034485F8C844B3FBF1F0C5F8CC0438
:109850001AD0994218D80138C5F8CC04012070BD3F
:109860002AF0AEFD80B1124B2C44D3F8002306EB56
:109870008404012102F51C5384F8C8140F33B3FB90
:10988000F2F3C4F8CC3470BD012070BD084BD3F89E
:109890000023012002F2E733B3FBF2F3C5F8CC3426
:1098A00070BD0138C5F8CC04002070BD2820002010
:1098B000980100202DE9F84F3249DFF8D4B091F833
:1098C000191501240229074619461046CBF82C40E9
:1098D0004FF000022C4C1D4618BF7F02FEF790FB94
:1098E0002A4B63626B02A362E36A40F2FF5943F0C2
:1098F00093034FF400704FF48A62E3620121C4F8CD
:109900003890A0601020E26036F060FC012D40F23B
:1099100051434E46C4F83890CA4640F252488EBF72
:109920004FF0120998464FF011090A25C4F838A0E3
:109930000121A7604846C4F80C8036F047FC034676
:109940004FF0000C40F2774201213720A6632BB97B
:1099500000231846CBF82830BDE8F88FA663C4F87A
:1099600008C0E26036F032FC013DA6630028EFD06B
:1099700015F0FF05DAD10346CBF82C50CBF8283090
:10998000BDE8F88F28200020002C014000E1F505FB
:10999000300F00202DE9F84F2F49DFF8C49091F8DF
:1099A00019151E4602292D4B07464FF0010418BF1A
:1099B0004702012E40F259481C6398BF4FF48B6850
:1099C0003B469346474640F2FF55B0468CBF4FF0AA
:1099D000190A4FF0180A0A241E4640F2FF53C9F82C
:1099E00038300121C9F808605046C9F80C7036F0CB
:1099F000EDFB03464FF0000C40F277420121372087
:109A0000C9F83850A3B9584641460122FEF7F8FA82
:109A10004646134A134B536276029662D36A43F06A
:109A20009103D3620D4B002108469962BDE8F88F7F
:109A3000C9F83850C9F808C0C9F80C2036F0C6FB80
:109A4000013CC9F838500028DDD014F0FF04C4D11F
:109A5000024B1C63BDE8F88F28200020300F002047
:109A6000002C014000E1F50530B4084C94F81C5579
:109A7000022D13460A46014604F21C5002D030BCA7
:109A80002AF0F0BB30BC2AF05FBB00BF28200020CA
:109A90000378022B4FF0010201D02AF009BC2AF012
:109AA0006BBB10B50C4C94F81C35022B12D1D4F8BA
:109AB000240528F0C7FAD4F8240508B12123C3806F
:109AC000012128F051FAD4F820050821BDE8104002
:109AD00038F0DCBB10BD00BF2820002073B50D4E50
:109AE00005460C46FF230A46014630468DF80730EE
:109AF0002AF042FB01230DF1070245F080013046B8
:109B00002AF022FB9DF80700031B5842584102B07F
:109B100070BD00BF4425002030B5044683B000BFAF
:109B2000806828F089FA4CF2050301AA6946ADF86D
:109B300000306068032300258DF8025038F062FD84
:109B4000A06828F07FFA00BF9DF8060003B030BD82
:109B5000F0B5C44EC44885B0242200213CF059FE23
:109B600096F85D75002F39D1C04DD5F89C3C5BB39C
:109B70009B6A4BB3BE48984783682BB30388DFF8D2
:109B8000E8C2013B9BB26446664600213078032858
:109B900006F106061BD001310629F7D100222178F3
:109BA000022904F1060400F0A8800132062AF6D149
:109BB000E96D052908D0481C02FB01C2E8650220B6
:109BC0000021938010705180384605B0F0BD062307
:109BD00003FB01514B8F013B9BB2DFE796F85C051D
:109BE00006F26453C6F8603510B9A04D0027BCE7F3
:109BF00028F0F6F80546C6F86C05002800F0ED8060
:109C0000837913F0BF0FF0D1781E022340B286F89B
:109C100064352AF0FBFA0028E7D02023C6F868054F
:109C2000EB802846092128F09FF9D6F860358F4D42
:109C3000986828F007FAD6F860351021586838F08F
:109C400025FB8C4BD6F86025C5F8BC2C93E80300A7
:109C50000123009032208DF8041085F8C03C0024C8
:109C600027F0A0FF052302AA6946D6F860058DF803
:109C70000A408DF809402AF091FA9DF80A009DF8F3
:109C800009109DF80B207C4B000240EA0140104374
:109C9000984200F0C28034DCA3F5F113984260D002
:109CA00044DD764B984254D00233984264D14FF44D
:109CB00000724FF48073A5F8A02CA5F8AC3CB5F861
:109CC000AC2CB5F8A03C120202FB03F300204FF4C9
:109CD0008071B3F1807FC5F8A42CC5F8A83C85F845
:109CE000AE0CA5F8A21C00F287800124644B85F815
:109CF000B54C2746C5F89C3C37E7062101FB02C25C
:109D00005DE7604B984234DC053B984234DD5E4BA6
:109D10000344032B79D801A252F823F0639D000875
:109D2000539D0008459D0008AF9C0008A3F5220341
:109D3000013B984269D04CDD544B984209D0013325
:109D4000984219D14FF48073A5F8A03CA5F8AC3C1B
:109D5000B5E780224FF48073A5F8A02CA5F8AC3CA1
:109D6000ADE740224FF48073A5F8A02CA5F8AC3CD9
:109D7000A5E7474B9842E5D00023A5F8A03CA5F8FD
:109D8000AC3CC5F8A43CC5F8A83CFFF7C5F80346B1
:109D900080BB9DF80B009DF80A209DF80C10000276
:109DA00040EA02403B4A084390423ED0A5F8A03C1E
:109DB000A5F8AC3CC5F8A43CC5F8A83CFFF7ACF846
:109DC0000746B8B996F85C0528F00AF82AF084F935
:109DD000CBE6314B9842B5D0CEE77C1E022360B271
:109DE00086F864352AF012FA00283FF4FEAEC6F871
:109DF000680516E70127B8E60123D5F8BC0C85F8FD
:109E0000B43CB72133F064FF6FE720224FF4807336
:109E1000A5F8A02CA5F8AC3C51E74FF480621023C4
:109E2000A5F8A02CA5F8AC3C49E71C4BC5F8A03C14
:109E30004FF4003140234FF000620127A5F8AC3CFD
:109E4000C5F8A41CC5F8A82C85F8AE7CFEF738F937
:109E5000074885F8B57C33F08DFE114BC5F89C3C66
:109E600083E600BF28200020680F0020300F00206C
:109E7000CC1B0020306904081640E0001720C20007
:109E8000886804081940EF00EABF10FF17BA2000E5
:109E90001870EF0021AAEF0018600100000400080C
:109EA000B468040810B51A4C94F87205C0B9194B7F
:109EB000C3F8B40083F8B10094F87535012B05D0D0
:109EC000022B21D0D4F878351BB910BD124BC4F841
:109ED000783512495B68BDE81040A1F10C001847C5
:109EE00027F07EFF94F874250A49003A18BF012232
:109EF00081F8B120C1F8B4000028DDD01F22C28053
:109F0000202128F031F8D7E7054BC4F87835E0E791
:109F100028200020300F0020C0040020A4250020AD
:109F20009C04002099B10A6B824216D9154BD3F8D4
:109F3000BC25914221D34C3991421ED30B6B9842E0
:109F4000F9D38B6B9842F6D80B46184670470D4BE9
:109F5000D3F8BC150A6B904212D30B680BB9F4E727
:109F60000A6B90420B4602D38A6B9042EDD951F8AE
:109F70004C3F002BF4D11846704700231846704719
:109F80000A46D8E7282000202DE9F047CC0143D12C
:109F90000346224A43F8082B4FF0FF324260022466
:109FA00018467E26DFF87880D8F8C0952644013E12
:109FB000051D49466FF070474FF0010A08E0A342C3
:109FC0001CD0631C45F8043C321B1C460435CAB146
:109FD0000B6BA34202D88B6BA34204D22046FFF73F
:109FE000A1FF014690B10A794B6B002AE7D1A34249
:109FF00004D0E6D245F8042C631CE5E745F8047C60
:10A00000631CE1E7C8F8C015BDE8F08745F804AC6B
:10A01000321B631C4946D8E78026C3E7F8FFFF0FD1
:10A02000282000202DE9F84FDFF860A10AF1100682
:10A030002DED048BB146DFED4C8A9FED4C8A9FEDF0
:10A040004C9A0AF19005544606E005F180074C450C
:10A050003D4606F1020662D014F8013B002BF4D015
:10A06000444A92F8F42B9A42EFD332882B70002A9C
:10A0700068D04CF250339A4255D807EE902AF8EE49
:10A08000677A338C67EEA87A092BC5ED017A62D91D
:10A0900042F21072934264D807EE903AF8EE677A73
:10A0A000B6F8403067EE887A132BC5ED047A4FD9A5
:10A0B000B3F57A7F52D807EE903AF8EE677AB6F8A1
:10A0C0006030DFF8CCB0C5ED027A632BDBF85C1EA4
:10A0D0003BD907EE901AF8EE676A07EE903A89EEE0
:10A0E000267AF8EE677AB4EEE77AF1EE10FA98BFC6
:10A0F000F0EE477AC5ED037A05F1140805F1800703
:10A100004046D5ED040A95ED020A012208F1240823
:10A1100032F036FCB84509D0DBF85C1EF0E7BDEC48
:10A12000048BBDE8F88FDFED147AAAE7134B93F8A0
:10A130004D236FEA0A012144013283F84C1383F85E
:10A140004D2384E7F7EE007A9BE7DFED0D7AD1E748
:10A15000F3EE047AB3E7F2EE047AA1E7DFED097AD1
:10A16000ADE7DFED097A9BE790C2753D0AD7233C46
:10A1700000BADB48300F0020005043472031002058
:10A180000000C84200007A4400401C46F025002030
:10A19000282000200C480D4BD0F8681310B40C4C4C
:10A1A000C0F858338A1E2231B0F882331B01A4FB59
:10A1B00003C3DB08A3F5B06322F8023F9142F3D159
:10A1C0005DF8044B704700BF203100204590010826
:10A1D000CDCCCCCC70B5084C251D2E4614F8010B07
:10A1E0001DF008FC28B1037805F8013BB442F5D115
:10A1F00070BDFF23F8E700BFC03400202DE9F04711
:10A200001D4F012607F10805B2464FF03B094FF0FC
:10A21000000817F8010B27F0E3FD044690B180F821
:10A220000690C671FB7803F07F02012A18D013F064
:10A23000800F20460DD185F8048027F0FDFE85F8BB
:10A2400005802C600136052E05F10805E1D1BDE839
:10A25000F08785F804A027F0F5FE85F805A0F0E763
:10A260001B0605D40121204627F07EFEFB78DEE7A1
:10A2700027F0E8FEF6E700BFC834002070B50446BA
:10A2800084B04FF4004022F091F870B300234FF4F3
:10A29000E131032590F904000293CDE900151A4637
:10A2A0004FF4004122F0E5F8114BC3F8D003E0B1C0
:10A2B000012C40F698020F480F4D83F8D44308BF95
:10A2C0004FF496624FF461710A26A3F8DC230B4A1F
:10A2D000C3F8D863C3E9F950A3F8DE13A3F8E01379
:10A2E000C3F8EC23012004B070BD0020FBE700BFE1
:10A2F00020310020753B0108791101086D1101081A
:10A300002DE9F041204D95F8133485F80C3405F50E
:10A31000826705F2144600244FF0050817F8010B78
:10A3200020BB30600134032C06F10406F6D195F809
:10A330000C14D5F81404C94301F0010127F088FE7C
:10A3400095F80C14D5F8180481F00201C1F340010E
:10A3500027F07EFE95F80C14D5F81C0481F004015A
:10A36000BDE8F041C1F3800127F072BE27F038FD4F
:10A37000013401213060E3B210B180F80680C3716E
:10A38000306827F0F1FDCEE720310020F0B5284CF1
:10A39000B4F82454A4F8265483B0EDB994F82004FA
:10A3A00027F01EFD94F82124C4F82804003A18BFB1
:10A3B000012284F82C2448B194F822142B2200297D
:10A3C00014BF11210121C28027F0CEFD002003B06F
:10A3D000BDE8F04027F044BE94F8207400223846CF
:10A3E0002B2127F033FB0646384627F0F9FCE8B16D
:10A3F000E6B12B22C4F84404C280727A022127F00D
:10A400003DFD00270B4AB2FBF5F3C3F34F0000906C
:10A410009BB23146019704F58660A4F8485419F0C0
:10A420005BFFD4F830341F6084F8417403B0F0BD92
:10A430002031002040420F002DE9F84F254C94F8C0
:10A44000543484F84A3404F24B47002604F58D64F2
:10A450005FFA86FB0BF101085FFA88F8012117F813
:10A46000010F42460E448A4627F0F0FA4FF00009E9
:10A47000054648B3387804F80E9C04F80D9C04F89F
:10A480000FBC04F810AC44F8045C27F0A9FC0221CE
:10A4900018B180F806A080F807806A7A27F0EEFCF1
:10A4A0000D4A0021284627F075F80C4B23600C4B11
:10A4B000221D21462846C4E9013927F01BF9697994
:10A4C00028684A4619F0C0FE082E04F11C04BFD1CA
:10A4D000BDE8F88F2031002040420F008142020881
:10A4E000111B020870B52D4C2D4B94F88005C4F853
:10A4F000783500220221C4F83825C4F83C25C4F878
:10A500004025C4F87425A4F87C2527F09FFA00287C
:10A5100037D00168054604F2845304F2E4505A7CB3
:10A5200012B15A6891422DD018338342F7D10023DB
:10A5300094F88005C4F8645484F8583427F050FC2B
:10A5400008B10223C3806A7A022127F097FC2846CB
:10A55000144A002127F01EF8134A1449C4F868145D
:10A560000026111F2846124BC4F86C34C4F87064DE
:10A5700027F0C0F8697928683246BDE8704019F0C4
:10A5800063BE70BD0B8D0B49D4F8E4259BB201333B
:10A59000B2FBF3F381F84C33C9E700BF2031002050
:10A5A00000FFFF0040420F008C350020391B0208DD
:10A5B000D91C02089801002070B5534E96F87C0310
:10A5C00096F87D5327F00CFC60B12D23C380202129
:10A5D000044627F0C9FC0A2027F0D8FA204629F0C3
:10A5E00009FB18B9D6F8E835DA0000D570BD013D91
:10A5F000092DFBD896F87B43CCB9402021F0D6FE3C
:10A600000028F3D090F9043096F85113092BC8BFF5
:10A61000143B33440A2993F8EC4567D093F8F83596
:10A6200096F87A23002A08BF1C46002CDED020466C
:10A6300027F0D6FB054608B12D23C380012128460B
:10A6400027F092FC0121084627F048FD0121284609
:10A6500027F0FEFC3C2027F0A5FA0021012027F07E
:10A660003DFD96F87D331BB300240021084627F0FA
:10A6700035FD0021022027F031FD0021284627F07A
:10A68000E7FC782027F082FA0121002027F026FD40
:10A690000121022027F022FD0121284627F0D8FCC5
:10A6A000782027F073FA96F87D3301349C42DCDB86
:10A6B00096F87B3393B996F87C33002B96D196F8B5
:10A6C0007E33012B92D1D6F8E83513F080538DD12B
:10A6D00086F87D33BDE870402FF05EB9322027F058
:10A6E00061FA2846002127F03FFCE4E7D6F810364F
:10A6F0005B057FF57BAF0AF0C9FF00287FF476AFDA
:10A70000002C94D172E700BF2031002030B404380F
:10A71000043A0C1F01F1080554F8043F52F8041FD5
:10A72000AC42A3EB010340F8043FF5D130BC7047C5
:10A7300070B4344890F81436A3F13001092957D881
:10A7400000F21464224600F2236012F8015FA5F1C2
:10A750003001092904D88242F7D1002070BC70472B
:10A76000141B022C4ADD2848002101E010F8013BAF
:10A7700001EB810103EB4103161A303B022E044624
:10A7800003F0FF01F2DC214B03FB01F1A2424FF089
:10A7900000030DD903EB830314F8016B5B00303B1E
:10A7A0003344A24203F0FF03F4D1194800FB03F342
:10A7B0002E2D06D01748A0FB032301EB930070BC9D
:10A7C0007047013204200024157804EB8404303DE6
:10A7D0006400092D00F1FF30A4B202D82C44A4B2C9
:10A7E000013210F0FF00EFD1642202FB0433E1E7F5
:10A7F00000211D4600F214620B46D9E7064C0021E9
:10A80000C4E700BF20310020353700208096980033
:10A8100040420F00ABAAAAAA3437002038B504463C
:10A820000D460A460068FF213BF0F3FF21682944EA
:10A83000216038BD83B50C461646054620F07CF9EC
:10A84000204620F079F90021204B0846002E08BF51
:10A850001E4627F043FC0021012027F03FFC28463C
:10A8600027F0FEF9B0B10121002027F037FC28467F
:10A8700027F0EEF90746204627F0EEF90028FAD037
:10A880003946204627F012FA3846B04700210846DC
:10A8900027F024FC204627F0E3F90028DFD001212F
:10A8A000002027F01BFC204627F0D2F9014628465D
:10A8B000019127F0D1F901990028F8D0284627F016
:10A8C000F5F90021084627F009FCC8E7617A02087B
:10A8D000F0B500230B604B608B60CB600B610268AE
:10A8E000DFF88CC089B004ADC2F385572E4647FA15
:10A8F00003F0C007344604D513F80C0004F8010B2C
:10A9000026460133062BF2D11748C2F30324044430
:10A91000002394F8B84033708DF8184000F1C00C53
:10A92000C2F305370DF1190647FA03F0C0073446A4
:10A9300004D513F80C0004F8010B26460133062B4E
:10A94000F2D100233370C2F3834406ABCDE9013466
:10A95000084602F00F0305490095C2F3031231F0D7
:10A96000E5FD09B0F0BD00BF88680408F8BC040824
:10A970003869040870B5094CD4F82426054662B13C
:10A980000026D4F824062D21013629F0E7FCAE423A
:10A99000F7DBBDE870402DF053BF70BD20310020C3
:10A9A000074B4FF47A7003F114014FF4FA6223F865
:10A9B000040C23F8022C04338B42F8D1704700BFFB
:10A9C0004C370020F8B5224DD5F8FC3B93F82E20EB
:10A9D000EAB15B699847F0B1D5F8FC3B93F82C20BD
:10A9E0009AB11C4E00249A6AB6EC010A9F699047FE
:10A9F00007EE900AE0B2B8EE670AB847D5F8FC3B1C
:10AA000093F82C2001349442EDDB1B6A984795F8AB
:10AA1000E83B332B00D0F8BD0F4B93F84C36002B9E
:10AA2000F9D0D5F8FC3B93F82C30042B1E46A8BF78
:10AA30000426002BEFD00024084D2346184636F09C
:10AA4000DBFB0134E3B2B34225F8020BF6D3F8BDC9
:10AA5000300F00205C370020203100201C1B00201C
:10AA600038B50F4C94F8571601F03F018B1C024685
:10AA700001F10A0584F8553684F8525604F5CA6087
:10AA800084F85326083114F0C3FC254485F84E069B
:10AA900094F852361C44000A84F84F0638BD00BFB3
:10AAA0002031002070B51D4C0968D4F87C561C4E2E
:10AAB000D4F87846D6EDD47ADFED1A6A491B00EE59
:10AAC000901A0168F8EEE00A091B60EEA70A00EE92
:10AAD000101A20EEA07AB8EEC00A1C46A0EE007A4A
:10AAE000B1EE400AF1EEC77A67EEA67AFCEEE77A9D
:10AAF000C2ED007A31F0B4FE9FED0B7ADFED0B7AF8
:10AB0000E0EE077AFDEEE77A17EE902A002ABCBF46
:10AB100002F50C42A032226070BD00BF203100203F
:10AB2000980100202C7D8E3FA00CB34500A00C4660
:10AB300038B50B4C002501228021204621F022FC53
:10AB400030B194F9040021F053FC08B1006838BD1D
:10AB50000135062D04F10C04EDD10020F7E700BF0C
:10AB6000B03700202DE9F84FA74C94F80908D4F825
:10AB7000E08604F2DC632DED048B93ED008A00285F
:10AB800040F0BC80D4F8142894F8081894F82538BC
:10AB9000002A19DD07EE902ADFED9C6AF8EEE77ACD
:10ABA000C3F1640386EEA77A00EE103AB8EEC00A4D
:10ABB00020EE070A29B920EE000ADFED957A20EE93
:10ABC000270A39F033FD80B2B4F80A38A4F80A082D
:10ABD000834200F0938094F8E4768E4E9FED8E9A37
:10ABE000DFED8E8A002594F828382B41DB0714D539
:10ABF00094F80838002B58D1B4F80A3807EE103A08
:10AC00000FB986ED019AB8EE477AC8EE877A77EEEB
:10AC1000887A88EE277A86ED027A0135052D06F1CD
:10AC20002406E0D194F80D58B4F810683DB1D4F87A
:10AC30002C2894F80E3892F83720134371D087BB34
:10AC40007EB3744EDFED758A012D4FF0000906F1D9
:10AC50006C0713D0022D06F1B800414607D1B4F8B5
:10AC6000103800EE103AB8EE400A31F035FF2436C5
:10AC7000B74216D094F80D58012DEBD1B4F8103826
:10AC8000C6F8B89007EE103AB8EE477A2436C8EE08
:10AC9000877A77EE887A88EE277A86ED267AB74229
:10ACA000E8D1BDEC048BBDE8F88FB4F80A38414612
:10ACB00000EE103A301D37B9B8EE400A31F00CFF03
:10ACC00094F8E476A9E7D6ED069AD6F81CB0D6F843
:10ACD00020A0D6F82490B8EE400A0322F0EE490AEC
:10ACE000301D31F04DFE94F8E476C6ED069AC6F8B4
:10ACF0001CB0C6F820A0C6F824908EE794F8E4763D
:10AD0000002F3FF46AAF94F80D58B4F81068002D86
:10AD1000C7D0D4F82C2894F80E3892F83720134373
:10AD2000BFD1D4F8142894F82538002A5CDD07EE4A
:10AD3000902A9FED367AF8EEE77AC3F1640387EE46
:10AD4000270A012D07EE903AF8EEE77A20EE270A5F
:10AD50004ED039F06BFC80B2A4F81008002F4ED012
:10AD6000B0429ED000289CD02A4E9FED2C9ADFED59
:10AD70002A8A012D06F16C0727D0022D1DD1B4F8C7
:10AD80001038D6F8CCB0D6F8D0A0D6F8D490D6F8F3
:10AD9000D85000EE103A0322B8EE400AF0EE680AEE
:10ADA000414606F1B80031F0EBFDC6F8CCB0C6F86C
:10ADB000D0A0C6F8D490C6F8D8502436B7423FF495
:10ADC00070AF94F80D58012DD7D1B4F8103807EEB4
:10ADD000103AB8EE477AC9EE077A77EE887A88EEAD
:10ADE000277A86ED2F7AE8E70023A4F8103858E791
:10ADF00060EE007A9FED060A27EE800AA9E7064674
:10AE0000002E3FF44EAF1CE72031002000409C454F
:10AE1000CDCC4C3C043800200000000083F9223ED9
:10AE2000F8B5214C1D270E46054684F8307814F0FD
:10AE300015FC002014F0B4FB082014F0B1FB0E2028
:10AE400014F0AEFB384614F0ABFB042014F0A8FB62
:10AE5000042014F0A5FB002014F0A2FB302014F015
:10AE60009FFB002014F09CFB304614F099FB00205F
:10AE700014F096FB14F0DEFB04F6310014F0E4FA53
:10AE8000234670B194F8312862B994F83228302AF8
:10AE900000D03AB993F8332822B993F834382B709C
:10AEA0000120F8BD0120FCE7203100201D4991F868
:10AEB0001426A2B3F0B40026054633463046374682
:10AEC0001BB991F814462D2C23D02E2A19D0CA185C
:10AED00000EB800092F81446A4F13002092A4FEAF0
:10AEE00040009CBFA0F13002A0180E2B14D80133F3
:10AEF000CA1892F81426002AE2D106B14042F0BCEA
:10AF000070470133002DF8D0CA182A4482F814760D
:10AF1000DDE701231E46EBE70020F0BC7047002070
:10AF2000704700BF2031002010B51C2026F058FFCC
:10AF30001121044627F018F8204627F07DF8C82094
:10AF400026F030FE2046BDE8104027F07BB800BF59
:10AF500008B5002026F044FF054BC3F8440808B1AB
:10AF60002A23C380BDE80840402126F0FDBF00BF72
:10AF700020310020704700BF704700BF704700BFFE
:10AF8000704700BF2DE9F0414FF0FF35324A33489A
:10AF90002C46002304E001330B2B02F1100215D0E4
:10AFA000917A0429F7D103F5B17100EB0111C97948
:10AFB000CF07F0D4661C116801D0A942EBD21C4621
:10AFC00001330B2B0D4602F11002E9D1631C02D1B3
:10AFD0000120BDE8F081214D04F5B17705EB0713A1
:10AFE0009988F1B9DFF880802601AB19D8F8782567
:10AFF0001B4916691B4A41F2186001EB442118589D
:10B000000023B047D0B1022808D141F2CC6205EB51
:10B010000717AB58013B0121AB50B9710020BDE8C7
:10B02000F081DFF8448005EB0413D8F8782541F26D
:10B030001860D268185826019047D6E741F2CC62D2
:10B0400005EB0717AB580321B97141F2D061013B01
:10B050000124AB506C54BCE71C96002000800020FB
:10B060001880002085B0000828200020044B41F201
:10B07000E472995C09B90121995401225A70704710
:10B080000080002038B5174D174B41F2D0640020E6
:10B09000285504E001300B2803F1100314D053F8B5
:10B0A0000E4C8C42F6D11C78032CF3D16AB10F4BB5
:10B0B00003EB40239A4201D0FFF7D8FF00F5B170AF
:10B0C00005EB00100123837138BD41F2CC6100F51E
:10B0D000B1736A5805EB03130420013298716A506A
:10B0E00038BD00BF00800020269600201880002078
:10B0F00038B5134B00209C7B14B11D688D4205D0E0
:10B1000001300B2803F11003F5D138BD72B10D4B9E
:10B1100003EB40239A4210D0FFF7A8FF0A4B00F53B
:10B12000B17003EB00100123837138BD064B00F5AD
:10B13000B17003EB0010827138BD022CECD1EDE749
:10B140001896002018800020008000202DE9F84F7C
:10B1500012F0020E9B4606D028B9FFF787FF0225A2
:10B160002846BDE8F88F804C41F638056559002D1A
:10B170005BD14FF0FF367D4FB146B046B246002559
:10B180003B68984200F0B68097F80EC0BCF1000F03
:10B190005BD0BCF1010F15D105F5B17C04EB0C1CA3
:10B1A0009CF807C01CF0010F0CD11CF07E0F09D1D8
:10B1B0005FEADC1340F0A880D7F808C0D44501D27C
:10B1C000E246A94601350B2D07F11007D8D1751CB1
:10B1D00004D1B8F1FF3F00F09F80464641F2C868B5
:10B1E00006F5B17754F80850013544F8085004EBDF
:10B1F000061C41F21C694FEA07184CF8095044F844
:10B20000085041F2186904EB07154FF000084CF89C
:10B210000900C5F8048004EB0715AD79042D9CD80E
:10B22000DFE805F01A330F334D0004F5C25741F63D
:10B230003C063F68A65907FB0565A84299D3FFF76E
:10B2400015FF00252846BDE8F88F2E4601350B2D49
:10B2500007F1100794D1BAE712F0010C70D104EB9A
:10B260000710D51090F80780BBF1030F65F3C718DE
:10B2700080F8078062D94FF6FF7083455B4628BF90
:10B2800003469BB204EB07108380BEF1000F16D07B
:10B2900004EB061303F5B0531833987B04280ED043
:10B2A00041F2C8654FF0040C60590130605141F221
:10B2B000CC65586083F80EC0635901336351500761
:10B2C00005D504EB0710C37943F00103C371D3061E
:10B2D00008D504EB0714E379C3F34502013262F3A6
:10B2E0004603E371224B012503EB46260E602846F8
:10B2F000BDE8F88F05F5B17704EB07164FEA071C98
:10B30000B67986B92E4669E7A84601350B2D07F1B7
:10B3100010077FF435AF5AE7B9F1FF3F18BF4E462B
:10B320007FF45CAF8DE741F2C8682E4654F80850B0
:10B33000013544F8085044F80C506CE76346A1E727
:10B340000C4B0B49D3F878350B4AD3F8088001EB46
:10B3500046210023C04700283FF473AF04EB0714D5
:10B360000223A371FCE600BF008000201896002095
:10B370001880002028200020F1B00008F0B5124D00
:10B380002B7841F63002022B0BBF070AC0F3D4170B
:10B39000C4B200F07F04A85883B00E4600230122F7
:10B3A000384401A9FFF7D2FE01280AD12B78022BDD
:10B3B000019B16BF53F8243033F8143023F0704348
:10B3C000336003B0F0BD00BF0080002010B514460C
:10B3D00002070B4610D50B4941F2C472581C8B581A
:10B3E000834204D305D100232360012010BDFFF761
:10B3F0003DFE2060012010BD21461846BDE81040EA
:10B40000BCE700BF008000202DE9F0414268C2F394
:10B4100008030B44B3F5007F82B004460D4657D3B2
:10B4200090F91A30591C0AD0304A03F5B17302EB77
:10B430000313FF21DA796FF30002DA71817694F950
:10B440001B305A1C0FD0294A03F5B17302EB0313CA
:10B45000FF20DA79C2F34501013921EAE17161F394
:10B460004602DA71E0762378022B37D01F4A02F5C4
:10B47000C2531B68B5EB432F4FEA432824DC41F647
:10B4800048036768D6583E407342AB421CDCAB1998
:10B49000434511D32169207E01AAFFF797FF0128B8
:10B4A00012D16768236963614744019B2361A5EB5F
:10B4B0000801BF1B67608D192046FCF797FF20B974
:10B4C0003D446560012000E0002002B0BDE8F0814D
:10B4D00015444560012002B0BDE8F081616801209B
:10B4E0002944616002B0BDE8F08100BF0080002007
:10B4F00070B5154604460E46FFF786FF50B994F81E
:10B50000280028B9022384F82830C4E90B5670BDFE
:10B51000022070BD1DB12046A847012070BD01204A
:10B5200070BD00BF10B4D0E9011390F91A208B420E
:10B5300038BF0B46511C83600AD0144B02F5B17220
:10B5400003EB0212FF21D3796FF30003D3718176ED
:10B5500090F91B305A1C0FD00C4A03F5B17302EB63
:10B560000313FF24DA79C2F34501013921EAE171BD
:10B5700061F34602DA71C4760022436A5DF8044B37
:10B580004261426011460361B2E700BF00800020C3
:10B5900038B54422002111483BF03BF9104B41F6ED
:10B5A00002011A784FF6FF745C52022A41F2E871E8
:10B5B00018BF032203F5C05041F64C055A5441F61A
:10B5C0000C0441F6010203215D5900F818191021FD
:10B5D0001D519954FFF7A6FF012038BDE8970020C0
:10B5E000008000202DE9F041B1F904300F2B82B02A
:10B5F0000C461646054632D02846FCF71BFF95F947
:10B600001B80B8F1FF3F074633D02D4B41F2186243
:10B6100003EB08118A58904211D1183303EB4823E9
:10B62000A188013109B203EB4113A18028463360A0
:10B63000FCF700FF2060012002B0BDE8F081FFF7B9
:10B6400015FD2846FCF7D2FE28B100230120336007
:10B6500002B0BDE8F081002002B0BDE8F0814FF4F7
:10B660000071FFF7D1FE0028F5D04FF6FF73A380DD
:10B67000C2E72846FCF7BAFE0028E2D10FB9FFF76F
:10B68000F5FC38460023112201A9FFF75FFD0128D0
:10B69000D7D1019B0B4A9A1A48BF02F2FF12B2F5AA
:10B6A000B05F4FEA622106D24FFA81F885F81B801D
:10B6B000002BB5D1C5E7FFF7D9FC019BF6E700BF2A
:10B6C000008000201880002030B50446C06983B097
:10B6D00010B9012003B030BD0D460023032201A99B
:10B6E000FFF734FD0128F5D1B4F92030002B03DA3F
:10B6F000FFF7BCFC0220EDE7019A012D4FEA431150
:10B7000002EB431303D0022D12D1E5255554A26854
:10B71000DA612278032A04D100221A775A779A77BD
:10B72000DA77626A5A83C2F30F429A8203B030BD5D
:10B73000E268DA61EDE700BF10B50378023B012B48
:10B740000446037E02D913F0060F5AD198063AD464
:10B7500094F91A30591C0AD02D4A03F5B17302EB43
:10B760000313FF21DA796FF30002DA71A17694F9FD
:10B770001B305A1C0FD0264A03F5B17302EB03139A
:10B78000FF20DA79C2F34501013921EAE17161F361
:10B790004602DA71E076237E1B070BD51C4841F286
:10B7A000C873C35C072B01D0FFF760FC41F2C8737C
:10B7B0000022C254E26A0023237084F82830FAB1D0
:10B7C000BDE81040104700231249E0691A018A5869
:10B7D000904206D001330B2BBAD01A018A589042FE
:10B7E000F8D10B4A03F5B17302EB0313DA79C2F314
:10B7F0004501013921EAE17161F34602DA71A7E7F7
:10B8000010BD0121FFF760FF0128F9D1237E9DE7DC
:10B81000008000201896002030B1027822B190F804
:10B8200028201AB1002070470120704710B5D0E9D8
:10B830000142A242C16238BF22460321826080F8E1
:10B840002810FFF779FF012010BD00BF2DE9F04F50
:10B85000DFF868918A4699F80010DAF8003002297A
:10B86000174683B0834641F6300240F08B8059F88A
:10B870000250DEB2A6EB030805EB1325B8444FF4E3
:10B8800080729044BB4208F1FF38B8FBF2F875D2E1
:10B89000A844032906EB0704A4EB03040CBF802291
:10B8A0004FF48072944228BF1446A8EB050366B992
:10B8B00094422CBF0A220B2201A92846FFF746FC1E
:10B8C000012809D003B0BDE8F08F0B2201A928465A
:10B8D000FFF73CFC0128F5D199F80020DAF80010B8
:10B8E000022A01F1010321D0A64210D2019906F1EA
:10B8F0008042013A081F00EB840001EB820242F80B
:10B90000043F824203F10103F9D1DAF80010A61BCB
:10B910007318BBF1010FCAF800301BD09F4205F12C
:10B9200001052BD999F800100026B2E7A642EED205
:10B93000DDF804C006F10042013AACF1020000EB70
:10B9400044000CEB420222F8023F904203F1010353
:10B95000F9D1DCE7BB42E1D199F80030022B21D0CC
:10B9600004F18044019B013C4FF0FF3243F8242056
:10B97000DAF800309F4205F10105D3D8012003B069
:10B98000BDE8F08F59F8022003F07F060329C3F3C6
:10B99000D415A6EB03081544B84414BF4FF48072C5
:10B9A00080226EE704F10044019B013C4FF6FF72D8
:10B9B000584623F8142003B0BDE8F08F0080002023
:10B9C0002DE9F04190F838300446032B51D8DFE8D8
:10B9D00003F002323B462D4BC0681978E76A03F545
:10B9E000C252032911680CBF80264FF4807601FBF8
:10B9F00006F141F2C47C00EB412041F2A87841F20B
:10BA0000AC7E53F80C20E06053F80E0053F8085059
:10BA10002261A5EB4125A0EB4121901943F8085084
:10BA200043F80E1043F80C00C4E90C205FBB6262BF
:10BA3000012384F8383016480021FFF745FE01281D
:10BA400011D1022384F83830626B04F130010120F7
:10BA5000FFF7FCFE012806D1032384F838300021CB
:10BA60002046FFF731FE431EDBB2012B02D9BDE8B1
:10BA7000F081022094F82830062B04BF002384F8BC
:10BA80002830BDE8F081921B2263D1E700800020BE
:10BA9000A09700202DE9F04FDFF8248198F800608E
:10BAA000012887B08CBF00230123032E02930C468C
:10BAB0000B68154639D0022E62D14FF480724FEADE
:10BAC0001329DFB201920138012823D80122039201
:10BAD0009D421AD9384E06F1880A06F11C0B3268CD
:10BAE0001AB1DBF8001099424ED0DAF800000023BA
:10BAF0004844092205A9FFF729FB01281FD0022885
:10BB00000FD020B123689D42E9D82560032007B0FB
:10BB1000BDE8F08F87B1FFF7A9FA022007B0BDE8B2
:10BB2000F08F022007B0BDE8F08F80220192C3F3AE
:10BB3000D41903F07F07C6E7019A0392C8E7DDE94D
:10BB400002C1059ADDF804E098F80030022B14D009
:10BB5000032BE6D152F8273023F07043B3FA83F376
:10BB60005B0963450F44236823D00B44774523606A
:10BB7000EAD309F101090027C5E732F81730EDE7EC
:10BB80004FF480720192D2E70C490968013A02EB46
:10BB900041224902B2FBF1F203991344B3FBF1F2E3
:10BBA00001FB12320AB10B449B1A9D42236096D8C6
:10BBB000ABE7AB42ABD3A8E7A897002040980020A2
:10BBC00000800020F0B5104D2B7841F63002022B9A
:10BBD0000BBF070AC0F3D417C4B200F07F04A85803
:10BBE00083B00E4600230322384401A9FFF7AEFAC2
:10BBF000012807D12B78022B019B0CBF23F814607E
:10BC000043F8246003B0F0BD008000202DE9F0432C
:10BC100090F83C30002983B0044614BF0221002173
:10BC2000042B7BD8DFE803F0030C3C476900FFF7E7
:10BC30004BFD012870D1626B002A75D184F83C005D
:10BC4000404EDFF80881404D4FF6F7771DE01FFAB0
:10BC500080F9B94594BF4FF000094FF0010901A9DF
:10BC6000B9F1000F46D1FFF789FB0128494650D1B1
:10BC7000206BFFF7A7FF01284BD1019B2A682363A4
:10BC8000013B934228BF13462B603378206B032B74
:10BC9000DDD1404594BF4FF000094FF00109DEE7C8
:10BCA000426B04F130010020FFF7D0FD012833D1B1
:10BCB000032384F83C30234BE16A41F2C47003F55E
:10BCC000C2521D581268195041F2A87741F2AC7661
:10BCD000D8596D1A995902FB05F200EB422501EB88
:10BCE000422203F5BD500021DD519A51FFF7ECFCD3
:10BCF000012811D1042384F83C3094F82830042B17
:10BD000004BF002384F82830A36B8BB120469847EA
:10BD1000012003B0BDE8F0830228FAD194F828305E
:10BD2000042B09D00220F4E7022384F83C30B8E762
:10BD3000012003B0BDE8F083002384F828300220FE
:10BD4000E7E700BF0080002044980020F7FFFF0FC6
:10BD500038B590F834300446052B46D8DFE803F0B8
:10BD60001F033F101963006B4FF0FF31FFF72AFFED
:10BD700001283AD1E06A002839D1032384F834300D
:10BD800000212046FFF7A0FC01282ED1042384F8CF
:10BD9000343094F82830082B2DD0012038BD41F6DE
:10BDA0003803224DEA5800F1300102320120FFF73A
:10BDB00071FE012824D00238C0B2012815D805230D
:10BDC00084F8343094F82830082B04BF002384F81A
:10BDD000283041F2E5730122EA54022038BDC06ADE
:10BDE000216BFFF7EFFE0128C7D0002038BD0223EA
:10BDF00084F83430F4E7002384F82830012038BD7B
:10BE000005F5C252E3681168D4E90B2003EB412326
:10BE100041F644016850C4E9033002B9606201236D
:10BE200084F83430A0E7014DCCE700BF008000204B
:10BE30002DE9F04F436883B0C3F308081646002A83
:10BE400000F0E180714B05468946A3F1180B4FF0D5
:10BE5000000AC8F5007495F91A70B44228BF344638
:10BE6000791C28462ED0FCF7E5FA0BEB071341F2BC
:10BE700018629B58984205D0FFF7F8F8504603B077
:10BE8000BDE8F08F614B03EB472022464946404412
:10BE90003AF05EFC002221462846FFF729FBA24427
:10BEA0000028EBD02B7E1B0706D5594B2A691B684F
:10BEB0009A4201D3FFF7DAF8361BA1444FF000088D
:10BEC000C7D1DBE7FCF792FA002849D12846FCF7F6
:10BED000B1FA6968C1F308032BBB21F4FF7323F0A7
:10BEE000010303F50072AB689A422CBF06220722B9
:10BEF0002B7E03F00C030C2B1CD0002301A9FFF7B1
:10BF000025F90128BAD10198404BC31A48BF03F262
:10BF1000FF13B3F5B05F4FEA63224FD257B2AF764B
:10BF20000028B2D1AAE72B7E03F00C030C2B4FF0B4
:10BF30000702E2D19BF800C0364BBCF1030F1B682F
:10BF40000CBF4FF0800C4FF4807C03FB0CF34FEAE6
:10BF5000432C0CF1FF3C0CEA0101A3EB5123CDE78C
:10BF60002B7E1A072ED59BF800102A4B95F8282017
:10BF70001B6803290CBF80214FF4807103FB01F380
:10BF8000062A4FEA43233FF479AF234908688342E6
:10BF900030D891F83D30002B7FF470AF002A7FF449
:10BFA0006DAF6B6985F83820062185F82810EB62A3
:10BFB0002846FFF705FD012888D05FE7FFF756F810
:10BFC0000198ACE7154B1A78002A7FF457AF95F823
:10BFD0002820002A7FF452AF082185F8342085F804
:10BFE0002810D3F85F206B692846C5E90B32FFF7AC
:10BFF000AFFEE0E741F2E573012250460BF8032063
:10C0000003B0BDE8F08F924638E700BF18800020EB
:10C01000C497002040980020A8970020E5970020B2
:10C020002DE9F04390F8384083B00546032C00F228
:10C03000A180DFE804F0021A8B0BFFF789FE0128CC
:10C0400011D002280BD1032385F838302B6C002047
:10C0500085F82800002B00F08980984702242046AC
:10C0600003B0BDE8F08385F838002B78022B79D037
:10C07000414A6F6841F64803D3581F40C7F34F2722
:10C080002846FCF7D7F9DFF8F48006463F1A0AE0A5
:10C09000D8F800305A1E91454AD2FFF7B5F908B9D1
:10C0A000FEF7E4FF0136022201A900233046FFF724
:10C0B0004DF8BC1901281FFA84F94FF400724FF0B3
:10C0C00000010446CBD101983AF0A3FBEB694FF491
:10C0D00000712846002BDBD06B68002BD8D1019B68
:10C0E0004FF020324FF02E0C1A605A6083F800C0D7
:10C0F000C3F807204FF0100E6C6A1A625A6283F878
:10C1000020C083F821C0C3F8272083F80BE0EA6B36
:10C110005C83C2F30F4CC4F30F4483F82BE05A87BF
:10C120009C82A3F834C0D8F800305A1E9145B4D38D
:10C13000C3EBC353590201F500712846FFF764F9B8
:10C1400008B9FEF793FF022385F838302B6C0022E4
:10C1500085F8282063B1284698470124204603B07B
:10C16000BDE8F0836F68C7F34F2789E7022476E7BD
:10C17000012474E7002472E700800020409800202A
:10C180002DE9F04F90F8303089B00446042B00F2CE
:10C19000A880DFE813F0A900B20005008A00E800DB
:10C1A000C64D41F61003EB5C002B40F09A80C44F63
:10C1B00004F11C09B84607F1380BBA4601AE324605
:10C1C00049464046FFF70EFA012840F03F810198AA
:10C1D000002800F021810378E52B01D0002BEED15F
:10C1E000B84A821A48BF02F2FF12B2F5B05F4FEAB6
:10C1F000622380F06F811B01B34A13449A7B042AA7
:10C200000CD041F2C86104266A5801326A5041F2EA
:10C21000CC615A609E736B5801336B5041F6020239
:10C22000AB565E1C09D003F5B17305EB0313FF2673
:10C23000D979AE546FF30001D97141F603016B5601
:10C240005A1C0ED003F5B17305EB0313FF26DA7900
:10C250006E54C2F34501013921EAE17161F34602EE
:10C26000DA71202200213AF0D4FA2346019A53F8D9
:10C27000311F58685060116019899B7A937211813F
:10C28000019B627EDA7205A82DF0B4F9BDF8143076
:10C29000002B40F0578144F28172019903200A82F9
:10C2A000CB810A83CB8284F83000237E980600F18C
:10C2B000D0802046FFF736F92369002B00F0D580A7
:10C2C000237E03F0F70213F00403227640F0DB80B4
:10C2D000122A00F0E180002384F828302046E36A27
:10C2E000984709B0BDE8F08F7548FFF71BF94FF686
:10C2F000FF720123228484F83030714F04F11C0551
:10C3000001AE04F13109324629463846FFF76AF991
:10C3100001282FD00228E4D1684D41F60202AB5625
:10C32000591C09D003F5B17305EB0313FF20D9792C
:10C33000A8546FF30001D97141F603016B565F1CDD
