:020000040800F2
:10000000F0FF012029BD0508DD4805081D62020832
:10001000A1BD0508A1BD0508A1BD0508000000009F
:10002000000000000000000000000000E14805089A
:10003000E548050800000000E9480508C51B02085E
:10004000A1BD0508A1BD0508A1BD0508A1BD050804
:10005000A1BD0508A1BD0508F5050208FD050208BA
:10006000050602080D06020815060208C1D600089A
:10007000D1D60008E1D60008F1D6000805D700085F
:1000800019D700082DD70008A1BD05080000000001
:100090000000000000000000000000001D06020833
:1000A0002D5E0208C55D02083D5E0208B55D0208CE
:1000B000ED5D0208FD5D02080D5E02085DC80008E6
:1000C00041CD000865C8000845CD0008A1BD050860
:1000D000A1BD05083D1B0208491B020800000000E5
:1000E00025060208A1BD0508954F0508000000007F
:1000F00000000000000000000000000041D70008E0
:10010000000000005DFC00081D5E0208A1BD05089E
:1001100000000000000000000000000000000000DF
:1001200055D7000869D700087DD7000891D7000887
:10013000A5D700080000000000000000000000003B
:10014000000000000000000000000000ED4805086D
:10015000B9D70008CDD70008E1D70008551B020821
:100160006DC8000849CD0008000000000000000034
:10017000000000000000000000000000000000007F
:1001800000000000A1BD0508000000000000000004
:08019000A1BD0508A1BD050891
:08019800BCB8050001000000E5
:1001A0000A90010024000000EC2000204C4C0020AC
:1001B0000000000031100408484C00201402010027
:1001C00005000000CC440020744C0020000000001A
:1001D000A8C90608704C0020160215003F00000058
:1001E00014380020804C002000000000150E01088B
:1001F0007C4C00200610010026000000682F002023
:10020000C44C002000000000190D0108C04C002063
:10021000031101000A000000CC6900206072002078
:1002200000000000658504085C720020292014008D
:1002300078000000DC6700207072002000000000E1
:10024000000000006C720020283001001600000041
:100250006C670020EC7200200000000049240408B4
:10026000E87200200D1001004C0000001C67002007
:1002700008730020000000003D65020804730020A0
:100280000C5004008000000084600020587300209F
:1002900000000000BDDA02085473002001200100B4
:1002A0000C00000004610020DC730020000000004E
:1002B000B0C90608D8730020270001000400000020
:1002C00078610020EC73002000000000BCC9060823
:1002D000E873002023200100100000006861002066
:1002E000F4730020000000001D100408F0730020CB
:1002F0000E50040060020000105E00200874002010
:1003000000000000AD8F03080474002022020100E9
:100310001C010000D86900206C760020000000005D
:1003200075540108687600201F02080010000000C4
:100330009C7700208C77002000000000F10D010860
:10034000887700201B02010010000000C077002009
:10035000B077002000000000A90D0108AC77002054
:100360002802040004000000D8770020D477002081
:10037000000000009D0D0108D07700202702040036
:1003800004000000E4770020E07700200000000077
:10039000910D0108DC7700201C0202001C00000007
:1003A00084670020EC770020000000006917010836
:1003B000E87700201A0201003C0000004878002085
:1003C0000C78002000000000ED3D010808780020B6
:1003D0000400080080000000146D002088780020D0
:1003E00000000000000000008478002019020100D5
:1003F00010000000686800200C7900200000000058
:10040000D10D010808790020081203000F00000038
:10041000A46D00202079002000000000950C010848
:100420001C790020031201003D000000506E0020E6
:100430003479002000000000C0C90608307900208F
:10044000010201000A0000005871002078790020A4
:1004500000000000F10C0108747900200C0201007A
:1004600004000000B86D0020887900200000000022
:10047000090D010884790020FD1701009A00000091
:100480006871002090790020000000002B81040892
:100490008C79002013100100040000006867002020
:1004A000307A00200000000000CA06082C7A0020E4
:1004B000020201000300000054710020387A00207D
:1004C0000000000000000000347A0020F5C10100A7
:1004D0007400000058690020407A002000000000ED
:1004E000E58F04083C7A0020F62101000C00000092
:1004F00080680020B87A00200000000004CA0608C6
:10050000B47A0020121201000400000070A500203F
:10051000C87A00200000000010CA0608C47A002033
:10052000110201000800000074A50020D07A00200C
:100530000000000014CA0608CC7A00203400010034
:10054000100000007CA50020DC7A002000000000E4
:10055000757B0308D87A0020F831010006000000FE
:100560000C670020F07A0020000000001CCA06087A
:10057000EC7A0020020001000C000000086E002050
:10058000FC7A00200000000000000000F87A002043
:10059000FE01010014000000546800200C7B0020C4
:1005A000000000007D0C0108087B002006120300FB
:1005B00012000000F46D0020247B002000000000E9
:1005C000F1160108207B0020F70101000600000061
:1005D000786800203C7B00200000000022CA06084A
:1005E000387B0020FC010100090000008CA50020E0
:1005F000487B002000000000BD0D0108447B002066
:10060000FB0101000100000098A50020587B00209C
:1006100000000000C90D0108547B00201A000100F1
:100620000E000000946D0020607B002000000000A0
:1006300028CA06085C7B00201400010005000000A9
:1006400014670020747B00200000000036CA0608F2
:10065000707B0020FD01010024000000866C00205A
:10066000807B0020000000000FE201087C7B00205E
:100670001D02020006000000806C0020A87B002004
:100680000000000000000000A47B002018400100D2
:1006900038000000A0670020B47B002000000000AC
:1006A000593E0108B07B0020F90101000400000060
:1006B0009CA50020F07B002000000000C9E101089B
:1006C000EC7B002012300100100000007060002060
:1006D000F87B0020000000003CCA0608F47B0020E4
:1006E000FA01010003000000B46D00208C8C002092
:1006F00000000000010D0108888C0020FF2101008E
:100700000500000024560020948C0020000000000A
:10071000E10D0108908C0020053001000800000068
:100720001C560020A08C0020000000004CCA0608C7
:100730009C8C0020130201000400000028580020B7
:10074000AC8C00200000000054CA0608A88C0020D1
:100750000B3001001A0000009C550020C48C0020C2
:100760000000000058CA0608C08C00201F5001007D
:100770002400000078550020E48C002000000000D8
:1007800074CA0608E08C00202B0201000C00000057
:10079000804E00200C8D00200000000098CA060842
:1007A000088D00200E0201000200000090CD002004
:1007B000FCD8002000000000A4CA0608F8D80020D9
:1007C0002F2001002200000004D90020A4D6002020
:1007D00000000000A6CA060800D90020150010007D
:1007E0007000000024D5002028D700200000000061
:1007F0000000000028D900202A0008006000000046
:1008000024CC0020C8D6002000000000CD8F0308B3
:100810002CD900202C0004001000000094D50020EA
:10082000C4D8002000000000B580030830D90020A3
:1008300025201E002C010000F8CA002098D70020B7
:10084000000000000000000034D900202B0012003E
:1008500024000000B4CA0020D4D80020000000000A
:10086000C580030838D90020384001000600000088
:1008700024DA002044E5002000000000C8CA060871
:1008800040E500201620010006000000ACDE00203C
:1008900050E5002000000000CECA06084CE500200C
:1008A000101001000200000068DC00205CE5002060
:1008B00000000000D4CA060858E500201900010015
:1008C00005000000B0E2002064E500200000000008
:1008D000D6CA060860E500202D02010001000000D4
:1008E0008CE8002098E800200000000000000000D4
:1008F00094E80020290201004000000004E60020E6
:10090000A0E8002000000000DCCA06089CE80020E7
:1009100001010100040000004CE80020E4E8002090
:100920000000000000000000E0E8002000010100DD
:100930000400000048E80020ECE80020000000006F
:100940001CCB0608E8E800200201010003000000BB
:1009500044E80020F4E800200000000061D2020812
:10096000F0E800202630010008000000ACE600207E
:10097000FCE800200000000069820408F8E800207C
:100980002052010008000000A4E6002008E9002031
:100990000000000020CB060804E900202A12010014
:1009A000080000009CE6002014E900200000000080
:1009B00028CB060810E90020030001000100000018
:1009C000C0FD0020CCFF002000000000000000005F
:1009D000C8FF002005020100040000007CEA00209E
:1009E000D4FF00200000000030CB0608D0FF00201C
:1009F0002C0201000400000048EA0020FCFF002057
:100A00000000000034CB0608F8FF0020233201006C
:100A100014000000D00301209C12012000000000FF
:100A200038CB060898120120001201000A000000CD
:100A3000DC1C01208C2401200000000000000000CC
:100A4000882401201002010001000000987201209A
:100A500094720120000000004CCB06089072012027
:100A600009020100010000000C720120A0720120A7
:0C0A7000000000004ECB06089C72012024
:100A7C0001010000A40000000000000000000000C4
:100A8C000000040100000200010000021000000040
:100A9C000700FF00006002401060024000000000F0
:100AAC000000000000000000000B0000000000002F
:100ABC0000000000000000000060024028600240BE
:100ACC00010000000000000000000000060C000007
:100ADC000000000000000000000000000060024068
:100AEC004060024002000000000000000000000016
:100AFC00100D0000000000000000000000000000CD
:100B0C00006002405860024003000000000000003A
:100B1C0000000000160E00000000000000000000A5
:100B2C000000000000600240706002400400000001
:100B3C000000000000000000200F0000000000007A
:100B4C0000000000000000000060024088600240CD
:100B5C00050000000000000000000000261000004E
:100B6C0000000000000000000000000000600240D7
:100B7C00A060024006000000000000000000000021
:100B8C003011000000000000000000000000000018
:100B9C0000600240B8600240070000000000000046
:100BAC0000000000362F00000000000000000000D4
:100BBC0000000000006402401064024000000000CD
:100BCC0000000000000000000038000000000000E1
:100BDC000000000000000000006402402864024095
:100BEC0001000000000000000000000006390000B9
:100BFC000000000000000000000000000064024043
:100C0C0040640240020000000000000000000000F0
:100C1C00103A00000000000000000000000000007E
:100C2C000064024058640240030000000000000011
:100C3C0000000000163B0000000000000000000057
:100C4C0000000000006402407064024004000000D8
:100C5C000000000000000000203C0000000000002C
:100C6C0000000000000000000064024088640240A4
:100C7C0005000000000000000000000026440000F9
:100C8C0000000000000000000000000000640240B2
:100C9C00A0640240060000000000000000000000FC
:100CAC0030450000000000000000000000000000C3
:100CBC0000640240B864024007000000000000001D
:100CCC00000000003646000000000000000000009C
:100CDC0000000000FF00E001FF080000F40100002C
:100CEC0000000000000000000000000001000000F7
:100CFC0000000000000000000000000000000000E8
:100D0C0001000000000000000101000012010002BF
:100D1C000000004083042057000201020301000080
:100D2C00040309041A030000000000000000000086
:100D3C0000000000000000000000000000000000A7
:100D4C00F4080020B88C0020040000000100000012
:100D5C00C51C01080000000000000000000000009D
:100D6C000000000000000000F0080020000000005F
:100D7C000400000001000000011F01080000000039
:100D8C000000000000000000000000000000000057
:100D9C0086000000B80400200000000004000000E1
:100DAC0001000000F91C0108000000000000000018
:100DBC00000000000000000000000000D80000004F
:100DCC00000000000500000006000000020000000A
:100DDC0000000000DC080020B08C002002000000A5
:100DEC0001000000F9080108D808002000000000EC
:100DFC000100000001000000D9080108F4040020E3
:100E0C0000000000000000000000000000000000D6
:100E1C0000000000000000000000000001000000C5
:100E2C0000000000000000000000000000000000B6
:100E3C0001000000000000000000000000000000A5
:100E4C000000000001000000000000000001000094
:100E5C00204E000000000000000000000101010015
:100E6C00F8080020BC8C00200400000001000000E9
:100E7C00591C0108000000000000000000000000E8
:100E8C00000000000000000097000000B0050020EA
:100E9C00000000000300000001000000B51C010868
:100EAC000000000000000000000000000000000036
:100EBC00000000001B000000DC050020000000000A
:100ECC000300000000000000000000000000000013
:100EDC00000000000800000001000000E91C0108EF
:100EEC0000000000000000000000000000000000F6
:100EFC0000000000EC080020B48C0020040000006E
:100F0C0001000000492C0108000000000000000056
:100F1C00000000000000000000000000E8080020B5
:100F2C00000000000400000001000000011F010887
:100F3C0000000000000000000000000000000000A5
:100F4C0000000000E4080020000000000200000087
:100F5C000000000000000000000000000000000085
:100F6C000800000001000000211D01080000000025
:100F7C000000000000000000000000000000000065
:100F8C00E008002000000000040000000100000048
:100F9C00011F01080000000000000000000000001C
:100FAC00000000000000000060FECD000300000007
:100FBC0000000000050000000009185006000000A9
:100FCC00D007000002040C000107186007000000A5
:100FDC00A00F000003040E000205187007000000AB
:100FEC000A1A000004040C00030218800700000019
:100FFC00204E000005020C00000997FF8106C40971
:10100C00C40903008813010794FFE40CB80BC4094E
:10101C0006008813020590FFEF16AC0DC4090A00F8
:10102C00881303028DFF2E2AA00FC4090000881319
:10103C0005000000FFFFFFFF0D3701089537010881
:10104C00D9370108D10B0108193801086538010896
:10105C00D50B0108B4080020D5360108B90A0108DF
:10106C00DD0A0108010B0108050B0108610B0108E1
:10107C00CD0B010890080020290C0108550C010823
:10108C006D0C0108710C0108B1380108750C0108D0
:10109C00790C0108B4E405082914050821EB0408AF
:1010AC00B11205080000000000000000E50605086C
:1010BC0025070508000000000000000000000000EB
:1010CC0061EB0408150A0108210A010881360108A0
:1010DC00593601082D0A01089D360108B936010858
:1010EC002A000000FFFFFFFF1F0000001C00000093
:1010FC001F0000001E0000001F0000001E0000006A
:10110C001F0000001F0000001E0000001F00000058
:10111C001E0000001F0000000068214CFFFFFFFFB5
:10112C00010000009D170508E518050821170508A2
:10113C00B52F050815180508291A05086DEB0408C4
:10114C00D5EB0408E9EB04080101FF0018E40508DD
:10115C004CE4050880E40508FFFFFFFF5D1C020856
:10116C007EFF7EFFE2FFE2FF008002021F00000014
:10117C0053544D202020202050726F647574202011
:10118C002020202020202020302E30310080020210
:10119C001F00000053544D202020202050726F64FB
:1011AC00757420202020202020202020302E30314B
:1011BC0006000000050000008300FFFF1A0000007D
:1011CC008200FFFF1D0000008200FFFF17000000DF
:1011DC001500000091ED040895ED040899ED040844
:1011EC00A5ED0408A9ED04089DED0408A1ED040883
:1011FC00FFFF0000FFFFFFFFA479060800000802B4
:10120C000503030000000000B07906080100080285
:10121C000504030000000000BC7906080000080269
:10122C000503030000000000C47906080100080251
:10123C000504030000000000D4B206080200FE0101
:10124C0001100300000000000C65060803001402E6
:10125C000003000000000000CC79060804001F0207
:10126C000200080000000000D479060805001F02E7
:10127C000201080000000000000101010000000054
:10128C000000803F00000000000000000000000093
:10129C000000803F00000000000000000000000083
:1012AC000000803F00000000000000000000000073
:1012BC00020000007D00000001000000607A0608BA
:1012CC00D07D060800000000C5D10208A0860100F0
:1012DC0004000000607A060850AC0608000000000C
:1012EC0001140208E803000004000000D46506089D
:1012FC0000000000000000002DDE02087D00000050
:10130C00FF000000B86906080000000000000000A3
:10131C0055FD02087D000000FF00000060B90608C2
:10132C00000000000000000045C303087D00000021
:10133C00FF000000647E06080000000000000000B2
:10134C0045ED0108E8030000030000009C6B060853
:10135C00000000000000000015B103081027000079
:10136C0003000000C879060800000000D1820308C1
:10137C00811F02085F7600000500000050800608FF
:10138C00000000000000000015E901081027000013
:10139C000200000058AC060800000000000000002D
:1013AC0071E30108E80300000500000064AC0608C6
:1013BC000000000000000000E5D80208204E0000EC
:1013CC000300000074AC06080000000000000000E0
:1013DC00B5F10208204E00000300000084AC0608A2
:1013EC0000000000000000007DE90108400D030032
:1013FC00030000003C7B0608000000000000000019
:10140C00FD900208102700000200000094AC0608B2
:10141C0000000000000000001DEF0108A086010084
:10142C0002000000606A06080000000000000000D6
:10143C0089420208A861000002000000106806083A
:10144C0000000000000000009DE3010810270000D0
:10145C000200000058800608000000000000000098
:10146C00D94A0208A00F000002000000447B0608C5
:10147C000000000059810408EDC7040885450100EF
:10148C0002000000D0670608000000000000000009
:10149C00318304081027000002000000E47D0608D8
:1014AC0000000000000000006167040850C3000049
:1014BC00020000009CAC06080000000000000000C8
:1014CC0041F10408400D030001000000A4AC060823
:1014DC000000000000000000A9AB040850C300008D
:1014EC0003000000B0AC0608000000000000000083
:1014FC00F9EE020840420F0001000000BCAC0608E7
:10150C0000000000000000008565020850C30000C8
:10151C0001000000C8AC060800000000000000003C
:10152C0079B404081027000002000000FFFFFFFF41
:10153C0065120508CDEA04084911050800000000F1
:10154C00FDEA040899120508A9FF040885FF0408A0
:10155C000000000000000000F1EA040861ED04083E
:10156C0085ED0408192F0508FD2E0508352F0508F3
:10157C00512F05086D2F0508B9110508A9EA0408B3
:10158C00390F05080000000079EA0408D9FD0408A9
:10159C0079FE040861FF0408000000000000000050
:1015AC009DEA0408FFFFFFFFF5650208000000003C
:1015BC0000000000000000000966020800000000A6
:1015CC00000000000000000001010000000000000D
:1015DC00E8FF00200800000000000000D8FF0020F9
:1015EC0008000000FFFFFFFFAC00012000010120FC
:1015FC0001F11F3F7C1201208A120120D60100004C
:10160C00FF1FFF1FFF0000005590020800000000A4
:10161C0000000000000000000000FA430000FA4344
:10162C000000803F000000000000000000000000EF
:10163C00000000000000000000000000000000009E
:10164C0000000000000000000000803F00FF0000D0
:10165C000000000000000000451904080000000014
:10166C0000000000082B060801000000000000002C
:10167C000000000000000000782F060800000000A9
:10168C0000000000000000003030060800000000E0
:10169C000000000000000000DC2F06089137040851
:1016AC000000000000000000C4400608000000001C
:1016BC0000000000C9310408D81601200100000008
:1016CC00FA0000000100000001000000B5760408DB
:1016DC000000000000000000DC2E06088DF004085D
:1016EC000000000000000000502E0608E7710408FE
:1016FC000000000000000000082E06082D202D2DF3
:10170C00202D2D2D2D202D2D2D0000000000000052
:10171C0000000000000000000000000101000000BB
:10172C00E813012088136F1701000000EA13012051
:10173C0088136F1700000000EC13012088136F173B
:10174C0001000000EE13012088136F170000000049
:10175C00F51804080000000000000000702B0608BB
:10176C001017012001000000C42B0608F113012002
:10177C0001000000D02B0608981401200200000084
:10178C00D82B06081D1904080000000000000000FA
:10179C00E42B060800000000000000000000000020
:1017AC00382C0608000000000000000000000000BB
:1017BC00A82C0608E613012002000000F02C0608F5
:1017CC00F01A0120E0150C1700000000C0120000F8
:1017DC00B21B01200000000000000000B01B012023
:1017EC000000000000000000AE1B01200000000003
:1017FC0000000000AC1B01200000000000000000F5
:10180C00AA1B01200000000000000000A81B012002
:10181C000000000000000000F40E0020000000009A
:10182C0000000000F013012003000000E02C06086B
:10183C00000000000000000000000000FC2C060866
:10184C00B61B0120E0150C1700000000B81B01208E
:10185C0002000000F02C06082D202D2D202D2D2D02
:10186C002D202D2D2D2D000000000000000000006B
:10187C00000000000000000000000000000000005C
:10188C0000000000342D0608BA1B01209CFF2C011F
:10189C0000000000CA1A0120E0150C17000000001F
:1018AC00321A012002000000F02C06082D202D2DEC
:1018BC00202D2D2D2D202D2D2D2D00000000000074
:1018CC00000000000000000000000000000000000C
:1018DC0000000000000000006C2D0608ACB60608E5
:1018EC00B4B60608FA1401200100C4090000000077
:1018FC00F81401200100C40900000000F6140120B6
:10190C000100C40900000000F41401200100C40906
:10191C0000000000F01401200100C40900000000C8
:10192C00F21401200100C40900000000EE14012093
:10193C000100C40900000000EC1401200100C409DE
:10194C0000000000C713012000C80100C6130120CD
:10195C0000C80100C41301200000FFFF0A000000B2
:10196C00C21301200100C80001000000C0130120B7
:10197C003200307532000000BE130120E2FF14006B
:10198C0005000000BC1301207EFF140005000000C0
:10199C00BA13012005002C0105000000B81301202A
:1019AC00055A0500CD13012000FF0100CB130120C7
:1019BC000200000004100020C913012003000000E5
:1019CC0078300608CC13012000FF0100CA13012057
:1019DC000200000004100020C813012003000000C6
:1019EC0078300608A8140120FF7F0100A414012000
:1019FC0000000000FFFFFFFF01000000A014012009
:101A0C0000000000FFFFFFFF010000009C140120FC
:101A1C0000000000FFFFFFFF010000004C1301203D
:101A2C00EE02CA08010000004A13012000C80100A0
:101A3C00640000004913012002C80100640000008A
:101A4C00481301200100000088300608E41301202F
:101A5C000000803E05000000E213012080C1803EA2
:101A6C0005000000E01301200083007D050000004C
:101A7C00DE13012080C1803E05000000DC13012034
:101A8C0000FF0100DA1301206400F40101000000E2
:101A9C00D81301206400F40101000000D6130120CA
:101AAC006400F40101000000D413012004000000C4
:101ABC009CF40508D31301200200000090F40508E3
:101ACC00000000000000000000000000903006083C
:101ADC0047130120500000000CF2050845130120AB
:101AEC0003000000C8300608461301200400000063
:101AFC00B0F40508B113012003000000D83006082B
:101B0C00B013012003000000D8300608A4130120F4
:101B1C00000A0100A21301200000E80301000000EC
:101B2C00A01301200000E803010000009E13012017
:101B3C00000A01009C1301200000E80301000000D2
:101B4C009A1301200000E803010000009213012009
:101B5C00C800E80301000000981301201400FA00EB
:101B6C0001000000961301200100E80301000000B1
:101B7C0094130120000501009013012002000000C5
:101B8C0054F105088E1301200000F401010000003F
:101B9C008C1301200000F401010000008A130120C5
:101BAC000000F40101000000881301200000F40182
:101BBC0001000000861301200000E8030100000072
:101BCC00841301200000E8030100000083130120AE
:101BDC00006401000A00000082130120006401006F
:101BEC000A00000071130120196401007013012018
:101BFC000200000048F10508651301200064010093
:101C0C0064130120006401006C13012000640100C6
:101C1C000A0000006B130120006401000A000000A0
:101C2C006A130120006401000A0000006F130120F8
:101C3C0000FF01000A0000006E13012000FF0100EC
:101C4C000A0000006D13012000FF01000A000000D3
:101C5C006913012001FF01000A0000006813012034
:101C6C0001FF01000A0000006713012001FF0100C1
:101C7C000A000000AE1301200000F4010100000076
:101C8C00AC1301200000E80301000000AA1301209E
:101C9C000000E80301000000A81301200000E80385
:101CAC0001000000A61301200000E8030100000061
:101CBC003C160120E803D0070A0000003A16012068
:101CCC00006401000A000000391601200096010092
:101CDC003016012000C801002F16012000640100FD
:101CEC002E160120006401002D1601200064010055
:101CFC002C160120006401002B160120FF080100A6
:101D0C002A16012001640100331601200132010062
:101D1C0032160120010000001CF1050831160120CB
:101D2C000400000024F1050829160120009601008A
:101D3C0028160120006401002716012000FA01007A
:101D4C0064000000261601200A5A01002416012006
:101D5C0000C801002316012000C80100251601202F
:101D6C0000C801002216012000C80100361601200F
:101D7C000032010038160120001401003716012032
:101D8C00004B0100351601200400000068F0050826
:101D9C0034160120006401000A0000005F130120CA
:101DAC000AC805000A0000005E13012001000000B3
:101DBC0014F50508611301200AC805000A0000008B
:101DCC00601301200100000014F5050856130120D2
:101DDC0000C805000A0000005D13012000C80500C2
:101DEC000A0000005713012000C805000A0000007B
:101DFC005813012000C805000A0000005B130120E5
:101E0C0000C805000A0000005C13012000C8050092
:101E1C000A0000005A13012000C805000A00000047
:101E2C005913012000C805000A00000055130120B9
:101E3C000200000038F00508201601200000D00731
:101E4C00010000001B16012000C801001A16012019
:101E5C0000C801001916012000C801001E1601203F
:101E6C000000D007010000001816012000C8010076
:101E7C001716012000C801001616012000C8010029
:101E8C001C1601200000D0070100000015160120CF
:101E9C0000C801001416012000C80100131601200F
:101EAC0000C80100CCC006080000000000008C1B1C
:101EBC000120D8C00608070800000000C415002047
:101ECC00E0C00608070800000000BC150020E8C0B0
:101EDC000608070800000000B4150020F0C0060832
:101EEC00080800000000A8150020F8C00608070824
:101EFC0000000000A015002000C106080708000023
:101F0C0000009815002008C1060807080000000012
:101F1C009015002010C10608080800000000841568
:101F2C00002018C106080710000000007C150020D6
:101F3C0020C106080710000000007415002028C1FD
:101F4C0006080710000000006C15002030C10608C0
:101F5C0008100000000060150020D4B40608010031
:101F6C000000000000000000000000001000000055
:101F7C000000000000000000D1150408E115040861
:101F8C005B240408E8300608B7130120005A01004E
:101F9C00B613012000C80100B4130120E803D007D8
:101FAC000100000000000000000000001D3D0408BE
:101FBC0084310608D21301200300000028F0050824
:101FCC00D113012000030100D013012000030100F4
:101FDC005D160408B116040800000000D83106088C
:101FEC000517040845170408000000008032060895
:101FFC0079370408E13804080000000000330608B3
:10200C00CE13012001030100F9190408211A040858
:10201C00000000001036060879120408A11204080A
:10202C000000000090360608C5170408251804089F
:10203C0000000000F4360608693304083D12040859
:10204C0000000000AC370608BD15040800000000B5
:10205C0000000000483806087D140408E914040840
:10206C0000000000AC3806080514040841140408EC
:10207C000000000064390608197D0408D513040813
:10208C0000000000F03906081116012003000000C2
:10209C007C1B01204D150408891504080000000064
:1020AC00EC3A06085D7D04080136040800000000C7
:1020BC005C3B06084D130408DD34040800000000E6
:1020CC00F43C0608BD7C04089D34040800000000A4
:1020DC00CC1500201216012003000000381B012033
:1020EC00FD1504082D16040800000000003E06082B
:1020FC009D3104080000000000000000643E06084A
:10210C008D170408FD38040800000000003F060885
:10211C000000000000000000000000009C3F0608CA
:10212C00317C040869340408000000000C400608E7
:10213C00010100006024012000000000582401204F
:10214C000000000001010000AA5507010000140165
:10215C00FF00000009024300020100C03209040024
:10216C0000010202010005240010010524010001F8
:10217C00042402020524060001070582030800FF5F
:10218C0009040100020A00000007050102400000DA
:10219C00070581024000000009026400030100C031
:1021AC0032090400000103000000092111010001A3
:1021BC002236000705830309000A080B01020202FC
:1021CC0001000904010001020201000524001001B4
:1021DC00052401000204240202052406010207055D
:1021EC0082030800FF09040200020A000000070530
:1021FC000102400000070581024000000902200096
:10220C00010104C03209040000020806500507054C
:10221C00810240000007050102400000120100028B
:10222C00EF02014083045632000201020301000058
:10223C001201000202020040830440570002010216
:10224C0003010000040309040101AA550501000063
:10225C000800000005010905A101A10005010930D4
:10226C000931093209330935093409360937158121
:10227C00257F7508950881020509190129081500A3
:10228C002501950875018102C0C0000009022200D9
:10229C00010100E0320904000001030102000921E0
:1022AC00110100012236000705830309000A000012
:1022BC000000000000000000010000000000000011
:1022CC00000000007A360120000000000100000030
:1022DC0000000000000000000000000000000000F2
:1022EC0000000000000000000000000000000000E2
:1022FC0000000000000000000100000000000000D1
:10230C00AA550902000000AA5503009F0100000015
:10231C00AA550B010000AA5505010000FF000000A2
:10232C00000000000102030401020304060708096F
:10233C004D0D0508ED0D05082908050849EA0408A6
:10234C00691105082DEA040815EA040859EA04087D
:10235C0069EA040800000000000000000000000012
:10236C0011340508A133050839200508AD320508DC
:10237C009930050831ED040845ED040859ED0408C1
:10238C000000000000000000010203040607080919
:10239C00C70000000500000006000000C81A00205D
:1023AC000000000000000000000000000000000021
:1023BC000000000000000000000000000000000011
:1023CC000000000000000000000000000000000001
:1023DC0000000000000000000000000000000000F1
:1023EC0000000000000000000000000000000000E1
:1023FC0000000000000000000000000000000000D1
:08280000082800080040000850
:1080000082B01E4B002201920193019B1C4A043353
:108010000193019B1968936803F00C03042B06D0AD
:10802000082B08D0174B184A1A6002B07047154B3E
:10803000196002B070475368506813F4800F00F065
:108040003F00536812D1C3F388130F49B1FBF0F11D
:1080500001FB03F30A4A0B495268C2F301420132A1
:108060005200B3FBF2F30B6002B07047C3F3881306
:10807000B1FBF0F101FB03F3ECE700BF5028004037
:1080800000380240281B00200024F400074BD0F8E1
:10809000E4105B68D0F8F0205B1A9A42B8BFC0F8D1
:1080A000F030012380F81C3100207047001000E000
:1080B00090F8DB30052B03D890F81E31032B01D04C
:1080C0000020704790F8233103F0FB03022B0CBF14
:1080D00000200720704700BFB84B00EB800103EB86
:1080E000C10170B54A685268B2F814E01EF0010F81
:1080F0004FEA800C6ED15FFA8EF4A60742D5BFF32B
:108100005F8F91F82040012CE5B200F0D180118BF7
:10811000BFF35F8F0CEB000103EBC10191F820402E
:10812000022C00F0E7800CEB000103EBC10191F899
:108130002040032C07D191F8221021B193F87D1033
:10814000002940F0E780918889B241F480619180F4
:1081500093F97C100CEB000E03EBCE0E9EF820E0A2
:108160000EF1010E8E450CD1002183F87D1093F89D
:108170007E10002940F0B780604403EBC00300226A
:108180005A7770BD65075DD414F0400400F0CB80D1
:10819000148A93F97C508E6AE4B274555FFA85FEB6
:1081A0000EF1010464B291F8206083F87C40E51C74
:1081B000AE42214600F025810CEB000503EBC5051E
:1081C00095F82050AC42C5D10EF1020149B283F8B6
:1081D0007C10BFE7B2F800E02EF4006E4FEA0E4EBE
:1081E0004FEA1E4EA2F800E01488A4B244F4806462
:1081F000148091F82240002583F87C50002C48D050
:1082000093F87D40002C41D0012183F87D100CEBC8
:10821000000103EBC10191F82010022904D111885B
:1082200089B241F4006111800CEB000103EBC10144
:10823000897F41F001011182604403EBC00393F890
:10824000203070BD91F82240012583F87E50002C2B
:1082500070D093F87D40002C71D10CEB000103EB42
:10826000C10191F82110002900F0AA80118889B27B
:1082700041F40071118093F87C1001314CB283F805
:108280007C401188CE05FCD4214663E7C97FFF29D5
:10829000BAD00CEB000103EBC1018C7F04F0FE04AB
:1082A0001482CA7FFF2AC7D0FF2283F87C20C3E74D
:1082B00091F8221000293FF42AAF93F87D1000298D
:1082C0003FF425AF118821F480610904090C118065
:1082D000BFF35F8F118B118883F87E5089B241F410
:1082E000007111802FE7918821F440710904090C75
:1082F000918041E791F8221000293FF414AF93F8E0
:108300007D1000293FF40FAF118821F4806109042A
:10831000090C1180918821F480610904090C918075
:1083200093F97C1016E71FFA8EF52D062DD493F9DC
:108330007C100FE793F87D1000298ED096E791F816
:108340002040022C148846D924F480642404240C90
:108350001480158A8E6A93F97C40EDB235558E6A89
:10836000118889B241F400711180E4B2158A611C50
:1083700049B2EDB275549188023489B264B241F4C5
:10838000806183F87C4091807BE793F97C506E1C80
:108390003ED04C6A665D16826C1C91F8205064B227
:1083A000A54283F87C4021467FF4D4AE948824F41F
:1083B00080642404240C9480CCE600BF281B002099
:1083C000118893F97C4089B241F4807111800121B8
:1083D00083F87D1055E7A4B244F400741480158A24
:1083E0008E6A93F97C40EDB23555E4B28E6A158AF7
:1083F000611C49B20334EDB264B2755483F87C4019
:108400003FE7958825F480652D042D0C9580D3E6F3
:1084100083F87C40CC7F148291F8224024B991F8F3
:10842000201000297FF408AF918821F480610904AD
:10843000090C918000E700BF30B5EAB18E464FEAE3
:10844000014C034600F1C005002419689A6841EA0E
:108450000C0142EA0E029A60C3E900140C33AB42ED
:10846000F3D1D0F8C030C0F8C44043EA0E03C0F8DE
:10847000C030C0F8C84030BD4FEA014E8C46E0E73E
:10848000836930B41C6999682268096822F0010286
:1084900022608A899C8992B222EA04028A81027D42
:1084A00000681F2A06D94468203A082191402142D9
:1084B00017D0FEE70468082191402142F9D120211C
:1084C00001FA02F28260234A92F87F203AB11A7EC2
:1084D000012A0BD1D3F8F8200132C3F8F82030BCC0
:1084E0007047202101FA02F2C260ECE7D3F8F420D1
:1084F0000132C3F8F420EFF31181502282F3128885
:1085000058685C6C026822EA04029C6C2243C9B27F
:10851000026081F31188D3E90C401A6999681D6CD7
:10852000096814605061D3E90E40546090600024E3
:10853000B3F8A800D5604C62C862106801242043DB
:1085400010601C768A899B8913439BB230BC8B8157
:10855000704700BF281B0020704700BF024B03EB91
:10856000401090F89D007047281B00204368B0F829
:10857000502010B41A83EFF31182502383F3128832
:108580004168446C0B6823EA0403C46C2343D2B2F1
:108590000B6082F31188D0E9074182680369126891
:1085A0001C605961D0E909415C60C46A9960B0F807
:1085B0006010DC600023D1625DF8044B03767047E5
:1085C000084B10B5D3F8803118440C46007E18F0E3
:1085D00067FE18B1036882880CB11A8310BD5A83F4
:1085E000FCE700BF281B0020F0B4037D85691F2B2A
:1085F00063D90168A3F120024E68202494402642EA
:1086000049D010239340CC60CB604B68D340DE0749
:1086100067D4EFF31183502282F312882A6C116819
:10862000C9072FD4516889B271B9D5E90964A64246
:1086300025D0AF692744D76058D9341BA4B2546001
:10864000AE62002185F86410116841F00101DBB2CF
:10865000116083F31188037D1F2B19D80268194616
:10866000106808238B40184200D0936010680423E0
:1086700003FA01F1014200D09160F0BC7047012281
:1086800085F86420DBB283F31188037D1F2BE5D9C5
:108690000168A3F120024C6808209040044200D0F9
:1086A000C8604C68042000FA02F22242E5D0203B68
:1086B00000FA03F3F0BCCB60704702682024166810
:1086C0009C4026421946CBD010219940946091607D
:1086D0001168D940CC079CD5012101FA03F39360BE
:1086E00097E7012303FA02F2CA6092E72E69341B6E
:1086F000A4B25460A962A4E74FF400638381704779
:10870000074BD0F8E4105B68D0F8F0205B1A934276
:10871000C8BFC0F8F030012380F81C31002070473A
:10872000001000E04FF40063838170474FF4006352
:10873000838170474FF4006383817047012380F881
:108740001031704707B500238DF807300DF107028F
:1087500001230F2117F0A2FA28B19DF807306C2BE6
:1087600014BF0020102003B05DF804FB4FF4006339
:10877000838170474FF40063838170474FF4006337
:10878000838170477047012070470120704730B1E6
:10879000094BD3ED6A7AFDEEE77AC0ED007A51B16C
:1087A000054B9FED067AD3ED6B7A67EE877AFDEE87
:1087B000E77AC1ED007A7047281B00200000C8420C
:1087C000024B012283F8B021704700BF281B002014
:1087D000344AF0B5B2F8BE31B2F8B251B2F9C8417C
:1087E000B2F9B661B2F9C2C1B2F9D471ED1AB2F8F8
:1087F000BC316B43B2F9C65104EBE334ED0295FB97
:10880000F4F505EBE335A5F57A6E0EFB0EF42313B4
:10881000B2F9B841C2F8D0510EFB06F60EFB04FEC9
:10882000B2F9C0415C4303FB0CFCF612241406EBC6
:10883000EC2C04EB6E34B2F9B461B2F8BA31023404
:108840000CEB860CA410D2F8D86104F500440CFAA5
:1088500007FC63430CF1020C4CF25032DC0BA6EB2C
:10886000AC0642FA07F3734355BF5B00B3FBF4F366
:10887000B3FBF4F35B0070B11A1240F6DE345243DE
:108880006243094C12145C4302EB244202F6CF62AD
:1088900003EB2213036021B10A235D4308352D1138
:1088A0000D60F0BD281B002043E3FFFF704701204F
:1088B0007047012070472DE9F047DFF88081D8F834
:1088C000DC51B8F8E021B8F8E691C2EB251352006C
:1088D000C2EBE502B8F9E2516A4303FB03F5B8F9CC
:1088E000E4312D135D43AD1305EBE225B8F9EA3110
:1088F000C8F8F8510E46A5F5FA31074681FB010C80
:108900004FEAE37E03FB0CF200FB0E22A3FB003ECA
:108910009644B8F9E82182FB01421B0A120343EA9C
:108920000E6342EA145224031B1942EB2E2202F575
:108930000042A3FB093E09FB02EE4FEAEE734FEA49
:108940006E0253EA6E0E4FF000046BD0B8F9F0914E
:108950004FEAE97E09FB0CFC00FB0ECCA9FB009062
:108960008444B8F9EE0180FB01E148044FEA4E412E
:1089700011EB0909D8F8FC1140EADE304CEB00009D
:10898000C1F5801C0CF0004AB8F9EC1114EB090495
:108990004AEA5C0A4FEACC7C00EBC10140F635495B
:1089A000BCEB04006AEB010AA0FB090109FB0A11F8
:1089B00052F0ECFFB8F9F6414FEA613E430B43EA4F
:1089C000C14304FB0EF24FEAE47C03FB0C2CA4FB36
:1089D0000342624404FB0EFE03FB02EEA4FB0343CE
:1089E000B8F9F4219E44640E44EACE1414EB000C52
:1089F00002FB01F34FEAE274814641EB6E6EA2FB8B
:108A0000092904FB00314944D40C44EA41341CEBED
:108A10000404B8F9F2314EEBE141240A44EA01645E
:108A200004EB03140FB1240A3C6026B105EB850565
:108A300080352D123560BDE8F08700BF281B00206F
:108A400000B583B04FF0000C01230DF10702112196
:108A500098388DF807C017F021F903B05DF804FBD2
:108A6000704700BF012070470120704708B50068BB
:108A70004FF070FF38B9054AB2F800325BBAA2F87D
:108A8000B231012008BD0020FCE700BF281B0020F8
:108A900008B500684FF05EFF98B90B4A92F80132B2
:108AA00092F800121B0243EA014392F802120B43B0
:108AB000B2F9D411C1F10801CB40C2F8D83101207C
:108AC00008BD0020FCE700BF281B002008B5006897
:108AD0004FF040FFE0B90F4B93F8042293F80312D4
:108AE000120142EA013293F8051242EA1112C3F868
:108AF000FC2193F8072293F80612120142EA013290
:108B000093F8081242EA1112C3F8DC21012008BDD3
:108B10000020FCE7281B002003681A78012A1CD0DB
:108B2000144B00B593F8121293F811C293F8100287
:108B300093F8152293F814E2090441EA0C21014349
:108B4000120493F81302C3F80C1242EA0E220243F5
:108B5000C3F8182201205DF804FB93F90420054BAB
:108B600002EB820203EBC202527F002AD9D000201E
:108B7000704700BF281B00202DE9F04FC84C83B080
:108B8000B4F81C32D4F8182294F92052CDE900012F
:108B9000B4F81E12A2EB0322A1FB02139E04A2FB57
:108BA0000223EF1705FB03F302FB073346EA913676
:108BB000A5FB025289046D181A4442EB0603002BF0
:108BC00002DA013D43F10003009ADF17C4E98E3752
:108BD000002A00F0148103FB07F1A3FB032E0EEB28
:108BE000410E4FEA921C4CEA8E6C0CFB07FB4FEADD
:108BF000AE1103FB01BBACFB03C81BEB080BD4F8A5
:108C00000C5200F1488194F926124FEA1C2C4CEAD0
:108C10000B6C4FEA2B2B4FEAE17801FB0BFA0CFBB4
:108C200008AAA1FB0C181AEB080800F13081B4F96E
:108C30002162B4F92392490941EAC8610846A6F5C0
:108C4000804694F92512B60306EB681ACE1701FB8D
:108C50000EF802FB0688A1FB02164644B60046EA5F
:108C600091768900A9F5804941184AEB060609FB6F
:108C700007F84FEAE97A03FB0A88A9FB039AD04474
:108C80004FEA485848EAD9284FEA495911EB0901F7
:108C900046EB0806002EC0F2F38094F92C9209FBF3
:108CA0000BFB4FEAE9780CFB08BBA9FB0C98090EFB
:108CB0001BEB080841EA06214FEA266600F1DB803B
:108CC0004FEA591C94F92B92B4F829A209FB0EFE25
:108CD0004FEAE97B02FB0BEEA9FB0229CE444FEAE7
:108CE0000E1E4CEAC86C4EEA127E12011CEB020CFE
:108CF000B4F827224FEAC23202EB6818AAFB0392AB
:108D00000AFB072A4FEA8A5A4AEA992A4FEA8959FE
:108D100048EB0E081CEB090948EB0A08B8F1000FF4
:108D2000C0F2A48094F92FE2B4F92DB24FEA990968
:108D3000A1FB051249EA887919EB010905FB062612
:108D40004FEAEE710EFB07F24FEA0B4C03FB0122D8
:108D5000AEFB03E146EBA8060A441EEB0C0E42EB09
:108D6000EB7BAEFB05CE05FB0BEEBEF1000F76DB19
:108D70004FEA5C3C4CEACE4CACFB05C14FEA6E3E80
:108D800005FB0E1EBEF1000F62DB4FEA5C2C94F96E
:108D900030224CEACE5C19EB0C0146EB6E264FEA12
:108DA000E27CA5FB054E04FB0CFC02FB0ECCA4FBF5
:108DB00002421CEB020C45D4220C42EA0C42A2FBFC
:108DC00005244FEA2C4C05FB0C4CBCF1000F35DBA5
:108DD000D20942EA4C62521846EBEC16941846EB64
:108DE000060CA41846EB0C0C4FEACC0C4CEA547C55
:108DF000E400A41846EB0C06009A360C1660019AA3
:108E00009AB1DA1847EB0701D21847EB0101C90004
:108E100041EA5271D200D31847EB0107002F07DB5C
:108E2000019A9B0B43EA8743136003B0BDE8F08FC0
:108E300043F6FF729B1847F10007F1E77F324CF1D0
:108E4000000CC5E74FF6FF72A4184CF1000CB3E715
:108E500040F2FF111CEB010C4EF1000E95E741F6BC
:108E6000FF721CEB020C4EF1000E81E719F10309B1
:108E700048F1000856E719F11F0948F100081FE7FB
:108E80006FF07F4911EB090146F1000605E71F313C
:108E900048F10008CBE61CF1FF0C4BF1000BB2E6E9
:108EA000281B00203B4B9FED3C4A93F8411293F85E
:108EB000400293F8422293F843C293ED947A090258
:108EC00001EB00410A44090248BF02F17F4207EE6C
:108ED000902AB3F95C2293F8440293F8451206EE07
:108EE000102AB3F95822F8EEE77A06EE902A67EED8
:108EF000847AB3F95A22B8EEC66AF8EEE66A00023E
:108F0000E7EE866A00EB0C40014406EE102AB3F946
:108F10005622000205EE102A48BF01F17F41B3F945
:108F20005422F8EEC75A07EE101AB8EEC66AB8EE29
:108F3000C55AE6EEA75A0120D3ED936A04EE902AB3
:108F4000B8EEC77AA7EE865AB3F94A2227EE047A1A
:108F5000F8EEE44AB8EEE66A06EE902AB3F9482243
:108F6000A7EE246AE5EE075AF8EEE66A05EE102A47
:108F700026EE877AB8EEC55AF6EE004AF0EE466A5B
:108F8000E7EEA56AA5EE247AC3ED986A83ED997A97
:108F9000704700BF281B00200821843630B10A4BDF
:108FA000D3ED987AFDEEE77AC0ED007A51B1064B29
:108FB0009FED067AD3ED997A67EE877AFDEEE77A30
:108FC000C1ED007A704700BF281B00200000C84296
:108FD000704700BF012070470120704770477047FD
:108FE0000120704730B585B000238DF807300DF1B2
:108FF00007020123E721054616F0A6FE9DF807307B
:10900000134C13F0030320D0052302AAE8212846BD
:1090100016F09AFE9DF80A209DF80910130443EA01
:1090200001239DF8081012F0800F43EA010314BFDA
:109030004FF07F4200221343C4F86832BDF80B3072
:10904000A4F86C32012005B030BDC4F86832F7E7EF
:10905000281B00200B4A10B5D2F8684264236343F2
:1090600048BF03F6FF731B130360B2F86C320A2289
:1090700053433022B3FBF2F303F584531A330B60EE
:1090800010BD00BF281B002008B500684FF062FC2F
:1090900070B9084A92F8753292F874121B0243EACA
:1090A000014392F876120B43C2F87032012008BDDA
:1090B0000020FCE7281B002010B5044600684FF094
:1090C00049FC38B92046044A0623F72151F046FEF0
:1090D000012010BD0020FCE79F1D002010B50446B4
:1090E00000684FF037FC70B9084B93F87D2212B13D
:1090F00093F8B00130B12046054A0223F62151F021
:109100002DFE012010BD0020FCE700BF281B002021
:10911000281D002010B5044600684FF01BFC70B9F4
:10912000084B93F87D2212B193F8B00130B120467C
:10913000054A0323F62151F011FE012010BD002045
:10914000FCE700BF281B0020281D002010B50446A6
:1091500000684FF0FFFB38B92046044A0623F72188
:1091600051F0FCFD012010BD0020FCE72B1D00206C
:1091700008B503681A78012A06D0094A0623042193
:1091800051F0ECFD012008BD93F90430054A03EBD2
:10919000830302EBC3035B7F002BEED0002008BDEE
:1091A000381D0020281B002008B503681A78012A02
:1091B00006D0094A0623002151F0D0FD012008BD48
:1091C00093F90430054A03EB830302EBC3035B7F8F
:1091D000002BEED0002008BD681D0020281B0020B9
:1091E00008B500684FF0B6FB70B9084A92F87532BE
:1091F00092F874121B0243EA014392F876120B4371
:10920000C2F88032012008BD0020FCE7281B0020A6
:109210002DE9F74F564AB2F88E32B2F88A62B2F8A8
:109220009072CDE90001D2F870121B02C91AB2F88F
:109230008C326EEB0E0EA3FB010403FB0E44B2F85E
:109240008832C00940EA44601B04C018A6FB0135FF
:1092500006FB0E55B2F886624FEA132343EA056314
:109260004FEAC6364FEAE41444F100049B19A7FB09
:10927000012607FB0E664FEAD25242EA46224FEA27
:10928000252545F10005F61512F5FA6C46F1000B9F
:10929000BCF5FA6F7BF100074CDAA2FB02784FF0C5
:1092A000050A02FB06F908EB4909A7FB0A780AFB45
:1092B00009884FEA570949EAC879BF08B0EB0900A5
:1092C00047EA887764EB6804DB1B2A4F65EBA80547
:1092D000BC454FF0FF377BEB070720DA40F6AC5771
:1092E000D21946F100065643A2FB027202EB460673
:1092F0004FEAC608FA00BA1A48EA577866EB080837
:10930000101844EB08044FF00B08A7FB087208FB89
:1093100006267F0847EAC677DB1B65EB660501FB7F
:109320000EFEA1FB011202EB4E0EC90F41EA4E01E7
:10933000BCEB010C009A9AB10D4AD2F88012A1FB45
:10934000032301FB0535520D42EAC522121A4FEAEA
:109350006555009B65EB0404D20B42EA44421A6057
:10936000019B0BB1C3F800C003B0BDE8F08F00BF94
:10937000281B002024FAFFFF7047012070470120BE
:10938000704710B5044600684FF0E4FA38B920463B
:10939000044A0623F72151F0E1FC012010BD002012
:1093A000FCE700BFBC1D002008B500684FF0D2FAF2
:1093B000D0B90E4B93F8952293F89412120242EA18
:1093C000014293F896120A43C3F89C2293F898221C
:1093D00093F89712120242EA014293F899120A4353
:1093E000C3F8A022012008BD0020FCE7281B0020B4
:1093F0002A4BD3F8A02293EDAB6AD3EDAA6AD3ED42
:10940000A97AD3EDAE5AD3EDAD4A93EDB24A93EDBE
:10941000B05AA2F5000207EE102AB8EEC77AD3F8C8
:109420009C22E7EE066AA2F5000293EDAF6AE7EE32
:10943000267A93EDAC7AE5EEA74A06EE902AA7EEDF
:10944000A47AF8EEE66AD3EDB15AD3EDB44AA4EEAD
:10945000275AE6EEA45A93EDB34AA5EE276AE4EE46
:10946000275AA5EEA66AA6EE867AB5EE407AF1EE08
:1094700010FA18BFBDEEC77AF5EE407A18BF80ED3E
:10948000007AF1EE10FA08D0FDEEE77A17EE903A86
:10949000002BB8BFFF331B120B607047281B002046
:1094A00010B5074C94F8D4320BB9002010BD18F059
:1094B0002FFDD4F8D832C01AD0F5FA50F6D5F4E71B
:1094C000281B002070B505460C46FFF7E9FF2B6806
:1094D0005D6808B11BF036F8064B002283F8D422F1
:1094E0002846224693F8D532BDE87040492116F04F
:1094F0002BBC00BF281B0020B0F90000084B4143E3
:10950000994208DBB1F5000F07DA0029B8BFFF3137
:10951000081200B270470348FBE747F6FF70F8E710
:1095200001FF7FFF0080FFFF704710B50D4C2378CF
:1095300043B10C300C4A0623032151F00FFC0020EC
:10954000207010BD094BB3F8DC2252BA0A80B3F880
:10955000DE2252BA8A80B3F8E0325BBA4B80012037
:10956000EEE700BF98010020041E0020281B002009
:1095700010B5124C637843B10C30114A06232821F0
:1095800051F0ECFB0020607010BD0E4AB2F9E232DF
:10959000002BB8BF03339B100B80B2F9E432002BD1
:1095A000B8BF03339B104B80B2F9E632002BB8BF33
:1095B00003339B108B800120E5E700BF980100205A
:1095C0000A1E0020281B002010B5174C94F8E83222
:1095D000012B00F10C000CD0022B17D0012304F258
:1095E000E922062151F0BAFB012384F8E832002079
:1095F00010BD94F8E93213F00403F6D0062304F208
:10960000EA22002151F0AAFB0223EEE7B4F8EA3285
:109610000B80B4F8EC324B80B4F8EE328B80002330
:1096200084F8E8320120E3E7281B002038B58022C7
:109630006B21054616F084FA64201BF02DF9F52104
:10964000284616F0AFFBAC2818D005D8122817D042
:10965000982817D000240FE0AF28FBD1092410224E
:109660006A21284616F06CFA28460322682116F073
:1096700067FA64201BF010F9204638BD0724EEE796
:109680000824ECE70B24EAE738B500224E21054612
:1096900016F056FA152496201BF0FEF8F521284600
:1096A00016F080FB422807D0472807D0013C14F071
:1096B000FF04F0D1204638BD0C24FBE70D24F9E768
:1096C00038B580226B21044616F03AFA64201BF06C
:1096D000E3F8F521204616F065FB054601201AF057
:1096E00031FF682D1BD18C21204616F05BFB18281A
:1096F0000DD8142834BF00250325204607226821F1
:1097000016F01EFA64201BF0C7F8284638BDA0F1F9
:109710005403DBB2072B34BF03250025EDE70025FA
:10972000F3E708B5F52116F03DFB702818D008D8EE
:10973000422817D0472817D0122814BF002008202D
:1097400008BDAC2812D006D800F0FD00712814BF67
:1097500000200620F4E7AF2814BF00200920EFE71F
:109760000520EDE70C20EBE70D20E9E70720E7E710
:10977000164BD0F8E0105A6810B50446D0F8D8005F
:1097800071B1131A99420BDC94F8D030C4F8D82088
:10979000012B10D0D4F8D4300133C4F8D43010BD2C
:1097A000D4F8E430C4F8D8200344C4F8DC3094F88A
:1097B000D030012BEED104F1E801201D16F072F932
:1097C000D4F8D4300133C4F8D43010BD001000E018
:1097D00010B504460E49D0F8D83094F8D020D0F80F
:1097E000E40049680344012AC4E9361305D0D4F8DB
:1097F000D4300133C4F8D43010BD04F1E801201D89
:1098000016F050F9D4F8D4300133C4F8D43010BD78
:10981000001000E070B5866996F8DC30012B8AB044
:10982000054623D0023B012B2BD8D6F89C30164C92
:109830008C221A700FCCEC46ACE80F00D6F89C30A6
:109840000093D6F8A03001930FCCACE80F0094E859
:109850000300AB698CE8030003F11000694616F0C1
:1098600021F9AB691A69136A002BFCD1D6F8A03034
:10987000B3F90220EA81B3F904202A82B3F9063051
:109880006B8201200AB070BD28D40508F0B5836949
:1098900093F8DC20012A8BB0054627D0023A012A32
:1098A0002FD893F84C21D3F89C10174C62F07F030B
:1098B0000B708669D6F8A0305F1C0FCCEC46ACE884
:1098C0000F00D6F89C30CDE900370FCCACE80F0084
:1098D00094E803008CE80300694606F1100016F0D6
:1098E000E1F8AB6919690A6A002AFCD1D3F8A03003
:1098F0005A8852BAEA819A8852BA2A82DB885BBABD
:109900006B8201200BB0F0BD50D40508F0B590F883
:10991000DC30D0F8A060012B8BB004464BD015D8BA
:10992000D0F89C304FF0FF321A605A609A60DA60CB
:10993000D0F8E0300522B3F57A7FC0F8F02054D893
:10994000032380F8DC3001200BB0F0BD023B012B7B
:10995000F9D890F84D31D0F89C203A4D63F07F0350
:109960001370D0F8A0305F1C0FCDEC46ACE80F00B0
:10997000D4F89C30CDE900370FCDACE80F0095E866
:1099800003008CE80300694604F1100016F08AF821
:109990002269136A002BFCD173885BBAA4F8D0301B
:1099A000B3885BBAA4F8D230F38801205BBAA4F87C
:1099B000D4300BB0F0BD90F84C2190F84D319B1A8B
:1099C0005B100133DBB206EB430236F813305BBAAF
:1099D000A0F8D03053885BBAA0F8D23093885BBA35
:1099E000A0F8D43001200BB0F0BD03691A7B2AB374
:1099F0005B691BB390F8983003B390F84C31D0F802
:109A00009C20C4F8A40063F07F03137090F84C11FD
:109A100090F84D31D0F8A0200B48C4F804015B1A2F
:109A200007330121C4F8FC30D4F89C3084F80011CD
:109A30000A44C4E93D3284F8DC1084E7022384F848
:109A4000DC3080E750D405088D800008F0B590F830
:109A50001E31032B8DB0054658D090F8DC30D0F87D
:109A6000A060012B00F08E8015D8D0F89C30002229
:109A70001A605A609A609A81D0F8E0300522B3F5F6
:109A80007A7FC0F8F02036D80323012480F8DC3038
:109A900020460DB0F0BD023B012B33D8D0F89C30EE
:109AA000554F92221A700FCF02AC0FC40FCF0FC4C4
:109AB00097E80300D5F89C3084E80300029302A9DC
:109AC000D5F8A030039305F1100015F0EBFF2A69DB
:109AD000136A002BFCD1B6F90230A5F8D030B6F9E4
:109AE0000430A5F8D230B6F90630A5F8D4300124F8
:109AF00020460DB0F0BD03691A7B002A5AD102231B
:109B000085F8DC30012420460DB0F0BD3B490291C0
:109B10003B4903910A21002301221030049102A93C
:109B20008DF814208DF828200190CDE90633CDE979
:109B300008330B9315F0B6FF2A690198136A002BBE
:109B4000FCD13049B1F8F222052A19DDB1F9F4420D
:109B5000D1F8F462B1F9F672B1F9F81214F5004FC8
:109B600020D0C5F8D060A5F8D4100124063A002A08
:109B7000C9D0B0227E2115F0E3FF20460DB0F0BD24
:109B80001C46F4E7B6F90820A0F8D020B6F90A2060
:109B9000A0F8D220B6F90C20A0F8D4201C4620460C
:109BA0000DB0F0BD17F5004FDBD111F5004FD8D146
:109BB0001C46DBE75B69002BA1D090F89840002C95
:109BC0009DD0D0F89C30C5F8A4008C221A70D0F833
:109BD000A020C0F8F8200E2201230B49C0F8FC2079
:109BE000D0F89C20C0F80411C0F8F42080F80031AF
:109BF00080F8DC3087E700BF28D405089C010020EE
:109C0000181E0020281B0020018700082DE9F047BE
:109C1000044690F8210144F23B3382B0A4F84C3161
:109C200010B902B0BDE8F0870509013D042D00F030
:109C30000F0071D83A4F07EB4503B3F8503043FAA1
:109C400000F2D20768D5012606FA00F00138184064
:109C50003D4451F0EBFEDFF8D89095F85C80314B35
:109C6000804409F53F7A0AEBC8052622EA80E360C2
:109C7000AB88B3FA83F3202BC3F11F02D1D0174472
:109C800009EB82020C34C2F87C45284697F8644000
:109C900016F09EFC0021284616F0D2FC5AF8380037
:109CA000A98800F13F40B1FA81F100F57E00C1F1D1
:109CB0001F01C0F38720C9B248F0ECFEAA888DF8D6
:109CC0000660B2FA82F24FF00043A144D3406846E6
:109CD0004FF400620093ADF804204EF039FC99F87F
:109CE000BC35F02B0ED8AB884FF00042B3FA83F3AB
:109CF00032FA03F395D00C490A6813430B6002B0A3
:109D0000BDE8F087094AF023105D89F8BC350022D0
:109D100003214EF09BFDE6E7024BE36081E700BFC5
:109D200028D4050871970008003C01402C4706081C
:109D3000281B002038B500F110040546194815F01D
:109D400039FEA8822846FFF761FF01226B212046D9
:109D500015F0F6FE78201AF0F5FB204618221B219C
:109D600015F0EEFE204618221C2115F0E9FE2846CB
:109D7000FEF79EF91A210246204615F0E1FE95F8FD
:109D800020212046192115F0DBFE20461022372124
:109D900015F0D6FE20460122BDE83840382115F0E6
:109DA000CFBE00BF00127A0073B5054600F1100463
:109DB0004B4815F0FFFDA8822846FFF727FF42F227
:109DC0001F53A5F84C310F224E21204615F0B8FE46
:109DD0000F201AF061FD95F8DB30002B71D095F85B
:109DE0002031013343F00103B3FA83F3C3F11F03BE
:109DF000032B66DC3B4AD25C02F00F024F21204667
:109E0000019215F09DFE0F201AF046FD019A502197
:109E1000204615F095FE0F201AF03EFD324B93F8C8
:109E2000C535022B52D0032B55D0012B15BF0A2567
:109E300008252426902614BF06220C2220460C2139
:109E400015F07EFE06F0FC0220460D2115F078FE8E
:109E50002A0142EA162220460E2115F071FE204604
:109E60000C22032115F06CFE20462422042115F05B
:109E700067FE2046A022052115F062FE2046EE2254
:109E8000522115F05DFE20460322142115F058FEE4
:109E900020460022632115F053FE0822204665214A
:109EA00015F04EFEE421204615F07CFF00F0EF0097
:109EB00040F060026421204602B0BDE8704015F019
:109EC0003FBE002385F8DB30062295E706254FF4D8
:109ED000DC761522B2E704254FF4AC662522ADE707
:109EE00000366E0118470608281B00202DE9F04FA8
:109EF000B24C94F87FA083B0BAF1000F1ED1D4F811
:109F0000443A002B16DD0026AD4831460769D0F8EB
:109F1000A0303D6825F0010503F1C0023D605960A5
:109F20000C339A42FBD1D4F8443A0136B34200F5DF
:109F30008070EBDC012003B0BDE8F08FD4F8E83589
:109F4000984617F0E5FFD4F8EC35D4F8F025143333
:109F5000801AB0EB430FC0F2258104F2F457DFF80A
:109F60006CB2CDF804A004F18006C2460025B846C4
:109F7000D4F8403AAB4240F3BC80B16973680A69D7
:109F800098005368D1F8EC201FFA83FCA2EB0C0C6C
:109F9000D1F8E83000F108500CF1806700EB431075
:109FA000393F00EB87170246974240F29A801168CA
:109FB00002F58073002900F0E680116C002900F0A2
:109FC000E580D2F88010002900F0E380D2F8C010BC
:109FD0001A460029E8D19F4240F28380191AACEB5F
:109FE000A111452928BF4521002703EB81119E4679
:109FF00038464FF001090CE01A6C002A7DD1D3F8E5
:10A000008020002A40F0A380D3F8C02003F580739D
:10A010002AB9994205D91A68002AEDD040339942ED
:10A020006ED8112F5DD9C7F11503002B59DB08D06D
:10A0300000FA03F3C7F11407012000FA07F747EA13
:10A040000300C0F3C4330BEB8303596F00F01F030D
:10A050000BEB83035A6F42EA0132C0F344110BEB5E
:10A060008101C0F384230BEB8303496F5B6F42EAEA
:10A07000011242EA032383EA132282EA121202F057
:10A080000F020F2A1BD1B3F5803F18D2D4F8FC255C
:10A090001B090132B3F5606FC4F8FC2540F08B80DA
:10A0A00094F85C2702EB420204EBC2022A4492F8C5
:10A0B00009270D2A7AD00199A8F80C300AE0D4F8C3
:10A0C000FC350133C4F8FC35D4F8F8350133C4F855
:10A0D000F83500213B4B5C2000FB0530524615F063
:10A0E00021FA0135082D08F1140806F120067FF445
:10A0F0003FAF012384F8FA3601E78033994290D9C3
:10A10000A3EB0E02921102F1010C2F4A82FB0CE22A
:10A11000A2EBEC72012AB8BF012290401744013A29
:10A1200009FA02F210439C46DCF800208AB1DCF800
:10A1300040208AB3DCF880208AB3DCF8C0200CF51C
:10A14000807C42B16145EFD89E46634661E7C033EB
:10A1500065E70CF1400C6145F6D9ACEB03039B11AC
:10A160005A1C194B83FB02E3A3EBE273012BB8BF2C
:10A17000012398401F44013B09FA03F31843634647
:10A180009E46634645E702F1400324E702F180035F
:10A1900021E702F1C0031EE70CF1800CDBE70CF1B4
:10A1A000C00CD8E7002003B0BDE8F08F80230199F0
:10A1B00088F81E308EE79BB27DE700BF281B002089
:10A1C00070250020882200205655555528D40508B2
:10A1D0002DE9F0412F4F07EB401898F89C300BB950
:10A1E000BDE8F0818C2303FB00730E4693F84A2EE2
:10A1F00088F88220002183F84A1E0446450115F0A4
:10A2000081FBC0BB3D442448A5F8806000EB4410AE
:10A2100015F02CF897F87F30D5F89820A3B1D5F831
:10A220008410D2F8A03001248C4003F1C001420018
:10A2300010F4004F90B202D15A6822435A600C3396
:10A240009942F4D1BDE8F081D5F88440D2F8A0302D
:10A2500004F110020124944003F1C001420010F403
:10A26000004F90B202D15A6822435A600C3399428F
:10A27000F4D1BDE8F08197F85C3703EB430307EBBB
:10A28000C303234493F80967002EBBD0012388F849
:10A290008230B7E7281B0020A81B002010B5044619
:10A2A00052F094FB81B22046BDE8104090E700BF19
:10A2B00010B57D4B7D4C93F85C3794F8B0219A42F1
:10A2C00040F0988194F8B121002A00F0EC8094F8D5
:10A2D000B231002B40F0EC80D4F8B411088820F0A3
:10A2E00080000004000C0880B4F8B801C862088837
:10A2F00080B240F0800008804B62B1F80CC0B4F826
:10A30000C80140EA0C0080B2012A8881A4F8C83153
:10A3100000F0C980D4F8CC11088820F08000000437
:10A32000000C0880B4F8D001C862088880B240F000
:10A33000800008804B62B1F80CC0B4F8E00140EA3C
:10A340000C0080B2022A8881A4F8E03100F0AB80D2
:10A35000D4F8E411088820F080000004000C088084
:10A36000B4F8E801C862088880B240F08000088034
:10A370004B62B1F80CC0B4F8F80140EA0C0080B2AE
:10A38000032A8881A4F8F83100F08D80D4F8FC11FC
:10A39000088820F080000004000C0880B4F8000257
:10A3A000C862088880B240F0800008804B62B1F833
:10A3B0000CC0B4F8100240EA0C0080B2042A888174
:10A3C000A4F810326FD0D4F81412088820F080005E
:10A3D0000004000C0880B4F81802C862088880B233
:10A3E00040F0800008804B62B1F80CC0B4F828023D
:10A3F00040EA0C0080B2052A8881A4F8283252D0A5
:10A40000D4F82C12088820F080000004000C08808A
:10A41000B4F83002C862088880B240F0800008803A
:10A420004B62B1F80CC0B4F8400240EA0C0080B2B4
:10A43000062A8881A4F8403235D0D4F8441208881E
:10A4400020F080000004000C0880B4F84802C862C4
:10A45000088880B240F0800008804B62B1F80CC0E0
:10A46000B4F8580240EA0C0080B2072A8881A4F8A8
:10A47000583218D0D4F85C22B4F86002118821F068
:10A4800080010904090C1180D0621088B4F87012A0
:10A4900080B240F08000108053629089014389B2FD
:10A4A0009181A4F8703210BD281B0020202C0020C0
:10A4B000D4F8BC31B4F8C01159601968D4F8B401AB
:10A4C00041F00101196040F20D33A0F84830818954
:10A4D00089B241F48071012A8181E4D0D4F8D41189
:10A4E000B4F8D8014860086840F001000860D4F86A
:10A4F000CC01A0F84830818989B241F48071022AE8
:10A500008181D0D0D4F8EC11B4F8F001486008682B
:10A5100040F001000860D4F8E401A0F848308189D7
:10A5200089B241F48071032A8181BCD0D4F804122D
:10A53000B4F808024860086840F001000860D4F8E8
:10A54000FC01A0F84830818989B241F48071042A65
:10A550008181A8D0D4F81C12B4F8200248600868A1
:10A5600040F001000860D4F81402A0F84830818956
:10A5700089B241F48071052A818194D0D4F83412D3
:10A58000B4F838024860086840F001000860D4F868
:10A590002C02A0F84830818989B241F48071062AE2
:10A5A000818180D0D4F84C12B4F850024860086819
:10A5B00040F001000860D4F84402A0F848308189D6
:10A5C00089B241F48071072A81813FF46CAFD4F8DD
:10A5D0006412B4F868224A600868D4F85C2240F03B
:10A5E00001000860A2F8483093899BB243F480735D
:10A5F000938110BD4DF0E8FB00287FF463AE10BDE1
:10A600002DE9F843264F274E97F8B02196F85C378E
:10A610009A423ED1D6F8445A002D14DD002496F813
:10A620007F802148A1460134B8F1000F02D0037E9B
:10A63000012B29D002691368A54243F0010300F5FC
:10A6400080701360EFD1194B5B68C3F30803C3B983
:10A65000EFF31183ABB917F037FCD7F87442C6F8A3
:10A66000F005002C0BDD124A02EBC404116893883C
:10A670008889083203439BB294428B81F6D1BDE8AE
:10A68000F88317F0BFFAE8E780F8F090FDF76EFF67
:10A69000D0E74DF099FB0028BCD1BDE8F88300BF9E
:10A6A000202C0020281B00207025002000ED00E059
:10A6B000982E00202DE9F047836882B0804613B1C0
:10A6C0001A689B8853835F4B5B68C3F30803002BB6
:10A6D00040F0B380EFF31183002B40F0AE8017F011
:10A6E000F3FB0546574F584E584C05E017F0ECFB6E
:10A6F000431BB3F57A7F30D27B68C3F308031BB9E1
:10A70000EFF31183002BF1D0EFF31182102383F3C9
:10A7100012884FF0E0210120D1F818C00B69DB034B
:10A7200003D5C6F89802D1F818C0D4F8E8E5D6F8F1
:10A730009802D2B282F31188D6F89C124FF47A7242
:10A7400002FB01F37044A3EB0C03B3FBF1F302FB38
:10A750000030431BB3F57A7FCED3D8F8083013B15D
:10A760001A689B881383374C384EDFF8DCA00A2721
:10A7700010256368C3F30803002B4BD1EFF311835B
:10A78000002B47D117F0A0FB814606E017F09CFB99
:10A79000A0EB0903B3F57A7F30D26368C3F30803F3
:10A7A0001BB9EFF31183002BF0D0EFF3118285F387
:10A7B00012884FF0E0210120D1F818C00B69DB03AB
:10A7C00044BFCAF89802D1F818C0D6F8E8E5DAF81C
:10A7D0009802D2B282F31188DAF89C124FF47A729E
:10A7E00002FB01F37044A3EB0C03B3FBF1F302FB98
:10A7F0000030A0EB0903B3F57A7FCED3013FB8D187
:10A80000D8F80030ADF804701B6A3BB1384602B08E
:10A81000BDE8F08717F0F6F98146BEE7404602230F
:10A8200001AA802115F014FA9DF80530242B14BFDD
:10A8300000200F2002B0BDE8F08717F0E3F90546CD
:10A8400050E700BF00ED00E0202C0020281B002076
:10A850002DE9F04F034695B000F1100593F81E3135
:10A860000090B6227E212846019315F069F9B44C78
:10A87000B44FDFF8D4B24FF06409AA467B68C3F343
:10A880000803002B40F07185EFF31183002B40F09B
:10A890006C8517F019FB8046102606E017F014FBB4
:10A8A000A0EB0800B0F57A7F2DD27B68C3F30803D4
:10A8B0001BB9EFF31183002BF0D0EFF3118386F374
:10A8C00012884FF0E022012590691169C90344BF45
:10A8D000CBF898529069D4F8E8C5DBF89822DBB23F
:10A8E00083F31188DBF89C524FF47A7101FB05F376
:10A8F0006244181AB0FBF5F001FB0200A0EB08005F
:10A90000B0F57A7FD1D3B9F10109B7D1009B9B692A
:10A91000554613B11A689B8853838A4B5B68C3F30F
:10A920000803002B40F05F85EFF31183002B40F00C
:10A930005A8517F0C9FA8046DFF808A2DFF80892B6
:10A94000102706E017F0C0FAA0EB0800B0F57A7FF8
:10A9500032D2DAF80430C3F308031BB9EFF31183E2
:10A96000002BEFD0EFF3118387F312884FF0E02232
:10A970000120D2F818C01169CE0303D5C9F8980296
:10A98000D2F818C0D4F8E8E5D9F89822DBB283F3FE
:10A990001188D9F89C624FF47A7101FB06F002EB42
:10A9A0000E03A0EB0C00B0FBF6F001FB0300A0EBE4
:10A9B0000800B0F57A7FCCD3009B9B6913B11A686D
:10A9C0009B8813835F4FDFF880B14FF00A09AA46D6
:10A9D0007B68C3F30803002B40F0CC84EFF31183B2
:10A9E000002B40F0C78417F06FFA8046102606E06F
:10A9F00017F06AFAA0EB0800B0F57A7F2DD27B68D9
:10AA0000C3F308031BB9EFF31183002BF0D0EFF36E
:10AA1000118386F312884FF0E022012590691169B5
:10AA2000C90344BFCBF898529069D4F8E8C5DBF865
:10AA30009822DBB283F31188DBF89C524FF47A71D1
:10AA400001FB05F36244181AB0FBF5F001FB0200AC
:10AA5000A0EB0800B0F57A7FD1D3B9F10109B7D1E5
:10AA60004A467C21504615F06BF8364B5B68C3F3C1
:10AA700008035546002B40F0B184EFF31183002BFF
:10AA800040F0AC8417F020FA8046DFF8B8A0DFF879
:10AA9000B890102706E017F017FAA0EB0800B0F501
:10AAA0007A7F32D2DAF80430C3F308031BB9EFF32C
:10AAB0001183002BEFD0EFF3118387F312884FF04F
:10AAC000E0220120D2F818C01169C90303D5C9F8E2
:10AAD0009802D2F818C0D4F8E8E5D9F89822DBB289
:10AAE00083F31188D9F89C624FF47A7101FB06F068
:10AAF00002EB0E03A0EB0C00B0FBF6F001FB030031
:10AB0000A0EB0800B0F57A7FCCD30022592128466B
:10AB100015F016F80B4B5B68C3F30803002B40F0ED
:10AB20005884EFF31183002B40F0538417F0CCF9D5
:10AB30008046DFF810A0DFF8109010270DE000BF6E
:10AB4000281B002000ED00E0202C002017F0BCF9AD
:10AB5000A0EB0800B0F57A7F32D2DAF80430C3F304
:10AB600008031BB9EFF31183002BEFD0EFF3118330
:10AB700087F312884FF0E0220120D2F818C0116943
:10AB8000CE0303D5C9F89802D2F818C0D4F8E8E586
:10AB9000D9F89822DBB283F31188D9F89C624FF47C
:10ABA0007A7101FB06F002EB0E03A0EB0C00B0FB88
:10ABB000F6F001FB0300A0EB0800B0F57A7FCCD3E0
:10ABC0005E238DF80F300DF10F03049300230593DE
:10ABD0008DF81C3008930A930D9310931293012360
:10ABE00006938DF830308DF84430C44B09934FF400
:10ABF000A47300220B9304A900232846CDE90E2359
:10AC000014F050FF009B1A69136A002BFCD1BC4F53
:10AC1000DFF8F4B24FF00A09AA467B68C3F30803D1
:10AC2000002B40F0AC83EFF31183002B40F0A7839F
:10AC300017F04AF98046102606E017F045F9A0EB18
:10AC40000800B0F57A7F2DD27B68C3F308031BB9E7
:10AC5000EFF31183002BF0D0EFF3118386F312880A
:10AC60004FF0E022012590691169C90344BFCBF878
:10AC700098529069D4F8E8C5DBF89822DBB283F3E8
:10AC80001188DBF89C524FF47A7101FB05F36244A2
:10AC9000181AB0FBF5F001FB0200A0EB0800B0F5BC
:10ACA0007A7FD1D3B9F10109B7D101225921504698
:10ACB00014F046FF924B5B68C3F308035546002B24
:10ACC00040F08383EFF31183002B40F07E8317F075
:10ACD000FBF88046DFF828A2DFF82C92102706E068
:10ACE00017F0F2F8A0EB0800B0F57A7F32D2DAF86C
:10ACF0000430C3F308031BB9EFF31183002BEFD02B
:10AD0000EFF3118387F312884FF0E0220120D2F88D
:10AD100018C01169CE0303D5C9F89802D2F818C03B
:10AD2000D4F8E8E5D9F89822DBB283F31188D9F892
:10AD30009C624FF47A7101FB06F002EB0E03A0EB6C
:10AD40000C00B0FBF6F001FB0300A0EB0800B0F52F
:10AD50007A7FCCD3019B032B00F097839B22402169
:10AD6000284614F0EDFE664B5B68C3F30803002B26
:10AD700040F02783EFF31183002B40F0228317F07C
:10AD8000A3F88046DFF878A1DFF87C91102706E071
:10AD900017F09AF8A0EB0800B0F57A7F32D2DAF813
:10ADA0000430C3F308031BB9EFF31183002BEFD07A
:10ADB000EFF3118387F312884FF0E0220120D2F8DD
:10ADC00018C01169CE0303D5C9F89802D2F818C08B
:10ADD000D4F8E8E5D9F89822DBB283F31188D9F8E2
:10ADE0009C624FF47A7101FB06F002EB0E03A0EBBC
:10ADF0000C00B0FBF6F001FB0300A0EB0800B0F57F
:10AE00007A7FCCD303224121284614F099FE3C4B93
:10AE10005B68C3F30803002B40F0CF82EFF311838C
:10AE2000002B40F0CA8217F04FF88046DFF8D0A020
:10AE3000DFF8D490102706E017F046F8A0EB0800E2
:10AE4000B0F57A7F32D2DAF80430C3F308031BB9C5
:10AE5000EFF31183002BEFD0EFF3118387F3128808
:10AE60004FF0E0220120D2F818C01169C90303D5C0
:10AE7000C9F89802D2F818C0D4F8E8E5D9F89822B1
:10AE8000DBB283F31188D9F89C624FF47A7101FB2D
:10AE900006F002EB0E03A0EB0C00B0FBF6F001FB9A
:10AEA0000300A0EB0800B0F57A7FCCD394F8C53549
:10AEB000013BDBB2022B00F26682124A134493F884
:10AEC0003C22120162F03202D2B24221284614F032
:10AED00037FE0B4B5B68C3F30803002B40F069821D
:10AEE000EFF31183002B40F0648216F0EDFF8046F3
:10AEF000DFF80CA0DFF8109010270EE01CD5050835
:10AF000000ED00E028D40508202C002016F0DCFF1E
:10AF1000A0EB0800B0F57A7F32D2DAF80430C3F340
:10AF200008031BB9EFF31183002BEFD0EFF311836C
:10AF300087F312884FF0E0220120D2F818C011697F
:10AF4000CE0303D5C9F89802D2F818C0D4F8E8E5C2
:10AF5000D9F89822DBB283F31188D9F89C624FF4B8
:10AF60007A7101FB06F002EB0E03A0EB0C00B0FBC4
:10AF7000F6F001FB0300A0EB0800B0F57A7FCCD31C
:10AF800008224321284614F0DBFDB44B5B68C3F371
:10AF90000803002B40F00982EFF31183002B40F0EF
:10AFA000048216F091FF8046DFF8B0A2DFF8B0927D
:10AFB000102706E016F088FFA0EB0800B0F57A7FB6
:10AFC00032D2DAF80430C3F308031BB9EFF311836C
:10AFD000002BEFD0EFF3118387F312884FF0E022BC
:10AFE0000120D2F818C01169C90303D5C9F8980225
:10AFF000D2F818C0D4F8E8E5D9F89822DBB283F388
:10B000001188D9F89C624FF47A7101FB06F002EBCB
:10B010000E03A0EB0C00B0FBF6F001FB0300A0EB6D
:10B020000800B0F57A7FCCD3019B032B00F0E081C0
:10B0300004225821284614F083FD884B5B68C3F333
:10B040000803002B40F0A181EFF31183002B40F0A7
:10B050009C8116F039FF8046DFF800A2DFF80092ED
:10B06000102706E016F030FFA0EB0800B0F57A7F5D
:10B0700032D2DAF80430C3F308031BB9EFF31183BB
:10B08000002BEFD0EFF3118387F312884FF0E0220B
:10B090000120D2F818C01169C90303D5C9F8980274
:10B0A000D2F818C0D4F8E8E5D9F89822DBB283F3D7
:10B0B0001188D9F89C624FF47A7101FB06F002EB1B
:10B0C0000E03A0EB0C00B0FBF6F001FB0300A0EBBD
:10B0D0000800B0F57A7FCCD30A225321284614F019
:10B0E0002FFD5E4B5B68C3F30803002B40F05981D2
:10B0F000EFF31183002B40F0548116F0E5FE8046FB
:10B10000DFF858A1DFF85891102706E016F0DCFEB2
:10B11000A0EB0800B0F57A7F32D2DAF80430C3F33E
:10B1200008031BB9EFF31183002BEFD0EFF311836A
:10B1300087F312884FF0E0220120D2F818C011697D
:10B14000CE0303D5C9F89802D2F818C0D4F8E8E5C0
:10B15000D9F89822DBB283F31188D9F89C624FF4B6
:10B160007A7101FB06F002EB0E03A0EB0C00B0FBC2
:10B17000F6F001FB0300A0EB0800B0F57A7FCCD31A
:10B1800002227C21284614F0DBFC344B5B68C3F3BD
:10B190000803002B40F00181EFF31183002B40F0F6
:10B1A000FC8016F091FE8046DFF8B0A0DFF8B0908A
:10B1B000102706E016F088FEA0EB0800B0F57A7FB5
:10B1C00032D2DAF80430C3F308031BB9EFF311836A
:10B1D000002BEFD0EFF3118387F312884FF0E022BA
:10B1E0000120D2F818C01169C90303D5C9F8980223
:10B1F000D2F818C0D4F8E8E5D9F89822DBB283F386
:10B200001188D9F89C624FF47A7101FB06F002EBC9
:10B210000E03A0EB0C00B0FBF6F001FB0300A0EB6B
:10B220000800B0F57A7FCCD30E227D21284614F099
:10B2300087FC0A4B5B68C3F30803002B40F0A9802E
:10B24000EFF31183002B40F0A48016F03DFE804602
:10B25000DFF808A0DFF8089010270AE000ED00E012
:10B26000202C002016F030FEA0EB0800B0F57A7F0D
:10B2700032D2DAF80430C3F308031BB9EFF31183B9
:10B28000002BEFD0EFF3118387F312884FF0E02209
:10B290000120D2F818C01169CE0303D5C9F898026D
:10B2A000D2F818C0D4F8E8E5D9F89822DBB283F3D5
:10B2B0001188D9F89C624FF47A7101FB06F002EB19
:10B2C0000E03A0EB0C00B0FBF6F001FB0300A0EBBB
:10B2D0000800B0F57A7FCCD3019B032B00F06D8280
:10B2E000009B93F82101D8B115F0DAFF054600283C
:10B2F00000F0C98200992623C380C14B41F80C3F5E
:10B3000000231A464DF0C8FAAB884FF00042B3FA5A
:10B3100083F332FA03F303D0BA490A6813430B608C
:10B320002268B94BB3EB920F80F0B682B3EBD20F29
:10B3300080F0B482B3EB121F80F0B282B3EB521FE5
:10B3400080F0B082B3EB921F80F0AE82B3EBD21FDD
:10B3500080F0AC82B3EB122F34BF4FF480738023A4
:10B36000009A938215B0BDE8F08F16F04BFC804632
:10B37000FFF792BA16F046FC8046FFF737BB16F08F
:10B3800041FC804657E4CD229FE516F03BFC804609
:10B3900062E616F037FC80465AE716F033FC80462A
:10B3A00002E716F02FFC8046AAE616F02BFC80463A
:10B3B000FAE516F027FC80469AE516F023FC804655
:10B3C00034E516F01FFC8046DCE416F01BFC8046DA
:10B3D00080E416F017FC8046FFF7ABBB16F012FCBA
:10B3E0008046FFF752BB16F00DFC8046FFF7A4BA6B
:10B3F00002225821284614F0A3FB844B5B68C3F358
:10B400000803002B40F02382EFF31183002B40F060
:10B410001E8216F059FD8046DFF8F0A1DFF8F091AA
:10B42000102707E016F050FDA0EB0803B3F57A7F74
:10B43000BFF452AEDAF80430C3F308031BB9EFF3DC
:10B440001183002BEED0EFF3118287F312884FF0B7
:10B45000E02101208E690B69DB0302D5C9F898024F
:10B460008E69D4F8E835D9F89802D2B282F31188FF
:10B47000D9F89C124FF47A72184402FB01F39B1B1B
:10B48000B3FBF1F302FB0030CEE70022482128464F
:10B4900014F056FB5D4B5B68C3F30803002B40F0D0
:10B4A000DE81EFF31183002B40F0D98116F00CFD03
:10B4B0008046DFF858A1DFF85891102706E016F013
:10B4C00003FDA0EB0803B3F57A7F2ED2DAF804303F
:10B4D000C3F308031BB9EFF31183002BEFD0EFF395
:10B4E000118387F312884FF0E022012096691169D9
:10B4F000C90302D5C9F898029669D4F8E825D9F8A5
:10B500009802DBB283F31188D9F89C1210444FF4EF
:10B510007A7202FB01F39B1BB3FBF1F302FB0030D9
:10B52000A0EB0803B3F57A7FD0D3802249212846C7
:10B5300014F006FB354B5B68C3F30803002B40F0A7
:10B540009E81EFF31183002B40F0998116F0BCFC33
:10B550008046DFF8B8A0DFF8B890102706E016F0B4
:10B56000B3FCA0EB0803B3F57A7F2ED2DAF80430EF
:10B57000C3F308031BB9EFF31183002BEFD0EFF3F4
:10B58000118387F312884FF0E02201209669116938
:10B59000C90302D5C9F898029669D4F8E825D9F804
:10B5A0009802DBB283F31188D9F89C1210444FF44F
:10B5B0007A7202FB01F39B1BB3FBF1F302FB003039
:10B5C000A0EB0803B3F57A7FD0D3002245212846AB
:10B5D00014F0B6FA0D4B5B68C3F30803002B40F080
:10B5E0004A81EFF31183002B40F0458116F06CFC8B
:10B5F0008046DFF818A0DFF81890102711E000BF90
:10B60000D1970008003C01408096980000ED00E0D2
:10B61000202C002016F058FCA0EB0803B3F57A7F2D
:10B620002ED2DAF80430C3F308031BB9EFF3118309
:10B63000002BEFD0EFF3118387F312884FF0E02255
:10B64000012096691169C90302D5C9F89802966963
:10B65000D4F8E825D9F89802DBB283F31188D9F839
:10B660009C1210444FF47A7202FB01F39B1BB3FB54
:10B67000F1F302FB0030A0EB0803B3F57A7FD0D3DF
:10B6800006224621284614F05BFA894B5B68C3F317
:10B690000803002B40F0EB80EFF31183002B40F008
:10B6A000E68016F011FC8046DFF804A2DFF808926D
:10B6B000102706E016F008FCA0EB0803B3F57A7F2C
